{
  "_format": "hh-sol-artifact-1",
  "contractName": "Exchange",
  "sourceName": "contracts/Exchange.sol",
  "abi": [
    {
      "inputs": [
        {
          "internalType": "address",
          "name": "trustedForwarder",
          "type": "address"
        },
        {
          "internalType": "address",
          "name": "_feeManager",
          "type": "address"
        }
      ],
      "stateMutability": "nonpayable",
      "type": "constructor"
    },
    {
      "inputs": [],
      "name": "AccessControlBadConfirmation",
      "type": "error"
    },
    {
      "inputs": [
        {
          "internalType": "address",
          "name": "account",
          "type": "address"
        },
        {
          "internalType": "bytes32",
          "name": "neededRole",
          "type": "bytes32"
        }
      ],
      "name": "AccessControlUnauthorizedAccount",
      "type": "error"
    },
    {
      "inputs": [],
      "name": "EnforcedPause",
      "type": "error"
    },
    {
      "inputs": [],
      "name": "ExpectedPause",
      "type": "error"
    },
    {
      "anonymous": false,
      "inputs": [
        {
          "indexed": false,
          "internalType": "address",
          "name": "account",
          "type": "address"
        }
      ],
      "name": "Paused",
      "type": "event"
    },
    {
      "anonymous": false,
      "inputs": [
        {
          "indexed": true,
          "internalType": "bytes32",
          "name": "role",
          "type": "bytes32"
        },
        {
          "indexed": true,
          "internalType": "bytes32",
          "name": "previousAdminRole",
          "type": "bytes32"
        },
        {
          "indexed": true,
          "internalType": "bytes32",
          "name": "newAdminRole",
          "type": "bytes32"
        }
      ],
      "name": "RoleAdminChanged",
      "type": "event"
    },
    {
      "anonymous": false,
      "inputs": [
        {
          "indexed": true,
          "internalType": "bytes32",
          "name": "role",
          "type": "bytes32"
        },
        {
          "indexed": true,
          "internalType": "address",
          "name": "account",
          "type": "address"
        },
        {
          "indexed": true,
          "internalType": "address",
          "name": "sender",
          "type": "address"
        }
      ],
      "name": "RoleGranted",
      "type": "event"
    },
    {
      "anonymous": false,
      "inputs": [
        {
          "indexed": true,
          "internalType": "bytes32",
          "name": "role",
          "type": "bytes32"
        },
        {
          "indexed": true,
          "internalType": "address",
          "name": "account",
          "type": "address"
        },
        {
          "indexed": true,
          "internalType": "address",
          "name": "sender",
          "type": "address"
        }
      ],
      "name": "RoleRevoked",
      "type": "event"
    },
    {
      "anonymous": false,
      "inputs": [
        {
          "indexed": false,
          "internalType": "address",
          "name": "account",
          "type": "address"
        }
      ],
      "name": "Unpaused",
      "type": "event"
    },
    {
      "inputs": [],
      "name": "DEFAULT_ADMIN_ROLE",
      "outputs": [
        {
          "internalType": "bytes32",
          "name": "",
          "type": "bytes32"
        }
      ],
      "stateMutability": "view",
      "type": "function"
    },
    {
      "inputs": [],
      "name": "USDToken",
      "outputs": [
        {
          "internalType": "contract IERC20",
          "name": "",
          "type": "address"
        }
      ],
      "stateMutability": "view",
      "type": "function"
    },
    {
      "inputs": [],
      "name": "feeManager",
      "outputs": [
        {
          "internalType": "contract FeeManager",
          "name": "",
          "type": "address"
        }
      ],
      "stateMutability": "view",
      "type": "function"
    },
    {
      "inputs": [
        {
          "internalType": "bytes32",
          "name": "role",
          "type": "bytes32"
        }
      ],
      "name": "getRoleAdmin",
      "outputs": [
        {
          "internalType": "bytes32",
          "name": "",
          "type": "bytes32"
        }
      ],
      "stateMutability": "view",
      "type": "function"
    },
    {
      "inputs": [
        {
          "internalType": "bytes32",
          "name": "role",
          "type": "bytes32"
        },
        {
          "internalType": "address",
          "name": "account",
          "type": "address"
        }
      ],
      "name": "grantRole",
      "outputs": [],
      "stateMutability": "nonpayable",
      "type": "function"
    },
    {
      "inputs": [
        {
          "internalType": "bytes32",
          "name": "role",
          "type": "bytes32"
        },
        {
          "internalType": "address",
          "name": "account",
          "type": "address"
        }
      ],
      "name": "hasRole",
      "outputs": [
        {
          "internalType": "bool",
          "name": "",
          "type": "bool"
        }
      ],
      "stateMutability": "view",
      "type": "function"
    },
    {
      "inputs": [
        {
          "internalType": "address",
          "name": "forwarder",
          "type": "address"
        }
      ],
      "name": "isTrustedForwarder",
      "outputs": [
        {
          "internalType": "bool",
          "name": "",
          "type": "bool"
        }
      ],
      "stateMutability": "view",
      "type": "function"
    },
    {
      "inputs": [],
      "name": "paused",
      "outputs": [
        {
          "internalType": "bool",
          "name": "",
          "type": "bool"
        }
      ],
      "stateMutability": "view",
      "type": "function"
    },
    {
      "inputs": [
        {
          "internalType": "bytes32",
          "name": "role",
          "type": "bytes32"
        },
        {
          "internalType": "address",
          "name": "callerConfirmation",
          "type": "address"
        }
      ],
      "name": "renounceRole",
      "outputs": [],
      "stateMutability": "nonpayable",
      "type": "function"
    },
    {
      "inputs": [
        {
          "internalType": "bytes32",
          "name": "role",
          "type": "bytes32"
        },
        {
          "internalType": "address",
          "name": "account",
          "type": "address"
        }
      ],
      "name": "revokeRole",
      "outputs": [],
      "stateMutability": "nonpayable",
      "type": "function"
    },
    {
      "inputs": [],
      "name": "stableManager",
      "outputs": [
        {
          "internalType": "contract StableManager",
          "name": "",
          "type": "address"
        }
      ],
      "stateMutability": "view",
      "type": "function"
    },
    {
      "inputs": [
        {
          "internalType": "bytes4",
          "name": "interfaceId",
          "type": "bytes4"
        }
      ],
      "name": "supportsInterface",
      "outputs": [
        {
          "internalType": "bool",
          "name": "",
          "type": "bool"
        }
      ],
      "stateMutability": "view",
      "type": "function"
    },
    {
      "inputs": [
        {
          "internalType": "address",
          "name": "stableToken",
          "type": "address"
        },
        {
          "internalType": "address",
          "name": "token",
          "type": "address"
        },
        {
          "internalType": "uint256",
          "name": "amount",
          "type": "uint256"
        },
        {
          "internalType": "address",
          "name": "partner",
          "type": "address"
        }
      ],
      "name": "swapStableToToken",
      "outputs": [
        {
          "internalType": "bool",
          "name": "",
          "type": "bool"
        }
      ],
      "stateMutability": "nonpayable",
      "type": "function"
    },
    {
      "inputs": [
        {
          "internalType": "address",
          "name": "token",
          "type": "address"
        },
        {
          "internalType": "address",
          "name": "stableToken",
          "type": "address"
        },
        {
          "internalType": "uint256",
          "name": "amount",
          "type": "uint256"
        },
        {
          "internalType": "address",
          "name": "partner",
          "type": "address"
        }
      ],
      "name": "swapTokentoStable",
      "outputs": [
        {
          "internalType": "bool",
          "name": "",
          "type": "bool"
        }
      ],
      "stateMutability": "nonpayable",
      "type": "function"
    },
    {
      "inputs": [],
      "name": "uniswapRouter",
      "outputs": [
        {
          "internalType": "contract IUniswapV2Router02",
          "name": "",
          "type": "address"
        }
      ],
      "stateMutability": "view",
      "type": "function"
    }
  ],
  "bytecode": "0x60a060405234801561001057600080fd5b5060405161156b38038061156b83398101604081905261002f916100bc565b6001600160a01b03918216608052600180546001600160a81b03191674e592427a0aece92de3edee1f18e0157c05861564001790556002805473a0b86991c6218b36c1d19d4a2e9eb0ce3606eb486001600160a01b03199182161790915560038054909116919092161790556100ef565b80516001600160a01b03811681146100b757600080fd5b919050565b600080604083850312156100cf57600080fd5b6100d8836100a0565b91506100e6602084016100a0565b90509250929050565b60805161145a6101116000396000818161018b0152611111015261145a6000f3fe608060405234801561001057600080fd5b50600436106100f55760003560e01c806386c5941811610097578063a217fddf11610066578063a217fddf14610242578063d0fb02031461024a578063d547741f1461025d578063f3dd8f781461027057600080fd5b806386c59418146101f657806391d148541461020957806393ddbc681461021c578063969b65a21461022f57600080fd5b806336568abe116100d357806336568abe14610168578063572b6c051461017b5780635c975abb146101bb578063735de9f7146101c657600080fd5b806301ffc9a7146100fa578063248a9ca3146101225780632f2ff15d14610153575b600080fd5b61010d610108366004611151565b610283565b60405190151581526020015b60405180910390f35b610145610130366004611182565b60009081526020819052604090206001015490565b604051908152602001610119565b6101666101613660046111b7565b6102ba565b005b6101666101763660046111b7565b6102e5565b61010d6101893660046111e3565b7f00000000000000000000000000000000000000000000000000000000000000006001600160a01b0390811691161490565b60015460ff1661010d565b6001546101de9061010090046001600160a01b031681565b6040516001600160a01b039091168152602001610119565b6002546101de906001600160a01b031681565b61010d6102173660046111b7565b61032d565b61010d61022a3660046111fe565b610356565b6004546101de906001600160a01b031681565b610145600081565b6003546101de906001600160a01b031681565b61016661026b3660046111b7565b6109d6565b61010d61027e3660046111fe565b6109fb565b60006001600160e01b03198216637965db0b60e01b14806102b457506301ffc9a760e01b6001600160e01b03198316145b92915050565b6000828152602081905260409020600101546102d581610f91565b6102df8383610fa5565b50505050565b6102ed611038565b6001600160a01b0316816001600160a01b03161461031e5760405163334bd91960e11b815260040160405180910390fd5b6103288282611047565b505050565b6000918252602082815260408084206001600160a01b0393909316845291905290205460ff1690565b60006001600160a01b0385166103af5760405162461bcd60e51b81526020600482015260196024820152781cdd18589b19551bdad95b8818d85b89dd081899481b9d5b1b603a1b60448201526064015b60405180910390fd5b600083116103cf5760405162461bcd60e51b81526004016103a69061124b565b8484846001600160a01b0383166370a082316103e9611038565b6040516001600160e01b031960e084901b1681526001600160a01b039091166004820152602401602060405180830381865afa15801561042d573d6000803e3d6000fd5b505050506040513d601f19601f82011682018060405250810190610451919061128e565b10156104925760405162461bcd60e51b815260206004820152601060248201526f0a8ded6cadc40dcdee840cadcdeeaced60831b60448201526064016103a6565b84826001600160a01b031663dd62ed3e6104aa611038565b6040516001600160e01b031960e084901b1681526001600160a01b039091166004820152306024820152604401602060405180830381865afa1580156104f4573d6000803e3d6000fd5b505050506040513d601f19601f82011682018060405250810190610518919061128e565b101561055d5760405162461bcd60e51b8152602060048201526014602482015273082d8d8deeec2dcc6ca40dcdee840cadcdeeaced60631b60448201526064016103a6565b816001600160a01b03166323b872dd610574611038565b6040516001600160e01b031960e084901b1681526001600160a01b039091166004820152306024820152604481018890526064016020604051808303816000875af11580156105c7573d6000803e3d6000fd5b505050506040513d601f19601f820116820180604052508101906105eb91906112a7565b506040516370a0823160e01b81523060048201526000906001600160a01b038416906370a0823190602401602060405180830381865afa158015610633573d6000803e3d6000fd5b505050506040513d601f19601f82011682018060405250810190610657919061128e565b60015460405163095ea7b360e01b81526001600160a01b03610100909204821660048201526024810183905291925084169063095ea7b3906044016020604051808303816000875af11580156106b1573d6000803e3d6000fd5b505050506040513d601f19601f820116820180604052508101906106d591906112a7565b50604080516002808252606082018352600092602083019080368337019050509050888160008151811061070b5761070b6112df565b6001600160a01b03928316602091820292909201015260025482519116908290600190811061073c5761073c6112df565b6001600160a01b039283166020918202929092010152600154600091610100909104166338ed173984838561076f611038565b426040518663ffffffff1660e01b81526004016107909594939291906112f5565b6000604051808303816000875af11580156107af573d6000803e3d6000fd5b505050506040513d6000823e601f3d908101601f191682016040526107d79190810190611366565b60025460045482519293506001600160a01b039182169263095ea7b392909116908490600190811061080b5761080b6112df565b60200260200101516040518363ffffffff1660e01b81526004016108449291906001600160a01b03929092168252602082015260400190565b6020604051808303816000875af1158015610863573d6000803e3d6000fd5b505050506040513d601f19601f8201168201806040525081019061088791906112a7565b5060045481516000916001600160a01b03169063a7ed89d1908c90859060019081106108b5576108b56112df565b60209081029190910101516040516001600160e01b031960e085901b1681526001600160a01b0392831660048201526024810191909152908b1660448201526064016020604051808303816000875af1158015610916573d6000803e3d6000fd5b505050506040513d601f19601f8201168201806040525081019061093a919061128e565b9050846001600160a01b031663a9059cbb610953611038565b6040516001600160e01b031960e084901b1681526001600160a01b039091166004820152602481018490526044016020604051808303816000875af11580156109a0573d6000803e3d6000fd5b505050506040513d601f19601f820116820180604052508101906109c491906112a7565b5060019b9a5050505050505050505050565b6000828152602081905260409020600101546109f181610f91565b6102df8383611047565b60006001600160a01b038516610a4f5760405162461bcd60e51b81526020600482015260196024820152781cdd18589b19551bdad95b8818d85b89dd081899481b9d5b1b603a1b60448201526064016103a6565b60008311610a6f5760405162461bcd60e51b81526004016103a69061124b565b84836001600160a01b0382166370a08231610a88611038565b6040516001600160e01b031960e084901b1681526001600160a01b039091166004820152602401602060405180830381865afa158015610acc573d6000803e3d6000fd5b505050506040513d601f19601f82011682018060405250810190610af0919061128e565b1015610b315760405162461bcd60e51b815260206004820152601060248201526f0a8ded6cadc40dcdee840cadcdeeaced60831b60448201526064016103a6565b83816001600160a01b031663dd62ed3e610b49611038565b6040516001600160e01b031960e084901b1681526001600160a01b039091166004820152306024820152604401602060405180830381865afa158015610b93573d6000803e3d6000fd5b505050506040513d601f19601f82011682018060405250810190610bb7919061128e565b1015610bfc5760405162461bcd60e51b8152602060048201526014602482015273082d8d8deeec2dcc6ca40dcdee840cadcdeeaced60631b60448201526064016103a6565b806001600160a01b03166323b872dd610c13611038565b6040516001600160e01b031960e084901b1681526001600160a01b039091166004820152306024820152604481018790526064016020604051808303816000875af1158015610c66573d6000803e3d6000fd5b505050506040513d601f19601f82011682018060405250810190610c8a91906112a7565b506004805460405163095ea7b360e01b81526001600160a01b03918216928101929092526024820186905282169063095ea7b3906044016020604051808303816000875af1158015610ce0573d6000803e3d6000fd5b505050506040513d601f19601f82011682018060405250810190610d0491906112a7565b506004805460405163167f4deb60e01b81526001600160a01b038981169382019390935260248101879052858316604482015291169063167f4deb906064016020604051808303816000875af1158015610d62573d6000803e3d6000fd5b505050506040513d601f19601f82011682018060405250810190610d86919061128e565b506002546040516370a0823160e01b81523060048201526000916001600160a01b0316906370a0823190602401602060405180830381865afa158015610dd0573d6000803e3d6000fd5b505050506040513d601f19601f82011682018060405250810190610df4919061128e565b60025460015460405163095ea7b360e01b81526001600160a01b036101009092048216600482015260248101849052929350169063095ea7b3906044016020604051808303816000875af1158015610e50573d6000803e3d6000fd5b505050506040513d601f19601f82011682018060405250810190610e7491906112a7565b50604080516002808252606082018352600092602083019080368337505060025482519293506001600160a01b031691839150600090610eb657610eb66112df565b60200260200101906001600160a01b031690816001600160a01b0316815250508681600181518110610eea57610eea6112df565b6001600160a01b0392831660209182029290920101526001546101009004166338ed173983600084610f1a611038565b426040518663ffffffff1660e01b8152600401610f3b9594939291906112f5565b6000604051808303816000875af1158015610f5a573d6000803e3d6000fd5b505050506040513d6000823e601f3d908101601f19168201604052610f829190810190611366565b50600198975050505050505050565b610fa281610f9d611038565b6110d0565b50565b6000610fb1838361032d565b611030576000838152602081815260408083206001600160a01b03861684529091529020805460ff19166001179055610fe8611038565b6001600160a01b0316826001600160a01b0316847f2f8788117e7eff1d82e926ec794901d17c78024a50270940304540a733656f0d60405160405180910390a45060016102b4565b5060006102b4565b600061104261110d565b905090565b6000611053838361032d565b15611030576000838152602081815260408083206001600160a01b03861684529091529020805460ff19169055611088611038565b6001600160a01b0316826001600160a01b0316847ff6391f5c32d9c69d2a47ea670b442974b53935d1edc7fd64eb21e047a839171b60405160405180910390a45060016102b4565b6110da828261032d565b6111095760405163e2517d3f60e01b81526001600160a01b0382166004820152602481018390526044016103a6565b5050565b60007f00000000000000000000000000000000000000000000000000000000000000006001600160a01b0316330361114c575060131936013560601c90565b503390565b60006020828403121561116357600080fd5b81356001600160e01b03198116811461117b57600080fd5b9392505050565b60006020828403121561119457600080fd5b5035919050565b80356001600160a01b03811681146111b257600080fd5b919050565b600080604083850312156111ca57600080fd5b823591506111da6020840161119b565b90509250929050565b6000602082840312156111f557600080fd5b61117b8261119b565b6000806000806080858703121561121457600080fd5b61121d8561119b565b935061122b6020860161119b565b9250604085013591506112406060860161119b565b905092959194509250565b60208082526023908201527f416d6f756e74206e65656420746f2062652067726561746572207468616e207a60408201526265726f60e81b606082015260800190565b6000602082840312156112a057600080fd5b5051919050565b6000602082840312156112b957600080fd5b8151801515811461117b57600080fd5b634e487b7160e01b600052604160045260246000fd5b634e487b7160e01b600052603260045260246000fd5b600060a082018783526020878185015260a0604085015281875180845260c086019150828901935060005b818110156113455784516001600160a01b031683529383019391830191600101611320565b50506001600160a01b03969096166060850152505050608001529392505050565b6000602080838503121561137957600080fd5b825167ffffffffffffffff8082111561139157600080fd5b818501915085601f8301126113a557600080fd5b8151818111156113b7576113b76112c9565b8060051b604051601f19603f830116810181811085821117156113dc576113dc6112c9565b6040529182528482019250838101850191888311156113fa57600080fd5b938501935b82851015611418578451845293850193928501926113ff565b9897505050505050505056fea264697066735822122080ae60bc04c06b136672fd14e9f6ed86442111f96e1f5f6976fef35dfd85c57d64736f6c63430008140033",
  "linkReferences": {},
  "deployedLinkReferences": {}
}