{
  "_format": "hh-sol-artifact-1",
  "contractName": "UniswapSwap",
  "sourceName": "contracts/UniswapSwap.sol",
  "abi": [
    {
      "inputs": [
        {
          "internalType": "address",
          "name": "_uniswapRouter",
          "type": "address"
        },
        {
          "internalType": "address",
          "name": "_uniswapFactory",
          "type": "address"
        }
      ],
      "stateMutability": "nonpayable",
      "type": "constructor"
    },
    {
      "inputs": [
        {
          "internalType": "address",
          "name": "tokenA",
          "type": "address"
        },
        {
          "internalType": "address",
          "name": "tokenB",
          "type": "address"
        },
        {
          "internalType": "uint256",
          "name": "amountADesired",
          "type": "uint256"
        },
        {
          "internalType": "uint256",
          "name": "amountBDesired",
          "type": "uint256"
        },
        {
          "internalType": "uint256",
          "name": "amountAMin",
          "type": "uint256"
        },
        {
          "internalType": "uint256",
          "name": "amountBMin",
          "type": "uint256"
        }
      ],
      "name": "addLiquidity",
      "outputs": [],
      "stateMutability": "nonpayable",
      "type": "function"
    },
    {
      "inputs": [
        {
          "internalType": "address",
          "name": "tokenA",
          "type": "address"
        },
        {
          "internalType": "address",
          "name": "tokenB",
          "type": "address"
        },
        {
          "internalType": "uint256",
          "name": "amountA",
          "type": "uint256"
        }
      ],
      "name": "getTokenBPrice",
      "outputs": [
        {
          "internalType": "uint256",
          "name": "amountB",
          "type": "uint256"
        }
      ],
      "stateMutability": "view",
      "type": "function"
    },
    {
      "inputs": [
        {
          "internalType": "address",
          "name": "tokenA",
          "type": "address"
        },
        {
          "internalType": "address",
          "name": "tokenB",
          "type": "address"
        },
        {
          "internalType": "uint256",
          "name": "amountIn",
          "type": "uint256"
        },
        {
          "internalType": "uint256",
          "name": "amountOutMin",
          "type": "uint256"
        }
      ],
      "name": "swapTokens",
      "outputs": [],
      "stateMutability": "nonpayable",
      "type": "function"
    },
    {
      "inputs": [],
      "name": "uniswapFactory",
      "outputs": [
        {
          "internalType": "address",
          "name": "",
          "type": "address"
        }
      ],
      "stateMutability": "view",
      "type": "function"
    },
    {
      "inputs": [],
      "name": "uniswapRouter",
      "outputs": [
        {
          "internalType": "contract IUniswapV2Router02",
          "name": "",
          "type": "address"
        }
      ],
      "stateMutability": "view",
      "type": "function"
    }
  ],
  "bytecode": "0x608060405234801561001057600080fd5b50604051610bbf380380610bbf83398101604081905261002f9161007c565b600080546001600160a01b039384166001600160a01b031991821617909155600180549290931691161790556100af565b80516001600160a01b038116811461007757600080fd5b919050565b6000806040838503121561008f57600080fd5b61009883610060565b91506100a660208401610060565b90509250929050565b610b01806100be6000396000f3fe608060405234801561001057600080fd5b50600436106100575760003560e01c80633351733f1461005c57806372b0826a14610071578063735de9f7146100975780638bdb2afa146100c25780638e18cdfc146100d5575b600080fd5b61006f61006a3660046107c5565b6100e8565b005b61008461007f36600461081e565b61047d565b6040519081526020015b60405180910390f35b6000546100aa906001600160a01b031681565b6040516001600160a01b03909116815260200161008e565b6001546100aa906001600160a01b031681565b61006f6100e336600461085f565b610598565b6040516323b872dd60e01b8152336004820152306024820152604481018590526001600160a01b038716906323b872dd906064016020604051808303816000875af115801561013b573d6000803e3d6000fd5b505050506040513d601f19601f8201168201806040525081019061015f91906108a5565b506040516323b872dd60e01b8152336004820152306024820152604481018490526001600160a01b038616906323b872dd906064016020604051808303816000875af11580156101b3573d6000803e3d6000fd5b505050506040513d601f19601f820116820180604052508101906101d791906108a5565b5060005460405163095ea7b360e01b81526001600160a01b039182166004820152602481018690529087169063095ea7b3906044016020604051808303816000875af115801561022b573d6000803e3d6000fd5b505050506040513d601f19601f8201168201806040525081019061024f91906108a5565b5060005460405163095ea7b360e01b81526001600160a01b039182166004820152602481018590529086169063095ea7b3906044016020604051808303816000875af11580156102a3573d6000803e3d6000fd5b505050506040513d601f19601f820116820180604052508101906102c791906108a5565b5060015460405163e6a4390560e01b81526001600160a01b0388811660048301528781166024830152600092169063e6a4390590604401602060405180830381865afa15801561031b573d6000803e3d6000fd5b505050506040513d601f19601f8201168201806040525081019061033f91906108ce565b90506001600160a01b0381166103ca576001546040516364e329cb60e11b81526001600160a01b03898116600483015288811660248301529091169063c9c65396906044016020604051808303816000875af11580156103a3573d6000803e3d6000fd5b505050506040513d601f19601f820116820180604052508101906103c791906108ce565b90505b6000805460405162e8e33760e81b81526001600160a01b038a81166004830152898116602483015260448201899052606482018890526084820187905260a482018690523360c48301524260e48301528392839291169063e8e3370090610104016060604051808303816000875af115801561044a573d6000803e3d6000fd5b505050506040513d601f19601f8201168201806040525081019061046e91906108eb565b50505050505050505050505050565b6040805160028082526060820183526000928392919060208301908036833701905050905084816000815181106104b6576104b661092f565b60200260200101906001600160a01b031690816001600160a01b03168152505083816001815181106104ea576104ea61092f565b6001600160a01b0392831660209182029290920101526000805460405163d06ca61f60e01b81529192169063d06ca61f9061052b9087908690600401610989565b600060405180830381865afa158015610548573d6000803e3d6000fd5b505050506040513d6000823e601f3d908101601f1916820160405261057091908101906109aa565b9050806001815181106105855761058561092f565b6020026020010151925050509392505050565b6040516323b872dd60e01b8152336004820152306024820152604481018390526001600160a01b038516906323b872dd906064016020604051808303816000875af11580156105eb573d6000803e3d6000fd5b505050506040513d601f19601f8201168201806040525081019061060f91906108a5565b5060005460405163095ea7b360e01b81526001600160a01b039182166004820152602481018490529085169063095ea7b3906044016020604051808303816000875af1158015610663573d6000803e3d6000fd5b505050506040513d601f19601f8201168201806040525081019061068791906108a5565b5060408051600280825260608201835260009260208301908036833701905050905084816000815181106106bd576106bd61092f565b60200260200101906001600160a01b031690816001600160a01b03168152505083816001815181106106f1576106f161092f565b6001600160a01b039283166020918202929092010152600080546040516338ed173960e01b8152919216906338ed1739906107389087908790879033904290600401610a68565b6000604051808303816000875af1158015610757573d6000803e3d6000fd5b505050506040513d6000823e601f3d908101601f1916820160405261077f91908101906109aa565b9050600081600183516107929190610aa4565b815181106107a2576107a261092f565b505050505050505050565b6001600160a01b03811681146107c257600080fd5b50565b60008060008060008060c087890312156107de57600080fd5b86356107e9816107ad565b955060208701356107f9816107ad565b95989597505050506040840135936060810135936080820135935060a0909101359150565b60008060006060848603121561083357600080fd5b833561083e816107ad565b9250602084013561084e816107ad565b929592945050506040919091013590565b6000806000806080858703121561087557600080fd5b8435610880816107ad565b93506020850135610890816107ad565b93969395505050506040820135916060013590565b6000602082840312156108b757600080fd5b815180151581146108c757600080fd5b9392505050565b6000602082840312156108e057600080fd5b81516108c7816107ad565b60008060006060848603121561090057600080fd5b8351925060208401519150604084015190509250925092565b634e487b7160e01b600052604160045260246000fd5b634e487b7160e01b600052603260045260246000fd5b600081518084526020808501945080840160005b8381101561097e5781516001600160a01b031687529582019590820190600101610959565b509495945050505050565b8281526040602082015260006109a26040830184610945565b949350505050565b600060208083850312156109bd57600080fd5b825167ffffffffffffffff808211156109d557600080fd5b818501915085601f8301126109e957600080fd5b8151818111156109fb576109fb610919565b8060051b604051601f19603f83011681018181108582111715610a2057610a20610919565b604052918252848201925083810185019188831115610a3e57600080fd5b938501935b82851015610a5c57845184529385019392850192610a43565b98975050505050505050565b85815284602082015260a060408201526000610a8760a0830186610945565b6001600160a01b0394909416606083015250608001529392505050565b81810381811115610ac557634e487b7160e01b600052601160045260246000fd5b9291505056fea26469706673582212204e278109e333bc0c59015adbc47c3e732e7bd7d018f17e21aedbe4c8b3b5a9df64736f6c63430008140033",
  "linkReferences": {},
  "deployedLinkReferences": {}
}