{"contracts/ERC20Stable.sol":{"ERC20Stable":{"abi":[{"inputs":[{"internalType":"string","name":"name","type":"string"},{"internalType":"address","name":"trustedForwarder","type":"address"}],"stateMutability":"nonpayable","type":"constructor"},{"inputs":[],"name":"AccessControlBadConfirmation","type":"error"},{"inputs":[{"internalType":"address","name":"account","type":"address"},{"internalType":"bytes32","name":"neededRole","type":"bytes32"}],"name":"AccessControlUnauthorizedAccount","type":"error"},{"inputs":[{"internalType":"address","name":"spender","type":"address"},{"internalType":"uint256","name":"allowance","type":"uint256"},{"internalType":"uint256","name":"needed","type":"uint256"}],"name":"ERC20InsufficientAllowance","type":"error"},{"inputs":[{"internalType":"address","name":"sender","type":"address"},{"internalType":"uint256","name":"balance","type":"uint256"},{"internalType":"uint256","name":"needed","type":"uint256"}],"name":"ERC20InsufficientBalance","type":"error"},{"inputs":[{"internalType":"address","name":"approver","type":"address"}],"name":"ERC20InvalidApprover","type":"error"},{"inputs":[{"internalType":"address","name":"receiver","type":"address"}],"name":"ERC20InvalidReceiver","type":"error"},{"inputs":[{"internalType":"address","name":"sender","type":"address"}],"name":"ERC20InvalidSender","type":"error"},{"inputs":[{"internalType":"address","name":"spender","type":"address"}],"name":"ERC20InvalidSpender","type":"error"},{"inputs":[],"name":"EnforcedPause","type":"error"},{"inputs":[],"name":"ExpectedPause","type":"error"},{"anonymous":false,"inputs":[{"indexed":true,"internalType":"address","name":"owner","type":"address"},{"indexed":true,"internalType":"address","name":"spender","type":"address"},{"indexed":false,"internalType":"uint256","name":"value","type":"uint256"}],"name":"Approval","type":"event"},{"anonymous":false,"inputs":[{"indexed":false,"internalType":"address","name":"account","type":"address"}],"name":"Paused","type":"event"},{"anonymous":false,"inputs":[{"indexed":true,"internalType":"bytes32","name":"role","type":"bytes32"},{"indexed":true,"internalType":"bytes32","name":"previousAdminRole","type":"bytes32"},{"indexed":true,"internalType":"bytes32","name":"newAdminRole","type":"bytes32"}],"name":"RoleAdminChanged","type":"event"},{"anonymous":false,"inputs":[{"indexed":true,"internalType":"bytes32","name":"role","type":"bytes32"},{"indexed":true,"internalType":"address","name":"account","type":"address"},{"indexed":true,"internalType":"address","name":"sender","type":"address"}],"name":"RoleGranted","type":"event"},{"anonymous":false,"inputs":[{"indexed":true,"internalType":"bytes32","name":"role","type":"bytes32"},{"indexed":true,"internalType":"address","name":"account","type":"address"},{"indexed":true,"internalType":"address","name":"sender","type":"address"}],"name":"RoleRevoked","type":"event"},{"anonymous":false,"inputs":[{"indexed":true,"internalType":"address","name":"from","type":"address"},{"indexed":true,"internalType":"address","name":"to","type":"address"},{"indexed":false,"internalType":"uint256","name":"value","type":"uint256"}],"name":"Transfer","type":"event"},{"anonymous":false,"inputs":[{"indexed":false,"internalType":"address","name":"account","type":"address"}],"name":"Unpaused","type":"event"},{"inputs":[],"name":"DEFAULT_ADMIN_ROLE","outputs":[{"internalType":"bytes32","name":"","type":"bytes32"}],"stateMutability":"view","type":"function"},{"inputs":[],"name":"MINTER_ROLE","outputs":[{"internalType":"bytes32","name":"","type":"bytes32"}],"stateMutability":"view","type":"function"},{"inputs":[],"name":"PAUSER_ROLE","outputs":[{"internalType":"bytes32","name":"","type":"bytes32"}],"stateMutability":"view","type":"function"},{"inputs":[{"internalType":"address","name":"owner","type":"address"},{"internalType":"address","name":"spender","type":"address"}],"name":"allowance","outputs":[{"internalType":"uint256","name":"","type":"uint256"}],"stateMutability":"view","type":"function"},{"inputs":[{"internalType":"address","name":"spender","type":"address"},{"internalType":"uint256","name":"value","type":"uint256"}],"name":"approve","outputs":[{"internalType":"bool","name":"","type":"bool"}],"stateMutability":"nonpayable","type":"function"},{"inputs":[{"internalType":"address","name":"account","type":"address"}],"name":"balanceOf","outputs":[{"internalType":"uint256","name":"","type":"uint256"}],"stateMutability":"view","type":"function"},{"inputs":[{"internalType":"uint256","name":"value","type":"uint256"}],"name":"burn","outputs":[],"stateMutability":"nonpayable","type":"function"},{"inputs":[{"internalType":"address","name":"account","type":"address"},{"internalType":"uint256","name":"value","type":"uint256"}],"name":"burnFrom","outputs":[],"stateMutability":"nonpayable","type":"function"},{"inputs":[],"name":"decimals","outputs":[{"internalType":"uint8","name":"","type":"uint8"}],"stateMutability":"view","type":"function"},{"inputs":[{"internalType":"bytes32","name":"role","type":"bytes32"}],"name":"getRoleAdmin","outputs":[{"internalType":"bytes32","name":"","type":"bytes32"}],"stateMutability":"view","type":"function"},{"inputs":[{"internalType":"bytes32","name":"role","type":"bytes32"},{"internalType":"address","name":"account","type":"address"}],"name":"grantNewRole","outputs":[],"stateMutability":"nonpayable","type":"function"},{"inputs":[{"internalType":"bytes32","name":"role","type":"bytes32"},{"internalType":"address","name":"account","type":"address"}],"name":"grantRole","outputs":[],"stateMutability":"nonpayable","type":"function"},{"inputs":[{"internalType":"bytes32","name":"role","type":"bytes32"},{"internalType":"address","name":"account","type":"address"}],"name":"hasRole","outputs":[{"internalType":"bool","name":"","type":"bool"}],"stateMutability":"view","type":"function"},{"inputs":[{"internalType":"address","name":"forwarder","type":"address"}],"name":"isTrustedForwarder","outputs":[{"internalType":"bool","name":"","type":"bool"}],"stateMutability":"view","type":"function"},{"inputs":[{"internalType":"address","name":"to","type":"address"},{"internalType":"uint256","name":"amount","type":"uint256"}],"name":"mint","outputs":[],"stateMutability":"nonpayable","type":"function"},{"inputs":[],"name":"name","outputs":[{"internalType":"string","name":"","type":"string"}],"stateMutability":"view","type":"function"},{"inputs":[],"name":"pause","outputs":[],"stateMutability":"nonpayable","type":"function"},{"inputs":[],"name":"paused","outputs":[{"internalType":"bool","name":"","type":"bool"}],"stateMutability":"view","type":"function"},{"inputs":[{"internalType":"bytes32","name":"role","type":"bytes32"},{"internalType":"address","name":"callerConfirmation","type":"address"}],"name":"renounceRole","outputs":[],"stateMutability":"nonpayable","type":"function"},{"inputs":[{"internalType":"bytes32","name":"role","type":"bytes32"},{"internalType":"address","name":"account","type":"address"}],"name":"revokeRole","outputs":[],"stateMutability":"nonpayable","type":"function"},{"inputs":[{"internalType":"bytes32","name":"role","type":"bytes32"},{"internalType":"address","name":"account","type":"address"}],"name":"revoveRole","outputs":[],"stateMutability":"nonpayable","type":"function"},{"inputs":[{"internalType":"bytes4","name":"interfaceId","type":"bytes4"}],"name":"supportsInterface","outputs":[{"internalType":"bool","name":"","type":"bool"}],"stateMutability":"view","type":"function"},{"inputs":[],"name":"symbol","outputs":[{"internalType":"string","name":"","type":"string"}],"stateMutability":"view","type":"function"},{"inputs":[],"name":"totalSupply","outputs":[{"internalType":"uint256","name":"","type":"uint256"}],"stateMutability":"view","type":"function"},{"inputs":[{"internalType":"address","name":"to","type":"address"},{"internalType":"uint256","name":"value","type":"uint256"}],"name":"transfer","outputs":[{"internalType":"bool","name":"","type":"bool"}],"stateMutability":"nonpayable","type":"function"},{"inputs":[{"internalType":"address","name":"from","type":"address"},{"internalType":"address","name":"to","type":"address"},{"internalType":"uint256","name":"value","type":"uint256"}],"name":"transferFrom","outputs":[{"internalType":"bool","name":"","type":"bool"}],"stateMutability":"nonpayable","type":"function"},{"inputs":[],"name":"unpause","outputs":[],"stateMutability":"nonpayable","type":"function"}],"evm":{"bytecode":{"linkReferences":{},"object":"60a06040523480156200001157600080fd5b50604051620013ad380380620013ad83398101604081905262000034916200020d565b808280600362000045828262000384565b50600462000054828262000384565b50506005805460ff19169055506001600160a01b03166080526200008360006200007d620000ec565b620000fd565b50620000b37f65d7a28e3265b37a6474929f336521b332c1681b933f6cb9f3376673440d862a6200007d620000ec565b50620000e37f9f2df0fed2c77648de5860a4cc508cd0818c85b8b8a1ab4ceeef8d981c8956a66200007d620000ec565b50505062000450565b6000620000f8620001b2565b905090565b60008281526006602090815260408083206001600160a01b038516845290915281205460ff16620001a85760008381526006602090815260408083206001600160a01b03861684529091529020805460ff191660011790556200015f620000ec565b6001600160a01b0316826001600160a01b0316847f2f8788117e7eff1d82e926ec794901d17c78024a50270940304540a733656f0d60405160405180910390a4506001620001ac565b5060005b92915050565b6080516000906001600160a01b03163303620001d5575060131936013560601c90565b503390565b634e487b7160e01b600052604160045260246000fd5b80516001600160a01b03811681146200020857600080fd5b919050565b600080604083850312156200022157600080fd5b82516001600160401b03808211156200023957600080fd5b818501915085601f8301126200024e57600080fd5b815181811115620002635762000263620001da565b604051601f8201601f19908116603f011681019083821181831017156200028e576200028e620001da565b81604052828152602093508884848701011115620002ab57600080fd5b600091505b82821015620002cf5784820184015181830185015290830190620002b0565b6000848483010152809650505050620002ea818601620001f0565b925050509250929050565b600181811c908216806200030a57607f821691505b6020821081036200032b57634e487b7160e01b600052602260045260246000fd5b50919050565b601f8211156200037f57600081815260208120601f850160051c810160208610156200035a5750805b601f850160051c820191505b818110156200037b5782815560010162000366565b5050505b505050565b81516001600160401b03811115620003a057620003a0620001da565b620003b881620003b18454620002f5565b8462000331565b602080601f831160018114620003f05760008415620003d75750858301515b600019600386901b1c1916600185901b1785556200037b565b600085815260208120601f198616915b82811015620004215788860151825594840194600190910190840162000400565b5085821015620004405787850151600019600388901b60f8161c191681555b5050505050600190811b01905550565b608051610f3a62000473600039600081816102ce0152610a440152610f3a6000f3fe608060405234801561001057600080fd5b50600436106101a95760003560e01c8063572b6c05116100f9578063a217fddf11610097578063d547741f11610071578063d547741f146103aa578063dd62ed3e146103bd578063e2520bd0146103f6578063e63ab1e91461040957600080fd5b8063a217fddf14610368578063a9059cbb14610370578063d53913931461038357600080fd5b806379cc6790116100d357806379cc6790146103325780638456cb591461034557806391d148541461034d57806395d89b411461036057600080fd5b8063572b6c05146102be5780635c975abb146102fe57806370a082311461030957600080fd5b80632f2ff15d116101665780633f4ba83a116101405780633f4ba83a1461027d57806340c10f191461028557806342966c681461029857806346a0300c146102ab57600080fd5b80632f2ff15d14610246578063313ce5671461025b57806336568abe1461026a57600080fd5b806301ffc9a7146101ae57806306fdde03146101d6578063095ea7b3146101eb57806318160ddd146101fe57806323b872dd14610210578063248a9ca314610223575b600080fd5b6101c16101bc366004610d1e565b610430565b60405190151581526020015b60405180910390f35b6101de610467565b6040516101cd9190610d4f565b6101c16101f9366004610db9565b6104f9565b6002545b6040519081526020016101cd565b6101c161021e366004610de3565b61051b565b610202610231366004610e1f565b60009081526006602052604090206001015490565b610259610254366004610e38565b610549565b005b604051600681526020016101cd565b610259610278366004610e38565b610574565b6102596105bc565b610259610293366004610db9565b6105f1565b6102596102a6366004610e1f565b610625565b6102596102b9366004610e38565b610636565b6101c16102cc366004610e64565b7f00000000000000000000000000000000000000000000000000000000000000006001600160a01b0390811691161490565b60055460ff166101c1565b610202610317366004610e64565b6001600160a01b031660009081526020819052604090205490565b610259610340366004610db9565b610641565b610259610661565b6101c161035b366004610e38565b610693565b6101de6106be565b610202600081565b6101c161037e366004610db9565b6106cd565b6102027f9f2df0fed2c77648de5860a4cc508cd0818c85b8b8a1ab4ceeef8d981c8956a681565b6102596103b8366004610e38565b6106e5565b6102026103cb366004610e7f565b6001600160a01b03918216600090815260016020908152604080832093909416825291909152205490565b610259610404366004610e38565b61070a565b6102027f65d7a28e3265b37a6474929f336521b332c1681b933f6cb9f3376673440d862a81565b60006001600160e01b03198216637965db0b60e01b148061046157506301ffc9a760e01b6001600160e01b03198316145b92915050565b60606003805461047690610ea9565b80601f01602080910402602001604051908101604052809291908181526020018280546104a290610ea9565b80156104ef5780601f106104c4576101008083540402835291602001916104ef565b820191906000526020600020905b8154815290600101906020018083116104d257829003601f168201915b5050505050905090565b600080610504610715565b9050610511818585610724565b5060019392505050565b600080610526610715565b9050610533858285610731565b61053e8585856107ae565b506001949350505050565b6000828152600660205260409020600101546105648161080d565b61056e838361081e565b50505050565b61057c610715565b6001600160a01b0316816001600160a01b0316146105ad5760405163334bd91960e11b815260040160405180910390fd5b6105b782826108b3565b505050565b7f65d7a28e3265b37a6474929f336521b332c1681b933f6cb9f3376673440d862a6105e68161080d565b6105ee61093e565b50565b7f9f2df0fed2c77648de5860a4cc508cd0818c85b8b8a1ab4ceeef8d981c8956a661061b8161080d565b6105b78383610996565b6105ee610630610715565b826109cc565b60006105648161080d565b6106538261064d610715565b83610731565b61065d82826109cc565b5050565b7f65d7a28e3265b37a6474929f336521b332c1681b933f6cb9f3376673440d862a61068b8161080d565b6105ee610a02565b60009182526006602090815260408084206001600160a01b0393909316845291905290205460ff1690565b60606004805461047690610ea9565b6000806106d8610715565b90506105118185856107ae565b6000828152600660205260409020600101546107008161080d565b61056e83836108b3565b60006107008161080d565b600061071f610a40565b905090565b6105b78383836001610a84565b6001600160a01b03838116600090815260016020908152604080832093861683529290522054600019811461056e578181101561079f57604051637dc7a0d960e11b81526001600160a01b038416600482015260248101829052604481018390526064015b60405180910390fd5b61056e84848484036000610a84565b6001600160a01b0383166107d857604051634b637e8f60e11b815260006004820152602401610796565b6001600160a01b0382166108025760405163ec442f0560e01b815260006004820152602401610796565b6105b7838383610b59565b6105ee81610819610715565b610b64565b600061082a8383610693565b6108ab5760008381526006602090815260408083206001600160a01b03861684529091529020805460ff19166001179055610863610715565b6001600160a01b0316826001600160a01b0316847f2f8788117e7eff1d82e926ec794901d17c78024a50270940304540a733656f0d60405160405180910390a4506001610461565b506000610461565b60006108bf8383610693565b156108ab5760008381526006602090815260408083206001600160a01b03861684529091529020805460ff191690556108f6610715565b6001600160a01b0316826001600160a01b0316847ff6391f5c32d9c69d2a47ea670b442974b53935d1edc7fd64eb21e047a839171b60405160405180910390a4506001610461565b610946610b9d565b6005805460ff191690557f5db9ee0a495bf2e6ff9c91a7834c1ba4fdd244a5e8aa4e537bd38aeae4b073aa610979610715565b6040516001600160a01b03909116815260200160405180910390a1565b6001600160a01b0382166109c05760405163ec442f0560e01b815260006004820152602401610796565b61065d60008383610b59565b6001600160a01b0382166109f657604051634b637e8f60e11b815260006004820152602401610796565b61065d82600083610b59565b610a0a610bc2565b6005805460ff191660011790557f62e78cea01bee320cd4e420270b5ea74000d11b0c9f74754ebdbfc544b05a258610979610715565b60007f00000000000000000000000000000000000000000000000000000000000000006001600160a01b03163303610a7f575060131936013560601c90565b503390565b6001600160a01b038416610aae5760405163e602df0560e01b815260006004820152602401610796565b6001600160a01b038316610ad857604051634a1406b160e11b815260006004820152602401610796565b6001600160a01b038085166000908152600160209081526040808320938716835292905220829055801561056e57826001600160a01b0316846001600160a01b03167f8c5be1e5ebec7d5bd14f71427d1e84f3dd0314c0f7b2291e5b200ac8c7c3b92584604051610b4b91815260200190565b60405180910390a350505050565b6105b7838383610be6565b610b6e8282610693565b61065d5760405163e2517d3f60e01b81526001600160a01b038216600482015260248101839052604401610796565b60055460ff16610bc057604051638dfc202b60e01b815260040160405180910390fd5b565b60055460ff1615610bc05760405163d93c066560e01b815260040160405180910390fd5b610bee610bc2565b6105b78383836001600160a01b038316610c1f578060026000828254610c149190610ee3565b90915550610c919050565b6001600160a01b03831660009081526020819052604090205481811015610c725760405163391434e360e21b81526001600160a01b03851660048201526024810182905260448101839052606401610796565b6001600160a01b03841660009081526020819052604090209082900390555b6001600160a01b038216610cad57600280548290039055610ccc565b6001600160a01b03821660009081526020819052604090208054820190555b816001600160a01b0316836001600160a01b03167fddf252ad1be2c89b69c2b068fc378daa952ba7f163c4a11628f55a4df523b3ef83604051610d1191815260200190565b60405180910390a3505050565b600060208284031215610d3057600080fd5b81356001600160e01b031981168114610d4857600080fd5b9392505050565b600060208083528351808285015260005b81811015610d7c57858101830151858201604001528201610d60565b506000604082860101526040601f19601f8301168501019250505092915050565b80356001600160a01b0381168114610db457600080fd5b919050565b60008060408385031215610dcc57600080fd5b610dd583610d9d565b946020939093013593505050565b600080600060608486031215610df857600080fd5b610e0184610d9d565b9250610e0f60208501610d9d565b9150604084013590509250925092565b600060208284031215610e3157600080fd5b5035919050565b60008060408385031215610e4b57600080fd5b82359150610e5b60208401610d9d565b90509250929050565b600060208284031215610e7657600080fd5b610d4882610d9d565b60008060408385031215610e9257600080fd5b610e9b83610d9d565b9150610e5b60208401610d9d565b600181811c90821680610ebd57607f821691505b602082108103610edd57634e487b7160e01b600052602260045260246000fd5b50919050565b8082018082111561046157634e487b7160e01b600052601160045260246000fdfea2646970667358221220da46ad39e38babdff2a6b14530fdd703ef8ae638d4a8474b0973c2c0d2e4820e64736f6c63430008140033","opcodes":"PUSH1 0xA0 PUSH1 0x40 MSTORE CALLVALUE DUP1 ISZERO PUSH3 0x11 JUMPI PUSH1 0x0 DUP1 REVERT JUMPDEST POP PUSH1 0x40 MLOAD PUSH3 0x13AD CODESIZE SUB DUP1 PUSH3 0x13AD DUP4 CODECOPY DUP2 ADD PUSH1 0x40 DUP2 SWAP1 MSTORE PUSH3 0x34 SWAP2 PUSH3 0x20D JUMP JUMPDEST DUP1 DUP3 DUP1 PUSH1 0x3 PUSH3 0x45 DUP3 DUP3 PUSH3 0x384 JUMP JUMPDEST POP PUSH1 0x4 PUSH3 0x54 DUP3 DUP3 PUSH3 0x384 JUMP JUMPDEST POP POP PUSH1 0x5 DUP1 SLOAD PUSH1 0xFF NOT AND SWAP1 SSTORE POP PUSH1 0x1 PUSH1 0x1 PUSH1 0xA0 SHL SUB AND PUSH1 0x80 MSTORE PUSH3 0x83 PUSH1 0x0 PUSH3 0x7D PUSH3 0xEC JUMP JUMPDEST PUSH3 0xFD JUMP JUMPDEST POP PUSH3 0xB3 PUSH32 0x65D7A28E3265B37A6474929F336521B332C1681B933F6CB9F3376673440D862A PUSH3 0x7D PUSH3 0xEC JUMP JUMPDEST POP PUSH3 0xE3 PUSH32 0x9F2DF0FED2C77648DE5860A4CC508CD0818C85B8B8A1AB4CEEEF8D981C8956A6 PUSH3 0x7D PUSH3 0xEC JUMP JUMPDEST POP POP POP PUSH3 0x450 JUMP JUMPDEST PUSH1 0x0 PUSH3 0xF8 PUSH3 0x1B2 JUMP JUMPDEST SWAP1 POP SWAP1 JUMP JUMPDEST PUSH1 0x0 DUP3 DUP2 MSTORE PUSH1 0x6 PUSH1 0x20 SWAP1 DUP2 MSTORE PUSH1 0x40 DUP1 DUP4 KECCAK256 PUSH1 0x1 PUSH1 0x1 PUSH1 0xA0 SHL SUB DUP6 AND DUP5 MSTORE SWAP1 SWAP2 MSTORE DUP2 KECCAK256 SLOAD PUSH1 0xFF AND PUSH3 0x1A8 JUMPI PUSH1 0x0 DUP4 DUP2 MSTORE PUSH1 0x6 PUSH1 0x20 SWAP1 DUP2 MSTORE PUSH1 0x40 DUP1 DUP4 KECCAK256 PUSH1 0x1 PUSH1 0x1 PUSH1 0xA0 SHL SUB DUP7 AND DUP5 MSTORE SWAP1 SWAP2 MSTORE SWAP1 KECCAK256 DUP1 SLOAD PUSH1 0xFF NOT AND PUSH1 0x1 OR SWAP1 SSTORE PUSH3 0x15F PUSH3 0xEC JUMP JUMPDEST PUSH1 0x1 PUSH1 0x1 PUSH1 0xA0 SHL SUB AND DUP3 PUSH1 0x1 PUSH1 0x1 PUSH1 0xA0 SHL SUB AND DUP5 PUSH32 0x2F8788117E7EFF1D82E926EC794901D17C78024A50270940304540A733656F0D PUSH1 0x40 MLOAD PUSH1 0x40 MLOAD DUP1 SWAP2 SUB SWAP1 LOG4 POP PUSH1 0x1 PUSH3 0x1AC JUMP JUMPDEST POP PUSH1 0x0 JUMPDEST SWAP3 SWAP2 POP POP JUMP JUMPDEST PUSH1 0x80 MLOAD PUSH1 0x0 SWAP1 PUSH1 0x1 PUSH1 0x1 PUSH1 0xA0 SHL SUB AND CALLER SUB PUSH3 0x1D5 JUMPI POP PUSH1 0x13 NOT CALLDATASIZE ADD CALLDATALOAD PUSH1 0x60 SHR SWAP1 JUMP JUMPDEST POP CALLER SWAP1 JUMP JUMPDEST PUSH4 0x4E487B71 PUSH1 0xE0 SHL PUSH1 0x0 MSTORE PUSH1 0x41 PUSH1 0x4 MSTORE PUSH1 0x24 PUSH1 0x0 REVERT JUMPDEST DUP1 MLOAD PUSH1 0x1 PUSH1 0x1 PUSH1 0xA0 SHL SUB DUP2 AND DUP2 EQ PUSH3 0x208 JUMPI PUSH1 0x0 DUP1 REVERT JUMPDEST SWAP2 SWAP1 POP JUMP JUMPDEST PUSH1 0x0 DUP1 PUSH1 0x40 DUP4 DUP6 SUB SLT ISZERO PUSH3 0x221 JUMPI PUSH1 0x0 DUP1 REVERT JUMPDEST DUP3 MLOAD PUSH1 0x1 PUSH1 0x1 PUSH1 0x40 SHL SUB DUP1 DUP3 GT ISZERO PUSH3 0x239 JUMPI PUSH1 0x0 DUP1 REVERT JUMPDEST DUP2 DUP6 ADD SWAP2 POP DUP6 PUSH1 0x1F DUP4 ADD SLT PUSH3 0x24E JUMPI PUSH1 0x0 DUP1 REVERT JUMPDEST DUP2 MLOAD DUP2 DUP2 GT ISZERO PUSH3 0x263 JUMPI PUSH3 0x263 PUSH3 0x1DA JUMP JUMPDEST PUSH1 0x40 MLOAD PUSH1 0x1F DUP3 ADD PUSH1 0x1F NOT SWAP1 DUP2 AND PUSH1 0x3F ADD AND DUP2 ADD SWAP1 DUP4 DUP3 GT DUP2 DUP4 LT OR ISZERO PUSH3 0x28E JUMPI PUSH3 0x28E PUSH3 0x1DA JUMP JUMPDEST DUP2 PUSH1 0x40 MSTORE DUP3 DUP2 MSTORE PUSH1 0x20 SWAP4 POP DUP9 DUP5 DUP5 DUP8 ADD ADD GT ISZERO PUSH3 0x2AB JUMPI PUSH1 0x0 DUP1 REVERT JUMPDEST PUSH1 0x0 SWAP2 POP JUMPDEST DUP3 DUP3 LT ISZERO PUSH3 0x2CF JUMPI DUP5 DUP3 ADD DUP5 ADD MLOAD DUP2 DUP4 ADD DUP6 ADD MSTORE SWAP1 DUP4 ADD SWAP1 PUSH3 0x2B0 JUMP JUMPDEST PUSH1 0x0 DUP5 DUP5 DUP4 ADD ADD MSTORE DUP1 SWAP7 POP POP POP POP PUSH3 0x2EA DUP2 DUP7 ADD PUSH3 0x1F0 JUMP JUMPDEST SWAP3 POP POP POP SWAP3 POP SWAP3 SWAP1 POP JUMP JUMPDEST PUSH1 0x1 DUP2 DUP2 SHR SWAP1 DUP3 AND DUP1 PUSH3 0x30A JUMPI PUSH1 0x7F DUP3 AND SWAP2 POP JUMPDEST PUSH1 0x20 DUP3 LT DUP2 SUB PUSH3 0x32B JUMPI PUSH4 0x4E487B71 PUSH1 0xE0 SHL PUSH1 0x0 MSTORE PUSH1 0x22 PUSH1 0x4 MSTORE PUSH1 0x24 PUSH1 0x0 REVERT JUMPDEST POP SWAP2 SWAP1 POP JUMP JUMPDEST PUSH1 0x1F DUP3 GT ISZERO PUSH3 0x37F JUMPI PUSH1 0x0 DUP2 DUP2 MSTORE PUSH1 0x20 DUP2 KECCAK256 PUSH1 0x1F DUP6 ADD PUSH1 0x5 SHR DUP2 ADD PUSH1 0x20 DUP7 LT ISZERO PUSH3 0x35A JUMPI POP DUP1 JUMPDEST PUSH1 0x1F DUP6 ADD PUSH1 0x5 SHR DUP3 ADD SWAP2 POP JUMPDEST DUP2 DUP2 LT ISZERO PUSH3 0x37B JUMPI DUP3 DUP2 SSTORE PUSH1 0x1 ADD PUSH3 0x366 JUMP JUMPDEST POP POP POP JUMPDEST POP POP POP JUMP JUMPDEST DUP2 MLOAD PUSH1 0x1 PUSH1 0x1 PUSH1 0x40 SHL SUB DUP2 GT ISZERO PUSH3 0x3A0 JUMPI PUSH3 0x3A0 PUSH3 0x1DA JUMP JUMPDEST PUSH3 0x3B8 DUP2 PUSH3 0x3B1 DUP5 SLOAD PUSH3 0x2F5 JUMP JUMPDEST DUP5 PUSH3 0x331 JUMP JUMPDEST PUSH1 0x20 DUP1 PUSH1 0x1F DUP4 GT PUSH1 0x1 DUP2 EQ PUSH3 0x3F0 JUMPI PUSH1 0x0 DUP5 ISZERO PUSH3 0x3D7 JUMPI POP DUP6 DUP4 ADD MLOAD JUMPDEST PUSH1 0x0 NOT PUSH1 0x3 DUP7 SWAP1 SHL SHR NOT AND PUSH1 0x1 DUP6 SWAP1 SHL OR DUP6 SSTORE PUSH3 0x37B JUMP JUMPDEST PUSH1 0x0 DUP6 DUP2 MSTORE PUSH1 0x20 DUP2 KECCAK256 PUSH1 0x1F NOT DUP7 AND SWAP2 JUMPDEST DUP3 DUP2 LT ISZERO PUSH3 0x421 JUMPI DUP9 DUP7 ADD MLOAD DUP3 SSTORE SWAP5 DUP5 ADD SWAP5 PUSH1 0x1 SWAP1 SWAP2 ADD SWAP1 DUP5 ADD PUSH3 0x400 JUMP JUMPDEST POP DUP6 DUP3 LT ISZERO PUSH3 0x440 JUMPI DUP8 DUP6 ADD MLOAD PUSH1 0x0 NOT PUSH1 0x3 DUP9 SWAP1 SHL PUSH1 0xF8 AND SHR NOT AND DUP2 SSTORE JUMPDEST POP POP POP POP POP PUSH1 0x1 SWAP1 DUP2 SHL ADD SWAP1 SSTORE POP JUMP JUMPDEST PUSH1 0x80 MLOAD PUSH2 0xF3A PUSH3 0x473 PUSH1 0x0 CODECOPY PUSH1 0x0 DUP2 DUP2 PUSH2 0x2CE ADD MSTORE PUSH2 0xA44 ADD MSTORE PUSH2 0xF3A PUSH1 0x0 RETURN INVALID PUSH1 0x80 PUSH1 0x40 MSTORE CALLVALUE DUP1 ISZERO PUSH2 0x10 JUMPI PUSH1 0x0 DUP1 REVERT JUMPDEST POP PUSH1 0x4 CALLDATASIZE LT PUSH2 0x1A9 JUMPI PUSH1 0x0 CALLDATALOAD PUSH1 0xE0 SHR DUP1 PUSH4 0x572B6C05 GT PUSH2 0xF9 JUMPI DUP1 PUSH4 0xA217FDDF GT PUSH2 0x97 JUMPI DUP1 PUSH4 0xD547741F GT PUSH2 0x71 JUMPI DUP1 PUSH4 0xD547741F EQ PUSH2 0x3AA JUMPI DUP1 PUSH4 0xDD62ED3E EQ PUSH2 0x3BD JUMPI DUP1 PUSH4 0xE2520BD0 EQ PUSH2 0x3F6 JUMPI DUP1 PUSH4 0xE63AB1E9 EQ PUSH2 0x409 JUMPI PUSH1 0x0 DUP1 REVERT JUMPDEST DUP1 PUSH4 0xA217FDDF EQ PUSH2 0x368 JUMPI DUP1 PUSH4 0xA9059CBB EQ PUSH2 0x370 JUMPI DUP1 PUSH4 0xD5391393 EQ PUSH2 0x383 JUMPI PUSH1 0x0 DUP1 REVERT JUMPDEST DUP1 PUSH4 0x79CC6790 GT PUSH2 0xD3 JUMPI DUP1 PUSH4 0x79CC6790 EQ PUSH2 0x332 JUMPI DUP1 PUSH4 0x8456CB59 EQ PUSH2 0x345 JUMPI DUP1 PUSH4 0x91D14854 EQ PUSH2 0x34D JUMPI DUP1 PUSH4 0x95D89B41 EQ PUSH2 0x360 JUMPI PUSH1 0x0 DUP1 REVERT JUMPDEST DUP1 PUSH4 0x572B6C05 EQ PUSH2 0x2BE JUMPI DUP1 PUSH4 0x5C975ABB EQ PUSH2 0x2FE JUMPI DUP1 PUSH4 0x70A08231 EQ PUSH2 0x309 JUMPI PUSH1 0x0 DUP1 REVERT JUMPDEST DUP1 PUSH4 0x2F2FF15D GT PUSH2 0x166 JUMPI DUP1 PUSH4 0x3F4BA83A GT PUSH2 0x140 JUMPI DUP1 PUSH4 0x3F4BA83A EQ PUSH2 0x27D JUMPI DUP1 PUSH4 0x40C10F19 EQ PUSH2 0x285 JUMPI DUP1 PUSH4 0x42966C68 EQ PUSH2 0x298 JUMPI DUP1 PUSH4 0x46A0300C EQ PUSH2 0x2AB JUMPI PUSH1 0x0 DUP1 REVERT JUMPDEST DUP1 PUSH4 0x2F2FF15D EQ PUSH2 0x246 JUMPI DUP1 PUSH4 0x313CE567 EQ PUSH2 0x25B JUMPI DUP1 PUSH4 0x36568ABE EQ PUSH2 0x26A JUMPI PUSH1 0x0 DUP1 REVERT JUMPDEST DUP1 PUSH4 0x1FFC9A7 EQ PUSH2 0x1AE JUMPI DUP1 PUSH4 0x6FDDE03 EQ PUSH2 0x1D6 JUMPI DUP1 PUSH4 0x95EA7B3 EQ PUSH2 0x1EB JUMPI DUP1 PUSH4 0x18160DDD EQ PUSH2 0x1FE JUMPI DUP1 PUSH4 0x23B872DD EQ PUSH2 0x210 JUMPI DUP1 PUSH4 0x248A9CA3 EQ PUSH2 0x223 JUMPI JUMPDEST PUSH1 0x0 DUP1 REVERT JUMPDEST PUSH2 0x1C1 PUSH2 0x1BC CALLDATASIZE PUSH1 0x4 PUSH2 0xD1E JUMP JUMPDEST PUSH2 0x430 JUMP JUMPDEST PUSH1 0x40 MLOAD SWAP1 ISZERO ISZERO DUP2 MSTORE PUSH1 0x20 ADD JUMPDEST PUSH1 0x40 MLOAD DUP1 SWAP2 SUB SWAP1 RETURN JUMPDEST PUSH2 0x1DE PUSH2 0x467 JUMP JUMPDEST PUSH1 0x40 MLOAD PUSH2 0x1CD SWAP2 SWAP1 PUSH2 0xD4F JUMP JUMPDEST PUSH2 0x1C1 PUSH2 0x1F9 CALLDATASIZE PUSH1 0x4 PUSH2 0xDB9 JUMP JUMPDEST PUSH2 0x4F9 JUMP JUMPDEST PUSH1 0x2 SLOAD JUMPDEST PUSH1 0x40 MLOAD SWAP1 DUP2 MSTORE PUSH1 0x20 ADD PUSH2 0x1CD JUMP JUMPDEST PUSH2 0x1C1 PUSH2 0x21E CALLDATASIZE PUSH1 0x4 PUSH2 0xDE3 JUMP JUMPDEST PUSH2 0x51B JUMP JUMPDEST PUSH2 0x202 PUSH2 0x231 CALLDATASIZE PUSH1 0x4 PUSH2 0xE1F JUMP JUMPDEST PUSH1 0x0 SWAP1 DUP2 MSTORE PUSH1 0x6 PUSH1 0x20 MSTORE PUSH1 0x40 SWAP1 KECCAK256 PUSH1 0x1 ADD SLOAD SWAP1 JUMP JUMPDEST PUSH2 0x259 PUSH2 0x254 CALLDATASIZE PUSH1 0x4 PUSH2 0xE38 JUMP JUMPDEST PUSH2 0x549 JUMP JUMPDEST STOP JUMPDEST PUSH1 0x40 MLOAD PUSH1 0x6 DUP2 MSTORE PUSH1 0x20 ADD PUSH2 0x1CD JUMP JUMPDEST PUSH2 0x259 PUSH2 0x278 CALLDATASIZE PUSH1 0x4 PUSH2 0xE38 JUMP JUMPDEST PUSH2 0x574 JUMP JUMPDEST PUSH2 0x259 PUSH2 0x5BC JUMP JUMPDEST PUSH2 0x259 PUSH2 0x293 CALLDATASIZE PUSH1 0x4 PUSH2 0xDB9 JUMP JUMPDEST PUSH2 0x5F1 JUMP JUMPDEST PUSH2 0x259 PUSH2 0x2A6 CALLDATASIZE PUSH1 0x4 PUSH2 0xE1F JUMP JUMPDEST PUSH2 0x625 JUMP JUMPDEST PUSH2 0x259 PUSH2 0x2B9 CALLDATASIZE PUSH1 0x4 PUSH2 0xE38 JUMP JUMPDEST PUSH2 0x636 JUMP JUMPDEST PUSH2 0x1C1 PUSH2 0x2CC CALLDATASIZE PUSH1 0x4 PUSH2 0xE64 JUMP JUMPDEST PUSH32 0x0 PUSH1 0x1 PUSH1 0x1 PUSH1 0xA0 SHL SUB SWAP1 DUP2 AND SWAP2 AND EQ SWAP1 JUMP JUMPDEST PUSH1 0x5 SLOAD PUSH1 0xFF AND PUSH2 0x1C1 JUMP JUMPDEST PUSH2 0x202 PUSH2 0x317 CALLDATASIZE PUSH1 0x4 PUSH2 0xE64 JUMP JUMPDEST PUSH1 0x1 PUSH1 0x1 PUSH1 0xA0 SHL SUB AND PUSH1 0x0 SWAP1 DUP2 MSTORE PUSH1 0x20 DUP2 SWAP1 MSTORE PUSH1 0x40 SWAP1 KECCAK256 SLOAD SWAP1 JUMP JUMPDEST PUSH2 0x259 PUSH2 0x340 CALLDATASIZE PUSH1 0x4 PUSH2 0xDB9 JUMP JUMPDEST PUSH2 0x641 JUMP JUMPDEST PUSH2 0x259 PUSH2 0x661 JUMP JUMPDEST PUSH2 0x1C1 PUSH2 0x35B CALLDATASIZE PUSH1 0x4 PUSH2 0xE38 JUMP JUMPDEST PUSH2 0x693 JUMP JUMPDEST PUSH2 0x1DE PUSH2 0x6BE JUMP JUMPDEST PUSH2 0x202 PUSH1 0x0 DUP2 JUMP JUMPDEST PUSH2 0x1C1 PUSH2 0x37E CALLDATASIZE PUSH1 0x4 PUSH2 0xDB9 JUMP JUMPDEST PUSH2 0x6CD JUMP JUMPDEST PUSH2 0x202 PUSH32 0x9F2DF0FED2C77648DE5860A4CC508CD0818C85B8B8A1AB4CEEEF8D981C8956A6 DUP2 JUMP JUMPDEST PUSH2 0x259 PUSH2 0x3B8 CALLDATASIZE PUSH1 0x4 PUSH2 0xE38 JUMP JUMPDEST PUSH2 0x6E5 JUMP JUMPDEST PUSH2 0x202 PUSH2 0x3CB CALLDATASIZE PUSH1 0x4 PUSH2 0xE7F JUMP JUMPDEST PUSH1 0x1 PUSH1 0x1 PUSH1 0xA0 SHL SUB SWAP2 DUP3 AND PUSH1 0x0 SWAP1 DUP2 MSTORE PUSH1 0x1 PUSH1 0x20 SWAP1 DUP2 MSTORE PUSH1 0x40 DUP1 DUP4 KECCAK256 SWAP4 SWAP1 SWAP5 AND DUP3 MSTORE SWAP2 SWAP1 SWAP2 MSTORE KECCAK256 SLOAD SWAP1 JUMP JUMPDEST PUSH2 0x259 PUSH2 0x404 CALLDATASIZE PUSH1 0x4 PUSH2 0xE38 JUMP JUMPDEST PUSH2 0x70A JUMP JUMPDEST PUSH2 0x202 PUSH32 0x65D7A28E3265B37A6474929F336521B332C1681B933F6CB9F3376673440D862A DUP2 JUMP JUMPDEST PUSH1 0x0 PUSH1 0x1 PUSH1 0x1 PUSH1 0xE0 SHL SUB NOT DUP3 AND PUSH4 0x7965DB0B PUSH1 0xE0 SHL EQ DUP1 PUSH2 0x461 JUMPI POP PUSH4 0x1FFC9A7 PUSH1 0xE0 SHL PUSH1 0x1 PUSH1 0x1 PUSH1 0xE0 SHL SUB NOT DUP4 AND EQ JUMPDEST SWAP3 SWAP2 POP POP JUMP JUMPDEST PUSH1 0x60 PUSH1 0x3 DUP1 SLOAD PUSH2 0x476 SWAP1 PUSH2 0xEA9 JUMP JUMPDEST DUP1 PUSH1 0x1F ADD PUSH1 0x20 DUP1 SWAP2 DIV MUL PUSH1 0x20 ADD PUSH1 0x40 MLOAD SWAP1 DUP2 ADD PUSH1 0x40 MSTORE DUP1 SWAP3 SWAP2 SWAP1 DUP2 DUP2 MSTORE PUSH1 0x20 ADD DUP3 DUP1 SLOAD PUSH2 0x4A2 SWAP1 PUSH2 0xEA9 JUMP JUMPDEST DUP1 ISZERO PUSH2 0x4EF JUMPI DUP1 PUSH1 0x1F LT PUSH2 0x4C4 JUMPI PUSH2 0x100 DUP1 DUP4 SLOAD DIV MUL DUP4 MSTORE SWAP2 PUSH1 0x20 ADD SWAP2 PUSH2 0x4EF JUMP JUMPDEST DUP3 ADD SWAP2 SWAP1 PUSH1 0x0 MSTORE PUSH1 0x20 PUSH1 0x0 KECCAK256 SWAP1 JUMPDEST DUP2 SLOAD DUP2 MSTORE SWAP1 PUSH1 0x1 ADD SWAP1 PUSH1 0x20 ADD DUP1 DUP4 GT PUSH2 0x4D2 JUMPI DUP3 SWAP1 SUB PUSH1 0x1F AND DUP3 ADD SWAP2 JUMPDEST POP POP POP POP POP SWAP1 POP SWAP1 JUMP JUMPDEST PUSH1 0x0 DUP1 PUSH2 0x504 PUSH2 0x715 JUMP JUMPDEST SWAP1 POP PUSH2 0x511 DUP2 DUP6 DUP6 PUSH2 0x724 JUMP JUMPDEST POP PUSH1 0x1 SWAP4 SWAP3 POP POP POP JUMP JUMPDEST PUSH1 0x0 DUP1 PUSH2 0x526 PUSH2 0x715 JUMP JUMPDEST SWAP1 POP PUSH2 0x533 DUP6 DUP3 DUP6 PUSH2 0x731 JUMP JUMPDEST PUSH2 0x53E DUP6 DUP6 DUP6 PUSH2 0x7AE JUMP JUMPDEST POP PUSH1 0x1 SWAP5 SWAP4 POP POP POP POP JUMP JUMPDEST PUSH1 0x0 DUP3 DUP2 MSTORE PUSH1 0x6 PUSH1 0x20 MSTORE PUSH1 0x40 SWAP1 KECCAK256 PUSH1 0x1 ADD SLOAD PUSH2 0x564 DUP2 PUSH2 0x80D JUMP JUMPDEST PUSH2 0x56E DUP4 DUP4 PUSH2 0x81E JUMP JUMPDEST POP POP POP POP JUMP JUMPDEST PUSH2 0x57C PUSH2 0x715 JUMP JUMPDEST PUSH1 0x1 PUSH1 0x1 PUSH1 0xA0 SHL SUB AND DUP2 PUSH1 0x1 PUSH1 0x1 PUSH1 0xA0 SHL SUB AND EQ PUSH2 0x5AD JUMPI PUSH1 0x40 MLOAD PUSH4 0x334BD919 PUSH1 0xE1 SHL DUP2 MSTORE PUSH1 0x4 ADD PUSH1 0x40 MLOAD DUP1 SWAP2 SUB SWAP1 REVERT JUMPDEST PUSH2 0x5B7 DUP3 DUP3 PUSH2 0x8B3 JUMP JUMPDEST POP POP POP JUMP JUMPDEST PUSH32 0x65D7A28E3265B37A6474929F336521B332C1681B933F6CB9F3376673440D862A PUSH2 0x5E6 DUP2 PUSH2 0x80D JUMP JUMPDEST PUSH2 0x5EE PUSH2 0x93E JUMP JUMPDEST POP JUMP JUMPDEST PUSH32 0x9F2DF0FED2C77648DE5860A4CC508CD0818C85B8B8A1AB4CEEEF8D981C8956A6 PUSH2 0x61B DUP2 PUSH2 0x80D JUMP JUMPDEST PUSH2 0x5B7 DUP4 DUP4 PUSH2 0x996 JUMP JUMPDEST PUSH2 0x5EE PUSH2 0x630 PUSH2 0x715 JUMP JUMPDEST DUP3 PUSH2 0x9CC JUMP JUMPDEST PUSH1 0x0 PUSH2 0x564 DUP2 PUSH2 0x80D JUMP JUMPDEST PUSH2 0x653 DUP3 PUSH2 0x64D PUSH2 0x715 JUMP JUMPDEST DUP4 PUSH2 0x731 JUMP JUMPDEST PUSH2 0x65D DUP3 DUP3 PUSH2 0x9CC JUMP JUMPDEST POP POP JUMP JUMPDEST PUSH32 0x65D7A28E3265B37A6474929F336521B332C1681B933F6CB9F3376673440D862A PUSH2 0x68B DUP2 PUSH2 0x80D JUMP JUMPDEST PUSH2 0x5EE PUSH2 0xA02 JUMP JUMPDEST PUSH1 0x0 SWAP2 DUP3 MSTORE PUSH1 0x6 PUSH1 0x20 SWAP1 DUP2 MSTORE PUSH1 0x40 DUP1 DUP5 KECCAK256 PUSH1 0x1 PUSH1 0x1 PUSH1 0xA0 SHL SUB SWAP4 SWAP1 SWAP4 AND DUP5 MSTORE SWAP2 SWAP1 MSTORE SWAP1 KECCAK256 SLOAD PUSH1 0xFF AND SWAP1 JUMP JUMPDEST PUSH1 0x60 PUSH1 0x4 DUP1 SLOAD PUSH2 0x476 SWAP1 PUSH2 0xEA9 JUMP JUMPDEST PUSH1 0x0 DUP1 PUSH2 0x6D8 PUSH2 0x715 JUMP JUMPDEST SWAP1 POP PUSH2 0x511 DUP2 DUP6 DUP6 PUSH2 0x7AE JUMP JUMPDEST PUSH1 0x0 DUP3 DUP2 MSTORE PUSH1 0x6 PUSH1 0x20 MSTORE PUSH1 0x40 SWAP1 KECCAK256 PUSH1 0x1 ADD SLOAD PUSH2 0x700 DUP2 PUSH2 0x80D JUMP JUMPDEST PUSH2 0x56E DUP4 DUP4 PUSH2 0x8B3 JUMP JUMPDEST PUSH1 0x0 PUSH2 0x700 DUP2 PUSH2 0x80D JUMP JUMPDEST PUSH1 0x0 PUSH2 0x71F PUSH2 0xA40 JUMP JUMPDEST SWAP1 POP SWAP1 JUMP JUMPDEST PUSH2 0x5B7 DUP4 DUP4 DUP4 PUSH1 0x1 PUSH2 0xA84 JUMP JUMPDEST PUSH1 0x1 PUSH1 0x1 PUSH1 0xA0 SHL SUB DUP4 DUP2 AND PUSH1 0x0 SWAP1 DUP2 MSTORE PUSH1 0x1 PUSH1 0x20 SWAP1 DUP2 MSTORE PUSH1 0x40 DUP1 DUP4 KECCAK256 SWAP4 DUP7 AND DUP4 MSTORE SWAP3 SWAP1 MSTORE KECCAK256 SLOAD PUSH1 0x0 NOT DUP2 EQ PUSH2 0x56E JUMPI DUP2 DUP2 LT ISZERO PUSH2 0x79F JUMPI PUSH1 0x40 MLOAD PUSH4 0x7DC7A0D9 PUSH1 0xE1 SHL DUP2 MSTORE PUSH1 0x1 PUSH1 0x1 PUSH1 0xA0 SHL SUB DUP5 AND PUSH1 0x4 DUP3 ADD MSTORE PUSH1 0x24 DUP2 ADD DUP3 SWAP1 MSTORE PUSH1 0x44 DUP2 ADD DUP4 SWAP1 MSTORE PUSH1 0x64 ADD JUMPDEST PUSH1 0x40 MLOAD DUP1 SWAP2 SUB SWAP1 REVERT JUMPDEST PUSH2 0x56E DUP5 DUP5 DUP5 DUP5 SUB PUSH1 0x0 PUSH2 0xA84 JUMP JUMPDEST PUSH1 0x1 PUSH1 0x1 PUSH1 0xA0 SHL SUB DUP4 AND PUSH2 0x7D8 JUMPI PUSH1 0x40 MLOAD PUSH4 0x4B637E8F PUSH1 0xE1 SHL DUP2 MSTORE PUSH1 0x0 PUSH1 0x4 DUP3 ADD MSTORE PUSH1 0x24 ADD PUSH2 0x796 JUMP JUMPDEST PUSH1 0x1 PUSH1 0x1 PUSH1 0xA0 SHL SUB DUP3 AND PUSH2 0x802 JUMPI PUSH1 0x40 MLOAD PUSH4 0xEC442F05 PUSH1 0xE0 SHL DUP2 MSTORE PUSH1 0x0 PUSH1 0x4 DUP3 ADD MSTORE PUSH1 0x24 ADD PUSH2 0x796 JUMP JUMPDEST PUSH2 0x5B7 DUP4 DUP4 DUP4 PUSH2 0xB59 JUMP JUMPDEST PUSH2 0x5EE DUP2 PUSH2 0x819 PUSH2 0x715 JUMP JUMPDEST PUSH2 0xB64 JUMP JUMPDEST PUSH1 0x0 PUSH2 0x82A DUP4 DUP4 PUSH2 0x693 JUMP JUMPDEST PUSH2 0x8AB JUMPI PUSH1 0x0 DUP4 DUP2 MSTORE PUSH1 0x6 PUSH1 0x20 SWAP1 DUP2 MSTORE PUSH1 0x40 DUP1 DUP4 KECCAK256 PUSH1 0x1 PUSH1 0x1 PUSH1 0xA0 SHL SUB DUP7 AND DUP5 MSTORE SWAP1 SWAP2 MSTORE SWAP1 KECCAK256 DUP1 SLOAD PUSH1 0xFF NOT AND PUSH1 0x1 OR SWAP1 SSTORE PUSH2 0x863 PUSH2 0x715 JUMP JUMPDEST PUSH1 0x1 PUSH1 0x1 PUSH1 0xA0 SHL SUB AND DUP3 PUSH1 0x1 PUSH1 0x1 PUSH1 0xA0 SHL SUB AND DUP5 PUSH32 0x2F8788117E7EFF1D82E926EC794901D17C78024A50270940304540A733656F0D PUSH1 0x40 MLOAD PUSH1 0x40 MLOAD DUP1 SWAP2 SUB SWAP1 LOG4 POP PUSH1 0x1 PUSH2 0x461 JUMP JUMPDEST POP PUSH1 0x0 PUSH2 0x461 JUMP JUMPDEST PUSH1 0x0 PUSH2 0x8BF DUP4 DUP4 PUSH2 0x693 JUMP JUMPDEST ISZERO PUSH2 0x8AB JUMPI PUSH1 0x0 DUP4 DUP2 MSTORE PUSH1 0x6 PUSH1 0x20 SWAP1 DUP2 MSTORE PUSH1 0x40 DUP1 DUP4 KECCAK256 PUSH1 0x1 PUSH1 0x1 PUSH1 0xA0 SHL SUB DUP7 AND DUP5 MSTORE SWAP1 SWAP2 MSTORE SWAP1 KECCAK256 DUP1 SLOAD PUSH1 0xFF NOT AND SWAP1 SSTORE PUSH2 0x8F6 PUSH2 0x715 JUMP JUMPDEST PUSH1 0x1 PUSH1 0x1 PUSH1 0xA0 SHL SUB AND DUP3 PUSH1 0x1 PUSH1 0x1 PUSH1 0xA0 SHL SUB AND DUP5 PUSH32 0xF6391F5C32D9C69D2A47EA670B442974B53935D1EDC7FD64EB21E047A839171B PUSH1 0x40 MLOAD PUSH1 0x40 MLOAD DUP1 SWAP2 SUB SWAP1 LOG4 POP PUSH1 0x1 PUSH2 0x461 JUMP JUMPDEST PUSH2 0x946 PUSH2 0xB9D JUMP JUMPDEST PUSH1 0x5 DUP1 SLOAD PUSH1 0xFF NOT AND SWAP1 SSTORE PUSH32 0x5DB9EE0A495BF2E6FF9C91A7834C1BA4FDD244A5E8AA4E537BD38AEAE4B073AA PUSH2 0x979 PUSH2 0x715 JUMP JUMPDEST PUSH1 0x40 MLOAD PUSH1 0x1 PUSH1 0x1 PUSH1 0xA0 SHL SUB SWAP1 SWAP2 AND DUP2 MSTORE PUSH1 0x20 ADD PUSH1 0x40 MLOAD DUP1 SWAP2 SUB SWAP1 LOG1 JUMP JUMPDEST PUSH1 0x1 PUSH1 0x1 PUSH1 0xA0 SHL SUB DUP3 AND PUSH2 0x9C0 JUMPI PUSH1 0x40 MLOAD PUSH4 0xEC442F05 PUSH1 0xE0 SHL DUP2 MSTORE PUSH1 0x0 PUSH1 0x4 DUP3 ADD MSTORE PUSH1 0x24 ADD PUSH2 0x796 JUMP JUMPDEST PUSH2 0x65D PUSH1 0x0 DUP4 DUP4 PUSH2 0xB59 JUMP JUMPDEST PUSH1 0x1 PUSH1 0x1 PUSH1 0xA0 SHL SUB DUP3 AND PUSH2 0x9F6 JUMPI PUSH1 0x40 MLOAD PUSH4 0x4B637E8F PUSH1 0xE1 SHL DUP2 MSTORE PUSH1 0x0 PUSH1 0x4 DUP3 ADD MSTORE PUSH1 0x24 ADD PUSH2 0x796 JUMP JUMPDEST PUSH2 0x65D DUP3 PUSH1 0x0 DUP4 PUSH2 0xB59 JUMP JUMPDEST PUSH2 0xA0A PUSH2 0xBC2 JUMP JUMPDEST PUSH1 0x5 DUP1 SLOAD PUSH1 0xFF NOT AND PUSH1 0x1 OR SWAP1 SSTORE PUSH32 0x62E78CEA01BEE320CD4E420270B5EA74000D11B0C9F74754EBDBFC544B05A258 PUSH2 0x979 PUSH2 0x715 JUMP JUMPDEST PUSH1 0x0 PUSH32 0x0 PUSH1 0x1 PUSH1 0x1 PUSH1 0xA0 SHL SUB AND CALLER SUB PUSH2 0xA7F JUMPI POP PUSH1 0x13 NOT CALLDATASIZE ADD CALLDATALOAD PUSH1 0x60 SHR SWAP1 JUMP JUMPDEST POP CALLER SWAP1 JUMP JUMPDEST PUSH1 0x1 PUSH1 0x1 PUSH1 0xA0 SHL SUB DUP5 AND PUSH2 0xAAE JUMPI PUSH1 0x40 MLOAD PUSH4 0xE602DF05 PUSH1 0xE0 SHL DUP2 MSTORE PUSH1 0x0 PUSH1 0x4 DUP3 ADD MSTORE PUSH1 0x24 ADD PUSH2 0x796 JUMP JUMPDEST PUSH1 0x1 PUSH1 0x1 PUSH1 0xA0 SHL SUB DUP4 AND PUSH2 0xAD8 JUMPI PUSH1 0x40 MLOAD PUSH4 0x4A1406B1 PUSH1 0xE1 SHL DUP2 MSTORE PUSH1 0x0 PUSH1 0x4 DUP3 ADD MSTORE PUSH1 0x24 ADD PUSH2 0x796 JUMP JUMPDEST PUSH1 0x1 PUSH1 0x1 PUSH1 0xA0 SHL SUB DUP1 DUP6 AND PUSH1 0x0 SWAP1 DUP2 MSTORE PUSH1 0x1 PUSH1 0x20 SWAP1 DUP2 MSTORE PUSH1 0x40 DUP1 DUP4 KECCAK256 SWAP4 DUP8 AND DUP4 MSTORE SWAP3 SWAP1 MSTORE KECCAK256 DUP3 SWAP1 SSTORE DUP1 ISZERO PUSH2 0x56E JUMPI DUP3 PUSH1 0x1 PUSH1 0x1 PUSH1 0xA0 SHL SUB AND DUP5 PUSH1 0x1 PUSH1 0x1 PUSH1 0xA0 SHL SUB AND PUSH32 0x8C5BE1E5EBEC7D5BD14F71427D1E84F3DD0314C0F7B2291E5B200AC8C7C3B925 DUP5 PUSH1 0x40 MLOAD PUSH2 0xB4B SWAP2 DUP2 MSTORE PUSH1 0x20 ADD SWAP1 JUMP JUMPDEST PUSH1 0x40 MLOAD DUP1 SWAP2 SUB SWAP1 LOG3 POP POP POP POP JUMP JUMPDEST PUSH2 0x5B7 DUP4 DUP4 DUP4 PUSH2 0xBE6 JUMP JUMPDEST PUSH2 0xB6E DUP3 DUP3 PUSH2 0x693 JUMP JUMPDEST PUSH2 0x65D JUMPI PUSH1 0x40 MLOAD PUSH4 0xE2517D3F PUSH1 0xE0 SHL DUP2 MSTORE PUSH1 0x1 PUSH1 0x1 PUSH1 0xA0 SHL SUB DUP3 AND PUSH1 0x4 DUP3 ADD MSTORE PUSH1 0x24 DUP2 ADD DUP4 SWAP1 MSTORE PUSH1 0x44 ADD PUSH2 0x796 JUMP JUMPDEST PUSH1 0x5 SLOAD PUSH1 0xFF AND PUSH2 0xBC0 JUMPI PUSH1 0x40 MLOAD PUSH4 0x8DFC202B PUSH1 0xE0 SHL DUP2 MSTORE PUSH1 0x4 ADD PUSH1 0x40 MLOAD DUP1 SWAP2 SUB SWAP1 REVERT JUMPDEST JUMP JUMPDEST PUSH1 0x5 SLOAD PUSH1 0xFF AND ISZERO PUSH2 0xBC0 JUMPI PUSH1 0x40 MLOAD PUSH4 0xD93C0665 PUSH1 0xE0 SHL DUP2 MSTORE PUSH1 0x4 ADD PUSH1 0x40 MLOAD DUP1 SWAP2 SUB SWAP1 REVERT JUMPDEST PUSH2 0xBEE PUSH2 0xBC2 JUMP JUMPDEST PUSH2 0x5B7 DUP4 DUP4 DUP4 PUSH1 0x1 PUSH1 0x1 PUSH1 0xA0 SHL SUB DUP4 AND PUSH2 0xC1F JUMPI DUP1 PUSH1 0x2 PUSH1 0x0 DUP3 DUP3 SLOAD PUSH2 0xC14 SWAP2 SWAP1 PUSH2 0xEE3 JUMP JUMPDEST SWAP1 SWAP2 SSTORE POP PUSH2 0xC91 SWAP1 POP JUMP JUMPDEST PUSH1 0x1 PUSH1 0x1 PUSH1 0xA0 SHL SUB DUP4 AND PUSH1 0x0 SWAP1 DUP2 MSTORE PUSH1 0x20 DUP2 SWAP1 MSTORE PUSH1 0x40 SWAP1 KECCAK256 SLOAD DUP2 DUP2 LT ISZERO PUSH2 0xC72 JUMPI PUSH1 0x40 MLOAD PUSH4 0x391434E3 PUSH1 0xE2 SHL DUP2 MSTORE PUSH1 0x1 PUSH1 0x1 PUSH1 0xA0 SHL SUB DUP6 AND PUSH1 0x4 DUP3 ADD MSTORE PUSH1 0x24 DUP2 ADD DUP3 SWAP1 MSTORE PUSH1 0x44 DUP2 ADD DUP4 SWAP1 MSTORE PUSH1 0x64 ADD PUSH2 0x796 JUMP JUMPDEST PUSH1 0x1 PUSH1 0x1 PUSH1 0xA0 SHL SUB DUP5 AND PUSH1 0x0 SWAP1 DUP2 MSTORE PUSH1 0x20 DUP2 SWAP1 MSTORE PUSH1 0x40 SWAP1 KECCAK256 SWAP1 DUP3 SWAP1 SUB SWAP1 SSTORE JUMPDEST PUSH1 0x1 PUSH1 0x1 PUSH1 0xA0 SHL SUB DUP3 AND PUSH2 0xCAD JUMPI PUSH1 0x2 DUP1 SLOAD DUP3 SWAP1 SUB SWAP1 SSTORE PUSH2 0xCCC JUMP JUMPDEST PUSH1 0x1 PUSH1 0x1 PUSH1 0xA0 SHL SUB DUP3 AND PUSH1 0x0 SWAP1 DUP2 MSTORE PUSH1 0x20 DUP2 SWAP1 MSTORE PUSH1 0x40 SWAP1 KECCAK256 DUP1 SLOAD DUP3 ADD SWAP1 SSTORE JUMPDEST DUP2 PUSH1 0x1 PUSH1 0x1 PUSH1 0xA0 SHL SUB AND DUP4 PUSH1 0x1 PUSH1 0x1 PUSH1 0xA0 SHL SUB AND PUSH32 0xDDF252AD1BE2C89B69C2B068FC378DAA952BA7F163C4A11628F55A4DF523B3EF DUP4 PUSH1 0x40 MLOAD PUSH2 0xD11 SWAP2 DUP2 MSTORE PUSH1 0x20 ADD SWAP1 JUMP JUMPDEST PUSH1 0x40 MLOAD DUP1 SWAP2 SUB SWAP1 LOG3 POP POP POP JUMP JUMPDEST PUSH1 0x0 PUSH1 0x20 DUP3 DUP5 SUB SLT ISZERO PUSH2 0xD30 JUMPI PUSH1 0x0 DUP1 REVERT JUMPDEST DUP2 CALLDATALOAD PUSH1 0x1 PUSH1 0x1 PUSH1 0xE0 SHL SUB NOT DUP2 AND DUP2 EQ PUSH2 0xD48 JUMPI PUSH1 0x0 DUP1 REVERT JUMPDEST SWAP4 SWAP3 POP POP POP JUMP JUMPDEST PUSH1 0x0 PUSH1 0x20 DUP1 DUP4 MSTORE DUP4 MLOAD DUP1 DUP3 DUP6 ADD MSTORE PUSH1 0x0 JUMPDEST DUP2 DUP2 LT ISZERO PUSH2 0xD7C JUMPI DUP6 DUP2 ADD DUP4 ADD MLOAD DUP6 DUP3 ADD PUSH1 0x40 ADD MSTORE DUP3 ADD PUSH2 0xD60 JUMP JUMPDEST POP PUSH1 0x0 PUSH1 0x40 DUP3 DUP7 ADD ADD MSTORE PUSH1 0x40 PUSH1 0x1F NOT PUSH1 0x1F DUP4 ADD AND DUP6 ADD ADD SWAP3 POP POP POP SWAP3 SWAP2 POP POP JUMP JUMPDEST DUP1 CALLDATALOAD PUSH1 0x1 PUSH1 0x1 PUSH1 0xA0 SHL SUB DUP2 AND DUP2 EQ PUSH2 0xDB4 JUMPI PUSH1 0x0 DUP1 REVERT JUMPDEST SWAP2 SWAP1 POP JUMP JUMPDEST PUSH1 0x0 DUP1 PUSH1 0x40 DUP4 DUP6 SUB SLT ISZERO PUSH2 0xDCC JUMPI PUSH1 0x0 DUP1 REVERT JUMPDEST PUSH2 0xDD5 DUP4 PUSH2 0xD9D JUMP JUMPDEST SWAP5 PUSH1 0x20 SWAP4 SWAP1 SWAP4 ADD CALLDATALOAD SWAP4 POP POP POP JUMP JUMPDEST PUSH1 0x0 DUP1 PUSH1 0x0 PUSH1 0x60 DUP5 DUP7 SUB SLT ISZERO PUSH2 0xDF8 JUMPI PUSH1 0x0 DUP1 REVERT JUMPDEST PUSH2 0xE01 DUP5 PUSH2 0xD9D JUMP JUMPDEST SWAP3 POP PUSH2 0xE0F PUSH1 0x20 DUP6 ADD PUSH2 0xD9D JUMP JUMPDEST SWAP2 POP PUSH1 0x40 DUP5 ADD CALLDATALOAD SWAP1 POP SWAP3 POP SWAP3 POP SWAP3 JUMP JUMPDEST PUSH1 0x0 PUSH1 0x20 DUP3 DUP5 SUB SLT ISZERO PUSH2 0xE31 JUMPI PUSH1 0x0 DUP1 REVERT JUMPDEST POP CALLDATALOAD SWAP2 SWAP1 POP JUMP JUMPDEST PUSH1 0x0 DUP1 PUSH1 0x40 DUP4 DUP6 SUB SLT ISZERO PUSH2 0xE4B JUMPI PUSH1 0x0 DUP1 REVERT JUMPDEST DUP3 CALLDATALOAD SWAP2 POP PUSH2 0xE5B PUSH1 0x20 DUP5 ADD PUSH2 0xD9D JUMP JUMPDEST SWAP1 POP SWAP3 POP SWAP3 SWAP1 POP JUMP JUMPDEST PUSH1 0x0 PUSH1 0x20 DUP3 DUP5 SUB SLT ISZERO PUSH2 0xE76 JUMPI PUSH1 0x0 DUP1 REVERT JUMPDEST PUSH2 0xD48 DUP3 PUSH2 0xD9D JUMP JUMPDEST PUSH1 0x0 DUP1 PUSH1 0x40 DUP4 DUP6 SUB SLT ISZERO PUSH2 0xE92 JUMPI PUSH1 0x0 DUP1 REVERT JUMPDEST PUSH2 0xE9B DUP4 PUSH2 0xD9D JUMP JUMPDEST SWAP2 POP PUSH2 0xE5B PUSH1 0x20 DUP5 ADD PUSH2 0xD9D JUMP JUMPDEST PUSH1 0x1 DUP2 DUP2 SHR SWAP1 DUP3 AND DUP1 PUSH2 0xEBD JUMPI PUSH1 0x7F DUP3 AND SWAP2 POP JUMPDEST PUSH1 0x20 DUP3 LT DUP2 SUB PUSH2 0xEDD JUMPI PUSH4 0x4E487B71 PUSH1 0xE0 SHL PUSH1 0x0 MSTORE PUSH1 0x22 PUSH1 0x4 MSTORE PUSH1 0x24 PUSH1 0x0 REVERT JUMPDEST POP SWAP2 SWAP1 POP JUMP JUMPDEST DUP1 DUP3 ADD DUP1 DUP3 GT ISZERO PUSH2 0x461 JUMPI PUSH4 0x4E487B71 PUSH1 0xE0 SHL PUSH1 0x0 MSTORE PUSH1 0x11 PUSH1 0x4 MSTORE PUSH1 0x24 PUSH1 0x0 REVERT INVALID LOG2 PUSH5 0x6970667358 0x22 SLT KECCAK256 0xDA CHAINID 0xAD CODECOPY 0xE3 DUP12 0xAB 0xDF CALLCODE 0xA6 0xB1 GASLIMIT ADDRESS REVERT 0xD7 SUB 0xEF DUP11 0xE6 CODESIZE 0xD4 0xA8 SELFBALANCE 0x4B MULMOD PUSH20 0xC2C0D2E4820E64736F6C63430008140033000000 "},"methodIdentifiers":{"DEFAULT_ADMIN_ROLE()":"a217fddf","MINTER_ROLE()":"d5391393","PAUSER_ROLE()":"e63ab1e9","allowance(address,address)":"dd62ed3e","approve(address,uint256)":"095ea7b3","balanceOf(address)":"70a08231","burn(uint256)":"42966c68","burnFrom(address,uint256)":"79cc6790","decimals()":"313ce567","getRoleAdmin(bytes32)":"248a9ca3","grantNewRole(bytes32,address)":"46a0300c","grantRole(bytes32,address)":"2f2ff15d","hasRole(bytes32,address)":"91d14854","isTrustedForwarder(address)":"572b6c05","mint(address,uint256)":"40c10f19","name()":"06fdde03","pause()":"8456cb59","paused()":"5c975abb","renounceRole(bytes32,address)":"36568abe","revokeRole(bytes32,address)":"d547741f","revoveRole(bytes32,address)":"e2520bd0","supportsInterface(bytes4)":"01ffc9a7","symbol()":"95d89b41","totalSupply()":"18160ddd","transfer(address,uint256)":"a9059cbb","transferFrom(address,address,uint256)":"23b872dd","unpause()":"3f4ba83a"}}}}}