{"contracts/FeeManager.sol":{"FeeManager":{"abi":[{"inputs":[{"internalType":"address","name":"trustedForwarder","type":"address"}],"stateMutability":"nonpayable","type":"constructor"},{"inputs":[],"name":"AccessControlBadConfirmation","type":"error"},{"inputs":[{"internalType":"address","name":"account","type":"address"},{"internalType":"bytes32","name":"neededRole","type":"bytes32"}],"name":"AccessControlUnauthorizedAccount","type":"error"},{"anonymous":false,"inputs":[{"indexed":true,"internalType":"bytes32","name":"role","type":"bytes32"},{"indexed":true,"internalType":"bytes32","name":"previousAdminRole","type":"bytes32"},{"indexed":true,"internalType":"bytes32","name":"newAdminRole","type":"bytes32"}],"name":"RoleAdminChanged","type":"event"},{"anonymous":false,"inputs":[{"indexed":true,"internalType":"bytes32","name":"role","type":"bytes32"},{"indexed":true,"internalType":"address","name":"account","type":"address"},{"indexed":true,"internalType":"address","name":"sender","type":"address"}],"name":"RoleGranted","type":"event"},{"anonymous":false,"inputs":[{"indexed":true,"internalType":"bytes32","name":"role","type":"bytes32"},{"indexed":true,"internalType":"address","name":"account","type":"address"},{"indexed":true,"internalType":"address","name":"sender","type":"address"}],"name":"RoleRevoked","type":"event"},{"inputs":[],"name":"ADMIN_ROLE","outputs":[{"internalType":"bytes32","name":"","type":"bytes32"}],"stateMutability":"view","type":"function"},{"inputs":[],"name":"DEFAULT_ADMIN_ROLE","outputs":[{"internalType":"bytes32","name":"","type":"bytes32"}],"stateMutability":"view","type":"function"},{"inputs":[],"name":"MANAGER_ROLE","outputs":[{"internalType":"bytes32","name":"","type":"bytes32"}],"stateMutability":"view","type":"function"},{"inputs":[{"internalType":"address","name":"newOwner","type":"address"}],"name":"addOwner","outputs":[],"stateMutability":"nonpayable","type":"function"},{"inputs":[{"internalType":"address","name":"_wallet","type":"address"},{"internalType":"uint256","name":"_fee","type":"uint256"}],"name":"addPartner","outputs":[],"stateMutability":"nonpayable","type":"function"},{"inputs":[{"internalType":"enum FeeManager.Service","name":"service","type":"uint8"},{"internalType":"uint256","name":"amount","type":"uint256"}],"name":"calculateFeeAmount","outputs":[{"internalType":"uint256","name":"","type":"uint256"}],"stateMutability":"view","type":"function"},{"inputs":[{"internalType":"address","name":"_partner","type":"address"},{"internalType":"uint256","name":"amount","type":"uint256"}],"name":"calculatePartnerAmount","outputs":[{"internalType":"uint256","name":"","type":"uint256"}],"stateMutability":"view","type":"function"},{"inputs":[{"internalType":"enum FeeManager.Service","name":"service","type":"uint8"},{"internalType":"uint256","name":"value","type":"uint256"}],"name":"changeFee","outputs":[],"stateMutability":"nonpayable","type":"function"},{"inputs":[{"internalType":"enum FeeManager.Service","name":"","type":"uint8"}],"name":"fees","outputs":[{"internalType":"uint256","name":"","type":"uint256"}],"stateMutability":"view","type":"function"},{"inputs":[],"name":"getAllPartners","outputs":[{"components":[{"internalType":"address","name":"wallet","type":"address"},{"internalType":"uint256","name":"fee","type":"uint256"}],"internalType":"struct FeeManager.PartnersFee[]","name":"","type":"tuple[]"}],"stateMutability":"view","type":"function"},{"inputs":[{"internalType":"uint256","name":"_index","type":"uint256"}],"name":"getPartner","outputs":[{"components":[{"internalType":"address","name":"wallet","type":"address"},{"internalType":"uint256","name":"fee","type":"uint256"}],"internalType":"struct FeeManager.PartnersFee","name":"","type":"tuple"}],"stateMutability":"view","type":"function"},{"inputs":[{"internalType":"address","name":"_wallet","type":"address"}],"name":"getPartnerByWallet","outputs":[{"components":[{"internalType":"address","name":"wallet","type":"address"},{"internalType":"uint256","name":"fee","type":"uint256"}],"internalType":"struct FeeManager.PartnersFee","name":"","type":"tuple"}],"stateMutability":"view","type":"function"},{"inputs":[{"internalType":"bytes32","name":"role","type":"bytes32"}],"name":"getRoleAdmin","outputs":[{"internalType":"bytes32","name":"","type":"bytes32"}],"stateMutability":"view","type":"function"},{"inputs":[{"internalType":"address","name":"account","type":"address"}],"name":"grantManagerRole","outputs":[],"stateMutability":"nonpayable","type":"function"},{"inputs":[{"internalType":"bytes32","name":"role","type":"bytes32"},{"internalType":"address","name":"account","type":"address"}],"name":"grantRole","outputs":[],"stateMutability":"nonpayable","type":"function"},{"inputs":[{"internalType":"bytes32","name":"role","type":"bytes32"},{"internalType":"address","name":"account","type":"address"}],"name":"hasRole","outputs":[{"internalType":"bool","name":"","type":"bool"}],"stateMutability":"view","type":"function"},{"inputs":[{"internalType":"address","name":"forwarder","type":"address"}],"name":"isTrustedForwarder","outputs":[{"internalType":"bool","name":"","type":"bool"}],"stateMutability":"view","type":"function"},{"inputs":[{"internalType":"address","name":"","type":"address"}],"name":"partnerIndexes","outputs":[{"internalType":"uint256","name":"","type":"uint256"}],"stateMutability":"view","type":"function"},{"inputs":[{"internalType":"uint256","name":"","type":"uint256"}],"name":"partnersFees","outputs":[{"internalType":"address","name":"wallet","type":"address"},{"internalType":"uint256","name":"fee","type":"uint256"}],"stateMutability":"view","type":"function"},{"inputs":[{"internalType":"address","name":"_wallet","type":"address"}],"name":"removePartner","outputs":[],"stateMutability":"nonpayable","type":"function"},{"inputs":[{"internalType":"bytes32","name":"role","type":"bytes32"},{"internalType":"address","name":"callerConfirmation","type":"address"}],"name":"renounceRole","outputs":[],"stateMutability":"nonpayable","type":"function"},{"inputs":[{"internalType":"bytes32","name":"role","type":"bytes32"},{"internalType":"address","name":"account","type":"address"}],"name":"revokeRole","outputs":[],"stateMutability":"nonpayable","type":"function"},{"inputs":[{"internalType":"bytes4","name":"interfaceId","type":"bytes4"}],"name":"supportsInterface","outputs":[{"internalType":"bool","name":"","type":"bool"}],"stateMutability":"view","type":"function"},{"inputs":[{"internalType":"address","name":"_wallet","type":"address"},{"internalType":"uint256","name":"_newFee","type":"uint256"}],"name":"updatePartnerFee","outputs":[],"stateMutability":"nonpayable","type":"function"}],"evm":{"bytecode":{"linkReferences":{},"object":"60a06040523480156200001157600080fd5b50604051620018c9380380620018c9833981016040819052620000349162000527565b6001600160a01b0381166080526200004b6200014f565b600480546001600160a01b0319166001600160a01b03929092169182179055620000789060009062000160565b50600454620000a19060008051602062001889833981519152906001600160a01b031662000160565b50600454620000db907f241ecf16d79d0f8dbfb92cbc07fe17840425976cf0667f022fe9877caa831b08906001600160a01b031662000160565b50600454620000f5906001600160a01b0316600062000211565b62000102600080620003f6565b6200011060016000620003f6565b6200011e60026000620003f6565b6200012c60036000620003f6565b6200013a60046000620003f6565b6200014860056000620003f6565b50620005a7565b60006200015b620004ff565b905090565b6000828152602081815260408083206001600160a01b038516845290915281205460ff1662000207576000838152602081815260408083206001600160a01b03861684529091529020805460ff19166001179055620001be6200014f565b6001600160a01b0316826001600160a01b0316847f2f8788117e7eff1d82e926ec794901d17c78024a50270940304540a733656f0d60405160405180910390a45060016200020b565b5060005b92915050565b62000258600080516020620018898339815191526200022f6200014f565b6000918252602082815260408084206001600160a01b0393909316845291905290205460ff1690565b620002995760405162461bcd60e51b81526020600482018190526024820152600080516020620018a983398151915260448201526064015b60405180910390fd5b6001600160a01b038216620002f15760405162461bcd60e51b815260206004820152601660248201527f496e76616c69642077616c6c6574206164647265737300000000000000000000604482015260640162000290565b6001600160a01b03821660009081526003602052604081205490819003620003b957506040805180820182526001600160a01b03938416808252602080830194855260028054600181018255600082815294517f405787fa12a823e0f2b7631cc41b3ba8828b3321ca811111fa75cd3aa3bb5ace91830291820180546001600160a01b031916919099161790975594517f405787fa12a823e0f2b7631cc41b3ba8828b3321ca811111fa75cd3aa3bb5acf909601959095559254928152600390935290912055565b816002620003c960018462000559565b81548110620003dc57620003dc6200057b565b906000526020600020906002020160010181905550505050565b62000414600080516020620018898339815191526200022f6200014f565b620004515760405162461bcd60e51b81526020600482018190526024820152600080516020620018a9833981519152604482015260640162000290565b62989680811115620004bc5760405162461bcd60e51b815260206004820152602d60248201527f4665654d616e616765723a2070657263656e74206d757374206265206265747760448201526c65656e203020616e642031302560981b606482015260840162000290565b8060016000846005811115620004d657620004d662000591565b6005811115620004ea57620004ea62000591565b81526020810191909152604001600020555050565b6080516000906001600160a01b0316330362000522575060131936013560601c90565b503390565b6000602082840312156200053a57600080fd5b81516001600160a01b03811681146200055257600080fd5b9392505050565b818103818111156200020b57634e487b7160e01b600052601160045260246000fd5b634e487b7160e01b600052603260045260246000fd5b634e487b7160e01b600052602160045260246000fd5b6080516112bf620005ca600039600081816102f20152610f5601526112bf6000f3fe608060405234801561001057600080fd5b50600436106101585760003560e01c80634ebc11f6116100c357806391d148541161007c57806391d148541461035d578063a217fddf14610370578063d3e83a0814610378578063d547741f1461038d578063ea3c281a146103a0578063ec87621c146103b357600080fd5b80634ebc11f61461029057806357210115146102c2578063572b6c05146102e25780637065cb481461032257806375b238fc146103355780637fc966191461034a57600080fd5b806326e885e31161011557806326e885e3146102045780632f2ff15d14610217578063357c13541461022a57806336568abe1461024a5780633c0578951461025d57806347203d5b1461027d57600080fd5b806301ffc9a71461015d5780630c040b471461018557806313a7e54e146101a65780631de309bf146101bb57806322e7d115146101ce578063248a9ca3146101e1575b600080fd5b61017061016b366004610fcf565b6103da565b60405190151581526020015b60405180910390f35b61019861019336600461100d565b610411565b60405190815260200161017c565b6101b96101b436600461100d565b6104ba565b005b6101b96101c936600461104e565b610596565b6101b96101dc36600461104e565b61063a565b6101986101ef36600461106a565b60009081526020819052604090206001015490565b6101b9610212366004611083565b61078b565b6101b961022536600461109e565b6107ef565b6101986102383660046110ca565b60016020526000908152604090205481565b6101b961025836600461109e565b61081a565b61027061026b366004611083565b61085d565b60405161017c91906110e5565b61019861028b36600461104e565b6108fe565b6102a361029e36600461106a565b6109d5565b604080516001600160a01b03909316835260208301919091520161017c565b6101986102d0366004611083565b60036020526000908152604090205481565b6101706102f0366004611083565b7f00000000000000000000000000000000000000000000000000000000000000006001600160a01b0390811691161490565b6101b9610330366004611083565b610a0d565b61019860008051602061126a83398151915281565b61027061035836600461106a565b610abb565b61017061036b36600461109e565b610b62565b610198600081565b610380610b8b565b60405161017c9190611105565b6101b961039b36600461109e565b610c00565b6101b96103ae366004611083565b610c25565b6101987f241ecf16d79d0f8dbfb92cbc07fe17840425976cf0667f022fe9877caa831b0881565b60006001600160e01b03198216637965db0b60e01b148061040b57506301ffc9a760e01b6001600160e01b03198316145b92915050565b6000610421565b60405180910390fd5b6000806001600086600581111561043a5761043a611165565b600581111561044b5761044b611165565b81526020019081526020016000205411156104b3576305f5e1006001600086600581111561047b5761047b611165565b600581111561048c5761048c611165565b815260200190815260200160002054846104a69190611191565b6104b091906111a8565b90505b9392505050565b6104d460008051602061126a83398151915261036b610e13565b6104f05760405162461bcd60e51b8152600401610418906111ca565b629896808111156105595760405162461bcd60e51b815260206004820152602d60248201527f4665654d616e616765723a2070657263656e74206d757374206265206265747760448201526c65656e203020616e642031302560981b6064820152608401610418565b806001600084600581111561057057610570611165565b600581111561058157610581611165565b81526020810191909152604001600020555050565b6105b060008051602061126a83398151915261036b610e13565b6105cc5760405162461bcd60e51b8152600401610418906111ca565b6001600160a01b038216600090815260036020526040902054806106025760405162461bcd60e51b8152600401610418906111ff565b81600261061060018461122a565b815481106106205761062061123d565b906000526020600020906002020160010181905550505050565b61065460008051602061126a83398151915261036b610e13565b6106705760405162461bcd60e51b8152600401610418906111ca565b6001600160a01b0382166106bf5760405162461bcd60e51b8152602060048201526016602482015275496e76616c69642077616c6c6574206164647265737360501b6044820152606401610418565b6001600160a01b0382166000908152600360205260408120549081900361060257506040805180820182526001600160a01b03938416808252602080830194855260028054600181018255600082815294517f405787fa12a823e0f2b7631cc41b3ba8828b3321ca811111fa75cd3aa3bb5ace91830291820180546001600160a01b031916919099161790975594517f405787fa12a823e0f2b7631cc41b3ba8828b3321ca811111fa75cd3aa3bb5acf909601959095559254928152600390935290912055565b505050565b6107a560008051602061126a83398151915261036b610e13565b6107c15760405162461bcd60e51b8152600401610418906111ca565b6107eb7f241ecf16d79d0f8dbfb92cbc07fe17840425976cf0667f022fe9877caa831b0882610e22565b5050565b60008281526020819052604090206001015461080a81610eb5565b6108148383610e22565b50505050565b610822610e13565b6001600160a01b0316816001600160a01b0316146108535760405163334bd91960e11b815260040160405180910390fd5b6107868282610ec9565b60408051808201909152600080825260208201526001600160a01b038216600090815260036020526040902054806108a75760405162461bcd60e51b8152600401610418906111ff565b60026108b460018361122a565b815481106108c4576108c461123d565b60009182526020918290206040805180820190915260029092020180546001600160a01b0316825260010154918101919091529392505050565b604080518082018252600080825260208083018290526001600160a01b03861682526003905291822054801561098557600261093b60018361122a565b8154811061094b5761094b61123d565b60009182526020918290206040805180820190915260029092020180546001600160a01b031682526001015491810191909152915061099d565b60045461099a906001600160a01b031661085d565b91505b6020820151600090156109cc576305f5e1008360200151866109bf9190611191565b6109c991906111a8565b90505b95945050505050565b600281815481106109e557600080fd5b6000918252602090912060029091020180546001909101546001600160a01b03909116915082565b610a2760008051602061126a83398151915261036b610e13565b610a435760405162461bcd60e51b8152600401610418906111ca565b6001600160a01b038116610a995760405162461bcd60e51b815260206004820152601860248201527f496e76616c6964206e65774f776e6572206164647265737300000000000000006044820152606401610418565b600480546001600160a01b0319166001600160a01b0392909216919091179055565b60408051808201909152600080825260208201526002548210610b165760405162461bcd60e51b8152602060048201526013602482015272496e646578206f7574206f6620626f756e647360681b6044820152606401610418565b60028281548110610b2957610b2961123d565b60009182526020918290206040805180820190915260029092020180546001600160a01b03168252600101549181019190915292915050565b6000918252602082815260408084206001600160a01b0393909316845291905290205460ff1690565b60606002805480602002602001604051908101604052809291908181526020016000905b82821015610bf7576000848152602090819020604080518082019091526002850290910180546001600160a01b03168252600190810154828401529083529092019101610baf565b50505050905090565b600082815260208190526040902060010154610c1b81610eb5565b6108148383610ec9565b610c3f60008051602061126a83398151915261036b610e13565b610c5b5760405162461bcd60e51b8152600401610418906111ca565b6001600160a01b03811660009081526003602052604090205480610c915760405162461bcd60e51b8152600401610418906111ff565b6002548103610cd9576002805480610cab57610cab611253565b60008281526020812060026000199093019283020180546001600160a01b0319168155600101559055610d9c565b60028054610ce99060019061122a565b81548110610cf957610cf961123d565b90600052602060002090600202016002600183610d16919061122a565b81548110610d2657610d2661123d565b600091825260209091208254600292830290910180546001600160a01b0319166001600160a01b03909216919091178155600192830154920191909155805480610d7257610d72611253565b60008281526020812060026000199093019283020180546001600160a01b03191681556001015590555b60025415610df857806003600060026001600280549050610dbd919061122a565b81548110610dcd57610dcd61123d565b600091825260208083206002909202909101546001600160a01b031683528201929092526040019020555b506001600160a01b0316600090815260036020526040812055565b6000610e1d610f52565b905090565b6000610e2e8383610b62565b610ead576000838152602081815260408083206001600160a01b03861684529091529020805460ff19166001179055610e65610e13565b6001600160a01b0316826001600160a01b0316847f2f8788117e7eff1d82e926ec794901d17c78024a50270940304540a733656f0d60405160405180910390a450600161040b565b50600061040b565b610ec681610ec1610e13565b610f96565b50565b6000610ed58383610b62565b15610ead576000838152602081815260408083206001600160a01b03861684529091529020805460ff19169055610f0a610e13565b6001600160a01b0316826001600160a01b0316847ff6391f5c32d9c69d2a47ea670b442974b53935d1edc7fd64eb21e047a839171b60405160405180910390a450600161040b565b60007f00000000000000000000000000000000000000000000000000000000000000006001600160a01b03163303610f91575060131936013560601c90565b503390565b610fa08282610b62565b6107eb5760405163e2517d3f60e01b81526001600160a01b038216600482015260248101839052604401610418565b600060208284031215610fe157600080fd5b81356001600160e01b0319811681146104b357600080fd5b80356006811061100857600080fd5b919050565b6000806040838503121561102057600080fd5b61102983610ff9565b946020939093013593505050565b80356001600160a01b038116811461100857600080fd5b6000806040838503121561106157600080fd5b61102983611037565b60006020828403121561107c57600080fd5b5035919050565b60006020828403121561109557600080fd5b6104b382611037565b600080604083850312156110b157600080fd5b823591506110c160208401611037565b90509250929050565b6000602082840312156110dc57600080fd5b6104b382610ff9565b81516001600160a01b03168152602080830151908201526040810161040b565b602080825282518282018190526000919060409081850190868401855b828110156111585761114884835180516001600160a01b03168252602090810151910152565b9284019290850190600101611122565b5091979650505050505050565b634e487b7160e01b600052602160045260246000fd5b634e487b7160e01b600052601160045260246000fd5b808202811582820484141761040b5761040b61117b565b6000826111c557634e487b7160e01b600052601260045260246000fd5b500490565b6020808252818101527f4665654d616e616765723a206d7573742068617665206f776e657220726f6c65604082015260600190565b60208082526011908201527014185c9d1b995c881b9bdd08199bdd5b99607a1b604082015260600190565b8181038181111561040b5761040b61117b565b634e487b7160e01b600052603260045260246000fd5b634e487b7160e01b600052603160045260246000fdfea49807205ce4d355092ef5a8a18f56e8913cf4a201fbe287825b095693c21775a26469706673582212202c71967cb8bcd9a7b197ed765f8f65972cecf223f574dfe8e4c99fb3cf1ffaf664736f6c63430008140033a49807205ce4d355092ef5a8a18f56e8913cf4a201fbe287825b095693c217754665654d616e616765723a206d7573742068617665206f776e657220726f6c65","opcodes":"PUSH1 0xA0 PUSH1 0x40 MSTORE CALLVALUE DUP1 ISZERO PUSH3 0x11 JUMPI PUSH1 0x0 DUP1 REVERT JUMPDEST POP PUSH1 0x40 MLOAD PUSH3 0x18C9 CODESIZE SUB DUP1 PUSH3 0x18C9 DUP4 CODECOPY DUP2 ADD PUSH1 0x40 DUP2 SWAP1 MSTORE PUSH3 0x34 SWAP2 PUSH3 0x527 JUMP JUMPDEST PUSH1 0x1 PUSH1 0x1 PUSH1 0xA0 SHL SUB DUP2 AND PUSH1 0x80 MSTORE PUSH3 0x4B PUSH3 0x14F JUMP JUMPDEST PUSH1 0x4 DUP1 SLOAD PUSH1 0x1 PUSH1 0x1 PUSH1 0xA0 SHL SUB NOT AND PUSH1 0x1 PUSH1 0x1 PUSH1 0xA0 SHL SUB SWAP3 SWAP1 SWAP3 AND SWAP2 DUP3 OR SWAP1 SSTORE PUSH3 0x78 SWAP1 PUSH1 0x0 SWAP1 PUSH3 0x160 JUMP JUMPDEST POP PUSH1 0x4 SLOAD PUSH3 0xA1 SWAP1 PUSH1 0x0 DUP1 MLOAD PUSH1 0x20 PUSH3 0x1889 DUP4 CODECOPY DUP2 MLOAD SWAP2 MSTORE SWAP1 PUSH1 0x1 PUSH1 0x1 PUSH1 0xA0 SHL SUB AND PUSH3 0x160 JUMP JUMPDEST POP PUSH1 0x4 SLOAD PUSH3 0xDB SWAP1 PUSH32 0x241ECF16D79D0F8DBFB92CBC07FE17840425976CF0667F022FE9877CAA831B08 SWAP1 PUSH1 0x1 PUSH1 0x1 PUSH1 0xA0 SHL SUB AND PUSH3 0x160 JUMP JUMPDEST POP PUSH1 0x4 SLOAD PUSH3 0xF5 SWAP1 PUSH1 0x1 PUSH1 0x1 PUSH1 0xA0 SHL SUB AND PUSH1 0x0 PUSH3 0x211 JUMP JUMPDEST PUSH3 0x102 PUSH1 0x0 DUP1 PUSH3 0x3F6 JUMP JUMPDEST PUSH3 0x110 PUSH1 0x1 PUSH1 0x0 PUSH3 0x3F6 JUMP JUMPDEST PUSH3 0x11E PUSH1 0x2 PUSH1 0x0 PUSH3 0x3F6 JUMP JUMPDEST PUSH3 0x12C PUSH1 0x3 PUSH1 0x0 PUSH3 0x3F6 JUMP JUMPDEST PUSH3 0x13A PUSH1 0x4 PUSH1 0x0 PUSH3 0x3F6 JUMP JUMPDEST PUSH3 0x148 PUSH1 0x5 PUSH1 0x0 PUSH3 0x3F6 JUMP JUMPDEST POP PUSH3 0x5A7 JUMP JUMPDEST PUSH1 0x0 PUSH3 0x15B PUSH3 0x4FF JUMP JUMPDEST SWAP1 POP SWAP1 JUMP JUMPDEST PUSH1 0x0 DUP3 DUP2 MSTORE PUSH1 0x20 DUP2 DUP2 MSTORE PUSH1 0x40 DUP1 DUP4 KECCAK256 PUSH1 0x1 PUSH1 0x1 PUSH1 0xA0 SHL SUB DUP6 AND DUP5 MSTORE SWAP1 SWAP2 MSTORE DUP2 KECCAK256 SLOAD PUSH1 0xFF AND PUSH3 0x207 JUMPI PUSH1 0x0 DUP4 DUP2 MSTORE PUSH1 0x20 DUP2 DUP2 MSTORE PUSH1 0x40 DUP1 DUP4 KECCAK256 PUSH1 0x1 PUSH1 0x1 PUSH1 0xA0 SHL SUB DUP7 AND DUP5 MSTORE SWAP1 SWAP2 MSTORE SWAP1 KECCAK256 DUP1 SLOAD PUSH1 0xFF NOT AND PUSH1 0x1 OR SWAP1 SSTORE PUSH3 0x1BE PUSH3 0x14F JUMP JUMPDEST PUSH1 0x1 PUSH1 0x1 PUSH1 0xA0 SHL SUB AND DUP3 PUSH1 0x1 PUSH1 0x1 PUSH1 0xA0 SHL SUB AND DUP5 PUSH32 0x2F8788117E7EFF1D82E926EC794901D17C78024A50270940304540A733656F0D PUSH1 0x40 MLOAD PUSH1 0x40 MLOAD DUP1 SWAP2 SUB SWAP1 LOG4 POP PUSH1 0x1 PUSH3 0x20B JUMP JUMPDEST POP PUSH1 0x0 JUMPDEST SWAP3 SWAP2 POP POP JUMP JUMPDEST PUSH3 0x258 PUSH1 0x0 DUP1 MLOAD PUSH1 0x20 PUSH3 0x1889 DUP4 CODECOPY DUP2 MLOAD SWAP2 MSTORE PUSH3 0x22F PUSH3 0x14F JUMP JUMPDEST PUSH1 0x0 SWAP2 DUP3 MSTORE PUSH1 0x20 DUP3 DUP2 MSTORE PUSH1 0x40 DUP1 DUP5 KECCAK256 PUSH1 0x1 PUSH1 0x1 PUSH1 0xA0 SHL SUB SWAP4 SWAP1 SWAP4 AND DUP5 MSTORE SWAP2 SWAP1 MSTORE SWAP1 KECCAK256 SLOAD PUSH1 0xFF AND SWAP1 JUMP JUMPDEST PUSH3 0x299 JUMPI PUSH1 0x40 MLOAD PUSH3 0x461BCD PUSH1 0xE5 SHL DUP2 MSTORE PUSH1 0x20 PUSH1 0x4 DUP3 ADD DUP2 SWAP1 MSTORE PUSH1 0x24 DUP3 ADD MSTORE PUSH1 0x0 DUP1 MLOAD PUSH1 0x20 PUSH3 0x18A9 DUP4 CODECOPY DUP2 MLOAD SWAP2 MSTORE PUSH1 0x44 DUP3 ADD MSTORE PUSH1 0x64 ADD JUMPDEST PUSH1 0x40 MLOAD DUP1 SWAP2 SUB SWAP1 REVERT JUMPDEST PUSH1 0x1 PUSH1 0x1 PUSH1 0xA0 SHL SUB DUP3 AND PUSH3 0x2F1 JUMPI PUSH1 0x40 MLOAD PUSH3 0x461BCD PUSH1 0xE5 SHL DUP2 MSTORE PUSH1 0x20 PUSH1 0x4 DUP3 ADD MSTORE PUSH1 0x16 PUSH1 0x24 DUP3 ADD MSTORE PUSH32 0x496E76616C69642077616C6C6574206164647265737300000000000000000000 PUSH1 0x44 DUP3 ADD MSTORE PUSH1 0x64 ADD PUSH3 0x290 JUMP JUMPDEST PUSH1 0x1 PUSH1 0x1 PUSH1 0xA0 SHL SUB DUP3 AND PUSH1 0x0 SWAP1 DUP2 MSTORE PUSH1 0x3 PUSH1 0x20 MSTORE PUSH1 0x40 DUP2 KECCAK256 SLOAD SWAP1 DUP2 SWAP1 SUB PUSH3 0x3B9 JUMPI POP PUSH1 0x40 DUP1 MLOAD DUP1 DUP3 ADD DUP3 MSTORE PUSH1 0x1 PUSH1 0x1 PUSH1 0xA0 SHL SUB SWAP4 DUP5 AND DUP1 DUP3 MSTORE PUSH1 0x20 DUP1 DUP4 ADD SWAP5 DUP6 MSTORE PUSH1 0x2 DUP1 SLOAD PUSH1 0x1 DUP2 ADD DUP3 SSTORE PUSH1 0x0 DUP3 DUP2 MSTORE SWAP5 MLOAD PUSH32 0x405787FA12A823E0F2B7631CC41B3BA8828B3321CA811111FA75CD3AA3BB5ACE SWAP2 DUP4 MUL SWAP2 DUP3 ADD DUP1 SLOAD PUSH1 0x1 PUSH1 0x1 PUSH1 0xA0 SHL SUB NOT AND SWAP2 SWAP1 SWAP10 AND OR SWAP1 SWAP8 SSTORE SWAP5 MLOAD PUSH32 0x405787FA12A823E0F2B7631CC41B3BA8828B3321CA811111FA75CD3AA3BB5ACF SWAP1 SWAP7 ADD SWAP6 SWAP1 SWAP6 SSTORE SWAP3 SLOAD SWAP3 DUP2 MSTORE PUSH1 0x3 SWAP1 SWAP4 MSTORE SWAP1 SWAP2 KECCAK256 SSTORE JUMP JUMPDEST DUP2 PUSH1 0x2 PUSH3 0x3C9 PUSH1 0x1 DUP5 PUSH3 0x559 JUMP JUMPDEST DUP2 SLOAD DUP2 LT PUSH3 0x3DC JUMPI PUSH3 0x3DC PUSH3 0x57B JUMP JUMPDEST SWAP1 PUSH1 0x0 MSTORE PUSH1 0x20 PUSH1 0x0 KECCAK256 SWAP1 PUSH1 0x2 MUL ADD PUSH1 0x1 ADD DUP2 SWAP1 SSTORE POP POP POP POP JUMP JUMPDEST PUSH3 0x414 PUSH1 0x0 DUP1 MLOAD PUSH1 0x20 PUSH3 0x1889 DUP4 CODECOPY DUP2 MLOAD SWAP2 MSTORE PUSH3 0x22F PUSH3 0x14F JUMP JUMPDEST PUSH3 0x451 JUMPI PUSH1 0x40 MLOAD PUSH3 0x461BCD PUSH1 0xE5 SHL DUP2 MSTORE PUSH1 0x20 PUSH1 0x4 DUP3 ADD DUP2 SWAP1 MSTORE PUSH1 0x24 DUP3 ADD MSTORE PUSH1 0x0 DUP1 MLOAD PUSH1 0x20 PUSH3 0x18A9 DUP4 CODECOPY DUP2 MLOAD SWAP2 MSTORE PUSH1 0x44 DUP3 ADD MSTORE PUSH1 0x64 ADD PUSH3 0x290 JUMP JUMPDEST PUSH3 0x989680 DUP2 GT ISZERO PUSH3 0x4BC JUMPI PUSH1 0x40 MLOAD PUSH3 0x461BCD PUSH1 0xE5 SHL DUP2 MSTORE PUSH1 0x20 PUSH1 0x4 DUP3 ADD MSTORE PUSH1 0x2D PUSH1 0x24 DUP3 ADD MSTORE PUSH32 0x4665654D616E616765723A2070657263656E74206D7573742062652062657477 PUSH1 0x44 DUP3 ADD MSTORE PUSH13 0x65656E203020616E6420313025 PUSH1 0x98 SHL PUSH1 0x64 DUP3 ADD MSTORE PUSH1 0x84 ADD PUSH3 0x290 JUMP JUMPDEST DUP1 PUSH1 0x1 PUSH1 0x0 DUP5 PUSH1 0x5 DUP2 GT ISZERO PUSH3 0x4D6 JUMPI PUSH3 0x4D6 PUSH3 0x591 JUMP JUMPDEST PUSH1 0x5 DUP2 GT ISZERO PUSH3 0x4EA JUMPI PUSH3 0x4EA PUSH3 0x591 JUMP JUMPDEST DUP2 MSTORE PUSH1 0x20 DUP2 ADD SWAP2 SWAP1 SWAP2 MSTORE PUSH1 0x40 ADD PUSH1 0x0 KECCAK256 SSTORE POP POP JUMP JUMPDEST PUSH1 0x80 MLOAD PUSH1 0x0 SWAP1 PUSH1 0x1 PUSH1 0x1 PUSH1 0xA0 SHL SUB AND CALLER SUB PUSH3 0x522 JUMPI POP PUSH1 0x13 NOT CALLDATASIZE ADD CALLDATALOAD PUSH1 0x60 SHR SWAP1 JUMP JUMPDEST POP CALLER SWAP1 JUMP JUMPDEST PUSH1 0x0 PUSH1 0x20 DUP3 DUP5 SUB SLT ISZERO PUSH3 0x53A JUMPI PUSH1 0x0 DUP1 REVERT JUMPDEST DUP2 MLOAD PUSH1 0x1 PUSH1 0x1 PUSH1 0xA0 SHL SUB DUP2 AND DUP2 EQ PUSH3 0x552 JUMPI PUSH1 0x0 DUP1 REVERT JUMPDEST SWAP4 SWAP3 POP POP POP JUMP JUMPDEST DUP2 DUP2 SUB DUP2 DUP2 GT ISZERO PUSH3 0x20B JUMPI PUSH4 0x4E487B71 PUSH1 0xE0 SHL PUSH1 0x0 MSTORE PUSH1 0x11 PUSH1 0x4 MSTORE PUSH1 0x24 PUSH1 0x0 REVERT JUMPDEST PUSH4 0x4E487B71 PUSH1 0xE0 SHL PUSH1 0x0 MSTORE PUSH1 0x32 PUSH1 0x4 MSTORE PUSH1 0x24 PUSH1 0x0 REVERT JUMPDEST PUSH4 0x4E487B71 PUSH1 0xE0 SHL PUSH1 0x0 MSTORE PUSH1 0x21 PUSH1 0x4 MSTORE PUSH1 0x24 PUSH1 0x0 REVERT JUMPDEST PUSH1 0x80 MLOAD PUSH2 0x12BF PUSH3 0x5CA PUSH1 0x0 CODECOPY PUSH1 0x0 DUP2 DUP2 PUSH2 0x2F2 ADD MSTORE PUSH2 0xF56 ADD MSTORE PUSH2 0x12BF PUSH1 0x0 RETURN INVALID PUSH1 0x80 PUSH1 0x40 MSTORE CALLVALUE DUP1 ISZERO PUSH2 0x10 JUMPI PUSH1 0x0 DUP1 REVERT JUMPDEST POP PUSH1 0x4 CALLDATASIZE LT PUSH2 0x158 JUMPI PUSH1 0x0 CALLDATALOAD PUSH1 0xE0 SHR DUP1 PUSH4 0x4EBC11F6 GT PUSH2 0xC3 JUMPI DUP1 PUSH4 0x91D14854 GT PUSH2 0x7C JUMPI DUP1 PUSH4 0x91D14854 EQ PUSH2 0x35D JUMPI DUP1 PUSH4 0xA217FDDF EQ PUSH2 0x370 JUMPI DUP1 PUSH4 0xD3E83A08 EQ PUSH2 0x378 JUMPI DUP1 PUSH4 0xD547741F EQ PUSH2 0x38D JUMPI DUP1 PUSH4 0xEA3C281A EQ PUSH2 0x3A0 JUMPI DUP1 PUSH4 0xEC87621C EQ PUSH2 0x3B3 JUMPI PUSH1 0x0 DUP1 REVERT JUMPDEST DUP1 PUSH4 0x4EBC11F6 EQ PUSH2 0x290 JUMPI DUP1 PUSH4 0x57210115 EQ PUSH2 0x2C2 JUMPI DUP1 PUSH4 0x572B6C05 EQ PUSH2 0x2E2 JUMPI DUP1 PUSH4 0x7065CB48 EQ PUSH2 0x322 JUMPI DUP1 PUSH4 0x75B238FC EQ PUSH2 0x335 JUMPI DUP1 PUSH4 0x7FC96619 EQ PUSH2 0x34A JUMPI PUSH1 0x0 DUP1 REVERT JUMPDEST DUP1 PUSH4 0x26E885E3 GT PUSH2 0x115 JUMPI DUP1 PUSH4 0x26E885E3 EQ PUSH2 0x204 JUMPI DUP1 PUSH4 0x2F2FF15D EQ PUSH2 0x217 JUMPI DUP1 PUSH4 0x357C1354 EQ PUSH2 0x22A JUMPI DUP1 PUSH4 0x36568ABE EQ PUSH2 0x24A JUMPI DUP1 PUSH4 0x3C057895 EQ PUSH2 0x25D JUMPI DUP1 PUSH4 0x47203D5B EQ PUSH2 0x27D JUMPI PUSH1 0x0 DUP1 REVERT JUMPDEST DUP1 PUSH4 0x1FFC9A7 EQ PUSH2 0x15D JUMPI DUP1 PUSH4 0xC040B47 EQ PUSH2 0x185 JUMPI DUP1 PUSH4 0x13A7E54E EQ PUSH2 0x1A6 JUMPI DUP1 PUSH4 0x1DE309BF EQ PUSH2 0x1BB JUMPI DUP1 PUSH4 0x22E7D115 EQ PUSH2 0x1CE JUMPI DUP1 PUSH4 0x248A9CA3 EQ PUSH2 0x1E1 JUMPI JUMPDEST PUSH1 0x0 DUP1 REVERT JUMPDEST PUSH2 0x170 PUSH2 0x16B CALLDATASIZE PUSH1 0x4 PUSH2 0xFCF JUMP JUMPDEST PUSH2 0x3DA JUMP JUMPDEST PUSH1 0x40 MLOAD SWAP1 ISZERO ISZERO DUP2 MSTORE PUSH1 0x20 ADD JUMPDEST PUSH1 0x40 MLOAD DUP1 SWAP2 SUB SWAP1 RETURN JUMPDEST PUSH2 0x198 PUSH2 0x193 CALLDATASIZE PUSH1 0x4 PUSH2 0x100D JUMP JUMPDEST PUSH2 0x411 JUMP JUMPDEST PUSH1 0x40 MLOAD SWAP1 DUP2 MSTORE PUSH1 0x20 ADD PUSH2 0x17C JUMP JUMPDEST PUSH2 0x1B9 PUSH2 0x1B4 CALLDATASIZE PUSH1 0x4 PUSH2 0x100D JUMP JUMPDEST PUSH2 0x4BA JUMP JUMPDEST STOP JUMPDEST PUSH2 0x1B9 PUSH2 0x1C9 CALLDATASIZE PUSH1 0x4 PUSH2 0x104E JUMP JUMPDEST PUSH2 0x596 JUMP JUMPDEST PUSH2 0x1B9 PUSH2 0x1DC CALLDATASIZE PUSH1 0x4 PUSH2 0x104E JUMP JUMPDEST PUSH2 0x63A JUMP JUMPDEST PUSH2 0x198 PUSH2 0x1EF CALLDATASIZE PUSH1 0x4 PUSH2 0x106A JUMP JUMPDEST PUSH1 0x0 SWAP1 DUP2 MSTORE PUSH1 0x20 DUP2 SWAP1 MSTORE PUSH1 0x40 SWAP1 KECCAK256 PUSH1 0x1 ADD SLOAD SWAP1 JUMP JUMPDEST PUSH2 0x1B9 PUSH2 0x212 CALLDATASIZE PUSH1 0x4 PUSH2 0x1083 JUMP JUMPDEST PUSH2 0x78B JUMP JUMPDEST PUSH2 0x1B9 PUSH2 0x225 CALLDATASIZE PUSH1 0x4 PUSH2 0x109E JUMP JUMPDEST PUSH2 0x7EF JUMP JUMPDEST PUSH2 0x198 PUSH2 0x238 CALLDATASIZE PUSH1 0x4 PUSH2 0x10CA JUMP JUMPDEST PUSH1 0x1 PUSH1 0x20 MSTORE PUSH1 0x0 SWAP1 DUP2 MSTORE PUSH1 0x40 SWAP1 KECCAK256 SLOAD DUP2 JUMP JUMPDEST PUSH2 0x1B9 PUSH2 0x258 CALLDATASIZE PUSH1 0x4 PUSH2 0x109E JUMP JUMPDEST PUSH2 0x81A JUMP JUMPDEST PUSH2 0x270 PUSH2 0x26B CALLDATASIZE PUSH1 0x4 PUSH2 0x1083 JUMP JUMPDEST PUSH2 0x85D JUMP JUMPDEST PUSH1 0x40 MLOAD PUSH2 0x17C SWAP2 SWAP1 PUSH2 0x10E5 JUMP JUMPDEST PUSH2 0x198 PUSH2 0x28B CALLDATASIZE PUSH1 0x4 PUSH2 0x104E JUMP JUMPDEST PUSH2 0x8FE JUMP JUMPDEST PUSH2 0x2A3 PUSH2 0x29E CALLDATASIZE PUSH1 0x4 PUSH2 0x106A JUMP JUMPDEST PUSH2 0x9D5 JUMP JUMPDEST PUSH1 0x40 DUP1 MLOAD PUSH1 0x1 PUSH1 0x1 PUSH1 0xA0 SHL SUB SWAP1 SWAP4 AND DUP4 MSTORE PUSH1 0x20 DUP4 ADD SWAP2 SWAP1 SWAP2 MSTORE ADD PUSH2 0x17C JUMP JUMPDEST PUSH2 0x198 PUSH2 0x2D0 CALLDATASIZE PUSH1 0x4 PUSH2 0x1083 JUMP JUMPDEST PUSH1 0x3 PUSH1 0x20 MSTORE PUSH1 0x0 SWAP1 DUP2 MSTORE PUSH1 0x40 SWAP1 KECCAK256 SLOAD DUP2 JUMP JUMPDEST PUSH2 0x170 PUSH2 0x2F0 CALLDATASIZE PUSH1 0x4 PUSH2 0x1083 JUMP JUMPDEST PUSH32 0x0 PUSH1 0x1 PUSH1 0x1 PUSH1 0xA0 SHL SUB SWAP1 DUP2 AND SWAP2 AND EQ SWAP1 JUMP JUMPDEST PUSH2 0x1B9 PUSH2 0x330 CALLDATASIZE PUSH1 0x4 PUSH2 0x1083 JUMP JUMPDEST PUSH2 0xA0D JUMP JUMPDEST PUSH2 0x198 PUSH1 0x0 DUP1 MLOAD PUSH1 0x20 PUSH2 0x126A DUP4 CODECOPY DUP2 MLOAD SWAP2 MSTORE DUP2 JUMP JUMPDEST PUSH2 0x270 PUSH2 0x358 CALLDATASIZE PUSH1 0x4 PUSH2 0x106A JUMP JUMPDEST PUSH2 0xABB JUMP JUMPDEST PUSH2 0x170 PUSH2 0x36B CALLDATASIZE PUSH1 0x4 PUSH2 0x109E JUMP JUMPDEST PUSH2 0xB62 JUMP JUMPDEST PUSH2 0x198 PUSH1 0x0 DUP2 JUMP JUMPDEST PUSH2 0x380 PUSH2 0xB8B JUMP JUMPDEST PUSH1 0x40 MLOAD PUSH2 0x17C SWAP2 SWAP1 PUSH2 0x1105 JUMP JUMPDEST PUSH2 0x1B9 PUSH2 0x39B CALLDATASIZE PUSH1 0x4 PUSH2 0x109E JUMP JUMPDEST PUSH2 0xC00 JUMP JUMPDEST PUSH2 0x1B9 PUSH2 0x3AE CALLDATASIZE PUSH1 0x4 PUSH2 0x1083 JUMP JUMPDEST PUSH2 0xC25 JUMP JUMPDEST PUSH2 0x198 PUSH32 0x241ECF16D79D0F8DBFB92CBC07FE17840425976CF0667F022FE9877CAA831B08 DUP2 JUMP JUMPDEST PUSH1 0x0 PUSH1 0x1 PUSH1 0x1 PUSH1 0xE0 SHL SUB NOT DUP3 AND PUSH4 0x7965DB0B PUSH1 0xE0 SHL EQ DUP1 PUSH2 0x40B JUMPI POP PUSH4 0x1FFC9A7 PUSH1 0xE0 SHL PUSH1 0x1 PUSH1 0x1 PUSH1 0xE0 SHL SUB NOT DUP4 AND EQ JUMPDEST SWAP3 SWAP2 POP POP JUMP JUMPDEST PUSH1 0x0 PUSH2 0x421 JUMP JUMPDEST PUSH1 0x40 MLOAD DUP1 SWAP2 SUB SWAP1 REVERT JUMPDEST PUSH1 0x0 DUP1 PUSH1 0x1 PUSH1 0x0 DUP7 PUSH1 0x5 DUP2 GT ISZERO PUSH2 0x43A JUMPI PUSH2 0x43A PUSH2 0x1165 JUMP JUMPDEST PUSH1 0x5 DUP2 GT ISZERO PUSH2 0x44B JUMPI PUSH2 0x44B PUSH2 0x1165 JUMP JUMPDEST DUP2 MSTORE PUSH1 0x20 ADD SWAP1 DUP2 MSTORE PUSH1 0x20 ADD PUSH1 0x0 KECCAK256 SLOAD GT ISZERO PUSH2 0x4B3 JUMPI PUSH4 0x5F5E100 PUSH1 0x1 PUSH1 0x0 DUP7 PUSH1 0x5 DUP2 GT ISZERO PUSH2 0x47B JUMPI PUSH2 0x47B PUSH2 0x1165 JUMP JUMPDEST PUSH1 0x5 DUP2 GT ISZERO PUSH2 0x48C JUMPI PUSH2 0x48C PUSH2 0x1165 JUMP JUMPDEST DUP2 MSTORE PUSH1 0x20 ADD SWAP1 DUP2 MSTORE PUSH1 0x20 ADD PUSH1 0x0 KECCAK256 SLOAD DUP5 PUSH2 0x4A6 SWAP2 SWAP1 PUSH2 0x1191 JUMP JUMPDEST PUSH2 0x4B0 SWAP2 SWAP1 PUSH2 0x11A8 JUMP JUMPDEST SWAP1 POP JUMPDEST SWAP4 SWAP3 POP POP POP JUMP JUMPDEST PUSH2 0x4D4 PUSH1 0x0 DUP1 MLOAD PUSH1 0x20 PUSH2 0x126A DUP4 CODECOPY DUP2 MLOAD SWAP2 MSTORE PUSH2 0x36B PUSH2 0xE13 JUMP JUMPDEST PUSH2 0x4F0 JUMPI PUSH1 0x40 MLOAD PUSH3 0x461BCD PUSH1 0xE5 SHL DUP2 MSTORE PUSH1 0x4 ADD PUSH2 0x418 SWAP1 PUSH2 0x11CA JUMP JUMPDEST PUSH3 0x989680 DUP2 GT ISZERO PUSH2 0x559 JUMPI PUSH1 0x40 MLOAD PUSH3 0x461BCD PUSH1 0xE5 SHL DUP2 MSTORE PUSH1 0x20 PUSH1 0x4 DUP3 ADD MSTORE PUSH1 0x2D PUSH1 0x24 DUP3 ADD MSTORE PUSH32 0x4665654D616E616765723A2070657263656E74206D7573742062652062657477 PUSH1 0x44 DUP3 ADD MSTORE PUSH13 0x65656E203020616E6420313025 PUSH1 0x98 SHL PUSH1 0x64 DUP3 ADD MSTORE PUSH1 0x84 ADD PUSH2 0x418 JUMP JUMPDEST DUP1 PUSH1 0x1 PUSH1 0x0 DUP5 PUSH1 0x5 DUP2 GT ISZERO PUSH2 0x570 JUMPI PUSH2 0x570 PUSH2 0x1165 JUMP JUMPDEST PUSH1 0x5 DUP2 GT ISZERO PUSH2 0x581 JUMPI PUSH2 0x581 PUSH2 0x1165 JUMP JUMPDEST DUP2 MSTORE PUSH1 0x20 DUP2 ADD SWAP2 SWAP1 SWAP2 MSTORE PUSH1 0x40 ADD PUSH1 0x0 KECCAK256 SSTORE POP POP JUMP JUMPDEST PUSH2 0x5B0 PUSH1 0x0 DUP1 MLOAD PUSH1 0x20 PUSH2 0x126A DUP4 CODECOPY DUP2 MLOAD SWAP2 MSTORE PUSH2 0x36B PUSH2 0xE13 JUMP JUMPDEST PUSH2 0x5CC JUMPI PUSH1 0x40 MLOAD PUSH3 0x461BCD PUSH1 0xE5 SHL DUP2 MSTORE PUSH1 0x4 ADD PUSH2 0x418 SWAP1 PUSH2 0x11CA JUMP JUMPDEST PUSH1 0x1 PUSH1 0x1 PUSH1 0xA0 SHL SUB DUP3 AND PUSH1 0x0 SWAP1 DUP2 MSTORE PUSH1 0x3 PUSH1 0x20 MSTORE PUSH1 0x40 SWAP1 KECCAK256 SLOAD DUP1 PUSH2 0x602 JUMPI PUSH1 0x40 MLOAD PUSH3 0x461BCD PUSH1 0xE5 SHL DUP2 MSTORE PUSH1 0x4 ADD PUSH2 0x418 SWAP1 PUSH2 0x11FF JUMP JUMPDEST DUP2 PUSH1 0x2 PUSH2 0x610 PUSH1 0x1 DUP5 PUSH2 0x122A JUMP JUMPDEST DUP2 SLOAD DUP2 LT PUSH2 0x620 JUMPI PUSH2 0x620 PUSH2 0x123D JUMP JUMPDEST SWAP1 PUSH1 0x0 MSTORE PUSH1 0x20 PUSH1 0x0 KECCAK256 SWAP1 PUSH1 0x2 MUL ADD PUSH1 0x1 ADD DUP2 SWAP1 SSTORE POP POP POP POP JUMP JUMPDEST PUSH2 0x654 PUSH1 0x0 DUP1 MLOAD PUSH1 0x20 PUSH2 0x126A DUP4 CODECOPY DUP2 MLOAD SWAP2 MSTORE PUSH2 0x36B PUSH2 0xE13 JUMP JUMPDEST PUSH2 0x670 JUMPI PUSH1 0x40 MLOAD PUSH3 0x461BCD PUSH1 0xE5 SHL DUP2 MSTORE PUSH1 0x4 ADD PUSH2 0x418 SWAP1 PUSH2 0x11CA JUMP JUMPDEST PUSH1 0x1 PUSH1 0x1 PUSH1 0xA0 SHL SUB DUP3 AND PUSH2 0x6BF JUMPI PUSH1 0x40 MLOAD PUSH3 0x461BCD PUSH1 0xE5 SHL DUP2 MSTORE PUSH1 0x20 PUSH1 0x4 DUP3 ADD MSTORE PUSH1 0x16 PUSH1 0x24 DUP3 ADD MSTORE PUSH22 0x496E76616C69642077616C6C65742061646472657373 PUSH1 0x50 SHL PUSH1 0x44 DUP3 ADD MSTORE PUSH1 0x64 ADD PUSH2 0x418 JUMP JUMPDEST PUSH1 0x1 PUSH1 0x1 PUSH1 0xA0 SHL SUB DUP3 AND PUSH1 0x0 SWAP1 DUP2 MSTORE PUSH1 0x3 PUSH1 0x20 MSTORE PUSH1 0x40 DUP2 KECCAK256 SLOAD SWAP1 DUP2 SWAP1 SUB PUSH2 0x602 JUMPI POP PUSH1 0x40 DUP1 MLOAD DUP1 DUP3 ADD DUP3 MSTORE PUSH1 0x1 PUSH1 0x1 PUSH1 0xA0 SHL SUB SWAP4 DUP5 AND DUP1 DUP3 MSTORE PUSH1 0x20 DUP1 DUP4 ADD SWAP5 DUP6 MSTORE PUSH1 0x2 DUP1 SLOAD PUSH1 0x1 DUP2 ADD DUP3 SSTORE PUSH1 0x0 DUP3 DUP2 MSTORE SWAP5 MLOAD PUSH32 0x405787FA12A823E0F2B7631CC41B3BA8828B3321CA811111FA75CD3AA3BB5ACE SWAP2 DUP4 MUL SWAP2 DUP3 ADD DUP1 SLOAD PUSH1 0x1 PUSH1 0x1 PUSH1 0xA0 SHL SUB NOT AND SWAP2 SWAP1 SWAP10 AND OR SWAP1 SWAP8 SSTORE SWAP5 MLOAD PUSH32 0x405787FA12A823E0F2B7631CC41B3BA8828B3321CA811111FA75CD3AA3BB5ACF SWAP1 SWAP7 ADD SWAP6 SWAP1 SWAP6 SSTORE SWAP3 SLOAD SWAP3 DUP2 MSTORE PUSH1 0x3 SWAP1 SWAP4 MSTORE SWAP1 SWAP2 KECCAK256 SSTORE JUMP JUMPDEST POP POP POP JUMP JUMPDEST PUSH2 0x7A5 PUSH1 0x0 DUP1 MLOAD PUSH1 0x20 PUSH2 0x126A DUP4 CODECOPY DUP2 MLOAD SWAP2 MSTORE PUSH2 0x36B PUSH2 0xE13 JUMP JUMPDEST PUSH2 0x7C1 JUMPI PUSH1 0x40 MLOAD PUSH3 0x461BCD PUSH1 0xE5 SHL DUP2 MSTORE PUSH1 0x4 ADD PUSH2 0x418 SWAP1 PUSH2 0x11CA JUMP JUMPDEST PUSH2 0x7EB PUSH32 0x241ECF16D79D0F8DBFB92CBC07FE17840425976CF0667F022FE9877CAA831B08 DUP3 PUSH2 0xE22 JUMP JUMPDEST POP POP JUMP JUMPDEST PUSH1 0x0 DUP3 DUP2 MSTORE PUSH1 0x20 DUP2 SWAP1 MSTORE PUSH1 0x40 SWAP1 KECCAK256 PUSH1 0x1 ADD SLOAD PUSH2 0x80A DUP2 PUSH2 0xEB5 JUMP JUMPDEST PUSH2 0x814 DUP4 DUP4 PUSH2 0xE22 JUMP JUMPDEST POP POP POP POP JUMP JUMPDEST PUSH2 0x822 PUSH2 0xE13 JUMP JUMPDEST PUSH1 0x1 PUSH1 0x1 PUSH1 0xA0 SHL SUB AND DUP2 PUSH1 0x1 PUSH1 0x1 PUSH1 0xA0 SHL SUB AND EQ PUSH2 0x853 JUMPI PUSH1 0x40 MLOAD PUSH4 0x334BD919 PUSH1 0xE1 SHL DUP2 MSTORE PUSH1 0x4 ADD PUSH1 0x40 MLOAD DUP1 SWAP2 SUB SWAP1 REVERT JUMPDEST PUSH2 0x786 DUP3 DUP3 PUSH2 0xEC9 JUMP JUMPDEST PUSH1 0x40 DUP1 MLOAD DUP1 DUP3 ADD SWAP1 SWAP2 MSTORE PUSH1 0x0 DUP1 DUP3 MSTORE PUSH1 0x20 DUP3 ADD MSTORE PUSH1 0x1 PUSH1 0x1 PUSH1 0xA0 SHL SUB DUP3 AND PUSH1 0x0 SWAP1 DUP2 MSTORE PUSH1 0x3 PUSH1 0x20 MSTORE PUSH1 0x40 SWAP1 KECCAK256 SLOAD DUP1 PUSH2 0x8A7 JUMPI PUSH1 0x40 MLOAD PUSH3 0x461BCD PUSH1 0xE5 SHL DUP2 MSTORE PUSH1 0x4 ADD PUSH2 0x418 SWAP1 PUSH2 0x11FF JUMP JUMPDEST PUSH1 0x2 PUSH2 0x8B4 PUSH1 0x1 DUP4 PUSH2 0x122A JUMP JUMPDEST DUP2 SLOAD DUP2 LT PUSH2 0x8C4 JUMPI PUSH2 0x8C4 PUSH2 0x123D JUMP JUMPDEST PUSH1 0x0 SWAP2 DUP3 MSTORE PUSH1 0x20 SWAP2 DUP3 SWAP1 KECCAK256 PUSH1 0x40 DUP1 MLOAD DUP1 DUP3 ADD SWAP1 SWAP2 MSTORE PUSH1 0x2 SWAP1 SWAP3 MUL ADD DUP1 SLOAD PUSH1 0x1 PUSH1 0x1 PUSH1 0xA0 SHL SUB AND DUP3 MSTORE PUSH1 0x1 ADD SLOAD SWAP2 DUP2 ADD SWAP2 SWAP1 SWAP2 MSTORE SWAP4 SWAP3 POP POP POP JUMP JUMPDEST PUSH1 0x40 DUP1 MLOAD DUP1 DUP3 ADD DUP3 MSTORE PUSH1 0x0 DUP1 DUP3 MSTORE PUSH1 0x20 DUP1 DUP4 ADD DUP3 SWAP1 MSTORE PUSH1 0x1 PUSH1 0x1 PUSH1 0xA0 SHL SUB DUP7 AND DUP3 MSTORE PUSH1 0x3 SWAP1 MSTORE SWAP2 DUP3 KECCAK256 SLOAD DUP1 ISZERO PUSH2 0x985 JUMPI PUSH1 0x2 PUSH2 0x93B PUSH1 0x1 DUP4 PUSH2 0x122A JUMP JUMPDEST DUP2 SLOAD DUP2 LT PUSH2 0x94B JUMPI PUSH2 0x94B PUSH2 0x123D JUMP JUMPDEST PUSH1 0x0 SWAP2 DUP3 MSTORE PUSH1 0x20 SWAP2 DUP3 SWAP1 KECCAK256 PUSH1 0x40 DUP1 MLOAD DUP1 DUP3 ADD SWAP1 SWAP2 MSTORE PUSH1 0x2 SWAP1 SWAP3 MUL ADD DUP1 SLOAD PUSH1 0x1 PUSH1 0x1 PUSH1 0xA0 SHL SUB AND DUP3 MSTORE PUSH1 0x1 ADD SLOAD SWAP2 DUP2 ADD SWAP2 SWAP1 SWAP2 MSTORE SWAP2 POP PUSH2 0x99D JUMP JUMPDEST PUSH1 0x4 SLOAD PUSH2 0x99A SWAP1 PUSH1 0x1 PUSH1 0x1 PUSH1 0xA0 SHL SUB AND PUSH2 0x85D JUMP JUMPDEST SWAP2 POP JUMPDEST PUSH1 0x20 DUP3 ADD MLOAD PUSH1 0x0 SWAP1 ISZERO PUSH2 0x9CC JUMPI PUSH4 0x5F5E100 DUP4 PUSH1 0x20 ADD MLOAD DUP7 PUSH2 0x9BF SWAP2 SWAP1 PUSH2 0x1191 JUMP JUMPDEST PUSH2 0x9C9 SWAP2 SWAP1 PUSH2 0x11A8 JUMP JUMPDEST SWAP1 POP JUMPDEST SWAP6 SWAP5 POP POP POP POP POP JUMP JUMPDEST PUSH1 0x2 DUP2 DUP2 SLOAD DUP2 LT PUSH2 0x9E5 JUMPI PUSH1 0x0 DUP1 REVERT JUMPDEST PUSH1 0x0 SWAP2 DUP3 MSTORE PUSH1 0x20 SWAP1 SWAP2 KECCAK256 PUSH1 0x2 SWAP1 SWAP2 MUL ADD DUP1 SLOAD PUSH1 0x1 SWAP1 SWAP2 ADD SLOAD PUSH1 0x1 PUSH1 0x1 PUSH1 0xA0 SHL SUB SWAP1 SWAP2 AND SWAP2 POP DUP3 JUMP JUMPDEST PUSH2 0xA27 PUSH1 0x0 DUP1 MLOAD PUSH1 0x20 PUSH2 0x126A DUP4 CODECOPY DUP2 MLOAD SWAP2 MSTORE PUSH2 0x36B PUSH2 0xE13 JUMP JUMPDEST PUSH2 0xA43 JUMPI PUSH1 0x40 MLOAD PUSH3 0x461BCD PUSH1 0xE5 SHL DUP2 MSTORE PUSH1 0x4 ADD PUSH2 0x418 SWAP1 PUSH2 0x11CA JUMP JUMPDEST PUSH1 0x1 PUSH1 0x1 PUSH1 0xA0 SHL SUB DUP2 AND PUSH2 0xA99 JUMPI PUSH1 0x40 MLOAD PUSH3 0x461BCD PUSH1 0xE5 SHL DUP2 MSTORE PUSH1 0x20 PUSH1 0x4 DUP3 ADD MSTORE PUSH1 0x18 PUSH1 0x24 DUP3 ADD MSTORE PUSH32 0x496E76616C6964206E65774F776E657220616464726573730000000000000000 PUSH1 0x44 DUP3 ADD MSTORE PUSH1 0x64 ADD PUSH2 0x418 JUMP JUMPDEST PUSH1 0x4 DUP1 SLOAD PUSH1 0x1 PUSH1 0x1 PUSH1 0xA0 SHL SUB NOT AND PUSH1 0x1 PUSH1 0x1 PUSH1 0xA0 SHL SUB SWAP3 SWAP1 SWAP3 AND SWAP2 SWAP1 SWAP2 OR SWAP1 SSTORE JUMP JUMPDEST PUSH1 0x40 DUP1 MLOAD DUP1 DUP3 ADD SWAP1 SWAP2 MSTORE PUSH1 0x0 DUP1 DUP3 MSTORE PUSH1 0x20 DUP3 ADD MSTORE PUSH1 0x2 SLOAD DUP3 LT PUSH2 0xB16 JUMPI PUSH1 0x40 MLOAD PUSH3 0x461BCD PUSH1 0xE5 SHL DUP2 MSTORE PUSH1 0x20 PUSH1 0x4 DUP3 ADD MSTORE PUSH1 0x13 PUSH1 0x24 DUP3 ADD MSTORE PUSH19 0x496E646578206F7574206F6620626F756E6473 PUSH1 0x68 SHL PUSH1 0x44 DUP3 ADD MSTORE PUSH1 0x64 ADD PUSH2 0x418 JUMP JUMPDEST PUSH1 0x2 DUP3 DUP2 SLOAD DUP2 LT PUSH2 0xB29 JUMPI PUSH2 0xB29 PUSH2 0x123D JUMP JUMPDEST PUSH1 0x0 SWAP2 DUP3 MSTORE PUSH1 0x20 SWAP2 DUP3 SWAP1 KECCAK256 PUSH1 0x40 DUP1 MLOAD DUP1 DUP3 ADD SWAP1 SWAP2 MSTORE PUSH1 0x2 SWAP1 SWAP3 MUL ADD DUP1 SLOAD PUSH1 0x1 PUSH1 0x1 PUSH1 0xA0 SHL SUB AND DUP3 MSTORE PUSH1 0x1 ADD SLOAD SWAP2 DUP2 ADD SWAP2 SWAP1 SWAP2 MSTORE SWAP3 SWAP2 POP POP JUMP JUMPDEST PUSH1 0x0 SWAP2 DUP3 MSTORE PUSH1 0x20 DUP3 DUP2 MSTORE PUSH1 0x40 DUP1 DUP5 KECCAK256 PUSH1 0x1 PUSH1 0x1 PUSH1 0xA0 SHL SUB SWAP4 SWAP1 SWAP4 AND DUP5 MSTORE SWAP2 SWAP1 MSTORE SWAP1 KECCAK256 SLOAD PUSH1 0xFF AND SWAP1 JUMP JUMPDEST PUSH1 0x60 PUSH1 0x2 DUP1 SLOAD DUP1 PUSH1 0x20 MUL PUSH1 0x20 ADD PUSH1 0x40 MLOAD SWAP1 DUP2 ADD PUSH1 0x40 MSTORE DUP1 SWAP3 SWAP2 SWAP1 DUP2 DUP2 MSTORE PUSH1 0x20 ADD PUSH1 0x0 SWAP1 JUMPDEST DUP3 DUP3 LT ISZERO PUSH2 0xBF7 JUMPI PUSH1 0x0 DUP5 DUP2 MSTORE PUSH1 0x20 SWAP1 DUP2 SWAP1 KECCAK256 PUSH1 0x40 DUP1 MLOAD DUP1 DUP3 ADD SWAP1 SWAP2 MSTORE PUSH1 0x2 DUP6 MUL SWAP1 SWAP2 ADD DUP1 SLOAD PUSH1 0x1 PUSH1 0x1 PUSH1 0xA0 SHL SUB AND DUP3 MSTORE PUSH1 0x1 SWAP1 DUP2 ADD SLOAD DUP3 DUP5 ADD MSTORE SWAP1 DUP4 MSTORE SWAP1 SWAP3 ADD SWAP2 ADD PUSH2 0xBAF JUMP JUMPDEST POP POP POP POP SWAP1 POP SWAP1 JUMP JUMPDEST PUSH1 0x0 DUP3 DUP2 MSTORE PUSH1 0x20 DUP2 SWAP1 MSTORE PUSH1 0x40 SWAP1 KECCAK256 PUSH1 0x1 ADD SLOAD PUSH2 0xC1B DUP2 PUSH2 0xEB5 JUMP JUMPDEST PUSH2 0x814 DUP4 DUP4 PUSH2 0xEC9 JUMP JUMPDEST PUSH2 0xC3F PUSH1 0x0 DUP1 MLOAD PUSH1 0x20 PUSH2 0x126A DUP4 CODECOPY DUP2 MLOAD SWAP2 MSTORE PUSH2 0x36B PUSH2 0xE13 JUMP JUMPDEST PUSH2 0xC5B JUMPI PUSH1 0x40 MLOAD PUSH3 0x461BCD PUSH1 0xE5 SHL DUP2 MSTORE PUSH1 0x4 ADD PUSH2 0x418 SWAP1 PUSH2 0x11CA JUMP JUMPDEST PUSH1 0x1 PUSH1 0x1 PUSH1 0xA0 SHL SUB DUP2 AND PUSH1 0x0 SWAP1 DUP2 MSTORE PUSH1 0x3 PUSH1 0x20 MSTORE PUSH1 0x40 SWAP1 KECCAK256 SLOAD DUP1 PUSH2 0xC91 JUMPI PUSH1 0x40 MLOAD PUSH3 0x461BCD PUSH1 0xE5 SHL DUP2 MSTORE PUSH1 0x4 ADD PUSH2 0x418 SWAP1 PUSH2 0x11FF JUMP JUMPDEST PUSH1 0x2 SLOAD DUP2 SUB PUSH2 0xCD9 JUMPI PUSH1 0x2 DUP1 SLOAD DUP1 PUSH2 0xCAB JUMPI PUSH2 0xCAB PUSH2 0x1253 JUMP JUMPDEST PUSH1 0x0 DUP3 DUP2 MSTORE PUSH1 0x20 DUP2 KECCAK256 PUSH1 0x2 PUSH1 0x0 NOT SWAP1 SWAP4 ADD SWAP3 DUP4 MUL ADD DUP1 SLOAD PUSH1 0x1 PUSH1 0x1 PUSH1 0xA0 SHL SUB NOT AND DUP2 SSTORE PUSH1 0x1 ADD SSTORE SWAP1 SSTORE PUSH2 0xD9C JUMP JUMPDEST PUSH1 0x2 DUP1 SLOAD PUSH2 0xCE9 SWAP1 PUSH1 0x1 SWAP1 PUSH2 0x122A JUMP JUMPDEST DUP2 SLOAD DUP2 LT PUSH2 0xCF9 JUMPI PUSH2 0xCF9 PUSH2 0x123D JUMP JUMPDEST SWAP1 PUSH1 0x0 MSTORE PUSH1 0x20 PUSH1 0x0 KECCAK256 SWAP1 PUSH1 0x2 MUL ADD PUSH1 0x2 PUSH1 0x1 DUP4 PUSH2 0xD16 SWAP2 SWAP1 PUSH2 0x122A JUMP JUMPDEST DUP2 SLOAD DUP2 LT PUSH2 0xD26 JUMPI PUSH2 0xD26 PUSH2 0x123D JUMP JUMPDEST PUSH1 0x0 SWAP2 DUP3 MSTORE PUSH1 0x20 SWAP1 SWAP2 KECCAK256 DUP3 SLOAD PUSH1 0x2 SWAP3 DUP4 MUL SWAP1 SWAP2 ADD DUP1 SLOAD PUSH1 0x1 PUSH1 0x1 PUSH1 0xA0 SHL SUB NOT AND PUSH1 0x1 PUSH1 0x1 PUSH1 0xA0 SHL SUB SWAP1 SWAP3 AND SWAP2 SWAP1 SWAP2 OR DUP2 SSTORE PUSH1 0x1 SWAP3 DUP4 ADD SLOAD SWAP3 ADD SWAP2 SWAP1 SWAP2 SSTORE DUP1 SLOAD DUP1 PUSH2 0xD72 JUMPI PUSH2 0xD72 PUSH2 0x1253 JUMP JUMPDEST PUSH1 0x0 DUP3 DUP2 MSTORE PUSH1 0x20 DUP2 KECCAK256 PUSH1 0x2 PUSH1 0x0 NOT SWAP1 SWAP4 ADD SWAP3 DUP4 MUL ADD DUP1 SLOAD PUSH1 0x1 PUSH1 0x1 PUSH1 0xA0 SHL SUB NOT AND DUP2 SSTORE PUSH1 0x1 ADD SSTORE SWAP1 SSTORE JUMPDEST PUSH1 0x2 SLOAD ISZERO PUSH2 0xDF8 JUMPI DUP1 PUSH1 0x3 PUSH1 0x0 PUSH1 0x2 PUSH1 0x1 PUSH1 0x2 DUP1 SLOAD SWAP1 POP PUSH2 0xDBD SWAP2 SWAP1 PUSH2 0x122A JUMP JUMPDEST DUP2 SLOAD DUP2 LT PUSH2 0xDCD JUMPI PUSH2 0xDCD PUSH2 0x123D JUMP JUMPDEST PUSH1 0x0 SWAP2 DUP3 MSTORE PUSH1 0x20 DUP1 DUP4 KECCAK256 PUSH1 0x2 SWAP1 SWAP3 MUL SWAP1 SWAP2 ADD SLOAD PUSH1 0x1 PUSH1 0x1 PUSH1 0xA0 SHL SUB AND DUP4 MSTORE DUP3 ADD SWAP3 SWAP1 SWAP3 MSTORE PUSH1 0x40 ADD SWAP1 KECCAK256 SSTORE JUMPDEST POP PUSH1 0x1 PUSH1 0x1 PUSH1 0xA0 SHL SUB AND PUSH1 0x0 SWAP1 DUP2 MSTORE PUSH1 0x3 PUSH1 0x20 MSTORE PUSH1 0x40 DUP2 KECCAK256 SSTORE JUMP JUMPDEST PUSH1 0x0 PUSH2 0xE1D PUSH2 0xF52 JUMP JUMPDEST SWAP1 POP SWAP1 JUMP JUMPDEST PUSH1 0x0 PUSH2 0xE2E DUP4 DUP4 PUSH2 0xB62 JUMP JUMPDEST PUSH2 0xEAD JUMPI PUSH1 0x0 DUP4 DUP2 MSTORE PUSH1 0x20 DUP2 DUP2 MSTORE PUSH1 0x40 DUP1 DUP4 KECCAK256 PUSH1 0x1 PUSH1 0x1 PUSH1 0xA0 SHL SUB DUP7 AND DUP5 MSTORE SWAP1 SWAP2 MSTORE SWAP1 KECCAK256 DUP1 SLOAD PUSH1 0xFF NOT AND PUSH1 0x1 OR SWAP1 SSTORE PUSH2 0xE65 PUSH2 0xE13 JUMP JUMPDEST PUSH1 0x1 PUSH1 0x1 PUSH1 0xA0 SHL SUB AND DUP3 PUSH1 0x1 PUSH1 0x1 PUSH1 0xA0 SHL SUB AND DUP5 PUSH32 0x2F8788117E7EFF1D82E926EC794901D17C78024A50270940304540A733656F0D PUSH1 0x40 MLOAD PUSH1 0x40 MLOAD DUP1 SWAP2 SUB SWAP1 LOG4 POP PUSH1 0x1 PUSH2 0x40B JUMP JUMPDEST POP PUSH1 0x0 PUSH2 0x40B JUMP JUMPDEST PUSH2 0xEC6 DUP2 PUSH2 0xEC1 PUSH2 0xE13 JUMP JUMPDEST PUSH2 0xF96 JUMP JUMPDEST POP JUMP JUMPDEST PUSH1 0x0 PUSH2 0xED5 DUP4 DUP4 PUSH2 0xB62 JUMP JUMPDEST ISZERO PUSH2 0xEAD JUMPI PUSH1 0x0 DUP4 DUP2 MSTORE PUSH1 0x20 DUP2 DUP2 MSTORE PUSH1 0x40 DUP1 DUP4 KECCAK256 PUSH1 0x1 PUSH1 0x1 PUSH1 0xA0 SHL SUB DUP7 AND DUP5 MSTORE SWAP1 SWAP2 MSTORE SWAP1 KECCAK256 DUP1 SLOAD PUSH1 0xFF NOT AND SWAP1 SSTORE PUSH2 0xF0A PUSH2 0xE13 JUMP JUMPDEST PUSH1 0x1 PUSH1 0x1 PUSH1 0xA0 SHL SUB AND DUP3 PUSH1 0x1 PUSH1 0x1 PUSH1 0xA0 SHL SUB AND DUP5 PUSH32 0xF6391F5C32D9C69D2A47EA670B442974B53935D1EDC7FD64EB21E047A839171B PUSH1 0x40 MLOAD PUSH1 0x40 MLOAD DUP1 SWAP2 SUB SWAP1 LOG4 POP PUSH1 0x1 PUSH2 0x40B JUMP JUMPDEST PUSH1 0x0 PUSH32 0x0 PUSH1 0x1 PUSH1 0x1 PUSH1 0xA0 SHL SUB AND CALLER SUB PUSH2 0xF91 JUMPI POP PUSH1 0x13 NOT CALLDATASIZE ADD CALLDATALOAD PUSH1 0x60 SHR SWAP1 JUMP JUMPDEST POP CALLER SWAP1 JUMP JUMPDEST PUSH2 0xFA0 DUP3 DUP3 PUSH2 0xB62 JUMP JUMPDEST PUSH2 0x7EB JUMPI PUSH1 0x40 MLOAD PUSH4 0xE2517D3F PUSH1 0xE0 SHL DUP2 MSTORE PUSH1 0x1 PUSH1 0x1 PUSH1 0xA0 SHL SUB DUP3 AND PUSH1 0x4 DUP3 ADD MSTORE PUSH1 0x24 DUP2 ADD DUP4 SWAP1 MSTORE PUSH1 0x44 ADD PUSH2 0x418 JUMP JUMPDEST PUSH1 0x0 PUSH1 0x20 DUP3 DUP5 SUB SLT ISZERO PUSH2 0xFE1 JUMPI PUSH1 0x0 DUP1 REVERT JUMPDEST DUP2 CALLDATALOAD PUSH1 0x1 PUSH1 0x1 PUSH1 0xE0 SHL SUB NOT DUP2 AND DUP2 EQ PUSH2 0x4B3 JUMPI PUSH1 0x0 DUP1 REVERT JUMPDEST DUP1 CALLDATALOAD PUSH1 0x6 DUP2 LT PUSH2 0x1008 JUMPI PUSH1 0x0 DUP1 REVERT JUMPDEST SWAP2 SWAP1 POP JUMP JUMPDEST PUSH1 0x0 DUP1 PUSH1 0x40 DUP4 DUP6 SUB SLT ISZERO PUSH2 0x1020 JUMPI PUSH1 0x0 DUP1 REVERT JUMPDEST PUSH2 0x1029 DUP4 PUSH2 0xFF9 JUMP JUMPDEST SWAP5 PUSH1 0x20 SWAP4 SWAP1 SWAP4 ADD CALLDATALOAD SWAP4 POP POP POP JUMP JUMPDEST DUP1 CALLDATALOAD PUSH1 0x1 PUSH1 0x1 PUSH1 0xA0 SHL SUB DUP2 AND DUP2 EQ PUSH2 0x1008 JUMPI PUSH1 0x0 DUP1 REVERT JUMPDEST PUSH1 0x0 DUP1 PUSH1 0x40 DUP4 DUP6 SUB SLT ISZERO PUSH2 0x1061 JUMPI PUSH1 0x0 DUP1 REVERT JUMPDEST PUSH2 0x1029 DUP4 PUSH2 0x1037 JUMP JUMPDEST PUSH1 0x0 PUSH1 0x20 DUP3 DUP5 SUB SLT ISZERO PUSH2 0x107C JUMPI PUSH1 0x0 DUP1 REVERT JUMPDEST POP CALLDATALOAD SWAP2 SWAP1 POP JUMP JUMPDEST PUSH1 0x0 PUSH1 0x20 DUP3 DUP5 SUB SLT ISZERO PUSH2 0x1095 JUMPI PUSH1 0x0 DUP1 REVERT JUMPDEST PUSH2 0x4B3 DUP3 PUSH2 0x1037 JUMP JUMPDEST PUSH1 0x0 DUP1 PUSH1 0x40 DUP4 DUP6 SUB SLT ISZERO PUSH2 0x10B1 JUMPI PUSH1 0x0 DUP1 REVERT JUMPDEST DUP3 CALLDATALOAD SWAP2 POP PUSH2 0x10C1 PUSH1 0x20 DUP5 ADD PUSH2 0x1037 JUMP JUMPDEST SWAP1 POP SWAP3 POP SWAP3 SWAP1 POP JUMP JUMPDEST PUSH1 0x0 PUSH1 0x20 DUP3 DUP5 SUB SLT ISZERO PUSH2 0x10DC JUMPI PUSH1 0x0 DUP1 REVERT JUMPDEST PUSH2 0x4B3 DUP3 PUSH2 0xFF9 JUMP JUMPDEST DUP2 MLOAD PUSH1 0x1 PUSH1 0x1 PUSH1 0xA0 SHL SUB AND DUP2 MSTORE PUSH1 0x20 DUP1 DUP4 ADD MLOAD SWAP1 DUP3 ADD MSTORE PUSH1 0x40 DUP2 ADD PUSH2 0x40B JUMP JUMPDEST PUSH1 0x20 DUP1 DUP3 MSTORE DUP3 MLOAD DUP3 DUP3 ADD DUP2 SWAP1 MSTORE PUSH1 0x0 SWAP2 SWAP1 PUSH1 0x40 SWAP1 DUP2 DUP6 ADD SWAP1 DUP7 DUP5 ADD DUP6 JUMPDEST DUP3 DUP2 LT ISZERO PUSH2 0x1158 JUMPI PUSH2 0x1148 DUP5 DUP4 MLOAD DUP1 MLOAD PUSH1 0x1 PUSH1 0x1 PUSH1 0xA0 SHL SUB AND DUP3 MSTORE PUSH1 0x20 SWAP1 DUP2 ADD MLOAD SWAP2 ADD MSTORE JUMP JUMPDEST SWAP3 DUP5 ADD SWAP3 SWAP1 DUP6 ADD SWAP1 PUSH1 0x1 ADD PUSH2 0x1122 JUMP JUMPDEST POP SWAP2 SWAP8 SWAP7 POP POP POP POP POP POP POP JUMP JUMPDEST PUSH4 0x4E487B71 PUSH1 0xE0 SHL PUSH1 0x0 MSTORE PUSH1 0x21 PUSH1 0x4 MSTORE PUSH1 0x24 PUSH1 0x0 REVERT JUMPDEST PUSH4 0x4E487B71 PUSH1 0xE0 SHL PUSH1 0x0 MSTORE PUSH1 0x11 PUSH1 0x4 MSTORE PUSH1 0x24 PUSH1 0x0 REVERT JUMPDEST DUP1 DUP3 MUL DUP2 ISZERO DUP3 DUP3 DIV DUP5 EQ OR PUSH2 0x40B JUMPI PUSH2 0x40B PUSH2 0x117B JUMP JUMPDEST PUSH1 0x0 DUP3 PUSH2 0x11C5 JUMPI PUSH4 0x4E487B71 PUSH1 0xE0 SHL PUSH1 0x0 MSTORE PUSH1 0x12 PUSH1 0x4 MSTORE PUSH1 0x24 PUSH1 0x0 REVERT JUMPDEST POP DIV SWAP1 JUMP JUMPDEST PUSH1 0x20 DUP1 DUP3 MSTORE DUP2 DUP2 ADD MSTORE PUSH32 0x4665654D616E616765723A206D7573742068617665206F776E657220726F6C65 PUSH1 0x40 DUP3 ADD MSTORE PUSH1 0x60 ADD SWAP1 JUMP JUMPDEST PUSH1 0x20 DUP1 DUP3 MSTORE PUSH1 0x11 SWAP1 DUP3 ADD MSTORE PUSH17 0x14185C9D1B995C881B9BDD08199BDD5B99 PUSH1 0x7A SHL PUSH1 0x40 DUP3 ADD MSTORE PUSH1 0x60 ADD SWAP1 JUMP JUMPDEST DUP2 DUP2 SUB DUP2 DUP2 GT ISZERO PUSH2 0x40B JUMPI PUSH2 0x40B PUSH2 0x117B JUMP JUMPDEST PUSH4 0x4E487B71 PUSH1 0xE0 SHL PUSH1 0x0 MSTORE PUSH1 0x32 PUSH1 0x4 MSTORE PUSH1 0x24 PUSH1 0x0 REVERT JUMPDEST PUSH4 0x4E487B71 PUSH1 0xE0 SHL PUSH1 0x0 MSTORE PUSH1 0x31 PUSH1 0x4 MSTORE PUSH1 0x24 PUSH1 0x0 REVERT INVALID LOG4 SWAP9 SMOD KECCAK256 0x5C 0xE4 0xD3 SSTORE MULMOD 0x2E CREATE2 0xA8 LOG1 DUP16 JUMP 0xE8 SWAP2 EXTCODECOPY DELEGATECALL LOG2 ADD 0xFB 0xE2 DUP8 DUP3 JUMPDEST MULMOD JUMP SWAP4 0xC2 OR PUSH22 0xA26469706673582212202C71967CB8BCD9A7B197ED76 PUSH0 DUP16 PUSH6 0x972CECF223F5 PUSH21 0xDFE8E4C99FB3CF1FFAF664736F6C63430008140033 LOG4 SWAP9 SMOD KECCAK256 0x5C 0xE4 0xD3 SSTORE MULMOD 0x2E CREATE2 0xA8 LOG1 DUP16 JUMP 0xE8 SWAP2 EXTCODECOPY DELEGATECALL LOG2 ADD 0xFB 0xE2 DUP8 DUP3 JUMPDEST MULMOD JUMP SWAP4 0xC2 OR PUSH22 0x4665654D616E616765723A206D757374206861766520 PUSH16 0x776E657220726F6C6500000000000000 "},"methodIdentifiers":{"ADMIN_ROLE()":"75b238fc","DEFAULT_ADMIN_ROLE()":"a217fddf","MANAGER_ROLE()":"ec87621c","addOwner(address)":"7065cb48","addPartner(address,uint256)":"22e7d115","calculateFeeAmount(uint8,uint256)":"0c040b47","calculatePartnerAmount(address,uint256)":"47203d5b","changeFee(uint8,uint256)":"13a7e54e","fees(uint8)":"357c1354","getAllPartners()":"d3e83a08","getPartner(uint256)":"7fc96619","getPartnerByWallet(address)":"3c057895","getRoleAdmin(bytes32)":"248a9ca3","grantManagerRole(address)":"26e885e3","grantRole(bytes32,address)":"2f2ff15d","hasRole(bytes32,address)":"91d14854","isTrustedForwarder(address)":"572b6c05","partnerIndexes(address)":"57210115","partnersFees(uint256)":"4ebc11f6","removePartner(address)":"ea3c281a","renounceRole(bytes32,address)":"36568abe","revokeRole(bytes32,address)":"d547741f","supportsInterface(bytes4)":"01ffc9a7","updatePartnerFee(address,uint256)":"1de309bf"}}}}}