{"contracts/StableManager.sol":{"StableManager":{"abi":[{"inputs":[{"internalType":"address","name":"trustedForwarder","type":"address"}],"stateMutability":"nonpayable","type":"constructor"},{"inputs":[],"name":"AccessControlBadConfirmation","type":"error"},{"inputs":[{"internalType":"address","name":"account","type":"address"},{"internalType":"bytes32","name":"neededRole","type":"bytes32"}],"name":"AccessControlUnauthorizedAccount","type":"error"},{"inputs":[],"name":"EnforcedPause","type":"error"},{"inputs":[],"name":"ExpectedPause","type":"error"},{"anonymous":false,"inputs":[{"indexed":false,"internalType":"address","name":"account","type":"address"}],"name":"Paused","type":"event"},{"anonymous":false,"inputs":[{"indexed":true,"internalType":"bytes32","name":"role","type":"bytes32"},{"indexed":true,"internalType":"bytes32","name":"previousAdminRole","type":"bytes32"},{"indexed":true,"internalType":"bytes32","name":"newAdminRole","type":"bytes32"}],"name":"RoleAdminChanged","type":"event"},{"anonymous":false,"inputs":[{"indexed":true,"internalType":"bytes32","name":"role","type":"bytes32"},{"indexed":true,"internalType":"address","name":"account","type":"address"},{"indexed":true,"internalType":"address","name":"sender","type":"address"}],"name":"RoleGranted","type":"event"},{"anonymous":false,"inputs":[{"indexed":true,"internalType":"bytes32","name":"role","type":"bytes32"},{"indexed":true,"internalType":"address","name":"account","type":"address"},{"indexed":true,"internalType":"address","name":"sender","type":"address"}],"name":"RoleRevoked","type":"event"},{"anonymous":false,"inputs":[{"indexed":false,"internalType":"address","name":"account","type":"address"}],"name":"Unpaused","type":"event"},{"inputs":[],"name":"ADMIN_ROLE","outputs":[{"internalType":"bytes32","name":"","type":"bytes32"}],"stateMutability":"view","type":"function"},{"inputs":[],"name":"AUSDToken","outputs":[{"internalType":"contract IERC20","name":"","type":"address"}],"stateMutability":"view","type":"function"},{"inputs":[],"name":"DEFAULT_ADMIN_ROLE","outputs":[{"internalType":"bytes32","name":"","type":"bytes32"}],"stateMutability":"view","type":"function"},{"inputs":[],"name":"MANAGER_ROLE","outputs":[{"internalType":"bytes32","name":"","type":"bytes32"}],"stateMutability":"view","type":"function"},{"inputs":[],"name":"USDToken","outputs":[{"internalType":"contract IERC20","name":"","type":"address"}],"stateMutability":"view","type":"function"},{"inputs":[{"internalType":"contract ERC20Stable","name":"tokenAddress","type":"address"},{"internalType":"uint256","name":"priceInit","type":"uint256"},{"internalType":"uint256","name":"tokenReserve","type":"uint256"},{"internalType":"bool","name":"tradable","type":"bool"}],"name":"addStable","outputs":[{"components":[{"internalType":"contract ERC20Stable","name":"tokenAddress","type":"address"},{"internalType":"uint256","name":"price","type":"uint256"},{"internalType":"uint256","name":"tokenReserve","type":"uint256"},{"internalType":"bool","name":"tradable","type":"bool"}],"internalType":"struct StableManager.Stable","name":"","type":"tuple"}],"stateMutability":"nonpayable","type":"function"},{"inputs":[{"internalType":"address","name":"tokenAddress","type":"address"},{"internalType":"uint256","name":"amount","type":"uint256"},{"internalType":"address","name":"partner","type":"address"}],"name":"burnStable","outputs":[{"internalType":"uint256","name":"","type":"uint256"}],"stateMutability":"nonpayable","type":"function"},{"inputs":[{"internalType":"address","name":"_feeCollector","type":"address"}],"name":"changeFeeCollector","outputs":[{"internalType":"bool","name":"","type":"bool"}],"stateMutability":"nonpayable","type":"function"},{"inputs":[{"internalType":"address","name":"_feeManager","type":"address"}],"name":"changeFeeManager","outputs":[{"internalType":"bool","name":"","type":"bool"}],"stateMutability":"nonpayable","type":"function"},{"inputs":[{"internalType":"address","name":"usdToken","type":"address"}],"name":"changeUSD","outputs":[{"internalType":"bool","name":"","type":"bool"}],"stateMutability":"nonpayable","type":"function"},{"inputs":[],"name":"feeCollector","outputs":[{"internalType":"address","name":"","type":"address"}],"stateMutability":"view","type":"function"},{"inputs":[],"name":"feeManager","outputs":[{"internalType":"contract FeeManager","name":"","type":"address"}],"stateMutability":"view","type":"function"},{"inputs":[{"internalType":"bytes32","name":"role","type":"bytes32"}],"name":"getRoleAdmin","outputs":[{"internalType":"bytes32","name":"","type":"bytes32"}],"stateMutability":"view","type":"function"},{"inputs":[{"internalType":"address","name":"tokenAddress","type":"address"}],"name":"getStable","outputs":[{"components":[{"internalType":"contract ERC20Stable","name":"tokenAddress","type":"address"},{"internalType":"uint256","name":"price","type":"uint256"},{"internalType":"uint256","name":"tokenReserve","type":"uint256"},{"internalType":"bool","name":"tradable","type":"bool"}],"internalType":"struct StableManager.Stable","name":"","type":"tuple"}],"stateMutability":"view","type":"function"},{"inputs":[{"internalType":"bytes32","name":"role","type":"bytes32"},{"internalType":"address","name":"account","type":"address"}],"name":"grantNewRole","outputs":[],"stateMutability":"nonpayable","type":"function"},{"inputs":[{"internalType":"bytes32","name":"role","type":"bytes32"},{"internalType":"address","name":"account","type":"address"}],"name":"grantRole","outputs":[],"stateMutability":"nonpayable","type":"function"},{"inputs":[{"internalType":"bytes32","name":"role","type":"bytes32"},{"internalType":"address","name":"account","type":"address"}],"name":"hasRole","outputs":[{"internalType":"bool","name":"","type":"bool"}],"stateMutability":"view","type":"function"},{"inputs":[{"internalType":"address","name":"forwarder","type":"address"}],"name":"isTrustedForwarder","outputs":[{"internalType":"bool","name":"","type":"bool"}],"stateMutability":"view","type":"function"},{"inputs":[],"name":"lendingPool","outputs":[{"internalType":"contract ILendingPool","name":"","type":"address"}],"stateMutability":"view","type":"function"},{"inputs":[{"internalType":"address","name":"tokenAddress","type":"address"},{"internalType":"uint256","name":"usdAmount","type":"uint256"},{"internalType":"address","name":"partner","type":"address"}],"name":"mintStable","outputs":[{"internalType":"uint256","name":"","type":"uint256"}],"stateMutability":"nonpayable","type":"function"},{"inputs":[],"name":"pause","outputs":[],"stateMutability":"nonpayable","type":"function"},{"inputs":[],"name":"paused","outputs":[{"internalType":"bool","name":"","type":"bool"}],"stateMutability":"view","type":"function"},{"inputs":[{"internalType":"contract ERC20Stable","name":"tokenAddress","type":"address"}],"name":"removeStableByAddress","outputs":[{"components":[{"internalType":"contract ERC20Stable","name":"tokenAddress","type":"address"},{"internalType":"uint256","name":"price","type":"uint256"},{"internalType":"uint256","name":"tokenReserve","type":"uint256"},{"internalType":"bool","name":"tradable","type":"bool"}],"internalType":"struct StableManager.Stable","name":"","type":"tuple"}],"stateMutability":"nonpayable","type":"function"},{"inputs":[{"internalType":"bytes32","name":"role","type":"bytes32"},{"internalType":"address","name":"callerConfirmation","type":"address"}],"name":"renounceRole","outputs":[],"stateMutability":"nonpayable","type":"function"},{"inputs":[{"internalType":"bytes32","name":"role","type":"bytes32"},{"internalType":"address","name":"account","type":"address"}],"name":"revokeRole","outputs":[],"stateMutability":"nonpayable","type":"function"},{"inputs":[{"internalType":"bytes32","name":"role","type":"bytes32"},{"internalType":"address","name":"account","type":"address"}],"name":"revoveRole","outputs":[],"stateMutability":"nonpayable","type":"function"},{"inputs":[{"internalType":"address","name":"ercAddress","type":"address"},{"internalType":"address","name":"to","type":"address"},{"internalType":"uint256","name":"amount","type":"uint256"},{"internalType":"address","name":"partner","type":"address"}],"name":"sendStable","outputs":[{"internalType":"uint256","name":"","type":"uint256"}],"stateMutability":"nonpayable","type":"function"},{"inputs":[{"internalType":"address","name":"_stable1","type":"address"},{"internalType":"address","name":"_stable2","type":"address"},{"internalType":"uint256","name":"amount","type":"uint256"},{"internalType":"address","name":"partner","type":"address"}],"name":"stableTrade","outputs":[{"internalType":"uint256","name":"","type":"uint256"}],"stateMutability":"nonpayable","type":"function"},{"inputs":[{"internalType":"address","name":"","type":"address"}],"name":"stables","outputs":[{"internalType":"contract ERC20Stable","name":"tokenAddress","type":"address"},{"internalType":"uint256","name":"price","type":"uint256"},{"internalType":"uint256","name":"tokenReserve","type":"uint256"},{"internalType":"bool","name":"tradable","type":"bool"}],"stateMutability":"view","type":"function"},{"inputs":[{"internalType":"bytes4","name":"interfaceId","type":"bytes4"}],"name":"supportsInterface","outputs":[{"internalType":"bool","name":"","type":"bool"}],"stateMutability":"view","type":"function"},{"inputs":[],"name":"unpause","outputs":[],"stateMutability":"nonpayable","type":"function"},{"inputs":[{"internalType":"contract ERC20Stable","name":"tokenAddress","type":"address"},{"internalType":"uint256","name":"price","type":"uint256"},{"internalType":"uint256","name":"tokenReserve","type":"uint256"},{"internalType":"bool","name":"tradable","type":"bool"}],"name":"updateStableByAddress","outputs":[{"components":[{"internalType":"contract ERC20Stable","name":"tokenAddress","type":"address"},{"internalType":"uint256","name":"price","type":"uint256"},{"internalType":"uint256","name":"tokenReserve","type":"uint256"},{"internalType":"bool","name":"tradable","type":"bool"}],"internalType":"struct StableManager.Stable","name":"","type":"tuple"}],"stateMutability":"nonpayable","type":"function"},{"inputs":[{"internalType":"contract ERC20Stable","name":"tokenAddress","type":"address"},{"internalType":"uint256","name":"newPrice","type":"uint256"}],"name":"updateStablePrice","outputs":[{"internalType":"bool","name":"","type":"bool"}],"stateMutability":"nonpayable","type":"function"}],"evm":{"bytecode":{"linkReferences":{},"object":"60a0604052620f424060075560646008556127106009553480156200002357600080fd5b5060405162002f6338038062002f638339810160408190526200004691620001f6565b6001600160a01b0381166080526001805460ff19169055620000676200010c565b600180546001600160a01b039290921661010002610100600160a81b0319909216919091179055620000a460006200009e6200010c565b6200011d565b50620000d47fa49807205ce4d355092ef5a8a18f56e8913cf4a201fbe287825b095693c217756200009e6200010c565b50620001047f241ecf16d79d0f8dbfb92cbc07fe17840425976cf0667f022fe9877caa831b086200009e6200010c565b505062000228565b600062000118620001ce565b905090565b6000828152602081815260408083206001600160a01b038516845290915281205460ff16620001c4576000838152602081815260408083206001600160a01b03861684529091529020805460ff191660011790556200017b6200010c565b6001600160a01b0316826001600160a01b0316847f2f8788117e7eff1d82e926ec794901d17c78024a50270940304540a733656f0d60405160405180910390a4506001620001c8565b5060005b92915050565b6080516000906001600160a01b03163303620001f1575060131936013560601c90565b503390565b6000602082840312156200020957600080fd5b81516001600160a01b03811681146200022157600080fd5b9392505050565b608051612d186200024b600039600081816103b701526127b90152612d186000f3fe608060405234801561001057600080fd5b50600436106101fb5760003560e01c80638456cb591161011a578063a7ed89d1116100ad578063d0fb02031161007c578063d0fb020314610505578063d547741f14610518578063dad0cf9c1461052b578063e2520bd01461053e578063ec87621c1461055157600080fd5b8063a7ed89d1146104b4578063bfb8058c146104c7578063bfc810b6146104da578063c415b95c146104ed57600080fd5b80639245290d116100e95780639245290d1461047357806394d188e014610486578063a217fddf14610499578063a59a9973146104a157600080fd5b80638456cb591461041a57806386c594181461042257806391d148541461044d57806391f0462c1461046057600080fd5b80633b33b2d511610192578063572b6c0511610161578063572b6c05146103a75780635c975abb146103e757806375b238fc146103f25780637ab86f741461040757600080fd5b80633b33b2d51461030b5780633f4ba83a1461031e57806346a0300c146103265780634743a5101461033957600080fd5b80632d0a9eaa116101ce5780632d0a9eaa1461027f5780632e6a3e35146102925780632f2ff15d146102e357806336568abe146102f857600080fd5b806301ffc9a714610200578063167f4deb14610228578063248a9ca31461024957806329ca20ca1461026c575b600080fd5b61021361020e36600461287e565b610578565b60405190151581526020015b60405180910390f35b61023b6102363660046128c4565b6105af565b60405190815260200161021f565b61023b610257366004612906565b60009081526020819052604090206001015490565b61023b61027a36600461291f565b610b49565b61021361028d366004612972565b611001565b6102a56102a0366004612972565b6110ae565b60405161021f919081516001600160a01b03168152602080830151908201526040808301519082015260609182015115159181019190915260800190565b6102f66102f136600461298f565b61110c565b005b6102f661030636600461298f565b611137565b6102a56103193660046129cd565b61117f565b6102f6611356565b6102f661033436600461298f565b611396565b61037b610347366004612972565b60066020526000908152604090208054600182015460028301546003909301546001600160a01b0390921692909160ff1684565b604080516001600160a01b0390951685526020850193909352918301521515606082015260800161021f565b6102136103b5366004612972565b7f00000000000000000000000000000000000000000000000000000000000000006001600160a01b0390811691161490565b60015460ff16610213565b61023b600080516020612cc383398151915281565b6102a5610415366004612972565b6113d6565b6102f661149d565b600354610435906001600160a01b031681565b6040516001600160a01b03909116815260200161021f565b61021361045b36600461298f565b6114db565b6102a561046e3660046129cd565b611504565b610213610481366004612972565b61162a565b610213610494366004612a0c565b6116e0565b61023b600081565b600254610435906001600160a01b031681565b61023b6104c23660046128c4565b61175d565b61023b6104d536600461291f565b611d1c565b6102136104e8366004612972565b6123e4565b6001546104359061010090046001600160a01b031681565b600554610435906001600160a01b031681565b6102f661052636600461298f565b612497565b600454610435906001600160a01b031681565b6102f661054c36600461298f565b6124bc565b61023b7f241ecf16d79d0f8dbfb92cbc07fe17840425976cf0667f022fe9877caa831b0881565b60006001600160e01b03198216637965db0b60e01b14806105a957506301ffc9a760e01b6001600160e01b03198316145b92915050565b60006105b96124f2565b600554604051633c05789560e01b81526001600160a01b0384811660048301526000921690633c057895906024016040805180830381865afa158015610603573d6000803e3d6000fd5b505050506040513d601f19601f820116820180604052508101906106279190612a38565b9050846000610635826110ae565b60055484516040516347203d5b60e01b81529293506000926001600160a01b03909216916347203d5b9161066d918b90600401612a9e565b602060405180830381865afa15801561068a573d6000803e3d6000fd5b505050506040513d601f19601f820116820180604052508101906106ae9190612ab7565b600554604051630c040b4760e01b81529192506000916001600160a01b0390911690630c040b47906106e7906001908c90600401612ae6565b602060405180830381865afa158015610704573d6000803e3d6000fd5b505050506040513d601f19601f820116820180604052508101906107289190612ab7565b905060006107368284612b28565b610740908a612b3b565b9050600089116107a35760405162461bcd60e51b815260206004820152602360248201527f416d6f756e74206e65656420746f2062652067726561746572207468616e207a60448201526265726f60e81b60648201526084015b60405180910390fd5b88856001600160a01b03166370a082316107bb612516565b6040516001600160e01b031960e084901b1681526001600160a01b039091166004820152602401602060405180830381865afa1580156107ff573d6000803e3d6000fd5b505050506040513d601f19601f820116820180604052508101906108239190612ab7565b10156108415760405162461bcd60e51b815260040161079a90612b4e565b88856001600160a01b031663dd62ed3e610859612516565b6040516001600160e01b031960e084901b1681526001600160a01b039091166004820152306024820152604401602060405180830381865afa1580156108a3573d6000803e3d6000fd5b505050506040513d601f19601f820116820180604052508101906108c79190612ab7565b101561090c5760405162461bcd60e51b8152602060048201526014602482015273082d8d8deeec2dcc6ca40dcdee840cadcdeeaced60631b604482015260640161079a565b60008460200151116109605760405162461bcd60e51b815260206004820152601960248201527f507269636520686173206e6f74206265656e20646566696e6500000000000000604482015260640161079a565b60008460200151600754836109759190612b78565b61097f9190612b8f565b9050856001600160a01b03166379cc6790610998612516565b8c6040518363ffffffff1660e01b81526004016109b6929190612a9e565b600060405180830381600087803b1580156109d057600080fd5b505af11580156109e4573d6000803e3d6000fd5b505050506109f486826001612525565b506003546001600160a01b031663a9059cbb610a0e612516565b836040518363ffffffff1660e01b8152600401610a2c929190612a9e565b6020604051808303816000875af1158015610a4b573d6000803e3d6000fd5b505050506040513d601f19601f82011682018060405250810190610a6f9190612bb1565b5086516040516340c10f1960e01b81526001600160a01b038816916340c10f1991610a9f91908890600401612a9e565b600060405180830381600087803b158015610ab957600080fd5b505af1158015610acd573d6000803e3d6000fd5b50506001546040516340c10f1960e01b81526001600160a01b03808b1694506340c10f199350610b0892610100900416908790600401612a9e565b600060405180830381600087803b158015610b2257600080fd5b505af1158015610b36573d6000803e3d6000fd5b50939d9c50505050505050505050505050565b6000610b536124f2565b600554604051633c05789560e01b81526001600160a01b0384811660048301526000921690633c057895906024016040805180830381865afa158015610b9d573d6000803e3d6000fd5b505050506040513d601f19601f82011682018060405250810190610bc19190612a38565b905060008411610c135760405162461bcd60e51b815260206004820152601b60248201527f546f6b656e7320616d6f756e742063616e2774206265207a65726f0000000000604482015260640161079a565b6001600160a01b038616610c695760405162461bcd60e51b815260206004820152601b60248201527f45524332302063616e2774206265206e756c6c20616464726573730000000000604482015260640161079a565b6001600160a01b038516610cbf5760405162461bcd60e51b815260206004820152601f60248201527f526563697069656e742063616e2774206265206e756c6c206164647265737300604482015260640161079a565b60055481516040516347203d5b60e01b81526000926001600160a01b0316916347203d5b91610cf391908990600401612a9e565b602060405180830381865afa158015610d10573d6000803e3d6000fd5b505050506040513d601f19601f82011682018060405250810190610d349190612ab7565b600554604051630c040b4760e01b81529192506000916001600160a01b0390911690630c040b4790610d6d906001908a90600401612ae6565b602060405180830381865afa158015610d8a573d6000803e3d6000fd5b505050506040513d601f19601f82011682018060405250810190610dae9190612ab7565b90506000610dbc8284612b28565b610dc69088612b3b565b905088876001600160a01b0382166370a08231610de1612516565b6040516001600160e01b031960e084901b1681526001600160a01b039091166004820152602401602060405180830381865afa158015610e25573d6000803e3d6000fd5b505050506040513d601f19601f82011682018060405250810190610e499190612ab7565b1015610e675760405162461bcd60e51b815260040161079a90612b4e565b806001600160a01b03166323b872dd610e7e612516565b8b856040518463ffffffff1660e01b8152600401610e9e93929190612bce565b6020604051808303816000875af1158015610ebd573d6000803e3d6000fd5b505050506040513d601f19601f82011682018060405250810190610ee19190612bb1565b50806001600160a01b03166323b872dd610ef9612516565b87516040516001600160e01b031960e085901b168152610f1f9291908990600401612bce565b6020604051808303816000875af1158015610f3e573d6000803e3d6000fd5b505050506040513d601f19601f82011682018060405250810190610f629190612bb1565b50806001600160a01b03166323b872dd610f7a612516565b60015460405160e084901b6001600160e01b0319168152610faf929161010090046001600160a01b0316908890600401612bce565b6020604051808303816000875af1158015610fce573d6000803e3d6000fd5b505050506040513d601f19601f82011682018060405250810190610ff29190612bb1565b50909998505050505050505050565b600061101d600080516020612cc383398151915261045b612516565b6110395760405162461bcd60e51b815260040161079a90612bf2565b6001600160a01b0382166110895760405162461bcd60e51b815260206004820152601760248201527614dd18589b194c48191bd95cdd081b9bdd08195e1a5cdd604a1b604482015260640161079a565b50600380546001600160a01b0383166001600160a01b03199091161790556001919050565b6110b661284b565b506001600160a01b039081166000908152600660209081526040918290208251608081018452815490941684526001810154918401919091526002810154918301919091526003015460ff161515606082015290565b600082815260208190526040902060010154611127816125f0565b6111318383612604565b50505050565b61113f612516565b6001600160a01b0316816001600160a01b0316146111705760405163334bd91960e11b815260040160405180910390fd5b61117a8282612697565b505050565b61118761284b565b6111a1600080516020612cc383398151915261045b612516565b6111bd5760405162461bcd60e51b815260040161079a90612bf2565b6001600160a01b038086166000908152600660209081526040918290208251608081018452815490941680855260018201549285019290925260028101549284019290925260039091015460ff16151560608301521561126d5760405162461bcd60e51b815260206004820152602560248201527f537461626c654d616e616765723a20746f6b656e206164647265737320206578604482015264746973747360d81b606482015260840161079a565b6001600160a01b0386166112935760405162461bcd60e51b815260040161079a90612c29565b600085116112b35760405162461bcd60e51b815260040161079a90612c74565b505060408051608080820183526001600160a01b039687168083526020808401978852838501968752941515606080850191825260009283526006875291859020935184546001600160a01b0319169916988917845596516001840181905595516002840181905596516003909301805460ff19169315159384179055835191820184529681529283019390935281019290925260ff1615159181019190915290565b611370600080516020612cc383398151915261045b612516565b61138c5760405162461bcd60e51b815260040161079a90612bf2565b611394612720565b565b6113b0600080516020612cc383398151915261045b612516565b6113cc5760405162461bcd60e51b815260040161079a90612bf2565b61117a8282612604565b6113de61284b565b6113f8600080516020612cc383398151915261045b612516565b6114145760405162461bcd60e51b815260040161079a90612bf2565b6001600160a01b03821661143a5760405162461bcd60e51b815260040161079a90612c29565b506001600160a01b0316600090815260066020908152604080832080546001600160a01b03191681556001810184905560028101849055600301805460ff1916905580516080810182528381529182018390528101829052606081019190915290565b6114b7600080516020612cc383398151915261045b612516565b6114d35760405162461bcd60e51b815260040161079a90612bf2565b611394612778565b6000918252602082815260408084206001600160a01b0393909316845291905290205460ff1690565b61150c61284b565b611526600080516020612cc383398151915261045b612516565b6115425760405162461bcd60e51b815260040161079a90612bf2565b6001600160a01b0385166115685760405162461bcd60e51b815260040161079a90612c29565b600084116115885760405162461bcd60e51b815260040161079a90612c74565b5060408051608080820183526001600160a01b039687168083526020808401978852838501968752941515606080850191825260009283526006875291859020935184546001600160a01b0319169916988917845596516001840181905595516002840181905596516003909301805460ff19169315159384179055835191820184529681529283019390935281019290925260ff1615159181019190915290565b6000611646600080516020612cc383398151915261045b612516565b6116625760405162461bcd60e51b815260040161079a90612bf2565b6001600160a01b0382166116b85760405162461bcd60e51b815260206004820152601a60248201527f666565436f6c6c6563746f722063616e2774206265206e756c6c000000000000604482015260640161079a565b50600180546001600160a01b03831661010002610100600160a81b0319909116178155919050565b60006116fc600080516020612cc383398151915261045b612516565b6117185760405162461bcd60e51b815260040161079a90612bf2565b600082116117385760405162461bcd60e51b815260040161079a90612c74565b506001600160a01b038216600090815260066020526040812060010182905592915050565b60006117676124f2565b600554604051633c05789560e01b81526001600160a01b0384811660048301526000921690633c057895906024016040805180830381865afa1580156117b1573d6000803e3d6000fd5b505050506040513d601f19601f820116820180604052508101906117d59190612a38565b90508460006117e3826110ae565b9050600086116118355760405162461bcd60e51b815260206004820152601860248201527f55736420616d6f756e742063616e2774206265207a65726f0000000000000000604482015260640161079a565b60035486906001600160a01b03166370a08231611850612516565b6040516001600160e01b031960e084901b1681526001600160a01b039091166004820152602401602060405180830381865afa158015611894573d6000803e3d6000fd5b505050506040513d601f19601f820116820180604052508101906118b89190612ab7565b10156118fd5760405162461bcd60e51b81526020600482015260146024820152730aaa68840a8ded6cadc40dcdee840cadcdeeaced60631b604482015260640161079a565b60035486906001600160a01b031663dd62ed3e611918612516565b6040516001600160e01b031960e084901b1681526001600160a01b039091166004820152306024820152604401602060405180830381865afa158015611962573d6000803e3d6000fd5b505050506040513d601f19601f820116820180604052508101906119869190612ab7565b10156119d45760405162461bcd60e51b815260206004820152601e60248201527f55534420546f6b656e20416c6c6f77616e6365206e6f7420656e6f7567680000604482015260640161079a565b6000816020015111611a285760405162461bcd60e51b815260206004820152601a60248201527f507269636520686173206e6f74206265656e20646566696e6564000000000000604482015260640161079a565b6000600754826020015188611a3d9190612b78565b611a479190612b8f565b6003549091506001600160a01b03166323b872dd611a63612516565b308a6040518463ffffffff1660e01b8152600401611a8393929190612bce565b6020604051808303816000875af1158015611aa2573d6000803e3d6000fd5b505050506040513d601f19601f82011682018060405250810190611ac69190612bb1565b5060055484516040516347203d5b60e01b81526000926001600160a01b0316916347203d5b91611afb91908690600401612a9e565b602060405180830381865afa158015611b18573d6000803e3d6000fd5b505050506040513d601f19601f82011682018060405250810190611b3c9190612ab7565b600554604051630c040b4760e01b81529192506000916001600160a01b0390911690630c040b4790611b749084908790600401612ae6565b602060405180830381865afa158015611b91573d6000803e3d6000fd5b505050506040513d601f19601f82011682018060405250810190611bb59190612ab7565b90506000611bc38284612b28565b611bcd9085612b3b565b9050611bdb868b6000612525565b50856001600160a01b03166340c10f19611bf3612516565b836040518363ffffffff1660e01b8152600401611c11929190612a9e565b600060405180830381600087803b158015611c2b57600080fd5b505af1158015611c3f573d6000803e3d6000fd5b505088516040516340c10f1960e01b81526001600160a01b038a1693506340c10f199250611c7291908790600401612a9e565b600060405180830381600087803b158015611c8c57600080fd5b505af1158015611ca0573d6000803e3d6000fd5b50506001546040516340c10f1960e01b81526001600160a01b03808b1694506340c10f199350611cdb92610100900416908690600401612a9e565b600060405180830381600087803b158015611cf557600080fd5b505af1158015611d09573d6000803e3d6000fd5b50929d9c50505050505050505050505050565b6000611d266124f2565b600554604051633c05789560e01b81526001600160a01b0384811660048301526000921690633c057895906024016040805180830381865afa158015611d70573d6000803e3d6000fd5b505050506040513d601f19601f82011682018060405250810190611d949190612a38565b905085856000611da3836110ae565b90506000611db0896110ae565b60055486516040516347203d5b60e01b81529293506000926001600160a01b03909216916347203d5b91611de8918d90600401612a9e565b602060405180830381865afa158015611e05573d6000803e3d6000fd5b505050506040513d601f19601f82011682018060405250810190611e299190612ab7565b600554604051630c040b4760e01b81529192506000916001600160a01b0390911690630c040b4790611e62906003908e90600401612ae6565b602060405180830381865afa158015611e7f573d6000803e3d6000fd5b505050506040513d601f19601f82011682018060405250810190611ea39190612ab7565b90506000611eb18284612b28565b611ebb908c612b3b565b90506000876001600160a01b03166370a08231611ed6612516565b6040516001600160e01b031960e084901b1681526001600160a01b039091166004820152602401602060405180830381865afa158015611f1a573d6000803e3d6000fd5b505050506040513d601f19601f82011682018060405250810190611f3e9190612ab7565b90506001600160a01b038e16611f905760405162461bcd60e51b815260206004820152601760248201527614dd18589b194c48191bd95cdd081b9bdd08195e1a5cdd604a1b604482015260640161079a565b6001600160a01b038d16611fe65760405162461bcd60e51b815260206004820152601760248201527f537461626c653220646f657374206e6f74206578697374000000000000000000604482015260640161079a565b60008c1161202d5760405162461bcd60e51b8152602060048201526014602482015273416d6f756e742063616e2774206265207a65726f60601b604482015260640161079a565b8b81101561204d5760405162461bcd60e51b815260040161079a90612b4e565b8b886001600160a01b031663dd62ed3e612065612516565b6040516001600160e01b031960e084901b1681526001600160a01b039091166004820152306024820152604401602060405180830381865afa1580156120af573d6000803e3d6000fd5b505050506040513d601f19601f820116820180604052508101906120d39190612ab7565b10156121185760405162461bcd60e51b8152602060048201526014602482015273082d8d8deeec2dcc6ca40dcdee840cadcdeeaced60631b604482015260640161079a565b60008660200151116121765760405162461bcd60e51b815260206004820152602160248201527f537461626c653120507269636520686173206e6f74206265656e20646566696e6044820152606560f81b606482015260840161079a565b60008560200151116121d45760405162461bcd60e51b815260206004820152602160248201527f537461626c653220507269636520686173206e6f74206265656e20646566696e6044820152606560f81b606482015260840161079a565b60008660200151600754846121e99190612b78565b6121f39190612b8f565b9050886001600160a01b03166379cc679061220c612516565b8f6040518363ffffffff1660e01b815260040161222a929190612a9e565b600060405180830381600087803b15801561224457600080fd5b505af1158015612258573d6000803e3d6000fd5b50508b516040516340c10f1960e01b81526001600160a01b038c1693506340c10f19925061228b91908990600401612a9e565b600060405180830381600087803b1580156122a557600080fd5b505af11580156122b9573d6000803e3d6000fd5b50506001546040516340c10f1960e01b81526001600160a01b03808d1694506340c10f1993506122f492610100900416908890600401612a9e565b600060405180830381600087803b15801561230e57600080fd5b505af1158015612322573d6000803e3d6000fd5b505050506123368760000151826001612525565b50600060075487602001518361234c9190612b78565b6123569190612b8f565b9050886001600160a01b03166340c10f1961236f612516565b836040518363ffffffff1660e01b815260040161238d929190612a9e565b600060405180830381600087803b1580156123a757600080fd5b505af11580156123bb573d6000803e3d6000fd5b505050506123cf8760000151836000612525565b50929f9e505050505050505050505050505050565b6000612400600080516020612cc383398151915261045b612516565b61241c5760405162461bcd60e51b815260040161079a90612bf2565b6001600160a01b0382166124725760405162461bcd60e51b815260206004820152601860248201527f6665654d616e616765722063616e2774206265206e756c6c0000000000000000604482015260640161079a565b50600580546001600160a01b0383166001600160a01b03199091161790556001919050565b6000828152602081905260409020600101546124b2816125f0565b6111318383612697565b6124d6600080516020612cc383398151915261045b612516565b6111705760405162461bcd60e51b815260040161079a90612bf2565b60015460ff16156113945760405163d93c066560e01b815260040160405180910390fd5b60006125206127b5565b905090565b60006001600160a01b03841661254d5760405162461bcd60e51b815260040161079a90612c29565b600082600181111561256157612561612ad0565b0361259c576001600160a01b03841660009081526006602052604081206002018054859290612591908490612b28565b909155506125e69050565b60008260018111156125b0576125b0612ad0565b036125e6576001600160a01b038416600090815260066020526040812060020180548592906125e0908490612b3b565b90915550505b5060009392505050565b612601816125fc612516565b6127f9565b50565b600061261083836114db565b61268f576000838152602081815260408083206001600160a01b03861684529091529020805460ff19166001179055612647612516565b6001600160a01b0316826001600160a01b0316847f2f8788117e7eff1d82e926ec794901d17c78024a50270940304540a733656f0d60405160405180910390a45060016105a9565b5060006105a9565b60006126a383836114db565b1561268f576000838152602081815260408083206001600160a01b03861684529091529020805460ff191690556126d8612516565b6001600160a01b0316826001600160a01b0316847ff6391f5c32d9c69d2a47ea670b442974b53935d1edc7fd64eb21e047a839171b60405160405180910390a45060016105a9565b612728612828565b6001805460ff191690557f5db9ee0a495bf2e6ff9c91a7834c1ba4fdd244a5e8aa4e537bd38aeae4b073aa61275b612516565b6040516001600160a01b03909116815260200160405180910390a1565b6127806124f2565b6001805460ff1916811790557f62e78cea01bee320cd4e420270b5ea74000d11b0c9f74754ebdbfc544b05a25861275b612516565b60007f00000000000000000000000000000000000000000000000000000000000000006001600160a01b031633036127f4575060131936013560601c90565b503390565b61280382826114db565b61282457808260405163e2517d3f60e01b815260040161079a929190612a9e565b5050565b60015460ff1661139457604051638dfc202b60e01b815260040160405180910390fd5b604051806080016040528060006001600160a01b0316815260200160008152602001600081526020016000151581525090565b60006020828403121561289057600080fd5b81356001600160e01b0319811681146128a857600080fd5b9392505050565b6001600160a01b038116811461260157600080fd5b6000806000606084860312156128d957600080fd5b83356128e4816128af565b92506020840135915060408401356128fb816128af565b809150509250925092565b60006020828403121561291857600080fd5b5035919050565b6000806000806080858703121561293557600080fd5b8435612940816128af565b93506020850135612950816128af565b9250604085013591506060850135612967816128af565b939692955090935050565b60006020828403121561298457600080fd5b81356128a8816128af565b600080604083850312156129a257600080fd5b8235915060208301356129b4816128af565b809150509250929050565b801515811461260157600080fd5b600080600080608085870312156129e357600080fd5b84356129ee816128af565b935060208501359250604085013591506060850135612967816129bf565b60008060408385031215612a1f57600080fd5b8235612a2a816128af565b946020939093013593505050565b600060408284031215612a4a57600080fd5b6040516040810181811067ffffffffffffffff82111715612a7b57634e487b7160e01b600052604160045260246000fd5b6040528251612a89816128af565b81526020928301519281019290925250919050565b6001600160a01b03929092168252602082015260400190565b600060208284031215612ac957600080fd5b5051919050565b634e487b7160e01b600052602160045260246000fd5b6040810160068410612b0857634e487b7160e01b600052602160045260246000fd5b9281526020015290565b634e487b7160e01b600052601160045260246000fd5b808201808211156105a9576105a9612b12565b818103818111156105a9576105a9612b12565b60208082526010908201526f0a8ded6cadc40dcdee840cadcdeeaced60831b604082015260600190565b80820281158282048414176105a9576105a9612b12565b600082612bac57634e487b7160e01b600052601260045260246000fd5b500490565b600060208284031215612bc357600080fd5b81516128a8816129bf565b6001600160a01b039384168152919092166020820152604081019190915260600190565b60208082526019908201527f4d75737420686176652041444d494e5f524f4c4520726f6c6500000000000000604082015260600190565b6020808252602b908201527f537461626c654d616e616765723a20746f6b656e20616464726573732063616e60408201526a6e6f74206265207a65726f60a81b606082015260800190565b6020808252602e908201527f537461626c654d616e616765723a207072696365206d7573742062652067726560408201526d61746572207468616e207a65726f60901b60608201526080019056fea49807205ce4d355092ef5a8a18f56e8913cf4a201fbe287825b095693c21775a26469706673582212200c7685a741d21f9456cc6383285c582a74964f0497d3e8dc887ef598b412da1b64736f6c63430008140033","opcodes":"PUSH1 0xA0 PUSH1 0x40 MSTORE PUSH3 0xF4240 PUSH1 0x7 SSTORE PUSH1 0x64 PUSH1 0x8 SSTORE PUSH2 0x2710 PUSH1 0x9 SSTORE CALLVALUE DUP1 ISZERO PUSH3 0x23 JUMPI PUSH1 0x0 DUP1 REVERT JUMPDEST POP PUSH1 0x40 MLOAD PUSH3 0x2F63 CODESIZE SUB DUP1 PUSH3 0x2F63 DUP4 CODECOPY DUP2 ADD PUSH1 0x40 DUP2 SWAP1 MSTORE PUSH3 0x46 SWAP2 PUSH3 0x1F6 JUMP JUMPDEST PUSH1 0x1 PUSH1 0x1 PUSH1 0xA0 SHL SUB DUP2 AND PUSH1 0x80 MSTORE PUSH1 0x1 DUP1 SLOAD PUSH1 0xFF NOT AND SWAP1 SSTORE PUSH3 0x67 PUSH3 0x10C JUMP JUMPDEST PUSH1 0x1 DUP1 SLOAD PUSH1 0x1 PUSH1 0x1 PUSH1 0xA0 SHL SUB SWAP3 SWAP1 SWAP3 AND PUSH2 0x100 MUL PUSH2 0x100 PUSH1 0x1 PUSH1 0xA8 SHL SUB NOT SWAP1 SWAP3 AND SWAP2 SWAP1 SWAP2 OR SWAP1 SSTORE PUSH3 0xA4 PUSH1 0x0 PUSH3 0x9E PUSH3 0x10C JUMP JUMPDEST PUSH3 0x11D JUMP JUMPDEST POP PUSH3 0xD4 PUSH32 0xA49807205CE4D355092EF5A8A18F56E8913CF4A201FBE287825B095693C21775 PUSH3 0x9E PUSH3 0x10C JUMP JUMPDEST POP PUSH3 0x104 PUSH32 0x241ECF16D79D0F8DBFB92CBC07FE17840425976CF0667F022FE9877CAA831B08 PUSH3 0x9E PUSH3 0x10C JUMP JUMPDEST POP POP PUSH3 0x228 JUMP JUMPDEST PUSH1 0x0 PUSH3 0x118 PUSH3 0x1CE JUMP JUMPDEST SWAP1 POP SWAP1 JUMP JUMPDEST PUSH1 0x0 DUP3 DUP2 MSTORE PUSH1 0x20 DUP2 DUP2 MSTORE PUSH1 0x40 DUP1 DUP4 KECCAK256 PUSH1 0x1 PUSH1 0x1 PUSH1 0xA0 SHL SUB DUP6 AND DUP5 MSTORE SWAP1 SWAP2 MSTORE DUP2 KECCAK256 SLOAD PUSH1 0xFF AND PUSH3 0x1C4 JUMPI PUSH1 0x0 DUP4 DUP2 MSTORE PUSH1 0x20 DUP2 DUP2 MSTORE PUSH1 0x40 DUP1 DUP4 KECCAK256 PUSH1 0x1 PUSH1 0x1 PUSH1 0xA0 SHL SUB DUP7 AND DUP5 MSTORE SWAP1 SWAP2 MSTORE SWAP1 KECCAK256 DUP1 SLOAD PUSH1 0xFF NOT AND PUSH1 0x1 OR SWAP1 SSTORE PUSH3 0x17B PUSH3 0x10C JUMP JUMPDEST PUSH1 0x1 PUSH1 0x1 PUSH1 0xA0 SHL SUB AND DUP3 PUSH1 0x1 PUSH1 0x1 PUSH1 0xA0 SHL SUB AND DUP5 PUSH32 0x2F8788117E7EFF1D82E926EC794901D17C78024A50270940304540A733656F0D PUSH1 0x40 MLOAD PUSH1 0x40 MLOAD DUP1 SWAP2 SUB SWAP1 LOG4 POP PUSH1 0x1 PUSH3 0x1C8 JUMP JUMPDEST POP PUSH1 0x0 JUMPDEST SWAP3 SWAP2 POP POP JUMP JUMPDEST PUSH1 0x80 MLOAD PUSH1 0x0 SWAP1 PUSH1 0x1 PUSH1 0x1 PUSH1 0xA0 SHL SUB AND CALLER SUB PUSH3 0x1F1 JUMPI POP PUSH1 0x13 NOT CALLDATASIZE ADD CALLDATALOAD PUSH1 0x60 SHR SWAP1 JUMP JUMPDEST POP CALLER SWAP1 JUMP JUMPDEST PUSH1 0x0 PUSH1 0x20 DUP3 DUP5 SUB SLT ISZERO PUSH3 0x209 JUMPI PUSH1 0x0 DUP1 REVERT JUMPDEST DUP2 MLOAD PUSH1 0x1 PUSH1 0x1 PUSH1 0xA0 SHL SUB DUP2 AND DUP2 EQ PUSH3 0x221 JUMPI PUSH1 0x0 DUP1 REVERT JUMPDEST SWAP4 SWAP3 POP POP POP JUMP JUMPDEST PUSH1 0x80 MLOAD PUSH2 0x2D18 PUSH3 0x24B PUSH1 0x0 CODECOPY PUSH1 0x0 DUP2 DUP2 PUSH2 0x3B7 ADD MSTORE PUSH2 0x27B9 ADD MSTORE PUSH2 0x2D18 PUSH1 0x0 RETURN INVALID PUSH1 0x80 PUSH1 0x40 MSTORE CALLVALUE DUP1 ISZERO PUSH2 0x10 JUMPI PUSH1 0x0 DUP1 REVERT JUMPDEST POP PUSH1 0x4 CALLDATASIZE LT PUSH2 0x1FB JUMPI PUSH1 0x0 CALLDATALOAD PUSH1 0xE0 SHR DUP1 PUSH4 0x8456CB59 GT PUSH2 0x11A JUMPI DUP1 PUSH4 0xA7ED89D1 GT PUSH2 0xAD JUMPI DUP1 PUSH4 0xD0FB0203 GT PUSH2 0x7C JUMPI DUP1 PUSH4 0xD0FB0203 EQ PUSH2 0x505 JUMPI DUP1 PUSH4 0xD547741F EQ PUSH2 0x518 JUMPI DUP1 PUSH4 0xDAD0CF9C EQ PUSH2 0x52B JUMPI DUP1 PUSH4 0xE2520BD0 EQ PUSH2 0x53E JUMPI DUP1 PUSH4 0xEC87621C EQ PUSH2 0x551 JUMPI PUSH1 0x0 DUP1 REVERT JUMPDEST DUP1 PUSH4 0xA7ED89D1 EQ PUSH2 0x4B4 JUMPI DUP1 PUSH4 0xBFB8058C EQ PUSH2 0x4C7 JUMPI DUP1 PUSH4 0xBFC810B6 EQ PUSH2 0x4DA JUMPI DUP1 PUSH4 0xC415B95C EQ PUSH2 0x4ED JUMPI PUSH1 0x0 DUP1 REVERT JUMPDEST DUP1 PUSH4 0x9245290D GT PUSH2 0xE9 JUMPI DUP1 PUSH4 0x9245290D EQ PUSH2 0x473 JUMPI DUP1 PUSH4 0x94D188E0 EQ PUSH2 0x486 JUMPI DUP1 PUSH4 0xA217FDDF EQ PUSH2 0x499 JUMPI DUP1 PUSH4 0xA59A9973 EQ PUSH2 0x4A1 JUMPI PUSH1 0x0 DUP1 REVERT JUMPDEST DUP1 PUSH4 0x8456CB59 EQ PUSH2 0x41A JUMPI DUP1 PUSH4 0x86C59418 EQ PUSH2 0x422 JUMPI DUP1 PUSH4 0x91D14854 EQ PUSH2 0x44D JUMPI DUP1 PUSH4 0x91F0462C EQ PUSH2 0x460 JUMPI PUSH1 0x0 DUP1 REVERT JUMPDEST DUP1 PUSH4 0x3B33B2D5 GT PUSH2 0x192 JUMPI DUP1 PUSH4 0x572B6C05 GT PUSH2 0x161 JUMPI DUP1 PUSH4 0x572B6C05 EQ PUSH2 0x3A7 JUMPI DUP1 PUSH4 0x5C975ABB EQ PUSH2 0x3E7 JUMPI DUP1 PUSH4 0x75B238FC EQ PUSH2 0x3F2 JUMPI DUP1 PUSH4 0x7AB86F74 EQ PUSH2 0x407 JUMPI PUSH1 0x0 DUP1 REVERT JUMPDEST DUP1 PUSH4 0x3B33B2D5 EQ PUSH2 0x30B JUMPI DUP1 PUSH4 0x3F4BA83A EQ PUSH2 0x31E JUMPI DUP1 PUSH4 0x46A0300C EQ PUSH2 0x326 JUMPI DUP1 PUSH4 0x4743A510 EQ PUSH2 0x339 JUMPI PUSH1 0x0 DUP1 REVERT JUMPDEST DUP1 PUSH4 0x2D0A9EAA GT PUSH2 0x1CE JUMPI DUP1 PUSH4 0x2D0A9EAA EQ PUSH2 0x27F JUMPI DUP1 PUSH4 0x2E6A3E35 EQ PUSH2 0x292 JUMPI DUP1 PUSH4 0x2F2FF15D EQ PUSH2 0x2E3 JUMPI DUP1 PUSH4 0x36568ABE EQ PUSH2 0x2F8 JUMPI PUSH1 0x0 DUP1 REVERT JUMPDEST DUP1 PUSH4 0x1FFC9A7 EQ PUSH2 0x200 JUMPI DUP1 PUSH4 0x167F4DEB EQ PUSH2 0x228 JUMPI DUP1 PUSH4 0x248A9CA3 EQ PUSH2 0x249 JUMPI DUP1 PUSH4 0x29CA20CA EQ PUSH2 0x26C JUMPI JUMPDEST PUSH1 0x0 DUP1 REVERT JUMPDEST PUSH2 0x213 PUSH2 0x20E CALLDATASIZE PUSH1 0x4 PUSH2 0x287E JUMP JUMPDEST PUSH2 0x578 JUMP JUMPDEST PUSH1 0x40 MLOAD SWAP1 ISZERO ISZERO DUP2 MSTORE PUSH1 0x20 ADD JUMPDEST PUSH1 0x40 MLOAD DUP1 SWAP2 SUB SWAP1 RETURN JUMPDEST PUSH2 0x23B PUSH2 0x236 CALLDATASIZE PUSH1 0x4 PUSH2 0x28C4 JUMP JUMPDEST PUSH2 0x5AF JUMP JUMPDEST PUSH1 0x40 MLOAD SWAP1 DUP2 MSTORE PUSH1 0x20 ADD PUSH2 0x21F JUMP JUMPDEST PUSH2 0x23B PUSH2 0x257 CALLDATASIZE PUSH1 0x4 PUSH2 0x2906 JUMP JUMPDEST PUSH1 0x0 SWAP1 DUP2 MSTORE PUSH1 0x20 DUP2 SWAP1 MSTORE PUSH1 0x40 SWAP1 KECCAK256 PUSH1 0x1 ADD SLOAD SWAP1 JUMP JUMPDEST PUSH2 0x23B PUSH2 0x27A CALLDATASIZE PUSH1 0x4 PUSH2 0x291F JUMP JUMPDEST PUSH2 0xB49 JUMP JUMPDEST PUSH2 0x213 PUSH2 0x28D CALLDATASIZE PUSH1 0x4 PUSH2 0x2972 JUMP JUMPDEST PUSH2 0x1001 JUMP JUMPDEST PUSH2 0x2A5 PUSH2 0x2A0 CALLDATASIZE PUSH1 0x4 PUSH2 0x2972 JUMP JUMPDEST PUSH2 0x10AE JUMP JUMPDEST PUSH1 0x40 MLOAD PUSH2 0x21F SWAP2 SWAP1 DUP2 MLOAD PUSH1 0x1 PUSH1 0x1 PUSH1 0xA0 SHL SUB AND DUP2 MSTORE PUSH1 0x20 DUP1 DUP4 ADD MLOAD SWAP1 DUP3 ADD MSTORE PUSH1 0x40 DUP1 DUP4 ADD MLOAD SWAP1 DUP3 ADD MSTORE PUSH1 0x60 SWAP2 DUP3 ADD MLOAD ISZERO ISZERO SWAP2 DUP2 ADD SWAP2 SWAP1 SWAP2 MSTORE PUSH1 0x80 ADD SWAP1 JUMP JUMPDEST PUSH2 0x2F6 PUSH2 0x2F1 CALLDATASIZE PUSH1 0x4 PUSH2 0x298F JUMP JUMPDEST PUSH2 0x110C JUMP JUMPDEST STOP JUMPDEST PUSH2 0x2F6 PUSH2 0x306 CALLDATASIZE PUSH1 0x4 PUSH2 0x298F JUMP JUMPDEST PUSH2 0x1137 JUMP JUMPDEST PUSH2 0x2A5 PUSH2 0x319 CALLDATASIZE PUSH1 0x4 PUSH2 0x29CD JUMP JUMPDEST PUSH2 0x117F JUMP JUMPDEST PUSH2 0x2F6 PUSH2 0x1356 JUMP JUMPDEST PUSH2 0x2F6 PUSH2 0x334 CALLDATASIZE PUSH1 0x4 PUSH2 0x298F JUMP JUMPDEST PUSH2 0x1396 JUMP JUMPDEST PUSH2 0x37B PUSH2 0x347 CALLDATASIZE PUSH1 0x4 PUSH2 0x2972 JUMP JUMPDEST PUSH1 0x6 PUSH1 0x20 MSTORE PUSH1 0x0 SWAP1 DUP2 MSTORE PUSH1 0x40 SWAP1 KECCAK256 DUP1 SLOAD PUSH1 0x1 DUP3 ADD SLOAD PUSH1 0x2 DUP4 ADD SLOAD PUSH1 0x3 SWAP1 SWAP4 ADD SLOAD PUSH1 0x1 PUSH1 0x1 PUSH1 0xA0 SHL SUB SWAP1 SWAP3 AND SWAP3 SWAP1 SWAP2 PUSH1 0xFF AND DUP5 JUMP JUMPDEST PUSH1 0x40 DUP1 MLOAD PUSH1 0x1 PUSH1 0x1 PUSH1 0xA0 SHL SUB SWAP1 SWAP6 AND DUP6 MSTORE PUSH1 0x20 DUP6 ADD SWAP4 SWAP1 SWAP4 MSTORE SWAP2 DUP4 ADD MSTORE ISZERO ISZERO PUSH1 0x60 DUP3 ADD MSTORE PUSH1 0x80 ADD PUSH2 0x21F JUMP JUMPDEST PUSH2 0x213 PUSH2 0x3B5 CALLDATASIZE PUSH1 0x4 PUSH2 0x2972 JUMP JUMPDEST PUSH32 0x0 PUSH1 0x1 PUSH1 0x1 PUSH1 0xA0 SHL SUB SWAP1 DUP2 AND SWAP2 AND EQ SWAP1 JUMP JUMPDEST PUSH1 0x1 SLOAD PUSH1 0xFF AND PUSH2 0x213 JUMP JUMPDEST PUSH2 0x23B PUSH1 0x0 DUP1 MLOAD PUSH1 0x20 PUSH2 0x2CC3 DUP4 CODECOPY DUP2 MLOAD SWAP2 MSTORE DUP2 JUMP JUMPDEST PUSH2 0x2A5 PUSH2 0x415 CALLDATASIZE PUSH1 0x4 PUSH2 0x2972 JUMP JUMPDEST PUSH2 0x13D6 JUMP JUMPDEST PUSH2 0x2F6 PUSH2 0x149D JUMP JUMPDEST PUSH1 0x3 SLOAD PUSH2 0x435 SWAP1 PUSH1 0x1 PUSH1 0x1 PUSH1 0xA0 SHL SUB AND DUP2 JUMP JUMPDEST PUSH1 0x40 MLOAD PUSH1 0x1 PUSH1 0x1 PUSH1 0xA0 SHL SUB SWAP1 SWAP2 AND DUP2 MSTORE PUSH1 0x20 ADD PUSH2 0x21F JUMP JUMPDEST PUSH2 0x213 PUSH2 0x45B CALLDATASIZE PUSH1 0x4 PUSH2 0x298F JUMP JUMPDEST PUSH2 0x14DB JUMP JUMPDEST PUSH2 0x2A5 PUSH2 0x46E CALLDATASIZE PUSH1 0x4 PUSH2 0x29CD JUMP JUMPDEST PUSH2 0x1504 JUMP JUMPDEST PUSH2 0x213 PUSH2 0x481 CALLDATASIZE PUSH1 0x4 PUSH2 0x2972 JUMP JUMPDEST PUSH2 0x162A JUMP JUMPDEST PUSH2 0x213 PUSH2 0x494 CALLDATASIZE PUSH1 0x4 PUSH2 0x2A0C JUMP JUMPDEST PUSH2 0x16E0 JUMP JUMPDEST PUSH2 0x23B PUSH1 0x0 DUP2 JUMP JUMPDEST PUSH1 0x2 SLOAD PUSH2 0x435 SWAP1 PUSH1 0x1 PUSH1 0x1 PUSH1 0xA0 SHL SUB AND DUP2 JUMP JUMPDEST PUSH2 0x23B PUSH2 0x4C2 CALLDATASIZE PUSH1 0x4 PUSH2 0x28C4 JUMP JUMPDEST PUSH2 0x175D JUMP JUMPDEST PUSH2 0x23B PUSH2 0x4D5 CALLDATASIZE PUSH1 0x4 PUSH2 0x291F JUMP JUMPDEST PUSH2 0x1D1C JUMP JUMPDEST PUSH2 0x213 PUSH2 0x4E8 CALLDATASIZE PUSH1 0x4 PUSH2 0x2972 JUMP JUMPDEST PUSH2 0x23E4 JUMP JUMPDEST PUSH1 0x1 SLOAD PUSH2 0x435 SWAP1 PUSH2 0x100 SWAP1 DIV PUSH1 0x1 PUSH1 0x1 PUSH1 0xA0 SHL SUB AND DUP2 JUMP JUMPDEST PUSH1 0x5 SLOAD PUSH2 0x435 SWAP1 PUSH1 0x1 PUSH1 0x1 PUSH1 0xA0 SHL SUB AND DUP2 JUMP JUMPDEST PUSH2 0x2F6 PUSH2 0x526 CALLDATASIZE PUSH1 0x4 PUSH2 0x298F JUMP JUMPDEST PUSH2 0x2497 JUMP JUMPDEST PUSH1 0x4 SLOAD PUSH2 0x435 SWAP1 PUSH1 0x1 PUSH1 0x1 PUSH1 0xA0 SHL SUB AND DUP2 JUMP JUMPDEST PUSH2 0x2F6 PUSH2 0x54C CALLDATASIZE PUSH1 0x4 PUSH2 0x298F JUMP JUMPDEST PUSH2 0x24BC JUMP JUMPDEST PUSH2 0x23B PUSH32 0x241ECF16D79D0F8DBFB92CBC07FE17840425976CF0667F022FE9877CAA831B08 DUP2 JUMP JUMPDEST PUSH1 0x0 PUSH1 0x1 PUSH1 0x1 PUSH1 0xE0 SHL SUB NOT DUP3 AND PUSH4 0x7965DB0B PUSH1 0xE0 SHL EQ DUP1 PUSH2 0x5A9 JUMPI POP PUSH4 0x1FFC9A7 PUSH1 0xE0 SHL PUSH1 0x1 PUSH1 0x1 PUSH1 0xE0 SHL SUB NOT DUP4 AND EQ JUMPDEST SWAP3 SWAP2 POP POP JUMP JUMPDEST PUSH1 0x0 PUSH2 0x5B9 PUSH2 0x24F2 JUMP JUMPDEST PUSH1 0x5 SLOAD PUSH1 0x40 MLOAD PUSH4 0x3C057895 PUSH1 0xE0 SHL DUP2 MSTORE PUSH1 0x1 PUSH1 0x1 PUSH1 0xA0 SHL SUB DUP5 DUP2 AND PUSH1 0x4 DUP4 ADD MSTORE PUSH1 0x0 SWAP3 AND SWAP1 PUSH4 0x3C057895 SWAP1 PUSH1 0x24 ADD PUSH1 0x40 DUP1 MLOAD DUP1 DUP4 SUB DUP2 DUP7 GAS STATICCALL ISZERO DUP1 ISZERO PUSH2 0x603 JUMPI RETURNDATASIZE PUSH1 0x0 DUP1 RETURNDATACOPY RETURNDATASIZE PUSH1 0x0 REVERT JUMPDEST POP POP POP POP PUSH1 0x40 MLOAD RETURNDATASIZE PUSH1 0x1F NOT PUSH1 0x1F DUP3 ADD AND DUP3 ADD DUP1 PUSH1 0x40 MSTORE POP DUP2 ADD SWAP1 PUSH2 0x627 SWAP2 SWAP1 PUSH2 0x2A38 JUMP JUMPDEST SWAP1 POP DUP5 PUSH1 0x0 PUSH2 0x635 DUP3 PUSH2 0x10AE JUMP JUMPDEST PUSH1 0x5 SLOAD DUP5 MLOAD PUSH1 0x40 MLOAD PUSH4 0x47203D5B PUSH1 0xE0 SHL DUP2 MSTORE SWAP3 SWAP4 POP PUSH1 0x0 SWAP3 PUSH1 0x1 PUSH1 0x1 PUSH1 0xA0 SHL SUB SWAP1 SWAP3 AND SWAP2 PUSH4 0x47203D5B SWAP2 PUSH2 0x66D SWAP2 DUP12 SWAP1 PUSH1 0x4 ADD PUSH2 0x2A9E JUMP JUMPDEST PUSH1 0x20 PUSH1 0x40 MLOAD DUP1 DUP4 SUB DUP2 DUP7 GAS STATICCALL ISZERO DUP1 ISZERO PUSH2 0x68A JUMPI RETURNDATASIZE PUSH1 0x0 DUP1 RETURNDATACOPY RETURNDATASIZE PUSH1 0x0 REVERT JUMPDEST POP POP POP POP PUSH1 0x40 MLOAD RETURNDATASIZE PUSH1 0x1F NOT PUSH1 0x1F DUP3 ADD AND DUP3 ADD DUP1 PUSH1 0x40 MSTORE POP DUP2 ADD SWAP1 PUSH2 0x6AE SWAP2 SWAP1 PUSH2 0x2AB7 JUMP JUMPDEST PUSH1 0x5 SLOAD PUSH1 0x40 MLOAD PUSH4 0xC040B47 PUSH1 0xE0 SHL DUP2 MSTORE SWAP2 SWAP3 POP PUSH1 0x0 SWAP2 PUSH1 0x1 PUSH1 0x1 PUSH1 0xA0 SHL SUB SWAP1 SWAP2 AND SWAP1 PUSH4 0xC040B47 SWAP1 PUSH2 0x6E7 SWAP1 PUSH1 0x1 SWAP1 DUP13 SWAP1 PUSH1 0x4 ADD PUSH2 0x2AE6 JUMP JUMPDEST PUSH1 0x20 PUSH1 0x40 MLOAD DUP1 DUP4 SUB DUP2 DUP7 GAS STATICCALL ISZERO DUP1 ISZERO PUSH2 0x704 JUMPI RETURNDATASIZE PUSH1 0x0 DUP1 RETURNDATACOPY RETURNDATASIZE PUSH1 0x0 REVERT JUMPDEST POP POP POP POP PUSH1 0x40 MLOAD RETURNDATASIZE PUSH1 0x1F NOT PUSH1 0x1F DUP3 ADD AND DUP3 ADD DUP1 PUSH1 0x40 MSTORE POP DUP2 ADD SWAP1 PUSH2 0x728 SWAP2 SWAP1 PUSH2 0x2AB7 JUMP JUMPDEST SWAP1 POP PUSH1 0x0 PUSH2 0x736 DUP3 DUP5 PUSH2 0x2B28 JUMP JUMPDEST PUSH2 0x740 SWAP1 DUP11 PUSH2 0x2B3B JUMP JUMPDEST SWAP1 POP PUSH1 0x0 DUP10 GT PUSH2 0x7A3 JUMPI PUSH1 0x40 MLOAD PUSH3 0x461BCD PUSH1 0xE5 SHL DUP2 MSTORE PUSH1 0x20 PUSH1 0x4 DUP3 ADD MSTORE PUSH1 0x23 PUSH1 0x24 DUP3 ADD MSTORE PUSH32 0x416D6F756E74206E65656420746F2062652067726561746572207468616E207A PUSH1 0x44 DUP3 ADD MSTORE PUSH3 0x65726F PUSH1 0xE8 SHL PUSH1 0x64 DUP3 ADD MSTORE PUSH1 0x84 ADD JUMPDEST PUSH1 0x40 MLOAD DUP1 SWAP2 SUB SWAP1 REVERT JUMPDEST DUP9 DUP6 PUSH1 0x1 PUSH1 0x1 PUSH1 0xA0 SHL SUB AND PUSH4 0x70A08231 PUSH2 0x7BB PUSH2 0x2516 JUMP JUMPDEST PUSH1 0x40 MLOAD PUSH1 0x1 PUSH1 0x1 PUSH1 0xE0 SHL SUB NOT PUSH1 0xE0 DUP5 SWAP1 SHL AND DUP2 MSTORE PUSH1 0x1 PUSH1 0x1 PUSH1 0xA0 SHL SUB SWAP1 SWAP2 AND PUSH1 0x4 DUP3 ADD MSTORE PUSH1 0x24 ADD PUSH1 0x20 PUSH1 0x40 MLOAD DUP1 DUP4 SUB DUP2 DUP7 GAS STATICCALL ISZERO DUP1 ISZERO PUSH2 0x7FF JUMPI RETURNDATASIZE PUSH1 0x0 DUP1 RETURNDATACOPY RETURNDATASIZE PUSH1 0x0 REVERT JUMPDEST POP POP POP POP PUSH1 0x40 MLOAD RETURNDATASIZE PUSH1 0x1F NOT PUSH1 0x1F DUP3 ADD AND DUP3 ADD DUP1 PUSH1 0x40 MSTORE POP DUP2 ADD SWAP1 PUSH2 0x823 SWAP2 SWAP1 PUSH2 0x2AB7 JUMP JUMPDEST LT ISZERO PUSH2 0x841 JUMPI PUSH1 0x40 MLOAD PUSH3 0x461BCD PUSH1 0xE5 SHL DUP2 MSTORE PUSH1 0x4 ADD PUSH2 0x79A SWAP1 PUSH2 0x2B4E JUMP JUMPDEST DUP9 DUP6 PUSH1 0x1 PUSH1 0x1 PUSH1 0xA0 SHL SUB AND PUSH4 0xDD62ED3E PUSH2 0x859 PUSH2 0x2516 JUMP JUMPDEST PUSH1 0x40 MLOAD PUSH1 0x1 PUSH1 0x1 PUSH1 0xE0 SHL SUB NOT PUSH1 0xE0 DUP5 SWAP1 SHL AND DUP2 MSTORE PUSH1 0x1 PUSH1 0x1 PUSH1 0xA0 SHL SUB SWAP1 SWAP2 AND PUSH1 0x4 DUP3 ADD MSTORE ADDRESS PUSH1 0x24 DUP3 ADD MSTORE PUSH1 0x44 ADD PUSH1 0x20 PUSH1 0x40 MLOAD DUP1 DUP4 SUB DUP2 DUP7 GAS STATICCALL ISZERO DUP1 ISZERO PUSH2 0x8A3 JUMPI RETURNDATASIZE PUSH1 0x0 DUP1 RETURNDATACOPY RETURNDATASIZE PUSH1 0x0 REVERT JUMPDEST POP POP POP POP PUSH1 0x40 MLOAD RETURNDATASIZE PUSH1 0x1F NOT PUSH1 0x1F DUP3 ADD AND DUP3 ADD DUP1 PUSH1 0x40 MSTORE POP DUP2 ADD SWAP1 PUSH2 0x8C7 SWAP2 SWAP1 PUSH2 0x2AB7 JUMP JUMPDEST LT ISZERO PUSH2 0x90C JUMPI PUSH1 0x40 MLOAD PUSH3 0x461BCD PUSH1 0xE5 SHL DUP2 MSTORE PUSH1 0x20 PUSH1 0x4 DUP3 ADD MSTORE PUSH1 0x14 PUSH1 0x24 DUP3 ADD MSTORE PUSH20 0x82D8D8DEEEC2DCC6CA40DCDEE840CADCDEEACED PUSH1 0x63 SHL PUSH1 0x44 DUP3 ADD MSTORE PUSH1 0x64 ADD PUSH2 0x79A JUMP JUMPDEST PUSH1 0x0 DUP5 PUSH1 0x20 ADD MLOAD GT PUSH2 0x960 JUMPI PUSH1 0x40 MLOAD PUSH3 0x461BCD PUSH1 0xE5 SHL DUP2 MSTORE PUSH1 0x20 PUSH1 0x4 DUP3 ADD MSTORE PUSH1 0x19 PUSH1 0x24 DUP3 ADD MSTORE PUSH32 0x507269636520686173206E6F74206265656E20646566696E6500000000000000 PUSH1 0x44 DUP3 ADD MSTORE PUSH1 0x64 ADD PUSH2 0x79A JUMP JUMPDEST PUSH1 0x0 DUP5 PUSH1 0x20 ADD MLOAD PUSH1 0x7 SLOAD DUP4 PUSH2 0x975 SWAP2 SWAP1 PUSH2 0x2B78 JUMP JUMPDEST PUSH2 0x97F SWAP2 SWAP1 PUSH2 0x2B8F JUMP JUMPDEST SWAP1 POP DUP6 PUSH1 0x1 PUSH1 0x1 PUSH1 0xA0 SHL SUB AND PUSH4 0x79CC6790 PUSH2 0x998 PUSH2 0x2516 JUMP JUMPDEST DUP13 PUSH1 0x40 MLOAD DUP4 PUSH4 0xFFFFFFFF AND PUSH1 0xE0 SHL DUP2 MSTORE PUSH1 0x4 ADD PUSH2 0x9B6 SWAP3 SWAP2 SWAP1 PUSH2 0x2A9E JUMP JUMPDEST PUSH1 0x0 PUSH1 0x40 MLOAD DUP1 DUP4 SUB DUP2 PUSH1 0x0 DUP8 DUP1 EXTCODESIZE ISZERO DUP1 ISZERO PUSH2 0x9D0 JUMPI PUSH1 0x0 DUP1 REVERT JUMPDEST POP GAS CALL ISZERO DUP1 ISZERO PUSH2 0x9E4 JUMPI RETURNDATASIZE PUSH1 0x0 DUP1 RETURNDATACOPY RETURNDATASIZE PUSH1 0x0 REVERT JUMPDEST POP POP POP POP PUSH2 0x9F4 DUP7 DUP3 PUSH1 0x1 PUSH2 0x2525 JUMP JUMPDEST POP PUSH1 0x3 SLOAD PUSH1 0x1 PUSH1 0x1 PUSH1 0xA0 SHL SUB AND PUSH4 0xA9059CBB PUSH2 0xA0E PUSH2 0x2516 JUMP JUMPDEST DUP4 PUSH1 0x40 MLOAD DUP4 PUSH4 0xFFFFFFFF AND PUSH1 0xE0 SHL DUP2 MSTORE PUSH1 0x4 ADD PUSH2 0xA2C SWAP3 SWAP2 SWAP1 PUSH2 0x2A9E JUMP JUMPDEST PUSH1 0x20 PUSH1 0x40 MLOAD DUP1 DUP4 SUB DUP2 PUSH1 0x0 DUP8 GAS CALL ISZERO DUP1 ISZERO PUSH2 0xA4B JUMPI RETURNDATASIZE PUSH1 0x0 DUP1 RETURNDATACOPY RETURNDATASIZE PUSH1 0x0 REVERT JUMPDEST POP POP POP POP PUSH1 0x40 MLOAD RETURNDATASIZE PUSH1 0x1F NOT PUSH1 0x1F DUP3 ADD AND DUP3 ADD DUP1 PUSH1 0x40 MSTORE POP DUP2 ADD SWAP1 PUSH2 0xA6F SWAP2 SWAP1 PUSH2 0x2BB1 JUMP JUMPDEST POP DUP7 MLOAD PUSH1 0x40 MLOAD PUSH4 0x40C10F19 PUSH1 0xE0 SHL DUP2 MSTORE PUSH1 0x1 PUSH1 0x1 PUSH1 0xA0 SHL SUB DUP9 AND SWAP2 PUSH4 0x40C10F19 SWAP2 PUSH2 0xA9F SWAP2 SWAP1 DUP9 SWAP1 PUSH1 0x4 ADD PUSH2 0x2A9E JUMP JUMPDEST PUSH1 0x0 PUSH1 0x40 MLOAD DUP1 DUP4 SUB DUP2 PUSH1 0x0 DUP8 DUP1 EXTCODESIZE ISZERO DUP1 ISZERO PUSH2 0xAB9 JUMPI PUSH1 0x0 DUP1 REVERT JUMPDEST POP GAS CALL ISZERO DUP1 ISZERO PUSH2 0xACD JUMPI RETURNDATASIZE PUSH1 0x0 DUP1 RETURNDATACOPY RETURNDATASIZE PUSH1 0x0 REVERT JUMPDEST POP POP PUSH1 0x1 SLOAD PUSH1 0x40 MLOAD PUSH4 0x40C10F19 PUSH1 0xE0 SHL DUP2 MSTORE PUSH1 0x1 PUSH1 0x1 PUSH1 0xA0 SHL SUB DUP1 DUP12 AND SWAP5 POP PUSH4 0x40C10F19 SWAP4 POP PUSH2 0xB08 SWAP3 PUSH2 0x100 SWAP1 DIV AND SWAP1 DUP8 SWAP1 PUSH1 0x4 ADD PUSH2 0x2A9E JUMP JUMPDEST PUSH1 0x0 PUSH1 0x40 MLOAD DUP1 DUP4 SUB DUP2 PUSH1 0x0 DUP8 DUP1 EXTCODESIZE ISZERO DUP1 ISZERO PUSH2 0xB22 JUMPI PUSH1 0x0 DUP1 REVERT JUMPDEST POP GAS CALL ISZERO DUP1 ISZERO PUSH2 0xB36 JUMPI RETURNDATASIZE PUSH1 0x0 DUP1 RETURNDATACOPY RETURNDATASIZE PUSH1 0x0 REVERT JUMPDEST POP SWAP4 SWAP14 SWAP13 POP POP POP POP POP POP POP POP POP POP POP POP POP JUMP JUMPDEST PUSH1 0x0 PUSH2 0xB53 PUSH2 0x24F2 JUMP JUMPDEST PUSH1 0x5 SLOAD PUSH1 0x40 MLOAD PUSH4 0x3C057895 PUSH1 0xE0 SHL DUP2 MSTORE PUSH1 0x1 PUSH1 0x1 PUSH1 0xA0 SHL SUB DUP5 DUP2 AND PUSH1 0x4 DUP4 ADD MSTORE PUSH1 0x0 SWAP3 AND SWAP1 PUSH4 0x3C057895 SWAP1 PUSH1 0x24 ADD PUSH1 0x40 DUP1 MLOAD DUP1 DUP4 SUB DUP2 DUP7 GAS STATICCALL ISZERO DUP1 ISZERO PUSH2 0xB9D JUMPI RETURNDATASIZE PUSH1 0x0 DUP1 RETURNDATACOPY RETURNDATASIZE PUSH1 0x0 REVERT JUMPDEST POP POP POP POP PUSH1 0x40 MLOAD RETURNDATASIZE PUSH1 0x1F NOT PUSH1 0x1F DUP3 ADD AND DUP3 ADD DUP1 PUSH1 0x40 MSTORE POP DUP2 ADD SWAP1 PUSH2 0xBC1 SWAP2 SWAP1 PUSH2 0x2A38 JUMP JUMPDEST SWAP1 POP PUSH1 0x0 DUP5 GT PUSH2 0xC13 JUMPI PUSH1 0x40 MLOAD PUSH3 0x461BCD PUSH1 0xE5 SHL DUP2 MSTORE PUSH1 0x20 PUSH1 0x4 DUP3 ADD MSTORE PUSH1 0x1B PUSH1 0x24 DUP3 ADD MSTORE PUSH32 0x546F6B656E7320616D6F756E742063616E2774206265207A65726F0000000000 PUSH1 0x44 DUP3 ADD MSTORE PUSH1 0x64 ADD PUSH2 0x79A JUMP JUMPDEST PUSH1 0x1 PUSH1 0x1 PUSH1 0xA0 SHL SUB DUP7 AND PUSH2 0xC69 JUMPI PUSH1 0x40 MLOAD PUSH3 0x461BCD PUSH1 0xE5 SHL DUP2 MSTORE PUSH1 0x20 PUSH1 0x4 DUP3 ADD MSTORE PUSH1 0x1B PUSH1 0x24 DUP3 ADD MSTORE PUSH32 0x45524332302063616E2774206265206E756C6C20616464726573730000000000 PUSH1 0x44 DUP3 ADD MSTORE PUSH1 0x64 ADD PUSH2 0x79A JUMP JUMPDEST PUSH1 0x1 PUSH1 0x1 PUSH1 0xA0 SHL SUB DUP6 AND PUSH2 0xCBF JUMPI PUSH1 0x40 MLOAD PUSH3 0x461BCD PUSH1 0xE5 SHL DUP2 MSTORE PUSH1 0x20 PUSH1 0x4 DUP3 ADD MSTORE PUSH1 0x1F PUSH1 0x24 DUP3 ADD MSTORE PUSH32 0x526563697069656E742063616E2774206265206E756C6C206164647265737300 PUSH1 0x44 DUP3 ADD MSTORE PUSH1 0x64 ADD PUSH2 0x79A JUMP JUMPDEST PUSH1 0x5 SLOAD DUP2 MLOAD PUSH1 0x40 MLOAD PUSH4 0x47203D5B PUSH1 0xE0 SHL DUP2 MSTORE PUSH1 0x0 SWAP3 PUSH1 0x1 PUSH1 0x1 PUSH1 0xA0 SHL SUB AND SWAP2 PUSH4 0x47203D5B SWAP2 PUSH2 0xCF3 SWAP2 SWAP1 DUP10 SWAP1 PUSH1 0x4 ADD PUSH2 0x2A9E JUMP JUMPDEST PUSH1 0x20 PUSH1 0x40 MLOAD DUP1 DUP4 SUB DUP2 DUP7 GAS STATICCALL ISZERO DUP1 ISZERO PUSH2 0xD10 JUMPI RETURNDATASIZE PUSH1 0x0 DUP1 RETURNDATACOPY RETURNDATASIZE PUSH1 0x0 REVERT JUMPDEST POP POP POP POP PUSH1 0x40 MLOAD RETURNDATASIZE PUSH1 0x1F NOT PUSH1 0x1F DUP3 ADD AND DUP3 ADD DUP1 PUSH1 0x40 MSTORE POP DUP2 ADD SWAP1 PUSH2 0xD34 SWAP2 SWAP1 PUSH2 0x2AB7 JUMP JUMPDEST PUSH1 0x5 SLOAD PUSH1 0x40 MLOAD PUSH4 0xC040B47 PUSH1 0xE0 SHL DUP2 MSTORE SWAP2 SWAP3 POP PUSH1 0x0 SWAP2 PUSH1 0x1 PUSH1 0x1 PUSH1 0xA0 SHL SUB SWAP1 SWAP2 AND SWAP1 PUSH4 0xC040B47 SWAP1 PUSH2 0xD6D SWAP1 PUSH1 0x1 SWAP1 DUP11 SWAP1 PUSH1 0x4 ADD PUSH2 0x2AE6 JUMP JUMPDEST PUSH1 0x20 PUSH1 0x40 MLOAD DUP1 DUP4 SUB DUP2 DUP7 GAS STATICCALL ISZERO DUP1 ISZERO PUSH2 0xD8A JUMPI RETURNDATASIZE PUSH1 0x0 DUP1 RETURNDATACOPY RETURNDATASIZE PUSH1 0x0 REVERT JUMPDEST POP POP POP POP PUSH1 0x40 MLOAD RETURNDATASIZE PUSH1 0x1F NOT PUSH1 0x1F DUP3 ADD AND DUP3 ADD DUP1 PUSH1 0x40 MSTORE POP DUP2 ADD SWAP1 PUSH2 0xDAE SWAP2 SWAP1 PUSH2 0x2AB7 JUMP JUMPDEST SWAP1 POP PUSH1 0x0 PUSH2 0xDBC DUP3 DUP5 PUSH2 0x2B28 JUMP JUMPDEST PUSH2 0xDC6 SWAP1 DUP9 PUSH2 0x2B3B JUMP JUMPDEST SWAP1 POP DUP9 DUP8 PUSH1 0x1 PUSH1 0x1 PUSH1 0xA0 SHL SUB DUP3 AND PUSH4 0x70A08231 PUSH2 0xDE1 PUSH2 0x2516 JUMP JUMPDEST PUSH1 0x40 MLOAD PUSH1 0x1 PUSH1 0x1 PUSH1 0xE0 SHL SUB NOT PUSH1 0xE0 DUP5 SWAP1 SHL AND DUP2 MSTORE PUSH1 0x1 PUSH1 0x1 PUSH1 0xA0 SHL SUB SWAP1 SWAP2 AND PUSH1 0x4 DUP3 ADD MSTORE PUSH1 0x24 ADD PUSH1 0x20 PUSH1 0x40 MLOAD DUP1 DUP4 SUB DUP2 DUP7 GAS STATICCALL ISZERO DUP1 ISZERO PUSH2 0xE25 JUMPI RETURNDATASIZE PUSH1 0x0 DUP1 RETURNDATACOPY RETURNDATASIZE PUSH1 0x0 REVERT JUMPDEST POP POP POP POP PUSH1 0x40 MLOAD RETURNDATASIZE PUSH1 0x1F NOT PUSH1 0x1F DUP3 ADD AND DUP3 ADD DUP1 PUSH1 0x40 MSTORE POP DUP2 ADD SWAP1 PUSH2 0xE49 SWAP2 SWAP1 PUSH2 0x2AB7 JUMP JUMPDEST LT ISZERO PUSH2 0xE67 JUMPI PUSH1 0x40 MLOAD PUSH3 0x461BCD PUSH1 0xE5 SHL DUP2 MSTORE PUSH1 0x4 ADD PUSH2 0x79A SWAP1 PUSH2 0x2B4E JUMP JUMPDEST DUP1 PUSH1 0x1 PUSH1 0x1 PUSH1 0xA0 SHL SUB AND PUSH4 0x23B872DD PUSH2 0xE7E PUSH2 0x2516 JUMP JUMPDEST DUP12 DUP6 PUSH1 0x40 MLOAD DUP5 PUSH4 0xFFFFFFFF AND PUSH1 0xE0 SHL DUP2 MSTORE PUSH1 0x4 ADD PUSH2 0xE9E SWAP4 SWAP3 SWAP2 SWAP1 PUSH2 0x2BCE JUMP JUMPDEST PUSH1 0x20 PUSH1 0x40 MLOAD DUP1 DUP4 SUB DUP2 PUSH1 0x0 DUP8 GAS CALL ISZERO DUP1 ISZERO PUSH2 0xEBD JUMPI RETURNDATASIZE PUSH1 0x0 DUP1 RETURNDATACOPY RETURNDATASIZE PUSH1 0x0 REVERT JUMPDEST POP POP POP POP PUSH1 0x40 MLOAD RETURNDATASIZE PUSH1 0x1F NOT PUSH1 0x1F DUP3 ADD AND DUP3 ADD DUP1 PUSH1 0x40 MSTORE POP DUP2 ADD SWAP1 PUSH2 0xEE1 SWAP2 SWAP1 PUSH2 0x2BB1 JUMP JUMPDEST POP DUP1 PUSH1 0x1 PUSH1 0x1 PUSH1 0xA0 SHL SUB AND PUSH4 0x23B872DD PUSH2 0xEF9 PUSH2 0x2516 JUMP JUMPDEST DUP8 MLOAD PUSH1 0x40 MLOAD PUSH1 0x1 PUSH1 0x1 PUSH1 0xE0 SHL SUB NOT PUSH1 0xE0 DUP6 SWAP1 SHL AND DUP2 MSTORE PUSH2 0xF1F SWAP3 SWAP2 SWAP1 DUP10 SWAP1 PUSH1 0x4 ADD PUSH2 0x2BCE JUMP JUMPDEST PUSH1 0x20 PUSH1 0x40 MLOAD DUP1 DUP4 SUB DUP2 PUSH1 0x0 DUP8 GAS CALL ISZERO DUP1 ISZERO PUSH2 0xF3E JUMPI RETURNDATASIZE PUSH1 0x0 DUP1 RETURNDATACOPY RETURNDATASIZE PUSH1 0x0 REVERT JUMPDEST POP POP POP POP PUSH1 0x40 MLOAD RETURNDATASIZE PUSH1 0x1F NOT PUSH1 0x1F DUP3 ADD AND DUP3 ADD DUP1 PUSH1 0x40 MSTORE POP DUP2 ADD SWAP1 PUSH2 0xF62 SWAP2 SWAP1 PUSH2 0x2BB1 JUMP JUMPDEST POP DUP1 PUSH1 0x1 PUSH1 0x1 PUSH1 0xA0 SHL SUB AND PUSH4 0x23B872DD PUSH2 0xF7A PUSH2 0x2516 JUMP JUMPDEST PUSH1 0x1 SLOAD PUSH1 0x40 MLOAD PUSH1 0xE0 DUP5 SWAP1 SHL PUSH1 0x1 PUSH1 0x1 PUSH1 0xE0 SHL SUB NOT AND DUP2 MSTORE PUSH2 0xFAF SWAP3 SWAP2 PUSH2 0x100 SWAP1 DIV PUSH1 0x1 PUSH1 0x1 PUSH1 0xA0 SHL SUB AND SWAP1 DUP9 SWAP1 PUSH1 0x4 ADD PUSH2 0x2BCE JUMP JUMPDEST PUSH1 0x20 PUSH1 0x40 MLOAD DUP1 DUP4 SUB DUP2 PUSH1 0x0 DUP8 GAS CALL ISZERO DUP1 ISZERO PUSH2 0xFCE JUMPI RETURNDATASIZE PUSH1 0x0 DUP1 RETURNDATACOPY RETURNDATASIZE PUSH1 0x0 REVERT JUMPDEST POP POP POP POP PUSH1 0x40 MLOAD RETURNDATASIZE PUSH1 0x1F NOT PUSH1 0x1F DUP3 ADD AND DUP3 ADD DUP1 PUSH1 0x40 MSTORE POP DUP2 ADD SWAP1 PUSH2 0xFF2 SWAP2 SWAP1 PUSH2 0x2BB1 JUMP JUMPDEST POP SWAP1 SWAP10 SWAP9 POP POP POP POP POP POP POP POP POP JUMP JUMPDEST PUSH1 0x0 PUSH2 0x101D PUSH1 0x0 DUP1 MLOAD PUSH1 0x20 PUSH2 0x2CC3 DUP4 CODECOPY DUP2 MLOAD SWAP2 MSTORE PUSH2 0x45B PUSH2 0x2516 JUMP JUMPDEST PUSH2 0x1039 JUMPI PUSH1 0x40 MLOAD PUSH3 0x461BCD PUSH1 0xE5 SHL DUP2 MSTORE PUSH1 0x4 ADD PUSH2 0x79A SWAP1 PUSH2 0x2BF2 JUMP JUMPDEST PUSH1 0x1 PUSH1 0x1 PUSH1 0xA0 SHL SUB DUP3 AND PUSH2 0x1089 JUMPI PUSH1 0x40 MLOAD PUSH3 0x461BCD PUSH1 0xE5 SHL DUP2 MSTORE PUSH1 0x20 PUSH1 0x4 DUP3 ADD MSTORE PUSH1 0x17 PUSH1 0x24 DUP3 ADD MSTORE PUSH23 0x14DD18589B194C48191BD95CDD081B9BDD08195E1A5CDD PUSH1 0x4A SHL PUSH1 0x44 DUP3 ADD MSTORE PUSH1 0x64 ADD PUSH2 0x79A JUMP JUMPDEST POP PUSH1 0x3 DUP1 SLOAD PUSH1 0x1 PUSH1 0x1 PUSH1 0xA0 SHL SUB DUP4 AND PUSH1 0x1 PUSH1 0x1 PUSH1 0xA0 SHL SUB NOT SWAP1 SWAP2 AND OR SWAP1 SSTORE PUSH1 0x1 SWAP2 SWAP1 POP JUMP JUMPDEST PUSH2 0x10B6 PUSH2 0x284B JUMP JUMPDEST POP PUSH1 0x1 PUSH1 0x1 PUSH1 0xA0 SHL SUB SWAP1 DUP2 AND PUSH1 0x0 SWAP1 DUP2 MSTORE PUSH1 0x6 PUSH1 0x20 SWAP1 DUP2 MSTORE PUSH1 0x40 SWAP2 DUP3 SWAP1 KECCAK256 DUP3 MLOAD PUSH1 0x80 DUP2 ADD DUP5 MSTORE DUP2 SLOAD SWAP1 SWAP5 AND DUP5 MSTORE PUSH1 0x1 DUP2 ADD SLOAD SWAP2 DUP5 ADD SWAP2 SWAP1 SWAP2 MSTORE PUSH1 0x2 DUP2 ADD SLOAD SWAP2 DUP4 ADD SWAP2 SWAP1 SWAP2 MSTORE PUSH1 0x3 ADD SLOAD PUSH1 0xFF AND ISZERO ISZERO PUSH1 0x60 DUP3 ADD MSTORE SWAP1 JUMP JUMPDEST PUSH1 0x0 DUP3 DUP2 MSTORE PUSH1 0x20 DUP2 SWAP1 MSTORE PUSH1 0x40 SWAP1 KECCAK256 PUSH1 0x1 ADD SLOAD PUSH2 0x1127 DUP2 PUSH2 0x25F0 JUMP JUMPDEST PUSH2 0x1131 DUP4 DUP4 PUSH2 0x2604 JUMP JUMPDEST POP POP POP POP JUMP JUMPDEST PUSH2 0x113F PUSH2 0x2516 JUMP JUMPDEST PUSH1 0x1 PUSH1 0x1 PUSH1 0xA0 SHL SUB AND DUP2 PUSH1 0x1 PUSH1 0x1 PUSH1 0xA0 SHL SUB AND EQ PUSH2 0x1170 JUMPI PUSH1 0x40 MLOAD PUSH4 0x334BD919 PUSH1 0xE1 SHL DUP2 MSTORE PUSH1 0x4 ADD PUSH1 0x40 MLOAD DUP1 SWAP2 SUB SWAP1 REVERT JUMPDEST PUSH2 0x117A DUP3 DUP3 PUSH2 0x2697 JUMP JUMPDEST POP POP POP JUMP JUMPDEST PUSH2 0x1187 PUSH2 0x284B JUMP JUMPDEST PUSH2 0x11A1 PUSH1 0x0 DUP1 MLOAD PUSH1 0x20 PUSH2 0x2CC3 DUP4 CODECOPY DUP2 MLOAD SWAP2 MSTORE PUSH2 0x45B PUSH2 0x2516 JUMP JUMPDEST PUSH2 0x11BD JUMPI PUSH1 0x40 MLOAD PUSH3 0x461BCD PUSH1 0xE5 SHL DUP2 MSTORE PUSH1 0x4 ADD PUSH2 0x79A SWAP1 PUSH2 0x2BF2 JUMP JUMPDEST PUSH1 0x1 PUSH1 0x1 PUSH1 0xA0 SHL SUB DUP1 DUP7 AND PUSH1 0x0 SWAP1 DUP2 MSTORE PUSH1 0x6 PUSH1 0x20 SWAP1 DUP2 MSTORE PUSH1 0x40 SWAP2 DUP3 SWAP1 KECCAK256 DUP3 MLOAD PUSH1 0x80 DUP2 ADD DUP5 MSTORE DUP2 SLOAD SWAP1 SWAP5 AND DUP1 DUP6 MSTORE PUSH1 0x1 DUP3 ADD SLOAD SWAP3 DUP6 ADD SWAP3 SWAP1 SWAP3 MSTORE PUSH1 0x2 DUP2 ADD SLOAD SWAP3 DUP5 ADD SWAP3 SWAP1 SWAP3 MSTORE PUSH1 0x3 SWAP1 SWAP2 ADD SLOAD PUSH1 0xFF AND ISZERO ISZERO PUSH1 0x60 DUP4 ADD MSTORE ISZERO PUSH2 0x126D JUMPI PUSH1 0x40 MLOAD PUSH3 0x461BCD PUSH1 0xE5 SHL DUP2 MSTORE PUSH1 0x20 PUSH1 0x4 DUP3 ADD MSTORE PUSH1 0x25 PUSH1 0x24 DUP3 ADD MSTORE PUSH32 0x537461626C654D616E616765723A20746F6B656E206164647265737320206578 PUSH1 0x44 DUP3 ADD MSTORE PUSH5 0x7469737473 PUSH1 0xD8 SHL PUSH1 0x64 DUP3 ADD MSTORE PUSH1 0x84 ADD PUSH2 0x79A JUMP JUMPDEST PUSH1 0x1 PUSH1 0x1 PUSH1 0xA0 SHL SUB DUP7 AND PUSH2 0x1293 JUMPI PUSH1 0x40 MLOAD PUSH3 0x461BCD PUSH1 0xE5 SHL DUP2 MSTORE PUSH1 0x4 ADD PUSH2 0x79A SWAP1 PUSH2 0x2C29 JUMP JUMPDEST PUSH1 0x0 DUP6 GT PUSH2 0x12B3 JUMPI PUSH1 0x40 MLOAD PUSH3 0x461BCD PUSH1 0xE5 SHL DUP2 MSTORE PUSH1 0x4 ADD PUSH2 0x79A SWAP1 PUSH2 0x2C74 JUMP JUMPDEST POP POP PUSH1 0x40 DUP1 MLOAD PUSH1 0x80 DUP1 DUP3 ADD DUP4 MSTORE PUSH1 0x1 PUSH1 0x1 PUSH1 0xA0 SHL SUB SWAP7 DUP8 AND DUP1 DUP4 MSTORE PUSH1 0x20 DUP1 DUP5 ADD SWAP8 DUP9 MSTORE DUP4 DUP6 ADD SWAP7 DUP8 MSTORE SWAP5 ISZERO ISZERO PUSH1 0x60 DUP1 DUP6 ADD SWAP2 DUP3 MSTORE PUSH1 0x0 SWAP3 DUP4 MSTORE PUSH1 0x6 DUP8 MSTORE SWAP2 DUP6 SWAP1 KECCAK256 SWAP4 MLOAD DUP5 SLOAD PUSH1 0x1 PUSH1 0x1 PUSH1 0xA0 SHL SUB NOT AND SWAP10 AND SWAP9 DUP10 OR DUP5 SSTORE SWAP7 MLOAD PUSH1 0x1 DUP5 ADD DUP2 SWAP1 SSTORE SWAP6 MLOAD PUSH1 0x2 DUP5 ADD DUP2 SWAP1 SSTORE SWAP7 MLOAD PUSH1 0x3 SWAP1 SWAP4 ADD DUP1 SLOAD PUSH1 0xFF NOT AND SWAP4 ISZERO ISZERO SWAP4 DUP5 OR SWAP1 SSTORE DUP4 MLOAD SWAP2 DUP3 ADD DUP5 MSTORE SWAP7 DUP2 MSTORE SWAP3 DUP4 ADD SWAP4 SWAP1 SWAP4 MSTORE DUP2 ADD SWAP3 SWAP1 SWAP3 MSTORE PUSH1 0xFF AND ISZERO ISZERO SWAP2 DUP2 ADD SWAP2 SWAP1 SWAP2 MSTORE SWAP1 JUMP JUMPDEST PUSH2 0x1370 PUSH1 0x0 DUP1 MLOAD PUSH1 0x20 PUSH2 0x2CC3 DUP4 CODECOPY DUP2 MLOAD SWAP2 MSTORE PUSH2 0x45B PUSH2 0x2516 JUMP JUMPDEST PUSH2 0x138C JUMPI PUSH1 0x40 MLOAD PUSH3 0x461BCD PUSH1 0xE5 SHL DUP2 MSTORE PUSH1 0x4 ADD PUSH2 0x79A SWAP1 PUSH2 0x2BF2 JUMP JUMPDEST PUSH2 0x1394 PUSH2 0x2720 JUMP JUMPDEST JUMP JUMPDEST PUSH2 0x13B0 PUSH1 0x0 DUP1 MLOAD PUSH1 0x20 PUSH2 0x2CC3 DUP4 CODECOPY DUP2 MLOAD SWAP2 MSTORE PUSH2 0x45B PUSH2 0x2516 JUMP JUMPDEST PUSH2 0x13CC JUMPI PUSH1 0x40 MLOAD PUSH3 0x461BCD PUSH1 0xE5 SHL DUP2 MSTORE PUSH1 0x4 ADD PUSH2 0x79A SWAP1 PUSH2 0x2BF2 JUMP JUMPDEST PUSH2 0x117A DUP3 DUP3 PUSH2 0x2604 JUMP JUMPDEST PUSH2 0x13DE PUSH2 0x284B JUMP JUMPDEST PUSH2 0x13F8 PUSH1 0x0 DUP1 MLOAD PUSH1 0x20 PUSH2 0x2CC3 DUP4 CODECOPY DUP2 MLOAD SWAP2 MSTORE PUSH2 0x45B PUSH2 0x2516 JUMP JUMPDEST PUSH2 0x1414 JUMPI PUSH1 0x40 MLOAD PUSH3 0x461BCD PUSH1 0xE5 SHL DUP2 MSTORE PUSH1 0x4 ADD PUSH2 0x79A SWAP1 PUSH2 0x2BF2 JUMP JUMPDEST PUSH1 0x1 PUSH1 0x1 PUSH1 0xA0 SHL SUB DUP3 AND PUSH2 0x143A JUMPI PUSH1 0x40 MLOAD PUSH3 0x461BCD PUSH1 0xE5 SHL DUP2 MSTORE PUSH1 0x4 ADD PUSH2 0x79A SWAP1 PUSH2 0x2C29 JUMP JUMPDEST POP PUSH1 0x1 PUSH1 0x1 PUSH1 0xA0 SHL SUB AND PUSH1 0x0 SWAP1 DUP2 MSTORE PUSH1 0x6 PUSH1 0x20 SWAP1 DUP2 MSTORE PUSH1 0x40 DUP1 DUP4 KECCAK256 DUP1 SLOAD PUSH1 0x1 PUSH1 0x1 PUSH1 0xA0 SHL SUB NOT AND DUP2 SSTORE PUSH1 0x1 DUP2 ADD DUP5 SWAP1 SSTORE PUSH1 0x2 DUP2 ADD DUP5 SWAP1 SSTORE PUSH1 0x3 ADD DUP1 SLOAD PUSH1 0xFF NOT AND SWAP1 SSTORE DUP1 MLOAD PUSH1 0x80 DUP2 ADD DUP3 MSTORE DUP4 DUP2 MSTORE SWAP2 DUP3 ADD DUP4 SWAP1 MSTORE DUP2 ADD DUP3 SWAP1 MSTORE PUSH1 0x60 DUP2 ADD SWAP2 SWAP1 SWAP2 MSTORE SWAP1 JUMP JUMPDEST PUSH2 0x14B7 PUSH1 0x0 DUP1 MLOAD PUSH1 0x20 PUSH2 0x2CC3 DUP4 CODECOPY DUP2 MLOAD SWAP2 MSTORE PUSH2 0x45B PUSH2 0x2516 JUMP JUMPDEST PUSH2 0x14D3 JUMPI PUSH1 0x40 MLOAD PUSH3 0x461BCD PUSH1 0xE5 SHL DUP2 MSTORE PUSH1 0x4 ADD PUSH2 0x79A SWAP1 PUSH2 0x2BF2 JUMP JUMPDEST PUSH2 0x1394 PUSH2 0x2778 JUMP JUMPDEST PUSH1 0x0 SWAP2 DUP3 MSTORE PUSH1 0x20 DUP3 DUP2 MSTORE PUSH1 0x40 DUP1 DUP5 KECCAK256 PUSH1 0x1 PUSH1 0x1 PUSH1 0xA0 SHL SUB SWAP4 SWAP1 SWAP4 AND DUP5 MSTORE SWAP2 SWAP1 MSTORE SWAP1 KECCAK256 SLOAD PUSH1 0xFF AND SWAP1 JUMP JUMPDEST PUSH2 0x150C PUSH2 0x284B JUMP JUMPDEST PUSH2 0x1526 PUSH1 0x0 DUP1 MLOAD PUSH1 0x20 PUSH2 0x2CC3 DUP4 CODECOPY DUP2 MLOAD SWAP2 MSTORE PUSH2 0x45B PUSH2 0x2516 JUMP JUMPDEST PUSH2 0x1542 JUMPI PUSH1 0x40 MLOAD PUSH3 0x461BCD PUSH1 0xE5 SHL DUP2 MSTORE PUSH1 0x4 ADD PUSH2 0x79A SWAP1 PUSH2 0x2BF2 JUMP JUMPDEST PUSH1 0x1 PUSH1 0x1 PUSH1 0xA0 SHL SUB DUP6 AND PUSH2 0x1568 JUMPI PUSH1 0x40 MLOAD PUSH3 0x461BCD PUSH1 0xE5 SHL DUP2 MSTORE PUSH1 0x4 ADD PUSH2 0x79A SWAP1 PUSH2 0x2C29 JUMP JUMPDEST PUSH1 0x0 DUP5 GT PUSH2 0x1588 JUMPI PUSH1 0x40 MLOAD PUSH3 0x461BCD PUSH1 0xE5 SHL DUP2 MSTORE PUSH1 0x4 ADD PUSH2 0x79A SWAP1 PUSH2 0x2C74 JUMP JUMPDEST POP PUSH1 0x40 DUP1 MLOAD PUSH1 0x80 DUP1 DUP3 ADD DUP4 MSTORE PUSH1 0x1 PUSH1 0x1 PUSH1 0xA0 SHL SUB SWAP7 DUP8 AND DUP1 DUP4 MSTORE PUSH1 0x20 DUP1 DUP5 ADD SWAP8 DUP9 MSTORE DUP4 DUP6 ADD SWAP7 DUP8 MSTORE SWAP5 ISZERO ISZERO PUSH1 0x60 DUP1 DUP6 ADD SWAP2 DUP3 MSTORE PUSH1 0x0 SWAP3 DUP4 MSTORE PUSH1 0x6 DUP8 MSTORE SWAP2 DUP6 SWAP1 KECCAK256 SWAP4 MLOAD DUP5 SLOAD PUSH1 0x1 PUSH1 0x1 PUSH1 0xA0 SHL SUB NOT AND SWAP10 AND SWAP9 DUP10 OR DUP5 SSTORE SWAP7 MLOAD PUSH1 0x1 DUP5 ADD DUP2 SWAP1 SSTORE SWAP6 MLOAD PUSH1 0x2 DUP5 ADD DUP2 SWAP1 SSTORE SWAP7 MLOAD PUSH1 0x3 SWAP1 SWAP4 ADD DUP1 SLOAD PUSH1 0xFF NOT AND SWAP4 ISZERO ISZERO SWAP4 DUP5 OR SWAP1 SSTORE DUP4 MLOAD SWAP2 DUP3 ADD DUP5 MSTORE SWAP7 DUP2 MSTORE SWAP3 DUP4 ADD SWAP4 SWAP1 SWAP4 MSTORE DUP2 ADD SWAP3 SWAP1 SWAP3 MSTORE PUSH1 0xFF AND ISZERO ISZERO SWAP2 DUP2 ADD SWAP2 SWAP1 SWAP2 MSTORE SWAP1 JUMP JUMPDEST PUSH1 0x0 PUSH2 0x1646 PUSH1 0x0 DUP1 MLOAD PUSH1 0x20 PUSH2 0x2CC3 DUP4 CODECOPY DUP2 MLOAD SWAP2 MSTORE PUSH2 0x45B PUSH2 0x2516 JUMP JUMPDEST PUSH2 0x1662 JUMPI PUSH1 0x40 MLOAD PUSH3 0x461BCD PUSH1 0xE5 SHL DUP2 MSTORE PUSH1 0x4 ADD PUSH2 0x79A SWAP1 PUSH2 0x2BF2 JUMP JUMPDEST PUSH1 0x1 PUSH1 0x1 PUSH1 0xA0 SHL SUB DUP3 AND PUSH2 0x16B8 JUMPI PUSH1 0x40 MLOAD PUSH3 0x461BCD PUSH1 0xE5 SHL DUP2 MSTORE PUSH1 0x20 PUSH1 0x4 DUP3 ADD MSTORE PUSH1 0x1A PUSH1 0x24 DUP3 ADD MSTORE PUSH32 0x666565436F6C6C6563746F722063616E2774206265206E756C6C000000000000 PUSH1 0x44 DUP3 ADD MSTORE PUSH1 0x64 ADD PUSH2 0x79A JUMP JUMPDEST POP PUSH1 0x1 DUP1 SLOAD PUSH1 0x1 PUSH1 0x1 PUSH1 0xA0 SHL SUB DUP4 AND PUSH2 0x100 MUL PUSH2 0x100 PUSH1 0x1 PUSH1 0xA8 SHL SUB NOT SWAP1 SWAP2 AND OR DUP2 SSTORE SWAP2 SWAP1 POP JUMP JUMPDEST PUSH1 0x0 PUSH2 0x16FC PUSH1 0x0 DUP1 MLOAD PUSH1 0x20 PUSH2 0x2CC3 DUP4 CODECOPY DUP2 MLOAD SWAP2 MSTORE PUSH2 0x45B PUSH2 0x2516 JUMP JUMPDEST PUSH2 0x1718 JUMPI PUSH1 0x40 MLOAD PUSH3 0x461BCD PUSH1 0xE5 SHL DUP2 MSTORE PUSH1 0x4 ADD PUSH2 0x79A SWAP1 PUSH2 0x2BF2 JUMP JUMPDEST PUSH1 0x0 DUP3 GT PUSH2 0x1738 JUMPI PUSH1 0x40 MLOAD PUSH3 0x461BCD PUSH1 0xE5 SHL DUP2 MSTORE PUSH1 0x4 ADD PUSH2 0x79A SWAP1 PUSH2 0x2C74 JUMP JUMPDEST POP PUSH1 0x1 PUSH1 0x1 PUSH1 0xA0 SHL SUB DUP3 AND PUSH1 0x0 SWAP1 DUP2 MSTORE PUSH1 0x6 PUSH1 0x20 MSTORE PUSH1 0x40 DUP2 KECCAK256 PUSH1 0x1 ADD DUP3 SWAP1 SSTORE SWAP3 SWAP2 POP POP JUMP JUMPDEST PUSH1 0x0 PUSH2 0x1767 PUSH2 0x24F2 JUMP JUMPDEST PUSH1 0x5 SLOAD PUSH1 0x40 MLOAD PUSH4 0x3C057895 PUSH1 0xE0 SHL DUP2 MSTORE PUSH1 0x1 PUSH1 0x1 PUSH1 0xA0 SHL SUB DUP5 DUP2 AND PUSH1 0x4 DUP4 ADD MSTORE PUSH1 0x0 SWAP3 AND SWAP1 PUSH4 0x3C057895 SWAP1 PUSH1 0x24 ADD PUSH1 0x40 DUP1 MLOAD DUP1 DUP4 SUB DUP2 DUP7 GAS STATICCALL ISZERO DUP1 ISZERO PUSH2 0x17B1 JUMPI RETURNDATASIZE PUSH1 0x0 DUP1 RETURNDATACOPY RETURNDATASIZE PUSH1 0x0 REVERT JUMPDEST POP POP POP POP PUSH1 0x40 MLOAD RETURNDATASIZE PUSH1 0x1F NOT PUSH1 0x1F DUP3 ADD AND DUP3 ADD DUP1 PUSH1 0x40 MSTORE POP DUP2 ADD SWAP1 PUSH2 0x17D5 SWAP2 SWAP1 PUSH2 0x2A38 JUMP JUMPDEST SWAP1 POP DUP5 PUSH1 0x0 PUSH2 0x17E3 DUP3 PUSH2 0x10AE JUMP JUMPDEST SWAP1 POP PUSH1 0x0 DUP7 GT PUSH2 0x1835 JUMPI PUSH1 0x40 MLOAD PUSH3 0x461BCD PUSH1 0xE5 SHL DUP2 MSTORE PUSH1 0x20 PUSH1 0x4 DUP3 ADD MSTORE PUSH1 0x18 PUSH1 0x24 DUP3 ADD MSTORE PUSH32 0x55736420616D6F756E742063616E2774206265207A65726F0000000000000000 PUSH1 0x44 DUP3 ADD MSTORE PUSH1 0x64 ADD PUSH2 0x79A JUMP JUMPDEST PUSH1 0x3 SLOAD DUP7 SWAP1 PUSH1 0x1 PUSH1 0x1 PUSH1 0xA0 SHL SUB AND PUSH4 0x70A08231 PUSH2 0x1850 PUSH2 0x2516 JUMP JUMPDEST PUSH1 0x40 MLOAD PUSH1 0x1 PUSH1 0x1 PUSH1 0xE0 SHL SUB NOT PUSH1 0xE0 DUP5 SWAP1 SHL AND DUP2 MSTORE PUSH1 0x1 PUSH1 0x1 PUSH1 0xA0 SHL SUB SWAP1 SWAP2 AND PUSH1 0x4 DUP3 ADD MSTORE PUSH1 0x24 ADD PUSH1 0x20 PUSH1 0x40 MLOAD DUP1 DUP4 SUB DUP2 DUP7 GAS STATICCALL ISZERO DUP1 ISZERO PUSH2 0x1894 JUMPI RETURNDATASIZE PUSH1 0x0 DUP1 RETURNDATACOPY RETURNDATASIZE PUSH1 0x0 REVERT JUMPDEST POP POP POP POP PUSH1 0x40 MLOAD RETURNDATASIZE PUSH1 0x1F NOT PUSH1 0x1F DUP3 ADD AND DUP3 ADD DUP1 PUSH1 0x40 MSTORE POP DUP2 ADD SWAP1 PUSH2 0x18B8 SWAP2 SWAP1 PUSH2 0x2AB7 JUMP JUMPDEST LT ISZERO PUSH2 0x18FD JUMPI PUSH1 0x40 MLOAD PUSH3 0x461BCD PUSH1 0xE5 SHL DUP2 MSTORE PUSH1 0x20 PUSH1 0x4 DUP3 ADD MSTORE PUSH1 0x14 PUSH1 0x24 DUP3 ADD MSTORE PUSH20 0xAAA68840A8DED6CADC40DCDEE840CADCDEEACED PUSH1 0x63 SHL PUSH1 0x44 DUP3 ADD MSTORE PUSH1 0x64 ADD PUSH2 0x79A JUMP JUMPDEST PUSH1 0x3 SLOAD DUP7 SWAP1 PUSH1 0x1 PUSH1 0x1 PUSH1 0xA0 SHL SUB AND PUSH4 0xDD62ED3E PUSH2 0x1918 PUSH2 0x2516 JUMP JUMPDEST PUSH1 0x40 MLOAD PUSH1 0x1 PUSH1 0x1 PUSH1 0xE0 SHL SUB NOT PUSH1 0xE0 DUP5 SWAP1 SHL AND DUP2 MSTORE PUSH1 0x1 PUSH1 0x1 PUSH1 0xA0 SHL SUB SWAP1 SWAP2 AND PUSH1 0x4 DUP3 ADD MSTORE ADDRESS PUSH1 0x24 DUP3 ADD MSTORE PUSH1 0x44 ADD PUSH1 0x20 PUSH1 0x40 MLOAD DUP1 DUP4 SUB DUP2 DUP7 GAS STATICCALL ISZERO DUP1 ISZERO PUSH2 0x1962 JUMPI RETURNDATASIZE PUSH1 0x0 DUP1 RETURNDATACOPY RETURNDATASIZE PUSH1 0x0 REVERT JUMPDEST POP POP POP POP PUSH1 0x40 MLOAD RETURNDATASIZE PUSH1 0x1F NOT PUSH1 0x1F DUP3 ADD AND DUP3 ADD DUP1 PUSH1 0x40 MSTORE POP DUP2 ADD SWAP1 PUSH2 0x1986 SWAP2 SWAP1 PUSH2 0x2AB7 JUMP JUMPDEST LT ISZERO PUSH2 0x19D4 JUMPI PUSH1 0x40 MLOAD PUSH3 0x461BCD PUSH1 0xE5 SHL DUP2 MSTORE PUSH1 0x20 PUSH1 0x4 DUP3 ADD MSTORE PUSH1 0x1E PUSH1 0x24 DUP3 ADD MSTORE PUSH32 0x55534420546F6B656E20416C6C6F77616E6365206E6F7420656E6F7567680000 PUSH1 0x44 DUP3 ADD MSTORE PUSH1 0x64 ADD PUSH2 0x79A JUMP JUMPDEST PUSH1 0x0 DUP2 PUSH1 0x20 ADD MLOAD GT PUSH2 0x1A28 JUMPI PUSH1 0x40 MLOAD PUSH3 0x461BCD PUSH1 0xE5 SHL DUP2 MSTORE PUSH1 0x20 PUSH1 0x4 DUP3 ADD MSTORE PUSH1 0x1A PUSH1 0x24 DUP3 ADD MSTORE PUSH32 0x507269636520686173206E6F74206265656E20646566696E6564000000000000 PUSH1 0x44 DUP3 ADD MSTORE PUSH1 0x64 ADD PUSH2 0x79A JUMP JUMPDEST PUSH1 0x0 PUSH1 0x7 SLOAD DUP3 PUSH1 0x20 ADD MLOAD DUP9 PUSH2 0x1A3D SWAP2 SWAP1 PUSH2 0x2B78 JUMP JUMPDEST PUSH2 0x1A47 SWAP2 SWAP1 PUSH2 0x2B8F JUMP JUMPDEST PUSH1 0x3 SLOAD SWAP1 SWAP2 POP PUSH1 0x1 PUSH1 0x1 PUSH1 0xA0 SHL SUB AND PUSH4 0x23B872DD PUSH2 0x1A63 PUSH2 0x2516 JUMP JUMPDEST ADDRESS DUP11 PUSH1 0x40 MLOAD DUP5 PUSH4 0xFFFFFFFF AND PUSH1 0xE0 SHL DUP2 MSTORE PUSH1 0x4 ADD PUSH2 0x1A83 SWAP4 SWAP3 SWAP2 SWAP1 PUSH2 0x2BCE JUMP JUMPDEST PUSH1 0x20 PUSH1 0x40 MLOAD DUP1 DUP4 SUB DUP2 PUSH1 0x0 DUP8 GAS CALL ISZERO DUP1 ISZERO PUSH2 0x1AA2 JUMPI RETURNDATASIZE PUSH1 0x0 DUP1 RETURNDATACOPY RETURNDATASIZE PUSH1 0x0 REVERT JUMPDEST POP POP POP POP PUSH1 0x40 MLOAD RETURNDATASIZE PUSH1 0x1F NOT PUSH1 0x1F DUP3 ADD AND DUP3 ADD DUP1 PUSH1 0x40 MSTORE POP DUP2 ADD SWAP1 PUSH2 0x1AC6 SWAP2 SWAP1 PUSH2 0x2BB1 JUMP JUMPDEST POP PUSH1 0x5 SLOAD DUP5 MLOAD PUSH1 0x40 MLOAD PUSH4 0x47203D5B PUSH1 0xE0 SHL DUP2 MSTORE PUSH1 0x0 SWAP3 PUSH1 0x1 PUSH1 0x1 PUSH1 0xA0 SHL SUB AND SWAP2 PUSH4 0x47203D5B SWAP2 PUSH2 0x1AFB SWAP2 SWAP1 DUP7 SWAP1 PUSH1 0x4 ADD PUSH2 0x2A9E JUMP JUMPDEST PUSH1 0x20 PUSH1 0x40 MLOAD DUP1 DUP4 SUB DUP2 DUP7 GAS STATICCALL ISZERO DUP1 ISZERO PUSH2 0x1B18 JUMPI RETURNDATASIZE PUSH1 0x0 DUP1 RETURNDATACOPY RETURNDATASIZE PUSH1 0x0 REVERT JUMPDEST POP POP POP POP PUSH1 0x40 MLOAD RETURNDATASIZE PUSH1 0x1F NOT PUSH1 0x1F DUP3 ADD AND DUP3 ADD DUP1 PUSH1 0x40 MSTORE POP DUP2 ADD SWAP1 PUSH2 0x1B3C SWAP2 SWAP1 PUSH2 0x2AB7 JUMP JUMPDEST PUSH1 0x5 SLOAD PUSH1 0x40 MLOAD PUSH4 0xC040B47 PUSH1 0xE0 SHL DUP2 MSTORE SWAP2 SWAP3 POP PUSH1 0x0 SWAP2 PUSH1 0x1 PUSH1 0x1 PUSH1 0xA0 SHL SUB SWAP1 SWAP2 AND SWAP1 PUSH4 0xC040B47 SWAP1 PUSH2 0x1B74 SWAP1 DUP5 SWAP1 DUP8 SWAP1 PUSH1 0x4 ADD PUSH2 0x2AE6 JUMP JUMPDEST PUSH1 0x20 PUSH1 0x40 MLOAD DUP1 DUP4 SUB DUP2 DUP7 GAS STATICCALL ISZERO DUP1 ISZERO PUSH2 0x1B91 JUMPI RETURNDATASIZE PUSH1 0x0 DUP1 RETURNDATACOPY RETURNDATASIZE PUSH1 0x0 REVERT JUMPDEST POP POP POP POP PUSH1 0x40 MLOAD RETURNDATASIZE PUSH1 0x1F NOT PUSH1 0x1F DUP3 ADD AND DUP3 ADD DUP1 PUSH1 0x40 MSTORE POP DUP2 ADD SWAP1 PUSH2 0x1BB5 SWAP2 SWAP1 PUSH2 0x2AB7 JUMP JUMPDEST SWAP1 POP PUSH1 0x0 PUSH2 0x1BC3 DUP3 DUP5 PUSH2 0x2B28 JUMP JUMPDEST PUSH2 0x1BCD SWAP1 DUP6 PUSH2 0x2B3B JUMP JUMPDEST SWAP1 POP PUSH2 0x1BDB DUP7 DUP12 PUSH1 0x0 PUSH2 0x2525 JUMP JUMPDEST POP DUP6 PUSH1 0x1 PUSH1 0x1 PUSH1 0xA0 SHL SUB AND PUSH4 0x40C10F19 PUSH2 0x1BF3 PUSH2 0x2516 JUMP JUMPDEST DUP4 PUSH1 0x40 MLOAD DUP4 PUSH4 0xFFFFFFFF AND PUSH1 0xE0 SHL DUP2 MSTORE PUSH1 0x4 ADD PUSH2 0x1C11 SWAP3 SWAP2 SWAP1 PUSH2 0x2A9E JUMP JUMPDEST PUSH1 0x0 PUSH1 0x40 MLOAD DUP1 DUP4 SUB DUP2 PUSH1 0x0 DUP8 DUP1 EXTCODESIZE ISZERO DUP1 ISZERO PUSH2 0x1C2B JUMPI PUSH1 0x0 DUP1 REVERT JUMPDEST POP GAS CALL ISZERO DUP1 ISZERO PUSH2 0x1C3F JUMPI RETURNDATASIZE PUSH1 0x0 DUP1 RETURNDATACOPY RETURNDATASIZE PUSH1 0x0 REVERT JUMPDEST POP POP DUP9 MLOAD PUSH1 0x40 MLOAD PUSH4 0x40C10F19 PUSH1 0xE0 SHL DUP2 MSTORE PUSH1 0x1 PUSH1 0x1 PUSH1 0xA0 SHL SUB DUP11 AND SWAP4 POP PUSH4 0x40C10F19 SWAP3 POP PUSH2 0x1C72 SWAP2 SWAP1 DUP8 SWAP1 PUSH1 0x4 ADD PUSH2 0x2A9E JUMP JUMPDEST PUSH1 0x0 PUSH1 0x40 MLOAD DUP1 DUP4 SUB DUP2 PUSH1 0x0 DUP8 DUP1 EXTCODESIZE ISZERO DUP1 ISZERO PUSH2 0x1C8C JUMPI PUSH1 0x0 DUP1 REVERT JUMPDEST POP GAS CALL ISZERO DUP1 ISZERO PUSH2 0x1CA0 JUMPI RETURNDATASIZE PUSH1 0x0 DUP1 RETURNDATACOPY RETURNDATASIZE PUSH1 0x0 REVERT JUMPDEST POP POP PUSH1 0x1 SLOAD PUSH1 0x40 MLOAD PUSH4 0x40C10F19 PUSH1 0xE0 SHL DUP2 MSTORE PUSH1 0x1 PUSH1 0x1 PUSH1 0xA0 SHL SUB DUP1 DUP12 AND SWAP5 POP PUSH4 0x40C10F19 SWAP4 POP PUSH2 0x1CDB SWAP3 PUSH2 0x100 SWAP1 DIV AND SWAP1 DUP7 SWAP1 PUSH1 0x4 ADD PUSH2 0x2A9E JUMP JUMPDEST PUSH1 0x0 PUSH1 0x40 MLOAD DUP1 DUP4 SUB DUP2 PUSH1 0x0 DUP8 DUP1 EXTCODESIZE ISZERO DUP1 ISZERO PUSH2 0x1CF5 JUMPI PUSH1 0x0 DUP1 REVERT JUMPDEST POP GAS CALL ISZERO DUP1 ISZERO PUSH2 0x1D09 JUMPI RETURNDATASIZE PUSH1 0x0 DUP1 RETURNDATACOPY RETURNDATASIZE PUSH1 0x0 REVERT JUMPDEST POP SWAP3 SWAP14 SWAP13 POP POP POP POP POP POP POP POP POP POP POP POP POP JUMP JUMPDEST PUSH1 0x0 PUSH2 0x1D26 PUSH2 0x24F2 JUMP JUMPDEST PUSH1 0x5 SLOAD PUSH1 0x40 MLOAD PUSH4 0x3C057895 PUSH1 0xE0 SHL DUP2 MSTORE PUSH1 0x1 PUSH1 0x1 PUSH1 0xA0 SHL SUB DUP5 DUP2 AND PUSH1 0x4 DUP4 ADD MSTORE PUSH1 0x0 SWAP3 AND SWAP1 PUSH4 0x3C057895 SWAP1 PUSH1 0x24 ADD PUSH1 0x40 DUP1 MLOAD DUP1 DUP4 SUB DUP2 DUP7 GAS STATICCALL ISZERO DUP1 ISZERO PUSH2 0x1D70 JUMPI RETURNDATASIZE PUSH1 0x0 DUP1 RETURNDATACOPY RETURNDATASIZE PUSH1 0x0 REVERT JUMPDEST POP POP POP POP PUSH1 0x40 MLOAD RETURNDATASIZE PUSH1 0x1F NOT PUSH1 0x1F DUP3 ADD AND DUP3 ADD DUP1 PUSH1 0x40 MSTORE POP DUP2 ADD SWAP1 PUSH2 0x1D94 SWAP2 SWAP1 PUSH2 0x2A38 JUMP JUMPDEST SWAP1 POP DUP6 DUP6 PUSH1 0x0 PUSH2 0x1DA3 DUP4 PUSH2 0x10AE JUMP JUMPDEST SWAP1 POP PUSH1 0x0 PUSH2 0x1DB0 DUP10 PUSH2 0x10AE JUMP JUMPDEST PUSH1 0x5 SLOAD DUP7 MLOAD PUSH1 0x40 MLOAD PUSH4 0x47203D5B PUSH1 0xE0 SHL DUP2 MSTORE SWAP3 SWAP4 POP PUSH1 0x0 SWAP3 PUSH1 0x1 PUSH1 0x1 PUSH1 0xA0 SHL SUB SWAP1 SWAP3 AND SWAP2 PUSH4 0x47203D5B SWAP2 PUSH2 0x1DE8 SWAP2 DUP14 SWAP1 PUSH1 0x4 ADD PUSH2 0x2A9E JUMP JUMPDEST PUSH1 0x20 PUSH1 0x40 MLOAD DUP1 DUP4 SUB DUP2 DUP7 GAS STATICCALL ISZERO DUP1 ISZERO PUSH2 0x1E05 JUMPI RETURNDATASIZE PUSH1 0x0 DUP1 RETURNDATACOPY RETURNDATASIZE PUSH1 0x0 REVERT JUMPDEST POP POP POP POP PUSH1 0x40 MLOAD RETURNDATASIZE PUSH1 0x1F NOT PUSH1 0x1F DUP3 ADD AND DUP3 ADD DUP1 PUSH1 0x40 MSTORE POP DUP2 ADD SWAP1 PUSH2 0x1E29 SWAP2 SWAP1 PUSH2 0x2AB7 JUMP JUMPDEST PUSH1 0x5 SLOAD PUSH1 0x40 MLOAD PUSH4 0xC040B47 PUSH1 0xE0 SHL DUP2 MSTORE SWAP2 SWAP3 POP PUSH1 0x0 SWAP2 PUSH1 0x1 PUSH1 0x1 PUSH1 0xA0 SHL SUB SWAP1 SWAP2 AND SWAP1 PUSH4 0xC040B47 SWAP1 PUSH2 0x1E62 SWAP1 PUSH1 0x3 SWAP1 DUP15 SWAP1 PUSH1 0x4 ADD PUSH2 0x2AE6 JUMP JUMPDEST PUSH1 0x20 PUSH1 0x40 MLOAD DUP1 DUP4 SUB DUP2 DUP7 GAS STATICCALL ISZERO DUP1 ISZERO PUSH2 0x1E7F JUMPI RETURNDATASIZE PUSH1 0x0 DUP1 RETURNDATACOPY RETURNDATASIZE PUSH1 0x0 REVERT JUMPDEST POP POP POP POP PUSH1 0x40 MLOAD RETURNDATASIZE PUSH1 0x1F NOT PUSH1 0x1F DUP3 ADD AND DUP3 ADD DUP1 PUSH1 0x40 MSTORE POP DUP2 ADD SWAP1 PUSH2 0x1EA3 SWAP2 SWAP1 PUSH2 0x2AB7 JUMP JUMPDEST SWAP1 POP PUSH1 0x0 PUSH2 0x1EB1 DUP3 DUP5 PUSH2 0x2B28 JUMP JUMPDEST PUSH2 0x1EBB SWAP1 DUP13 PUSH2 0x2B3B JUMP JUMPDEST SWAP1 POP PUSH1 0x0 DUP8 PUSH1 0x1 PUSH1 0x1 PUSH1 0xA0 SHL SUB AND PUSH4 0x70A08231 PUSH2 0x1ED6 PUSH2 0x2516 JUMP JUMPDEST PUSH1 0x40 MLOAD PUSH1 0x1 PUSH1 0x1 PUSH1 0xE0 SHL SUB NOT PUSH1 0xE0 DUP5 SWAP1 SHL AND DUP2 MSTORE PUSH1 0x1 PUSH1 0x1 PUSH1 0xA0 SHL SUB SWAP1 SWAP2 AND PUSH1 0x4 DUP3 ADD MSTORE PUSH1 0x24 ADD PUSH1 0x20 PUSH1 0x40 MLOAD DUP1 DUP4 SUB DUP2 DUP7 GAS STATICCALL ISZERO DUP1 ISZERO PUSH2 0x1F1A JUMPI RETURNDATASIZE PUSH1 0x0 DUP1 RETURNDATACOPY RETURNDATASIZE PUSH1 0x0 REVERT JUMPDEST POP POP POP POP PUSH1 0x40 MLOAD RETURNDATASIZE PUSH1 0x1F NOT PUSH1 0x1F DUP3 ADD AND DUP3 ADD DUP1 PUSH1 0x40 MSTORE POP DUP2 ADD SWAP1 PUSH2 0x1F3E SWAP2 SWAP1 PUSH2 0x2AB7 JUMP JUMPDEST SWAP1 POP PUSH1 0x1 PUSH1 0x1 PUSH1 0xA0 SHL SUB DUP15 AND PUSH2 0x1F90 JUMPI PUSH1 0x40 MLOAD PUSH3 0x461BCD PUSH1 0xE5 SHL DUP2 MSTORE PUSH1 0x20 PUSH1 0x4 DUP3 ADD MSTORE PUSH1 0x17 PUSH1 0x24 DUP3 ADD MSTORE PUSH23 0x14DD18589B194C48191BD95CDD081B9BDD08195E1A5CDD PUSH1 0x4A SHL PUSH1 0x44 DUP3 ADD MSTORE PUSH1 0x64 ADD PUSH2 0x79A JUMP JUMPDEST PUSH1 0x1 PUSH1 0x1 PUSH1 0xA0 SHL SUB DUP14 AND PUSH2 0x1FE6 JUMPI PUSH1 0x40 MLOAD PUSH3 0x461BCD PUSH1 0xE5 SHL DUP2 MSTORE PUSH1 0x20 PUSH1 0x4 DUP3 ADD MSTORE PUSH1 0x17 PUSH1 0x24 DUP3 ADD MSTORE PUSH32 0x537461626C653220646F657374206E6F74206578697374000000000000000000 PUSH1 0x44 DUP3 ADD MSTORE PUSH1 0x64 ADD PUSH2 0x79A JUMP JUMPDEST PUSH1 0x0 DUP13 GT PUSH2 0x202D JUMPI PUSH1 0x40 MLOAD PUSH3 0x461BCD PUSH1 0xE5 SHL DUP2 MSTORE PUSH1 0x20 PUSH1 0x4 DUP3 ADD MSTORE PUSH1 0x14 PUSH1 0x24 DUP3 ADD MSTORE PUSH20 0x416D6F756E742063616E2774206265207A65726F PUSH1 0x60 SHL PUSH1 0x44 DUP3 ADD MSTORE PUSH1 0x64 ADD PUSH2 0x79A JUMP JUMPDEST DUP12 DUP2 LT ISZERO PUSH2 0x204D JUMPI PUSH1 0x40 MLOAD PUSH3 0x461BCD PUSH1 0xE5 SHL DUP2 MSTORE PUSH1 0x4 ADD PUSH2 0x79A SWAP1 PUSH2 0x2B4E JUMP JUMPDEST DUP12 DUP9 PUSH1 0x1 PUSH1 0x1 PUSH1 0xA0 SHL SUB AND PUSH4 0xDD62ED3E PUSH2 0x2065 PUSH2 0x2516 JUMP JUMPDEST PUSH1 0x40 MLOAD PUSH1 0x1 PUSH1 0x1 PUSH1 0xE0 SHL SUB NOT PUSH1 0xE0 DUP5 SWAP1 SHL AND DUP2 MSTORE PUSH1 0x1 PUSH1 0x1 PUSH1 0xA0 SHL SUB SWAP1 SWAP2 AND PUSH1 0x4 DUP3 ADD MSTORE ADDRESS PUSH1 0x24 DUP3 ADD MSTORE PUSH1 0x44 ADD PUSH1 0x20 PUSH1 0x40 MLOAD DUP1 DUP4 SUB DUP2 DUP7 GAS STATICCALL ISZERO DUP1 ISZERO PUSH2 0x20AF JUMPI RETURNDATASIZE PUSH1 0x0 DUP1 RETURNDATACOPY RETURNDATASIZE PUSH1 0x0 REVERT JUMPDEST POP POP POP POP PUSH1 0x40 MLOAD RETURNDATASIZE PUSH1 0x1F NOT PUSH1 0x1F DUP3 ADD AND DUP3 ADD DUP1 PUSH1 0x40 MSTORE POP DUP2 ADD SWAP1 PUSH2 0x20D3 SWAP2 SWAP1 PUSH2 0x2AB7 JUMP JUMPDEST LT ISZERO PUSH2 0x2118 JUMPI PUSH1 0x40 MLOAD PUSH3 0x461BCD PUSH1 0xE5 SHL DUP2 MSTORE PUSH1 0x20 PUSH1 0x4 DUP3 ADD MSTORE PUSH1 0x14 PUSH1 0x24 DUP3 ADD MSTORE PUSH20 0x82D8D8DEEEC2DCC6CA40DCDEE840CADCDEEACED PUSH1 0x63 SHL PUSH1 0x44 DUP3 ADD MSTORE PUSH1 0x64 ADD PUSH2 0x79A JUMP JUMPDEST PUSH1 0x0 DUP7 PUSH1 0x20 ADD MLOAD GT PUSH2 0x2176 JUMPI PUSH1 0x40 MLOAD PUSH3 0x461BCD PUSH1 0xE5 SHL DUP2 MSTORE PUSH1 0x20 PUSH1 0x4 DUP3 ADD MSTORE PUSH1 0x21 PUSH1 0x24 DUP3 ADD MSTORE PUSH32 0x537461626C653120507269636520686173206E6F74206265656E20646566696E PUSH1 0x44 DUP3 ADD MSTORE PUSH1 0x65 PUSH1 0xF8 SHL PUSH1 0x64 DUP3 ADD MSTORE PUSH1 0x84 ADD PUSH2 0x79A JUMP JUMPDEST PUSH1 0x0 DUP6 PUSH1 0x20 ADD MLOAD GT PUSH2 0x21D4 JUMPI PUSH1 0x40 MLOAD PUSH3 0x461BCD PUSH1 0xE5 SHL DUP2 MSTORE PUSH1 0x20 PUSH1 0x4 DUP3 ADD MSTORE PUSH1 0x21 PUSH1 0x24 DUP3 ADD MSTORE PUSH32 0x537461626C653220507269636520686173206E6F74206265656E20646566696E PUSH1 0x44 DUP3 ADD MSTORE PUSH1 0x65 PUSH1 0xF8 SHL PUSH1 0x64 DUP3 ADD MSTORE PUSH1 0x84 ADD PUSH2 0x79A JUMP JUMPDEST PUSH1 0x0 DUP7 PUSH1 0x20 ADD MLOAD PUSH1 0x7 SLOAD DUP5 PUSH2 0x21E9 SWAP2 SWAP1 PUSH2 0x2B78 JUMP JUMPDEST PUSH2 0x21F3 SWAP2 SWAP1 PUSH2 0x2B8F JUMP JUMPDEST SWAP1 POP DUP9 PUSH1 0x1 PUSH1 0x1 PUSH1 0xA0 SHL SUB AND PUSH4 0x79CC6790 PUSH2 0x220C PUSH2 0x2516 JUMP JUMPDEST DUP16 PUSH1 0x40 MLOAD DUP4 PUSH4 0xFFFFFFFF AND PUSH1 0xE0 SHL DUP2 MSTORE PUSH1 0x4 ADD PUSH2 0x222A SWAP3 SWAP2 SWAP1 PUSH2 0x2A9E JUMP JUMPDEST PUSH1 0x0 PUSH1 0x40 MLOAD DUP1 DUP4 SUB DUP2 PUSH1 0x0 DUP8 DUP1 EXTCODESIZE ISZERO DUP1 ISZERO PUSH2 0x2244 JUMPI PUSH1 0x0 DUP1 REVERT JUMPDEST POP GAS CALL ISZERO DUP1 ISZERO PUSH2 0x2258 JUMPI RETURNDATASIZE PUSH1 0x0 DUP1 RETURNDATACOPY RETURNDATASIZE PUSH1 0x0 REVERT JUMPDEST POP POP DUP12 MLOAD PUSH1 0x40 MLOAD PUSH4 0x40C10F19 PUSH1 0xE0 SHL DUP2 MSTORE PUSH1 0x1 PUSH1 0x1 PUSH1 0xA0 SHL SUB DUP13 AND SWAP4 POP PUSH4 0x40C10F19 SWAP3 POP PUSH2 0x228B SWAP2 SWAP1 DUP10 SWAP1 PUSH1 0x4 ADD PUSH2 0x2A9E JUMP JUMPDEST PUSH1 0x0 PUSH1 0x40 MLOAD DUP1 DUP4 SUB DUP2 PUSH1 0x0 DUP8 DUP1 EXTCODESIZE ISZERO DUP1 ISZERO PUSH2 0x22A5 JUMPI PUSH1 0x0 DUP1 REVERT JUMPDEST POP GAS CALL ISZERO DUP1 ISZERO PUSH2 0x22B9 JUMPI RETURNDATASIZE PUSH1 0x0 DUP1 RETURNDATACOPY RETURNDATASIZE PUSH1 0x0 REVERT JUMPDEST POP POP PUSH1 0x1 SLOAD PUSH1 0x40 MLOAD PUSH4 0x40C10F19 PUSH1 0xE0 SHL DUP2 MSTORE PUSH1 0x1 PUSH1 0x1 PUSH1 0xA0 SHL SUB DUP1 DUP14 AND SWAP5 POP PUSH4 0x40C10F19 SWAP4 POP PUSH2 0x22F4 SWAP3 PUSH2 0x100 SWAP1 DIV AND SWAP1 DUP9 SWAP1 PUSH1 0x4 ADD PUSH2 0x2A9E JUMP JUMPDEST PUSH1 0x0 PUSH1 0x40 MLOAD DUP1 DUP4 SUB DUP2 PUSH1 0x0 DUP8 DUP1 EXTCODESIZE ISZERO DUP1 ISZERO PUSH2 0x230E JUMPI PUSH1 0x0 DUP1 REVERT JUMPDEST POP GAS CALL ISZERO DUP1 ISZERO PUSH2 0x2322 JUMPI RETURNDATASIZE PUSH1 0x0 DUP1 RETURNDATACOPY RETURNDATASIZE PUSH1 0x0 REVERT JUMPDEST POP POP POP POP PUSH2 0x2336 DUP8 PUSH1 0x0 ADD MLOAD DUP3 PUSH1 0x1 PUSH2 0x2525 JUMP JUMPDEST POP PUSH1 0x0 PUSH1 0x7 SLOAD DUP8 PUSH1 0x20 ADD MLOAD DUP4 PUSH2 0x234C SWAP2 SWAP1 PUSH2 0x2B78 JUMP JUMPDEST PUSH2 0x2356 SWAP2 SWAP1 PUSH2 0x2B8F JUMP JUMPDEST SWAP1 POP DUP9 PUSH1 0x1 PUSH1 0x1 PUSH1 0xA0 SHL SUB AND PUSH4 0x40C10F19 PUSH2 0x236F PUSH2 0x2516 JUMP JUMPDEST DUP4 PUSH1 0x40 MLOAD DUP4 PUSH4 0xFFFFFFFF AND PUSH1 0xE0 SHL DUP2 MSTORE PUSH1 0x4 ADD PUSH2 0x238D SWAP3 SWAP2 SWAP1 PUSH2 0x2A9E JUMP JUMPDEST PUSH1 0x0 PUSH1 0x40 MLOAD DUP1 DUP4 SUB DUP2 PUSH1 0x0 DUP8 DUP1 EXTCODESIZE ISZERO DUP1 ISZERO PUSH2 0x23A7 JUMPI PUSH1 0x0 DUP1 REVERT JUMPDEST POP GAS CALL ISZERO DUP1 ISZERO PUSH2 0x23BB JUMPI RETURNDATASIZE PUSH1 0x0 DUP1 RETURNDATACOPY RETURNDATASIZE PUSH1 0x0 REVERT JUMPDEST POP POP POP POP PUSH2 0x23CF DUP8 PUSH1 0x0 ADD MLOAD DUP4 PUSH1 0x0 PUSH2 0x2525 JUMP JUMPDEST POP SWAP3 SWAP16 SWAP15 POP POP POP POP POP POP POP POP POP POP POP POP POP POP POP JUMP JUMPDEST PUSH1 0x0 PUSH2 0x2400 PUSH1 0x0 DUP1 MLOAD PUSH1 0x20 PUSH2 0x2CC3 DUP4 CODECOPY DUP2 MLOAD SWAP2 MSTORE PUSH2 0x45B PUSH2 0x2516 JUMP JUMPDEST PUSH2 0x241C JUMPI PUSH1 0x40 MLOAD PUSH3 0x461BCD PUSH1 0xE5 SHL DUP2 MSTORE PUSH1 0x4 ADD PUSH2 0x79A SWAP1 PUSH2 0x2BF2 JUMP JUMPDEST PUSH1 0x1 PUSH1 0x1 PUSH1 0xA0 SHL SUB DUP3 AND PUSH2 0x2472 JUMPI PUSH1 0x40 MLOAD PUSH3 0x461BCD PUSH1 0xE5 SHL DUP2 MSTORE PUSH1 0x20 PUSH1 0x4 DUP3 ADD MSTORE PUSH1 0x18 PUSH1 0x24 DUP3 ADD MSTORE PUSH32 0x6665654D616E616765722063616E2774206265206E756C6C0000000000000000 PUSH1 0x44 DUP3 ADD MSTORE PUSH1 0x64 ADD PUSH2 0x79A JUMP JUMPDEST POP PUSH1 0x5 DUP1 SLOAD PUSH1 0x1 PUSH1 0x1 PUSH1 0xA0 SHL SUB DUP4 AND PUSH1 0x1 PUSH1 0x1 PUSH1 0xA0 SHL SUB NOT SWAP1 SWAP2 AND OR SWAP1 SSTORE PUSH1 0x1 SWAP2 SWAP1 POP JUMP JUMPDEST PUSH1 0x0 DUP3 DUP2 MSTORE PUSH1 0x20 DUP2 SWAP1 MSTORE PUSH1 0x40 SWAP1 KECCAK256 PUSH1 0x1 ADD SLOAD PUSH2 0x24B2 DUP2 PUSH2 0x25F0 JUMP JUMPDEST PUSH2 0x1131 DUP4 DUP4 PUSH2 0x2697 JUMP JUMPDEST PUSH2 0x24D6 PUSH1 0x0 DUP1 MLOAD PUSH1 0x20 PUSH2 0x2CC3 DUP4 CODECOPY DUP2 MLOAD SWAP2 MSTORE PUSH2 0x45B PUSH2 0x2516 JUMP JUMPDEST PUSH2 0x1170 JUMPI PUSH1 0x40 MLOAD PUSH3 0x461BCD PUSH1 0xE5 SHL DUP2 MSTORE PUSH1 0x4 ADD PUSH2 0x79A SWAP1 PUSH2 0x2BF2 JUMP JUMPDEST PUSH1 0x1 SLOAD PUSH1 0xFF AND ISZERO PUSH2 0x1394 JUMPI PUSH1 0x40 MLOAD PUSH4 0xD93C0665 PUSH1 0xE0 SHL DUP2 MSTORE PUSH1 0x4 ADD PUSH1 0x40 MLOAD DUP1 SWAP2 SUB SWAP1 REVERT JUMPDEST PUSH1 0x0 PUSH2 0x2520 PUSH2 0x27B5 JUMP JUMPDEST SWAP1 POP SWAP1 JUMP JUMPDEST PUSH1 0x0 PUSH1 0x1 PUSH1 0x1 PUSH1 0xA0 SHL SUB DUP5 AND PUSH2 0x254D JUMPI PUSH1 0x40 MLOAD PUSH3 0x461BCD PUSH1 0xE5 SHL DUP2 MSTORE PUSH1 0x4 ADD PUSH2 0x79A SWAP1 PUSH2 0x2C29 JUMP JUMPDEST PUSH1 0x0 DUP3 PUSH1 0x1 DUP2 GT ISZERO PUSH2 0x2561 JUMPI PUSH2 0x2561 PUSH2 0x2AD0 JUMP JUMPDEST SUB PUSH2 0x259C JUMPI PUSH1 0x1 PUSH1 0x1 PUSH1 0xA0 SHL SUB DUP5 AND PUSH1 0x0 SWAP1 DUP2 MSTORE PUSH1 0x6 PUSH1 0x20 MSTORE PUSH1 0x40 DUP2 KECCAK256 PUSH1 0x2 ADD DUP1 SLOAD DUP6 SWAP3 SWAP1 PUSH2 0x2591 SWAP1 DUP5 SWAP1 PUSH2 0x2B28 JUMP JUMPDEST SWAP1 SWAP2 SSTORE POP PUSH2 0x25E6 SWAP1 POP JUMP JUMPDEST PUSH1 0x0 DUP3 PUSH1 0x1 DUP2 GT ISZERO PUSH2 0x25B0 JUMPI PUSH2 0x25B0 PUSH2 0x2AD0 JUMP JUMPDEST SUB PUSH2 0x25E6 JUMPI PUSH1 0x1 PUSH1 0x1 PUSH1 0xA0 SHL SUB DUP5 AND PUSH1 0x0 SWAP1 DUP2 MSTORE PUSH1 0x6 PUSH1 0x20 MSTORE PUSH1 0x40 DUP2 KECCAK256 PUSH1 0x2 ADD DUP1 SLOAD DUP6 SWAP3 SWAP1 PUSH2 0x25E0 SWAP1 DUP5 SWAP1 PUSH2 0x2B3B JUMP JUMPDEST SWAP1 SWAP2 SSTORE POP POP JUMPDEST POP PUSH1 0x0 SWAP4 SWAP3 POP POP POP JUMP JUMPDEST PUSH2 0x2601 DUP2 PUSH2 0x25FC PUSH2 0x2516 JUMP JUMPDEST PUSH2 0x27F9 JUMP JUMPDEST POP JUMP JUMPDEST PUSH1 0x0 PUSH2 0x2610 DUP4 DUP4 PUSH2 0x14DB JUMP JUMPDEST PUSH2 0x268F JUMPI PUSH1 0x0 DUP4 DUP2 MSTORE PUSH1 0x20 DUP2 DUP2 MSTORE PUSH1 0x40 DUP1 DUP4 KECCAK256 PUSH1 0x1 PUSH1 0x1 PUSH1 0xA0 SHL SUB DUP7 AND DUP5 MSTORE SWAP1 SWAP2 MSTORE SWAP1 KECCAK256 DUP1 SLOAD PUSH1 0xFF NOT AND PUSH1 0x1 OR SWAP1 SSTORE PUSH2 0x2647 PUSH2 0x2516 JUMP JUMPDEST PUSH1 0x1 PUSH1 0x1 PUSH1 0xA0 SHL SUB AND DUP3 PUSH1 0x1 PUSH1 0x1 PUSH1 0xA0 SHL SUB AND DUP5 PUSH32 0x2F8788117E7EFF1D82E926EC794901D17C78024A50270940304540A733656F0D PUSH1 0x40 MLOAD PUSH1 0x40 MLOAD DUP1 SWAP2 SUB SWAP1 LOG4 POP PUSH1 0x1 PUSH2 0x5A9 JUMP JUMPDEST POP PUSH1 0x0 PUSH2 0x5A9 JUMP JUMPDEST PUSH1 0x0 PUSH2 0x26A3 DUP4 DUP4 PUSH2 0x14DB JUMP JUMPDEST ISZERO PUSH2 0x268F JUMPI PUSH1 0x0 DUP4 DUP2 MSTORE PUSH1 0x20 DUP2 DUP2 MSTORE PUSH1 0x40 DUP1 DUP4 KECCAK256 PUSH1 0x1 PUSH1 0x1 PUSH1 0xA0 SHL SUB DUP7 AND DUP5 MSTORE SWAP1 SWAP2 MSTORE SWAP1 KECCAK256 DUP1 SLOAD PUSH1 0xFF NOT AND SWAP1 SSTORE PUSH2 0x26D8 PUSH2 0x2516 JUMP JUMPDEST PUSH1 0x1 PUSH1 0x1 PUSH1 0xA0 SHL SUB AND DUP3 PUSH1 0x1 PUSH1 0x1 PUSH1 0xA0 SHL SUB AND DUP5 PUSH32 0xF6391F5C32D9C69D2A47EA670B442974B53935D1EDC7FD64EB21E047A839171B PUSH1 0x40 MLOAD PUSH1 0x40 MLOAD DUP1 SWAP2 SUB SWAP1 LOG4 POP PUSH1 0x1 PUSH2 0x5A9 JUMP JUMPDEST PUSH2 0x2728 PUSH2 0x2828 JUMP JUMPDEST PUSH1 0x1 DUP1 SLOAD PUSH1 0xFF NOT AND SWAP1 SSTORE PUSH32 0x5DB9EE0A495BF2E6FF9C91A7834C1BA4FDD244A5E8AA4E537BD38AEAE4B073AA PUSH2 0x275B PUSH2 0x2516 JUMP JUMPDEST PUSH1 0x40 MLOAD PUSH1 0x1 PUSH1 0x1 PUSH1 0xA0 SHL SUB SWAP1 SWAP2 AND DUP2 MSTORE PUSH1 0x20 ADD PUSH1 0x40 MLOAD DUP1 SWAP2 SUB SWAP1 LOG1 JUMP JUMPDEST PUSH2 0x2780 PUSH2 0x24F2 JUMP JUMPDEST PUSH1 0x1 DUP1 SLOAD PUSH1 0xFF NOT AND DUP2 OR SWAP1 SSTORE PUSH32 0x62E78CEA01BEE320CD4E420270B5EA74000D11B0C9F74754EBDBFC544B05A258 PUSH2 0x275B PUSH2 0x2516 JUMP JUMPDEST PUSH1 0x0 PUSH32 0x0 PUSH1 0x1 PUSH1 0x1 PUSH1 0xA0 SHL SUB AND CALLER SUB PUSH2 0x27F4 JUMPI POP PUSH1 0x13 NOT CALLDATASIZE ADD CALLDATALOAD PUSH1 0x60 SHR SWAP1 JUMP JUMPDEST POP CALLER SWAP1 JUMP JUMPDEST PUSH2 0x2803 DUP3 DUP3 PUSH2 0x14DB JUMP JUMPDEST PUSH2 0x2824 JUMPI DUP1 DUP3 PUSH1 0x40 MLOAD PUSH4 0xE2517D3F PUSH1 0xE0 SHL DUP2 MSTORE PUSH1 0x4 ADD PUSH2 0x79A SWAP3 SWAP2 SWAP1 PUSH2 0x2A9E JUMP JUMPDEST POP POP JUMP JUMPDEST PUSH1 0x1 SLOAD PUSH1 0xFF AND PUSH2 0x1394 JUMPI PUSH1 0x40 MLOAD PUSH4 0x8DFC202B PUSH1 0xE0 SHL DUP2 MSTORE PUSH1 0x4 ADD PUSH1 0x40 MLOAD DUP1 SWAP2 SUB SWAP1 REVERT JUMPDEST PUSH1 0x40 MLOAD DUP1 PUSH1 0x80 ADD PUSH1 0x40 MSTORE DUP1 PUSH1 0x0 PUSH1 0x1 PUSH1 0x1 PUSH1 0xA0 SHL SUB AND DUP2 MSTORE PUSH1 0x20 ADD PUSH1 0x0 DUP2 MSTORE PUSH1 0x20 ADD PUSH1 0x0 DUP2 MSTORE PUSH1 0x20 ADD PUSH1 0x0 ISZERO ISZERO DUP2 MSTORE POP SWAP1 JUMP JUMPDEST PUSH1 0x0 PUSH1 0x20 DUP3 DUP5 SUB SLT ISZERO PUSH2 0x2890 JUMPI PUSH1 0x0 DUP1 REVERT JUMPDEST DUP2 CALLDATALOAD PUSH1 0x1 PUSH1 0x1 PUSH1 0xE0 SHL SUB NOT DUP2 AND DUP2 EQ PUSH2 0x28A8 JUMPI PUSH1 0x0 DUP1 REVERT JUMPDEST SWAP4 SWAP3 POP POP POP JUMP JUMPDEST PUSH1 0x1 PUSH1 0x1 PUSH1 0xA0 SHL SUB DUP2 AND DUP2 EQ PUSH2 0x2601 JUMPI PUSH1 0x0 DUP1 REVERT JUMPDEST PUSH1 0x0 DUP1 PUSH1 0x0 PUSH1 0x60 DUP5 DUP7 SUB SLT ISZERO PUSH2 0x28D9 JUMPI PUSH1 0x0 DUP1 REVERT JUMPDEST DUP4 CALLDATALOAD PUSH2 0x28E4 DUP2 PUSH2 0x28AF JUMP JUMPDEST SWAP3 POP PUSH1 0x20 DUP5 ADD CALLDATALOAD SWAP2 POP PUSH1 0x40 DUP5 ADD CALLDATALOAD PUSH2 0x28FB DUP2 PUSH2 0x28AF JUMP JUMPDEST DUP1 SWAP2 POP POP SWAP3 POP SWAP3 POP SWAP3 JUMP JUMPDEST PUSH1 0x0 PUSH1 0x20 DUP3 DUP5 SUB SLT ISZERO PUSH2 0x2918 JUMPI PUSH1 0x0 DUP1 REVERT JUMPDEST POP CALLDATALOAD SWAP2 SWAP1 POP JUMP JUMPDEST PUSH1 0x0 DUP1 PUSH1 0x0 DUP1 PUSH1 0x80 DUP6 DUP8 SUB SLT ISZERO PUSH2 0x2935 JUMPI PUSH1 0x0 DUP1 REVERT JUMPDEST DUP5 CALLDATALOAD PUSH2 0x2940 DUP2 PUSH2 0x28AF JUMP JUMPDEST SWAP4 POP PUSH1 0x20 DUP6 ADD CALLDATALOAD PUSH2 0x2950 DUP2 PUSH2 0x28AF JUMP JUMPDEST SWAP3 POP PUSH1 0x40 DUP6 ADD CALLDATALOAD SWAP2 POP PUSH1 0x60 DUP6 ADD CALLDATALOAD PUSH2 0x2967 DUP2 PUSH2 0x28AF JUMP JUMPDEST SWAP4 SWAP7 SWAP3 SWAP6 POP SWAP1 SWAP4 POP POP JUMP JUMPDEST PUSH1 0x0 PUSH1 0x20 DUP3 DUP5 SUB SLT ISZERO PUSH2 0x2984 JUMPI PUSH1 0x0 DUP1 REVERT JUMPDEST DUP2 CALLDATALOAD PUSH2 0x28A8 DUP2 PUSH2 0x28AF JUMP JUMPDEST PUSH1 0x0 DUP1 PUSH1 0x40 DUP4 DUP6 SUB SLT ISZERO PUSH2 0x29A2 JUMPI PUSH1 0x0 DUP1 REVERT JUMPDEST DUP3 CALLDATALOAD SWAP2 POP PUSH1 0x20 DUP4 ADD CALLDATALOAD PUSH2 0x29B4 DUP2 PUSH2 0x28AF JUMP JUMPDEST DUP1 SWAP2 POP POP SWAP3 POP SWAP3 SWAP1 POP JUMP JUMPDEST DUP1 ISZERO ISZERO DUP2 EQ PUSH2 0x2601 JUMPI PUSH1 0x0 DUP1 REVERT JUMPDEST PUSH1 0x0 DUP1 PUSH1 0x0 DUP1 PUSH1 0x80 DUP6 DUP8 SUB SLT ISZERO PUSH2 0x29E3 JUMPI PUSH1 0x0 DUP1 REVERT JUMPDEST DUP5 CALLDATALOAD PUSH2 0x29EE DUP2 PUSH2 0x28AF JUMP JUMPDEST SWAP4 POP PUSH1 0x20 DUP6 ADD CALLDATALOAD SWAP3 POP PUSH1 0x40 DUP6 ADD CALLDATALOAD SWAP2 POP PUSH1 0x60 DUP6 ADD CALLDATALOAD PUSH2 0x2967 DUP2 PUSH2 0x29BF JUMP JUMPDEST PUSH1 0x0 DUP1 PUSH1 0x40 DUP4 DUP6 SUB SLT ISZERO PUSH2 0x2A1F JUMPI PUSH1 0x0 DUP1 REVERT JUMPDEST DUP3 CALLDATALOAD PUSH2 0x2A2A DUP2 PUSH2 0x28AF JUMP JUMPDEST SWAP5 PUSH1 0x20 SWAP4 SWAP1 SWAP4 ADD CALLDATALOAD SWAP4 POP POP POP JUMP JUMPDEST PUSH1 0x0 PUSH1 0x40 DUP3 DUP5 SUB SLT ISZERO PUSH2 0x2A4A JUMPI PUSH1 0x0 DUP1 REVERT JUMPDEST PUSH1 0x40 MLOAD PUSH1 0x40 DUP2 ADD DUP2 DUP2 LT PUSH8 0xFFFFFFFFFFFFFFFF DUP3 GT OR ISZERO PUSH2 0x2A7B JUMPI PUSH4 0x4E487B71 PUSH1 0xE0 SHL PUSH1 0x0 MSTORE PUSH1 0x41 PUSH1 0x4 MSTORE PUSH1 0x24 PUSH1 0x0 REVERT JUMPDEST PUSH1 0x40 MSTORE DUP3 MLOAD PUSH2 0x2A89 DUP2 PUSH2 0x28AF JUMP JUMPDEST DUP2 MSTORE PUSH1 0x20 SWAP3 DUP4 ADD MLOAD SWAP3 DUP2 ADD SWAP3 SWAP1 SWAP3 MSTORE POP SWAP2 SWAP1 POP JUMP JUMPDEST PUSH1 0x1 PUSH1 0x1 PUSH1 0xA0 SHL SUB SWAP3 SWAP1 SWAP3 AND DUP3 MSTORE PUSH1 0x20 DUP3 ADD MSTORE PUSH1 0x40 ADD SWAP1 JUMP JUMPDEST PUSH1 0x0 PUSH1 0x20 DUP3 DUP5 SUB SLT ISZERO PUSH2 0x2AC9 JUMPI PUSH1 0x0 DUP1 REVERT JUMPDEST POP MLOAD SWAP2 SWAP1 POP JUMP JUMPDEST PUSH4 0x4E487B71 PUSH1 0xE0 SHL PUSH1 0x0 MSTORE PUSH1 0x21 PUSH1 0x4 MSTORE PUSH1 0x24 PUSH1 0x0 REVERT JUMPDEST PUSH1 0x40 DUP2 ADD PUSH1 0x6 DUP5 LT PUSH2 0x2B08 JUMPI PUSH4 0x4E487B71 PUSH1 0xE0 SHL PUSH1 0x0 MSTORE PUSH1 0x21 PUSH1 0x4 MSTORE PUSH1 0x24 PUSH1 0x0 REVERT JUMPDEST SWAP3 DUP2 MSTORE PUSH1 0x20 ADD MSTORE SWAP1 JUMP JUMPDEST PUSH4 0x4E487B71 PUSH1 0xE0 SHL PUSH1 0x0 MSTORE PUSH1 0x11 PUSH1 0x4 MSTORE PUSH1 0x24 PUSH1 0x0 REVERT JUMPDEST DUP1 DUP3 ADD DUP1 DUP3 GT ISZERO PUSH2 0x5A9 JUMPI PUSH2 0x5A9 PUSH2 0x2B12 JUMP JUMPDEST DUP2 DUP2 SUB DUP2 DUP2 GT ISZERO PUSH2 0x5A9 JUMPI PUSH2 0x5A9 PUSH2 0x2B12 JUMP JUMPDEST PUSH1 0x20 DUP1 DUP3 MSTORE PUSH1 0x10 SWAP1 DUP3 ADD MSTORE PUSH16 0xA8DED6CADC40DCDEE840CADCDEEACED PUSH1 0x83 SHL PUSH1 0x40 DUP3 ADD MSTORE PUSH1 0x60 ADD SWAP1 JUMP JUMPDEST DUP1 DUP3 MUL DUP2 ISZERO DUP3 DUP3 DIV DUP5 EQ OR PUSH2 0x5A9 JUMPI PUSH2 0x5A9 PUSH2 0x2B12 JUMP JUMPDEST PUSH1 0x0 DUP3 PUSH2 0x2BAC JUMPI PUSH4 0x4E487B71 PUSH1 0xE0 SHL PUSH1 0x0 MSTORE PUSH1 0x12 PUSH1 0x4 MSTORE PUSH1 0x24 PUSH1 0x0 REVERT JUMPDEST POP DIV SWAP1 JUMP JUMPDEST PUSH1 0x0 PUSH1 0x20 DUP3 DUP5 SUB SLT ISZERO PUSH2 0x2BC3 JUMPI PUSH1 0x0 DUP1 REVERT JUMPDEST DUP2 MLOAD PUSH2 0x28A8 DUP2 PUSH2 0x29BF JUMP JUMPDEST PUSH1 0x1 PUSH1 0x1 PUSH1 0xA0 SHL SUB SWAP4 DUP5 AND DUP2 MSTORE SWAP2 SWAP1 SWAP3 AND PUSH1 0x20 DUP3 ADD MSTORE PUSH1 0x40 DUP2 ADD SWAP2 SWAP1 SWAP2 MSTORE PUSH1 0x60 ADD SWAP1 JUMP JUMPDEST PUSH1 0x20 DUP1 DUP3 MSTORE PUSH1 0x19 SWAP1 DUP3 ADD MSTORE PUSH32 0x4D75737420686176652041444D494E5F524F4C4520726F6C6500000000000000 PUSH1 0x40 DUP3 ADD MSTORE PUSH1 0x60 ADD SWAP1 JUMP JUMPDEST PUSH1 0x20 DUP1 DUP3 MSTORE PUSH1 0x2B SWAP1 DUP3 ADD MSTORE PUSH32 0x537461626C654D616E616765723A20746F6B656E20616464726573732063616E PUSH1 0x40 DUP3 ADD MSTORE PUSH11 0x6E6F74206265207A65726F PUSH1 0xA8 SHL PUSH1 0x60 DUP3 ADD MSTORE PUSH1 0x80 ADD SWAP1 JUMP JUMPDEST PUSH1 0x20 DUP1 DUP3 MSTORE PUSH1 0x2E SWAP1 DUP3 ADD MSTORE PUSH32 0x537461626C654D616E616765723A207072696365206D75737420626520677265 PUSH1 0x40 DUP3 ADD MSTORE PUSH14 0x61746572207468616E207A65726F PUSH1 0x90 SHL PUSH1 0x60 DUP3 ADD MSTORE PUSH1 0x80 ADD SWAP1 JUMP INVALID LOG4 SWAP9 SMOD KECCAK256 0x5C 0xE4 0xD3 SSTORE MULMOD 0x2E CREATE2 0xA8 LOG1 DUP16 JUMP 0xE8 SWAP2 EXTCODECOPY DELEGATECALL LOG2 ADD 0xFB 0xE2 DUP8 DUP3 JUMPDEST MULMOD JUMP SWAP4 0xC2 OR PUSH22 0xA26469706673582212200C7685A741D21F9456CC6383 0x28 0x5C PC 0x2A PUSH21 0x964F0497D3E8DC887EF598B412DA1B64736F6C6343 STOP ADDMOD EQ STOP CALLER "},"methodIdentifiers":{"ADMIN_ROLE()":"75b238fc","AUSDToken()":"dad0cf9c","DEFAULT_ADMIN_ROLE()":"a217fddf","MANAGER_ROLE()":"ec87621c","USDToken()":"86c59418","addStable(address,uint256,uint256,bool)":"3b33b2d5","burnStable(address,uint256,address)":"167f4deb","changeFeeCollector(address)":"9245290d","changeFeeManager(address)":"bfc810b6","changeUSD(address)":"2d0a9eaa","feeCollector()":"c415b95c","feeManager()":"d0fb0203","getRoleAdmin(bytes32)":"248a9ca3","getStable(address)":"2e6a3e35","grantNewRole(bytes32,address)":"46a0300c","grantRole(bytes32,address)":"2f2ff15d","hasRole(bytes32,address)":"91d14854","isTrustedForwarder(address)":"572b6c05","lendingPool()":"a59a9973","mintStable(address,uint256,address)":"a7ed89d1","pause()":"8456cb59","paused()":"5c975abb","removeStableByAddress(address)":"7ab86f74","renounceRole(bytes32,address)":"36568abe","revokeRole(bytes32,address)":"d547741f","revoveRole(bytes32,address)":"e2520bd0","sendStable(address,address,uint256,address)":"29ca20ca","stableTrade(address,address,uint256,address)":"bfb8058c","stables(address)":"4743a510","supportsInterface(bytes4)":"01ffc9a7","unpause()":"3f4ba83a","updateStableByAddress(address,uint256,uint256,bool)":"91f0462c","updateStablePrice(address,uint256)":"94d188e0"}}}}}