{"contracts/StableManager.sol":{"StableManager":{"abi":[{"inputs":[{"internalType":"address","name":"trustedForwarder","type":"address"}],"stateMutability":"nonpayable","type":"constructor"},{"inputs":[],"name":"AccessControlBadConfirmation","type":"error"},{"inputs":[{"internalType":"address","name":"account","type":"address"},{"internalType":"bytes32","name":"neededRole","type":"bytes32"}],"name":"AccessControlUnauthorizedAccount","type":"error"},{"inputs":[],"name":"EnforcedPause","type":"error"},{"inputs":[],"name":"ExpectedPause","type":"error"},{"anonymous":false,"inputs":[{"indexed":false,"internalType":"address","name":"account","type":"address"}],"name":"Paused","type":"event"},{"anonymous":false,"inputs":[{"indexed":true,"internalType":"bytes32","name":"role","type":"bytes32"},{"indexed":true,"internalType":"bytes32","name":"previousAdminRole","type":"bytes32"},{"indexed":true,"internalType":"bytes32","name":"newAdminRole","type":"bytes32"}],"name":"RoleAdminChanged","type":"event"},{"anonymous":false,"inputs":[{"indexed":true,"internalType":"bytes32","name":"role","type":"bytes32"},{"indexed":true,"internalType":"address","name":"account","type":"address"},{"indexed":true,"internalType":"address","name":"sender","type":"address"}],"name":"RoleGranted","type":"event"},{"anonymous":false,"inputs":[{"indexed":true,"internalType":"bytes32","name":"role","type":"bytes32"},{"indexed":true,"internalType":"address","name":"account","type":"address"},{"indexed":true,"internalType":"address","name":"sender","type":"address"}],"name":"RoleRevoked","type":"event"},{"anonymous":false,"inputs":[{"indexed":false,"internalType":"address","name":"account","type":"address"}],"name":"Unpaused","type":"event"},{"inputs":[],"name":"ADMIN_ROLE","outputs":[{"internalType":"bytes32","name":"","type":"bytes32"}],"stateMutability":"view","type":"function"},{"inputs":[],"name":"AUSDToken","outputs":[{"internalType":"contract IERC20","name":"","type":"address"}],"stateMutability":"view","type":"function"},{"inputs":[],"name":"DEFAULT_ADMIN_ROLE","outputs":[{"internalType":"bytes32","name":"","type":"bytes32"}],"stateMutability":"view","type":"function"},{"inputs":[],"name":"MANAGER_ROLE","outputs":[{"internalType":"bytes32","name":"","type":"bytes32"}],"stateMutability":"view","type":"function"},{"inputs":[],"name":"USDToken","outputs":[{"internalType":"contract IERC20","name":"","type":"address"}],"stateMutability":"view","type":"function"},{"inputs":[{"internalType":"contract ERC20Stable","name":"tokenAddress","type":"address"},{"internalType":"uint256","name":"priceInit","type":"uint256"},{"internalType":"uint256","name":"tokenReserve","type":"uint256"},{"internalType":"bool","name":"tradable","type":"bool"}],"name":"addStable","outputs":[{"components":[{"internalType":"contract ERC20Stable","name":"tokenAddress","type":"address"},{"internalType":"uint256","name":"price","type":"uint256"},{"internalType":"uint256","name":"tokenReserve","type":"uint256"},{"internalType":"bool","name":"tradable","type":"bool"}],"internalType":"struct StableManager.Stable","name":"","type":"tuple"}],"stateMutability":"nonpayable","type":"function"},{"inputs":[{"internalType":"address","name":"tokenAddress","type":"address"},{"internalType":"uint256","name":"amount","type":"uint256"},{"internalType":"address","name":"partner","type":"address"}],"name":"burnStable","outputs":[{"internalType":"bool","name":"","type":"bool"}],"stateMutability":"nonpayable","type":"function"},{"inputs":[{"internalType":"address","name":"_feeCollector","type":"address"}],"name":"changeFeeCollector","outputs":[{"internalType":"bool","name":"","type":"bool"}],"stateMutability":"nonpayable","type":"function"},{"inputs":[{"internalType":"address","name":"_feeManager","type":"address"}],"name":"changeFeeManager","outputs":[{"internalType":"bool","name":"","type":"bool"}],"stateMutability":"nonpayable","type":"function"},{"inputs":[{"internalType":"address","name":"usdToken","type":"address"}],"name":"changeUSD","outputs":[{"internalType":"bool","name":"","type":"bool"}],"stateMutability":"nonpayable","type":"function"},{"inputs":[],"name":"feeCollector","outputs":[{"internalType":"address","name":"","type":"address"}],"stateMutability":"view","type":"function"},{"inputs":[],"name":"feeManager","outputs":[{"internalType":"contract FeeManager","name":"","type":"address"}],"stateMutability":"view","type":"function"},{"inputs":[{"internalType":"bytes32","name":"role","type":"bytes32"}],"name":"getRoleAdmin","outputs":[{"internalType":"bytes32","name":"","type":"bytes32"}],"stateMutability":"view","type":"function"},{"inputs":[{"internalType":"address","name":"tokenAddress","type":"address"}],"name":"getStable","outputs":[{"components":[{"internalType":"contract ERC20Stable","name":"tokenAddress","type":"address"},{"internalType":"uint256","name":"price","type":"uint256"},{"internalType":"uint256","name":"tokenReserve","type":"uint256"},{"internalType":"bool","name":"tradable","type":"bool"}],"internalType":"struct StableManager.Stable","name":"","type":"tuple"}],"stateMutability":"view","type":"function"},{"inputs":[{"internalType":"bytes32","name":"role","type":"bytes32"},{"internalType":"address","name":"account","type":"address"}],"name":"grantNewRole","outputs":[],"stateMutability":"nonpayable","type":"function"},{"inputs":[{"internalType":"bytes32","name":"role","type":"bytes32"},{"internalType":"address","name":"account","type":"address"}],"name":"grantRole","outputs":[],"stateMutability":"nonpayable","type":"function"},{"inputs":[{"internalType":"bytes32","name":"role","type":"bytes32"},{"internalType":"address","name":"account","type":"address"}],"name":"hasRole","outputs":[{"internalType":"bool","name":"","type":"bool"}],"stateMutability":"view","type":"function"},{"inputs":[{"internalType":"address","name":"forwarder","type":"address"}],"name":"isTrustedForwarder","outputs":[{"internalType":"bool","name":"","type":"bool"}],"stateMutability":"view","type":"function"},{"inputs":[],"name":"lendingPool","outputs":[{"internalType":"contract ILendingPool","name":"","type":"address"}],"stateMutability":"view","type":"function"},{"inputs":[{"internalType":"address","name":"tokenAddress","type":"address"},{"internalType":"uint256","name":"usdAmount","type":"uint256"},{"internalType":"address","name":"partner","type":"address"}],"name":"mintStable","outputs":[{"internalType":"bool","name":"","type":"bool"}],"stateMutability":"nonpayable","type":"function"},{"inputs":[],"name":"pause","outputs":[],"stateMutability":"nonpayable","type":"function"},{"inputs":[],"name":"paused","outputs":[{"internalType":"bool","name":"","type":"bool"}],"stateMutability":"view","type":"function"},{"inputs":[{"internalType":"contract ERC20Stable","name":"tokenAddress","type":"address"}],"name":"removeStableByAddress","outputs":[{"components":[{"internalType":"contract ERC20Stable","name":"tokenAddress","type":"address"},{"internalType":"uint256","name":"price","type":"uint256"},{"internalType":"uint256","name":"tokenReserve","type":"uint256"},{"internalType":"bool","name":"tradable","type":"bool"}],"internalType":"struct StableManager.Stable","name":"","type":"tuple"}],"stateMutability":"nonpayable","type":"function"},{"inputs":[{"internalType":"bytes32","name":"role","type":"bytes32"},{"internalType":"address","name":"callerConfirmation","type":"address"}],"name":"renounceRole","outputs":[],"stateMutability":"nonpayable","type":"function"},{"inputs":[{"internalType":"bytes32","name":"role","type":"bytes32"},{"internalType":"address","name":"account","type":"address"}],"name":"revokeRole","outputs":[],"stateMutability":"nonpayable","type":"function"},{"inputs":[{"internalType":"bytes32","name":"role","type":"bytes32"},{"internalType":"address","name":"account","type":"address"}],"name":"revoveRole","outputs":[],"stateMutability":"nonpayable","type":"function"},{"inputs":[{"internalType":"address","name":"ercAddress","type":"address"},{"internalType":"address","name":"to","type":"address"},{"internalType":"uint256","name":"amount","type":"uint256"},{"internalType":"address","name":"partner","type":"address"}],"name":"sendStable","outputs":[{"internalType":"bool","name":"","type":"bool"}],"stateMutability":"nonpayable","type":"function"},{"inputs":[{"internalType":"address","name":"_stable1","type":"address"},{"internalType":"address","name":"_stable2","type":"address"},{"internalType":"uint256","name":"amount","type":"uint256"},{"internalType":"address","name":"partner","type":"address"}],"name":"stableTrade","outputs":[{"internalType":"bool","name":"","type":"bool"}],"stateMutability":"nonpayable","type":"function"},{"inputs":[{"internalType":"address","name":"","type":"address"}],"name":"stables","outputs":[{"internalType":"contract ERC20Stable","name":"tokenAddress","type":"address"},{"internalType":"uint256","name":"price","type":"uint256"},{"internalType":"uint256","name":"tokenReserve","type":"uint256"},{"internalType":"bool","name":"tradable","type":"bool"}],"stateMutability":"view","type":"function"},{"inputs":[{"internalType":"bytes4","name":"interfaceId","type":"bytes4"}],"name":"supportsInterface","outputs":[{"internalType":"bool","name":"","type":"bool"}],"stateMutability":"view","type":"function"},{"inputs":[],"name":"unpause","outputs":[],"stateMutability":"nonpayable","type":"function"},{"inputs":[{"internalType":"contract ERC20Stable","name":"tokenAddress","type":"address"},{"internalType":"uint256","name":"price","type":"uint256"},{"internalType":"uint256","name":"tokenReserve","type":"uint256"},{"internalType":"bool","name":"tradable","type":"bool"}],"name":"updateStableByAddress","outputs":[{"components":[{"internalType":"contract ERC20Stable","name":"tokenAddress","type":"address"},{"internalType":"uint256","name":"price","type":"uint256"},{"internalType":"uint256","name":"tokenReserve","type":"uint256"},{"internalType":"bool","name":"tradable","type":"bool"}],"internalType":"struct StableManager.Stable","name":"","type":"tuple"}],"stateMutability":"nonpayable","type":"function"},{"inputs":[{"internalType":"contract ERC20Stable","name":"tokenAddress","type":"address"},{"internalType":"uint256","name":"newPrice","type":"uint256"}],"name":"updateStablePrice","outputs":[{"internalType":"bool","name":"","type":"bool"}],"stateMutability":"nonpayable","type":"function"}],"evm":{"bytecode":{"linkReferences":{},"object":"60a0604052620f424060075560646008556127106009553480156200002357600080fd5b50604051620030ef380380620030ef8339810160408190526200004691620001f6565b6001600160a01b0381166080526001805460ff19169055620000676200010c565b600180546001600160a01b039290921661010002610100600160a81b0319909216919091179055620000a460006200009e6200010c565b6200011d565b50620000d47fa49807205ce4d355092ef5a8a18f56e8913cf4a201fbe287825b095693c217756200009e6200010c565b50620001047f241ecf16d79d0f8dbfb92cbc07fe17840425976cf0667f022fe9877caa831b086200009e6200010c565b505062000228565b600062000118620001ce565b905090565b6000828152602081815260408083206001600160a01b038516845290915281205460ff16620001c4576000838152602081815260408083206001600160a01b03861684529091529020805460ff191660011790556200017b6200010c565b6001600160a01b0316826001600160a01b0316847f2f8788117e7eff1d82e926ec794901d17c78024a50270940304540a733656f0d60405160405180910390a4506001620001c8565b5060005b92915050565b6080516000906001600160a01b03163303620001f1575060131936013560601c90565b503390565b6000602082840312156200020957600080fd5b81516001600160a01b03811681146200022157600080fd5b9392505050565b608051612ea46200024b600039600081816103b701526129100152612ea46000f3fe608060405234801561001057600080fd5b50600436106101fb5760003560e01c80638456cb591161011a578063a7ed89d1116100ad578063d0fb02031161007c578063d0fb020314610505578063d547741f14610518578063dad0cf9c1461052b578063e2520bd01461053e578063ec87621c1461055157600080fd5b8063a7ed89d1146104b4578063bfb8058c146104c7578063bfc810b6146104da578063c415b95c146104ed57600080fd5b80639245290d116100e95780639245290d1461047357806394d188e014610486578063a217fddf14610499578063a59a9973146104a157600080fd5b80638456cb591461041a57806386c594181461042257806391d148541461044d57806391f0462c1461046057600080fd5b80633b33b2d511610192578063572b6c0511610161578063572b6c05146103a75780635c975abb146103e757806375b238fc146103f25780637ab86f741461040757600080fd5b80633b33b2d51461030b5780633f4ba83a1461031e57806346a0300c146103265780634743a5101461033957600080fd5b80632d0a9eaa116101ce5780632d0a9eaa1461027f5780632e6a3e35146102925780632f2ff15d146102e357806336568abe146102f857600080fd5b806301ffc9a714610200578063167f4deb14610228578063248a9ca31461023b57806329ca20ca1461026c575b600080fd5b61021361020e3660046129d5565b610578565b60405190151581526020015b60405180910390f35b610213610236366004612a1b565b6105af565b61025e610249366004612a5d565b60009081526020819052604090206001015490565b60405190815260200161021f565b61021361027a366004612a76565b610baf565b61021361028d366004612ac9565b6110cf565b6102a56102a0366004612ac9565b61117c565b60405161021f919081516001600160a01b03168152602080830151908201526040808301519082015260609182015115159181019190915260800190565b6102f66102f1366004612ae6565b6111da565b005b6102f6610306366004612ae6565b611205565b6102a5610319366004612b24565b61124d565b6102f6611424565b6102f6610334366004612ae6565b611464565b61037b610347366004612ac9565b60066020526000908152604090208054600182015460028301546003909301546001600160a01b0390921692909160ff1684565b604080516001600160a01b0390951685526020850193909352918301521515606082015260800161021f565b6102136103b5366004612ac9565b7f00000000000000000000000000000000000000000000000000000000000000006001600160a01b0390811691161490565b60015460ff16610213565b61025e600080516020612e4f83398151915281565b6102a5610415366004612ac9565b6114a4565b6102f661156b565b600354610435906001600160a01b031681565b6040516001600160a01b03909116815260200161021f565b61021361045b366004612ae6565b6115a9565b6102a561046e366004612b24565b6115d2565b610213610481366004612ac9565b6116f8565b610213610494366004612b63565b6117ae565b61025e600081565b600254610435906001600160a01b031681565b6102136104c2366004612a1b565b61182b565b6102136104d5366004612a76565b611e0c565b6102136104e8366004612ac9565b61253b565b6001546104359061010090046001600160a01b031681565b600554610435906001600160a01b031681565b6102f6610526366004612ae6565b6125ee565b600454610435906001600160a01b031681565b6102f661054c366004612ae6565b612613565b61025e7f241ecf16d79d0f8dbfb92cbc07fe17840425976cf0667f022fe9877caa831b0881565b60006001600160e01b03198216637965db0b60e01b14806105a957506301ffc9a760e01b6001600160e01b03198316145b92915050565b60006105b9612649565b600554604051633c05789560e01b81526001600160a01b0384811660048301526000921690633c057895906024016040805180830381865afa158015610603573d6000803e3d6000fd5b505050506040513d601f19601f820116820180604052508101906106279190612b8f565b90508460006106358261117c565b6005548451604051639ef1208560e01b81529293506000926001600160a01b0390921691639ef1208591610670918b90600190600401612c2d565b602060405180830381865afa15801561068d573d6000803e3d6000fd5b505050506040513d601f19601f820116820180604052508101906106b19190612c51565b60055485516040516347203d5b60e01b81529293506000926001600160a01b03909216916347203d5b916106e9918c90600401612c6a565b602060405180830381865afa158015610706573d6000803e3d6000fd5b505050506040513d601f19601f8201168201806040525081019061072a9190612c51565b600554604051630c040b4760e01b81529192506000916001600160a01b0390911690630c040b4790610763906001908d90600401612c83565b602060405180830381865afa158015610780573d6000803e3d6000fd5b505050506040513d601f19601f820116820180604052508101906107a49190612c51565b9050600089116108075760405162461bcd60e51b815260206004820152602360248201527f416d6f756e74206e65656420746f2062652067726561746572207468616e207a60448201526265726f60e81b60648201526084015b60405180910390fd5b88856001600160a01b03166370a0823161081f61266d565b6040516001600160e01b031960e084901b1681526001600160a01b039091166004820152602401602060405180830381865afa158015610863573d6000803e3d6000fd5b505050506040513d601f19601f820116820180604052508101906108879190612c51565b10156108a55760405162461bcd60e51b81526004016107fe90612c9e565b88856001600160a01b031663dd62ed3e6108bd61266d565b6040516001600160e01b031960e084901b1681526001600160a01b039091166004820152306024820152604401602060405180830381865afa158015610907573d6000803e3d6000fd5b505050506040513d601f19601f8201168201806040525081019061092b9190612c51565b10156109705760405162461bcd60e51b8152602060048201526014602482015273082d8d8deeec2dcc6ca40dcdee840cadcdeeaced60631b60448201526064016107fe565b60008460200151116109c45760405162461bcd60e51b815260206004820152601960248201527f507269636520686173206e6f74206265656e20646566696e650000000000000060448201526064016107fe565b60008460200151600754856109d99190612cde565b6109e39190612cf5565b9050856001600160a01b03166379cc67906109fc61266d565b8c6040518363ffffffff1660e01b8152600401610a1a929190612c6a565b600060405180830381600087803b158015610a3457600080fd5b505af1158015610a48573d6000803e3d6000fd5b50505050610a588682600161267c565b506003546001600160a01b031663a9059cbb610a7261266d565b836040518363ffffffff1660e01b8152600401610a90929190612c6a565b6020604051808303816000875af1158015610aaf573d6000803e3d6000fd5b505050506040513d601f19601f82011682018060405250810190610ad39190612d17565b5086516040516340c10f1960e01b81526001600160a01b038816916340c10f1991610b0391908790600401612c6a565b600060405180830381600087803b158015610b1d57600080fd5b505af1158015610b31573d6000803e3d6000fd5b50506001546040516340c10f1960e01b81526001600160a01b03808b1694506340c10f199350610b6c92610100900416908690600401612c6a565b600060405180830381600087803b158015610b8657600080fd5b505af1158015610b9a573d6000803e3d6000fd5b5060019e9d5050505050505050505050505050565b6000610bb9612649565b600554604051633c05789560e01b81526001600160a01b0384811660048301526000921690633c057895906024016040805180830381865afa158015610c03573d6000803e3d6000fd5b505050506040513d601f19601f82011682018060405250810190610c279190612b8f565b905060008411610c795760405162461bcd60e51b815260206004820152601b60248201527f546f6b656e7320616d6f756e742063616e2774206265207a65726f000000000060448201526064016107fe565b6001600160a01b038616610ccf5760405162461bcd60e51b815260206004820152601b60248201527f45524332302063616e2774206265206e756c6c2061646472657373000000000060448201526064016107fe565b6001600160a01b038516610d255760405162461bcd60e51b815260206004820152601f60248201527f526563697069656e742063616e2774206265206e756c6c20616464726573730060448201526064016107fe565b6005548151604051639ef1208560e01b81526000926001600160a01b031691639ef1208591610d5c91908990600190600401612c2d565b602060405180830381865afa158015610d79573d6000803e3d6000fd5b505050506040513d601f19601f82011682018060405250810190610d9d9190612c51565b60055483516040516347203d5b60e01b81529293506000926001600160a01b03909216916347203d5b91610dd5918a90600401612c6a565b602060405180830381865afa158015610df2573d6000803e3d6000fd5b505050506040513d601f19601f82011682018060405250810190610e169190612c51565b600554604051630c040b4760e01b81529192506000916001600160a01b0390911690630c040b4790610e4f906001908b90600401612c83565b602060405180830381865afa158015610e6c573d6000803e3d6000fd5b505050506040513d601f19601f82011682018060405250810190610e909190612c51565b905088876001600160a01b0382166370a08231610eab61266d565b6040516001600160e01b031960e084901b1681526001600160a01b039091166004820152602401602060405180830381865afa158015610eef573d6000803e3d6000fd5b505050506040513d601f19601f82011682018060405250810190610f139190612c51565b1015610f315760405162461bcd60e51b81526004016107fe90612c9e565b806001600160a01b03166323b872dd610f4861266d565b8b876040518463ffffffff1660e01b8152600401610f6893929190612d34565b6020604051808303816000875af1158015610f87573d6000803e3d6000fd5b505050506040513d601f19601f82011682018060405250810190610fab9190612d17565b50806001600160a01b03166323b872dd610fc361266d565b87516040516001600160e01b031960e085901b168152610fe99291908890600401612d34565b6020604051808303816000875af1158015611008573d6000803e3d6000fd5b505050506040513d601f19601f8201168201806040525081019061102c9190612d17565b50806001600160a01b03166323b872dd61104461266d565b60015460405160e084901b6001600160e01b0319168152611079929161010090046001600160a01b0316908790600401612d34565b6020604051808303816000875af1158015611098573d6000803e3d6000fd5b505050506040513d601f19601f820116820180604052508101906110bc9190612d17565b506001955050505050505b949350505050565b60006110eb600080516020612e4f83398151915261045b61266d565b6111075760405162461bcd60e51b81526004016107fe90612d58565b6001600160a01b0382166111575760405162461bcd60e51b815260206004820152601760248201527614dd18589b194c48191bd95cdd081b9bdd08195e1a5cdd604a1b60448201526064016107fe565b50600380546001600160a01b0383166001600160a01b03199091161790556001919050565b6111846129a2565b506001600160a01b039081166000908152600660209081526040918290208251608081018452815490941684526001810154918401919091526002810154918301919091526003015460ff161515606082015290565b6000828152602081905260409020600101546111f581612747565b6111ff838361275b565b50505050565b61120d61266d565b6001600160a01b0316816001600160a01b03161461123e5760405163334bd91960e11b815260040160405180910390fd5b61124882826127ee565b505050565b6112556129a2565b61126f600080516020612e4f83398151915261045b61266d565b61128b5760405162461bcd60e51b81526004016107fe90612d58565b6001600160a01b038086166000908152600660209081526040918290208251608081018452815490941680855260018201549285019290925260028101549284019290925260039091015460ff16151560608301521561133b5760405162461bcd60e51b815260206004820152602560248201527f537461626c654d616e616765723a20746f6b656e206164647265737320206578604482015264746973747360d81b60648201526084016107fe565b6001600160a01b0386166113615760405162461bcd60e51b81526004016107fe90612d8f565b600085116113815760405162461bcd60e51b81526004016107fe90612dda565b505060408051608080820183526001600160a01b039687168083526020808401978852838501968752941515606080850191825260009283526006875291859020935184546001600160a01b0319169916988917845596516001840181905595516002840181905596516003909301805460ff19169315159384179055835191820184529681529283019390935281019290925260ff1615159181019190915290565b61143e600080516020612e4f83398151915261045b61266d565b61145a5760405162461bcd60e51b81526004016107fe90612d58565b611462612877565b565b61147e600080516020612e4f83398151915261045b61266d565b61149a5760405162461bcd60e51b81526004016107fe90612d58565b611248828261275b565b6114ac6129a2565b6114c6600080516020612e4f83398151915261045b61266d565b6114e25760405162461bcd60e51b81526004016107fe90612d58565b6001600160a01b0382166115085760405162461bcd60e51b81526004016107fe90612d8f565b506001600160a01b0316600090815260066020908152604080832080546001600160a01b03191681556001810184905560028101849055600301805460ff1916905580516080810182528381529182018390528101829052606081019190915290565b611585600080516020612e4f83398151915261045b61266d565b6115a15760405162461bcd60e51b81526004016107fe90612d58565b6114626128cf565b6000918252602082815260408084206001600160a01b0393909316845291905290205460ff1690565b6115da6129a2565b6115f4600080516020612e4f83398151915261045b61266d565b6116105760405162461bcd60e51b81526004016107fe90612d58565b6001600160a01b0385166116365760405162461bcd60e51b81526004016107fe90612d8f565b600084116116565760405162461bcd60e51b81526004016107fe90612dda565b5060408051608080820183526001600160a01b039687168083526020808401978852838501968752941515606080850191825260009283526006875291859020935184546001600160a01b0319169916988917845596516001840181905595516002840181905596516003909301805460ff19169315159384179055835191820184529681529283019390935281019290925260ff1615159181019190915290565b6000611714600080516020612e4f83398151915261045b61266d565b6117305760405162461bcd60e51b81526004016107fe90612d58565b6001600160a01b0382166117865760405162461bcd60e51b815260206004820152601a60248201527f666565436f6c6c6563746f722063616e2774206265206e756c6c00000000000060448201526064016107fe565b50600180546001600160a01b03831661010002610100600160a81b0319909116178155919050565b60006117ca600080516020612e4f83398151915261045b61266d565b6117e65760405162461bcd60e51b81526004016107fe90612d58565b600082116118065760405162461bcd60e51b81526004016107fe90612dda565b506001600160a01b038216600090815260066020526040812060010182905592915050565b6000611835612649565b600554604051633c05789560e01b81526001600160a01b0384811660048301526000921690633c057895906024016040805180830381865afa15801561187f573d6000803e3d6000fd5b505050506040513d601f19601f820116820180604052508101906118a39190612b8f565b90508460006118b18261117c565b9050600086116119035760405162461bcd60e51b815260206004820152601860248201527f55736420616d6f756e742063616e2774206265207a65726f000000000000000060448201526064016107fe565b60035486906001600160a01b03166370a0823161191e61266d565b6040516001600160e01b031960e084901b1681526001600160a01b039091166004820152602401602060405180830381865afa158015611962573d6000803e3d6000fd5b505050506040513d601f19601f820116820180604052508101906119869190612c51565b10156119cb5760405162461bcd60e51b81526020600482015260146024820152730aaa68840a8ded6cadc40dcdee840cadcdeeaced60631b60448201526064016107fe565b60035486906001600160a01b031663dd62ed3e6119e661266d565b6040516001600160e01b031960e084901b1681526001600160a01b039091166004820152306024820152604401602060405180830381865afa158015611a30573d6000803e3d6000fd5b505050506040513d601f19601f82011682018060405250810190611a549190612c51565b1015611aa25760405162461bcd60e51b815260206004820152601e60248201527f55534420546f6b656e20416c6c6f77616e6365206e6f7420656e6f756768000060448201526064016107fe565b6000816020015111611af65760405162461bcd60e51b815260206004820152601a60248201527f507269636520686173206e6f74206265656e20646566696e656400000000000060448201526064016107fe565b6000600754826020015188611b0b9190612cde565b611b159190612cf5565b6003549091506001600160a01b03166323b872dd611b3161266d565b308a6040518463ffffffff1660e01b8152600401611b5193929190612d34565b6020604051808303816000875af1158015611b70573d6000803e3d6000fd5b505050506040513d601f19601f82011682018060405250810190611b949190612d17565b506005548451604051639ef1208560e01b81526000926001600160a01b031691639ef1208591611bcb919086908690600401612c2d565b602060405180830381865afa158015611be8573d6000803e3d6000fd5b505050506040513d601f19601f82011682018060405250810190611c0c9190612c51565b60055486516040516347203d5b60e01b81529293506000926001600160a01b03909216916347203d5b91611c44918790600401612c6a565b602060405180830381865afa158015611c61573d6000803e3d6000fd5b505050506040513d601f19601f82011682018060405250810190611c859190612c51565b600554604051630c040b4760e01b81529192506000916001600160a01b0390911690630c040b4790611cbd9084908890600401612c83565b602060405180830381865afa158015611cda573d6000803e3d6000fd5b505050506040513d601f19601f82011682018060405250810190611cfe9190612c51565b9050611d0c868b600061267c565b50856001600160a01b03166340c10f19611d2461266d565b856040518363ffffffff1660e01b8152600401611d42929190612c6a565b600060405180830381600087803b158015611d5c57600080fd5b505af1158015611d70573d6000803e3d6000fd5b505088516040516340c10f1960e01b81526001600160a01b038a1693506340c10f199250611da391908690600401612c6a565b600060405180830381600087803b158015611dbd57600080fd5b505af1158015611dd1573d6000803e3d6000fd5b50506001546040516340c10f1960e01b81526001600160a01b03808b1694506340c10f199350610b6c92610100900416908590600401612c6a565b6000611e16612649565b600554604051633c05789560e01b81526001600160a01b0384811660048301526000921690633c057895906024016040805180830381865afa158015611e60573d6000803e3d6000fd5b505050506040513d601f19601f82011682018060405250810190611e849190612b8f565b905085856000611e938361117c565b90506000611ea08961117c565b6005548651604051639ef1208560e01b81529293506000926001600160a01b0390921691639ef1208591611edb918d90600390600401612c2d565b602060405180830381865afa158015611ef8573d6000803e3d6000fd5b505050506040513d601f19601f82011682018060405250810190611f1c9190612c51565b60055487516040516347203d5b60e01b81529293506000926001600160a01b03909216916347203d5b91611f54918e90600401612c6a565b602060405180830381865afa158015611f71573d6000803e3d6000fd5b505050506040513d601f19601f82011682018060405250810190611f959190612c51565b600554604051630c040b4760e01b81529192506000916001600160a01b0390911690630c040b4790611fce906003908f90600401612c83565b602060405180830381865afa158015611feb573d6000803e3d6000fd5b505050506040513d601f19601f8201168201806040525081019061200f9190612c51565b90506000876001600160a01b03166370a0823161202a61266d565b6040516001600160e01b031960e084901b1681526001600160a01b039091166004820152602401602060405180830381865afa15801561206e573d6000803e3d6000fd5b505050506040513d601f19601f820116820180604052508101906120929190612c51565b90506001600160a01b038e166120e45760405162461bcd60e51b815260206004820152601760248201527614dd18589b194c48191bd95cdd081b9bdd08195e1a5cdd604a1b60448201526064016107fe565b6001600160a01b038d1661213a5760405162461bcd60e51b815260206004820152601760248201527f537461626c653220646f657374206e6f7420657869737400000000000000000060448201526064016107fe565b60008c116121815760405162461bcd60e51b8152602060048201526014602482015273416d6f756e742063616e2774206265207a65726f60601b60448201526064016107fe565b8b8110156121a15760405162461bcd60e51b81526004016107fe90612c9e565b8b886001600160a01b031663dd62ed3e6121b961266d565b6040516001600160e01b031960e084901b1681526001600160a01b039091166004820152306024820152604401602060405180830381865afa158015612203573d6000803e3d6000fd5b505050506040513d601f19601f820116820180604052508101906122279190612c51565b101561226c5760405162461bcd60e51b8152602060048201526014602482015273082d8d8deeec2dcc6ca40dcdee840cadcdeeaced60631b60448201526064016107fe565b60008660200151116122ca5760405162461bcd60e51b815260206004820152602160248201527f537461626c653120507269636520686173206e6f74206265656e20646566696e6044820152606560f81b60648201526084016107fe565b60008560200151116123285760405162461bcd60e51b815260206004820152602160248201527f537461626c653220507269636520686173206e6f74206265656e20646566696e6044820152606560f81b60648201526084016107fe565b600086602001516007548661233d9190612cde565b6123479190612cf5565b9050886001600160a01b03166379cc679061236061266d565b8f6040518363ffffffff1660e01b815260040161237e929190612c6a565b600060405180830381600087803b15801561239857600080fd5b505af11580156123ac573d6000803e3d6000fd5b50508b516040516340c10f1960e01b81526001600160a01b038c1693506340c10f1992506123df91908890600401612c6a565b600060405180830381600087803b1580156123f957600080fd5b505af115801561240d573d6000803e3d6000fd5b50506001546040516340c10f1960e01b81526001600160a01b03808d1694506340c10f19935061244892610100900416908790600401612c6a565b600060405180830381600087803b15801561246257600080fd5b505af1158015612476573d6000803e3d6000fd5b5050505061248a876000015182600161267c565b5060006007548760200151836124a09190612cde565b6124aa9190612cf5565b9050886001600160a01b03166340c10f196124c361266d565b836040518363ffffffff1660e01b81526004016124e1929190612c6a565b600060405180830381600087803b1580156124fb57600080fd5b505af115801561250f573d6000803e3d6000fd5b50505050612523876000015183600061267c565b5060019b505050505050505050505050949350505050565b6000612557600080516020612e4f83398151915261045b61266d565b6125735760405162461bcd60e51b81526004016107fe90612d58565b6001600160a01b0382166125c95760405162461bcd60e51b815260206004820152601860248201527f6665654d616e616765722063616e2774206265206e756c6c000000000000000060448201526064016107fe565b50600580546001600160a01b0383166001600160a01b03199091161790556001919050565b60008281526020819052604090206001015461260981612747565b6111ff83836127ee565b61262d600080516020612e4f83398151915261045b61266d565b61123e5760405162461bcd60e51b81526004016107fe90612d58565b60015460ff16156114625760405163d93c066560e01b815260040160405180910390fd5b600061267761290c565b905090565b60006001600160a01b0384166126a45760405162461bcd60e51b81526004016107fe90612d8f565b60008260018111156126b8576126b8612bf5565b036126f3576001600160a01b038416600090815260066020526040812060020180548592906126e8908490612e28565b9091555061273d9050565b600082600181111561270757612707612bf5565b0361273d576001600160a01b03841660009081526006602052604081206002018054859290612737908490612e3b565b90915550505b5060009392505050565b6127588161275361266d565b612950565b50565b600061276783836115a9565b6127e6576000838152602081815260408083206001600160a01b03861684529091529020805460ff1916600117905561279e61266d565b6001600160a01b0316826001600160a01b0316847f2f8788117e7eff1d82e926ec794901d17c78024a50270940304540a733656f0d60405160405180910390a45060016105a9565b5060006105a9565b60006127fa83836115a9565b156127e6576000838152602081815260408083206001600160a01b03861684529091529020805460ff1916905561282f61266d565b6001600160a01b0316826001600160a01b0316847ff6391f5c32d9c69d2a47ea670b442974b53935d1edc7fd64eb21e047a839171b60405160405180910390a45060016105a9565b61287f61297f565b6001805460ff191690557f5db9ee0a495bf2e6ff9c91a7834c1ba4fdd244a5e8aa4e537bd38aeae4b073aa6128b261266d565b6040516001600160a01b03909116815260200160405180910390a1565b6128d7612649565b6001805460ff1916811790557f62e78cea01bee320cd4e420270b5ea74000d11b0c9f74754ebdbfc544b05a2586128b261266d565b60007f00000000000000000000000000000000000000000000000000000000000000006001600160a01b0316330361294b575060131936013560601c90565b503390565b61295a82826115a9565b61297b57808260405163e2517d3f60e01b81526004016107fe929190612c6a565b5050565b60015460ff1661146257604051638dfc202b60e01b815260040160405180910390fd5b604051806080016040528060006001600160a01b0316815260200160008152602001600081526020016000151581525090565b6000602082840312156129e757600080fd5b81356001600160e01b0319811681146129ff57600080fd5b9392505050565b6001600160a01b038116811461275857600080fd5b600080600060608486031215612a3057600080fd5b8335612a3b81612a06565b9250602084013591506040840135612a5281612a06565b809150509250925092565b600060208284031215612a6f57600080fd5b5035919050565b60008060008060808587031215612a8c57600080fd5b8435612a9781612a06565b93506020850135612aa781612a06565b9250604085013591506060850135612abe81612a06565b939692955090935050565b600060208284031215612adb57600080fd5b81356129ff81612a06565b60008060408385031215612af957600080fd5b823591506020830135612b0b81612a06565b809150509250929050565b801515811461275857600080fd5b60008060008060808587031215612b3a57600080fd5b8435612b4581612a06565b935060208501359250604085013591506060850135612abe81612b16565b60008060408385031215612b7657600080fd5b8235612b8181612a06565b946020939093013593505050565b600060408284031215612ba157600080fd5b6040516040810181811067ffffffffffffffff82111715612bd257634e487b7160e01b600052604160045260246000fd5b6040528251612be081612a06565b81526020928301519281019290925250919050565b634e487b7160e01b600052602160045260246000fd5b60068110612c2957634e487b7160e01b600052602160045260246000fd5b9052565b6001600160a01b038416815260208101839052606081016110c76040830184612c0b565b600060208284031215612c6357600080fd5b5051919050565b6001600160a01b03929092168252602082015260400190565b60408101612c918285612c0b565b8260208301529392505050565b60208082526010908201526f0a8ded6cadc40dcdee840cadcdeeaced60831b604082015260600190565b634e487b7160e01b600052601160045260246000fd5b80820281158282048414176105a9576105a9612cc8565b600082612d1257634e487b7160e01b600052601260045260246000fd5b500490565b600060208284031215612d2957600080fd5b81516129ff81612b16565b6001600160a01b039384168152919092166020820152604081019190915260600190565b60208082526019908201527f4d75737420686176652041444d494e5f524f4c4520726f6c6500000000000000604082015260600190565b6020808252602b908201527f537461626c654d616e616765723a20746f6b656e20616464726573732063616e60408201526a6e6f74206265207a65726f60a81b606082015260800190565b6020808252602e908201527f537461626c654d616e616765723a207072696365206d7573742062652067726560408201526d61746572207468616e207a65726f60901b606082015260800190565b808201808211156105a9576105a9612cc8565b818103818111156105a9576105a9612cc856fea49807205ce4d355092ef5a8a18f56e8913cf4a201fbe287825b095693c21775a26469706673582212204117a7612ee63a23b07b31b5ec82bcffdc73da601e4cbf6a118259017881144564736f6c63430008140033","opcodes":"PUSH1 0xA0 PUSH1 0x40 MSTORE PUSH3 0xF4240 PUSH1 0x7 SSTORE PUSH1 0x64 PUSH1 0x8 SSTORE PUSH2 0x2710 PUSH1 0x9 SSTORE CALLVALUE DUP1 ISZERO PUSH3 0x23 JUMPI PUSH1 0x0 DUP1 REVERT JUMPDEST POP PUSH1 0x40 MLOAD PUSH3 0x30EF CODESIZE SUB DUP1 PUSH3 0x30EF DUP4 CODECOPY DUP2 ADD PUSH1 0x40 DUP2 SWAP1 MSTORE PUSH3 0x46 SWAP2 PUSH3 0x1F6 JUMP JUMPDEST PUSH1 0x1 PUSH1 0x1 PUSH1 0xA0 SHL SUB DUP2 AND PUSH1 0x80 MSTORE PUSH1 0x1 DUP1 SLOAD PUSH1 0xFF NOT AND SWAP1 SSTORE PUSH3 0x67 PUSH3 0x10C JUMP JUMPDEST PUSH1 0x1 DUP1 SLOAD PUSH1 0x1 PUSH1 0x1 PUSH1 0xA0 SHL SUB SWAP3 SWAP1 SWAP3 AND PUSH2 0x100 MUL PUSH2 0x100 PUSH1 0x1 PUSH1 0xA8 SHL SUB NOT SWAP1 SWAP3 AND SWAP2 SWAP1 SWAP2 OR SWAP1 SSTORE PUSH3 0xA4 PUSH1 0x0 PUSH3 0x9E PUSH3 0x10C JUMP JUMPDEST PUSH3 0x11D JUMP JUMPDEST POP PUSH3 0xD4 PUSH32 0xA49807205CE4D355092EF5A8A18F56E8913CF4A201FBE287825B095693C21775 PUSH3 0x9E PUSH3 0x10C JUMP JUMPDEST POP PUSH3 0x104 PUSH32 0x241ECF16D79D0F8DBFB92CBC07FE17840425976CF0667F022FE9877CAA831B08 PUSH3 0x9E PUSH3 0x10C JUMP JUMPDEST POP POP PUSH3 0x228 JUMP JUMPDEST PUSH1 0x0 PUSH3 0x118 PUSH3 0x1CE JUMP JUMPDEST SWAP1 POP SWAP1 JUMP JUMPDEST PUSH1 0x0 DUP3 DUP2 MSTORE PUSH1 0x20 DUP2 DUP2 MSTORE PUSH1 0x40 DUP1 DUP4 KECCAK256 PUSH1 0x1 PUSH1 0x1 PUSH1 0xA0 SHL SUB DUP6 AND DUP5 MSTORE SWAP1 SWAP2 MSTORE DUP2 KECCAK256 SLOAD PUSH1 0xFF AND PUSH3 0x1C4 JUMPI PUSH1 0x0 DUP4 DUP2 MSTORE PUSH1 0x20 DUP2 DUP2 MSTORE PUSH1 0x40 DUP1 DUP4 KECCAK256 PUSH1 0x1 PUSH1 0x1 PUSH1 0xA0 SHL SUB DUP7 AND DUP5 MSTORE SWAP1 SWAP2 MSTORE SWAP1 KECCAK256 DUP1 SLOAD PUSH1 0xFF NOT AND PUSH1 0x1 OR SWAP1 SSTORE PUSH3 0x17B PUSH3 0x10C JUMP JUMPDEST PUSH1 0x1 PUSH1 0x1 PUSH1 0xA0 SHL SUB AND DUP3 PUSH1 0x1 PUSH1 0x1 PUSH1 0xA0 SHL SUB AND DUP5 PUSH32 0x2F8788117E7EFF1D82E926EC794901D17C78024A50270940304540A733656F0D PUSH1 0x40 MLOAD PUSH1 0x40 MLOAD DUP1 SWAP2 SUB SWAP1 LOG4 POP PUSH1 0x1 PUSH3 0x1C8 JUMP JUMPDEST POP PUSH1 0x0 JUMPDEST SWAP3 SWAP2 POP POP JUMP JUMPDEST PUSH1 0x80 MLOAD PUSH1 0x0 SWAP1 PUSH1 0x1 PUSH1 0x1 PUSH1 0xA0 SHL SUB AND CALLER SUB PUSH3 0x1F1 JUMPI POP PUSH1 0x13 NOT CALLDATASIZE ADD CALLDATALOAD PUSH1 0x60 SHR SWAP1 JUMP JUMPDEST POP CALLER SWAP1 JUMP JUMPDEST PUSH1 0x0 PUSH1 0x20 DUP3 DUP5 SUB SLT ISZERO PUSH3 0x209 JUMPI PUSH1 0x0 DUP1 REVERT JUMPDEST DUP2 MLOAD PUSH1 0x1 PUSH1 0x1 PUSH1 0xA0 SHL SUB DUP2 AND DUP2 EQ PUSH3 0x221 JUMPI PUSH1 0x0 DUP1 REVERT JUMPDEST SWAP4 SWAP3 POP POP POP JUMP JUMPDEST PUSH1 0x80 MLOAD PUSH2 0x2EA4 PUSH3 0x24B PUSH1 0x0 CODECOPY PUSH1 0x0 DUP2 DUP2 PUSH2 0x3B7 ADD MSTORE PUSH2 0x2910 ADD MSTORE PUSH2 0x2EA4 PUSH1 0x0 RETURN INVALID PUSH1 0x80 PUSH1 0x40 MSTORE CALLVALUE DUP1 ISZERO PUSH2 0x10 JUMPI PUSH1 0x0 DUP1 REVERT JUMPDEST POP PUSH1 0x4 CALLDATASIZE LT PUSH2 0x1FB JUMPI PUSH1 0x0 CALLDATALOAD PUSH1 0xE0 SHR DUP1 PUSH4 0x8456CB59 GT PUSH2 0x11A JUMPI DUP1 PUSH4 0xA7ED89D1 GT PUSH2 0xAD JUMPI DUP1 PUSH4 0xD0FB0203 GT PUSH2 0x7C JUMPI DUP1 PUSH4 0xD0FB0203 EQ PUSH2 0x505 JUMPI DUP1 PUSH4 0xD547741F EQ PUSH2 0x518 JUMPI DUP1 PUSH4 0xDAD0CF9C EQ PUSH2 0x52B JUMPI DUP1 PUSH4 0xE2520BD0 EQ PUSH2 0x53E JUMPI DUP1 PUSH4 0xEC87621C EQ PUSH2 0x551 JUMPI PUSH1 0x0 DUP1 REVERT JUMPDEST DUP1 PUSH4 0xA7ED89D1 EQ PUSH2 0x4B4 JUMPI DUP1 PUSH4 0xBFB8058C EQ PUSH2 0x4C7 JUMPI DUP1 PUSH4 0xBFC810B6 EQ PUSH2 0x4DA JUMPI DUP1 PUSH4 0xC415B95C EQ PUSH2 0x4ED JUMPI PUSH1 0x0 DUP1 REVERT JUMPDEST DUP1 PUSH4 0x9245290D GT PUSH2 0xE9 JUMPI DUP1 PUSH4 0x9245290D EQ PUSH2 0x473 JUMPI DUP1 PUSH4 0x94D188E0 EQ PUSH2 0x486 JUMPI DUP1 PUSH4 0xA217FDDF EQ PUSH2 0x499 JUMPI DUP1 PUSH4 0xA59A9973 EQ PUSH2 0x4A1 JUMPI PUSH1 0x0 DUP1 REVERT JUMPDEST DUP1 PUSH4 0x8456CB59 EQ PUSH2 0x41A JUMPI DUP1 PUSH4 0x86C59418 EQ PUSH2 0x422 JUMPI DUP1 PUSH4 0x91D14854 EQ PUSH2 0x44D JUMPI DUP1 PUSH4 0x91F0462C EQ PUSH2 0x460 JUMPI PUSH1 0x0 DUP1 REVERT JUMPDEST DUP1 PUSH4 0x3B33B2D5 GT PUSH2 0x192 JUMPI DUP1 PUSH4 0x572B6C05 GT PUSH2 0x161 JUMPI DUP1 PUSH4 0x572B6C05 EQ PUSH2 0x3A7 JUMPI DUP1 PUSH4 0x5C975ABB EQ PUSH2 0x3E7 JUMPI DUP1 PUSH4 0x75B238FC EQ PUSH2 0x3F2 JUMPI DUP1 PUSH4 0x7AB86F74 EQ PUSH2 0x407 JUMPI PUSH1 0x0 DUP1 REVERT JUMPDEST DUP1 PUSH4 0x3B33B2D5 EQ PUSH2 0x30B JUMPI DUP1 PUSH4 0x3F4BA83A EQ PUSH2 0x31E JUMPI DUP1 PUSH4 0x46A0300C EQ PUSH2 0x326 JUMPI DUP1 PUSH4 0x4743A510 EQ PUSH2 0x339 JUMPI PUSH1 0x0 DUP1 REVERT JUMPDEST DUP1 PUSH4 0x2D0A9EAA GT PUSH2 0x1CE JUMPI DUP1 PUSH4 0x2D0A9EAA EQ PUSH2 0x27F JUMPI DUP1 PUSH4 0x2E6A3E35 EQ PUSH2 0x292 JUMPI DUP1 PUSH4 0x2F2FF15D EQ PUSH2 0x2E3 JUMPI DUP1 PUSH4 0x36568ABE EQ PUSH2 0x2F8 JUMPI PUSH1 0x0 DUP1 REVERT JUMPDEST DUP1 PUSH4 0x1FFC9A7 EQ PUSH2 0x200 JUMPI DUP1 PUSH4 0x167F4DEB EQ PUSH2 0x228 JUMPI DUP1 PUSH4 0x248A9CA3 EQ PUSH2 0x23B JUMPI DUP1 PUSH4 0x29CA20CA EQ PUSH2 0x26C JUMPI JUMPDEST PUSH1 0x0 DUP1 REVERT JUMPDEST PUSH2 0x213 PUSH2 0x20E CALLDATASIZE PUSH1 0x4 PUSH2 0x29D5 JUMP JUMPDEST PUSH2 0x578 JUMP JUMPDEST PUSH1 0x40 MLOAD SWAP1 ISZERO ISZERO DUP2 MSTORE PUSH1 0x20 ADD JUMPDEST PUSH1 0x40 MLOAD DUP1 SWAP2 SUB SWAP1 RETURN JUMPDEST PUSH2 0x213 PUSH2 0x236 CALLDATASIZE PUSH1 0x4 PUSH2 0x2A1B JUMP JUMPDEST PUSH2 0x5AF JUMP JUMPDEST PUSH2 0x25E PUSH2 0x249 CALLDATASIZE PUSH1 0x4 PUSH2 0x2A5D JUMP JUMPDEST PUSH1 0x0 SWAP1 DUP2 MSTORE PUSH1 0x20 DUP2 SWAP1 MSTORE PUSH1 0x40 SWAP1 KECCAK256 PUSH1 0x1 ADD SLOAD SWAP1 JUMP JUMPDEST PUSH1 0x40 MLOAD SWAP1 DUP2 MSTORE PUSH1 0x20 ADD PUSH2 0x21F JUMP JUMPDEST PUSH2 0x213 PUSH2 0x27A CALLDATASIZE PUSH1 0x4 PUSH2 0x2A76 JUMP JUMPDEST PUSH2 0xBAF JUMP JUMPDEST PUSH2 0x213 PUSH2 0x28D CALLDATASIZE PUSH1 0x4 PUSH2 0x2AC9 JUMP JUMPDEST PUSH2 0x10CF JUMP JUMPDEST PUSH2 0x2A5 PUSH2 0x2A0 CALLDATASIZE PUSH1 0x4 PUSH2 0x2AC9 JUMP JUMPDEST PUSH2 0x117C JUMP JUMPDEST PUSH1 0x40 MLOAD PUSH2 0x21F SWAP2 SWAP1 DUP2 MLOAD PUSH1 0x1 PUSH1 0x1 PUSH1 0xA0 SHL SUB AND DUP2 MSTORE PUSH1 0x20 DUP1 DUP4 ADD MLOAD SWAP1 DUP3 ADD MSTORE PUSH1 0x40 DUP1 DUP4 ADD MLOAD SWAP1 DUP3 ADD MSTORE PUSH1 0x60 SWAP2 DUP3 ADD MLOAD ISZERO ISZERO SWAP2 DUP2 ADD SWAP2 SWAP1 SWAP2 MSTORE PUSH1 0x80 ADD SWAP1 JUMP JUMPDEST PUSH2 0x2F6 PUSH2 0x2F1 CALLDATASIZE PUSH1 0x4 PUSH2 0x2AE6 JUMP JUMPDEST PUSH2 0x11DA JUMP JUMPDEST STOP JUMPDEST PUSH2 0x2F6 PUSH2 0x306 CALLDATASIZE PUSH1 0x4 PUSH2 0x2AE6 JUMP JUMPDEST PUSH2 0x1205 JUMP JUMPDEST PUSH2 0x2A5 PUSH2 0x319 CALLDATASIZE PUSH1 0x4 PUSH2 0x2B24 JUMP JUMPDEST PUSH2 0x124D JUMP JUMPDEST PUSH2 0x2F6 PUSH2 0x1424 JUMP JUMPDEST PUSH2 0x2F6 PUSH2 0x334 CALLDATASIZE PUSH1 0x4 PUSH2 0x2AE6 JUMP JUMPDEST PUSH2 0x1464 JUMP JUMPDEST PUSH2 0x37B PUSH2 0x347 CALLDATASIZE PUSH1 0x4 PUSH2 0x2AC9 JUMP JUMPDEST PUSH1 0x6 PUSH1 0x20 MSTORE PUSH1 0x0 SWAP1 DUP2 MSTORE PUSH1 0x40 SWAP1 KECCAK256 DUP1 SLOAD PUSH1 0x1 DUP3 ADD SLOAD PUSH1 0x2 DUP4 ADD SLOAD PUSH1 0x3 SWAP1 SWAP4 ADD SLOAD PUSH1 0x1 PUSH1 0x1 PUSH1 0xA0 SHL SUB SWAP1 SWAP3 AND SWAP3 SWAP1 SWAP2 PUSH1 0xFF AND DUP5 JUMP JUMPDEST PUSH1 0x40 DUP1 MLOAD PUSH1 0x1 PUSH1 0x1 PUSH1 0xA0 SHL SUB SWAP1 SWAP6 AND DUP6 MSTORE PUSH1 0x20 DUP6 ADD SWAP4 SWAP1 SWAP4 MSTORE SWAP2 DUP4 ADD MSTORE ISZERO ISZERO PUSH1 0x60 DUP3 ADD MSTORE PUSH1 0x80 ADD PUSH2 0x21F JUMP JUMPDEST PUSH2 0x213 PUSH2 0x3B5 CALLDATASIZE PUSH1 0x4 PUSH2 0x2AC9 JUMP JUMPDEST PUSH32 0x0 PUSH1 0x1 PUSH1 0x1 PUSH1 0xA0 SHL SUB SWAP1 DUP2 AND SWAP2 AND EQ SWAP1 JUMP JUMPDEST PUSH1 0x1 SLOAD PUSH1 0xFF AND PUSH2 0x213 JUMP JUMPDEST PUSH2 0x25E PUSH1 0x0 DUP1 MLOAD PUSH1 0x20 PUSH2 0x2E4F DUP4 CODECOPY DUP2 MLOAD SWAP2 MSTORE DUP2 JUMP JUMPDEST PUSH2 0x2A5 PUSH2 0x415 CALLDATASIZE PUSH1 0x4 PUSH2 0x2AC9 JUMP JUMPDEST PUSH2 0x14A4 JUMP JUMPDEST PUSH2 0x2F6 PUSH2 0x156B JUMP JUMPDEST PUSH1 0x3 SLOAD PUSH2 0x435 SWAP1 PUSH1 0x1 PUSH1 0x1 PUSH1 0xA0 SHL SUB AND DUP2 JUMP JUMPDEST PUSH1 0x40 MLOAD PUSH1 0x1 PUSH1 0x1 PUSH1 0xA0 SHL SUB SWAP1 SWAP2 AND DUP2 MSTORE PUSH1 0x20 ADD PUSH2 0x21F JUMP JUMPDEST PUSH2 0x213 PUSH2 0x45B CALLDATASIZE PUSH1 0x4 PUSH2 0x2AE6 JUMP JUMPDEST PUSH2 0x15A9 JUMP JUMPDEST PUSH2 0x2A5 PUSH2 0x46E CALLDATASIZE PUSH1 0x4 PUSH2 0x2B24 JUMP JUMPDEST PUSH2 0x15D2 JUMP JUMPDEST PUSH2 0x213 PUSH2 0x481 CALLDATASIZE PUSH1 0x4 PUSH2 0x2AC9 JUMP JUMPDEST PUSH2 0x16F8 JUMP JUMPDEST PUSH2 0x213 PUSH2 0x494 CALLDATASIZE PUSH1 0x4 PUSH2 0x2B63 JUMP JUMPDEST PUSH2 0x17AE JUMP JUMPDEST PUSH2 0x25E PUSH1 0x0 DUP2 JUMP JUMPDEST PUSH1 0x2 SLOAD PUSH2 0x435 SWAP1 PUSH1 0x1 PUSH1 0x1 PUSH1 0xA0 SHL SUB AND DUP2 JUMP JUMPDEST PUSH2 0x213 PUSH2 0x4C2 CALLDATASIZE PUSH1 0x4 PUSH2 0x2A1B JUMP JUMPDEST PUSH2 0x182B JUMP JUMPDEST PUSH2 0x213 PUSH2 0x4D5 CALLDATASIZE PUSH1 0x4 PUSH2 0x2A76 JUMP JUMPDEST PUSH2 0x1E0C JUMP JUMPDEST PUSH2 0x213 PUSH2 0x4E8 CALLDATASIZE PUSH1 0x4 PUSH2 0x2AC9 JUMP JUMPDEST PUSH2 0x253B JUMP JUMPDEST PUSH1 0x1 SLOAD PUSH2 0x435 SWAP1 PUSH2 0x100 SWAP1 DIV PUSH1 0x1 PUSH1 0x1 PUSH1 0xA0 SHL SUB AND DUP2 JUMP JUMPDEST PUSH1 0x5 SLOAD PUSH2 0x435 SWAP1 PUSH1 0x1 PUSH1 0x1 PUSH1 0xA0 SHL SUB AND DUP2 JUMP JUMPDEST PUSH2 0x2F6 PUSH2 0x526 CALLDATASIZE PUSH1 0x4 PUSH2 0x2AE6 JUMP JUMPDEST PUSH2 0x25EE JUMP JUMPDEST PUSH1 0x4 SLOAD PUSH2 0x435 SWAP1 PUSH1 0x1 PUSH1 0x1 PUSH1 0xA0 SHL SUB AND DUP2 JUMP JUMPDEST PUSH2 0x2F6 PUSH2 0x54C CALLDATASIZE PUSH1 0x4 PUSH2 0x2AE6 JUMP JUMPDEST PUSH2 0x2613 JUMP JUMPDEST PUSH2 0x25E PUSH32 0x241ECF16D79D0F8DBFB92CBC07FE17840425976CF0667F022FE9877CAA831B08 DUP2 JUMP JUMPDEST PUSH1 0x0 PUSH1 0x1 PUSH1 0x1 PUSH1 0xE0 SHL SUB NOT DUP3 AND PUSH4 0x7965DB0B PUSH1 0xE0 SHL EQ DUP1 PUSH2 0x5A9 JUMPI POP PUSH4 0x1FFC9A7 PUSH1 0xE0 SHL PUSH1 0x1 PUSH1 0x1 PUSH1 0xE0 SHL SUB NOT DUP4 AND EQ JUMPDEST SWAP3 SWAP2 POP POP JUMP JUMPDEST PUSH1 0x0 PUSH2 0x5B9 PUSH2 0x2649 JUMP JUMPDEST PUSH1 0x5 SLOAD PUSH1 0x40 MLOAD PUSH4 0x3C057895 PUSH1 0xE0 SHL DUP2 MSTORE PUSH1 0x1 PUSH1 0x1 PUSH1 0xA0 SHL SUB DUP5 DUP2 AND PUSH1 0x4 DUP4 ADD MSTORE PUSH1 0x0 SWAP3 AND SWAP1 PUSH4 0x3C057895 SWAP1 PUSH1 0x24 ADD PUSH1 0x40 DUP1 MLOAD DUP1 DUP4 SUB DUP2 DUP7 GAS STATICCALL ISZERO DUP1 ISZERO PUSH2 0x603 JUMPI RETURNDATASIZE PUSH1 0x0 DUP1 RETURNDATACOPY RETURNDATASIZE PUSH1 0x0 REVERT JUMPDEST POP POP POP POP PUSH1 0x40 MLOAD RETURNDATASIZE PUSH1 0x1F NOT PUSH1 0x1F DUP3 ADD AND DUP3 ADD DUP1 PUSH1 0x40 MSTORE POP DUP2 ADD SWAP1 PUSH2 0x627 SWAP2 SWAP1 PUSH2 0x2B8F JUMP JUMPDEST SWAP1 POP DUP5 PUSH1 0x0 PUSH2 0x635 DUP3 PUSH2 0x117C JUMP JUMPDEST PUSH1 0x5 SLOAD DUP5 MLOAD PUSH1 0x40 MLOAD PUSH4 0x9EF12085 PUSH1 0xE0 SHL DUP2 MSTORE SWAP3 SWAP4 POP PUSH1 0x0 SWAP3 PUSH1 0x1 PUSH1 0x1 PUSH1 0xA0 SHL SUB SWAP1 SWAP3 AND SWAP2 PUSH4 0x9EF12085 SWAP2 PUSH2 0x670 SWAP2 DUP12 SWAP1 PUSH1 0x1 SWAP1 PUSH1 0x4 ADD PUSH2 0x2C2D JUMP JUMPDEST PUSH1 0x20 PUSH1 0x40 MLOAD DUP1 DUP4 SUB DUP2 DUP7 GAS STATICCALL ISZERO DUP1 ISZERO PUSH2 0x68D JUMPI RETURNDATASIZE PUSH1 0x0 DUP1 RETURNDATACOPY RETURNDATASIZE PUSH1 0x0 REVERT JUMPDEST POP POP POP POP PUSH1 0x40 MLOAD RETURNDATASIZE PUSH1 0x1F NOT PUSH1 0x1F DUP3 ADD AND DUP3 ADD DUP1 PUSH1 0x40 MSTORE POP DUP2 ADD SWAP1 PUSH2 0x6B1 SWAP2 SWAP1 PUSH2 0x2C51 JUMP JUMPDEST PUSH1 0x5 SLOAD DUP6 MLOAD PUSH1 0x40 MLOAD PUSH4 0x47203D5B PUSH1 0xE0 SHL DUP2 MSTORE SWAP3 SWAP4 POP PUSH1 0x0 SWAP3 PUSH1 0x1 PUSH1 0x1 PUSH1 0xA0 SHL SUB SWAP1 SWAP3 AND SWAP2 PUSH4 0x47203D5B SWAP2 PUSH2 0x6E9 SWAP2 DUP13 SWAP1 PUSH1 0x4 ADD PUSH2 0x2C6A JUMP JUMPDEST PUSH1 0x20 PUSH1 0x40 MLOAD DUP1 DUP4 SUB DUP2 DUP7 GAS STATICCALL ISZERO DUP1 ISZERO PUSH2 0x706 JUMPI RETURNDATASIZE PUSH1 0x0 DUP1 RETURNDATACOPY RETURNDATASIZE PUSH1 0x0 REVERT JUMPDEST POP POP POP POP PUSH1 0x40 MLOAD RETURNDATASIZE PUSH1 0x1F NOT PUSH1 0x1F DUP3 ADD AND DUP3 ADD DUP1 PUSH1 0x40 MSTORE POP DUP2 ADD SWAP1 PUSH2 0x72A SWAP2 SWAP1 PUSH2 0x2C51 JUMP JUMPDEST PUSH1 0x5 SLOAD PUSH1 0x40 MLOAD PUSH4 0xC040B47 PUSH1 0xE0 SHL DUP2 MSTORE SWAP2 SWAP3 POP PUSH1 0x0 SWAP2 PUSH1 0x1 PUSH1 0x1 PUSH1 0xA0 SHL SUB SWAP1 SWAP2 AND SWAP1 PUSH4 0xC040B47 SWAP1 PUSH2 0x763 SWAP1 PUSH1 0x1 SWAP1 DUP14 SWAP1 PUSH1 0x4 ADD PUSH2 0x2C83 JUMP JUMPDEST PUSH1 0x20 PUSH1 0x40 MLOAD DUP1 DUP4 SUB DUP2 DUP7 GAS STATICCALL ISZERO DUP1 ISZERO PUSH2 0x780 JUMPI RETURNDATASIZE PUSH1 0x0 DUP1 RETURNDATACOPY RETURNDATASIZE PUSH1 0x0 REVERT JUMPDEST POP POP POP POP PUSH1 0x40 MLOAD RETURNDATASIZE PUSH1 0x1F NOT PUSH1 0x1F DUP3 ADD AND DUP3 ADD DUP1 PUSH1 0x40 MSTORE POP DUP2 ADD SWAP1 PUSH2 0x7A4 SWAP2 SWAP1 PUSH2 0x2C51 JUMP JUMPDEST SWAP1 POP PUSH1 0x0 DUP10 GT PUSH2 0x807 JUMPI PUSH1 0x40 MLOAD PUSH3 0x461BCD PUSH1 0xE5 SHL DUP2 MSTORE PUSH1 0x20 PUSH1 0x4 DUP3 ADD MSTORE PUSH1 0x23 PUSH1 0x24 DUP3 ADD MSTORE PUSH32 0x416D6F756E74206E65656420746F2062652067726561746572207468616E207A PUSH1 0x44 DUP3 ADD MSTORE PUSH3 0x65726F PUSH1 0xE8 SHL PUSH1 0x64 DUP3 ADD MSTORE PUSH1 0x84 ADD JUMPDEST PUSH1 0x40 MLOAD DUP1 SWAP2 SUB SWAP1 REVERT JUMPDEST DUP9 DUP6 PUSH1 0x1 PUSH1 0x1 PUSH1 0xA0 SHL SUB AND PUSH4 0x70A08231 PUSH2 0x81F PUSH2 0x266D JUMP JUMPDEST PUSH1 0x40 MLOAD PUSH1 0x1 PUSH1 0x1 PUSH1 0xE0 SHL SUB NOT PUSH1 0xE0 DUP5 SWAP1 SHL AND DUP2 MSTORE PUSH1 0x1 PUSH1 0x1 PUSH1 0xA0 SHL SUB SWAP1 SWAP2 AND PUSH1 0x4 DUP3 ADD MSTORE PUSH1 0x24 ADD PUSH1 0x20 PUSH1 0x40 MLOAD DUP1 DUP4 SUB DUP2 DUP7 GAS STATICCALL ISZERO DUP1 ISZERO PUSH2 0x863 JUMPI RETURNDATASIZE PUSH1 0x0 DUP1 RETURNDATACOPY RETURNDATASIZE PUSH1 0x0 REVERT JUMPDEST POP POP POP POP PUSH1 0x40 MLOAD RETURNDATASIZE PUSH1 0x1F NOT PUSH1 0x1F DUP3 ADD AND DUP3 ADD DUP1 PUSH1 0x40 MSTORE POP DUP2 ADD SWAP1 PUSH2 0x887 SWAP2 SWAP1 PUSH2 0x2C51 JUMP JUMPDEST LT ISZERO PUSH2 0x8A5 JUMPI PUSH1 0x40 MLOAD PUSH3 0x461BCD PUSH1 0xE5 SHL DUP2 MSTORE PUSH1 0x4 ADD PUSH2 0x7FE SWAP1 PUSH2 0x2C9E JUMP JUMPDEST DUP9 DUP6 PUSH1 0x1 PUSH1 0x1 PUSH1 0xA0 SHL SUB AND PUSH4 0xDD62ED3E PUSH2 0x8BD PUSH2 0x266D JUMP JUMPDEST PUSH1 0x40 MLOAD PUSH1 0x1 PUSH1 0x1 PUSH1 0xE0 SHL SUB NOT PUSH1 0xE0 DUP5 SWAP1 SHL AND DUP2 MSTORE PUSH1 0x1 PUSH1 0x1 PUSH1 0xA0 SHL SUB SWAP1 SWAP2 AND PUSH1 0x4 DUP3 ADD MSTORE ADDRESS PUSH1 0x24 DUP3 ADD MSTORE PUSH1 0x44 ADD PUSH1 0x20 PUSH1 0x40 MLOAD DUP1 DUP4 SUB DUP2 DUP7 GAS STATICCALL ISZERO DUP1 ISZERO PUSH2 0x907 JUMPI RETURNDATASIZE PUSH1 0x0 DUP1 RETURNDATACOPY RETURNDATASIZE PUSH1 0x0 REVERT JUMPDEST POP POP POP POP PUSH1 0x40 MLOAD RETURNDATASIZE PUSH1 0x1F NOT PUSH1 0x1F DUP3 ADD AND DUP3 ADD DUP1 PUSH1 0x40 MSTORE POP DUP2 ADD SWAP1 PUSH2 0x92B SWAP2 SWAP1 PUSH2 0x2C51 JUMP JUMPDEST LT ISZERO PUSH2 0x970 JUMPI PUSH1 0x40 MLOAD PUSH3 0x461BCD PUSH1 0xE5 SHL DUP2 MSTORE PUSH1 0x20 PUSH1 0x4 DUP3 ADD MSTORE PUSH1 0x14 PUSH1 0x24 DUP3 ADD MSTORE PUSH20 0x82D8D8DEEEC2DCC6CA40DCDEE840CADCDEEACED PUSH1 0x63 SHL PUSH1 0x44 DUP3 ADD MSTORE PUSH1 0x64 ADD PUSH2 0x7FE JUMP JUMPDEST PUSH1 0x0 DUP5 PUSH1 0x20 ADD MLOAD GT PUSH2 0x9C4 JUMPI PUSH1 0x40 MLOAD PUSH3 0x461BCD PUSH1 0xE5 SHL DUP2 MSTORE PUSH1 0x20 PUSH1 0x4 DUP3 ADD MSTORE PUSH1 0x19 PUSH1 0x24 DUP3 ADD MSTORE PUSH32 0x507269636520686173206E6F74206265656E20646566696E6500000000000000 PUSH1 0x44 DUP3 ADD MSTORE PUSH1 0x64 ADD PUSH2 0x7FE JUMP JUMPDEST PUSH1 0x0 DUP5 PUSH1 0x20 ADD MLOAD PUSH1 0x7 SLOAD DUP6 PUSH2 0x9D9 SWAP2 SWAP1 PUSH2 0x2CDE JUMP JUMPDEST PUSH2 0x9E3 SWAP2 SWAP1 PUSH2 0x2CF5 JUMP JUMPDEST SWAP1 POP DUP6 PUSH1 0x1 PUSH1 0x1 PUSH1 0xA0 SHL SUB AND PUSH4 0x79CC6790 PUSH2 0x9FC PUSH2 0x266D JUMP JUMPDEST DUP13 PUSH1 0x40 MLOAD DUP4 PUSH4 0xFFFFFFFF AND PUSH1 0xE0 SHL DUP2 MSTORE PUSH1 0x4 ADD PUSH2 0xA1A SWAP3 SWAP2 SWAP1 PUSH2 0x2C6A JUMP JUMPDEST PUSH1 0x0 PUSH1 0x40 MLOAD DUP1 DUP4 SUB DUP2 PUSH1 0x0 DUP8 DUP1 EXTCODESIZE ISZERO DUP1 ISZERO PUSH2 0xA34 JUMPI PUSH1 0x0 DUP1 REVERT JUMPDEST POP GAS CALL ISZERO DUP1 ISZERO PUSH2 0xA48 JUMPI RETURNDATASIZE PUSH1 0x0 DUP1 RETURNDATACOPY RETURNDATASIZE PUSH1 0x0 REVERT JUMPDEST POP POP POP POP PUSH2 0xA58 DUP7 DUP3 PUSH1 0x1 PUSH2 0x267C JUMP JUMPDEST POP PUSH1 0x3 SLOAD PUSH1 0x1 PUSH1 0x1 PUSH1 0xA0 SHL SUB AND PUSH4 0xA9059CBB PUSH2 0xA72 PUSH2 0x266D JUMP JUMPDEST DUP4 PUSH1 0x40 MLOAD DUP4 PUSH4 0xFFFFFFFF AND PUSH1 0xE0 SHL DUP2 MSTORE PUSH1 0x4 ADD PUSH2 0xA90 SWAP3 SWAP2 SWAP1 PUSH2 0x2C6A JUMP JUMPDEST PUSH1 0x20 PUSH1 0x40 MLOAD DUP1 DUP4 SUB DUP2 PUSH1 0x0 DUP8 GAS CALL ISZERO DUP1 ISZERO PUSH2 0xAAF JUMPI RETURNDATASIZE PUSH1 0x0 DUP1 RETURNDATACOPY RETURNDATASIZE PUSH1 0x0 REVERT JUMPDEST POP POP POP POP PUSH1 0x40 MLOAD RETURNDATASIZE PUSH1 0x1F NOT PUSH1 0x1F DUP3 ADD AND DUP3 ADD DUP1 PUSH1 0x40 MSTORE POP DUP2 ADD SWAP1 PUSH2 0xAD3 SWAP2 SWAP1 PUSH2 0x2D17 JUMP JUMPDEST POP DUP7 MLOAD PUSH1 0x40 MLOAD PUSH4 0x40C10F19 PUSH1 0xE0 SHL DUP2 MSTORE PUSH1 0x1 PUSH1 0x1 PUSH1 0xA0 SHL SUB DUP9 AND SWAP2 PUSH4 0x40C10F19 SWAP2 PUSH2 0xB03 SWAP2 SWAP1 DUP8 SWAP1 PUSH1 0x4 ADD PUSH2 0x2C6A JUMP JUMPDEST PUSH1 0x0 PUSH1 0x40 MLOAD DUP1 DUP4 SUB DUP2 PUSH1 0x0 DUP8 DUP1 EXTCODESIZE ISZERO DUP1 ISZERO PUSH2 0xB1D JUMPI PUSH1 0x0 DUP1 REVERT JUMPDEST POP GAS CALL ISZERO DUP1 ISZERO PUSH2 0xB31 JUMPI RETURNDATASIZE PUSH1 0x0 DUP1 RETURNDATACOPY RETURNDATASIZE PUSH1 0x0 REVERT JUMPDEST POP POP PUSH1 0x1 SLOAD PUSH1 0x40 MLOAD PUSH4 0x40C10F19 PUSH1 0xE0 SHL DUP2 MSTORE PUSH1 0x1 PUSH1 0x1 PUSH1 0xA0 SHL SUB DUP1 DUP12 AND SWAP5 POP PUSH4 0x40C10F19 SWAP4 POP PUSH2 0xB6C SWAP3 PUSH2 0x100 SWAP1 DIV AND SWAP1 DUP7 SWAP1 PUSH1 0x4 ADD PUSH2 0x2C6A JUMP JUMPDEST PUSH1 0x0 PUSH1 0x40 MLOAD DUP1 DUP4 SUB DUP2 PUSH1 0x0 DUP8 DUP1 EXTCODESIZE ISZERO DUP1 ISZERO PUSH2 0xB86 JUMPI PUSH1 0x0 DUP1 REVERT JUMPDEST POP GAS CALL ISZERO DUP1 ISZERO PUSH2 0xB9A JUMPI RETURNDATASIZE PUSH1 0x0 DUP1 RETURNDATACOPY RETURNDATASIZE PUSH1 0x0 REVERT JUMPDEST POP PUSH1 0x1 SWAP15 SWAP14 POP POP POP POP POP POP POP POP POP POP POP POP POP POP JUMP JUMPDEST PUSH1 0x0 PUSH2 0xBB9 PUSH2 0x2649 JUMP JUMPDEST PUSH1 0x5 SLOAD PUSH1 0x40 MLOAD PUSH4 0x3C057895 PUSH1 0xE0 SHL DUP2 MSTORE PUSH1 0x1 PUSH1 0x1 PUSH1 0xA0 SHL SUB DUP5 DUP2 AND PUSH1 0x4 DUP4 ADD MSTORE PUSH1 0x0 SWAP3 AND SWAP1 PUSH4 0x3C057895 SWAP1 PUSH1 0x24 ADD PUSH1 0x40 DUP1 MLOAD DUP1 DUP4 SUB DUP2 DUP7 GAS STATICCALL ISZERO DUP1 ISZERO PUSH2 0xC03 JUMPI RETURNDATASIZE PUSH1 0x0 DUP1 RETURNDATACOPY RETURNDATASIZE PUSH1 0x0 REVERT JUMPDEST POP POP POP POP PUSH1 0x40 MLOAD RETURNDATASIZE PUSH1 0x1F NOT PUSH1 0x1F DUP3 ADD AND DUP3 ADD DUP1 PUSH1 0x40 MSTORE POP DUP2 ADD SWAP1 PUSH2 0xC27 SWAP2 SWAP1 PUSH2 0x2B8F JUMP JUMPDEST SWAP1 POP PUSH1 0x0 DUP5 GT PUSH2 0xC79 JUMPI PUSH1 0x40 MLOAD PUSH3 0x461BCD PUSH1 0xE5 SHL DUP2 MSTORE PUSH1 0x20 PUSH1 0x4 DUP3 ADD MSTORE PUSH1 0x1B PUSH1 0x24 DUP3 ADD MSTORE PUSH32 0x546F6B656E7320616D6F756E742063616E2774206265207A65726F0000000000 PUSH1 0x44 DUP3 ADD MSTORE PUSH1 0x64 ADD PUSH2 0x7FE JUMP JUMPDEST PUSH1 0x1 PUSH1 0x1 PUSH1 0xA0 SHL SUB DUP7 AND PUSH2 0xCCF JUMPI PUSH1 0x40 MLOAD PUSH3 0x461BCD PUSH1 0xE5 SHL DUP2 MSTORE PUSH1 0x20 PUSH1 0x4 DUP3 ADD MSTORE PUSH1 0x1B PUSH1 0x24 DUP3 ADD MSTORE PUSH32 0x45524332302063616E2774206265206E756C6C20616464726573730000000000 PUSH1 0x44 DUP3 ADD MSTORE PUSH1 0x64 ADD PUSH2 0x7FE JUMP JUMPDEST PUSH1 0x1 PUSH1 0x1 PUSH1 0xA0 SHL SUB DUP6 AND PUSH2 0xD25 JUMPI PUSH1 0x40 MLOAD PUSH3 0x461BCD PUSH1 0xE5 SHL DUP2 MSTORE PUSH1 0x20 PUSH1 0x4 DUP3 ADD MSTORE PUSH1 0x1F PUSH1 0x24 DUP3 ADD MSTORE PUSH32 0x526563697069656E742063616E2774206265206E756C6C206164647265737300 PUSH1 0x44 DUP3 ADD MSTORE PUSH1 0x64 ADD PUSH2 0x7FE JUMP JUMPDEST PUSH1 0x5 SLOAD DUP2 MLOAD PUSH1 0x40 MLOAD PUSH4 0x9EF12085 PUSH1 0xE0 SHL DUP2 MSTORE PUSH1 0x0 SWAP3 PUSH1 0x1 PUSH1 0x1 PUSH1 0xA0 SHL SUB AND SWAP2 PUSH4 0x9EF12085 SWAP2 PUSH2 0xD5C SWAP2 SWAP1 DUP10 SWAP1 PUSH1 0x1 SWAP1 PUSH1 0x4 ADD PUSH2 0x2C2D JUMP JUMPDEST PUSH1 0x20 PUSH1 0x40 MLOAD DUP1 DUP4 SUB DUP2 DUP7 GAS STATICCALL ISZERO DUP1 ISZERO PUSH2 0xD79 JUMPI RETURNDATASIZE PUSH1 0x0 DUP1 RETURNDATACOPY RETURNDATASIZE PUSH1 0x0 REVERT JUMPDEST POP POP POP POP PUSH1 0x40 MLOAD RETURNDATASIZE PUSH1 0x1F NOT PUSH1 0x1F DUP3 ADD AND DUP3 ADD DUP1 PUSH1 0x40 MSTORE POP DUP2 ADD SWAP1 PUSH2 0xD9D SWAP2 SWAP1 PUSH2 0x2C51 JUMP JUMPDEST PUSH1 0x5 SLOAD DUP4 MLOAD PUSH1 0x40 MLOAD PUSH4 0x47203D5B PUSH1 0xE0 SHL DUP2 MSTORE SWAP3 SWAP4 POP PUSH1 0x0 SWAP3 PUSH1 0x1 PUSH1 0x1 PUSH1 0xA0 SHL SUB SWAP1 SWAP3 AND SWAP2 PUSH4 0x47203D5B SWAP2 PUSH2 0xDD5 SWAP2 DUP11 SWAP1 PUSH1 0x4 ADD PUSH2 0x2C6A JUMP JUMPDEST PUSH1 0x20 PUSH1 0x40 MLOAD DUP1 DUP4 SUB DUP2 DUP7 GAS STATICCALL ISZERO DUP1 ISZERO PUSH2 0xDF2 JUMPI RETURNDATASIZE PUSH1 0x0 DUP1 RETURNDATACOPY RETURNDATASIZE PUSH1 0x0 REVERT JUMPDEST POP POP POP POP PUSH1 0x40 MLOAD RETURNDATASIZE PUSH1 0x1F NOT PUSH1 0x1F DUP3 ADD AND DUP3 ADD DUP1 PUSH1 0x40 MSTORE POP DUP2 ADD SWAP1 PUSH2 0xE16 SWAP2 SWAP1 PUSH2 0x2C51 JUMP JUMPDEST PUSH1 0x5 SLOAD PUSH1 0x40 MLOAD PUSH4 0xC040B47 PUSH1 0xE0 SHL DUP2 MSTORE SWAP2 SWAP3 POP PUSH1 0x0 SWAP2 PUSH1 0x1 PUSH1 0x1 PUSH1 0xA0 SHL SUB SWAP1 SWAP2 AND SWAP1 PUSH4 0xC040B47 SWAP1 PUSH2 0xE4F SWAP1 PUSH1 0x1 SWAP1 DUP12 SWAP1 PUSH1 0x4 ADD PUSH2 0x2C83 JUMP JUMPDEST PUSH1 0x20 PUSH1 0x40 MLOAD DUP1 DUP4 SUB DUP2 DUP7 GAS STATICCALL ISZERO DUP1 ISZERO PUSH2 0xE6C JUMPI RETURNDATASIZE PUSH1 0x0 DUP1 RETURNDATACOPY RETURNDATASIZE PUSH1 0x0 REVERT JUMPDEST POP POP POP POP PUSH1 0x40 MLOAD RETURNDATASIZE PUSH1 0x1F NOT PUSH1 0x1F DUP3 ADD AND DUP3 ADD DUP1 PUSH1 0x40 MSTORE POP DUP2 ADD SWAP1 PUSH2 0xE90 SWAP2 SWAP1 PUSH2 0x2C51 JUMP JUMPDEST SWAP1 POP DUP9 DUP8 PUSH1 0x1 PUSH1 0x1 PUSH1 0xA0 SHL SUB DUP3 AND PUSH4 0x70A08231 PUSH2 0xEAB PUSH2 0x266D JUMP JUMPDEST PUSH1 0x40 MLOAD PUSH1 0x1 PUSH1 0x1 PUSH1 0xE0 SHL SUB NOT PUSH1 0xE0 DUP5 SWAP1 SHL AND DUP2 MSTORE PUSH1 0x1 PUSH1 0x1 PUSH1 0xA0 SHL SUB SWAP1 SWAP2 AND PUSH1 0x4 DUP3 ADD MSTORE PUSH1 0x24 ADD PUSH1 0x20 PUSH1 0x40 MLOAD DUP1 DUP4 SUB DUP2 DUP7 GAS STATICCALL ISZERO DUP1 ISZERO PUSH2 0xEEF JUMPI RETURNDATASIZE PUSH1 0x0 DUP1 RETURNDATACOPY RETURNDATASIZE PUSH1 0x0 REVERT JUMPDEST POP POP POP POP PUSH1 0x40 MLOAD RETURNDATASIZE PUSH1 0x1F NOT PUSH1 0x1F DUP3 ADD AND DUP3 ADD DUP1 PUSH1 0x40 MSTORE POP DUP2 ADD SWAP1 PUSH2 0xF13 SWAP2 SWAP1 PUSH2 0x2C51 JUMP JUMPDEST LT ISZERO PUSH2 0xF31 JUMPI PUSH1 0x40 MLOAD PUSH3 0x461BCD PUSH1 0xE5 SHL DUP2 MSTORE PUSH1 0x4 ADD PUSH2 0x7FE SWAP1 PUSH2 0x2C9E JUMP JUMPDEST DUP1 PUSH1 0x1 PUSH1 0x1 PUSH1 0xA0 SHL SUB AND PUSH4 0x23B872DD PUSH2 0xF48 PUSH2 0x266D JUMP JUMPDEST DUP12 DUP8 PUSH1 0x40 MLOAD DUP5 PUSH4 0xFFFFFFFF AND PUSH1 0xE0 SHL DUP2 MSTORE PUSH1 0x4 ADD PUSH2 0xF68 SWAP4 SWAP3 SWAP2 SWAP1 PUSH2 0x2D34 JUMP JUMPDEST PUSH1 0x20 PUSH1 0x40 MLOAD DUP1 DUP4 SUB DUP2 PUSH1 0x0 DUP8 GAS CALL ISZERO DUP1 ISZERO PUSH2 0xF87 JUMPI RETURNDATASIZE PUSH1 0x0 DUP1 RETURNDATACOPY RETURNDATASIZE PUSH1 0x0 REVERT JUMPDEST POP POP POP POP PUSH1 0x40 MLOAD RETURNDATASIZE PUSH1 0x1F NOT PUSH1 0x1F DUP3 ADD AND DUP3 ADD DUP1 PUSH1 0x40 MSTORE POP DUP2 ADD SWAP1 PUSH2 0xFAB SWAP2 SWAP1 PUSH2 0x2D17 JUMP JUMPDEST POP DUP1 PUSH1 0x1 PUSH1 0x1 PUSH1 0xA0 SHL SUB AND PUSH4 0x23B872DD PUSH2 0xFC3 PUSH2 0x266D JUMP JUMPDEST DUP8 MLOAD PUSH1 0x40 MLOAD PUSH1 0x1 PUSH1 0x1 PUSH1 0xE0 SHL SUB NOT PUSH1 0xE0 DUP6 SWAP1 SHL AND DUP2 MSTORE PUSH2 0xFE9 SWAP3 SWAP2 SWAP1 DUP9 SWAP1 PUSH1 0x4 ADD PUSH2 0x2D34 JUMP JUMPDEST PUSH1 0x20 PUSH1 0x40 MLOAD DUP1 DUP4 SUB DUP2 PUSH1 0x0 DUP8 GAS CALL ISZERO DUP1 ISZERO PUSH2 0x1008 JUMPI RETURNDATASIZE PUSH1 0x0 DUP1 RETURNDATACOPY RETURNDATASIZE PUSH1 0x0 REVERT JUMPDEST POP POP POP POP PUSH1 0x40 MLOAD RETURNDATASIZE PUSH1 0x1F NOT PUSH1 0x1F DUP3 ADD AND DUP3 ADD DUP1 PUSH1 0x40 MSTORE POP DUP2 ADD SWAP1 PUSH2 0x102C SWAP2 SWAP1 PUSH2 0x2D17 JUMP JUMPDEST POP DUP1 PUSH1 0x1 PUSH1 0x1 PUSH1 0xA0 SHL SUB AND PUSH4 0x23B872DD PUSH2 0x1044 PUSH2 0x266D JUMP JUMPDEST PUSH1 0x1 SLOAD PUSH1 0x40 MLOAD PUSH1 0xE0 DUP5 SWAP1 SHL PUSH1 0x1 PUSH1 0x1 PUSH1 0xE0 SHL SUB NOT AND DUP2 MSTORE PUSH2 0x1079 SWAP3 SWAP2 PUSH2 0x100 SWAP1 DIV PUSH1 0x1 PUSH1 0x1 PUSH1 0xA0 SHL SUB AND SWAP1 DUP8 SWAP1 PUSH1 0x4 ADD PUSH2 0x2D34 JUMP JUMPDEST PUSH1 0x20 PUSH1 0x40 MLOAD DUP1 DUP4 SUB DUP2 PUSH1 0x0 DUP8 GAS CALL ISZERO DUP1 ISZERO PUSH2 0x1098 JUMPI RETURNDATASIZE PUSH1 0x0 DUP1 RETURNDATACOPY RETURNDATASIZE PUSH1 0x0 REVERT JUMPDEST POP POP POP POP PUSH1 0x40 MLOAD RETURNDATASIZE PUSH1 0x1F NOT PUSH1 0x1F DUP3 ADD AND DUP3 ADD DUP1 PUSH1 0x40 MSTORE POP DUP2 ADD SWAP1 PUSH2 0x10BC SWAP2 SWAP1 PUSH2 0x2D17 JUMP JUMPDEST POP PUSH1 0x1 SWAP6 POP POP POP POP POP POP JUMPDEST SWAP5 SWAP4 POP POP POP POP JUMP JUMPDEST PUSH1 0x0 PUSH2 0x10EB PUSH1 0x0 DUP1 MLOAD PUSH1 0x20 PUSH2 0x2E4F DUP4 CODECOPY DUP2 MLOAD SWAP2 MSTORE PUSH2 0x45B PUSH2 0x266D JUMP JUMPDEST PUSH2 0x1107 JUMPI PUSH1 0x40 MLOAD PUSH3 0x461BCD PUSH1 0xE5 SHL DUP2 MSTORE PUSH1 0x4 ADD PUSH2 0x7FE SWAP1 PUSH2 0x2D58 JUMP JUMPDEST PUSH1 0x1 PUSH1 0x1 PUSH1 0xA0 SHL SUB DUP3 AND PUSH2 0x1157 JUMPI PUSH1 0x40 MLOAD PUSH3 0x461BCD PUSH1 0xE5 SHL DUP2 MSTORE PUSH1 0x20 PUSH1 0x4 DUP3 ADD MSTORE PUSH1 0x17 PUSH1 0x24 DUP3 ADD MSTORE PUSH23 0x14DD18589B194C48191BD95CDD081B9BDD08195E1A5CDD PUSH1 0x4A SHL PUSH1 0x44 DUP3 ADD MSTORE PUSH1 0x64 ADD PUSH2 0x7FE JUMP JUMPDEST POP PUSH1 0x3 DUP1 SLOAD PUSH1 0x1 PUSH1 0x1 PUSH1 0xA0 SHL SUB DUP4 AND PUSH1 0x1 PUSH1 0x1 PUSH1 0xA0 SHL SUB NOT SWAP1 SWAP2 AND OR SWAP1 SSTORE PUSH1 0x1 SWAP2 SWAP1 POP JUMP JUMPDEST PUSH2 0x1184 PUSH2 0x29A2 JUMP JUMPDEST POP PUSH1 0x1 PUSH1 0x1 PUSH1 0xA0 SHL SUB SWAP1 DUP2 AND PUSH1 0x0 SWAP1 DUP2 MSTORE PUSH1 0x6 PUSH1 0x20 SWAP1 DUP2 MSTORE PUSH1 0x40 SWAP2 DUP3 SWAP1 KECCAK256 DUP3 MLOAD PUSH1 0x80 DUP2 ADD DUP5 MSTORE DUP2 SLOAD SWAP1 SWAP5 AND DUP5 MSTORE PUSH1 0x1 DUP2 ADD SLOAD SWAP2 DUP5 ADD SWAP2 SWAP1 SWAP2 MSTORE PUSH1 0x2 DUP2 ADD SLOAD SWAP2 DUP4 ADD SWAP2 SWAP1 SWAP2 MSTORE PUSH1 0x3 ADD SLOAD PUSH1 0xFF AND ISZERO ISZERO PUSH1 0x60 DUP3 ADD MSTORE SWAP1 JUMP JUMPDEST PUSH1 0x0 DUP3 DUP2 MSTORE PUSH1 0x20 DUP2 SWAP1 MSTORE PUSH1 0x40 SWAP1 KECCAK256 PUSH1 0x1 ADD SLOAD PUSH2 0x11F5 DUP2 PUSH2 0x2747 JUMP JUMPDEST PUSH2 0x11FF DUP4 DUP4 PUSH2 0x275B JUMP JUMPDEST POP POP POP POP JUMP JUMPDEST PUSH2 0x120D PUSH2 0x266D JUMP JUMPDEST PUSH1 0x1 PUSH1 0x1 PUSH1 0xA0 SHL SUB AND DUP2 PUSH1 0x1 PUSH1 0x1 PUSH1 0xA0 SHL SUB AND EQ PUSH2 0x123E JUMPI PUSH1 0x40 MLOAD PUSH4 0x334BD919 PUSH1 0xE1 SHL DUP2 MSTORE PUSH1 0x4 ADD PUSH1 0x40 MLOAD DUP1 SWAP2 SUB SWAP1 REVERT JUMPDEST PUSH2 0x1248 DUP3 DUP3 PUSH2 0x27EE JUMP JUMPDEST POP POP POP JUMP JUMPDEST PUSH2 0x1255 PUSH2 0x29A2 JUMP JUMPDEST PUSH2 0x126F PUSH1 0x0 DUP1 MLOAD PUSH1 0x20 PUSH2 0x2E4F DUP4 CODECOPY DUP2 MLOAD SWAP2 MSTORE PUSH2 0x45B PUSH2 0x266D JUMP JUMPDEST PUSH2 0x128B JUMPI PUSH1 0x40 MLOAD PUSH3 0x461BCD PUSH1 0xE5 SHL DUP2 MSTORE PUSH1 0x4 ADD PUSH2 0x7FE SWAP1 PUSH2 0x2D58 JUMP JUMPDEST PUSH1 0x1 PUSH1 0x1 PUSH1 0xA0 SHL SUB DUP1 DUP7 AND PUSH1 0x0 SWAP1 DUP2 MSTORE PUSH1 0x6 PUSH1 0x20 SWAP1 DUP2 MSTORE PUSH1 0x40 SWAP2 DUP3 SWAP1 KECCAK256 DUP3 MLOAD PUSH1 0x80 DUP2 ADD DUP5 MSTORE DUP2 SLOAD SWAP1 SWAP5 AND DUP1 DUP6 MSTORE PUSH1 0x1 DUP3 ADD SLOAD SWAP3 DUP6 ADD SWAP3 SWAP1 SWAP3 MSTORE PUSH1 0x2 DUP2 ADD SLOAD SWAP3 DUP5 ADD SWAP3 SWAP1 SWAP3 MSTORE PUSH1 0x3 SWAP1 SWAP2 ADD SLOAD PUSH1 0xFF AND ISZERO ISZERO PUSH1 0x60 DUP4 ADD MSTORE ISZERO PUSH2 0x133B JUMPI PUSH1 0x40 MLOAD PUSH3 0x461BCD PUSH1 0xE5 SHL DUP2 MSTORE PUSH1 0x20 PUSH1 0x4 DUP3 ADD MSTORE PUSH1 0x25 PUSH1 0x24 DUP3 ADD MSTORE PUSH32 0x537461626C654D616E616765723A20746F6B656E206164647265737320206578 PUSH1 0x44 DUP3 ADD MSTORE PUSH5 0x7469737473 PUSH1 0xD8 SHL PUSH1 0x64 DUP3 ADD MSTORE PUSH1 0x84 ADD PUSH2 0x7FE JUMP JUMPDEST PUSH1 0x1 PUSH1 0x1 PUSH1 0xA0 SHL SUB DUP7 AND PUSH2 0x1361 JUMPI PUSH1 0x40 MLOAD PUSH3 0x461BCD PUSH1 0xE5 SHL DUP2 MSTORE PUSH1 0x4 ADD PUSH2 0x7FE SWAP1 PUSH2 0x2D8F JUMP JUMPDEST PUSH1 0x0 DUP6 GT PUSH2 0x1381 JUMPI PUSH1 0x40 MLOAD PUSH3 0x461BCD PUSH1 0xE5 SHL DUP2 MSTORE PUSH1 0x4 ADD PUSH2 0x7FE SWAP1 PUSH2 0x2DDA JUMP JUMPDEST POP POP PUSH1 0x40 DUP1 MLOAD PUSH1 0x80 DUP1 DUP3 ADD DUP4 MSTORE PUSH1 0x1 PUSH1 0x1 PUSH1 0xA0 SHL SUB SWAP7 DUP8 AND DUP1 DUP4 MSTORE PUSH1 0x20 DUP1 DUP5 ADD SWAP8 DUP9 MSTORE DUP4 DUP6 ADD SWAP7 DUP8 MSTORE SWAP5 ISZERO ISZERO PUSH1 0x60 DUP1 DUP6 ADD SWAP2 DUP3 MSTORE PUSH1 0x0 SWAP3 DUP4 MSTORE PUSH1 0x6 DUP8 MSTORE SWAP2 DUP6 SWAP1 KECCAK256 SWAP4 MLOAD DUP5 SLOAD PUSH1 0x1 PUSH1 0x1 PUSH1 0xA0 SHL SUB NOT AND SWAP10 AND SWAP9 DUP10 OR DUP5 SSTORE SWAP7 MLOAD PUSH1 0x1 DUP5 ADD DUP2 SWAP1 SSTORE SWAP6 MLOAD PUSH1 0x2 DUP5 ADD DUP2 SWAP1 SSTORE SWAP7 MLOAD PUSH1 0x3 SWAP1 SWAP4 ADD DUP1 SLOAD PUSH1 0xFF NOT AND SWAP4 ISZERO ISZERO SWAP4 DUP5 OR SWAP1 SSTORE DUP4 MLOAD SWAP2 DUP3 ADD DUP5 MSTORE SWAP7 DUP2 MSTORE SWAP3 DUP4 ADD SWAP4 SWAP1 SWAP4 MSTORE DUP2 ADD SWAP3 SWAP1 SWAP3 MSTORE PUSH1 0xFF AND ISZERO ISZERO SWAP2 DUP2 ADD SWAP2 SWAP1 SWAP2 MSTORE SWAP1 JUMP JUMPDEST PUSH2 0x143E PUSH1 0x0 DUP1 MLOAD PUSH1 0x20 PUSH2 0x2E4F DUP4 CODECOPY DUP2 MLOAD SWAP2 MSTORE PUSH2 0x45B PUSH2 0x266D JUMP JUMPDEST PUSH2 0x145A JUMPI PUSH1 0x40 MLOAD PUSH3 0x461BCD PUSH1 0xE5 SHL DUP2 MSTORE PUSH1 0x4 ADD PUSH2 0x7FE SWAP1 PUSH2 0x2D58 JUMP JUMPDEST PUSH2 0x1462 PUSH2 0x2877 JUMP JUMPDEST JUMP JUMPDEST PUSH2 0x147E PUSH1 0x0 DUP1 MLOAD PUSH1 0x20 PUSH2 0x2E4F DUP4 CODECOPY DUP2 MLOAD SWAP2 MSTORE PUSH2 0x45B PUSH2 0x266D JUMP JUMPDEST PUSH2 0x149A JUMPI PUSH1 0x40 MLOAD PUSH3 0x461BCD PUSH1 0xE5 SHL DUP2 MSTORE PUSH1 0x4 ADD PUSH2 0x7FE SWAP1 PUSH2 0x2D58 JUMP JUMPDEST PUSH2 0x1248 DUP3 DUP3 PUSH2 0x275B JUMP JUMPDEST PUSH2 0x14AC PUSH2 0x29A2 JUMP JUMPDEST PUSH2 0x14C6 PUSH1 0x0 DUP1 MLOAD PUSH1 0x20 PUSH2 0x2E4F DUP4 CODECOPY DUP2 MLOAD SWAP2 MSTORE PUSH2 0x45B PUSH2 0x266D JUMP JUMPDEST PUSH2 0x14E2 JUMPI PUSH1 0x40 MLOAD PUSH3 0x461BCD PUSH1 0xE5 SHL DUP2 MSTORE PUSH1 0x4 ADD PUSH2 0x7FE SWAP1 PUSH2 0x2D58 JUMP JUMPDEST PUSH1 0x1 PUSH1 0x1 PUSH1 0xA0 SHL SUB DUP3 AND PUSH2 0x1508 JUMPI PUSH1 0x40 MLOAD PUSH3 0x461BCD PUSH1 0xE5 SHL DUP2 MSTORE PUSH1 0x4 ADD PUSH2 0x7FE SWAP1 PUSH2 0x2D8F JUMP JUMPDEST POP PUSH1 0x1 PUSH1 0x1 PUSH1 0xA0 SHL SUB AND PUSH1 0x0 SWAP1 DUP2 MSTORE PUSH1 0x6 PUSH1 0x20 SWAP1 DUP2 MSTORE PUSH1 0x40 DUP1 DUP4 KECCAK256 DUP1 SLOAD PUSH1 0x1 PUSH1 0x1 PUSH1 0xA0 SHL SUB NOT AND DUP2 SSTORE PUSH1 0x1 DUP2 ADD DUP5 SWAP1 SSTORE PUSH1 0x2 DUP2 ADD DUP5 SWAP1 SSTORE PUSH1 0x3 ADD DUP1 SLOAD PUSH1 0xFF NOT AND SWAP1 SSTORE DUP1 MLOAD PUSH1 0x80 DUP2 ADD DUP3 MSTORE DUP4 DUP2 MSTORE SWAP2 DUP3 ADD DUP4 SWAP1 MSTORE DUP2 ADD DUP3 SWAP1 MSTORE PUSH1 0x60 DUP2 ADD SWAP2 SWAP1 SWAP2 MSTORE SWAP1 JUMP JUMPDEST PUSH2 0x1585 PUSH1 0x0 DUP1 MLOAD PUSH1 0x20 PUSH2 0x2E4F DUP4 CODECOPY DUP2 MLOAD SWAP2 MSTORE PUSH2 0x45B PUSH2 0x266D JUMP JUMPDEST PUSH2 0x15A1 JUMPI PUSH1 0x40 MLOAD PUSH3 0x461BCD PUSH1 0xE5 SHL DUP2 MSTORE PUSH1 0x4 ADD PUSH2 0x7FE SWAP1 PUSH2 0x2D58 JUMP JUMPDEST PUSH2 0x1462 PUSH2 0x28CF JUMP JUMPDEST PUSH1 0x0 SWAP2 DUP3 MSTORE PUSH1 0x20 DUP3 DUP2 MSTORE PUSH1 0x40 DUP1 DUP5 KECCAK256 PUSH1 0x1 PUSH1 0x1 PUSH1 0xA0 SHL SUB SWAP4 SWAP1 SWAP4 AND DUP5 MSTORE SWAP2 SWAP1 MSTORE SWAP1 KECCAK256 SLOAD PUSH1 0xFF AND SWAP1 JUMP JUMPDEST PUSH2 0x15DA PUSH2 0x29A2 JUMP JUMPDEST PUSH2 0x15F4 PUSH1 0x0 DUP1 MLOAD PUSH1 0x20 PUSH2 0x2E4F DUP4 CODECOPY DUP2 MLOAD SWAP2 MSTORE PUSH2 0x45B PUSH2 0x266D JUMP JUMPDEST PUSH2 0x1610 JUMPI PUSH1 0x40 MLOAD PUSH3 0x461BCD PUSH1 0xE5 SHL DUP2 MSTORE PUSH1 0x4 ADD PUSH2 0x7FE SWAP1 PUSH2 0x2D58 JUMP JUMPDEST PUSH1 0x1 PUSH1 0x1 PUSH1 0xA0 SHL SUB DUP6 AND PUSH2 0x1636 JUMPI PUSH1 0x40 MLOAD PUSH3 0x461BCD PUSH1 0xE5 SHL DUP2 MSTORE PUSH1 0x4 ADD PUSH2 0x7FE SWAP1 PUSH2 0x2D8F JUMP JUMPDEST PUSH1 0x0 DUP5 GT PUSH2 0x1656 JUMPI PUSH1 0x40 MLOAD PUSH3 0x461BCD PUSH1 0xE5 SHL DUP2 MSTORE PUSH1 0x4 ADD PUSH2 0x7FE SWAP1 PUSH2 0x2DDA JUMP JUMPDEST POP PUSH1 0x40 DUP1 MLOAD PUSH1 0x80 DUP1 DUP3 ADD DUP4 MSTORE PUSH1 0x1 PUSH1 0x1 PUSH1 0xA0 SHL SUB SWAP7 DUP8 AND DUP1 DUP4 MSTORE PUSH1 0x20 DUP1 DUP5 ADD SWAP8 DUP9 MSTORE DUP4 DUP6 ADD SWAP7 DUP8 MSTORE SWAP5 ISZERO ISZERO PUSH1 0x60 DUP1 DUP6 ADD SWAP2 DUP3 MSTORE PUSH1 0x0 SWAP3 DUP4 MSTORE PUSH1 0x6 DUP8 MSTORE SWAP2 DUP6 SWAP1 KECCAK256 SWAP4 MLOAD DUP5 SLOAD PUSH1 0x1 PUSH1 0x1 PUSH1 0xA0 SHL SUB NOT AND SWAP10 AND SWAP9 DUP10 OR DUP5 SSTORE SWAP7 MLOAD PUSH1 0x1 DUP5 ADD DUP2 SWAP1 SSTORE SWAP6 MLOAD PUSH1 0x2 DUP5 ADD DUP2 SWAP1 SSTORE SWAP7 MLOAD PUSH1 0x3 SWAP1 SWAP4 ADD DUP1 SLOAD PUSH1 0xFF NOT AND SWAP4 ISZERO ISZERO SWAP4 DUP5 OR SWAP1 SSTORE DUP4 MLOAD SWAP2 DUP3 ADD DUP5 MSTORE SWAP7 DUP2 MSTORE SWAP3 DUP4 ADD SWAP4 SWAP1 SWAP4 MSTORE DUP2 ADD SWAP3 SWAP1 SWAP3 MSTORE PUSH1 0xFF AND ISZERO ISZERO SWAP2 DUP2 ADD SWAP2 SWAP1 SWAP2 MSTORE SWAP1 JUMP JUMPDEST PUSH1 0x0 PUSH2 0x1714 PUSH1 0x0 DUP1 MLOAD PUSH1 0x20 PUSH2 0x2E4F DUP4 CODECOPY DUP2 MLOAD SWAP2 MSTORE PUSH2 0x45B PUSH2 0x266D JUMP JUMPDEST PUSH2 0x1730 JUMPI PUSH1 0x40 MLOAD PUSH3 0x461BCD PUSH1 0xE5 SHL DUP2 MSTORE PUSH1 0x4 ADD PUSH2 0x7FE SWAP1 PUSH2 0x2D58 JUMP JUMPDEST PUSH1 0x1 PUSH1 0x1 PUSH1 0xA0 SHL SUB DUP3 AND PUSH2 0x1786 JUMPI PUSH1 0x40 MLOAD PUSH3 0x461BCD PUSH1 0xE5 SHL DUP2 MSTORE PUSH1 0x20 PUSH1 0x4 DUP3 ADD MSTORE PUSH1 0x1A PUSH1 0x24 DUP3 ADD MSTORE PUSH32 0x666565436F6C6C6563746F722063616E2774206265206E756C6C000000000000 PUSH1 0x44 DUP3 ADD MSTORE PUSH1 0x64 ADD PUSH2 0x7FE JUMP JUMPDEST POP PUSH1 0x1 DUP1 SLOAD PUSH1 0x1 PUSH1 0x1 PUSH1 0xA0 SHL SUB DUP4 AND PUSH2 0x100 MUL PUSH2 0x100 PUSH1 0x1 PUSH1 0xA8 SHL SUB NOT SWAP1 SWAP2 AND OR DUP2 SSTORE SWAP2 SWAP1 POP JUMP JUMPDEST PUSH1 0x0 PUSH2 0x17CA PUSH1 0x0 DUP1 MLOAD PUSH1 0x20 PUSH2 0x2E4F DUP4 CODECOPY DUP2 MLOAD SWAP2 MSTORE PUSH2 0x45B PUSH2 0x266D JUMP JUMPDEST PUSH2 0x17E6 JUMPI PUSH1 0x40 MLOAD PUSH3 0x461BCD PUSH1 0xE5 SHL DUP2 MSTORE PUSH1 0x4 ADD PUSH2 0x7FE SWAP1 PUSH2 0x2D58 JUMP JUMPDEST PUSH1 0x0 DUP3 GT PUSH2 0x1806 JUMPI PUSH1 0x40 MLOAD PUSH3 0x461BCD PUSH1 0xE5 SHL DUP2 MSTORE PUSH1 0x4 ADD PUSH2 0x7FE SWAP1 PUSH2 0x2DDA JUMP JUMPDEST POP PUSH1 0x1 PUSH1 0x1 PUSH1 0xA0 SHL SUB DUP3 AND PUSH1 0x0 SWAP1 DUP2 MSTORE PUSH1 0x6 PUSH1 0x20 MSTORE PUSH1 0x40 DUP2 KECCAK256 PUSH1 0x1 ADD DUP3 SWAP1 SSTORE SWAP3 SWAP2 POP POP JUMP JUMPDEST PUSH1 0x0 PUSH2 0x1835 PUSH2 0x2649 JUMP JUMPDEST PUSH1 0x5 SLOAD PUSH1 0x40 MLOAD PUSH4 0x3C057895 PUSH1 0xE0 SHL DUP2 MSTORE PUSH1 0x1 PUSH1 0x1 PUSH1 0xA0 SHL SUB DUP5 DUP2 AND PUSH1 0x4 DUP4 ADD MSTORE PUSH1 0x0 SWAP3 AND SWAP1 PUSH4 0x3C057895 SWAP1 PUSH1 0x24 ADD PUSH1 0x40 DUP1 MLOAD DUP1 DUP4 SUB DUP2 DUP7 GAS STATICCALL ISZERO DUP1 ISZERO PUSH2 0x187F JUMPI RETURNDATASIZE PUSH1 0x0 DUP1 RETURNDATACOPY RETURNDATASIZE PUSH1 0x0 REVERT JUMPDEST POP POP POP POP PUSH1 0x40 MLOAD RETURNDATASIZE PUSH1 0x1F NOT PUSH1 0x1F DUP3 ADD AND DUP3 ADD DUP1 PUSH1 0x40 MSTORE POP DUP2 ADD SWAP1 PUSH2 0x18A3 SWAP2 SWAP1 PUSH2 0x2B8F JUMP JUMPDEST SWAP1 POP DUP5 PUSH1 0x0 PUSH2 0x18B1 DUP3 PUSH2 0x117C JUMP JUMPDEST SWAP1 POP PUSH1 0x0 DUP7 GT PUSH2 0x1903 JUMPI PUSH1 0x40 MLOAD PUSH3 0x461BCD PUSH1 0xE5 SHL DUP2 MSTORE PUSH1 0x20 PUSH1 0x4 DUP3 ADD MSTORE PUSH1 0x18 PUSH1 0x24 DUP3 ADD MSTORE PUSH32 0x55736420616D6F756E742063616E2774206265207A65726F0000000000000000 PUSH1 0x44 DUP3 ADD MSTORE PUSH1 0x64 ADD PUSH2 0x7FE JUMP JUMPDEST PUSH1 0x3 SLOAD DUP7 SWAP1 PUSH1 0x1 PUSH1 0x1 PUSH1 0xA0 SHL SUB AND PUSH4 0x70A08231 PUSH2 0x191E PUSH2 0x266D JUMP JUMPDEST PUSH1 0x40 MLOAD PUSH1 0x1 PUSH1 0x1 PUSH1 0xE0 SHL SUB NOT PUSH1 0xE0 DUP5 SWAP1 SHL AND DUP2 MSTORE PUSH1 0x1 PUSH1 0x1 PUSH1 0xA0 SHL SUB SWAP1 SWAP2 AND PUSH1 0x4 DUP3 ADD MSTORE PUSH1 0x24 ADD PUSH1 0x20 PUSH1 0x40 MLOAD DUP1 DUP4 SUB DUP2 DUP7 GAS STATICCALL ISZERO DUP1 ISZERO PUSH2 0x1962 JUMPI RETURNDATASIZE PUSH1 0x0 DUP1 RETURNDATACOPY RETURNDATASIZE PUSH1 0x0 REVERT JUMPDEST POP POP POP POP PUSH1 0x40 MLOAD RETURNDATASIZE PUSH1 0x1F NOT PUSH1 0x1F DUP3 ADD AND DUP3 ADD DUP1 PUSH1 0x40 MSTORE POP DUP2 ADD SWAP1 PUSH2 0x1986 SWAP2 SWAP1 PUSH2 0x2C51 JUMP JUMPDEST LT ISZERO PUSH2 0x19CB JUMPI PUSH1 0x40 MLOAD PUSH3 0x461BCD PUSH1 0xE5 SHL DUP2 MSTORE PUSH1 0x20 PUSH1 0x4 DUP3 ADD MSTORE PUSH1 0x14 PUSH1 0x24 DUP3 ADD MSTORE PUSH20 0xAAA68840A8DED6CADC40DCDEE840CADCDEEACED PUSH1 0x63 SHL PUSH1 0x44 DUP3 ADD MSTORE PUSH1 0x64 ADD PUSH2 0x7FE JUMP JUMPDEST PUSH1 0x3 SLOAD DUP7 SWAP1 PUSH1 0x1 PUSH1 0x1 PUSH1 0xA0 SHL SUB AND PUSH4 0xDD62ED3E PUSH2 0x19E6 PUSH2 0x266D JUMP JUMPDEST PUSH1 0x40 MLOAD PUSH1 0x1 PUSH1 0x1 PUSH1 0xE0 SHL SUB NOT PUSH1 0xE0 DUP5 SWAP1 SHL AND DUP2 MSTORE PUSH1 0x1 PUSH1 0x1 PUSH1 0xA0 SHL SUB SWAP1 SWAP2 AND PUSH1 0x4 DUP3 ADD MSTORE ADDRESS PUSH1 0x24 DUP3 ADD MSTORE PUSH1 0x44 ADD PUSH1 0x20 PUSH1 0x40 MLOAD DUP1 DUP4 SUB DUP2 DUP7 GAS STATICCALL ISZERO DUP1 ISZERO PUSH2 0x1A30 JUMPI RETURNDATASIZE PUSH1 0x0 DUP1 RETURNDATACOPY RETURNDATASIZE PUSH1 0x0 REVERT JUMPDEST POP POP POP POP PUSH1 0x40 MLOAD RETURNDATASIZE PUSH1 0x1F NOT PUSH1 0x1F DUP3 ADD AND DUP3 ADD DUP1 PUSH1 0x40 MSTORE POP DUP2 ADD SWAP1 PUSH2 0x1A54 SWAP2 SWAP1 PUSH2 0x2C51 JUMP JUMPDEST LT ISZERO PUSH2 0x1AA2 JUMPI PUSH1 0x40 MLOAD PUSH3 0x461BCD PUSH1 0xE5 SHL DUP2 MSTORE PUSH1 0x20 PUSH1 0x4 DUP3 ADD MSTORE PUSH1 0x1E PUSH1 0x24 DUP3 ADD MSTORE PUSH32 0x55534420546F6B656E20416C6C6F77616E6365206E6F7420656E6F7567680000 PUSH1 0x44 DUP3 ADD MSTORE PUSH1 0x64 ADD PUSH2 0x7FE JUMP JUMPDEST PUSH1 0x0 DUP2 PUSH1 0x20 ADD MLOAD GT PUSH2 0x1AF6 JUMPI PUSH1 0x40 MLOAD PUSH3 0x461BCD PUSH1 0xE5 SHL DUP2 MSTORE PUSH1 0x20 PUSH1 0x4 DUP3 ADD MSTORE PUSH1 0x1A PUSH1 0x24 DUP3 ADD MSTORE PUSH32 0x507269636520686173206E6F74206265656E20646566696E6564000000000000 PUSH1 0x44 DUP3 ADD MSTORE PUSH1 0x64 ADD PUSH2 0x7FE JUMP JUMPDEST PUSH1 0x0 PUSH1 0x7 SLOAD DUP3 PUSH1 0x20 ADD MLOAD DUP9 PUSH2 0x1B0B SWAP2 SWAP1 PUSH2 0x2CDE JUMP JUMPDEST PUSH2 0x1B15 SWAP2 SWAP1 PUSH2 0x2CF5 JUMP JUMPDEST PUSH1 0x3 SLOAD SWAP1 SWAP2 POP PUSH1 0x1 PUSH1 0x1 PUSH1 0xA0 SHL SUB AND PUSH4 0x23B872DD PUSH2 0x1B31 PUSH2 0x266D JUMP JUMPDEST ADDRESS DUP11 PUSH1 0x40 MLOAD DUP5 PUSH4 0xFFFFFFFF AND PUSH1 0xE0 SHL DUP2 MSTORE PUSH1 0x4 ADD PUSH2 0x1B51 SWAP4 SWAP3 SWAP2 SWAP1 PUSH2 0x2D34 JUMP JUMPDEST PUSH1 0x20 PUSH1 0x40 MLOAD DUP1 DUP4 SUB DUP2 PUSH1 0x0 DUP8 GAS CALL ISZERO DUP1 ISZERO PUSH2 0x1B70 JUMPI RETURNDATASIZE PUSH1 0x0 DUP1 RETURNDATACOPY RETURNDATASIZE PUSH1 0x0 REVERT JUMPDEST POP POP POP POP PUSH1 0x40 MLOAD RETURNDATASIZE PUSH1 0x1F NOT PUSH1 0x1F DUP3 ADD AND DUP3 ADD DUP1 PUSH1 0x40 MSTORE POP DUP2 ADD SWAP1 PUSH2 0x1B94 SWAP2 SWAP1 PUSH2 0x2D17 JUMP JUMPDEST POP PUSH1 0x5 SLOAD DUP5 MLOAD PUSH1 0x40 MLOAD PUSH4 0x9EF12085 PUSH1 0xE0 SHL DUP2 MSTORE PUSH1 0x0 SWAP3 PUSH1 0x1 PUSH1 0x1 PUSH1 0xA0 SHL SUB AND SWAP2 PUSH4 0x9EF12085 SWAP2 PUSH2 0x1BCB SWAP2 SWAP1 DUP7 SWAP1 DUP7 SWAP1 PUSH1 0x4 ADD PUSH2 0x2C2D JUMP JUMPDEST PUSH1 0x20 PUSH1 0x40 MLOAD DUP1 DUP4 SUB DUP2 DUP7 GAS STATICCALL ISZERO DUP1 ISZERO PUSH2 0x1BE8 JUMPI RETURNDATASIZE PUSH1 0x0 DUP1 RETURNDATACOPY RETURNDATASIZE PUSH1 0x0 REVERT JUMPDEST POP POP POP POP PUSH1 0x40 MLOAD RETURNDATASIZE PUSH1 0x1F NOT PUSH1 0x1F DUP3 ADD AND DUP3 ADD DUP1 PUSH1 0x40 MSTORE POP DUP2 ADD SWAP1 PUSH2 0x1C0C SWAP2 SWAP1 PUSH2 0x2C51 JUMP JUMPDEST PUSH1 0x5 SLOAD DUP7 MLOAD PUSH1 0x40 MLOAD PUSH4 0x47203D5B PUSH1 0xE0 SHL DUP2 MSTORE SWAP3 SWAP4 POP PUSH1 0x0 SWAP3 PUSH1 0x1 PUSH1 0x1 PUSH1 0xA0 SHL SUB SWAP1 SWAP3 AND SWAP2 PUSH4 0x47203D5B SWAP2 PUSH2 0x1C44 SWAP2 DUP8 SWAP1 PUSH1 0x4 ADD PUSH2 0x2C6A JUMP JUMPDEST PUSH1 0x20 PUSH1 0x40 MLOAD DUP1 DUP4 SUB DUP2 DUP7 GAS STATICCALL ISZERO DUP1 ISZERO PUSH2 0x1C61 JUMPI RETURNDATASIZE PUSH1 0x0 DUP1 RETURNDATACOPY RETURNDATASIZE PUSH1 0x0 REVERT JUMPDEST POP POP POP POP PUSH1 0x40 MLOAD RETURNDATASIZE PUSH1 0x1F NOT PUSH1 0x1F DUP3 ADD AND DUP3 ADD DUP1 PUSH1 0x40 MSTORE POP DUP2 ADD SWAP1 PUSH2 0x1C85 SWAP2 SWAP1 PUSH2 0x2C51 JUMP JUMPDEST PUSH1 0x5 SLOAD PUSH1 0x40 MLOAD PUSH4 0xC040B47 PUSH1 0xE0 SHL DUP2 MSTORE SWAP2 SWAP3 POP PUSH1 0x0 SWAP2 PUSH1 0x1 PUSH1 0x1 PUSH1 0xA0 SHL SUB SWAP1 SWAP2 AND SWAP1 PUSH4 0xC040B47 SWAP1 PUSH2 0x1CBD SWAP1 DUP5 SWAP1 DUP9 SWAP1 PUSH1 0x4 ADD PUSH2 0x2C83 JUMP JUMPDEST PUSH1 0x20 PUSH1 0x40 MLOAD DUP1 DUP4 SUB DUP2 DUP7 GAS STATICCALL ISZERO DUP1 ISZERO PUSH2 0x1CDA JUMPI RETURNDATASIZE PUSH1 0x0 DUP1 RETURNDATACOPY RETURNDATASIZE PUSH1 0x0 REVERT JUMPDEST POP POP POP POP PUSH1 0x40 MLOAD RETURNDATASIZE PUSH1 0x1F NOT PUSH1 0x1F DUP3 ADD AND DUP3 ADD DUP1 PUSH1 0x40 MSTORE POP DUP2 ADD SWAP1 PUSH2 0x1CFE SWAP2 SWAP1 PUSH2 0x2C51 JUMP JUMPDEST SWAP1 POP PUSH2 0x1D0C DUP7 DUP12 PUSH1 0x0 PUSH2 0x267C JUMP JUMPDEST POP DUP6 PUSH1 0x1 PUSH1 0x1 PUSH1 0xA0 SHL SUB AND PUSH4 0x40C10F19 PUSH2 0x1D24 PUSH2 0x266D JUMP JUMPDEST DUP6 PUSH1 0x40 MLOAD DUP4 PUSH4 0xFFFFFFFF AND PUSH1 0xE0 SHL DUP2 MSTORE PUSH1 0x4 ADD PUSH2 0x1D42 SWAP3 SWAP2 SWAP1 PUSH2 0x2C6A JUMP JUMPDEST PUSH1 0x0 PUSH1 0x40 MLOAD DUP1 DUP4 SUB DUP2 PUSH1 0x0 DUP8 DUP1 EXTCODESIZE ISZERO DUP1 ISZERO PUSH2 0x1D5C JUMPI PUSH1 0x0 DUP1 REVERT JUMPDEST POP GAS CALL ISZERO DUP1 ISZERO PUSH2 0x1D70 JUMPI RETURNDATASIZE PUSH1 0x0 DUP1 RETURNDATACOPY RETURNDATASIZE PUSH1 0x0 REVERT JUMPDEST POP POP DUP9 MLOAD PUSH1 0x40 MLOAD PUSH4 0x40C10F19 PUSH1 0xE0 SHL DUP2 MSTORE PUSH1 0x1 PUSH1 0x1 PUSH1 0xA0 SHL SUB DUP11 AND SWAP4 POP PUSH4 0x40C10F19 SWAP3 POP PUSH2 0x1DA3 SWAP2 SWAP1 DUP7 SWAP1 PUSH1 0x4 ADD PUSH2 0x2C6A JUMP JUMPDEST PUSH1 0x0 PUSH1 0x40 MLOAD DUP1 DUP4 SUB DUP2 PUSH1 0x0 DUP8 DUP1 EXTCODESIZE ISZERO DUP1 ISZERO PUSH2 0x1DBD JUMPI PUSH1 0x0 DUP1 REVERT JUMPDEST POP GAS CALL ISZERO DUP1 ISZERO PUSH2 0x1DD1 JUMPI RETURNDATASIZE PUSH1 0x0 DUP1 RETURNDATACOPY RETURNDATASIZE PUSH1 0x0 REVERT JUMPDEST POP POP PUSH1 0x1 SLOAD PUSH1 0x40 MLOAD PUSH4 0x40C10F19 PUSH1 0xE0 SHL DUP2 MSTORE PUSH1 0x1 PUSH1 0x1 PUSH1 0xA0 SHL SUB DUP1 DUP12 AND SWAP5 POP PUSH4 0x40C10F19 SWAP4 POP PUSH2 0xB6C SWAP3 PUSH2 0x100 SWAP1 DIV AND SWAP1 DUP6 SWAP1 PUSH1 0x4 ADD PUSH2 0x2C6A JUMP JUMPDEST PUSH1 0x0 PUSH2 0x1E16 PUSH2 0x2649 JUMP JUMPDEST PUSH1 0x5 SLOAD PUSH1 0x40 MLOAD PUSH4 0x3C057895 PUSH1 0xE0 SHL DUP2 MSTORE PUSH1 0x1 PUSH1 0x1 PUSH1 0xA0 SHL SUB DUP5 DUP2 AND PUSH1 0x4 DUP4 ADD MSTORE PUSH1 0x0 SWAP3 AND SWAP1 PUSH4 0x3C057895 SWAP1 PUSH1 0x24 ADD PUSH1 0x40 DUP1 MLOAD DUP1 DUP4 SUB DUP2 DUP7 GAS STATICCALL ISZERO DUP1 ISZERO PUSH2 0x1E60 JUMPI RETURNDATASIZE PUSH1 0x0 DUP1 RETURNDATACOPY RETURNDATASIZE PUSH1 0x0 REVERT JUMPDEST POP POP POP POP PUSH1 0x40 MLOAD RETURNDATASIZE PUSH1 0x1F NOT PUSH1 0x1F DUP3 ADD AND DUP3 ADD DUP1 PUSH1 0x40 MSTORE POP DUP2 ADD SWAP1 PUSH2 0x1E84 SWAP2 SWAP1 PUSH2 0x2B8F JUMP JUMPDEST SWAP1 POP DUP6 DUP6 PUSH1 0x0 PUSH2 0x1E93 DUP4 PUSH2 0x117C JUMP JUMPDEST SWAP1 POP PUSH1 0x0 PUSH2 0x1EA0 DUP10 PUSH2 0x117C JUMP JUMPDEST PUSH1 0x5 SLOAD DUP7 MLOAD PUSH1 0x40 MLOAD PUSH4 0x9EF12085 PUSH1 0xE0 SHL DUP2 MSTORE SWAP3 SWAP4 POP PUSH1 0x0 SWAP3 PUSH1 0x1 PUSH1 0x1 PUSH1 0xA0 SHL SUB SWAP1 SWAP3 AND SWAP2 PUSH4 0x9EF12085 SWAP2 PUSH2 0x1EDB SWAP2 DUP14 SWAP1 PUSH1 0x3 SWAP1 PUSH1 0x4 ADD PUSH2 0x2C2D JUMP JUMPDEST PUSH1 0x20 PUSH1 0x40 MLOAD DUP1 DUP4 SUB DUP2 DUP7 GAS STATICCALL ISZERO DUP1 ISZERO PUSH2 0x1EF8 JUMPI RETURNDATASIZE PUSH1 0x0 DUP1 RETURNDATACOPY RETURNDATASIZE PUSH1 0x0 REVERT JUMPDEST POP POP POP POP PUSH1 0x40 MLOAD RETURNDATASIZE PUSH1 0x1F NOT PUSH1 0x1F DUP3 ADD AND DUP3 ADD DUP1 PUSH1 0x40 MSTORE POP DUP2 ADD SWAP1 PUSH2 0x1F1C SWAP2 SWAP1 PUSH2 0x2C51 JUMP JUMPDEST PUSH1 0x5 SLOAD DUP8 MLOAD PUSH1 0x40 MLOAD PUSH4 0x47203D5B PUSH1 0xE0 SHL DUP2 MSTORE SWAP3 SWAP4 POP PUSH1 0x0 SWAP3 PUSH1 0x1 PUSH1 0x1 PUSH1 0xA0 SHL SUB SWAP1 SWAP3 AND SWAP2 PUSH4 0x47203D5B SWAP2 PUSH2 0x1F54 SWAP2 DUP15 SWAP1 PUSH1 0x4 ADD PUSH2 0x2C6A JUMP JUMPDEST PUSH1 0x20 PUSH1 0x40 MLOAD DUP1 DUP4 SUB DUP2 DUP7 GAS STATICCALL ISZERO DUP1 ISZERO PUSH2 0x1F71 JUMPI RETURNDATASIZE PUSH1 0x0 DUP1 RETURNDATACOPY RETURNDATASIZE PUSH1 0x0 REVERT JUMPDEST POP POP POP POP PUSH1 0x40 MLOAD RETURNDATASIZE PUSH1 0x1F NOT PUSH1 0x1F DUP3 ADD AND DUP3 ADD DUP1 PUSH1 0x40 MSTORE POP DUP2 ADD SWAP1 PUSH2 0x1F95 SWAP2 SWAP1 PUSH2 0x2C51 JUMP JUMPDEST PUSH1 0x5 SLOAD PUSH1 0x40 MLOAD PUSH4 0xC040B47 PUSH1 0xE0 SHL DUP2 MSTORE SWAP2 SWAP3 POP PUSH1 0x0 SWAP2 PUSH1 0x1 PUSH1 0x1 PUSH1 0xA0 SHL SUB SWAP1 SWAP2 AND SWAP1 PUSH4 0xC040B47 SWAP1 PUSH2 0x1FCE SWAP1 PUSH1 0x3 SWAP1 DUP16 SWAP1 PUSH1 0x4 ADD PUSH2 0x2C83 JUMP JUMPDEST PUSH1 0x20 PUSH1 0x40 MLOAD DUP1 DUP4 SUB DUP2 DUP7 GAS STATICCALL ISZERO DUP1 ISZERO PUSH2 0x1FEB JUMPI RETURNDATASIZE PUSH1 0x0 DUP1 RETURNDATACOPY RETURNDATASIZE PUSH1 0x0 REVERT JUMPDEST POP POP POP POP PUSH1 0x40 MLOAD RETURNDATASIZE PUSH1 0x1F NOT PUSH1 0x1F DUP3 ADD AND DUP3 ADD DUP1 PUSH1 0x40 MSTORE POP DUP2 ADD SWAP1 PUSH2 0x200F SWAP2 SWAP1 PUSH2 0x2C51 JUMP JUMPDEST SWAP1 POP PUSH1 0x0 DUP8 PUSH1 0x1 PUSH1 0x1 PUSH1 0xA0 SHL SUB AND PUSH4 0x70A08231 PUSH2 0x202A PUSH2 0x266D JUMP JUMPDEST PUSH1 0x40 MLOAD PUSH1 0x1 PUSH1 0x1 PUSH1 0xE0 SHL SUB NOT PUSH1 0xE0 DUP5 SWAP1 SHL AND DUP2 MSTORE PUSH1 0x1 PUSH1 0x1 PUSH1 0xA0 SHL SUB SWAP1 SWAP2 AND PUSH1 0x4 DUP3 ADD MSTORE PUSH1 0x24 ADD PUSH1 0x20 PUSH1 0x40 MLOAD DUP1 DUP4 SUB DUP2 DUP7 GAS STATICCALL ISZERO DUP1 ISZERO PUSH2 0x206E JUMPI RETURNDATASIZE PUSH1 0x0 DUP1 RETURNDATACOPY RETURNDATASIZE PUSH1 0x0 REVERT JUMPDEST POP POP POP POP PUSH1 0x40 MLOAD RETURNDATASIZE PUSH1 0x1F NOT PUSH1 0x1F DUP3 ADD AND DUP3 ADD DUP1 PUSH1 0x40 MSTORE POP DUP2 ADD SWAP1 PUSH2 0x2092 SWAP2 SWAP1 PUSH2 0x2C51 JUMP JUMPDEST SWAP1 POP PUSH1 0x1 PUSH1 0x1 PUSH1 0xA0 SHL SUB DUP15 AND PUSH2 0x20E4 JUMPI PUSH1 0x40 MLOAD PUSH3 0x461BCD PUSH1 0xE5 SHL DUP2 MSTORE PUSH1 0x20 PUSH1 0x4 DUP3 ADD MSTORE PUSH1 0x17 PUSH1 0x24 DUP3 ADD MSTORE PUSH23 0x14DD18589B194C48191BD95CDD081B9BDD08195E1A5CDD PUSH1 0x4A SHL PUSH1 0x44 DUP3 ADD MSTORE PUSH1 0x64 ADD PUSH2 0x7FE JUMP JUMPDEST PUSH1 0x1 PUSH1 0x1 PUSH1 0xA0 SHL SUB DUP14 AND PUSH2 0x213A JUMPI PUSH1 0x40 MLOAD PUSH3 0x461BCD PUSH1 0xE5 SHL DUP2 MSTORE PUSH1 0x20 PUSH1 0x4 DUP3 ADD MSTORE PUSH1 0x17 PUSH1 0x24 DUP3 ADD MSTORE PUSH32 0x537461626C653220646F657374206E6F74206578697374000000000000000000 PUSH1 0x44 DUP3 ADD MSTORE PUSH1 0x64 ADD PUSH2 0x7FE JUMP JUMPDEST PUSH1 0x0 DUP13 GT PUSH2 0x2181 JUMPI PUSH1 0x40 MLOAD PUSH3 0x461BCD PUSH1 0xE5 SHL DUP2 MSTORE PUSH1 0x20 PUSH1 0x4 DUP3 ADD MSTORE PUSH1 0x14 PUSH1 0x24 DUP3 ADD MSTORE PUSH20 0x416D6F756E742063616E2774206265207A65726F PUSH1 0x60 SHL PUSH1 0x44 DUP3 ADD MSTORE PUSH1 0x64 ADD PUSH2 0x7FE JUMP JUMPDEST DUP12 DUP2 LT ISZERO PUSH2 0x21A1 JUMPI PUSH1 0x40 MLOAD PUSH3 0x461BCD PUSH1 0xE5 SHL DUP2 MSTORE PUSH1 0x4 ADD PUSH2 0x7FE SWAP1 PUSH2 0x2C9E JUMP JUMPDEST DUP12 DUP9 PUSH1 0x1 PUSH1 0x1 PUSH1 0xA0 SHL SUB AND PUSH4 0xDD62ED3E PUSH2 0x21B9 PUSH2 0x266D JUMP JUMPDEST PUSH1 0x40 MLOAD PUSH1 0x1 PUSH1 0x1 PUSH1 0xE0 SHL SUB NOT PUSH1 0xE0 DUP5 SWAP1 SHL AND DUP2 MSTORE PUSH1 0x1 PUSH1 0x1 PUSH1 0xA0 SHL SUB SWAP1 SWAP2 AND PUSH1 0x4 DUP3 ADD MSTORE ADDRESS PUSH1 0x24 DUP3 ADD MSTORE PUSH1 0x44 ADD PUSH1 0x20 PUSH1 0x40 MLOAD DUP1 DUP4 SUB DUP2 DUP7 GAS STATICCALL ISZERO DUP1 ISZERO PUSH2 0x2203 JUMPI RETURNDATASIZE PUSH1 0x0 DUP1 RETURNDATACOPY RETURNDATASIZE PUSH1 0x0 REVERT JUMPDEST POP POP POP POP PUSH1 0x40 MLOAD RETURNDATASIZE PUSH1 0x1F NOT PUSH1 0x1F DUP3 ADD AND DUP3 ADD DUP1 PUSH1 0x40 MSTORE POP DUP2 ADD SWAP1 PUSH2 0x2227 SWAP2 SWAP1 PUSH2 0x2C51 JUMP JUMPDEST LT ISZERO PUSH2 0x226C JUMPI PUSH1 0x40 MLOAD PUSH3 0x461BCD PUSH1 0xE5 SHL DUP2 MSTORE PUSH1 0x20 PUSH1 0x4 DUP3 ADD MSTORE PUSH1 0x14 PUSH1 0x24 DUP3 ADD MSTORE PUSH20 0x82D8D8DEEEC2DCC6CA40DCDEE840CADCDEEACED PUSH1 0x63 SHL PUSH1 0x44 DUP3 ADD MSTORE PUSH1 0x64 ADD PUSH2 0x7FE JUMP JUMPDEST PUSH1 0x0 DUP7 PUSH1 0x20 ADD MLOAD GT PUSH2 0x22CA JUMPI PUSH1 0x40 MLOAD PUSH3 0x461BCD PUSH1 0xE5 SHL DUP2 MSTORE PUSH1 0x20 PUSH1 0x4 DUP3 ADD MSTORE PUSH1 0x21 PUSH1 0x24 DUP3 ADD MSTORE PUSH32 0x537461626C653120507269636520686173206E6F74206265656E20646566696E PUSH1 0x44 DUP3 ADD MSTORE PUSH1 0x65 PUSH1 0xF8 SHL PUSH1 0x64 DUP3 ADD MSTORE PUSH1 0x84 ADD PUSH2 0x7FE JUMP JUMPDEST PUSH1 0x0 DUP6 PUSH1 0x20 ADD MLOAD GT PUSH2 0x2328 JUMPI PUSH1 0x40 MLOAD PUSH3 0x461BCD PUSH1 0xE5 SHL DUP2 MSTORE PUSH1 0x20 PUSH1 0x4 DUP3 ADD MSTORE PUSH1 0x21 PUSH1 0x24 DUP3 ADD MSTORE PUSH32 0x537461626C653220507269636520686173206E6F74206265656E20646566696E PUSH1 0x44 DUP3 ADD MSTORE PUSH1 0x65 PUSH1 0xF8 SHL PUSH1 0x64 DUP3 ADD MSTORE PUSH1 0x84 ADD PUSH2 0x7FE JUMP JUMPDEST PUSH1 0x0 DUP7 PUSH1 0x20 ADD MLOAD PUSH1 0x7 SLOAD DUP7 PUSH2 0x233D SWAP2 SWAP1 PUSH2 0x2CDE JUMP JUMPDEST PUSH2 0x2347 SWAP2 SWAP1 PUSH2 0x2CF5 JUMP JUMPDEST SWAP1 POP DUP9 PUSH1 0x1 PUSH1 0x1 PUSH1 0xA0 SHL SUB AND PUSH4 0x79CC6790 PUSH2 0x2360 PUSH2 0x266D JUMP JUMPDEST DUP16 PUSH1 0x40 MLOAD DUP4 PUSH4 0xFFFFFFFF AND PUSH1 0xE0 SHL DUP2 MSTORE PUSH1 0x4 ADD PUSH2 0x237E SWAP3 SWAP2 SWAP1 PUSH2 0x2C6A JUMP JUMPDEST PUSH1 0x0 PUSH1 0x40 MLOAD DUP1 DUP4 SUB DUP2 PUSH1 0x0 DUP8 DUP1 EXTCODESIZE ISZERO DUP1 ISZERO PUSH2 0x2398 JUMPI PUSH1 0x0 DUP1 REVERT JUMPDEST POP GAS CALL ISZERO DUP1 ISZERO PUSH2 0x23AC JUMPI RETURNDATASIZE PUSH1 0x0 DUP1 RETURNDATACOPY RETURNDATASIZE PUSH1 0x0 REVERT JUMPDEST POP POP DUP12 MLOAD PUSH1 0x40 MLOAD PUSH4 0x40C10F19 PUSH1 0xE0 SHL DUP2 MSTORE PUSH1 0x1 PUSH1 0x1 PUSH1 0xA0 SHL SUB DUP13 AND SWAP4 POP PUSH4 0x40C10F19 SWAP3 POP PUSH2 0x23DF SWAP2 SWAP1 DUP9 SWAP1 PUSH1 0x4 ADD PUSH2 0x2C6A JUMP JUMPDEST PUSH1 0x0 PUSH1 0x40 MLOAD DUP1 DUP4 SUB DUP2 PUSH1 0x0 DUP8 DUP1 EXTCODESIZE ISZERO DUP1 ISZERO PUSH2 0x23F9 JUMPI PUSH1 0x0 DUP1 REVERT JUMPDEST POP GAS CALL ISZERO DUP1 ISZERO PUSH2 0x240D JUMPI RETURNDATASIZE PUSH1 0x0 DUP1 RETURNDATACOPY RETURNDATASIZE PUSH1 0x0 REVERT JUMPDEST POP POP PUSH1 0x1 SLOAD PUSH1 0x40 MLOAD PUSH4 0x40C10F19 PUSH1 0xE0 SHL DUP2 MSTORE PUSH1 0x1 PUSH1 0x1 PUSH1 0xA0 SHL SUB DUP1 DUP14 AND SWAP5 POP PUSH4 0x40C10F19 SWAP4 POP PUSH2 0x2448 SWAP3 PUSH2 0x100 SWAP1 DIV AND SWAP1 DUP8 SWAP1 PUSH1 0x4 ADD PUSH2 0x2C6A JUMP JUMPDEST PUSH1 0x0 PUSH1 0x40 MLOAD DUP1 DUP4 SUB DUP2 PUSH1 0x0 DUP8 DUP1 EXTCODESIZE ISZERO DUP1 ISZERO PUSH2 0x2462 JUMPI PUSH1 0x0 DUP1 REVERT JUMPDEST POP GAS CALL ISZERO DUP1 ISZERO PUSH2 0x2476 JUMPI RETURNDATASIZE PUSH1 0x0 DUP1 RETURNDATACOPY RETURNDATASIZE PUSH1 0x0 REVERT JUMPDEST POP POP POP POP PUSH2 0x248A DUP8 PUSH1 0x0 ADD MLOAD DUP3 PUSH1 0x1 PUSH2 0x267C JUMP JUMPDEST POP PUSH1 0x0 PUSH1 0x7 SLOAD DUP8 PUSH1 0x20 ADD MLOAD DUP4 PUSH2 0x24A0 SWAP2 SWAP1 PUSH2 0x2CDE JUMP JUMPDEST PUSH2 0x24AA SWAP2 SWAP1 PUSH2 0x2CF5 JUMP JUMPDEST SWAP1 POP DUP9 PUSH1 0x1 PUSH1 0x1 PUSH1 0xA0 SHL SUB AND PUSH4 0x40C10F19 PUSH2 0x24C3 PUSH2 0x266D JUMP JUMPDEST DUP4 PUSH1 0x40 MLOAD DUP4 PUSH4 0xFFFFFFFF AND PUSH1 0xE0 SHL DUP2 MSTORE PUSH1 0x4 ADD PUSH2 0x24E1 SWAP3 SWAP2 SWAP1 PUSH2 0x2C6A JUMP JUMPDEST PUSH1 0x0 PUSH1 0x40 MLOAD DUP1 DUP4 SUB DUP2 PUSH1 0x0 DUP8 DUP1 EXTCODESIZE ISZERO DUP1 ISZERO PUSH2 0x24FB JUMPI PUSH1 0x0 DUP1 REVERT JUMPDEST POP GAS CALL ISZERO DUP1 ISZERO PUSH2 0x250F JUMPI RETURNDATASIZE PUSH1 0x0 DUP1 RETURNDATACOPY RETURNDATASIZE PUSH1 0x0 REVERT JUMPDEST POP POP POP POP PUSH2 0x2523 DUP8 PUSH1 0x0 ADD MLOAD DUP4 PUSH1 0x0 PUSH2 0x267C JUMP JUMPDEST POP PUSH1 0x1 SWAP12 POP POP POP POP POP POP POP POP POP POP POP POP SWAP5 SWAP4 POP POP POP POP JUMP JUMPDEST PUSH1 0x0 PUSH2 0x2557 PUSH1 0x0 DUP1 MLOAD PUSH1 0x20 PUSH2 0x2E4F DUP4 CODECOPY DUP2 MLOAD SWAP2 MSTORE PUSH2 0x45B PUSH2 0x266D JUMP JUMPDEST PUSH2 0x2573 JUMPI PUSH1 0x40 MLOAD PUSH3 0x461BCD PUSH1 0xE5 SHL DUP2 MSTORE PUSH1 0x4 ADD PUSH2 0x7FE SWAP1 PUSH2 0x2D58 JUMP JUMPDEST PUSH1 0x1 PUSH1 0x1 PUSH1 0xA0 SHL SUB DUP3 AND PUSH2 0x25C9 JUMPI PUSH1 0x40 MLOAD PUSH3 0x461BCD PUSH1 0xE5 SHL DUP2 MSTORE PUSH1 0x20 PUSH1 0x4 DUP3 ADD MSTORE PUSH1 0x18 PUSH1 0x24 DUP3 ADD MSTORE PUSH32 0x6665654D616E616765722063616E2774206265206E756C6C0000000000000000 PUSH1 0x44 DUP3 ADD MSTORE PUSH1 0x64 ADD PUSH2 0x7FE JUMP JUMPDEST POP PUSH1 0x5 DUP1 SLOAD PUSH1 0x1 PUSH1 0x1 PUSH1 0xA0 SHL SUB DUP4 AND PUSH1 0x1 PUSH1 0x1 PUSH1 0xA0 SHL SUB NOT SWAP1 SWAP2 AND OR SWAP1 SSTORE PUSH1 0x1 SWAP2 SWAP1 POP JUMP JUMPDEST PUSH1 0x0 DUP3 DUP2 MSTORE PUSH1 0x20 DUP2 SWAP1 MSTORE PUSH1 0x40 SWAP1 KECCAK256 PUSH1 0x1 ADD SLOAD PUSH2 0x2609 DUP2 PUSH2 0x2747 JUMP JUMPDEST PUSH2 0x11FF DUP4 DUP4 PUSH2 0x27EE JUMP JUMPDEST PUSH2 0x262D PUSH1 0x0 DUP1 MLOAD PUSH1 0x20 PUSH2 0x2E4F DUP4 CODECOPY DUP2 MLOAD SWAP2 MSTORE PUSH2 0x45B PUSH2 0x266D JUMP JUMPDEST PUSH2 0x123E JUMPI PUSH1 0x40 MLOAD PUSH3 0x461BCD PUSH1 0xE5 SHL DUP2 MSTORE PUSH1 0x4 ADD PUSH2 0x7FE SWAP1 PUSH2 0x2D58 JUMP JUMPDEST PUSH1 0x1 SLOAD PUSH1 0xFF AND ISZERO PUSH2 0x1462 JUMPI PUSH1 0x40 MLOAD PUSH4 0xD93C0665 PUSH1 0xE0 SHL DUP2 MSTORE PUSH1 0x4 ADD PUSH1 0x40 MLOAD DUP1 SWAP2 SUB SWAP1 REVERT JUMPDEST PUSH1 0x0 PUSH2 0x2677 PUSH2 0x290C JUMP JUMPDEST SWAP1 POP SWAP1 JUMP JUMPDEST PUSH1 0x0 PUSH1 0x1 PUSH1 0x1 PUSH1 0xA0 SHL SUB DUP5 AND PUSH2 0x26A4 JUMPI PUSH1 0x40 MLOAD PUSH3 0x461BCD PUSH1 0xE5 SHL DUP2 MSTORE PUSH1 0x4 ADD PUSH2 0x7FE SWAP1 PUSH2 0x2D8F JUMP JUMPDEST PUSH1 0x0 DUP3 PUSH1 0x1 DUP2 GT ISZERO PUSH2 0x26B8 JUMPI PUSH2 0x26B8 PUSH2 0x2BF5 JUMP JUMPDEST SUB PUSH2 0x26F3 JUMPI PUSH1 0x1 PUSH1 0x1 PUSH1 0xA0 SHL SUB DUP5 AND PUSH1 0x0 SWAP1 DUP2 MSTORE PUSH1 0x6 PUSH1 0x20 MSTORE PUSH1 0x40 DUP2 KECCAK256 PUSH1 0x2 ADD DUP1 SLOAD DUP6 SWAP3 SWAP1 PUSH2 0x26E8 SWAP1 DUP5 SWAP1 PUSH2 0x2E28 JUMP JUMPDEST SWAP1 SWAP2 SSTORE POP PUSH2 0x273D SWAP1 POP JUMP JUMPDEST PUSH1 0x0 DUP3 PUSH1 0x1 DUP2 GT ISZERO PUSH2 0x2707 JUMPI PUSH2 0x2707 PUSH2 0x2BF5 JUMP JUMPDEST SUB PUSH2 0x273D JUMPI PUSH1 0x1 PUSH1 0x1 PUSH1 0xA0 SHL SUB DUP5 AND PUSH1 0x0 SWAP1 DUP2 MSTORE PUSH1 0x6 PUSH1 0x20 MSTORE PUSH1 0x40 DUP2 KECCAK256 PUSH1 0x2 ADD DUP1 SLOAD DUP6 SWAP3 SWAP1 PUSH2 0x2737 SWAP1 DUP5 SWAP1 PUSH2 0x2E3B JUMP JUMPDEST SWAP1 SWAP2 SSTORE POP POP JUMPDEST POP PUSH1 0x0 SWAP4 SWAP3 POP POP POP JUMP JUMPDEST PUSH2 0x2758 DUP2 PUSH2 0x2753 PUSH2 0x266D JUMP JUMPDEST PUSH2 0x2950 JUMP JUMPDEST POP JUMP JUMPDEST PUSH1 0x0 PUSH2 0x2767 DUP4 DUP4 PUSH2 0x15A9 JUMP JUMPDEST PUSH2 0x27E6 JUMPI PUSH1 0x0 DUP4 DUP2 MSTORE PUSH1 0x20 DUP2 DUP2 MSTORE PUSH1 0x40 DUP1 DUP4 KECCAK256 PUSH1 0x1 PUSH1 0x1 PUSH1 0xA0 SHL SUB DUP7 AND DUP5 MSTORE SWAP1 SWAP2 MSTORE SWAP1 KECCAK256 DUP1 SLOAD PUSH1 0xFF NOT AND PUSH1 0x1 OR SWAP1 SSTORE PUSH2 0x279E PUSH2 0x266D JUMP JUMPDEST PUSH1 0x1 PUSH1 0x1 PUSH1 0xA0 SHL SUB AND DUP3 PUSH1 0x1 PUSH1 0x1 PUSH1 0xA0 SHL SUB AND DUP5 PUSH32 0x2F8788117E7EFF1D82E926EC794901D17C78024A50270940304540A733656F0D PUSH1 0x40 MLOAD PUSH1 0x40 MLOAD DUP1 SWAP2 SUB SWAP1 LOG4 POP PUSH1 0x1 PUSH2 0x5A9 JUMP JUMPDEST POP PUSH1 0x0 PUSH2 0x5A9 JUMP JUMPDEST PUSH1 0x0 PUSH2 0x27FA DUP4 DUP4 PUSH2 0x15A9 JUMP JUMPDEST ISZERO PUSH2 0x27E6 JUMPI PUSH1 0x0 DUP4 DUP2 MSTORE PUSH1 0x20 DUP2 DUP2 MSTORE PUSH1 0x40 DUP1 DUP4 KECCAK256 PUSH1 0x1 PUSH1 0x1 PUSH1 0xA0 SHL SUB DUP7 AND DUP5 MSTORE SWAP1 SWAP2 MSTORE SWAP1 KECCAK256 DUP1 SLOAD PUSH1 0xFF NOT AND SWAP1 SSTORE PUSH2 0x282F PUSH2 0x266D JUMP JUMPDEST PUSH1 0x1 PUSH1 0x1 PUSH1 0xA0 SHL SUB AND DUP3 PUSH1 0x1 PUSH1 0x1 PUSH1 0xA0 SHL SUB AND DUP5 PUSH32 0xF6391F5C32D9C69D2A47EA670B442974B53935D1EDC7FD64EB21E047A839171B PUSH1 0x40 MLOAD PUSH1 0x40 MLOAD DUP1 SWAP2 SUB SWAP1 LOG4 POP PUSH1 0x1 PUSH2 0x5A9 JUMP JUMPDEST PUSH2 0x287F PUSH2 0x297F JUMP JUMPDEST PUSH1 0x1 DUP1 SLOAD PUSH1 0xFF NOT AND SWAP1 SSTORE PUSH32 0x5DB9EE0A495BF2E6FF9C91A7834C1BA4FDD244A5E8AA4E537BD38AEAE4B073AA PUSH2 0x28B2 PUSH2 0x266D JUMP JUMPDEST PUSH1 0x40 MLOAD PUSH1 0x1 PUSH1 0x1 PUSH1 0xA0 SHL SUB SWAP1 SWAP2 AND DUP2 MSTORE PUSH1 0x20 ADD PUSH1 0x40 MLOAD DUP1 SWAP2 SUB SWAP1 LOG1 JUMP JUMPDEST PUSH2 0x28D7 PUSH2 0x2649 JUMP JUMPDEST PUSH1 0x1 DUP1 SLOAD PUSH1 0xFF NOT AND DUP2 OR SWAP1 SSTORE PUSH32 0x62E78CEA01BEE320CD4E420270B5EA74000D11B0C9F74754EBDBFC544B05A258 PUSH2 0x28B2 PUSH2 0x266D JUMP JUMPDEST PUSH1 0x0 PUSH32 0x0 PUSH1 0x1 PUSH1 0x1 PUSH1 0xA0 SHL SUB AND CALLER SUB PUSH2 0x294B JUMPI POP PUSH1 0x13 NOT CALLDATASIZE ADD CALLDATALOAD PUSH1 0x60 SHR SWAP1 JUMP JUMPDEST POP CALLER SWAP1 JUMP JUMPDEST PUSH2 0x295A DUP3 DUP3 PUSH2 0x15A9 JUMP JUMPDEST PUSH2 0x297B JUMPI DUP1 DUP3 PUSH1 0x40 MLOAD PUSH4 0xE2517D3F PUSH1 0xE0 SHL DUP2 MSTORE PUSH1 0x4 ADD PUSH2 0x7FE SWAP3 SWAP2 SWAP1 PUSH2 0x2C6A JUMP JUMPDEST POP POP JUMP JUMPDEST PUSH1 0x1 SLOAD PUSH1 0xFF AND PUSH2 0x1462 JUMPI PUSH1 0x40 MLOAD PUSH4 0x8DFC202B PUSH1 0xE0 SHL DUP2 MSTORE PUSH1 0x4 ADD PUSH1 0x40 MLOAD DUP1 SWAP2 SUB SWAP1 REVERT JUMPDEST PUSH1 0x40 MLOAD DUP1 PUSH1 0x80 ADD PUSH1 0x40 MSTORE DUP1 PUSH1 0x0 PUSH1 0x1 PUSH1 0x1 PUSH1 0xA0 SHL SUB AND DUP2 MSTORE PUSH1 0x20 ADD PUSH1 0x0 DUP2 MSTORE PUSH1 0x20 ADD PUSH1 0x0 DUP2 MSTORE PUSH1 0x20 ADD PUSH1 0x0 ISZERO ISZERO DUP2 MSTORE POP SWAP1 JUMP JUMPDEST PUSH1 0x0 PUSH1 0x20 DUP3 DUP5 SUB SLT ISZERO PUSH2 0x29E7 JUMPI PUSH1 0x0 DUP1 REVERT JUMPDEST DUP2 CALLDATALOAD PUSH1 0x1 PUSH1 0x1 PUSH1 0xE0 SHL SUB NOT DUP2 AND DUP2 EQ PUSH2 0x29FF JUMPI PUSH1 0x0 DUP1 REVERT JUMPDEST SWAP4 SWAP3 POP POP POP JUMP JUMPDEST PUSH1 0x1 PUSH1 0x1 PUSH1 0xA0 SHL SUB DUP2 AND DUP2 EQ PUSH2 0x2758 JUMPI PUSH1 0x0 DUP1 REVERT JUMPDEST PUSH1 0x0 DUP1 PUSH1 0x0 PUSH1 0x60 DUP5 DUP7 SUB SLT ISZERO PUSH2 0x2A30 JUMPI PUSH1 0x0 DUP1 REVERT JUMPDEST DUP4 CALLDATALOAD PUSH2 0x2A3B DUP2 PUSH2 0x2A06 JUMP JUMPDEST SWAP3 POP PUSH1 0x20 DUP5 ADD CALLDATALOAD SWAP2 POP PUSH1 0x40 DUP5 ADD CALLDATALOAD PUSH2 0x2A52 DUP2 PUSH2 0x2A06 JUMP JUMPDEST DUP1 SWAP2 POP POP SWAP3 POP SWAP3 POP SWAP3 JUMP JUMPDEST PUSH1 0x0 PUSH1 0x20 DUP3 DUP5 SUB SLT ISZERO PUSH2 0x2A6F JUMPI PUSH1 0x0 DUP1 REVERT JUMPDEST POP CALLDATALOAD SWAP2 SWAP1 POP JUMP JUMPDEST PUSH1 0x0 DUP1 PUSH1 0x0 DUP1 PUSH1 0x80 DUP6 DUP8 SUB SLT ISZERO PUSH2 0x2A8C JUMPI PUSH1 0x0 DUP1 REVERT JUMPDEST DUP5 CALLDATALOAD PUSH2 0x2A97 DUP2 PUSH2 0x2A06 JUMP JUMPDEST SWAP4 POP PUSH1 0x20 DUP6 ADD CALLDATALOAD PUSH2 0x2AA7 DUP2 PUSH2 0x2A06 JUMP JUMPDEST SWAP3 POP PUSH1 0x40 DUP6 ADD CALLDATALOAD SWAP2 POP PUSH1 0x60 DUP6 ADD CALLDATALOAD PUSH2 0x2ABE DUP2 PUSH2 0x2A06 JUMP JUMPDEST SWAP4 SWAP7 SWAP3 SWAP6 POP SWAP1 SWAP4 POP POP JUMP JUMPDEST PUSH1 0x0 PUSH1 0x20 DUP3 DUP5 SUB SLT ISZERO PUSH2 0x2ADB JUMPI PUSH1 0x0 DUP1 REVERT JUMPDEST DUP2 CALLDATALOAD PUSH2 0x29FF DUP2 PUSH2 0x2A06 JUMP JUMPDEST PUSH1 0x0 DUP1 PUSH1 0x40 DUP4 DUP6 SUB SLT ISZERO PUSH2 0x2AF9 JUMPI PUSH1 0x0 DUP1 REVERT JUMPDEST DUP3 CALLDATALOAD SWAP2 POP PUSH1 0x20 DUP4 ADD CALLDATALOAD PUSH2 0x2B0B DUP2 PUSH2 0x2A06 JUMP JUMPDEST DUP1 SWAP2 POP POP SWAP3 POP SWAP3 SWAP1 POP JUMP JUMPDEST DUP1 ISZERO ISZERO DUP2 EQ PUSH2 0x2758 JUMPI PUSH1 0x0 DUP1 REVERT JUMPDEST PUSH1 0x0 DUP1 PUSH1 0x0 DUP1 PUSH1 0x80 DUP6 DUP8 SUB SLT ISZERO PUSH2 0x2B3A JUMPI PUSH1 0x0 DUP1 REVERT JUMPDEST DUP5 CALLDATALOAD PUSH2 0x2B45 DUP2 PUSH2 0x2A06 JUMP JUMPDEST SWAP4 POP PUSH1 0x20 DUP6 ADD CALLDATALOAD SWAP3 POP PUSH1 0x40 DUP6 ADD CALLDATALOAD SWAP2 POP PUSH1 0x60 DUP6 ADD CALLDATALOAD PUSH2 0x2ABE DUP2 PUSH2 0x2B16 JUMP JUMPDEST PUSH1 0x0 DUP1 PUSH1 0x40 DUP4 DUP6 SUB SLT ISZERO PUSH2 0x2B76 JUMPI PUSH1 0x0 DUP1 REVERT JUMPDEST DUP3 CALLDATALOAD PUSH2 0x2B81 DUP2 PUSH2 0x2A06 JUMP JUMPDEST SWAP5 PUSH1 0x20 SWAP4 SWAP1 SWAP4 ADD CALLDATALOAD SWAP4 POP POP POP JUMP JUMPDEST PUSH1 0x0 PUSH1 0x40 DUP3 DUP5 SUB SLT ISZERO PUSH2 0x2BA1 JUMPI PUSH1 0x0 DUP1 REVERT JUMPDEST PUSH1 0x40 MLOAD PUSH1 0x40 DUP2 ADD DUP2 DUP2 LT PUSH8 0xFFFFFFFFFFFFFFFF DUP3 GT OR ISZERO PUSH2 0x2BD2 JUMPI PUSH4 0x4E487B71 PUSH1 0xE0 SHL PUSH1 0x0 MSTORE PUSH1 0x41 PUSH1 0x4 MSTORE PUSH1 0x24 PUSH1 0x0 REVERT JUMPDEST PUSH1 0x40 MSTORE DUP3 MLOAD PUSH2 0x2BE0 DUP2 PUSH2 0x2A06 JUMP JUMPDEST DUP2 MSTORE PUSH1 0x20 SWAP3 DUP4 ADD MLOAD SWAP3 DUP2 ADD SWAP3 SWAP1 SWAP3 MSTORE POP SWAP2 SWAP1 POP JUMP JUMPDEST PUSH4 0x4E487B71 PUSH1 0xE0 SHL PUSH1 0x0 MSTORE PUSH1 0x21 PUSH1 0x4 MSTORE PUSH1 0x24 PUSH1 0x0 REVERT JUMPDEST PUSH1 0x6 DUP2 LT PUSH2 0x2C29 JUMPI PUSH4 0x4E487B71 PUSH1 0xE0 SHL PUSH1 0x0 MSTORE PUSH1 0x21 PUSH1 0x4 MSTORE PUSH1 0x24 PUSH1 0x0 REVERT JUMPDEST SWAP1 MSTORE JUMP JUMPDEST PUSH1 0x1 PUSH1 0x1 PUSH1 0xA0 SHL SUB DUP5 AND DUP2 MSTORE PUSH1 0x20 DUP2 ADD DUP4 SWAP1 MSTORE PUSH1 0x60 DUP2 ADD PUSH2 0x10C7 PUSH1 0x40 DUP4 ADD DUP5 PUSH2 0x2C0B JUMP JUMPDEST PUSH1 0x0 PUSH1 0x20 DUP3 DUP5 SUB SLT ISZERO PUSH2 0x2C63 JUMPI PUSH1 0x0 DUP1 REVERT JUMPDEST POP MLOAD SWAP2 SWAP1 POP JUMP JUMPDEST PUSH1 0x1 PUSH1 0x1 PUSH1 0xA0 SHL SUB SWAP3 SWAP1 SWAP3 AND DUP3 MSTORE PUSH1 0x20 DUP3 ADD MSTORE PUSH1 0x40 ADD SWAP1 JUMP JUMPDEST PUSH1 0x40 DUP2 ADD PUSH2 0x2C91 DUP3 DUP6 PUSH2 0x2C0B JUMP JUMPDEST DUP3 PUSH1 0x20 DUP4 ADD MSTORE SWAP4 SWAP3 POP POP POP JUMP JUMPDEST PUSH1 0x20 DUP1 DUP3 MSTORE PUSH1 0x10 SWAP1 DUP3 ADD MSTORE PUSH16 0xA8DED6CADC40DCDEE840CADCDEEACED PUSH1 0x83 SHL PUSH1 0x40 DUP3 ADD MSTORE PUSH1 0x60 ADD SWAP1 JUMP JUMPDEST PUSH4 0x4E487B71 PUSH1 0xE0 SHL PUSH1 0x0 MSTORE PUSH1 0x11 PUSH1 0x4 MSTORE PUSH1 0x24 PUSH1 0x0 REVERT JUMPDEST DUP1 DUP3 MUL DUP2 ISZERO DUP3 DUP3 DIV DUP5 EQ OR PUSH2 0x5A9 JUMPI PUSH2 0x5A9 PUSH2 0x2CC8 JUMP JUMPDEST PUSH1 0x0 DUP3 PUSH2 0x2D12 JUMPI PUSH4 0x4E487B71 PUSH1 0xE0 SHL PUSH1 0x0 MSTORE PUSH1 0x12 PUSH1 0x4 MSTORE PUSH1 0x24 PUSH1 0x0 REVERT JUMPDEST POP DIV SWAP1 JUMP JUMPDEST PUSH1 0x0 PUSH1 0x20 DUP3 DUP5 SUB SLT ISZERO PUSH2 0x2D29 JUMPI PUSH1 0x0 DUP1 REVERT JUMPDEST DUP2 MLOAD PUSH2 0x29FF DUP2 PUSH2 0x2B16 JUMP JUMPDEST PUSH1 0x1 PUSH1 0x1 PUSH1 0xA0 SHL SUB SWAP4 DUP5 AND DUP2 MSTORE SWAP2 SWAP1 SWAP3 AND PUSH1 0x20 DUP3 ADD MSTORE PUSH1 0x40 DUP2 ADD SWAP2 SWAP1 SWAP2 MSTORE PUSH1 0x60 ADD SWAP1 JUMP JUMPDEST PUSH1 0x20 DUP1 DUP3 MSTORE PUSH1 0x19 SWAP1 DUP3 ADD MSTORE PUSH32 0x4D75737420686176652041444D494E5F524F4C4520726F6C6500000000000000 PUSH1 0x40 DUP3 ADD MSTORE PUSH1 0x60 ADD SWAP1 JUMP JUMPDEST PUSH1 0x20 DUP1 DUP3 MSTORE PUSH1 0x2B SWAP1 DUP3 ADD MSTORE PUSH32 0x537461626C654D616E616765723A20746F6B656E20616464726573732063616E PUSH1 0x40 DUP3 ADD MSTORE PUSH11 0x6E6F74206265207A65726F PUSH1 0xA8 SHL PUSH1 0x60 DUP3 ADD MSTORE PUSH1 0x80 ADD SWAP1 JUMP JUMPDEST PUSH1 0x20 DUP1 DUP3 MSTORE PUSH1 0x2E SWAP1 DUP3 ADD MSTORE PUSH32 0x537461626C654D616E616765723A207072696365206D75737420626520677265 PUSH1 0x40 DUP3 ADD MSTORE PUSH14 0x61746572207468616E207A65726F PUSH1 0x90 SHL PUSH1 0x60 DUP3 ADD MSTORE PUSH1 0x80 ADD SWAP1 JUMP JUMPDEST DUP1 DUP3 ADD DUP1 DUP3 GT ISZERO PUSH2 0x5A9 JUMPI PUSH2 0x5A9 PUSH2 0x2CC8 JUMP JUMPDEST DUP2 DUP2 SUB DUP2 DUP2 GT ISZERO PUSH2 0x5A9 JUMPI PUSH2 0x5A9 PUSH2 0x2CC8 JUMP INVALID LOG4 SWAP9 SMOD KECCAK256 0x5C 0xE4 0xD3 SSTORE MULMOD 0x2E CREATE2 0xA8 LOG1 DUP16 JUMP 0xE8 SWAP2 EXTCODECOPY DELEGATECALL LOG2 ADD 0xFB 0xE2 DUP8 DUP3 JUMPDEST MULMOD JUMP SWAP4 0xC2 OR PUSH22 0xA26469706673582212204117A7612EE63A23B07B31B5 0xEC DUP3 0xBC SELFDESTRUCT 0xDC PUSH20 0xDA601E4CBF6A118259017881144564736F6C6343 STOP ADDMOD EQ STOP CALLER "},"methodIdentifiers":{"ADMIN_ROLE()":"75b238fc","AUSDToken()":"dad0cf9c","DEFAULT_ADMIN_ROLE()":"a217fddf","MANAGER_ROLE()":"ec87621c","USDToken()":"86c59418","addStable(address,uint256,uint256,bool)":"3b33b2d5","burnStable(address,uint256,address)":"167f4deb","changeFeeCollector(address)":"9245290d","changeFeeManager(address)":"bfc810b6","changeUSD(address)":"2d0a9eaa","feeCollector()":"c415b95c","feeManager()":"d0fb0203","getRoleAdmin(bytes32)":"248a9ca3","getStable(address)":"2e6a3e35","grantNewRole(bytes32,address)":"46a0300c","grantRole(bytes32,address)":"2f2ff15d","hasRole(bytes32,address)":"91d14854","isTrustedForwarder(address)":"572b6c05","lendingPool()":"a59a9973","mintStable(address,uint256,address)":"a7ed89d1","pause()":"8456cb59","paused()":"5c975abb","removeStableByAddress(address)":"7ab86f74","renounceRole(bytes32,address)":"36568abe","revokeRole(bytes32,address)":"d547741f","revoveRole(bytes32,address)":"e2520bd0","sendStable(address,address,uint256,address)":"29ca20ca","stableTrade(address,address,uint256,address)":"bfb8058c","stables(address)":"4743a510","supportsInterface(bytes4)":"01ffc9a7","unpause()":"3f4ba83a","updateStableByAddress(address,uint256,uint256,bool)":"91f0462c","updateStablePrice(address,uint256)":"94d188e0"}}}}}