{"contracts/FeeManager.sol":{"FeeManager":{"abi":[{"inputs":[{"internalType":"address","name":"trustedForwarder","type":"address"}],"stateMutability":"nonpayable","type":"constructor"},{"inputs":[],"name":"AccessControlBadConfirmation","type":"error"},{"inputs":[{"internalType":"address","name":"account","type":"address"},{"internalType":"bytes32","name":"neededRole","type":"bytes32"}],"name":"AccessControlUnauthorizedAccount","type":"error"},{"anonymous":false,"inputs":[{"indexed":true,"internalType":"bytes32","name":"role","type":"bytes32"},{"indexed":true,"internalType":"bytes32","name":"previousAdminRole","type":"bytes32"},{"indexed":true,"internalType":"bytes32","name":"newAdminRole","type":"bytes32"}],"name":"RoleAdminChanged","type":"event"},{"anonymous":false,"inputs":[{"indexed":true,"internalType":"bytes32","name":"role","type":"bytes32"},{"indexed":true,"internalType":"address","name":"account","type":"address"},{"indexed":true,"internalType":"address","name":"sender","type":"address"}],"name":"RoleGranted","type":"event"},{"anonymous":false,"inputs":[{"indexed":true,"internalType":"bytes32","name":"role","type":"bytes32"},{"indexed":true,"internalType":"address","name":"account","type":"address"},{"indexed":true,"internalType":"address","name":"sender","type":"address"}],"name":"RoleRevoked","type":"event"},{"inputs":[],"name":"ADMIN_ROLE","outputs":[{"internalType":"bytes32","name":"","type":"bytes32"}],"stateMutability":"view","type":"function"},{"inputs":[],"name":"DEFAULT_ADMIN_ROLE","outputs":[{"internalType":"bytes32","name":"","type":"bytes32"}],"stateMutability":"view","type":"function"},{"inputs":[],"name":"MANAGER_ROLE","outputs":[{"internalType":"bytes32","name":"","type":"bytes32"}],"stateMutability":"view","type":"function"},{"inputs":[{"internalType":"address","name":"newOwner","type":"address"}],"name":"addOwner","outputs":[],"stateMutability":"nonpayable","type":"function"},{"inputs":[{"internalType":"address","name":"_wallet","type":"address"},{"internalType":"uint256","name":"_fee","type":"uint256"}],"name":"addPartner","outputs":[],"stateMutability":"nonpayable","type":"function"},{"inputs":[{"internalType":"enum FeeManager.Service","name":"service","type":"uint8"},{"internalType":"uint256","name":"amount","type":"uint256"}],"name":"calculateFeeAmount","outputs":[{"internalType":"uint256","name":"","type":"uint256"}],"stateMutability":"view","type":"function"},{"inputs":[{"internalType":"address","name":"_partner","type":"address"},{"internalType":"uint256","name":"amount","type":"uint256"}],"name":"calculatePartnerAmount","outputs":[{"internalType":"uint256","name":"","type":"uint256"}],"stateMutability":"view","type":"function"},{"inputs":[{"internalType":"enum FeeManager.Service","name":"service","type":"uint8"},{"internalType":"uint256","name":"value","type":"uint256"}],"name":"changeFee","outputs":[],"stateMutability":"nonpayable","type":"function"},{"inputs":[{"internalType":"enum FeeManager.Service","name":"","type":"uint8"}],"name":"fees","outputs":[{"internalType":"uint256","name":"","type":"uint256"}],"stateMutability":"view","type":"function"},{"inputs":[],"name":"getAllPartners","outputs":[{"components":[{"internalType":"address","name":"wallet","type":"address"},{"internalType":"uint256","name":"fee","type":"uint256"}],"internalType":"struct FeeManager.PartnersFee[]","name":"","type":"tuple[]"}],"stateMutability":"view","type":"function"},{"inputs":[{"internalType":"uint256","name":"_index","type":"uint256"}],"name":"getPartner","outputs":[{"components":[{"internalType":"address","name":"wallet","type":"address"},{"internalType":"uint256","name":"fee","type":"uint256"}],"internalType":"struct FeeManager.PartnersFee","name":"","type":"tuple"}],"stateMutability":"view","type":"function"},{"inputs":[{"internalType":"address","name":"_wallet","type":"address"}],"name":"getPartnerByWallet","outputs":[{"components":[{"internalType":"address","name":"wallet","type":"address"},{"internalType":"uint256","name":"fee","type":"uint256"}],"internalType":"struct FeeManager.PartnersFee","name":"","type":"tuple"}],"stateMutability":"view","type":"function"},{"inputs":[{"internalType":"bytes32","name":"role","type":"bytes32"}],"name":"getRoleAdmin","outputs":[{"internalType":"bytes32","name":"","type":"bytes32"}],"stateMutability":"view","type":"function"},{"inputs":[{"internalType":"address","name":"account","type":"address"}],"name":"grantManagerRole","outputs":[],"stateMutability":"nonpayable","type":"function"},{"inputs":[{"internalType":"bytes32","name":"role","type":"bytes32"},{"internalType":"address","name":"account","type":"address"}],"name":"grantRole","outputs":[],"stateMutability":"nonpayable","type":"function"},{"inputs":[{"internalType":"bytes32","name":"role","type":"bytes32"},{"internalType":"address","name":"account","type":"address"}],"name":"hasRole","outputs":[{"internalType":"bool","name":"","type":"bool"}],"stateMutability":"view","type":"function"},{"inputs":[{"internalType":"address","name":"forwarder","type":"address"}],"name":"isTrustedForwarder","outputs":[{"internalType":"bool","name":"","type":"bool"}],"stateMutability":"view","type":"function"},{"inputs":[{"internalType":"address","name":"","type":"address"}],"name":"partnerIndexes","outputs":[{"internalType":"uint256","name":"","type":"uint256"}],"stateMutability":"view","type":"function"},{"inputs":[{"internalType":"uint256","name":"","type":"uint256"}],"name":"partnersFees","outputs":[{"internalType":"address","name":"wallet","type":"address"},{"internalType":"uint256","name":"fee","type":"uint256"}],"stateMutability":"view","type":"function"},{"inputs":[{"internalType":"address","name":"_wallet","type":"address"}],"name":"removePartner","outputs":[],"stateMutability":"nonpayable","type":"function"},{"inputs":[{"internalType":"bytes32","name":"role","type":"bytes32"},{"internalType":"address","name":"callerConfirmation","type":"address"}],"name":"renounceRole","outputs":[],"stateMutability":"nonpayable","type":"function"},{"inputs":[{"internalType":"bytes32","name":"role","type":"bytes32"},{"internalType":"address","name":"account","type":"address"}],"name":"revokeRole","outputs":[],"stateMutability":"nonpayable","type":"function"},{"inputs":[{"internalType":"bytes4","name":"interfaceId","type":"bytes4"}],"name":"supportsInterface","outputs":[{"internalType":"bool","name":"","type":"bool"}],"stateMutability":"view","type":"function"},{"inputs":[{"internalType":"address","name":"_partner","type":"address"},{"internalType":"uint256","name":"amount","type":"uint256"},{"internalType":"enum FeeManager.Service","name":"service","type":"uint8"}],"name":"takeFee","outputs":[{"internalType":"uint256","name":"","type":"uint256"}],"stateMutability":"view","type":"function"},{"inputs":[{"internalType":"address","name":"_wallet","type":"address"},{"internalType":"uint256","name":"_newFee","type":"uint256"}],"name":"updatePartnerFee","outputs":[],"stateMutability":"nonpayable","type":"function"}],"evm":{"bytecode":{"linkReferences":{},"object":"60a06040523480156200001157600080fd5b5060405162001b5d38038062001b5d833981016040819052620000349162000588565b6001600160a01b0381166080526200004b6200015e565b600480546001600160a01b0319166001600160a01b0392909216918217905562000078906000906200016f565b50600454620000a19060008051602062001b1d833981519152906001600160a01b03166200016f565b50600454620000db907f241ecf16d79d0f8dbfb92cbc07fe17840425976cf0667f022fe9877caa831b08906001600160a01b03166200016f565b50600454620000f7906001600160a01b0316620f424062000220565b620001076000620f424062000457565b620001176001620f424062000457565b62000127600262030d4062000457565b62000137600362030d4062000457565b62000147600462030d4062000457565b62000157600562030d4062000457565b5062000608565b60006200016a62000560565b905090565b6000828152602081815260408083206001600160a01b038516845290915281205460ff1662000216576000838152602081815260408083206001600160a01b03861684529091529020805460ff19166001179055620001cd6200015e565b6001600160a01b0316826001600160a01b0316847f2f8788117e7eff1d82e926ec794901d17c78024a50270940304540a733656f0d60405160405180910390a45060016200021a565b5060005b92915050565b6200026760008051602062001b1d8339815191526200023e6200015e565b6000918252602082815260408084206001600160a01b0393909316845291905290205460ff1690565b620002a85760405162461bcd60e51b8152602060048201819052602482015260008051602062001b3d83398151915260448201526064015b60405180910390fd5b6001600160a01b038216620003005760405162461bcd60e51b815260206004820152601660248201527f496e76616c69642077616c6c657420616464726573730000000000000000000060448201526064016200029f565b60008111620003525760405162461bcd60e51b815260206004820152601a60248201527f466565206d7573742062652067726561746572207468616e203000000000000060448201526064016200029f565b6001600160a01b038216600090815260036020526040812054908190036200041a57506040805180820182526001600160a01b03938416808252602080830194855260028054600181018255600082815294517f405787fa12a823e0f2b7631cc41b3ba8828b3321ca811111fa75cd3aa3bb5ace91830291820180546001600160a01b031916919099161790975594517f405787fa12a823e0f2b7631cc41b3ba8828b3321ca811111fa75cd3aa3bb5acf909601959095559254928152600390935290912055565b8160026200042a600184620005ba565b815481106200043d576200043d620005dc565b906000526020600020906002020160010181905550505050565b6200047560008051602062001b1d8339815191526200023e6200015e565b620004b25760405162461bcd60e51b8152602060048201819052602482015260008051602062001b3d83398151915260448201526064016200029f565b629896808111156200051d5760405162461bcd60e51b815260206004820152602d60248201527f4665654d616e616765723a2070657263656e74206d757374206265206265747760448201526c65656e203020616e642031302560981b60648201526084016200029f565b8060016000846005811115620005375762000537620005f2565b60058111156200054b576200054b620005f2565b81526020810191909152604001600020555050565b6080516000906001600160a01b0316330362000583575060131936013560601c90565b503390565b6000602082840312156200059b57600080fd5b81516001600160a01b0381168114620005b357600080fd5b9392505050565b818103818111156200021a57634e487b7160e01b600052601160045260246000fd5b634e487b7160e01b600052603260045260246000fd5b634e487b7160e01b600052602160045260246000fd5b6080516114f26200062b6000396000818161030d01526110fc01526114f26000f3fe608060405234801561001057600080fd5b50600436106101735760003560e01c80634ebc11f6116100de57806391d1485411610097578063d3e83a0811610071578063d3e83a08146103a6578063d547741f146103bb578063ea3c281a146103ce578063ec87621c146103e157600080fd5b806391d14854146103785780639ef120851461038b578063a217fddf1461039e57600080fd5b80634ebc11f6146102ab57806357210115146102dd578063572b6c05146102fd5780637065cb481461033d57806375b238fc146103505780637fc966191461036557600080fd5b806326e885e31161013057806326e885e31461021f5780632f2ff15d14610232578063357c13541461024557806336568abe146102655780633c0578951461027857806347203d5b1461029857600080fd5b806301ffc9a7146101785780630c040b47146101a057806313a7e54e146101c15780631de309bf146101d657806322e7d115146101e9578063248a9ca3146101fc575b600080fd5b61018b610186366004611175565b610408565b60405190151581526020015b60405180910390f35b6101b36101ae3660046111ba565b61043f565b604051908152602001610197565b6101d46101cf3660046111ba565b6104c3565b005b6101d46101e43660046111fb565b61059f565b6101d46101f73660046111fb565b610643565b6101b361020a366004611217565b60009081526020819052604090206001015490565b6101d461022d366004611230565b6107e4565b6101d461024036600461124b565b610848565b6101b3610253366004611277565b60016020526000908152604090205481565b6101d461027336600461124b565b610873565b61028b610286366004611230565b6108b6565b6040516101979190611292565b6101b36102a63660046111fb565b610957565b6102be6102b9366004611217565b610a45565b604080516001600160a01b039093168352602083019190915201610197565b6101b36102eb366004611230565b60036020526000908152604090205481565b61018b61030b366004611230565b7f00000000000000000000000000000000000000000000000000000000000000006001600160a01b0390811691161490565b6101d461034b366004611230565b610a7d565b6101b360008051602061149d83398151915281565b61028b610373366004611217565b610b2b565b61018b61038636600461124b565b610bd2565b6101b36103993660046112b2565b610bfb565b6101b3600081565b6103ae610d31565b60405161019791906112ee565b6101d46103c936600461124b565b610da6565b6101d46103dc366004611230565b610dcb565b6101b37f241ecf16d79d0f8dbfb92cbc07fe17840425976cf0667f022fe9877caa831b0881565b60006001600160e01b03198216637965db0b60e01b148061043957506301ffc9a760e01b6001600160e01b03198316145b92915050565b60008082116104695760405162461bcd60e51b81526004016104609061134e565b60405180910390fd5b60006305f5e1006001600086600581111561048657610486611385565b600581111561049757610497611385565b815260200190815260200160002054846104b191906113b1565b6104bb91906113c8565b949350505050565b6104dd60008051602061149d833981519152610386610fb9565b6104f95760405162461bcd60e51b8152600401610460906113ea565b629896808111156105625760405162461bcd60e51b815260206004820152602d60248201527f4665654d616e616765723a2070657263656e74206d757374206265206265747760448201526c65656e203020616e642031302560981b6064820152608401610460565b806001600084600581111561057957610579611385565b600581111561058a5761058a611385565b81526020810191909152604001600020555050565b6105b960008051602061149d833981519152610386610fb9565b6105d55760405162461bcd60e51b8152600401610460906113ea565b6001600160a01b0382166000908152600360205260409020548061060b5760405162461bcd60e51b81526004016104609061141f565b81600261061960018461144a565b815481106106295761062961145d565b906000526020600020906002020160010181905550505050565b61065d60008051602061149d833981519152610386610fb9565b6106795760405162461bcd60e51b8152600401610460906113ea565b6001600160a01b0382166106c85760405162461bcd60e51b8152602060048201526016602482015275496e76616c69642077616c6c6574206164647265737360501b6044820152606401610460565b600081116107185760405162461bcd60e51b815260206004820152601a60248201527f466565206d7573742062652067726561746572207468616e20300000000000006044820152606401610460565b6001600160a01b0382166000908152600360205260408120549081900361060b57506040805180820182526001600160a01b03938416808252602080830194855260028054600181018255600082815294517f405787fa12a823e0f2b7631cc41b3ba8828b3321ca811111fa75cd3aa3bb5ace91830291820180546001600160a01b031916919099161790975594517f405787fa12a823e0f2b7631cc41b3ba8828b3321ca811111fa75cd3aa3bb5acf909601959095559254928152600390935290912055565b505050565b6107fe60008051602061149d833981519152610386610fb9565b61081a5760405162461bcd60e51b8152600401610460906113ea565b6108447f241ecf16d79d0f8dbfb92cbc07fe17840425976cf0667f022fe9877caa831b0882610fc8565b5050565b6000828152602081905260409020600101546108638161105b565b61086d8383610fc8565b50505050565b61087b610fb9565b6001600160a01b0316816001600160a01b0316146108ac5760405163334bd91960e11b815260040160405180910390fd5b6107df828261106f565b60408051808201909152600080825260208201526001600160a01b038216600090815260036020526040902054806109005760405162461bcd60e51b81526004016104609061141f565b600261090d60018361144a565b8154811061091d5761091d61145d565b60009182526020918290206040805180820190915260029092020180546001600160a01b0316825260010154918101919091529392505050565b60008082116109785760405162461bcd60e51b81526004016104609061134e565b60408051808201909152600080825260208201526001600160a01b0384166000908152600360205260409020548015610a025760026109b860018361144a565b815481106109c8576109c861145d565b60009182526020918290206040805180820190915260029092020180546001600160a01b0316825260010154918101919091529150610a1a565b600454610a17906001600160a01b03166108b6565b91505b60006305f5e100836020015186610a3191906113b1565b610a3b91906113c8565b9695505050505050565b60028181548110610a5557600080fd5b6000918252602090912060029091020180546001909101546001600160a01b03909116915082565b610a9760008051602061149d833981519152610386610fb9565b610ab35760405162461bcd60e51b8152600401610460906113ea565b6001600160a01b038116610b095760405162461bcd60e51b815260206004820152601860248201527f496e76616c6964206e65774f776e6572206164647265737300000000000000006044820152606401610460565b600480546001600160a01b0319166001600160a01b0392909216919091179055565b60408051808201909152600080825260208201526002548210610b865760405162461bcd60e51b8152602060048201526013602482015272496e646578206f7574206f6620626f756e647360681b6044820152606401610460565b60028281548110610b9957610b9961145d565b60009182526020918290206040805180820190915260029092020180546001600160a01b03168252600101549181019190915292915050565b6000918252602082815260408084206001600160a01b0393909316845291905290205460ff1690565b6000808311610c1c5760405162461bcd60e51b81526004016104609061134e565b60408051808201909152600080825260208201526001600160a01b0385166000908152600360205260409020548015610ca6576002610c5c60018361144a565b81548110610c6c57610c6c61145d565b60009182526020918290206040805180820190915260029092020180546001600160a01b0316825260010154918101919091529150610cbe565b600454610cbb906001600160a01b03166108b6565b91505b6305f5e10060016000866005811115610cd957610cd9611385565b6005811115610cea57610cea611385565b81526020019081526020016000205486610d0491906113b1565b6020840151610d1390886113b1565b610d1d9190611473565b610d2791906113c8565b610a3b908661144a565b60606002805480602002602001604051908101604052809291908181526020016000905b82821015610d9d576000848152602090819020604080518082019091526002850290910180546001600160a01b03168252600190810154828401529083529092019101610d55565b50505050905090565b600082815260208190526040902060010154610dc18161105b565b61086d838361106f565b610de560008051602061149d833981519152610386610fb9565b610e015760405162461bcd60e51b8152600401610460906113ea565b6001600160a01b03811660009081526003602052604090205480610e375760405162461bcd60e51b81526004016104609061141f565b6002548103610e7f576002805480610e5157610e51611486565b60008281526020812060026000199093019283020180546001600160a01b0319168155600101559055610f42565b60028054610e8f9060019061144a565b81548110610e9f57610e9f61145d565b90600052602060002090600202016002600183610ebc919061144a565b81548110610ecc57610ecc61145d565b600091825260209091208254600292830290910180546001600160a01b0319166001600160a01b03909216919091178155600192830154920191909155805480610f1857610f18611486565b60008281526020812060026000199093019283020180546001600160a01b03191681556001015590555b60025415610f9e57806003600060026001600280549050610f63919061144a565b81548110610f7357610f7361145d565b600091825260208083206002909202909101546001600160a01b031683528201929092526040019020555b506001600160a01b0316600090815260036020526040812055565b6000610fc36110f8565b905090565b6000610fd48383610bd2565b611053576000838152602081815260408083206001600160a01b03861684529091529020805460ff1916600117905561100b610fb9565b6001600160a01b0316826001600160a01b0316847f2f8788117e7eff1d82e926ec794901d17c78024a50270940304540a733656f0d60405160405180910390a4506001610439565b506000610439565b61106c81611067610fb9565b61113c565b50565b600061107b8383610bd2565b15611053576000838152602081815260408083206001600160a01b03861684529091529020805460ff191690556110b0610fb9565b6001600160a01b0316826001600160a01b0316847ff6391f5c32d9c69d2a47ea670b442974b53935d1edc7fd64eb21e047a839171b60405160405180910390a4506001610439565b60007f00000000000000000000000000000000000000000000000000000000000000006001600160a01b03163303611137575060131936013560601c90565b503390565b6111468282610bd2565b6108445760405163e2517d3f60e01b81526001600160a01b038216600482015260248101839052604401610460565b60006020828403121561118757600080fd5b81356001600160e01b03198116811461119f57600080fd5b9392505050565b8035600681106111b557600080fd5b919050565b600080604083850312156111cd57600080fd5b6111d6836111a6565b946020939093013593505050565b80356001600160a01b03811681146111b557600080fd5b6000806040838503121561120e57600080fd5b6111d6836111e4565b60006020828403121561122957600080fd5b5035919050565b60006020828403121561124257600080fd5b61119f826111e4565b6000806040838503121561125e57600080fd5b8235915061126e602084016111e4565b90509250929050565b60006020828403121561128957600080fd5b61119f826111a6565b81516001600160a01b031681526020808301519082015260408101610439565b6000806000606084860312156112c757600080fd5b6112d0846111e4565b9250602084013591506112e5604085016111a6565b90509250925092565b602080825282518282018190526000919060409081850190868401855b828110156113415761133184835180516001600160a01b03168252602090810151910152565b928401929085019060010161130b565b5091979650505050505050565b6020808252601d908201527f416d6f756e74206d7573742062652067726561746572207468616e2030000000604082015260600190565b634e487b7160e01b600052602160045260246000fd5b634e487b7160e01b600052601160045260246000fd5b80820281158282048414176104395761043961139b565b6000826113e557634e487b7160e01b600052601260045260246000fd5b500490565b6020808252818101527f4665654d616e616765723a206d7573742068617665206f776e657220726f6c65604082015260600190565b60208082526011908201527014185c9d1b995c881b9bdd08199bdd5b99607a1b604082015260600190565b818103818111156104395761043961139b565b634e487b7160e01b600052603260045260246000fd5b808201808211156104395761043961139b565b634e487b7160e01b600052603160045260246000fdfea49807205ce4d355092ef5a8a18f56e8913cf4a201fbe287825b095693c21775a2646970667358221220d7f0118ae80c05e28b0383d826c328c2593a1e187e37500de01982ecf3424cb564736f6c63430008140033a49807205ce4d355092ef5a8a18f56e8913cf4a201fbe287825b095693c217754665654d616e616765723a206d7573742068617665206f776e657220726f6c65","opcodes":"PUSH1 0xA0 PUSH1 0x40 MSTORE CALLVALUE DUP1 ISZERO PUSH3 0x11 JUMPI PUSH1 0x0 DUP1 REVERT JUMPDEST POP PUSH1 0x40 MLOAD PUSH3 0x1B5D CODESIZE SUB DUP1 PUSH3 0x1B5D DUP4 CODECOPY DUP2 ADD PUSH1 0x40 DUP2 SWAP1 MSTORE PUSH3 0x34 SWAP2 PUSH3 0x588 JUMP JUMPDEST PUSH1 0x1 PUSH1 0x1 PUSH1 0xA0 SHL SUB DUP2 AND PUSH1 0x80 MSTORE PUSH3 0x4B PUSH3 0x15E JUMP JUMPDEST PUSH1 0x4 DUP1 SLOAD PUSH1 0x1 PUSH1 0x1 PUSH1 0xA0 SHL SUB NOT AND PUSH1 0x1 PUSH1 0x1 PUSH1 0xA0 SHL SUB SWAP3 SWAP1 SWAP3 AND SWAP2 DUP3 OR SWAP1 SSTORE PUSH3 0x78 SWAP1 PUSH1 0x0 SWAP1 PUSH3 0x16F JUMP JUMPDEST POP PUSH1 0x4 SLOAD PUSH3 0xA1 SWAP1 PUSH1 0x0 DUP1 MLOAD PUSH1 0x20 PUSH3 0x1B1D DUP4 CODECOPY DUP2 MLOAD SWAP2 MSTORE SWAP1 PUSH1 0x1 PUSH1 0x1 PUSH1 0xA0 SHL SUB AND PUSH3 0x16F JUMP JUMPDEST POP PUSH1 0x4 SLOAD PUSH3 0xDB SWAP1 PUSH32 0x241ECF16D79D0F8DBFB92CBC07FE17840425976CF0667F022FE9877CAA831B08 SWAP1 PUSH1 0x1 PUSH1 0x1 PUSH1 0xA0 SHL SUB AND PUSH3 0x16F JUMP JUMPDEST POP PUSH1 0x4 SLOAD PUSH3 0xF7 SWAP1 PUSH1 0x1 PUSH1 0x1 PUSH1 0xA0 SHL SUB AND PUSH3 0xF4240 PUSH3 0x220 JUMP JUMPDEST PUSH3 0x107 PUSH1 0x0 PUSH3 0xF4240 PUSH3 0x457 JUMP JUMPDEST PUSH3 0x117 PUSH1 0x1 PUSH3 0xF4240 PUSH3 0x457 JUMP JUMPDEST PUSH3 0x127 PUSH1 0x2 PUSH3 0x30D40 PUSH3 0x457 JUMP JUMPDEST PUSH3 0x137 PUSH1 0x3 PUSH3 0x30D40 PUSH3 0x457 JUMP JUMPDEST PUSH3 0x147 PUSH1 0x4 PUSH3 0x30D40 PUSH3 0x457 JUMP JUMPDEST PUSH3 0x157 PUSH1 0x5 PUSH3 0x30D40 PUSH3 0x457 JUMP JUMPDEST POP PUSH3 0x608 JUMP JUMPDEST PUSH1 0x0 PUSH3 0x16A PUSH3 0x560 JUMP JUMPDEST SWAP1 POP SWAP1 JUMP JUMPDEST PUSH1 0x0 DUP3 DUP2 MSTORE PUSH1 0x20 DUP2 DUP2 MSTORE PUSH1 0x40 DUP1 DUP4 KECCAK256 PUSH1 0x1 PUSH1 0x1 PUSH1 0xA0 SHL SUB DUP6 AND DUP5 MSTORE SWAP1 SWAP2 MSTORE DUP2 KECCAK256 SLOAD PUSH1 0xFF AND PUSH3 0x216 JUMPI PUSH1 0x0 DUP4 DUP2 MSTORE PUSH1 0x20 DUP2 DUP2 MSTORE PUSH1 0x40 DUP1 DUP4 KECCAK256 PUSH1 0x1 PUSH1 0x1 PUSH1 0xA0 SHL SUB DUP7 AND DUP5 MSTORE SWAP1 SWAP2 MSTORE SWAP1 KECCAK256 DUP1 SLOAD PUSH1 0xFF NOT AND PUSH1 0x1 OR SWAP1 SSTORE PUSH3 0x1CD PUSH3 0x15E JUMP JUMPDEST PUSH1 0x1 PUSH1 0x1 PUSH1 0xA0 SHL SUB AND DUP3 PUSH1 0x1 PUSH1 0x1 PUSH1 0xA0 SHL SUB AND DUP5 PUSH32 0x2F8788117E7EFF1D82E926EC794901D17C78024A50270940304540A733656F0D PUSH1 0x40 MLOAD PUSH1 0x40 MLOAD DUP1 SWAP2 SUB SWAP1 LOG4 POP PUSH1 0x1 PUSH3 0x21A JUMP JUMPDEST POP PUSH1 0x0 JUMPDEST SWAP3 SWAP2 POP POP JUMP JUMPDEST PUSH3 0x267 PUSH1 0x0 DUP1 MLOAD PUSH1 0x20 PUSH3 0x1B1D DUP4 CODECOPY DUP2 MLOAD SWAP2 MSTORE PUSH3 0x23E PUSH3 0x15E JUMP JUMPDEST PUSH1 0x0 SWAP2 DUP3 MSTORE PUSH1 0x20 DUP3 DUP2 MSTORE PUSH1 0x40 DUP1 DUP5 KECCAK256 PUSH1 0x1 PUSH1 0x1 PUSH1 0xA0 SHL SUB SWAP4 SWAP1 SWAP4 AND DUP5 MSTORE SWAP2 SWAP1 MSTORE SWAP1 KECCAK256 SLOAD PUSH1 0xFF AND SWAP1 JUMP JUMPDEST PUSH3 0x2A8 JUMPI PUSH1 0x40 MLOAD PUSH3 0x461BCD PUSH1 0xE5 SHL DUP2 MSTORE PUSH1 0x20 PUSH1 0x4 DUP3 ADD DUP2 SWAP1 MSTORE PUSH1 0x24 DUP3 ADD MSTORE PUSH1 0x0 DUP1 MLOAD PUSH1 0x20 PUSH3 0x1B3D DUP4 CODECOPY DUP2 MLOAD SWAP2 MSTORE PUSH1 0x44 DUP3 ADD MSTORE PUSH1 0x64 ADD JUMPDEST PUSH1 0x40 MLOAD DUP1 SWAP2 SUB SWAP1 REVERT JUMPDEST PUSH1 0x1 PUSH1 0x1 PUSH1 0xA0 SHL SUB DUP3 AND PUSH3 0x300 JUMPI PUSH1 0x40 MLOAD PUSH3 0x461BCD PUSH1 0xE5 SHL DUP2 MSTORE PUSH1 0x20 PUSH1 0x4 DUP3 ADD MSTORE PUSH1 0x16 PUSH1 0x24 DUP3 ADD MSTORE PUSH32 0x496E76616C69642077616C6C6574206164647265737300000000000000000000 PUSH1 0x44 DUP3 ADD MSTORE PUSH1 0x64 ADD PUSH3 0x29F JUMP JUMPDEST PUSH1 0x0 DUP2 GT PUSH3 0x352 JUMPI PUSH1 0x40 MLOAD PUSH3 0x461BCD PUSH1 0xE5 SHL DUP2 MSTORE PUSH1 0x20 PUSH1 0x4 DUP3 ADD MSTORE PUSH1 0x1A PUSH1 0x24 DUP3 ADD MSTORE PUSH32 0x466565206D7573742062652067726561746572207468616E2030000000000000 PUSH1 0x44 DUP3 ADD MSTORE PUSH1 0x64 ADD PUSH3 0x29F JUMP JUMPDEST PUSH1 0x1 PUSH1 0x1 PUSH1 0xA0 SHL SUB DUP3 AND PUSH1 0x0 SWAP1 DUP2 MSTORE PUSH1 0x3 PUSH1 0x20 MSTORE PUSH1 0x40 DUP2 KECCAK256 SLOAD SWAP1 DUP2 SWAP1 SUB PUSH3 0x41A JUMPI POP PUSH1 0x40 DUP1 MLOAD DUP1 DUP3 ADD DUP3 MSTORE PUSH1 0x1 PUSH1 0x1 PUSH1 0xA0 SHL SUB SWAP4 DUP5 AND DUP1 DUP3 MSTORE PUSH1 0x20 DUP1 DUP4 ADD SWAP5 DUP6 MSTORE PUSH1 0x2 DUP1 SLOAD PUSH1 0x1 DUP2 ADD DUP3 SSTORE PUSH1 0x0 DUP3 DUP2 MSTORE SWAP5 MLOAD PUSH32 0x405787FA12A823E0F2B7631CC41B3BA8828B3321CA811111FA75CD3AA3BB5ACE SWAP2 DUP4 MUL SWAP2 DUP3 ADD DUP1 SLOAD PUSH1 0x1 PUSH1 0x1 PUSH1 0xA0 SHL SUB NOT AND SWAP2 SWAP1 SWAP10 AND OR SWAP1 SWAP8 SSTORE SWAP5 MLOAD PUSH32 0x405787FA12A823E0F2B7631CC41B3BA8828B3321CA811111FA75CD3AA3BB5ACF SWAP1 SWAP7 ADD SWAP6 SWAP1 SWAP6 SSTORE SWAP3 SLOAD SWAP3 DUP2 MSTORE PUSH1 0x3 SWAP1 SWAP4 MSTORE SWAP1 SWAP2 KECCAK256 SSTORE JUMP JUMPDEST DUP2 PUSH1 0x2 PUSH3 0x42A PUSH1 0x1 DUP5 PUSH3 0x5BA JUMP JUMPDEST DUP2 SLOAD DUP2 LT PUSH3 0x43D JUMPI PUSH3 0x43D PUSH3 0x5DC JUMP JUMPDEST SWAP1 PUSH1 0x0 MSTORE PUSH1 0x20 PUSH1 0x0 KECCAK256 SWAP1 PUSH1 0x2 MUL ADD PUSH1 0x1 ADD DUP2 SWAP1 SSTORE POP POP POP POP JUMP JUMPDEST PUSH3 0x475 PUSH1 0x0 DUP1 MLOAD PUSH1 0x20 PUSH3 0x1B1D DUP4 CODECOPY DUP2 MLOAD SWAP2 MSTORE PUSH3 0x23E PUSH3 0x15E JUMP JUMPDEST PUSH3 0x4B2 JUMPI PUSH1 0x40 MLOAD PUSH3 0x461BCD PUSH1 0xE5 SHL DUP2 MSTORE PUSH1 0x20 PUSH1 0x4 DUP3 ADD DUP2 SWAP1 MSTORE PUSH1 0x24 DUP3 ADD MSTORE PUSH1 0x0 DUP1 MLOAD PUSH1 0x20 PUSH3 0x1B3D DUP4 CODECOPY DUP2 MLOAD SWAP2 MSTORE PUSH1 0x44 DUP3 ADD MSTORE PUSH1 0x64 ADD PUSH3 0x29F JUMP JUMPDEST PUSH3 0x989680 DUP2 GT ISZERO PUSH3 0x51D JUMPI PUSH1 0x40 MLOAD PUSH3 0x461BCD PUSH1 0xE5 SHL DUP2 MSTORE PUSH1 0x20 PUSH1 0x4 DUP3 ADD MSTORE PUSH1 0x2D PUSH1 0x24 DUP3 ADD MSTORE PUSH32 0x4665654D616E616765723A2070657263656E74206D7573742062652062657477 PUSH1 0x44 DUP3 ADD MSTORE PUSH13 0x65656E203020616E6420313025 PUSH1 0x98 SHL PUSH1 0x64 DUP3 ADD MSTORE PUSH1 0x84 ADD PUSH3 0x29F JUMP JUMPDEST DUP1 PUSH1 0x1 PUSH1 0x0 DUP5 PUSH1 0x5 DUP2 GT ISZERO PUSH3 0x537 JUMPI PUSH3 0x537 PUSH3 0x5F2 JUMP JUMPDEST PUSH1 0x5 DUP2 GT ISZERO PUSH3 0x54B JUMPI PUSH3 0x54B PUSH3 0x5F2 JUMP JUMPDEST DUP2 MSTORE PUSH1 0x20 DUP2 ADD SWAP2 SWAP1 SWAP2 MSTORE PUSH1 0x40 ADD PUSH1 0x0 KECCAK256 SSTORE POP POP JUMP JUMPDEST PUSH1 0x80 MLOAD PUSH1 0x0 SWAP1 PUSH1 0x1 PUSH1 0x1 PUSH1 0xA0 SHL SUB AND CALLER SUB PUSH3 0x583 JUMPI POP PUSH1 0x13 NOT CALLDATASIZE ADD CALLDATALOAD PUSH1 0x60 SHR SWAP1 JUMP JUMPDEST POP CALLER SWAP1 JUMP JUMPDEST PUSH1 0x0 PUSH1 0x20 DUP3 DUP5 SUB SLT ISZERO PUSH3 0x59B JUMPI PUSH1 0x0 DUP1 REVERT JUMPDEST DUP2 MLOAD PUSH1 0x1 PUSH1 0x1 PUSH1 0xA0 SHL SUB DUP2 AND DUP2 EQ PUSH3 0x5B3 JUMPI PUSH1 0x0 DUP1 REVERT JUMPDEST SWAP4 SWAP3 POP POP POP JUMP JUMPDEST DUP2 DUP2 SUB DUP2 DUP2 GT ISZERO PUSH3 0x21A JUMPI PUSH4 0x4E487B71 PUSH1 0xE0 SHL PUSH1 0x0 MSTORE PUSH1 0x11 PUSH1 0x4 MSTORE PUSH1 0x24 PUSH1 0x0 REVERT JUMPDEST PUSH4 0x4E487B71 PUSH1 0xE0 SHL PUSH1 0x0 MSTORE PUSH1 0x32 PUSH1 0x4 MSTORE PUSH1 0x24 PUSH1 0x0 REVERT JUMPDEST PUSH4 0x4E487B71 PUSH1 0xE0 SHL PUSH1 0x0 MSTORE PUSH1 0x21 PUSH1 0x4 MSTORE PUSH1 0x24 PUSH1 0x0 REVERT JUMPDEST PUSH1 0x80 MLOAD PUSH2 0x14F2 PUSH3 0x62B PUSH1 0x0 CODECOPY PUSH1 0x0 DUP2 DUP2 PUSH2 0x30D ADD MSTORE PUSH2 0x10FC ADD MSTORE PUSH2 0x14F2 PUSH1 0x0 RETURN INVALID PUSH1 0x80 PUSH1 0x40 MSTORE CALLVALUE DUP1 ISZERO PUSH2 0x10 JUMPI PUSH1 0x0 DUP1 REVERT JUMPDEST POP PUSH1 0x4 CALLDATASIZE LT PUSH2 0x173 JUMPI PUSH1 0x0 CALLDATALOAD PUSH1 0xE0 SHR DUP1 PUSH4 0x4EBC11F6 GT PUSH2 0xDE JUMPI DUP1 PUSH4 0x91D14854 GT PUSH2 0x97 JUMPI DUP1 PUSH4 0xD3E83A08 GT PUSH2 0x71 JUMPI DUP1 PUSH4 0xD3E83A08 EQ PUSH2 0x3A6 JUMPI DUP1 PUSH4 0xD547741F EQ PUSH2 0x3BB JUMPI DUP1 PUSH4 0xEA3C281A EQ PUSH2 0x3CE JUMPI DUP1 PUSH4 0xEC87621C EQ PUSH2 0x3E1 JUMPI PUSH1 0x0 DUP1 REVERT JUMPDEST DUP1 PUSH4 0x91D14854 EQ PUSH2 0x378 JUMPI DUP1 PUSH4 0x9EF12085 EQ PUSH2 0x38B JUMPI DUP1 PUSH4 0xA217FDDF EQ PUSH2 0x39E JUMPI PUSH1 0x0 DUP1 REVERT JUMPDEST DUP1 PUSH4 0x4EBC11F6 EQ PUSH2 0x2AB JUMPI DUP1 PUSH4 0x57210115 EQ PUSH2 0x2DD JUMPI DUP1 PUSH4 0x572B6C05 EQ PUSH2 0x2FD JUMPI DUP1 PUSH4 0x7065CB48 EQ PUSH2 0x33D JUMPI DUP1 PUSH4 0x75B238FC EQ PUSH2 0x350 JUMPI DUP1 PUSH4 0x7FC96619 EQ PUSH2 0x365 JUMPI PUSH1 0x0 DUP1 REVERT JUMPDEST DUP1 PUSH4 0x26E885E3 GT PUSH2 0x130 JUMPI DUP1 PUSH4 0x26E885E3 EQ PUSH2 0x21F JUMPI DUP1 PUSH4 0x2F2FF15D EQ PUSH2 0x232 JUMPI DUP1 PUSH4 0x357C1354 EQ PUSH2 0x245 JUMPI DUP1 PUSH4 0x36568ABE EQ PUSH2 0x265 JUMPI DUP1 PUSH4 0x3C057895 EQ PUSH2 0x278 JUMPI DUP1 PUSH4 0x47203D5B EQ PUSH2 0x298 JUMPI PUSH1 0x0 DUP1 REVERT JUMPDEST DUP1 PUSH4 0x1FFC9A7 EQ PUSH2 0x178 JUMPI DUP1 PUSH4 0xC040B47 EQ PUSH2 0x1A0 JUMPI DUP1 PUSH4 0x13A7E54E EQ PUSH2 0x1C1 JUMPI DUP1 PUSH4 0x1DE309BF EQ PUSH2 0x1D6 JUMPI DUP1 PUSH4 0x22E7D115 EQ PUSH2 0x1E9 JUMPI DUP1 PUSH4 0x248A9CA3 EQ PUSH2 0x1FC JUMPI JUMPDEST PUSH1 0x0 DUP1 REVERT JUMPDEST PUSH2 0x18B PUSH2 0x186 CALLDATASIZE PUSH1 0x4 PUSH2 0x1175 JUMP JUMPDEST PUSH2 0x408 JUMP JUMPDEST PUSH1 0x40 MLOAD SWAP1 ISZERO ISZERO DUP2 MSTORE PUSH1 0x20 ADD JUMPDEST PUSH1 0x40 MLOAD DUP1 SWAP2 SUB SWAP1 RETURN JUMPDEST PUSH2 0x1B3 PUSH2 0x1AE CALLDATASIZE PUSH1 0x4 PUSH2 0x11BA JUMP JUMPDEST PUSH2 0x43F JUMP JUMPDEST PUSH1 0x40 MLOAD SWAP1 DUP2 MSTORE PUSH1 0x20 ADD PUSH2 0x197 JUMP JUMPDEST PUSH2 0x1D4 PUSH2 0x1CF CALLDATASIZE PUSH1 0x4 PUSH2 0x11BA JUMP JUMPDEST PUSH2 0x4C3 JUMP JUMPDEST STOP JUMPDEST PUSH2 0x1D4 PUSH2 0x1E4 CALLDATASIZE PUSH1 0x4 PUSH2 0x11FB JUMP JUMPDEST PUSH2 0x59F JUMP JUMPDEST PUSH2 0x1D4 PUSH2 0x1F7 CALLDATASIZE PUSH1 0x4 PUSH2 0x11FB JUMP JUMPDEST PUSH2 0x643 JUMP JUMPDEST PUSH2 0x1B3 PUSH2 0x20A CALLDATASIZE PUSH1 0x4 PUSH2 0x1217 JUMP JUMPDEST PUSH1 0x0 SWAP1 DUP2 MSTORE PUSH1 0x20 DUP2 SWAP1 MSTORE PUSH1 0x40 SWAP1 KECCAK256 PUSH1 0x1 ADD SLOAD SWAP1 JUMP JUMPDEST PUSH2 0x1D4 PUSH2 0x22D CALLDATASIZE PUSH1 0x4 PUSH2 0x1230 JUMP JUMPDEST PUSH2 0x7E4 JUMP JUMPDEST PUSH2 0x1D4 PUSH2 0x240 CALLDATASIZE PUSH1 0x4 PUSH2 0x124B JUMP JUMPDEST PUSH2 0x848 JUMP JUMPDEST PUSH2 0x1B3 PUSH2 0x253 CALLDATASIZE PUSH1 0x4 PUSH2 0x1277 JUMP JUMPDEST PUSH1 0x1 PUSH1 0x20 MSTORE PUSH1 0x0 SWAP1 DUP2 MSTORE PUSH1 0x40 SWAP1 KECCAK256 SLOAD DUP2 JUMP JUMPDEST PUSH2 0x1D4 PUSH2 0x273 CALLDATASIZE PUSH1 0x4 PUSH2 0x124B JUMP JUMPDEST PUSH2 0x873 JUMP JUMPDEST PUSH2 0x28B PUSH2 0x286 CALLDATASIZE PUSH1 0x4 PUSH2 0x1230 JUMP JUMPDEST PUSH2 0x8B6 JUMP JUMPDEST PUSH1 0x40 MLOAD PUSH2 0x197 SWAP2 SWAP1 PUSH2 0x1292 JUMP JUMPDEST PUSH2 0x1B3 PUSH2 0x2A6 CALLDATASIZE PUSH1 0x4 PUSH2 0x11FB JUMP JUMPDEST PUSH2 0x957 JUMP JUMPDEST PUSH2 0x2BE PUSH2 0x2B9 CALLDATASIZE PUSH1 0x4 PUSH2 0x1217 JUMP JUMPDEST PUSH2 0xA45 JUMP JUMPDEST PUSH1 0x40 DUP1 MLOAD PUSH1 0x1 PUSH1 0x1 PUSH1 0xA0 SHL SUB SWAP1 SWAP4 AND DUP4 MSTORE PUSH1 0x20 DUP4 ADD SWAP2 SWAP1 SWAP2 MSTORE ADD PUSH2 0x197 JUMP JUMPDEST PUSH2 0x1B3 PUSH2 0x2EB CALLDATASIZE PUSH1 0x4 PUSH2 0x1230 JUMP JUMPDEST PUSH1 0x3 PUSH1 0x20 MSTORE PUSH1 0x0 SWAP1 DUP2 MSTORE PUSH1 0x40 SWAP1 KECCAK256 SLOAD DUP2 JUMP JUMPDEST PUSH2 0x18B PUSH2 0x30B CALLDATASIZE PUSH1 0x4 PUSH2 0x1230 JUMP JUMPDEST PUSH32 0x0 PUSH1 0x1 PUSH1 0x1 PUSH1 0xA0 SHL SUB SWAP1 DUP2 AND SWAP2 AND EQ SWAP1 JUMP JUMPDEST PUSH2 0x1D4 PUSH2 0x34B CALLDATASIZE PUSH1 0x4 PUSH2 0x1230 JUMP JUMPDEST PUSH2 0xA7D JUMP JUMPDEST PUSH2 0x1B3 PUSH1 0x0 DUP1 MLOAD PUSH1 0x20 PUSH2 0x149D DUP4 CODECOPY DUP2 MLOAD SWAP2 MSTORE DUP2 JUMP JUMPDEST PUSH2 0x28B PUSH2 0x373 CALLDATASIZE PUSH1 0x4 PUSH2 0x1217 JUMP JUMPDEST PUSH2 0xB2B JUMP JUMPDEST PUSH2 0x18B PUSH2 0x386 CALLDATASIZE PUSH1 0x4 PUSH2 0x124B JUMP JUMPDEST PUSH2 0xBD2 JUMP JUMPDEST PUSH2 0x1B3 PUSH2 0x399 CALLDATASIZE PUSH1 0x4 PUSH2 0x12B2 JUMP JUMPDEST PUSH2 0xBFB JUMP JUMPDEST PUSH2 0x1B3 PUSH1 0x0 DUP2 JUMP JUMPDEST PUSH2 0x3AE PUSH2 0xD31 JUMP JUMPDEST PUSH1 0x40 MLOAD PUSH2 0x197 SWAP2 SWAP1 PUSH2 0x12EE JUMP JUMPDEST PUSH2 0x1D4 PUSH2 0x3C9 CALLDATASIZE PUSH1 0x4 PUSH2 0x124B JUMP JUMPDEST PUSH2 0xDA6 JUMP JUMPDEST PUSH2 0x1D4 PUSH2 0x3DC CALLDATASIZE PUSH1 0x4 PUSH2 0x1230 JUMP JUMPDEST PUSH2 0xDCB JUMP JUMPDEST PUSH2 0x1B3 PUSH32 0x241ECF16D79D0F8DBFB92CBC07FE17840425976CF0667F022FE9877CAA831B08 DUP2 JUMP JUMPDEST PUSH1 0x0 PUSH1 0x1 PUSH1 0x1 PUSH1 0xE0 SHL SUB NOT DUP3 AND PUSH4 0x7965DB0B PUSH1 0xE0 SHL EQ DUP1 PUSH2 0x439 JUMPI POP PUSH4 0x1FFC9A7 PUSH1 0xE0 SHL PUSH1 0x1 PUSH1 0x1 PUSH1 0xE0 SHL SUB NOT DUP4 AND EQ JUMPDEST SWAP3 SWAP2 POP POP JUMP JUMPDEST PUSH1 0x0 DUP1 DUP3 GT PUSH2 0x469 JUMPI PUSH1 0x40 MLOAD PUSH3 0x461BCD PUSH1 0xE5 SHL DUP2 MSTORE PUSH1 0x4 ADD PUSH2 0x460 SWAP1 PUSH2 0x134E JUMP JUMPDEST PUSH1 0x40 MLOAD DUP1 SWAP2 SUB SWAP1 REVERT JUMPDEST PUSH1 0x0 PUSH4 0x5F5E100 PUSH1 0x1 PUSH1 0x0 DUP7 PUSH1 0x5 DUP2 GT ISZERO PUSH2 0x486 JUMPI PUSH2 0x486 PUSH2 0x1385 JUMP JUMPDEST PUSH1 0x5 DUP2 GT ISZERO PUSH2 0x497 JUMPI PUSH2 0x497 PUSH2 0x1385 JUMP JUMPDEST DUP2 MSTORE PUSH1 0x20 ADD SWAP1 DUP2 MSTORE PUSH1 0x20 ADD PUSH1 0x0 KECCAK256 SLOAD DUP5 PUSH2 0x4B1 SWAP2 SWAP1 PUSH2 0x13B1 JUMP JUMPDEST PUSH2 0x4BB SWAP2 SWAP1 PUSH2 0x13C8 JUMP JUMPDEST SWAP5 SWAP4 POP POP POP POP JUMP JUMPDEST PUSH2 0x4DD PUSH1 0x0 DUP1 MLOAD PUSH1 0x20 PUSH2 0x149D DUP4 CODECOPY DUP2 MLOAD SWAP2 MSTORE PUSH2 0x386 PUSH2 0xFB9 JUMP JUMPDEST PUSH2 0x4F9 JUMPI PUSH1 0x40 MLOAD PUSH3 0x461BCD PUSH1 0xE5 SHL DUP2 MSTORE PUSH1 0x4 ADD PUSH2 0x460 SWAP1 PUSH2 0x13EA JUMP JUMPDEST PUSH3 0x989680 DUP2 GT ISZERO PUSH2 0x562 JUMPI PUSH1 0x40 MLOAD PUSH3 0x461BCD PUSH1 0xE5 SHL DUP2 MSTORE PUSH1 0x20 PUSH1 0x4 DUP3 ADD MSTORE PUSH1 0x2D PUSH1 0x24 DUP3 ADD MSTORE PUSH32 0x4665654D616E616765723A2070657263656E74206D7573742062652062657477 PUSH1 0x44 DUP3 ADD MSTORE PUSH13 0x65656E203020616E6420313025 PUSH1 0x98 SHL PUSH1 0x64 DUP3 ADD MSTORE PUSH1 0x84 ADD PUSH2 0x460 JUMP JUMPDEST DUP1 PUSH1 0x1 PUSH1 0x0 DUP5 PUSH1 0x5 DUP2 GT ISZERO PUSH2 0x579 JUMPI PUSH2 0x579 PUSH2 0x1385 JUMP JUMPDEST PUSH1 0x5 DUP2 GT ISZERO PUSH2 0x58A JUMPI PUSH2 0x58A PUSH2 0x1385 JUMP JUMPDEST DUP2 MSTORE PUSH1 0x20 DUP2 ADD SWAP2 SWAP1 SWAP2 MSTORE PUSH1 0x40 ADD PUSH1 0x0 KECCAK256 SSTORE POP POP JUMP JUMPDEST PUSH2 0x5B9 PUSH1 0x0 DUP1 MLOAD PUSH1 0x20 PUSH2 0x149D DUP4 CODECOPY DUP2 MLOAD SWAP2 MSTORE PUSH2 0x386 PUSH2 0xFB9 JUMP JUMPDEST PUSH2 0x5D5 JUMPI PUSH1 0x40 MLOAD PUSH3 0x461BCD PUSH1 0xE5 SHL DUP2 MSTORE PUSH1 0x4 ADD PUSH2 0x460 SWAP1 PUSH2 0x13EA JUMP JUMPDEST PUSH1 0x1 PUSH1 0x1 PUSH1 0xA0 SHL SUB DUP3 AND PUSH1 0x0 SWAP1 DUP2 MSTORE PUSH1 0x3 PUSH1 0x20 MSTORE PUSH1 0x40 SWAP1 KECCAK256 SLOAD DUP1 PUSH2 0x60B JUMPI PUSH1 0x40 MLOAD PUSH3 0x461BCD PUSH1 0xE5 SHL DUP2 MSTORE PUSH1 0x4 ADD PUSH2 0x460 SWAP1 PUSH2 0x141F JUMP JUMPDEST DUP2 PUSH1 0x2 PUSH2 0x619 PUSH1 0x1 DUP5 PUSH2 0x144A JUMP JUMPDEST DUP2 SLOAD DUP2 LT PUSH2 0x629 JUMPI PUSH2 0x629 PUSH2 0x145D JUMP JUMPDEST SWAP1 PUSH1 0x0 MSTORE PUSH1 0x20 PUSH1 0x0 KECCAK256 SWAP1 PUSH1 0x2 MUL ADD PUSH1 0x1 ADD DUP2 SWAP1 SSTORE POP POP POP POP JUMP JUMPDEST PUSH2 0x65D PUSH1 0x0 DUP1 MLOAD PUSH1 0x20 PUSH2 0x149D DUP4 CODECOPY DUP2 MLOAD SWAP2 MSTORE PUSH2 0x386 PUSH2 0xFB9 JUMP JUMPDEST PUSH2 0x679 JUMPI PUSH1 0x40 MLOAD PUSH3 0x461BCD PUSH1 0xE5 SHL DUP2 MSTORE PUSH1 0x4 ADD PUSH2 0x460 SWAP1 PUSH2 0x13EA JUMP JUMPDEST PUSH1 0x1 PUSH1 0x1 PUSH1 0xA0 SHL SUB DUP3 AND PUSH2 0x6C8 JUMPI PUSH1 0x40 MLOAD PUSH3 0x461BCD PUSH1 0xE5 SHL DUP2 MSTORE PUSH1 0x20 PUSH1 0x4 DUP3 ADD MSTORE PUSH1 0x16 PUSH1 0x24 DUP3 ADD MSTORE PUSH22 0x496E76616C69642077616C6C65742061646472657373 PUSH1 0x50 SHL PUSH1 0x44 DUP3 ADD MSTORE PUSH1 0x64 ADD PUSH2 0x460 JUMP JUMPDEST PUSH1 0x0 DUP2 GT PUSH2 0x718 JUMPI PUSH1 0x40 MLOAD PUSH3 0x461BCD PUSH1 0xE5 SHL DUP2 MSTORE PUSH1 0x20 PUSH1 0x4 DUP3 ADD MSTORE PUSH1 0x1A PUSH1 0x24 DUP3 ADD MSTORE PUSH32 0x466565206D7573742062652067726561746572207468616E2030000000000000 PUSH1 0x44 DUP3 ADD MSTORE PUSH1 0x64 ADD PUSH2 0x460 JUMP JUMPDEST PUSH1 0x1 PUSH1 0x1 PUSH1 0xA0 SHL SUB DUP3 AND PUSH1 0x0 SWAP1 DUP2 MSTORE PUSH1 0x3 PUSH1 0x20 MSTORE PUSH1 0x40 DUP2 KECCAK256 SLOAD SWAP1 DUP2 SWAP1 SUB PUSH2 0x60B JUMPI POP PUSH1 0x40 DUP1 MLOAD DUP1 DUP3 ADD DUP3 MSTORE PUSH1 0x1 PUSH1 0x1 PUSH1 0xA0 SHL SUB SWAP4 DUP5 AND DUP1 DUP3 MSTORE PUSH1 0x20 DUP1 DUP4 ADD SWAP5 DUP6 MSTORE PUSH1 0x2 DUP1 SLOAD PUSH1 0x1 DUP2 ADD DUP3 SSTORE PUSH1 0x0 DUP3 DUP2 MSTORE SWAP5 MLOAD PUSH32 0x405787FA12A823E0F2B7631CC41B3BA8828B3321CA811111FA75CD3AA3BB5ACE SWAP2 DUP4 MUL SWAP2 DUP3 ADD DUP1 SLOAD PUSH1 0x1 PUSH1 0x1 PUSH1 0xA0 SHL SUB NOT AND SWAP2 SWAP1 SWAP10 AND OR SWAP1 SWAP8 SSTORE SWAP5 MLOAD PUSH32 0x405787FA12A823E0F2B7631CC41B3BA8828B3321CA811111FA75CD3AA3BB5ACF SWAP1 SWAP7 ADD SWAP6 SWAP1 SWAP6 SSTORE SWAP3 SLOAD SWAP3 DUP2 MSTORE PUSH1 0x3 SWAP1 SWAP4 MSTORE SWAP1 SWAP2 KECCAK256 SSTORE JUMP JUMPDEST POP POP POP JUMP JUMPDEST PUSH2 0x7FE PUSH1 0x0 DUP1 MLOAD PUSH1 0x20 PUSH2 0x149D DUP4 CODECOPY DUP2 MLOAD SWAP2 MSTORE PUSH2 0x386 PUSH2 0xFB9 JUMP JUMPDEST PUSH2 0x81A JUMPI PUSH1 0x40 MLOAD PUSH3 0x461BCD PUSH1 0xE5 SHL DUP2 MSTORE PUSH1 0x4 ADD PUSH2 0x460 SWAP1 PUSH2 0x13EA JUMP JUMPDEST PUSH2 0x844 PUSH32 0x241ECF16D79D0F8DBFB92CBC07FE17840425976CF0667F022FE9877CAA831B08 DUP3 PUSH2 0xFC8 JUMP JUMPDEST POP POP JUMP JUMPDEST PUSH1 0x0 DUP3 DUP2 MSTORE PUSH1 0x20 DUP2 SWAP1 MSTORE PUSH1 0x40 SWAP1 KECCAK256 PUSH1 0x1 ADD SLOAD PUSH2 0x863 DUP2 PUSH2 0x105B JUMP JUMPDEST PUSH2 0x86D DUP4 DUP4 PUSH2 0xFC8 JUMP JUMPDEST POP POP POP POP JUMP JUMPDEST PUSH2 0x87B PUSH2 0xFB9 JUMP JUMPDEST PUSH1 0x1 PUSH1 0x1 PUSH1 0xA0 SHL SUB AND DUP2 PUSH1 0x1 PUSH1 0x1 PUSH1 0xA0 SHL SUB AND EQ PUSH2 0x8AC JUMPI PUSH1 0x40 MLOAD PUSH4 0x334BD919 PUSH1 0xE1 SHL DUP2 MSTORE PUSH1 0x4 ADD PUSH1 0x40 MLOAD DUP1 SWAP2 SUB SWAP1 REVERT JUMPDEST PUSH2 0x7DF DUP3 DUP3 PUSH2 0x106F JUMP JUMPDEST PUSH1 0x40 DUP1 MLOAD DUP1 DUP3 ADD SWAP1 SWAP2 MSTORE PUSH1 0x0 DUP1 DUP3 MSTORE PUSH1 0x20 DUP3 ADD MSTORE PUSH1 0x1 PUSH1 0x1 PUSH1 0xA0 SHL SUB DUP3 AND PUSH1 0x0 SWAP1 DUP2 MSTORE PUSH1 0x3 PUSH1 0x20 MSTORE PUSH1 0x40 SWAP1 KECCAK256 SLOAD DUP1 PUSH2 0x900 JUMPI PUSH1 0x40 MLOAD PUSH3 0x461BCD PUSH1 0xE5 SHL DUP2 MSTORE PUSH1 0x4 ADD PUSH2 0x460 SWAP1 PUSH2 0x141F JUMP JUMPDEST PUSH1 0x2 PUSH2 0x90D PUSH1 0x1 DUP4 PUSH2 0x144A JUMP JUMPDEST DUP2 SLOAD DUP2 LT PUSH2 0x91D JUMPI PUSH2 0x91D PUSH2 0x145D JUMP JUMPDEST PUSH1 0x0 SWAP2 DUP3 MSTORE PUSH1 0x20 SWAP2 DUP3 SWAP1 KECCAK256 PUSH1 0x40 DUP1 MLOAD DUP1 DUP3 ADD SWAP1 SWAP2 MSTORE PUSH1 0x2 SWAP1 SWAP3 MUL ADD DUP1 SLOAD PUSH1 0x1 PUSH1 0x1 PUSH1 0xA0 SHL SUB AND DUP3 MSTORE PUSH1 0x1 ADD SLOAD SWAP2 DUP2 ADD SWAP2 SWAP1 SWAP2 MSTORE SWAP4 SWAP3 POP POP POP JUMP JUMPDEST PUSH1 0x0 DUP1 DUP3 GT PUSH2 0x978 JUMPI PUSH1 0x40 MLOAD PUSH3 0x461BCD PUSH1 0xE5 SHL DUP2 MSTORE PUSH1 0x4 ADD PUSH2 0x460 SWAP1 PUSH2 0x134E JUMP JUMPDEST PUSH1 0x40 DUP1 MLOAD DUP1 DUP3 ADD SWAP1 SWAP2 MSTORE PUSH1 0x0 DUP1 DUP3 MSTORE PUSH1 0x20 DUP3 ADD MSTORE PUSH1 0x1 PUSH1 0x1 PUSH1 0xA0 SHL SUB DUP5 AND PUSH1 0x0 SWAP1 DUP2 MSTORE PUSH1 0x3 PUSH1 0x20 MSTORE PUSH1 0x40 SWAP1 KECCAK256 SLOAD DUP1 ISZERO PUSH2 0xA02 JUMPI PUSH1 0x2 PUSH2 0x9B8 PUSH1 0x1 DUP4 PUSH2 0x144A JUMP JUMPDEST DUP2 SLOAD DUP2 LT PUSH2 0x9C8 JUMPI PUSH2 0x9C8 PUSH2 0x145D JUMP JUMPDEST PUSH1 0x0 SWAP2 DUP3 MSTORE PUSH1 0x20 SWAP2 DUP3 SWAP1 KECCAK256 PUSH1 0x40 DUP1 MLOAD DUP1 DUP3 ADD SWAP1 SWAP2 MSTORE PUSH1 0x2 SWAP1 SWAP3 MUL ADD DUP1 SLOAD PUSH1 0x1 PUSH1 0x1 PUSH1 0xA0 SHL SUB AND DUP3 MSTORE PUSH1 0x1 ADD SLOAD SWAP2 DUP2 ADD SWAP2 SWAP1 SWAP2 MSTORE SWAP2 POP PUSH2 0xA1A JUMP JUMPDEST PUSH1 0x4 SLOAD PUSH2 0xA17 SWAP1 PUSH1 0x1 PUSH1 0x1 PUSH1 0xA0 SHL SUB AND PUSH2 0x8B6 JUMP JUMPDEST SWAP2 POP JUMPDEST PUSH1 0x0 PUSH4 0x5F5E100 DUP4 PUSH1 0x20 ADD MLOAD DUP7 PUSH2 0xA31 SWAP2 SWAP1 PUSH2 0x13B1 JUMP JUMPDEST PUSH2 0xA3B SWAP2 SWAP1 PUSH2 0x13C8 JUMP JUMPDEST SWAP7 SWAP6 POP POP POP POP POP POP JUMP JUMPDEST PUSH1 0x2 DUP2 DUP2 SLOAD DUP2 LT PUSH2 0xA55 JUMPI PUSH1 0x0 DUP1 REVERT JUMPDEST PUSH1 0x0 SWAP2 DUP3 MSTORE PUSH1 0x20 SWAP1 SWAP2 KECCAK256 PUSH1 0x2 SWAP1 SWAP2 MUL ADD DUP1 SLOAD PUSH1 0x1 SWAP1 SWAP2 ADD SLOAD PUSH1 0x1 PUSH1 0x1 PUSH1 0xA0 SHL SUB SWAP1 SWAP2 AND SWAP2 POP DUP3 JUMP JUMPDEST PUSH2 0xA97 PUSH1 0x0 DUP1 MLOAD PUSH1 0x20 PUSH2 0x149D DUP4 CODECOPY DUP2 MLOAD SWAP2 MSTORE PUSH2 0x386 PUSH2 0xFB9 JUMP JUMPDEST PUSH2 0xAB3 JUMPI PUSH1 0x40 MLOAD PUSH3 0x461BCD PUSH1 0xE5 SHL DUP2 MSTORE PUSH1 0x4 ADD PUSH2 0x460 SWAP1 PUSH2 0x13EA JUMP JUMPDEST PUSH1 0x1 PUSH1 0x1 PUSH1 0xA0 SHL SUB DUP2 AND PUSH2 0xB09 JUMPI PUSH1 0x40 MLOAD PUSH3 0x461BCD PUSH1 0xE5 SHL DUP2 MSTORE PUSH1 0x20 PUSH1 0x4 DUP3 ADD MSTORE PUSH1 0x18 PUSH1 0x24 DUP3 ADD MSTORE PUSH32 0x496E76616C6964206E65774F776E657220616464726573730000000000000000 PUSH1 0x44 DUP3 ADD MSTORE PUSH1 0x64 ADD PUSH2 0x460 JUMP JUMPDEST PUSH1 0x4 DUP1 SLOAD PUSH1 0x1 PUSH1 0x1 PUSH1 0xA0 SHL SUB NOT AND PUSH1 0x1 PUSH1 0x1 PUSH1 0xA0 SHL SUB SWAP3 SWAP1 SWAP3 AND SWAP2 SWAP1 SWAP2 OR SWAP1 SSTORE JUMP JUMPDEST PUSH1 0x40 DUP1 MLOAD DUP1 DUP3 ADD SWAP1 SWAP2 MSTORE PUSH1 0x0 DUP1 DUP3 MSTORE PUSH1 0x20 DUP3 ADD MSTORE PUSH1 0x2 SLOAD DUP3 LT PUSH2 0xB86 JUMPI PUSH1 0x40 MLOAD PUSH3 0x461BCD PUSH1 0xE5 SHL DUP2 MSTORE PUSH1 0x20 PUSH1 0x4 DUP3 ADD MSTORE PUSH1 0x13 PUSH1 0x24 DUP3 ADD MSTORE PUSH19 0x496E646578206F7574206F6620626F756E6473 PUSH1 0x68 SHL PUSH1 0x44 DUP3 ADD MSTORE PUSH1 0x64 ADD PUSH2 0x460 JUMP JUMPDEST PUSH1 0x2 DUP3 DUP2 SLOAD DUP2 LT PUSH2 0xB99 JUMPI PUSH2 0xB99 PUSH2 0x145D JUMP JUMPDEST PUSH1 0x0 SWAP2 DUP3 MSTORE PUSH1 0x20 SWAP2 DUP3 SWAP1 KECCAK256 PUSH1 0x40 DUP1 MLOAD DUP1 DUP3 ADD SWAP1 SWAP2 MSTORE PUSH1 0x2 SWAP1 SWAP3 MUL ADD DUP1 SLOAD PUSH1 0x1 PUSH1 0x1 PUSH1 0xA0 SHL SUB AND DUP3 MSTORE PUSH1 0x1 ADD SLOAD SWAP2 DUP2 ADD SWAP2 SWAP1 SWAP2 MSTORE SWAP3 SWAP2 POP POP JUMP JUMPDEST PUSH1 0x0 SWAP2 DUP3 MSTORE PUSH1 0x20 DUP3 DUP2 MSTORE PUSH1 0x40 DUP1 DUP5 KECCAK256 PUSH1 0x1 PUSH1 0x1 PUSH1 0xA0 SHL SUB SWAP4 SWAP1 SWAP4 AND DUP5 MSTORE SWAP2 SWAP1 MSTORE SWAP1 KECCAK256 SLOAD PUSH1 0xFF AND SWAP1 JUMP JUMPDEST PUSH1 0x0 DUP1 DUP4 GT PUSH2 0xC1C JUMPI PUSH1 0x40 MLOAD PUSH3 0x461BCD PUSH1 0xE5 SHL DUP2 MSTORE PUSH1 0x4 ADD PUSH2 0x460 SWAP1 PUSH2 0x134E JUMP JUMPDEST PUSH1 0x40 DUP1 MLOAD DUP1 DUP3 ADD SWAP1 SWAP2 MSTORE PUSH1 0x0 DUP1 DUP3 MSTORE PUSH1 0x20 DUP3 ADD MSTORE PUSH1 0x1 PUSH1 0x1 PUSH1 0xA0 SHL SUB DUP6 AND PUSH1 0x0 SWAP1 DUP2 MSTORE PUSH1 0x3 PUSH1 0x20 MSTORE PUSH1 0x40 SWAP1 KECCAK256 SLOAD DUP1 ISZERO PUSH2 0xCA6 JUMPI PUSH1 0x2 PUSH2 0xC5C PUSH1 0x1 DUP4 PUSH2 0x144A JUMP JUMPDEST DUP2 SLOAD DUP2 LT PUSH2 0xC6C JUMPI PUSH2 0xC6C PUSH2 0x145D JUMP JUMPDEST PUSH1 0x0 SWAP2 DUP3 MSTORE PUSH1 0x20 SWAP2 DUP3 SWAP1 KECCAK256 PUSH1 0x40 DUP1 MLOAD DUP1 DUP3 ADD SWAP1 SWAP2 MSTORE PUSH1 0x2 SWAP1 SWAP3 MUL ADD DUP1 SLOAD PUSH1 0x1 PUSH1 0x1 PUSH1 0xA0 SHL SUB AND DUP3 MSTORE PUSH1 0x1 ADD SLOAD SWAP2 DUP2 ADD SWAP2 SWAP1 SWAP2 MSTORE SWAP2 POP PUSH2 0xCBE JUMP JUMPDEST PUSH1 0x4 SLOAD PUSH2 0xCBB SWAP1 PUSH1 0x1 PUSH1 0x1 PUSH1 0xA0 SHL SUB AND PUSH2 0x8B6 JUMP JUMPDEST SWAP2 POP JUMPDEST PUSH4 0x5F5E100 PUSH1 0x1 PUSH1 0x0 DUP7 PUSH1 0x5 DUP2 GT ISZERO PUSH2 0xCD9 JUMPI PUSH2 0xCD9 PUSH2 0x1385 JUMP JUMPDEST PUSH1 0x5 DUP2 GT ISZERO PUSH2 0xCEA JUMPI PUSH2 0xCEA PUSH2 0x1385 JUMP JUMPDEST DUP2 MSTORE PUSH1 0x20 ADD SWAP1 DUP2 MSTORE PUSH1 0x20 ADD PUSH1 0x0 KECCAK256 SLOAD DUP7 PUSH2 0xD04 SWAP2 SWAP1 PUSH2 0x13B1 JUMP JUMPDEST PUSH1 0x20 DUP5 ADD MLOAD PUSH2 0xD13 SWAP1 DUP9 PUSH2 0x13B1 JUMP JUMPDEST PUSH2 0xD1D SWAP2 SWAP1 PUSH2 0x1473 JUMP JUMPDEST PUSH2 0xD27 SWAP2 SWAP1 PUSH2 0x13C8 JUMP JUMPDEST PUSH2 0xA3B SWAP1 DUP7 PUSH2 0x144A JUMP JUMPDEST PUSH1 0x60 PUSH1 0x2 DUP1 SLOAD DUP1 PUSH1 0x20 MUL PUSH1 0x20 ADD PUSH1 0x40 MLOAD SWAP1 DUP2 ADD PUSH1 0x40 MSTORE DUP1 SWAP3 SWAP2 SWAP1 DUP2 DUP2 MSTORE PUSH1 0x20 ADD PUSH1 0x0 SWAP1 JUMPDEST DUP3 DUP3 LT ISZERO PUSH2 0xD9D JUMPI PUSH1 0x0 DUP5 DUP2 MSTORE PUSH1 0x20 SWAP1 DUP2 SWAP1 KECCAK256 PUSH1 0x40 DUP1 MLOAD DUP1 DUP3 ADD SWAP1 SWAP2 MSTORE PUSH1 0x2 DUP6 MUL SWAP1 SWAP2 ADD DUP1 SLOAD PUSH1 0x1 PUSH1 0x1 PUSH1 0xA0 SHL SUB AND DUP3 MSTORE PUSH1 0x1 SWAP1 DUP2 ADD SLOAD DUP3 DUP5 ADD MSTORE SWAP1 DUP4 MSTORE SWAP1 SWAP3 ADD SWAP2 ADD PUSH2 0xD55 JUMP JUMPDEST POP POP POP POP SWAP1 POP SWAP1 JUMP JUMPDEST PUSH1 0x0 DUP3 DUP2 MSTORE PUSH1 0x20 DUP2 SWAP1 MSTORE PUSH1 0x40 SWAP1 KECCAK256 PUSH1 0x1 ADD SLOAD PUSH2 0xDC1 DUP2 PUSH2 0x105B JUMP JUMPDEST PUSH2 0x86D DUP4 DUP4 PUSH2 0x106F JUMP JUMPDEST PUSH2 0xDE5 PUSH1 0x0 DUP1 MLOAD PUSH1 0x20 PUSH2 0x149D DUP4 CODECOPY DUP2 MLOAD SWAP2 MSTORE PUSH2 0x386 PUSH2 0xFB9 JUMP JUMPDEST PUSH2 0xE01 JUMPI PUSH1 0x40 MLOAD PUSH3 0x461BCD PUSH1 0xE5 SHL DUP2 MSTORE PUSH1 0x4 ADD PUSH2 0x460 SWAP1 PUSH2 0x13EA JUMP JUMPDEST PUSH1 0x1 PUSH1 0x1 PUSH1 0xA0 SHL SUB DUP2 AND PUSH1 0x0 SWAP1 DUP2 MSTORE PUSH1 0x3 PUSH1 0x20 MSTORE PUSH1 0x40 SWAP1 KECCAK256 SLOAD DUP1 PUSH2 0xE37 JUMPI PUSH1 0x40 MLOAD PUSH3 0x461BCD PUSH1 0xE5 SHL DUP2 MSTORE PUSH1 0x4 ADD PUSH2 0x460 SWAP1 PUSH2 0x141F JUMP JUMPDEST PUSH1 0x2 SLOAD DUP2 SUB PUSH2 0xE7F JUMPI PUSH1 0x2 DUP1 SLOAD DUP1 PUSH2 0xE51 JUMPI PUSH2 0xE51 PUSH2 0x1486 JUMP JUMPDEST PUSH1 0x0 DUP3 DUP2 MSTORE PUSH1 0x20 DUP2 KECCAK256 PUSH1 0x2 PUSH1 0x0 NOT SWAP1 SWAP4 ADD SWAP3 DUP4 MUL ADD DUP1 SLOAD PUSH1 0x1 PUSH1 0x1 PUSH1 0xA0 SHL SUB NOT AND DUP2 SSTORE PUSH1 0x1 ADD SSTORE SWAP1 SSTORE PUSH2 0xF42 JUMP JUMPDEST PUSH1 0x2 DUP1 SLOAD PUSH2 0xE8F SWAP1 PUSH1 0x1 SWAP1 PUSH2 0x144A JUMP JUMPDEST DUP2 SLOAD DUP2 LT PUSH2 0xE9F JUMPI PUSH2 0xE9F PUSH2 0x145D JUMP JUMPDEST SWAP1 PUSH1 0x0 MSTORE PUSH1 0x20 PUSH1 0x0 KECCAK256 SWAP1 PUSH1 0x2 MUL ADD PUSH1 0x2 PUSH1 0x1 DUP4 PUSH2 0xEBC SWAP2 SWAP1 PUSH2 0x144A JUMP JUMPDEST DUP2 SLOAD DUP2 LT PUSH2 0xECC JUMPI PUSH2 0xECC PUSH2 0x145D JUMP JUMPDEST PUSH1 0x0 SWAP2 DUP3 MSTORE PUSH1 0x20 SWAP1 SWAP2 KECCAK256 DUP3 SLOAD PUSH1 0x2 SWAP3 DUP4 MUL SWAP1 SWAP2 ADD DUP1 SLOAD PUSH1 0x1 PUSH1 0x1 PUSH1 0xA0 SHL SUB NOT AND PUSH1 0x1 PUSH1 0x1 PUSH1 0xA0 SHL SUB SWAP1 SWAP3 AND SWAP2 SWAP1 SWAP2 OR DUP2 SSTORE PUSH1 0x1 SWAP3 DUP4 ADD SLOAD SWAP3 ADD SWAP2 SWAP1 SWAP2 SSTORE DUP1 SLOAD DUP1 PUSH2 0xF18 JUMPI PUSH2 0xF18 PUSH2 0x1486 JUMP JUMPDEST PUSH1 0x0 DUP3 DUP2 MSTORE PUSH1 0x20 DUP2 KECCAK256 PUSH1 0x2 PUSH1 0x0 NOT SWAP1 SWAP4 ADD SWAP3 DUP4 MUL ADD DUP1 SLOAD PUSH1 0x1 PUSH1 0x1 PUSH1 0xA0 SHL SUB NOT AND DUP2 SSTORE PUSH1 0x1 ADD SSTORE SWAP1 SSTORE JUMPDEST PUSH1 0x2 SLOAD ISZERO PUSH2 0xF9E JUMPI DUP1 PUSH1 0x3 PUSH1 0x0 PUSH1 0x2 PUSH1 0x1 PUSH1 0x2 DUP1 SLOAD SWAP1 POP PUSH2 0xF63 SWAP2 SWAP1 PUSH2 0x144A JUMP JUMPDEST DUP2 SLOAD DUP2 LT PUSH2 0xF73 JUMPI PUSH2 0xF73 PUSH2 0x145D JUMP JUMPDEST PUSH1 0x0 SWAP2 DUP3 MSTORE PUSH1 0x20 DUP1 DUP4 KECCAK256 PUSH1 0x2 SWAP1 SWAP3 MUL SWAP1 SWAP2 ADD SLOAD PUSH1 0x1 PUSH1 0x1 PUSH1 0xA0 SHL SUB AND DUP4 MSTORE DUP3 ADD SWAP3 SWAP1 SWAP3 MSTORE PUSH1 0x40 ADD SWAP1 KECCAK256 SSTORE JUMPDEST POP PUSH1 0x1 PUSH1 0x1 PUSH1 0xA0 SHL SUB AND PUSH1 0x0 SWAP1 DUP2 MSTORE PUSH1 0x3 PUSH1 0x20 MSTORE PUSH1 0x40 DUP2 KECCAK256 SSTORE JUMP JUMPDEST PUSH1 0x0 PUSH2 0xFC3 PUSH2 0x10F8 JUMP JUMPDEST SWAP1 POP SWAP1 JUMP JUMPDEST PUSH1 0x0 PUSH2 0xFD4 DUP4 DUP4 PUSH2 0xBD2 JUMP JUMPDEST PUSH2 0x1053 JUMPI PUSH1 0x0 DUP4 DUP2 MSTORE PUSH1 0x20 DUP2 DUP2 MSTORE PUSH1 0x40 DUP1 DUP4 KECCAK256 PUSH1 0x1 PUSH1 0x1 PUSH1 0xA0 SHL SUB DUP7 AND DUP5 MSTORE SWAP1 SWAP2 MSTORE SWAP1 KECCAK256 DUP1 SLOAD PUSH1 0xFF NOT AND PUSH1 0x1 OR SWAP1 SSTORE PUSH2 0x100B PUSH2 0xFB9 JUMP JUMPDEST PUSH1 0x1 PUSH1 0x1 PUSH1 0xA0 SHL SUB AND DUP3 PUSH1 0x1 PUSH1 0x1 PUSH1 0xA0 SHL SUB AND DUP5 PUSH32 0x2F8788117E7EFF1D82E926EC794901D17C78024A50270940304540A733656F0D PUSH1 0x40 MLOAD PUSH1 0x40 MLOAD DUP1 SWAP2 SUB SWAP1 LOG4 POP PUSH1 0x1 PUSH2 0x439 JUMP JUMPDEST POP PUSH1 0x0 PUSH2 0x439 JUMP JUMPDEST PUSH2 0x106C DUP2 PUSH2 0x1067 PUSH2 0xFB9 JUMP JUMPDEST PUSH2 0x113C JUMP JUMPDEST POP JUMP JUMPDEST PUSH1 0x0 PUSH2 0x107B DUP4 DUP4 PUSH2 0xBD2 JUMP JUMPDEST ISZERO PUSH2 0x1053 JUMPI PUSH1 0x0 DUP4 DUP2 MSTORE PUSH1 0x20 DUP2 DUP2 MSTORE PUSH1 0x40 DUP1 DUP4 KECCAK256 PUSH1 0x1 PUSH1 0x1 PUSH1 0xA0 SHL SUB DUP7 AND DUP5 MSTORE SWAP1 SWAP2 MSTORE SWAP1 KECCAK256 DUP1 SLOAD PUSH1 0xFF NOT AND SWAP1 SSTORE PUSH2 0x10B0 PUSH2 0xFB9 JUMP JUMPDEST PUSH1 0x1 PUSH1 0x1 PUSH1 0xA0 SHL SUB AND DUP3 PUSH1 0x1 PUSH1 0x1 PUSH1 0xA0 SHL SUB AND DUP5 PUSH32 0xF6391F5C32D9C69D2A47EA670B442974B53935D1EDC7FD64EB21E047A839171B PUSH1 0x40 MLOAD PUSH1 0x40 MLOAD DUP1 SWAP2 SUB SWAP1 LOG4 POP PUSH1 0x1 PUSH2 0x439 JUMP JUMPDEST PUSH1 0x0 PUSH32 0x0 PUSH1 0x1 PUSH1 0x1 PUSH1 0xA0 SHL SUB AND CALLER SUB PUSH2 0x1137 JUMPI POP PUSH1 0x13 NOT CALLDATASIZE ADD CALLDATALOAD PUSH1 0x60 SHR SWAP1 JUMP JUMPDEST POP CALLER SWAP1 JUMP JUMPDEST PUSH2 0x1146 DUP3 DUP3 PUSH2 0xBD2 JUMP JUMPDEST PUSH2 0x844 JUMPI PUSH1 0x40 MLOAD PUSH4 0xE2517D3F PUSH1 0xE0 SHL DUP2 MSTORE PUSH1 0x1 PUSH1 0x1 PUSH1 0xA0 SHL SUB DUP3 AND PUSH1 0x4 DUP3 ADD MSTORE PUSH1 0x24 DUP2 ADD DUP4 SWAP1 MSTORE PUSH1 0x44 ADD PUSH2 0x460 JUMP JUMPDEST PUSH1 0x0 PUSH1 0x20 DUP3 DUP5 SUB SLT ISZERO PUSH2 0x1187 JUMPI PUSH1 0x0 DUP1 REVERT JUMPDEST DUP2 CALLDATALOAD PUSH1 0x1 PUSH1 0x1 PUSH1 0xE0 SHL SUB NOT DUP2 AND DUP2 EQ PUSH2 0x119F JUMPI PUSH1 0x0 DUP1 REVERT JUMPDEST SWAP4 SWAP3 POP POP POP JUMP JUMPDEST DUP1 CALLDATALOAD PUSH1 0x6 DUP2 LT PUSH2 0x11B5 JUMPI PUSH1 0x0 DUP1 REVERT JUMPDEST SWAP2 SWAP1 POP JUMP JUMPDEST PUSH1 0x0 DUP1 PUSH1 0x40 DUP4 DUP6 SUB SLT ISZERO PUSH2 0x11CD JUMPI PUSH1 0x0 DUP1 REVERT JUMPDEST PUSH2 0x11D6 DUP4 PUSH2 0x11A6 JUMP JUMPDEST SWAP5 PUSH1 0x20 SWAP4 SWAP1 SWAP4 ADD CALLDATALOAD SWAP4 POP POP POP JUMP JUMPDEST DUP1 CALLDATALOAD PUSH1 0x1 PUSH1 0x1 PUSH1 0xA0 SHL SUB DUP2 AND DUP2 EQ PUSH2 0x11B5 JUMPI PUSH1 0x0 DUP1 REVERT JUMPDEST PUSH1 0x0 DUP1 PUSH1 0x40 DUP4 DUP6 SUB SLT ISZERO PUSH2 0x120E JUMPI PUSH1 0x0 DUP1 REVERT JUMPDEST PUSH2 0x11D6 DUP4 PUSH2 0x11E4 JUMP JUMPDEST PUSH1 0x0 PUSH1 0x20 DUP3 DUP5 SUB SLT ISZERO PUSH2 0x1229 JUMPI PUSH1 0x0 DUP1 REVERT JUMPDEST POP CALLDATALOAD SWAP2 SWAP1 POP JUMP JUMPDEST PUSH1 0x0 PUSH1 0x20 DUP3 DUP5 SUB SLT ISZERO PUSH2 0x1242 JUMPI PUSH1 0x0 DUP1 REVERT JUMPDEST PUSH2 0x119F DUP3 PUSH2 0x11E4 JUMP JUMPDEST PUSH1 0x0 DUP1 PUSH1 0x40 DUP4 DUP6 SUB SLT ISZERO PUSH2 0x125E JUMPI PUSH1 0x0 DUP1 REVERT JUMPDEST DUP3 CALLDATALOAD SWAP2 POP PUSH2 0x126E PUSH1 0x20 DUP5 ADD PUSH2 0x11E4 JUMP JUMPDEST SWAP1 POP SWAP3 POP SWAP3 SWAP1 POP JUMP JUMPDEST PUSH1 0x0 PUSH1 0x20 DUP3 DUP5 SUB SLT ISZERO PUSH2 0x1289 JUMPI PUSH1 0x0 DUP1 REVERT JUMPDEST PUSH2 0x119F DUP3 PUSH2 0x11A6 JUMP JUMPDEST DUP2 MLOAD PUSH1 0x1 PUSH1 0x1 PUSH1 0xA0 SHL SUB AND DUP2 MSTORE PUSH1 0x20 DUP1 DUP4 ADD MLOAD SWAP1 DUP3 ADD MSTORE PUSH1 0x40 DUP2 ADD PUSH2 0x439 JUMP JUMPDEST PUSH1 0x0 DUP1 PUSH1 0x0 PUSH1 0x60 DUP5 DUP7 SUB SLT ISZERO PUSH2 0x12C7 JUMPI PUSH1 0x0 DUP1 REVERT JUMPDEST PUSH2 0x12D0 DUP5 PUSH2 0x11E4 JUMP JUMPDEST SWAP3 POP PUSH1 0x20 DUP5 ADD CALLDATALOAD SWAP2 POP PUSH2 0x12E5 PUSH1 0x40 DUP6 ADD PUSH2 0x11A6 JUMP JUMPDEST SWAP1 POP SWAP3 POP SWAP3 POP SWAP3 JUMP JUMPDEST PUSH1 0x20 DUP1 DUP3 MSTORE DUP3 MLOAD DUP3 DUP3 ADD DUP2 SWAP1 MSTORE PUSH1 0x0 SWAP2 SWAP1 PUSH1 0x40 SWAP1 DUP2 DUP6 ADD SWAP1 DUP7 DUP5 ADD DUP6 JUMPDEST DUP3 DUP2 LT ISZERO PUSH2 0x1341 JUMPI PUSH2 0x1331 DUP5 DUP4 MLOAD DUP1 MLOAD PUSH1 0x1 PUSH1 0x1 PUSH1 0xA0 SHL SUB AND DUP3 MSTORE PUSH1 0x20 SWAP1 DUP2 ADD MLOAD SWAP2 ADD MSTORE JUMP JUMPDEST SWAP3 DUP5 ADD SWAP3 SWAP1 DUP6 ADD SWAP1 PUSH1 0x1 ADD PUSH2 0x130B JUMP JUMPDEST POP SWAP2 SWAP8 SWAP7 POP POP POP POP POP POP POP JUMP JUMPDEST PUSH1 0x20 DUP1 DUP3 MSTORE PUSH1 0x1D SWAP1 DUP3 ADD MSTORE PUSH32 0x416D6F756E74206D7573742062652067726561746572207468616E2030000000 PUSH1 0x40 DUP3 ADD MSTORE PUSH1 0x60 ADD SWAP1 JUMP JUMPDEST PUSH4 0x4E487B71 PUSH1 0xE0 SHL PUSH1 0x0 MSTORE PUSH1 0x21 PUSH1 0x4 MSTORE PUSH1 0x24 PUSH1 0x0 REVERT JUMPDEST PUSH4 0x4E487B71 PUSH1 0xE0 SHL PUSH1 0x0 MSTORE PUSH1 0x11 PUSH1 0x4 MSTORE PUSH1 0x24 PUSH1 0x0 REVERT JUMPDEST DUP1 DUP3 MUL DUP2 ISZERO DUP3 DUP3 DIV DUP5 EQ OR PUSH2 0x439 JUMPI PUSH2 0x439 PUSH2 0x139B JUMP JUMPDEST PUSH1 0x0 DUP3 PUSH2 0x13E5 JUMPI PUSH4 0x4E487B71 PUSH1 0xE0 SHL PUSH1 0x0 MSTORE PUSH1 0x12 PUSH1 0x4 MSTORE PUSH1 0x24 PUSH1 0x0 REVERT JUMPDEST POP DIV SWAP1 JUMP JUMPDEST PUSH1 0x20 DUP1 DUP3 MSTORE DUP2 DUP2 ADD MSTORE PUSH32 0x4665654D616E616765723A206D7573742068617665206F776E657220726F6C65 PUSH1 0x40 DUP3 ADD MSTORE PUSH1 0x60 ADD SWAP1 JUMP JUMPDEST PUSH1 0x20 DUP1 DUP3 MSTORE PUSH1 0x11 SWAP1 DUP3 ADD MSTORE PUSH17 0x14185C9D1B995C881B9BDD08199BDD5B99 PUSH1 0x7A SHL PUSH1 0x40 DUP3 ADD MSTORE PUSH1 0x60 ADD SWAP1 JUMP JUMPDEST DUP2 DUP2 SUB DUP2 DUP2 GT ISZERO PUSH2 0x439 JUMPI PUSH2 0x439 PUSH2 0x139B JUMP JUMPDEST PUSH4 0x4E487B71 PUSH1 0xE0 SHL PUSH1 0x0 MSTORE PUSH1 0x32 PUSH1 0x4 MSTORE PUSH1 0x24 PUSH1 0x0 REVERT JUMPDEST DUP1 DUP3 ADD DUP1 DUP3 GT ISZERO PUSH2 0x439 JUMPI PUSH2 0x439 PUSH2 0x139B JUMP JUMPDEST PUSH4 0x4E487B71 PUSH1 0xE0 SHL PUSH1 0x0 MSTORE PUSH1 0x31 PUSH1 0x4 MSTORE PUSH1 0x24 PUSH1 0x0 REVERT INVALID LOG4 SWAP9 SMOD KECCAK256 0x5C 0xE4 0xD3 SSTORE MULMOD 0x2E CREATE2 0xA8 LOG1 DUP16 JUMP 0xE8 SWAP2 EXTCODECOPY DELEGATECALL LOG2 ADD 0xFB 0xE2 DUP8 DUP3 JUMPDEST MULMOD JUMP SWAP4 0xC2 OR PUSH22 0xA2646970667358221220D7F0118AE80C05E28B0383D8 0x26 0xC3 0x28 0xC2 MSIZE GASPRICE 0x1E XOR PUSH31 0x37500DE01982ECF3424CB564736F6C63430008140033A49807205CE4D35509 0x2E CREATE2 0xA8 LOG1 DUP16 JUMP 0xE8 SWAP2 EXTCODECOPY DELEGATECALL LOG2 ADD 0xFB 0xE2 DUP8 DUP3 JUMPDEST MULMOD JUMP SWAP4 0xC2 OR PUSH22 0x4665654D616E616765723A206D757374206861766520 PUSH16 0x776E657220726F6C6500000000000000 "},"methodIdentifiers":{"ADMIN_ROLE()":"75b238fc","DEFAULT_ADMIN_ROLE()":"a217fddf","MANAGER_ROLE()":"ec87621c","addOwner(address)":"7065cb48","addPartner(address,uint256)":"22e7d115","calculateFeeAmount(uint8,uint256)":"0c040b47","calculatePartnerAmount(address,uint256)":"47203d5b","changeFee(uint8,uint256)":"13a7e54e","fees(uint8)":"357c1354","getAllPartners()":"d3e83a08","getPartner(uint256)":"7fc96619","getPartnerByWallet(address)":"3c057895","getRoleAdmin(bytes32)":"248a9ca3","grantManagerRole(address)":"26e885e3","grantRole(bytes32,address)":"2f2ff15d","hasRole(bytes32,address)":"91d14854","isTrustedForwarder(address)":"572b6c05","partnerIndexes(address)":"57210115","partnersFees(uint256)":"4ebc11f6","removePartner(address)":"ea3c281a","renounceRole(bytes32,address)":"36568abe","revokeRole(bytes32,address)":"d547741f","supportsInterface(bytes4)":"01ffc9a7","takeFee(address,uint256,uint8)":"9ef12085","updatePartnerFee(address,uint256)":"1de309bf"}}}}}