{
  "_format": "hh-sol-artifact-1",
  "contractName": "StableManager",
  "sourceName": "contracts/StableManager.sol",
  "abi": [
    {
      "inputs": [
        {
          "internalType": "address",
          "name": "trustedForwarder",
          "type": "address"
        }
      ],
      "stateMutability": "nonpayable",
      "type": "constructor"
    },
    {
      "inputs": [],
      "name": "AccessControlBadConfirmation",
      "type": "error"
    },
    {
      "inputs": [
        {
          "internalType": "address",
          "name": "account",
          "type": "address"
        },
        {
          "internalType": "bytes32",
          "name": "neededRole",
          "type": "bytes32"
        }
      ],
      "name": "AccessControlUnauthorizedAccount",
      "type": "error"
    },
    {
      "inputs": [],
      "name": "EnforcedPause",
      "type": "error"
    },
    {
      "inputs": [],
      "name": "ExpectedPause",
      "type": "error"
    },
    {
      "anonymous": false,
      "inputs": [
        {
          "indexed": false,
          "internalType": "address",
          "name": "account",
          "type": "address"
        }
      ],
      "name": "Paused",
      "type": "event"
    },
    {
      "anonymous": false,
      "inputs": [
        {
          "indexed": true,
          "internalType": "bytes32",
          "name": "role",
          "type": "bytes32"
        },
        {
          "indexed": true,
          "internalType": "bytes32",
          "name": "previousAdminRole",
          "type": "bytes32"
        },
        {
          "indexed": true,
          "internalType": "bytes32",
          "name": "newAdminRole",
          "type": "bytes32"
        }
      ],
      "name": "RoleAdminChanged",
      "type": "event"
    },
    {
      "anonymous": false,
      "inputs": [
        {
          "indexed": true,
          "internalType": "bytes32",
          "name": "role",
          "type": "bytes32"
        },
        {
          "indexed": true,
          "internalType": "address",
          "name": "account",
          "type": "address"
        },
        {
          "indexed": true,
          "internalType": "address",
          "name": "sender",
          "type": "address"
        }
      ],
      "name": "RoleGranted",
      "type": "event"
    },
    {
      "anonymous": false,
      "inputs": [
        {
          "indexed": true,
          "internalType": "bytes32",
          "name": "role",
          "type": "bytes32"
        },
        {
          "indexed": true,
          "internalType": "address",
          "name": "account",
          "type": "address"
        },
        {
          "indexed": true,
          "internalType": "address",
          "name": "sender",
          "type": "address"
        }
      ],
      "name": "RoleRevoked",
      "type": "event"
    },
    {
      "anonymous": false,
      "inputs": [
        {
          "indexed": false,
          "internalType": "address",
          "name": "account",
          "type": "address"
        }
      ],
      "name": "Unpaused",
      "type": "event"
    },
    {
      "inputs": [],
      "name": "ADMIN_ROLE",
      "outputs": [
        {
          "internalType": "bytes32",
          "name": "",
          "type": "bytes32"
        }
      ],
      "stateMutability": "view",
      "type": "function"
    },
    {
      "inputs": [],
      "name": "DEFAULT_ADMIN_ROLE",
      "outputs": [
        {
          "internalType": "bytes32",
          "name": "",
          "type": "bytes32"
        }
      ],
      "stateMutability": "view",
      "type": "function"
    },
    {
      "inputs": [],
      "name": "MANAGER_ROLE",
      "outputs": [
        {
          "internalType": "bytes32",
          "name": "",
          "type": "bytes32"
        }
      ],
      "stateMutability": "view",
      "type": "function"
    },
    {
      "inputs": [],
      "name": "USDToken",
      "outputs": [
        {
          "internalType": "contract IERC20",
          "name": "",
          "type": "address"
        }
      ],
      "stateMutability": "view",
      "type": "function"
    },
    {
      "inputs": [
        {
          "internalType": "contract ERC20Stable",
          "name": "tokenAddress",
          "type": "address"
        },
        {
          "internalType": "uint256",
          "name": "priceInit",
          "type": "uint256"
        },
        {
          "internalType": "uint256",
          "name": "tokenReserve",
          "type": "uint256"
        },
        {
          "internalType": "bool",
          "name": "tradable",
          "type": "bool"
        }
      ],
      "name": "addStable",
      "outputs": [
        {
          "components": [
            {
              "internalType": "contract ERC20Stable",
              "name": "tokenAddress",
              "type": "address"
            },
            {
              "internalType": "uint256",
              "name": "price",
              "type": "uint256"
            },
            {
              "internalType": "uint256",
              "name": "tokenReserve",
              "type": "uint256"
            },
            {
              "internalType": "bool",
              "name": "tradable",
              "type": "bool"
            }
          ],
          "internalType": "struct StableManager.Stable",
          "name": "",
          "type": "tuple"
        }
      ],
      "stateMutability": "nonpayable",
      "type": "function"
    },
    {
      "inputs": [
        {
          "internalType": "address",
          "name": "tokenAddress",
          "type": "address"
        },
        {
          "internalType": "uint256",
          "name": "amount",
          "type": "uint256"
        },
        {
          "internalType": "address",
          "name": "partner",
          "type": "address"
        }
      ],
      "name": "burnStable",
      "outputs": [
        {
          "internalType": "uint256",
          "name": "",
          "type": "uint256"
        }
      ],
      "stateMutability": "nonpayable",
      "type": "function"
    },
    {
      "inputs": [
        {
          "internalType": "address",
          "name": "_feeCollector",
          "type": "address"
        }
      ],
      "name": "changeFeeCollector",
      "outputs": [
        {
          "internalType": "bool",
          "name": "",
          "type": "bool"
        }
      ],
      "stateMutability": "nonpayable",
      "type": "function"
    },
    {
      "inputs": [
        {
          "internalType": "address",
          "name": "_feeManager",
          "type": "address"
        }
      ],
      "name": "changeFeeManager",
      "outputs": [
        {
          "internalType": "bool",
          "name": "",
          "type": "bool"
        }
      ],
      "stateMutability": "nonpayable",
      "type": "function"
    },
    {
      "inputs": [
        {
          "internalType": "address",
          "name": "usdToken",
          "type": "address"
        }
      ],
      "name": "changeUSD",
      "outputs": [
        {
          "internalType": "bool",
          "name": "",
          "type": "bool"
        }
      ],
      "stateMutability": "nonpayable",
      "type": "function"
    },
    {
      "inputs": [
        {
          "internalType": "address",
          "name": "recipient",
          "type": "address"
        }
      ],
      "name": "emergencyTransferReseve",
      "outputs": [
        {
          "internalType": "bool",
          "name": "",
          "type": "bool"
        }
      ],
      "stateMutability": "nonpayable",
      "type": "function"
    },
    {
      "inputs": [],
      "name": "feeCollector",
      "outputs": [
        {
          "internalType": "address",
          "name": "",
          "type": "address"
        }
      ],
      "stateMutability": "view",
      "type": "function"
    },
    {
      "inputs": [],
      "name": "feeManager",
      "outputs": [
        {
          "internalType": "contract FeeManager",
          "name": "",
          "type": "address"
        }
      ],
      "stateMutability": "view",
      "type": "function"
    },
    {
      "inputs": [
        {
          "internalType": "bytes32",
          "name": "role",
          "type": "bytes32"
        }
      ],
      "name": "getRoleAdmin",
      "outputs": [
        {
          "internalType": "bytes32",
          "name": "",
          "type": "bytes32"
        }
      ],
      "stateMutability": "view",
      "type": "function"
    },
    {
      "inputs": [
        {
          "internalType": "address",
          "name": "tokenAddress",
          "type": "address"
        }
      ],
      "name": "getStable",
      "outputs": [
        {
          "components": [
            {
              "internalType": "contract ERC20Stable",
              "name": "tokenAddress",
              "type": "address"
            },
            {
              "internalType": "uint256",
              "name": "price",
              "type": "uint256"
            },
            {
              "internalType": "uint256",
              "name": "tokenReserve",
              "type": "uint256"
            },
            {
              "internalType": "bool",
              "name": "tradable",
              "type": "bool"
            }
          ],
          "internalType": "struct StableManager.Stable",
          "name": "",
          "type": "tuple"
        }
      ],
      "stateMutability": "view",
      "type": "function"
    },
    {
      "inputs": [],
      "name": "getUSDReserve",
      "outputs": [
        {
          "internalType": "uint256",
          "name": "",
          "type": "uint256"
        }
      ],
      "stateMutability": "view",
      "type": "function"
    },
    {
      "inputs": [
        {
          "internalType": "bytes32",
          "name": "role",
          "type": "bytes32"
        },
        {
          "internalType": "address",
          "name": "account",
          "type": "address"
        }
      ],
      "name": "grantNewRole",
      "outputs": [],
      "stateMutability": "nonpayable",
      "type": "function"
    },
    {
      "inputs": [
        {
          "internalType": "bytes32",
          "name": "role",
          "type": "bytes32"
        },
        {
          "internalType": "address",
          "name": "account",
          "type": "address"
        }
      ],
      "name": "grantRole",
      "outputs": [],
      "stateMutability": "nonpayable",
      "type": "function"
    },
    {
      "inputs": [
        {
          "internalType": "bytes32",
          "name": "role",
          "type": "bytes32"
        },
        {
          "internalType": "address",
          "name": "account",
          "type": "address"
        }
      ],
      "name": "hasRole",
      "outputs": [
        {
          "internalType": "bool",
          "name": "",
          "type": "bool"
        }
      ],
      "stateMutability": "view",
      "type": "function"
    },
    {
      "inputs": [
        {
          "internalType": "address",
          "name": "forwarder",
          "type": "address"
        }
      ],
      "name": "isTrustedForwarder",
      "outputs": [
        {
          "internalType": "bool",
          "name": "",
          "type": "bool"
        }
      ],
      "stateMutability": "view",
      "type": "function"
    },
    {
      "inputs": [
        {
          "internalType": "address",
          "name": "tokenAddress",
          "type": "address"
        },
        {
          "internalType": "uint256",
          "name": "usdAmount",
          "type": "uint256"
        },
        {
          "internalType": "address",
          "name": "partner",
          "type": "address"
        }
      ],
      "name": "mintStable",
      "outputs": [
        {
          "internalType": "uint256",
          "name": "",
          "type": "uint256"
        }
      ],
      "stateMutability": "nonpayable",
      "type": "function"
    },
    {
      "inputs": [],
      "name": "pause",
      "outputs": [],
      "stateMutability": "nonpayable",
      "type": "function"
    },
    {
      "inputs": [],
      "name": "paused",
      "outputs": [
        {
          "internalType": "bool",
          "name": "",
          "type": "bool"
        }
      ],
      "stateMutability": "view",
      "type": "function"
    },
    {
      "inputs": [
        {
          "internalType": "contract ERC20Stable",
          "name": "tokenAddress",
          "type": "address"
        }
      ],
      "name": "removeStableByAddress",
      "outputs": [
        {
          "components": [
            {
              "internalType": "contract ERC20Stable",
              "name": "tokenAddress",
              "type": "address"
            },
            {
              "internalType": "uint256",
              "name": "price",
              "type": "uint256"
            },
            {
              "internalType": "uint256",
              "name": "tokenReserve",
              "type": "uint256"
            },
            {
              "internalType": "bool",
              "name": "tradable",
              "type": "bool"
            }
          ],
          "internalType": "struct StableManager.Stable",
          "name": "",
          "type": "tuple"
        }
      ],
      "stateMutability": "nonpayable",
      "type": "function"
    },
    {
      "inputs": [
        {
          "internalType": "bytes32",
          "name": "role",
          "type": "bytes32"
        },
        {
          "internalType": "address",
          "name": "callerConfirmation",
          "type": "address"
        }
      ],
      "name": "renounceRole",
      "outputs": [],
      "stateMutability": "nonpayable",
      "type": "function"
    },
    {
      "inputs": [
        {
          "internalType": "bytes32",
          "name": "role",
          "type": "bytes32"
        },
        {
          "internalType": "address",
          "name": "account",
          "type": "address"
        }
      ],
      "name": "revokeRole",
      "outputs": [],
      "stateMutability": "nonpayable",
      "type": "function"
    },
    {
      "inputs": [
        {
          "internalType": "bytes32",
          "name": "role",
          "type": "bytes32"
        },
        {
          "internalType": "address",
          "name": "account",
          "type": "address"
        }
      ],
      "name": "revoveRole",
      "outputs": [],
      "stateMutability": "nonpayable",
      "type": "function"
    },
    {
      "inputs": [
        {
          "internalType": "address",
          "name": "ercAddress",
          "type": "address"
        },
        {
          "internalType": "address",
          "name": "to",
          "type": "address"
        },
        {
          "internalType": "uint256",
          "name": "amount",
          "type": "uint256"
        },
        {
          "internalType": "address",
          "name": "partner",
          "type": "address"
        }
      ],
      "name": "sendStable",
      "outputs": [
        {
          "internalType": "uint256",
          "name": "",
          "type": "uint256"
        }
      ],
      "stateMutability": "nonpayable",
      "type": "function"
    },
    {
      "inputs": [
        {
          "internalType": "address",
          "name": "_stable1",
          "type": "address"
        },
        {
          "internalType": "address",
          "name": "_stable2",
          "type": "address"
        },
        {
          "internalType": "uint256",
          "name": "amount",
          "type": "uint256"
        },
        {
          "internalType": "address",
          "name": "partner",
          "type": "address"
        }
      ],
      "name": "stableTrade",
      "outputs": [
        {
          "internalType": "uint256",
          "name": "",
          "type": "uint256"
        }
      ],
      "stateMutability": "nonpayable",
      "type": "function"
    },
    {
      "inputs": [
        {
          "internalType": "address",
          "name": "",
          "type": "address"
        }
      ],
      "name": "stables",
      "outputs": [
        {
          "internalType": "contract ERC20Stable",
          "name": "tokenAddress",
          "type": "address"
        },
        {
          "internalType": "uint256",
          "name": "price",
          "type": "uint256"
        },
        {
          "internalType": "uint256",
          "name": "tokenReserve",
          "type": "uint256"
        },
        {
          "internalType": "bool",
          "name": "tradable",
          "type": "bool"
        }
      ],
      "stateMutability": "view",
      "type": "function"
    },
    {
      "inputs": [
        {
          "internalType": "bytes4",
          "name": "interfaceId",
          "type": "bytes4"
        }
      ],
      "name": "supportsInterface",
      "outputs": [
        {
          "internalType": "bool",
          "name": "",
          "type": "bool"
        }
      ],
      "stateMutability": "view",
      "type": "function"
    },
    {
      "inputs": [],
      "name": "unpause",
      "outputs": [],
      "stateMutability": "nonpayable",
      "type": "function"
    },
    {
      "inputs": [
        {
          "internalType": "contract ERC20Stable",
          "name": "tokenAddress",
          "type": "address"
        },
        {
          "internalType": "uint256",
          "name": "price",
          "type": "uint256"
        },
        {
          "internalType": "uint256",
          "name": "tokenReserve",
          "type": "uint256"
        },
        {
          "internalType": "bool",
          "name": "tradable",
          "type": "bool"
        }
      ],
      "name": "updateStableByAddress",
      "outputs": [
        {
          "components": [
            {
              "internalType": "contract ERC20Stable",
              "name": "tokenAddress",
              "type": "address"
            },
            {
              "internalType": "uint256",
              "name": "price",
              "type": "uint256"
            },
            {
              "internalType": "uint256",
              "name": "tokenReserve",
              "type": "uint256"
            },
            {
              "internalType": "bool",
              "name": "tradable",
              "type": "bool"
            }
          ],
          "internalType": "struct StableManager.Stable",
          "name": "",
          "type": "tuple"
        }
      ],
      "stateMutability": "nonpayable",
      "type": "function"
    },
    {
      "inputs": [
        {
          "internalType": "contract ERC20Stable",
          "name": "tokenAddress",
          "type": "address"
        },
        {
          "internalType": "uint256",
          "name": "newPrice",
          "type": "uint256"
        }
      ],
      "name": "updateStablePrice",
      "outputs": [
        {
          "internalType": "bool",
          "name": "",
          "type": "bool"
        }
      ],
      "stateMutability": "nonpayable",
      "type": "function"
    }
  ],
  "bytecode": "0x60a0604052620f424060055560646006556127106007553480156200002357600080fd5b50604051620030ce380380620030ce83398101604081905262000046916200021c565b6001600160a01b0381166080526001805460ff191690556200006762000132565b600180546001600160a01b039290921661010002610100600160a81b0319909216919091179055620000a460006200009e62000132565b62000143565b50620000d47fa49807205ce4d355092ef5a8a18f56e8913cf4a201fbe287825b095693c217756200009e62000132565b50620001047f241ecf16d79d0f8dbfb92cbc07fe17840425976cf0667f022fe9877caa831b086200009e62000132565b5050600280546001600160a01b03191673a0b86991c6218b36c1d19d4a2e9eb0ce3606eb481790556200024e565b60006200013e620001f4565b905090565b6000828152602081815260408083206001600160a01b038516845290915281205460ff16620001ea576000838152602081815260408083206001600160a01b03861684529091529020805460ff19166001179055620001a162000132565b6001600160a01b0316826001600160a01b0316847f2f8788117e7eff1d82e926ec794901d17c78024a50270940304540a733656f0d60405160405180910390a4506001620001ee565b5060005b92915050565b6080516000906001600160a01b0316330362000217575060131936013560601c90565b503390565b6000602082840312156200022f57600080fd5b81516001600160a01b03811681146200024757600080fd5b9392505050565b608051612e5d62000271600039600081816103b701526128fe0152612e5d6000f3fe608060405234801561001057600080fd5b50600436106101fb5760003560e01c80638456cb591161011a578063bfb8058c116100ad578063d183c6cc1161007c578063d183c6cc14610505578063d547741f14610518578063e2520bd01461052b578063ec87621c1461053e578063f6549e841461056557600080fd5b8063bfb8058c146104b4578063bfc810b6146104c7578063c415b95c146104da578063d0fb0203146104f257600080fd5b80639245290d116100e95780639245290d1461047357806394d188e014610486578063a217fddf14610499578063a7ed89d1146104a157600080fd5b80638456cb591461041a57806386c594181461042257806391d148541461044d57806391f0462c1461046057600080fd5b80633b33b2d511610192578063572b6c0511610161578063572b6c05146103a75780635c975abb146103e757806375b238fc146103f25780637ab86f741461040757600080fd5b80633b33b2d51461030b5780633f4ba83a1461031e57806346a0300c146103265780634743a5101461033957600080fd5b80632d0a9eaa116101ce5780632d0a9eaa1461027f5780632e6a3e35146102925780632f2ff15d146102e357806336568abe146102f857600080fd5b806301ffc9a714610200578063167f4deb14610228578063248a9ca31461024957806329ca20ca1461026c575b600080fd5b61021361020e3660046129c3565b61056d565b60405190151581526020015b60405180910390f35b61023b610236366004612a09565b6105a4565b60405190815260200161021f565b61023b610257366004612a4b565b60009081526020819052604090206001015490565b61023b61027a366004612a64565b610b3e565b61021361028d366004612ab7565b610ff6565b6102a56102a0366004612ab7565b6110a3565b60405161021f919081516001600160a01b03168152602080830151908201526040808301519082015260609182015115159181019190915260800190565b6102f66102f1366004612ad4565b611101565b005b6102f6610306366004612ad4565b61112c565b6102a5610319366004612b12565b611174565b6102f661134b565b6102f6610334366004612ad4565b61138b565b61037b610347366004612ab7565b60046020526000908152604090208054600182015460028301546003909301546001600160a01b0390921692909160ff1684565b604080516001600160a01b0390951685526020850193909352918301521515606082015260800161021f565b6102136103b5366004612ab7565b7f00000000000000000000000000000000000000000000000000000000000000006001600160a01b0390811691161490565b60015460ff16610213565b61023b600080516020612e0883398151915281565b6102a5610415366004612ab7565b6113cb565b6102f6611492565b600254610435906001600160a01b031681565b6040516001600160a01b03909116815260200161021f565b61021361045b366004612ad4565b6114d0565b6102a561046e366004612b12565b6114f9565b610213610481366004612ab7565b61161f565b610213610494366004612b51565b6116d5565b61023b600081565b61023b6104af366004612a09565b611752565b61023b6104c2366004612a64565b611cd0565b6102136104d5366004612ab7565b612397565b6001546104359061010090046001600160a01b031681565b600354610435906001600160a01b031681565b610213610513366004612ab7565b61244a565b6102f6610526366004612ad4565b61256f565b6102f6610539366004612ad4565b612594565b61023b7f241ecf16d79d0f8dbfb92cbc07fe17840425976cf0667f022fe9877caa831b0881565b61023b6125ca565b60006001600160e01b03198216637965db0b60e01b148061059e57506301ffc9a760e01b6001600160e01b03198316145b92915050565b60006105ae61263c565b600354604051633c05789560e01b81526001600160a01b0384811660048301526000921690633c057895906024016040805180830381865afa1580156105f8573d6000803e3d6000fd5b505050506040513d601f19601f8201168201806040525081019061061c9190612b7d565b905084600061062a826110a3565b60035484516040516347203d5b60e01b81529293506000926001600160a01b03909216916347203d5b91610662918b90600401612be3565b602060405180830381865afa15801561067f573d6000803e3d6000fd5b505050506040513d601f19601f820116820180604052508101906106a39190612bfc565b600354604051630c040b4760e01b81529192506000916001600160a01b0390911690630c040b47906106dc906001908c90600401612c2b565b602060405180830381865afa1580156106f9573d6000803e3d6000fd5b505050506040513d601f19601f8201168201806040525081019061071d9190612bfc565b9050600061072b8284612c6d565b610735908a612c80565b9050600089116107985760405162461bcd60e51b815260206004820152602360248201527f416d6f756e74206e65656420746f2062652067726561746572207468616e207a60448201526265726f60e81b60648201526084015b60405180910390fd5b88856001600160a01b03166370a082316107b0612660565b6040516001600160e01b031960e084901b1681526001600160a01b039091166004820152602401602060405180830381865afa1580156107f4573d6000803e3d6000fd5b505050506040513d601f19601f820116820180604052508101906108189190612bfc565b10156108365760405162461bcd60e51b815260040161078f90612c93565b88856001600160a01b031663dd62ed3e61084e612660565b6040516001600160e01b031960e084901b1681526001600160a01b039091166004820152306024820152604401602060405180830381865afa158015610898573d6000803e3d6000fd5b505050506040513d601f19601f820116820180604052508101906108bc9190612bfc565b10156109015760405162461bcd60e51b8152602060048201526014602482015273082d8d8deeec2dcc6ca40dcdee840cadcdeeaced60631b604482015260640161078f565b60008460200151116109555760405162461bcd60e51b815260206004820152601960248201527f507269636520686173206e6f74206265656e20646566696e6500000000000000604482015260640161078f565b600084602001516005548361096a9190612cbd565b6109749190612cd4565b9050856001600160a01b03166379cc679061098d612660565b8c6040518363ffffffff1660e01b81526004016109ab929190612be3565b600060405180830381600087803b1580156109c557600080fd5b505af11580156109d9573d6000803e3d6000fd5b505050506109e98682600161266a565b506002546001600160a01b031663a9059cbb610a03612660565b836040518363ffffffff1660e01b8152600401610a21929190612be3565b6020604051808303816000875af1158015610a40573d6000803e3d6000fd5b505050506040513d601f19601f82011682018060405250810190610a649190612cf6565b5086516040516340c10f1960e01b81526001600160a01b038816916340c10f1991610a9491908890600401612be3565b600060405180830381600087803b158015610aae57600080fd5b505af1158015610ac2573d6000803e3d6000fd5b50506001546040516340c10f1960e01b81526001600160a01b03808b1694506340c10f199350610afd92610100900416908790600401612be3565b600060405180830381600087803b158015610b1757600080fd5b505af1158015610b2b573d6000803e3d6000fd5b50929d9c50505050505050505050505050565b6000610b4861263c565b600354604051633c05789560e01b81526001600160a01b0384811660048301526000921690633c057895906024016040805180830381865afa158015610b92573d6000803e3d6000fd5b505050506040513d601f19601f82011682018060405250810190610bb69190612b7d565b905060008411610c085760405162461bcd60e51b815260206004820152601b60248201527f546f6b656e7320616d6f756e742063616e2774206265207a65726f0000000000604482015260640161078f565b6001600160a01b038616610c5e5760405162461bcd60e51b815260206004820152601b60248201527f45524332302063616e2774206265206e756c6c20616464726573730000000000604482015260640161078f565b6001600160a01b038516610cb45760405162461bcd60e51b815260206004820152601f60248201527f526563697069656e742063616e2774206265206e756c6c206164647265737300604482015260640161078f565b60035481516040516347203d5b60e01b81526000926001600160a01b0316916347203d5b91610ce891908990600401612be3565b602060405180830381865afa158015610d05573d6000803e3d6000fd5b505050506040513d601f19601f82011682018060405250810190610d299190612bfc565b600354604051630c040b4760e01b81529192506000916001600160a01b0390911690630c040b4790610d62906001908a90600401612c2b565b602060405180830381865afa158015610d7f573d6000803e3d6000fd5b505050506040513d601f19601f82011682018060405250810190610da39190612bfc565b90506000610db18284612c6d565b610dbb9088612c80565b905088876001600160a01b0382166370a08231610dd6612660565b6040516001600160e01b031960e084901b1681526001600160a01b039091166004820152602401602060405180830381865afa158015610e1a573d6000803e3d6000fd5b505050506040513d601f19601f82011682018060405250810190610e3e9190612bfc565b1015610e5c5760405162461bcd60e51b815260040161078f90612c93565b806001600160a01b03166323b872dd610e73612660565b8b856040518463ffffffff1660e01b8152600401610e9393929190612d13565b6020604051808303816000875af1158015610eb2573d6000803e3d6000fd5b505050506040513d601f19601f82011682018060405250810190610ed69190612cf6565b50806001600160a01b03166323b872dd610eee612660565b87516040516001600160e01b031960e085901b168152610f149291908990600401612d13565b6020604051808303816000875af1158015610f33573d6000803e3d6000fd5b505050506040513d601f19601f82011682018060405250810190610f579190612cf6565b50806001600160a01b03166323b872dd610f6f612660565b60015460405160e084901b6001600160e01b0319168152610fa4929161010090046001600160a01b0316908890600401612d13565b6020604051808303816000875af1158015610fc3573d6000803e3d6000fd5b505050506040513d601f19601f82011682018060405250810190610fe79190612cf6565b50909998505050505050505050565b6000611012600080516020612e0883398151915261045b612660565b61102e5760405162461bcd60e51b815260040161078f90612d37565b6001600160a01b03821661107e5760405162461bcd60e51b815260206004820152601760248201527614dd18589b194c48191bd95cdd081b9bdd08195e1a5cdd604a1b604482015260640161078f565b50600280546001600160a01b0383166001600160a01b03199091161790556001919050565b6110ab612990565b506001600160a01b039081166000908152600460209081526040918290208251608081018452815490941684526001810154918401919091526002810154918301919091526003015460ff161515606082015290565b60008281526020819052604090206001015461111c81612735565b6111268383612749565b50505050565b611134612660565b6001600160a01b0316816001600160a01b0316146111655760405163334bd91960e11b815260040160405180910390fd5b61116f82826127dc565b505050565b61117c612990565b611196600080516020612e0883398151915261045b612660565b6111b25760405162461bcd60e51b815260040161078f90612d37565b6001600160a01b038086166000908152600460209081526040918290208251608081018452815490941680855260018201549285019290925260028101549284019290925260039091015460ff1615156060830152156112625760405162461bcd60e51b815260206004820152602560248201527f537461626c654d616e616765723a20746f6b656e206164647265737320206578604482015264746973747360d81b606482015260840161078f565b6001600160a01b0386166112885760405162461bcd60e51b815260040161078f90612d6e565b600085116112a85760405162461bcd60e51b815260040161078f90612db9565b505060408051608080820183526001600160a01b039687168083526020808401978852838501968752941515606080850191825260009283526004875291859020935184546001600160a01b0319169916988917845596516001840181905595516002840181905596516003909301805460ff19169315159384179055835191820184529681529283019390935281019290925260ff1615159181019190915290565b611365600080516020612e0883398151915261045b612660565b6113815760405162461bcd60e51b815260040161078f90612d37565b611389612865565b565b6113a5600080516020612e0883398151915261045b612660565b6113c15760405162461bcd60e51b815260040161078f90612d37565b61116f8282612749565b6113d3612990565b6113ed600080516020612e0883398151915261045b612660565b6114095760405162461bcd60e51b815260040161078f90612d37565b6001600160a01b03821661142f5760405162461bcd60e51b815260040161078f90612d6e565b506001600160a01b0316600090815260046020908152604080832080546001600160a01b03191681556001810184905560028101849055600301805460ff1916905580516080810182528381529182018390528101829052606081019190915290565b6114ac600080516020612e0883398151915261045b612660565b6114c85760405162461bcd60e51b815260040161078f90612d37565b6113896128bd565b6000918252602082815260408084206001600160a01b0393909316845291905290205460ff1690565b611501612990565b61151b600080516020612e0883398151915261045b612660565b6115375760405162461bcd60e51b815260040161078f90612d37565b6001600160a01b03851661155d5760405162461bcd60e51b815260040161078f90612d6e565b6000841161157d5760405162461bcd60e51b815260040161078f90612db9565b5060408051608080820183526001600160a01b039687168083526020808401978852838501968752941515606080850191825260009283526004875291859020935184546001600160a01b0319169916988917845596516001840181905595516002840181905596516003909301805460ff19169315159384179055835191820184529681529283019390935281019290925260ff1615159181019190915290565b600061163b600080516020612e0883398151915261045b612660565b6116575760405162461bcd60e51b815260040161078f90612d37565b6001600160a01b0382166116ad5760405162461bcd60e51b815260206004820152601a60248201527f666565436f6c6c6563746f722063616e2774206265206e756c6c000000000000604482015260640161078f565b50600180546001600160a01b03831661010002610100600160a81b0319909116178155919050565b60006116f1600080516020612e0883398151915261045b612660565b61170d5760405162461bcd60e51b815260040161078f90612d37565b6000821161172d5760405162461bcd60e51b815260040161078f90612db9565b506001600160a01b038216600090815260046020526040812060010182905592915050565b600061175c61263c565b600354604051633c05789560e01b81526001600160a01b0384811660048301526000921690633c057895906024016040805180830381865afa1580156117a6573d6000803e3d6000fd5b505050506040513d601f19601f820116820180604052508101906117ca9190612b7d565b90508460006117d8826110a3565b90506000861161182a5760405162461bcd60e51b815260206004820152601860248201527f55736420616d6f756e742063616e2774206265207a65726f0000000000000000604482015260640161078f565b60025486906001600160a01b03166370a08231611845612660565b6040516001600160e01b031960e084901b1681526001600160a01b039091166004820152602401602060405180830381865afa158015611889573d6000803e3d6000fd5b505050506040513d601f19601f820116820180604052508101906118ad9190612bfc565b10156118f25760405162461bcd60e51b81526020600482015260146024820152730aaa68840a8ded6cadc40dcdee840cadcdeeaced60631b604482015260640161078f565b60025486906001600160a01b031663dd62ed3e61190d612660565b6040516001600160e01b031960e084901b1681526001600160a01b039091166004820152306024820152604401602060405180830381865afa158015611957573d6000803e3d6000fd5b505050506040513d601f19601f8201168201806040525081019061197b9190612bfc565b10156119c95760405162461bcd60e51b815260206004820152601e60248201527f55534420546f6b656e20416c6c6f77616e6365206e6f7420656e6f7567680000604482015260640161078f565b6000816020015111611a1d5760405162461bcd60e51b815260206004820152601a60248201527f507269636520686173206e6f74206265656e20646566696e6564000000000000604482015260640161078f565b6000600554826020015188611a329190612cbd565b611a3c9190612cd4565b6002549091506001600160a01b03166323b872dd611a58612660565b308a6040518463ffffffff1660e01b8152600401611a7893929190612d13565b6020604051808303816000875af1158015611a97573d6000803e3d6000fd5b505050506040513d601f19601f82011682018060405250810190611abb9190612cf6565b5060035484516040516347203d5b60e01b81526000926001600160a01b0316916347203d5b91611af091908690600401612be3565b602060405180830381865afa158015611b0d573d6000803e3d6000fd5b505050506040513d601f19601f82011682018060405250810190611b319190612bfc565b600354604051630c040b4760e01b81529192506000916001600160a01b0390911690630c040b4790611b699084908790600401612c2b565b602060405180830381865afa158015611b86573d6000803e3d6000fd5b505050506040513d601f19601f82011682018060405250810190611baa9190612bfc565b90506000611bb88284612c6d565b611bc29085612c80565b9050611bd0868b600061266a565b50856001600160a01b03166340c10f19611be8612660565b836040518363ffffffff1660e01b8152600401611c06929190612be3565b600060405180830381600087803b158015611c2057600080fd5b505af1158015611c34573d6000803e3d6000fd5b505088516040516340c10f1960e01b81526001600160a01b038a1693506340c10f199250611c6791908790600401612be3565b600060405180830381600087803b158015611c8157600080fd5b505af1158015611c95573d6000803e3d6000fd5b50506001546040516340c10f1960e01b81526001600160a01b03808b1694506340c10f199350610afd92610100900416908690600401612be3565b6000611cda61263c565b600354604051633c05789560e01b81526001600160a01b0384811660048301526000921690633c057895906024016040805180830381865afa158015611d24573d6000803e3d6000fd5b505050506040513d601f19601f82011682018060405250810190611d489190612b7d565b905085856000611d57836110a3565b90506000611d64896110a3565b60035486516040516347203d5b60e01b81529293506000926001600160a01b03909216916347203d5b91611d9c918d90600401612be3565b602060405180830381865afa158015611db9573d6000803e3d6000fd5b505050506040513d601f19601f82011682018060405250810190611ddd9190612bfc565b60038054604051630c040b4760e01b81529293506000926001600160a01b0390911691630c040b4791611e1591908e90600401612c2b565b602060405180830381865afa158015611e32573d6000803e3d6000fd5b505050506040513d601f19601f82011682018060405250810190611e569190612bfc565b90506000611e648284612c6d565b611e6e908c612c80565b90506000876001600160a01b03166370a08231611e89612660565b6040516001600160e01b031960e084901b1681526001600160a01b039091166004820152602401602060405180830381865afa158015611ecd573d6000803e3d6000fd5b505050506040513d601f19601f82011682018060405250810190611ef19190612bfc565b90506001600160a01b038e16611f435760405162461bcd60e51b815260206004820152601760248201527614dd18589b194c48191bd95cdd081b9bdd08195e1a5cdd604a1b604482015260640161078f565b6001600160a01b038d16611f995760405162461bcd60e51b815260206004820152601760248201527f537461626c653220646f657374206e6f74206578697374000000000000000000604482015260640161078f565b60008c11611fe05760405162461bcd60e51b8152602060048201526014602482015273416d6f756e742063616e2774206265207a65726f60601b604482015260640161078f565b8b8110156120005760405162461bcd60e51b815260040161078f90612c93565b8b886001600160a01b031663dd62ed3e612018612660565b6040516001600160e01b031960e084901b1681526001600160a01b039091166004820152306024820152604401602060405180830381865afa158015612062573d6000803e3d6000fd5b505050506040513d601f19601f820116820180604052508101906120869190612bfc565b10156120cb5760405162461bcd60e51b8152602060048201526014602482015273082d8d8deeec2dcc6ca40dcdee840cadcdeeaced60631b604482015260640161078f565b60008660200151116121295760405162461bcd60e51b815260206004820152602160248201527f537461626c653120507269636520686173206e6f74206265656e20646566696e6044820152606560f81b606482015260840161078f565b60008560200151116121875760405162461bcd60e51b815260206004820152602160248201527f537461626c653220507269636520686173206e6f74206265656e20646566696e6044820152606560f81b606482015260840161078f565b600086602001516005548461219c9190612cbd565b6121a69190612cd4565b9050886001600160a01b03166379cc67906121bf612660565b8f6040518363ffffffff1660e01b81526004016121dd929190612be3565b600060405180830381600087803b1580156121f757600080fd5b505af115801561220b573d6000803e3d6000fd5b50508b516040516340c10f1960e01b81526001600160a01b038c1693506340c10f19925061223e91908990600401612be3565b600060405180830381600087803b15801561225857600080fd5b505af115801561226c573d6000803e3d6000fd5b50506001546040516340c10f1960e01b81526001600160a01b03808d1694506340c10f1993506122a792610100900416908890600401612be3565b600060405180830381600087803b1580156122c157600080fd5b505af11580156122d5573d6000803e3d6000fd5b505050506122e9876000015182600161266a565b5060006005548760200151836122ff9190612cbd565b6123099190612cd4565b9050886001600160a01b03166340c10f19612322612660565b836040518363ffffffff1660e01b8152600401612340929190612be3565b600060405180830381600087803b15801561235a57600080fd5b505af115801561236e573d6000803e3d6000fd5b50505050612382876000015183600061266a565b50929f9e505050505050505050505050505050565b60006123b3600080516020612e0883398151915261045b612660565b6123cf5760405162461bcd60e51b815260040161078f90612d37565b6001600160a01b0382166124255760405162461bcd60e51b815260206004820152601860248201527f6665654d616e616765722063616e2774206265206e756c6c0000000000000000604482015260640161078f565b50600380546001600160a01b0383166001600160a01b03199091161790556001919050565b6000612466600080516020612e0883398151915261045b612660565b6124825760405162461bcd60e51b815260040161078f90612d37565b6002546040516370a0823160e01b81523060048201526000916001600160a01b0316906370a0823190602401602060405180830381865afa1580156124cb573d6000803e3d6000fd5b505050506040513d601f19601f820116820180604052508101906124ef9190612bfc565b60025460405163a9059cbb60e01b81529192506001600160a01b03169063a9059cbb906125229086908590600401612be3565b6020604051808303816000875af1158015612541573d6000803e3d6000fd5b505050506040513d601f19601f820116820180604052508101906125659190612cf6565b5060019392505050565b60008281526020819052604090206001015461258a81612735565b61112683836127dc565b6125ae600080516020612e0883398151915261045b612660565b6111655760405162461bcd60e51b815260040161078f90612d37565b6002546040516370a0823160e01b81523060048201526000916001600160a01b0316906370a0823190602401602060405180830381865afa158015612613573d6000803e3d6000fd5b505050506040513d601f19601f820116820180604052508101906126379190612bfc565b905090565b60015460ff16156113895760405163d93c066560e01b815260040160405180910390fd5b60006126376128fa565b60006001600160a01b0384166126925760405162461bcd60e51b815260040161078f90612d6e565b60008260018111156126a6576126a6612c15565b036126e1576001600160a01b038416600090815260046020526040812060020180548592906126d6908490612c6d565b9091555061272b9050565b60008260018111156126f5576126f5612c15565b0361272b576001600160a01b03841660009081526004602052604081206002018054859290612725908490612c80565b90915550505b5060009392505050565b61274681612741612660565b61293e565b50565b600061275583836114d0565b6127d4576000838152602081815260408083206001600160a01b03861684529091529020805460ff1916600117905561278c612660565b6001600160a01b0316826001600160a01b0316847f2f8788117e7eff1d82e926ec794901d17c78024a50270940304540a733656f0d60405160405180910390a450600161059e565b50600061059e565b60006127e883836114d0565b156127d4576000838152602081815260408083206001600160a01b03861684529091529020805460ff1916905561281d612660565b6001600160a01b0316826001600160a01b0316847ff6391f5c32d9c69d2a47ea670b442974b53935d1edc7fd64eb21e047a839171b60405160405180910390a450600161059e565b61286d61296d565b6001805460ff191690557f5db9ee0a495bf2e6ff9c91a7834c1ba4fdd244a5e8aa4e537bd38aeae4b073aa6128a0612660565b6040516001600160a01b03909116815260200160405180910390a1565b6128c561263c565b6001805460ff1916811790557f62e78cea01bee320cd4e420270b5ea74000d11b0c9f74754ebdbfc544b05a2586128a0612660565b60007f00000000000000000000000000000000000000000000000000000000000000006001600160a01b03163303612939575060131936013560601c90565b503390565b61294882826114d0565b61296957808260405163e2517d3f60e01b815260040161078f929190612be3565b5050565b60015460ff1661138957604051638dfc202b60e01b815260040160405180910390fd5b604051806080016040528060006001600160a01b0316815260200160008152602001600081526020016000151581525090565b6000602082840312156129d557600080fd5b81356001600160e01b0319811681146129ed57600080fd5b9392505050565b6001600160a01b038116811461274657600080fd5b600080600060608486031215612a1e57600080fd5b8335612a29816129f4565b9250602084013591506040840135612a40816129f4565b809150509250925092565b600060208284031215612a5d57600080fd5b5035919050565b60008060008060808587031215612a7a57600080fd5b8435612a85816129f4565b93506020850135612a95816129f4565b9250604085013591506060850135612aac816129f4565b939692955090935050565b600060208284031215612ac957600080fd5b81356129ed816129f4565b60008060408385031215612ae757600080fd5b823591506020830135612af9816129f4565b809150509250929050565b801515811461274657600080fd5b60008060008060808587031215612b2857600080fd5b8435612b33816129f4565b935060208501359250604085013591506060850135612aac81612b04565b60008060408385031215612b6457600080fd5b8235612b6f816129f4565b946020939093013593505050565b600060408284031215612b8f57600080fd5b6040516040810181811067ffffffffffffffff82111715612bc057634e487b7160e01b600052604160045260246000fd5b6040528251612bce816129f4565b81526020928301519281019290925250919050565b6001600160a01b03929092168252602082015260400190565b600060208284031215612c0e57600080fd5b5051919050565b634e487b7160e01b600052602160045260246000fd5b6040810160068410612c4d57634e487b7160e01b600052602160045260246000fd5b9281526020015290565b634e487b7160e01b600052601160045260246000fd5b8082018082111561059e5761059e612c57565b8181038181111561059e5761059e612c57565b60208082526010908201526f0a8ded6cadc40dcdee840cadcdeeaced60831b604082015260600190565b808202811582820484141761059e5761059e612c57565b600082612cf157634e487b7160e01b600052601260045260246000fd5b500490565b600060208284031215612d0857600080fd5b81516129ed81612b04565b6001600160a01b039384168152919092166020820152604081019190915260600190565b60208082526019908201527f4d75737420686176652041444d494e5f524f4c4520726f6c6500000000000000604082015260600190565b6020808252602b908201527f537461626c654d616e616765723a20746f6b656e20616464726573732063616e60408201526a6e6f74206265207a65726f60a81b606082015260800190565b6020808252602e908201527f537461626c654d616e616765723a207072696365206d7573742062652067726560408201526d61746572207468616e207a65726f60901b60608201526080019056fea49807205ce4d355092ef5a8a18f56e8913cf4a201fbe287825b095693c21775a26469706673582212205b2239241927325308025389923571701d29869d80569049aed68c23076006ff64736f6c63430008140033",
  "linkReferences": {},
  "deployedLinkReferences": {}
}