{
  "_format": "hh-sol-artifact-1",
  "contractName": "Lending",
  "sourceName": "contracts/Lending.sol",
  "abi": [
    {
      "inputs": [
        {
          "internalType": "address",
          "name": "trustedForwarder",
          "type": "address"
        },
        {
          "internalType": "address",
          "name": "_feeManager",
          "type": "address"
        }
      ],
      "stateMutability": "nonpayable",
      "type": "constructor"
    },
    {
      "inputs": [],
      "name": "AccessControlBadConfirmation",
      "type": "error"
    },
    {
      "inputs": [
        {
          "internalType": "address",
          "name": "account",
          "type": "address"
        },
        {
          "internalType": "bytes32",
          "name": "neededRole",
          "type": "bytes32"
        }
      ],
      "name": "AccessControlUnauthorizedAccount",
      "type": "error"
    },
    {
      "inputs": [
        {
          "internalType": "address",
          "name": "target",
          "type": "address"
        }
      ],
      "name": "AddressEmptyCode",
      "type": "error"
    },
    {
      "inputs": [
        {
          "internalType": "address",
          "name": "account",
          "type": "address"
        }
      ],
      "name": "AddressInsufficientBalance",
      "type": "error"
    },
    {
      "inputs": [],
      "name": "EnforcedPause",
      "type": "error"
    },
    {
      "inputs": [],
      "name": "ExpectedPause",
      "type": "error"
    },
    {
      "inputs": [],
      "name": "FailedInnerCall",
      "type": "error"
    },
    {
      "inputs": [
        {
          "internalType": "address",
          "name": "token",
          "type": "address"
        }
      ],
      "name": "SafeERC20FailedOperation",
      "type": "error"
    },
    {
      "anonymous": false,
      "inputs": [
        {
          "indexed": false,
          "internalType": "address",
          "name": "account",
          "type": "address"
        }
      ],
      "name": "Paused",
      "type": "event"
    },
    {
      "anonymous": false,
      "inputs": [
        {
          "indexed": true,
          "internalType": "bytes32",
          "name": "role",
          "type": "bytes32"
        },
        {
          "indexed": true,
          "internalType": "bytes32",
          "name": "previousAdminRole",
          "type": "bytes32"
        },
        {
          "indexed": true,
          "internalType": "bytes32",
          "name": "newAdminRole",
          "type": "bytes32"
        }
      ],
      "name": "RoleAdminChanged",
      "type": "event"
    },
    {
      "anonymous": false,
      "inputs": [
        {
          "indexed": true,
          "internalType": "bytes32",
          "name": "role",
          "type": "bytes32"
        },
        {
          "indexed": true,
          "internalType": "address",
          "name": "account",
          "type": "address"
        },
        {
          "indexed": true,
          "internalType": "address",
          "name": "sender",
          "type": "address"
        }
      ],
      "name": "RoleGranted",
      "type": "event"
    },
    {
      "anonymous": false,
      "inputs": [
        {
          "indexed": true,
          "internalType": "bytes32",
          "name": "role",
          "type": "bytes32"
        },
        {
          "indexed": true,
          "internalType": "address",
          "name": "account",
          "type": "address"
        },
        {
          "indexed": true,
          "internalType": "address",
          "name": "sender",
          "type": "address"
        }
      ],
      "name": "RoleRevoked",
      "type": "event"
    },
    {
      "anonymous": false,
      "inputs": [
        {
          "indexed": false,
          "internalType": "address",
          "name": "account",
          "type": "address"
        }
      ],
      "name": "Unpaused",
      "type": "event"
    },
    {
      "inputs": [],
      "name": "ADMIN_ROLE",
      "outputs": [
        {
          "internalType": "bytes32",
          "name": "",
          "type": "bytes32"
        }
      ],
      "stateMutability": "view",
      "type": "function"
    },
    {
      "inputs": [],
      "name": "AUSDToken",
      "outputs": [
        {
          "internalType": "contract IERC20",
          "name": "",
          "type": "address"
        }
      ],
      "stateMutability": "view",
      "type": "function"
    },
    {
      "inputs": [],
      "name": "DEFAULT_ADMIN_ROLE",
      "outputs": [
        {
          "internalType": "bytes32",
          "name": "",
          "type": "bytes32"
        }
      ],
      "stateMutability": "view",
      "type": "function"
    },
    {
      "inputs": [],
      "name": "MANAGER_ROLE",
      "outputs": [
        {
          "internalType": "bytes32",
          "name": "",
          "type": "bytes32"
        }
      ],
      "stateMutability": "view",
      "type": "function"
    },
    {
      "inputs": [],
      "name": "USDToken",
      "outputs": [
        {
          "internalType": "contract IERC20",
          "name": "",
          "type": "address"
        }
      ],
      "stateMutability": "view",
      "type": "function"
    },
    {
      "inputs": [
        {
          "internalType": "address",
          "name": "ausdToken",
          "type": "address"
        }
      ],
      "name": "changeAUSD",
      "outputs": [
        {
          "internalType": "bool",
          "name": "",
          "type": "bool"
        }
      ],
      "stateMutability": "nonpayable",
      "type": "function"
    },
    {
      "inputs": [
        {
          "internalType": "address",
          "name": "pool_",
          "type": "address"
        }
      ],
      "name": "changeLendingPool",
      "outputs": [
        {
          "internalType": "bool",
          "name": "",
          "type": "bool"
        }
      ],
      "stateMutability": "nonpayable",
      "type": "function"
    },
    {
      "inputs": [
        {
          "internalType": "address",
          "name": "manager",
          "type": "address"
        }
      ],
      "name": "changeStableManager",
      "outputs": [
        {
          "internalType": "bool",
          "name": "",
          "type": "bool"
        }
      ],
      "stateMutability": "nonpayable",
      "type": "function"
    },
    {
      "inputs": [
        {
          "internalType": "address",
          "name": "usdToken",
          "type": "address"
        }
      ],
      "name": "changeUSD",
      "outputs": [
        {
          "internalType": "bool",
          "name": "",
          "type": "bool"
        }
      ],
      "stateMutability": "nonpayable",
      "type": "function"
    },
    {
      "inputs": [
        {
          "internalType": "address",
          "name": "tokenAddress",
          "type": "address"
        },
        {
          "internalType": "address",
          "name": "recipient",
          "type": "address"
        },
        {
          "internalType": "uint256",
          "name": "amount",
          "type": "uint256"
        }
      ],
      "name": "emergencyTransferToken",
      "outputs": [
        {
          "internalType": "bool",
          "name": "",
          "type": "bool"
        }
      ],
      "stateMutability": "nonpayable",
      "type": "function"
    },
    {
      "inputs": [],
      "name": "feeManager",
      "outputs": [
        {
          "internalType": "contract FeeManager",
          "name": "",
          "type": "address"
        }
      ],
      "stateMutability": "view",
      "type": "function"
    },
    {
      "inputs": [
        {
          "internalType": "address",
          "name": "lender",
          "type": "address"
        }
      ],
      "name": "getLender",
      "outputs": [
        {
          "internalType": "uint256",
          "name": "",
          "type": "uint256"
        }
      ],
      "stateMutability": "view",
      "type": "function"
    },
    {
      "inputs": [
        {
          "internalType": "bytes32",
          "name": "role",
          "type": "bytes32"
        }
      ],
      "name": "getRoleAdmin",
      "outputs": [
        {
          "internalType": "bytes32",
          "name": "",
          "type": "bytes32"
        }
      ],
      "stateMutability": "view",
      "type": "function"
    },
    {
      "inputs": [
        {
          "internalType": "bytes32",
          "name": "role",
          "type": "bytes32"
        },
        {
          "internalType": "address",
          "name": "account",
          "type": "address"
        }
      ],
      "name": "grantNewRole",
      "outputs": [],
      "stateMutability": "nonpayable",
      "type": "function"
    },
    {
      "inputs": [
        {
          "internalType": "bytes32",
          "name": "role",
          "type": "bytes32"
        },
        {
          "internalType": "address",
          "name": "account",
          "type": "address"
        }
      ],
      "name": "grantRole",
      "outputs": [],
      "stateMutability": "nonpayable",
      "type": "function"
    },
    {
      "inputs": [
        {
          "internalType": "bytes32",
          "name": "role",
          "type": "bytes32"
        },
        {
          "internalType": "address",
          "name": "account",
          "type": "address"
        }
      ],
      "name": "hasRole",
      "outputs": [
        {
          "internalType": "bool",
          "name": "",
          "type": "bool"
        }
      ],
      "stateMutability": "view",
      "type": "function"
    },
    {
      "inputs": [
        {
          "internalType": "address",
          "name": "forwarder",
          "type": "address"
        }
      ],
      "name": "isTrustedForwarder",
      "outputs": [
        {
          "internalType": "bool",
          "name": "",
          "type": "bool"
        }
      ],
      "stateMutability": "view",
      "type": "function"
    },
    {
      "inputs": [
        {
          "internalType": "address",
          "name": "",
          "type": "address"
        }
      ],
      "name": "lenders",
      "outputs": [
        {
          "internalType": "uint256",
          "name": "",
          "type": "uint256"
        }
      ],
      "stateMutability": "view",
      "type": "function"
    },
    {
      "inputs": [
        {
          "internalType": "address",
          "name": "stableToken",
          "type": "address"
        },
        {
          "internalType": "uint256",
          "name": "amount",
          "type": "uint256"
        },
        {
          "internalType": "address",
          "name": "partner",
          "type": "address"
        }
      ],
      "name": "lendingDepositStable",
      "outputs": [
        {
          "internalType": "bool",
          "name": "",
          "type": "bool"
        }
      ],
      "stateMutability": "nonpayable",
      "type": "function"
    },
    {
      "inputs": [],
      "name": "lendingPool",
      "outputs": [
        {
          "internalType": "contract ILendingPool",
          "name": "",
          "type": "address"
        }
      ],
      "stateMutability": "view",
      "type": "function"
    },
    {
      "inputs": [
        {
          "internalType": "address",
          "name": "stableToken",
          "type": "address"
        },
        {
          "internalType": "uint256",
          "name": "ausdAmount",
          "type": "uint256"
        },
        {
          "internalType": "address",
          "name": "partner",
          "type": "address"
        }
      ],
      "name": "lendingWithdrawStable",
      "outputs": [
        {
          "internalType": "bool",
          "name": "",
          "type": "bool"
        }
      ],
      "stateMutability": "nonpayable",
      "type": "function"
    },
    {
      "inputs": [],
      "name": "pause",
      "outputs": [],
      "stateMutability": "nonpayable",
      "type": "function"
    },
    {
      "inputs": [],
      "name": "paused",
      "outputs": [
        {
          "internalType": "bool",
          "name": "",
          "type": "bool"
        }
      ],
      "stateMutability": "view",
      "type": "function"
    },
    {
      "inputs": [
        {
          "internalType": "bytes32",
          "name": "role",
          "type": "bytes32"
        },
        {
          "internalType": "address",
          "name": "callerConfirmation",
          "type": "address"
        }
      ],
      "name": "renounceRole",
      "outputs": [],
      "stateMutability": "nonpayable",
      "type": "function"
    },
    {
      "inputs": [
        {
          "internalType": "bytes32",
          "name": "role",
          "type": "bytes32"
        },
        {
          "internalType": "address",
          "name": "account",
          "type": "address"
        }
      ],
      "name": "revokeRole",
      "outputs": [],
      "stateMutability": "nonpayable",
      "type": "function"
    },
    {
      "inputs": [
        {
          "internalType": "bytes32",
          "name": "role",
          "type": "bytes32"
        },
        {
          "internalType": "address",
          "name": "account",
          "type": "address"
        }
      ],
      "name": "revoveRole",
      "outputs": [],
      "stateMutability": "nonpayable",
      "type": "function"
    },
    {
      "inputs": [],
      "name": "stableManager",
      "outputs": [
        {
          "internalType": "contract StableManager",
          "name": "",
          "type": "address"
        }
      ],
      "stateMutability": "view",
      "type": "function"
    },
    {
      "inputs": [
        {
          "internalType": "bytes4",
          "name": "interfaceId",
          "type": "bytes4"
        }
      ],
      "name": "supportsInterface",
      "outputs": [
        {
          "internalType": "bool",
          "name": "",
          "type": "bool"
        }
      ],
      "stateMutability": "view",
      "type": "function"
    },
    {
      "inputs": [
        {
          "internalType": "contract IERC20",
          "name": "token",
          "type": "address"
        },
        {
          "internalType": "address",
          "name": "recipient",
          "type": "address"
        },
        {
          "internalType": "uint256",
          "name": "amount",
          "type": "uint256"
        }
      ],
      "name": "transferTokens",
      "outputs": [],
      "stateMutability": "nonpayable",
      "type": "function"
    },
    {
      "inputs": [
        {
          "internalType": "contract IERC20",
          "name": "token",
          "type": "address"
        },
        {
          "internalType": "address",
          "name": "sender",
          "type": "address"
        },
        {
          "internalType": "address",
          "name": "recipient",
          "type": "address"
        },
        {
          "internalType": "uint256",
          "name": "amount",
          "type": "uint256"
        }
      ],
      "name": "transferTokensFrom",
      "outputs": [],
      "stateMutability": "nonpayable",
      "type": "function"
    },
    {
      "inputs": [],
      "name": "unpause",
      "outputs": [],
      "stateMutability": "nonpayable",
      "type": "function"
    }
  ],
  "bytecode": "0x60a0604052620f42406006553480156200001857600080fd5b5060405162001f6638038062001f668339810160408190526200003b9162000256565b6001600160a01b0382166080526001805460ff19169055620000686000620000626200014f565b62000160565b50620000987fa49807205ce4d355092ef5a8a18f56e8913cf4a201fbe287825b095693c21775620000626200014f565b50620000c87f241ecf16d79d0f8dbfb92cbc07fe17840425976cf0667f022fe9877caa831b08620000626200014f565b50600380546001600160a01b03199081167387870bca3f3fd6335c3f4ce8392d69350b4fa4e2179091556005805482167398c23e9d8f34fefb1b7bd6a91b7ff122f4e16f5c17905560048054821673a0b86991c6218b36c1d19d4a2e9eb0ce3606eb48179055600280546001600160a01b039390931692909116919091179055506200028e565b60006200015b62000211565b905090565b6000828152602081815260408083206001600160a01b038516845290915281205460ff1662000207576000838152602081815260408083206001600160a01b03861684529091529020805460ff19166001179055620001be6200014f565b6001600160a01b0316826001600160a01b0316847f2f8788117e7eff1d82e926ec794901d17c78024a50270940304540a733656f0d60405160405180910390a45060016200020b565b5060005b92915050565b6080516000906001600160a01b0316330362000234575060131936013560601c90565b503390565b80516001600160a01b03811681146200025157600080fd5b919050565b600080604083850312156200026a57600080fd5b620002758362000239565b9150620002856020840162000239565b90509250929050565b608051611cb5620002b16000396000818161033e01526117a00152611cb56000f3fe608060405234801561001057600080fd5b50600436106101e55760003560e01c8063704abb0a1161010f578063a64b6e5f116100a2578063d547741f11610071578063d547741f14610466578063dad0cf9c14610479578063e2520bd01461048c578063ec87621c1461049f57600080fd5b8063a64b6e5f1461041a578063ad69f5e91461042d578063d0e66f0c14610440578063d0fb02031461045357600080fd5b806391d14854116100de57806391d14854146103d4578063969b65a2146103e7578063a217fddf146103ff578063a59a99731461040757600080fd5b8063704abb0a1461037957806375b238fc1461038c5780638456cb59146103a157806386c59418146103a957600080fd5b806331b1df37116101875780634b17bdd8116101565780634b17bdd8146102f2578063527d590614610305578063572b6c051461032e5780635c975abb1461036e57600080fd5b806331b1df37146102b157806336568abe146102c45780633f4ba83a146102d757806346a0300c146102df57600080fd5b806328fd10d7116101c357806328fd10d7146102565780632d0a9eaa146102765780632f2ff15d1461028957806331308d481461029e57600080fd5b806301ffc9a7146101ea5780630fa62f3314610212578063248a9ca314610225575b600080fd5b6101fd6101f83660046119aa565b6104c6565b60405190151581526020015b60405180910390f35b6101fd6102203660046119e9565b6104fd565b610248610233366004611a2b565b60009081526020819052604090206001015490565b604051908152602001610209565b610248610264366004611a44565b60076020526000908152604090205481565b6101fd610284366004611a44565b610af1565b61029c610297366004611a61565b610b74565b005b6101fd6102ac3660046119e9565b610b9f565b6101fd6102bf366004611a91565b6110ed565b61029c6102d2366004611a61565b6111a7565b61029c6111ef565b61029c6102ed366004611a61565b61122f565b61029c610300366004611ad2565b61126f565b610248610313366004611a44565b6001600160a01b031660009081526007602052604090205490565b6101fd61033c366004611a44565b7f00000000000000000000000000000000000000000000000000000000000000006001600160a01b0390811691161490565b60015460ff166101fd565b6101fd610387366004611a44565b611284565b610248600080516020611c6083398151915281565b61029c611330565b6004546103bc906001600160a01b031681565b6040516001600160a01b039091168152602001610209565b6101fd6103e2366004611a61565b61136e565b6001546103bc9061010090046001600160a01b031681565b610248600081565b6003546103bc906001600160a01b031681565b61029c610428366004611a91565b611397565b6101fd61043b366004611a44565b6113ab565b6101fd61044e366004611a44565b61142e565b6002546103bc906001600160a01b031681565b61029c610474366004611a61565b6114b1565b6005546103bc906001600160a01b031681565b61029c61049a366004611a61565b6114d6565b6102487f241ecf16d79d0f8dbfb92cbc07fe17840425976cf0667f022fe9877caa831b0881565b60006001600160e01b03198216637965db0b60e01b14806104f757506301ffc9a760e01b6001600160e01b03198316145b92915050565b600061050761150c565b6001600160a01b03841661055e5760405162461bcd60e51b81526020600482015260196024820152781cdd18589b19551bdad95b8818d85b89dd081899481b9d5b1b603a1b60448201526064015b60405180910390fd5b6001600160a01b0382166105ac5760405162461bcd60e51b81526020600482015260156024820152741c185c9d1b995c8818d85b89dd081899481b9d5b1b605a1b6044820152606401610555565b600083116105cc5760405162461bcd60e51b815260040161055590611b23565b600554849084906001600160a01b03166370a082316105e9611530565b6040516001600160e01b031960e084901b1681526001600160a01b039091166004820152602401602060405180830381865afa15801561062d573d6000803e3d6000fd5b505050506040513d601f19601f820116820180604052508101906106519190611b66565b10156106925760405162461bcd60e51b815260206004820152601060248201526f0a8ded6cadc40dcdee840cadcdeeaced60831b6044820152606401610555565b60055484906001600160a01b031663dd62ed3e6106ad611530565b6040516001600160e01b031960e084901b1681526001600160a01b039091166004820152306024820152604401602060405180830381865afa1580156106f7573d6000803e3d6000fd5b505050506040513d601f19601f8201168201806040525081019061071b9190611b66565b10156107605760405162461bcd60e51b8152602060048201526014602482015273082d8d8deeec2dcc6ca40dcdee840cadcdeeaced60631b6044820152606401610555565b6005546001600160a01b03166323b872dd610779611530565b6040516001600160e01b031960e084901b1681526001600160a01b039091166004820152306024820152604481018790526064016020604051808303816000875af11580156107cc573d6000803e3d6000fd5b505050506040513d601f19601f820116820180604052508101906107f09190611b7f565b5060055460035460405163095ea7b360e01b81526001600160a01b0391821660048201526024810187905291169063095ea7b3906044016020604051808303816000875af1158015610846573d6000803e3d6000fd5b505050506040513d601f19601f8201168201806040525081019061086a9190611b7f565b5060035460048054604051631a4ca37b60e21b81526001600160a01b03918216928101929092526024820187905230604483015260009216906369328dec906064016020604051808303816000875af11580156108cb573d6000803e3d6000fd5b505050506040513d601f19601f820116820180604052508101906108ef9190611b66565b6004805460015460405163095ea7b360e01b81526101009091046001600160a01b039081169382019390935260248101849052929350169063095ea7b3906044016020604051808303816000875af115801561094f573d6000803e3d6000fd5b505050506040513d601f19601f820116820180604052508101906109739190611b7f565b5060015460405163a7ed89d160e01b81526001600160a01b0388811660048301526024820184905286811660448301526000926101009004169063a7ed89d1906064016020604051808303816000875af11580156109d5573d6000803e3d6000fd5b505050506040513d601f19601f820116820180604052508101906109f99190611b66565b9050826001600160a01b031663a9059cbb610a12611530565b6040516001600160e01b031960e084901b1681526001600160a01b039091166004820152602481018490526044016020604051808303816000875af1158015610a5f573d6000803e3d6000fd5b505050506040513d601f19601f82011682018060405250810190610a839190611b7f565b508160076000610a91611530565b6001600160a01b03166001600160a01b0316815260200190815260200160002054610abc9190611ba1565b60076000610ac8611530565b6001600160a01b03168152602081019190915260400160002055506001925050505b9392505050565b6000610b0d600080516020611c608339815191526103e2611530565b610b295760405162461bcd60e51b815260040161055590611bc2565b6001600160a01b038216610b4f5760405162461bcd60e51b815260040161055590611bf9565b50600480546001600160a01b0383166001600160a01b03199091161790556001919050565b600082815260208190526040902060010154610b8f8161153f565b610b998383611553565b50505050565b6000610ba961150c565b6001600160a01b038416610bfb5760405162461bcd60e51b81526020600482015260196024820152781cdd18589b19551bdad95b8818d85b89dd081899481b9d5b1b603a1b6044820152606401610555565b60008311610c1b5760405162461bcd60e51b815260040161055590611b23565b83836001600160a01b0382166370a08231610c34611530565b6040516001600160e01b031960e084901b1681526001600160a01b039091166004820152602401602060405180830381865afa158015610c78573d6000803e3d6000fd5b505050506040513d601f19601f82011682018060405250810190610c9c9190611b66565b1015610cdd5760405162461bcd60e51b815260206004820152601060248201526f0a8ded6cadc40dcdee840cadcdeeaced60831b6044820152606401610555565b83816001600160a01b031663dd62ed3e610cf5611530565b6040516001600160e01b031960e084901b1681526001600160a01b039091166004820152306024820152604401602060405180830381865afa158015610d3f573d6000803e3d6000fd5b505050506040513d601f19601f82011682018060405250810190610d639190611b66565b1015610da85760405162461bcd60e51b8152602060048201526014602482015273082d8d8deeec2dcc6ca40dcdee840cadcdeeaced60631b6044820152606401610555565b806001600160a01b03166323b872dd610dbf611530565b6040516001600160e01b031960e084901b1681526001600160a01b039091166004820152306024820152604481018790526064016020604051808303816000875af1158015610e12573d6000803e3d6000fd5b505050506040513d601f19601f82011682018060405250810190610e369190611b7f565b5060015460405163095ea7b360e01b81526101009091046001600160a01b0390811660048301526024820186905282169063095ea7b3906044016020604051808303816000875af1158015610e8f573d6000803e3d6000fd5b505050506040513d601f19601f82011682018060405250810190610eb39190611b7f565b5060015460405163167f4deb60e01b81526001600160a01b0387811660048301526024820187905285811660448301526101009092049091169063167f4deb906064016020604051808303816000875af1158015610f15573d6000803e3d6000fd5b505050506040513d601f19601f82011682018060405250810190610f399190611b66565b50600480546040516370a0823160e01b815230928101929092526000916001600160a01b03909116906370a0823190602401602060405180830381865afa158015610f88573d6000803e3d6000fd5b505050506040513d601f19601f82011682018060405250810190610fac9190611b66565b90508060076000610fbb611530565b6001600160a01b039081168252602082019290925260409081016000209290925560048054600354935163095ea7b360e01b81529383169184019190915260248301849052169063095ea7b3906044016020604051808303816000875af115801561102a573d6000803e3d6000fd5b505050506040513d601f19601f8201168201806040525081019061104e9190611b7f565b506003546004546001600160a01b039182169163617ba037911683611071611530565b60405160e085901b6001600160e01b03191681526001600160a01b0393841660048201526024810192909252909116604482015260006064820152608401600060405180830381600087803b1580156110c957600080fd5b505af11580156110dd573d6000803e3d6000fd5b5060019998505050505050505050565b6000611109600080516020611c608339815191526103e2611530565b6111255760405162461bcd60e51b815260040161055590611bc2565b60405163a9059cbb60e01b81526001600160a01b0384811660048301526024820184905285919082169063a9059cbb906044016020604051808303816000875af1158015611177573d6000803e3d6000fd5b505050506040513d601f19601f8201168201806040525081019061119b9190611b7f565b50600195945050505050565b6111af611530565b6001600160a01b0316816001600160a01b0316146111e05760405163334bd91960e11b815260040160405180910390fd5b6111ea82826115e6565b505050565b611209600080516020611c608339815191526103e2611530565b6112255760405162461bcd60e51b815260040161055590611bc2565b61122d61166f565b565b611249600080516020611c608339815191526103e2611530565b6112655760405162461bcd60e51b815260040161055590611bc2565b6111ea8282611553565b610b996001600160a01b0385168484846116c7565b60006112a0600080516020611c608339815191526103e2611530565b6112bc5760405162461bcd60e51b815260040161055590611bc2565b6001600160a01b0382166113085760405162461bcd60e51b815260206004820152601360248201527206d616e616765722063616e6e6f74206265203606c1b6044820152606401610555565b50600180546001600160a01b03831661010002610100600160a81b0319909116178155919050565b61134a600080516020611c608339815191526103e2611530565b6113665760405162461bcd60e51b815260040161055590611bc2565b61122d61172e565b6000918252602082815260408084206001600160a01b0393909316845291905290205460ff1690565b6111ea6001600160a01b038416838361176b565b60006113c7600080516020611c608339815191526103e2611530565b6113e35760405162461bcd60e51b815260040161055590611bc2565b6001600160a01b0382166114095760405162461bcd60e51b815260040161055590611bf9565b50600580546001600160a01b0383166001600160a01b03199091161790556001919050565b600061144a600080516020611c608339815191526103e2611530565b6114665760405162461bcd60e51b815260040161055590611bc2565b6001600160a01b03821661148c5760405162461bcd60e51b815260040161055590611bf9565b50600380546001600160a01b0383166001600160a01b03199091161790556001919050565b6000828152602081905260409020600101546114cc8161153f565b610b9983836115e6565b6114f0600080516020611c608339815191526103e2611530565b6111e05760405162461bcd60e51b815260040161055590611bc2565b60015460ff161561122d5760405163d93c066560e01b815260040160405180910390fd5b600061153a61179c565b905090565b6115508161154b611530565b6117e0565b50565b600061155f838361136e565b6115de576000838152602081815260408083206001600160a01b03861684529091529020805460ff19166001179055611596611530565b6001600160a01b0316826001600160a01b0316847f2f8788117e7eff1d82e926ec794901d17c78024a50270940304540a733656f0d60405160405180910390a45060016104f7565b5060006104f7565b60006115f2838361136e565b156115de576000838152602081815260408083206001600160a01b03861684529091529020805460ff19169055611627611530565b6001600160a01b0316826001600160a01b0316847ff6391f5c32d9c69d2a47ea670b442974b53935d1edc7fd64eb21e047a839171b60405160405180910390a45060016104f7565b61167761181d565b6001805460ff191690557f5db9ee0a495bf2e6ff9c91a7834c1ba4fdd244a5e8aa4e537bd38aeae4b073aa6116aa611530565b6040516001600160a01b03909116815260200160405180910390a1565b6040516001600160a01b038481166024830152838116604483015260648201839052610b999186918216906323b872dd906084015b604051602081830303815290604052915060e01b6020820180516001600160e01b038381831617835250505050611840565b61173661150c565b6001805460ff1916811790557f62e78cea01bee320cd4e420270b5ea74000d11b0c9f74754ebdbfc544b05a2586116aa611530565b6040516001600160a01b038381166024830152604482018390526111ea91859182169063a9059cbb906064016116fc565b60007f00000000000000000000000000000000000000000000000000000000000000006001600160a01b031633036117db575060131936013560601c90565b503390565b6117ea828261136e565b6118195760405163e2517d3f60e01b81526001600160a01b038216600482015260248101839052604401610555565b5050565b60015460ff1661122d57604051638dfc202b60e01b815260040160405180910390fd5b60006118556001600160a01b038416836118a3565b9050805160001415801561187a5750808060200190518101906118789190611b7f565b155b156111ea57604051635274afe760e01b81526001600160a01b0384166004820152602401610555565b6060610aea8383600084600080856001600160a01b031684866040516118c99190611c30565b60006040518083038185875af1925050503d8060008114611906576040519150601f19603f3d011682016040523d82523d6000602084013e61190b565b606091505b509150915061191b868383611925565b9695505050505050565b60608261193a5761193582611981565b610aea565b815115801561195157506001600160a01b0384163b155b1561197a57604051639996b31560e01b81526001600160a01b0385166004820152602401610555565b5080610aea565b8051156119915780518082602001fd5b604051630a12f52160e11b815260040160405180910390fd5b6000602082840312156119bc57600080fd5b81356001600160e01b031981168114610aea57600080fd5b6001600160a01b038116811461155057600080fd5b6000806000606084860312156119fe57600080fd5b8335611a09816119d4565b9250602084013591506040840135611a20816119d4565b809150509250925092565b600060208284031215611a3d57600080fd5b5035919050565b600060208284031215611a5657600080fd5b8135610aea816119d4565b60008060408385031215611a7457600080fd5b823591506020830135611a86816119d4565b809150509250929050565b600080600060608486031215611aa657600080fd5b8335611ab1816119d4565b92506020840135611ac1816119d4565b929592945050506040919091013590565b60008060008060808587031215611ae857600080fd5b8435611af3816119d4565b93506020850135611b03816119d4565b92506040850135611b13816119d4565b9396929550929360600135925050565b60208082526023908201527f416d6f756e74206e65656420746f2062652067726561746572207468616e207a60408201526265726f60e81b606082015260800190565b600060208284031215611b7857600080fd5b5051919050565b600060208284031215611b9157600080fd5b81518015158114610aea57600080fd5b818103818111156104f757634e487b7160e01b600052601160045260246000fd5b60208082526019908201527f4d75737420686176652041444d494e5f524f4c4520726f6c6500000000000000604082015260600190565b60208082526017908201527f537461626c653120646f657374206e6f74206578697374000000000000000000604082015260600190565b6000825160005b81811015611c515760208186018101518583015201611c37565b50600092019182525091905056fea49807205ce4d355092ef5a8a18f56e8913cf4a201fbe287825b095693c21775a26469706673582212205c21fe9e008a3ef7ae11aca823ba1997415e87efea3323acf583eac654db500264736f6c63430008140033",
  "linkReferences": {},
  "deployedLinkReferences": {}
}