{
  "_format": "hh-sol-artifact-1",
  "contractName": "FeeManager",
  "sourceName": "contracts/FeeManager.sol",
  "abi": [
    {
      "inputs": [
        {
          "internalType": "address",
          "name": "trustedForwarder",
          "type": "address"
        }
      ],
      "stateMutability": "nonpayable",
      "type": "constructor"
    },
    {
      "inputs": [],
      "name": "AccessControlBadConfirmation",
      "type": "error"
    },
    {
      "inputs": [
        {
          "internalType": "address",
          "name": "account",
          "type": "address"
        },
        {
          "internalType": "bytes32",
          "name": "neededRole",
          "type": "bytes32"
        }
      ],
      "name": "AccessControlUnauthorizedAccount",
      "type": "error"
    },
    {
      "anonymous": false,
      "inputs": [
        {
          "indexed": true,
          "internalType": "bytes32",
          "name": "role",
          "type": "bytes32"
        },
        {
          "indexed": true,
          "internalType": "bytes32",
          "name": "previousAdminRole",
          "type": "bytes32"
        },
        {
          "indexed": true,
          "internalType": "bytes32",
          "name": "newAdminRole",
          "type": "bytes32"
        }
      ],
      "name": "RoleAdminChanged",
      "type": "event"
    },
    {
      "anonymous": false,
      "inputs": [
        {
          "indexed": true,
          "internalType": "bytes32",
          "name": "role",
          "type": "bytes32"
        },
        {
          "indexed": true,
          "internalType": "address",
          "name": "account",
          "type": "address"
        },
        {
          "indexed": true,
          "internalType": "address",
          "name": "sender",
          "type": "address"
        }
      ],
      "name": "RoleGranted",
      "type": "event"
    },
    {
      "anonymous": false,
      "inputs": [
        {
          "indexed": true,
          "internalType": "bytes32",
          "name": "role",
          "type": "bytes32"
        },
        {
          "indexed": true,
          "internalType": "address",
          "name": "account",
          "type": "address"
        },
        {
          "indexed": true,
          "internalType": "address",
          "name": "sender",
          "type": "address"
        }
      ],
      "name": "RoleRevoked",
      "type": "event"
    },
    {
      "inputs": [],
      "name": "ADMIN_ROLE",
      "outputs": [
        {
          "internalType": "bytes32",
          "name": "",
          "type": "bytes32"
        }
      ],
      "stateMutability": "view",
      "type": "function"
    },
    {
      "inputs": [],
      "name": "DEFAULT_ADMIN_ROLE",
      "outputs": [
        {
          "internalType": "bytes32",
          "name": "",
          "type": "bytes32"
        }
      ],
      "stateMutability": "view",
      "type": "function"
    },
    {
      "inputs": [],
      "name": "MANAGER_ROLE",
      "outputs": [
        {
          "internalType": "bytes32",
          "name": "",
          "type": "bytes32"
        }
      ],
      "stateMutability": "view",
      "type": "function"
    },
    {
      "inputs": [
        {
          "internalType": "address",
          "name": "newOwner",
          "type": "address"
        }
      ],
      "name": "addOwner",
      "outputs": [],
      "stateMutability": "nonpayable",
      "type": "function"
    },
    {
      "inputs": [
        {
          "internalType": "address",
          "name": "_wallet",
          "type": "address"
        },
        {
          "internalType": "uint256",
          "name": "_fee",
          "type": "uint256"
        }
      ],
      "name": "addPartner",
      "outputs": [],
      "stateMutability": "nonpayable",
      "type": "function"
    },
    {
      "inputs": [
        {
          "internalType": "enum FeeManager.Service",
          "name": "service",
          "type": "uint8"
        },
        {
          "internalType": "uint256",
          "name": "amount",
          "type": "uint256"
        }
      ],
      "name": "calculateFeeAmount",
      "outputs": [
        {
          "internalType": "uint256",
          "name": "",
          "type": "uint256"
        }
      ],
      "stateMutability": "view",
      "type": "function"
    },
    {
      "inputs": [
        {
          "internalType": "address",
          "name": "_partner",
          "type": "address"
        },
        {
          "internalType": "uint256",
          "name": "amount",
          "type": "uint256"
        }
      ],
      "name": "calculatePartnerAmount",
      "outputs": [
        {
          "internalType": "uint256",
          "name": "",
          "type": "uint256"
        }
      ],
      "stateMutability": "view",
      "type": "function"
    },
    {
      "inputs": [
        {
          "internalType": "enum FeeManager.Service",
          "name": "service",
          "type": "uint8"
        },
        {
          "internalType": "uint256",
          "name": "value",
          "type": "uint256"
        }
      ],
      "name": "changeFee",
      "outputs": [],
      "stateMutability": "nonpayable",
      "type": "function"
    },
    {
      "inputs": [
        {
          "internalType": "enum FeeManager.Service",
          "name": "",
          "type": "uint8"
        }
      ],
      "name": "fees",
      "outputs": [
        {
          "internalType": "uint256",
          "name": "",
          "type": "uint256"
        }
      ],
      "stateMutability": "view",
      "type": "function"
    },
    {
      "inputs": [],
      "name": "getAllPartners",
      "outputs": [
        {
          "components": [
            {
              "internalType": "address",
              "name": "wallet",
              "type": "address"
            },
            {
              "internalType": "uint256",
              "name": "fee",
              "type": "uint256"
            }
          ],
          "internalType": "struct FeeManager.PartnersFee[]",
          "name": "",
          "type": "tuple[]"
        }
      ],
      "stateMutability": "view",
      "type": "function"
    },
    {
      "inputs": [
        {
          "internalType": "uint256",
          "name": "_index",
          "type": "uint256"
        }
      ],
      "name": "getPartner",
      "outputs": [
        {
          "components": [
            {
              "internalType": "address",
              "name": "wallet",
              "type": "address"
            },
            {
              "internalType": "uint256",
              "name": "fee",
              "type": "uint256"
            }
          ],
          "internalType": "struct FeeManager.PartnersFee",
          "name": "",
          "type": "tuple"
        }
      ],
      "stateMutability": "view",
      "type": "function"
    },
    {
      "inputs": [
        {
          "internalType": "address",
          "name": "_wallet",
          "type": "address"
        }
      ],
      "name": "getPartnerByWallet",
      "outputs": [
        {
          "components": [
            {
              "internalType": "address",
              "name": "wallet",
              "type": "address"
            },
            {
              "internalType": "uint256",
              "name": "fee",
              "type": "uint256"
            }
          ],
          "internalType": "struct FeeManager.PartnersFee",
          "name": "",
          "type": "tuple"
        }
      ],
      "stateMutability": "view",
      "type": "function"
    },
    {
      "inputs": [
        {
          "internalType": "bytes32",
          "name": "role",
          "type": "bytes32"
        }
      ],
      "name": "getRoleAdmin",
      "outputs": [
        {
          "internalType": "bytes32",
          "name": "",
          "type": "bytes32"
        }
      ],
      "stateMutability": "view",
      "type": "function"
    },
    {
      "inputs": [
        {
          "internalType": "address",
          "name": "account",
          "type": "address"
        }
      ],
      "name": "grantManagerRole",
      "outputs": [],
      "stateMutability": "nonpayable",
      "type": "function"
    },
    {
      "inputs": [
        {
          "internalType": "bytes32",
          "name": "role",
          "type": "bytes32"
        },
        {
          "internalType": "address",
          "name": "account",
          "type": "address"
        }
      ],
      "name": "grantRole",
      "outputs": [],
      "stateMutability": "nonpayable",
      "type": "function"
    },
    {
      "inputs": [
        {
          "internalType": "bytes32",
          "name": "role",
          "type": "bytes32"
        },
        {
          "internalType": "address",
          "name": "account",
          "type": "address"
        }
      ],
      "name": "hasRole",
      "outputs": [
        {
          "internalType": "bool",
          "name": "",
          "type": "bool"
        }
      ],
      "stateMutability": "view",
      "type": "function"
    },
    {
      "inputs": [
        {
          "internalType": "address",
          "name": "forwarder",
          "type": "address"
        }
      ],
      "name": "isTrustedForwarder",
      "outputs": [
        {
          "internalType": "bool",
          "name": "",
          "type": "bool"
        }
      ],
      "stateMutability": "view",
      "type": "function"
    },
    {
      "inputs": [
        {
          "internalType": "address",
          "name": "",
          "type": "address"
        }
      ],
      "name": "partnerIndexes",
      "outputs": [
        {
          "internalType": "uint256",
          "name": "",
          "type": "uint256"
        }
      ],
      "stateMutability": "view",
      "type": "function"
    },
    {
      "inputs": [
        {
          "internalType": "uint256",
          "name": "",
          "type": "uint256"
        }
      ],
      "name": "partnersFees",
      "outputs": [
        {
          "internalType": "address",
          "name": "wallet",
          "type": "address"
        },
        {
          "internalType": "uint256",
          "name": "fee",
          "type": "uint256"
        }
      ],
      "stateMutability": "view",
      "type": "function"
    },
    {
      "inputs": [
        {
          "internalType": "address",
          "name": "_wallet",
          "type": "address"
        }
      ],
      "name": "removePartner",
      "outputs": [],
      "stateMutability": "nonpayable",
      "type": "function"
    },
    {
      "inputs": [
        {
          "internalType": "bytes32",
          "name": "role",
          "type": "bytes32"
        },
        {
          "internalType": "address",
          "name": "callerConfirmation",
          "type": "address"
        }
      ],
      "name": "renounceRole",
      "outputs": [],
      "stateMutability": "nonpayable",
      "type": "function"
    },
    {
      "inputs": [
        {
          "internalType": "bytes32",
          "name": "role",
          "type": "bytes32"
        },
        {
          "internalType": "address",
          "name": "account",
          "type": "address"
        }
      ],
      "name": "revokeRole",
      "outputs": [],
      "stateMutability": "nonpayable",
      "type": "function"
    },
    {
      "inputs": [
        {
          "internalType": "bytes4",
          "name": "interfaceId",
          "type": "bytes4"
        }
      ],
      "name": "supportsInterface",
      "outputs": [
        {
          "internalType": "bool",
          "name": "",
          "type": "bool"
        }
      ],
      "stateMutability": "view",
      "type": "function"
    },
    {
      "inputs": [
        {
          "internalType": "address",
          "name": "_wallet",
          "type": "address"
        },
        {
          "internalType": "uint256",
          "name": "_newFee",
          "type": "uint256"
        }
      ],
      "name": "updatePartnerFee",
      "outputs": [],
      "stateMutability": "nonpayable",
      "type": "function"
    }
  ],
  "bytecode": "0x60a06040523480156200001157600080fd5b50604051620018c9380380620018c9833981016040819052620000349162000527565b6001600160a01b0381166080526200004b6200014f565b600480546001600160a01b0319166001600160a01b03929092169182179055620000789060009062000160565b50600454620000a19060008051602062001889833981519152906001600160a01b031662000160565b50600454620000db907f241ecf16d79d0f8dbfb92cbc07fe17840425976cf0667f022fe9877caa831b08906001600160a01b031662000160565b50600454620000f5906001600160a01b0316600062000211565b62000102600080620003f6565b6200011060016000620003f6565b6200011e60026000620003f6565b6200012c60036000620003f6565b6200013a60046000620003f6565b6200014860056000620003f6565b50620005a7565b60006200015b620004ff565b905090565b6000828152602081815260408083206001600160a01b038516845290915281205460ff1662000207576000838152602081815260408083206001600160a01b03861684529091529020805460ff19166001179055620001be6200014f565b6001600160a01b0316826001600160a01b0316847f2f8788117e7eff1d82e926ec794901d17c78024a50270940304540a733656f0d60405160405180910390a45060016200020b565b5060005b92915050565b62000258600080516020620018898339815191526200022f6200014f565b6000918252602082815260408084206001600160a01b0393909316845291905290205460ff1690565b620002995760405162461bcd60e51b81526020600482018190526024820152600080516020620018a983398151915260448201526064015b60405180910390fd5b6001600160a01b038216620002f15760405162461bcd60e51b815260206004820152601660248201527f496e76616c69642077616c6c6574206164647265737300000000000000000000604482015260640162000290565b6001600160a01b03821660009081526003602052604081205490819003620003b957506040805180820182526001600160a01b03938416808252602080830194855260028054600181018255600082815294517f405787fa12a823e0f2b7631cc41b3ba8828b3321ca811111fa75cd3aa3bb5ace91830291820180546001600160a01b031916919099161790975594517f405787fa12a823e0f2b7631cc41b3ba8828b3321ca811111fa75cd3aa3bb5acf909601959095559254928152600390935290912055565b816002620003c960018462000559565b81548110620003dc57620003dc6200057b565b906000526020600020906002020160010181905550505050565b62000414600080516020620018898339815191526200022f6200014f565b620004515760405162461bcd60e51b81526020600482018190526024820152600080516020620018a9833981519152604482015260640162000290565b62989680811115620004bc5760405162461bcd60e51b815260206004820152602d60248201527f4665654d616e616765723a2070657263656e74206d757374206265206265747760448201526c65656e203020616e642031302560981b606482015260840162000290565b8060016000846005811115620004d657620004d662000591565b6005811115620004ea57620004ea62000591565b81526020810191909152604001600020555050565b6080516000906001600160a01b0316330362000522575060131936013560601c90565b503390565b6000602082840312156200053a57600080fd5b81516001600160a01b03811681146200055257600080fd5b9392505050565b818103818111156200020b57634e487b7160e01b600052601160045260246000fd5b634e487b7160e01b600052603260045260246000fd5b634e487b7160e01b600052602160045260246000fd5b6080516112bf620005ca600039600081816102f20152610f5601526112bf6000f3fe608060405234801561001057600080fd5b50600436106101585760003560e01c80634ebc11f6116100c357806391d148541161007c57806391d148541461035d578063a217fddf14610370578063d3e83a0814610378578063d547741f1461038d578063ea3c281a146103a0578063ec87621c146103b357600080fd5b80634ebc11f61461029057806357210115146102c2578063572b6c05146102e25780637065cb481461032257806375b238fc146103355780637fc966191461034a57600080fd5b806326e885e31161011557806326e885e3146102045780632f2ff15d14610217578063357c13541461022a57806336568abe1461024a5780633c0578951461025d57806347203d5b1461027d57600080fd5b806301ffc9a71461015d5780630c040b471461018557806313a7e54e146101a65780631de309bf146101bb57806322e7d115146101ce578063248a9ca3146101e1575b600080fd5b61017061016b366004610fcf565b6103da565b60405190151581526020015b60405180910390f35b61019861019336600461100d565b610411565b60405190815260200161017c565b6101b96101b436600461100d565b6104ba565b005b6101b96101c936600461104e565b610596565b6101b96101dc36600461104e565b61063a565b6101986101ef36600461106a565b60009081526020819052604090206001015490565b6101b9610212366004611083565b61078b565b6101b961022536600461109e565b6107ef565b6101986102383660046110ca565b60016020526000908152604090205481565b6101b961025836600461109e565b61081a565b61027061026b366004611083565b61085d565b60405161017c91906110e5565b61019861028b36600461104e565b6108fe565b6102a361029e36600461106a565b6109d5565b604080516001600160a01b03909316835260208301919091520161017c565b6101986102d0366004611083565b60036020526000908152604090205481565b6101706102f0366004611083565b7f00000000000000000000000000000000000000000000000000000000000000006001600160a01b0390811691161490565b6101b9610330366004611083565b610a0d565b61019860008051602061126a83398151915281565b61027061035836600461106a565b610abb565b61017061036b36600461109e565b610b62565b610198600081565b610380610b8b565b60405161017c9190611105565b6101b961039b36600461109e565b610c00565b6101b96103ae366004611083565b610c25565b6101987f241ecf16d79d0f8dbfb92cbc07fe17840425976cf0667f022fe9877caa831b0881565b60006001600160e01b03198216637965db0b60e01b148061040b57506301ffc9a760e01b6001600160e01b03198316145b92915050565b6000610421565b60405180910390fd5b6000806001600086600581111561043a5761043a611165565b600581111561044b5761044b611165565b81526020019081526020016000205411156104b3576305f5e1006001600086600581111561047b5761047b611165565b600581111561048c5761048c611165565b815260200190815260200160002054846104a69190611191565b6104b091906111a8565b90505b9392505050565b6104d460008051602061126a83398151915261036b610e13565b6104f05760405162461bcd60e51b8152600401610418906111ca565b629896808111156105595760405162461bcd60e51b815260206004820152602d60248201527f4665654d616e616765723a2070657263656e74206d757374206265206265747760448201526c65656e203020616e642031302560981b6064820152608401610418565b806001600084600581111561057057610570611165565b600581111561058157610581611165565b81526020810191909152604001600020555050565b6105b060008051602061126a83398151915261036b610e13565b6105cc5760405162461bcd60e51b8152600401610418906111ca565b6001600160a01b038216600090815260036020526040902054806106025760405162461bcd60e51b8152600401610418906111ff565b81600261061060018461122a565b815481106106205761062061123d565b906000526020600020906002020160010181905550505050565b61065460008051602061126a83398151915261036b610e13565b6106705760405162461bcd60e51b8152600401610418906111ca565b6001600160a01b0382166106bf5760405162461bcd60e51b8152602060048201526016602482015275496e76616c69642077616c6c6574206164647265737360501b6044820152606401610418565b6001600160a01b0382166000908152600360205260408120549081900361060257506040805180820182526001600160a01b03938416808252602080830194855260028054600181018255600082815294517f405787fa12a823e0f2b7631cc41b3ba8828b3321ca811111fa75cd3aa3bb5ace91830291820180546001600160a01b031916919099161790975594517f405787fa12a823e0f2b7631cc41b3ba8828b3321ca811111fa75cd3aa3bb5acf909601959095559254928152600390935290912055565b505050565b6107a560008051602061126a83398151915261036b610e13565b6107c15760405162461bcd60e51b8152600401610418906111ca565b6107eb7f241ecf16d79d0f8dbfb92cbc07fe17840425976cf0667f022fe9877caa831b0882610e22565b5050565b60008281526020819052604090206001015461080a81610eb5565b6108148383610e22565b50505050565b610822610e13565b6001600160a01b0316816001600160a01b0316146108535760405163334bd91960e11b815260040160405180910390fd5b6107868282610ec9565b60408051808201909152600080825260208201526001600160a01b038216600090815260036020526040902054806108a75760405162461bcd60e51b8152600401610418906111ff565b60026108b460018361122a565b815481106108c4576108c461123d565b60009182526020918290206040805180820190915260029092020180546001600160a01b0316825260010154918101919091529392505050565b604080518082018252600080825260208083018290526001600160a01b03861682526003905291822054801561098557600261093b60018361122a565b8154811061094b5761094b61123d565b60009182526020918290206040805180820190915260029092020180546001600160a01b031682526001015491810191909152915061099d565b60045461099a906001600160a01b031661085d565b91505b6020820151600090156109cc576305f5e1008360200151866109bf9190611191565b6109c991906111a8565b90505b95945050505050565b600281815481106109e557600080fd5b6000918252602090912060029091020180546001909101546001600160a01b03909116915082565b610a2760008051602061126a83398151915261036b610e13565b610a435760405162461bcd60e51b8152600401610418906111ca565b6001600160a01b038116610a995760405162461bcd60e51b815260206004820152601860248201527f496e76616c6964206e65774f776e6572206164647265737300000000000000006044820152606401610418565b600480546001600160a01b0319166001600160a01b0392909216919091179055565b60408051808201909152600080825260208201526002548210610b165760405162461bcd60e51b8152602060048201526013602482015272496e646578206f7574206f6620626f756e647360681b6044820152606401610418565b60028281548110610b2957610b2961123d565b60009182526020918290206040805180820190915260029092020180546001600160a01b03168252600101549181019190915292915050565b6000918252602082815260408084206001600160a01b0393909316845291905290205460ff1690565b60606002805480602002602001604051908101604052809291908181526020016000905b82821015610bf7576000848152602090819020604080518082019091526002850290910180546001600160a01b03168252600190810154828401529083529092019101610baf565b50505050905090565b600082815260208190526040902060010154610c1b81610eb5565b6108148383610ec9565b610c3f60008051602061126a83398151915261036b610e13565b610c5b5760405162461bcd60e51b8152600401610418906111ca565b6001600160a01b03811660009081526003602052604090205480610c915760405162461bcd60e51b8152600401610418906111ff565b6002548103610cd9576002805480610cab57610cab611253565b60008281526020812060026000199093019283020180546001600160a01b0319168155600101559055610d9c565b60028054610ce99060019061122a565b81548110610cf957610cf961123d565b90600052602060002090600202016002600183610d16919061122a565b81548110610d2657610d2661123d565b600091825260209091208254600292830290910180546001600160a01b0319166001600160a01b03909216919091178155600192830154920191909155805480610d7257610d72611253565b60008281526020812060026000199093019283020180546001600160a01b03191681556001015590555b60025415610df857806003600060026001600280549050610dbd919061122a565b81548110610dcd57610dcd61123d565b600091825260208083206002909202909101546001600160a01b031683528201929092526040019020555b506001600160a01b0316600090815260036020526040812055565b6000610e1d610f52565b905090565b6000610e2e8383610b62565b610ead576000838152602081815260408083206001600160a01b03861684529091529020805460ff19166001179055610e65610e13565b6001600160a01b0316826001600160a01b0316847f2f8788117e7eff1d82e926ec794901d17c78024a50270940304540a733656f0d60405160405180910390a450600161040b565b50600061040b565b610ec681610ec1610e13565b610f96565b50565b6000610ed58383610b62565b15610ead576000838152602081815260408083206001600160a01b03861684529091529020805460ff19169055610f0a610e13565b6001600160a01b0316826001600160a01b0316847ff6391f5c32d9c69d2a47ea670b442974b53935d1edc7fd64eb21e047a839171b60405160405180910390a450600161040b565b60007f00000000000000000000000000000000000000000000000000000000000000006001600160a01b03163303610f91575060131936013560601c90565b503390565b610fa08282610b62565b6107eb5760405163e2517d3f60e01b81526001600160a01b038216600482015260248101839052604401610418565b600060208284031215610fe157600080fd5b81356001600160e01b0319811681146104b357600080fd5b80356006811061100857600080fd5b919050565b6000806040838503121561102057600080fd5b61102983610ff9565b946020939093013593505050565b80356001600160a01b038116811461100857600080fd5b6000806040838503121561106157600080fd5b61102983611037565b60006020828403121561107c57600080fd5b5035919050565b60006020828403121561109557600080fd5b6104b382611037565b600080604083850312156110b157600080fd5b823591506110c160208401611037565b90509250929050565b6000602082840312156110dc57600080fd5b6104b382610ff9565b81516001600160a01b03168152602080830151908201526040810161040b565b602080825282518282018190526000919060409081850190868401855b828110156111585761114884835180516001600160a01b03168252602090810151910152565b9284019290850190600101611122565b5091979650505050505050565b634e487b7160e01b600052602160045260246000fd5b634e487b7160e01b600052601160045260246000fd5b808202811582820484141761040b5761040b61117b565b6000826111c557634e487b7160e01b600052601260045260246000fd5b500490565b6020808252818101527f4665654d616e616765723a206d7573742068617665206f776e657220726f6c65604082015260600190565b60208082526011908201527014185c9d1b995c881b9bdd08199bdd5b99607a1b604082015260600190565b8181038181111561040b5761040b61117b565b634e487b7160e01b600052603260045260246000fd5b634e487b7160e01b600052603160045260246000fdfea49807205ce4d355092ef5a8a18f56e8913cf4a201fbe287825b095693c21775a26469706673582212202c71967cb8bcd9a7b197ed765f8f65972cecf223f574dfe8e4c99fb3cf1ffaf664736f6c63430008140033a49807205ce4d355092ef5a8a18f56e8913cf4a201fbe287825b095693c217754665654d616e616765723a206d7573742068617665206f776e657220726f6c65",
  "linkReferences": {},
  "deployedLinkReferences": {}
}