{
  "_format": "hh-sol-artifact-1",
  "contractName": "ERC20Stable",
  "sourceName": "contracts/ERC20Stable.sol",
  "abi": [
    {
      "inputs": [
        {
          "internalType": "string",
          "name": "name",
          "type": "string"
        },
        {
          "internalType": "address",
          "name": "trustedForwarder",
          "type": "address"
        }
      ],
      "stateMutability": "nonpayable",
      "type": "constructor"
    },
    {
      "inputs": [],
      "name": "AccessControlBadConfirmation",
      "type": "error"
    },
    {
      "inputs": [
        {
          "internalType": "address",
          "name": "account",
          "type": "address"
        },
        {
          "internalType": "bytes32",
          "name": "neededRole",
          "type": "bytes32"
        }
      ],
      "name": "AccessControlUnauthorizedAccount",
      "type": "error"
    },
    {
      "inputs": [
        {
          "internalType": "address",
          "name": "spender",
          "type": "address"
        },
        {
          "internalType": "uint256",
          "name": "allowance",
          "type": "uint256"
        },
        {
          "internalType": "uint256",
          "name": "needed",
          "type": "uint256"
        }
      ],
      "name": "ERC20InsufficientAllowance",
      "type": "error"
    },
    {
      "inputs": [
        {
          "internalType": "address",
          "name": "sender",
          "type": "address"
        },
        {
          "internalType": "uint256",
          "name": "balance",
          "type": "uint256"
        },
        {
          "internalType": "uint256",
          "name": "needed",
          "type": "uint256"
        }
      ],
      "name": "ERC20InsufficientBalance",
      "type": "error"
    },
    {
      "inputs": [
        {
          "internalType": "address",
          "name": "approver",
          "type": "address"
        }
      ],
      "name": "ERC20InvalidApprover",
      "type": "error"
    },
    {
      "inputs": [
        {
          "internalType": "address",
          "name": "receiver",
          "type": "address"
        }
      ],
      "name": "ERC20InvalidReceiver",
      "type": "error"
    },
    {
      "inputs": [
        {
          "internalType": "address",
          "name": "sender",
          "type": "address"
        }
      ],
      "name": "ERC20InvalidSender",
      "type": "error"
    },
    {
      "inputs": [
        {
          "internalType": "address",
          "name": "spender",
          "type": "address"
        }
      ],
      "name": "ERC20InvalidSpender",
      "type": "error"
    },
    {
      "inputs": [],
      "name": "EnforcedPause",
      "type": "error"
    },
    {
      "inputs": [],
      "name": "ExpectedPause",
      "type": "error"
    },
    {
      "anonymous": false,
      "inputs": [
        {
          "indexed": true,
          "internalType": "address",
          "name": "owner",
          "type": "address"
        },
        {
          "indexed": true,
          "internalType": "address",
          "name": "spender",
          "type": "address"
        },
        {
          "indexed": false,
          "internalType": "uint256",
          "name": "value",
          "type": "uint256"
        }
      ],
      "name": "Approval",
      "type": "event"
    },
    {
      "anonymous": false,
      "inputs": [
        {
          "indexed": false,
          "internalType": "address",
          "name": "account",
          "type": "address"
        }
      ],
      "name": "Paused",
      "type": "event"
    },
    {
      "anonymous": false,
      "inputs": [
        {
          "indexed": true,
          "internalType": "bytes32",
          "name": "role",
          "type": "bytes32"
        },
        {
          "indexed": true,
          "internalType": "bytes32",
          "name": "previousAdminRole",
          "type": "bytes32"
        },
        {
          "indexed": true,
          "internalType": "bytes32",
          "name": "newAdminRole",
          "type": "bytes32"
        }
      ],
      "name": "RoleAdminChanged",
      "type": "event"
    },
    {
      "anonymous": false,
      "inputs": [
        {
          "indexed": true,
          "internalType": "bytes32",
          "name": "role",
          "type": "bytes32"
        },
        {
          "indexed": true,
          "internalType": "address",
          "name": "account",
          "type": "address"
        },
        {
          "indexed": true,
          "internalType": "address",
          "name": "sender",
          "type": "address"
        }
      ],
      "name": "RoleGranted",
      "type": "event"
    },
    {
      "anonymous": false,
      "inputs": [
        {
          "indexed": true,
          "internalType": "bytes32",
          "name": "role",
          "type": "bytes32"
        },
        {
          "indexed": true,
          "internalType": "address",
          "name": "account",
          "type": "address"
        },
        {
          "indexed": true,
          "internalType": "address",
          "name": "sender",
          "type": "address"
        }
      ],
      "name": "RoleRevoked",
      "type": "event"
    },
    {
      "anonymous": false,
      "inputs": [
        {
          "indexed": true,
          "internalType": "address",
          "name": "from",
          "type": "address"
        },
        {
          "indexed": true,
          "internalType": "address",
          "name": "to",
          "type": "address"
        },
        {
          "indexed": false,
          "internalType": "uint256",
          "name": "value",
          "type": "uint256"
        }
      ],
      "name": "Transfer",
      "type": "event"
    },
    {
      "anonymous": false,
      "inputs": [
        {
          "indexed": false,
          "internalType": "address",
          "name": "account",
          "type": "address"
        }
      ],
      "name": "Unpaused",
      "type": "event"
    },
    {
      "inputs": [],
      "name": "DEFAULT_ADMIN_ROLE",
      "outputs": [
        {
          "internalType": "bytes32",
          "name": "",
          "type": "bytes32"
        }
      ],
      "stateMutability": "view",
      "type": "function"
    },
    {
      "inputs": [],
      "name": "MINTER_ROLE",
      "outputs": [
        {
          "internalType": "bytes32",
          "name": "",
          "type": "bytes32"
        }
      ],
      "stateMutability": "view",
      "type": "function"
    },
    {
      "inputs": [],
      "name": "PAUSER_ROLE",
      "outputs": [
        {
          "internalType": "bytes32",
          "name": "",
          "type": "bytes32"
        }
      ],
      "stateMutability": "view",
      "type": "function"
    },
    {
      "inputs": [
        {
          "internalType": "address",
          "name": "owner",
          "type": "address"
        },
        {
          "internalType": "address",
          "name": "spender",
          "type": "address"
        }
      ],
      "name": "allowance",
      "outputs": [
        {
          "internalType": "uint256",
          "name": "",
          "type": "uint256"
        }
      ],
      "stateMutability": "view",
      "type": "function"
    },
    {
      "inputs": [
        {
          "internalType": "address",
          "name": "spender",
          "type": "address"
        },
        {
          "internalType": "uint256",
          "name": "value",
          "type": "uint256"
        }
      ],
      "name": "approve",
      "outputs": [
        {
          "internalType": "bool",
          "name": "",
          "type": "bool"
        }
      ],
      "stateMutability": "nonpayable",
      "type": "function"
    },
    {
      "inputs": [
        {
          "internalType": "address",
          "name": "account",
          "type": "address"
        }
      ],
      "name": "balanceOf",
      "outputs": [
        {
          "internalType": "uint256",
          "name": "",
          "type": "uint256"
        }
      ],
      "stateMutability": "view",
      "type": "function"
    },
    {
      "inputs": [
        {
          "internalType": "uint256",
          "name": "value",
          "type": "uint256"
        }
      ],
      "name": "burn",
      "outputs": [],
      "stateMutability": "nonpayable",
      "type": "function"
    },
    {
      "inputs": [
        {
          "internalType": "address",
          "name": "account",
          "type": "address"
        },
        {
          "internalType": "uint256",
          "name": "value",
          "type": "uint256"
        }
      ],
      "name": "burnFrom",
      "outputs": [],
      "stateMutability": "nonpayable",
      "type": "function"
    },
    {
      "inputs": [],
      "name": "decimals",
      "outputs": [
        {
          "internalType": "uint8",
          "name": "",
          "type": "uint8"
        }
      ],
      "stateMutability": "view",
      "type": "function"
    },
    {
      "inputs": [
        {
          "internalType": "bytes32",
          "name": "role",
          "type": "bytes32"
        }
      ],
      "name": "getRoleAdmin",
      "outputs": [
        {
          "internalType": "bytes32",
          "name": "",
          "type": "bytes32"
        }
      ],
      "stateMutability": "view",
      "type": "function"
    },
    {
      "inputs": [
        {
          "internalType": "bytes32",
          "name": "role",
          "type": "bytes32"
        },
        {
          "internalType": "address",
          "name": "account",
          "type": "address"
        }
      ],
      "name": "grantNewRole",
      "outputs": [],
      "stateMutability": "nonpayable",
      "type": "function"
    },
    {
      "inputs": [
        {
          "internalType": "bytes32",
          "name": "role",
          "type": "bytes32"
        },
        {
          "internalType": "address",
          "name": "account",
          "type": "address"
        }
      ],
      "name": "grantRole",
      "outputs": [],
      "stateMutability": "nonpayable",
      "type": "function"
    },
    {
      "inputs": [
        {
          "internalType": "bytes32",
          "name": "role",
          "type": "bytes32"
        },
        {
          "internalType": "address",
          "name": "account",
          "type": "address"
        }
      ],
      "name": "hasRole",
      "outputs": [
        {
          "internalType": "bool",
          "name": "",
          "type": "bool"
        }
      ],
      "stateMutability": "view",
      "type": "function"
    },
    {
      "inputs": [
        {
          "internalType": "address",
          "name": "forwarder",
          "type": "address"
        }
      ],
      "name": "isTrustedForwarder",
      "outputs": [
        {
          "internalType": "bool",
          "name": "",
          "type": "bool"
        }
      ],
      "stateMutability": "view",
      "type": "function"
    },
    {
      "inputs": [
        {
          "internalType": "address",
          "name": "to",
          "type": "address"
        },
        {
          "internalType": "uint256",
          "name": "amount",
          "type": "uint256"
        }
      ],
      "name": "mint",
      "outputs": [],
      "stateMutability": "nonpayable",
      "type": "function"
    },
    {
      "inputs": [],
      "name": "name",
      "outputs": [
        {
          "internalType": "string",
          "name": "",
          "type": "string"
        }
      ],
      "stateMutability": "view",
      "type": "function"
    },
    {
      "inputs": [],
      "name": "pause",
      "outputs": [],
      "stateMutability": "nonpayable",
      "type": "function"
    },
    {
      "inputs": [],
      "name": "paused",
      "outputs": [
        {
          "internalType": "bool",
          "name": "",
          "type": "bool"
        }
      ],
      "stateMutability": "view",
      "type": "function"
    },
    {
      "inputs": [
        {
          "internalType": "bytes32",
          "name": "role",
          "type": "bytes32"
        },
        {
          "internalType": "address",
          "name": "callerConfirmation",
          "type": "address"
        }
      ],
      "name": "renounceRole",
      "outputs": [],
      "stateMutability": "nonpayable",
      "type": "function"
    },
    {
      "inputs": [
        {
          "internalType": "bytes32",
          "name": "role",
          "type": "bytes32"
        },
        {
          "internalType": "address",
          "name": "account",
          "type": "address"
        }
      ],
      "name": "revokeRole",
      "outputs": [],
      "stateMutability": "nonpayable",
      "type": "function"
    },
    {
      "inputs": [
        {
          "internalType": "bytes32",
          "name": "role",
          "type": "bytes32"
        },
        {
          "internalType": "address",
          "name": "account",
          "type": "address"
        }
      ],
      "name": "revoveRole",
      "outputs": [],
      "stateMutability": "nonpayable",
      "type": "function"
    },
    {
      "inputs": [
        {
          "internalType": "bytes4",
          "name": "interfaceId",
          "type": "bytes4"
        }
      ],
      "name": "supportsInterface",
      "outputs": [
        {
          "internalType": "bool",
          "name": "",
          "type": "bool"
        }
      ],
      "stateMutability": "view",
      "type": "function"
    },
    {
      "inputs": [],
      "name": "symbol",
      "outputs": [
        {
          "internalType": "string",
          "name": "",
          "type": "string"
        }
      ],
      "stateMutability": "view",
      "type": "function"
    },
    {
      "inputs": [],
      "name": "totalSupply",
      "outputs": [
        {
          "internalType": "uint256",
          "name": "",
          "type": "uint256"
        }
      ],
      "stateMutability": "view",
      "type": "function"
    },
    {
      "inputs": [
        {
          "internalType": "address",
          "name": "to",
          "type": "address"
        },
        {
          "internalType": "uint256",
          "name": "value",
          "type": "uint256"
        }
      ],
      "name": "transfer",
      "outputs": [
        {
          "internalType": "bool",
          "name": "",
          "type": "bool"
        }
      ],
      "stateMutability": "nonpayable",
      "type": "function"
    },
    {
      "inputs": [
        {
          "internalType": "address",
          "name": "from",
          "type": "address"
        },
        {
          "internalType": "address",
          "name": "to",
          "type": "address"
        },
        {
          "internalType": "uint256",
          "name": "value",
          "type": "uint256"
        }
      ],
      "name": "transferFrom",
      "outputs": [
        {
          "internalType": "bool",
          "name": "",
          "type": "bool"
        }
      ],
      "stateMutability": "nonpayable",
      "type": "function"
    },
    {
      "inputs": [],
      "name": "unpause",
      "outputs": [],
      "stateMutability": "nonpayable",
      "type": "function"
    }
  ],
  "bytecode": "0x60a06040523480156200001157600080fd5b50604051620013ad380380620013ad83398101604081905262000034916200020d565b808280600362000045828262000384565b50600462000054828262000384565b50506005805460ff19169055506001600160a01b03166080526200008360006200007d620000ec565b620000fd565b50620000b37f65d7a28e3265b37a6474929f336521b332c1681b933f6cb9f3376673440d862a6200007d620000ec565b50620000e37f9f2df0fed2c77648de5860a4cc508cd0818c85b8b8a1ab4ceeef8d981c8956a66200007d620000ec565b50505062000450565b6000620000f8620001b2565b905090565b60008281526006602090815260408083206001600160a01b038516845290915281205460ff16620001a85760008381526006602090815260408083206001600160a01b03861684529091529020805460ff191660011790556200015f620000ec565b6001600160a01b0316826001600160a01b0316847f2f8788117e7eff1d82e926ec794901d17c78024a50270940304540a733656f0d60405160405180910390a4506001620001ac565b5060005b92915050565b6080516000906001600160a01b03163303620001d5575060131936013560601c90565b503390565b634e487b7160e01b600052604160045260246000fd5b80516001600160a01b03811681146200020857600080fd5b919050565b600080604083850312156200022157600080fd5b82516001600160401b03808211156200023957600080fd5b818501915085601f8301126200024e57600080fd5b815181811115620002635762000263620001da565b604051601f8201601f19908116603f011681019083821181831017156200028e576200028e620001da565b81604052828152602093508884848701011115620002ab57600080fd5b600091505b82821015620002cf5784820184015181830185015290830190620002b0565b6000848483010152809650505050620002ea818601620001f0565b925050509250929050565b600181811c908216806200030a57607f821691505b6020821081036200032b57634e487b7160e01b600052602260045260246000fd5b50919050565b601f8211156200037f57600081815260208120601f850160051c810160208610156200035a5750805b601f850160051c820191505b818110156200037b5782815560010162000366565b5050505b505050565b81516001600160401b03811115620003a057620003a0620001da565b620003b881620003b18454620002f5565b8462000331565b602080601f831160018114620003f05760008415620003d75750858301515b600019600386901b1c1916600185901b1785556200037b565b600085815260208120601f198616915b82811015620004215788860151825594840194600190910190840162000400565b5085821015620004405787850151600019600388901b60f8161c191681555b5050505050600190811b01905550565b608051610f3a62000473600039600081816102ce0152610a440152610f3a6000f3fe608060405234801561001057600080fd5b50600436106101a95760003560e01c8063572b6c05116100f9578063a217fddf11610097578063d547741f11610071578063d547741f146103aa578063dd62ed3e146103bd578063e2520bd0146103f6578063e63ab1e91461040957600080fd5b8063a217fddf14610368578063a9059cbb14610370578063d53913931461038357600080fd5b806379cc6790116100d357806379cc6790146103325780638456cb591461034557806391d148541461034d57806395d89b411461036057600080fd5b8063572b6c05146102be5780635c975abb146102fe57806370a082311461030957600080fd5b80632f2ff15d116101665780633f4ba83a116101405780633f4ba83a1461027d57806340c10f191461028557806342966c681461029857806346a0300c146102ab57600080fd5b80632f2ff15d14610246578063313ce5671461025b57806336568abe1461026a57600080fd5b806301ffc9a7146101ae57806306fdde03146101d6578063095ea7b3146101eb57806318160ddd146101fe57806323b872dd14610210578063248a9ca314610223575b600080fd5b6101c16101bc366004610d1e565b610430565b60405190151581526020015b60405180910390f35b6101de610467565b6040516101cd9190610d4f565b6101c16101f9366004610db9565b6104f9565b6002545b6040519081526020016101cd565b6101c161021e366004610de3565b61051b565b610202610231366004610e1f565b60009081526006602052604090206001015490565b610259610254366004610e38565b610549565b005b604051600681526020016101cd565b610259610278366004610e38565b610574565b6102596105bc565b610259610293366004610db9565b6105f1565b6102596102a6366004610e1f565b610625565b6102596102b9366004610e38565b610636565b6101c16102cc366004610e64565b7f00000000000000000000000000000000000000000000000000000000000000006001600160a01b0390811691161490565b60055460ff166101c1565b610202610317366004610e64565b6001600160a01b031660009081526020819052604090205490565b610259610340366004610db9565b610641565b610259610661565b6101c161035b366004610e38565b610693565b6101de6106be565b610202600081565b6101c161037e366004610db9565b6106cd565b6102027f9f2df0fed2c77648de5860a4cc508cd0818c85b8b8a1ab4ceeef8d981c8956a681565b6102596103b8366004610e38565b6106e5565b6102026103cb366004610e7f565b6001600160a01b03918216600090815260016020908152604080832093909416825291909152205490565b610259610404366004610e38565b61070a565b6102027f65d7a28e3265b37a6474929f336521b332c1681b933f6cb9f3376673440d862a81565b60006001600160e01b03198216637965db0b60e01b148061046157506301ffc9a760e01b6001600160e01b03198316145b92915050565b60606003805461047690610ea9565b80601f01602080910402602001604051908101604052809291908181526020018280546104a290610ea9565b80156104ef5780601f106104c4576101008083540402835291602001916104ef565b820191906000526020600020905b8154815290600101906020018083116104d257829003601f168201915b5050505050905090565b600080610504610715565b9050610511818585610724565b5060019392505050565b600080610526610715565b9050610533858285610731565b61053e8585856107ae565b506001949350505050565b6000828152600660205260409020600101546105648161080d565b61056e838361081e565b50505050565b61057c610715565b6001600160a01b0316816001600160a01b0316146105ad5760405163334bd91960e11b815260040160405180910390fd5b6105b782826108b3565b505050565b7f65d7a28e3265b37a6474929f336521b332c1681b933f6cb9f3376673440d862a6105e68161080d565b6105ee61093e565b50565b7f9f2df0fed2c77648de5860a4cc508cd0818c85b8b8a1ab4ceeef8d981c8956a661061b8161080d565b6105b78383610996565b6105ee610630610715565b826109cc565b60006105648161080d565b6106538261064d610715565b83610731565b61065d82826109cc565b5050565b7f65d7a28e3265b37a6474929f336521b332c1681b933f6cb9f3376673440d862a61068b8161080d565b6105ee610a02565b60009182526006602090815260408084206001600160a01b0393909316845291905290205460ff1690565b60606004805461047690610ea9565b6000806106d8610715565b90506105118185856107ae565b6000828152600660205260409020600101546107008161080d565b61056e83836108b3565b60006107008161080d565b600061071f610a40565b905090565b6105b78383836001610a84565b6001600160a01b03838116600090815260016020908152604080832093861683529290522054600019811461056e578181101561079f57604051637dc7a0d960e11b81526001600160a01b038416600482015260248101829052604481018390526064015b60405180910390fd5b61056e84848484036000610a84565b6001600160a01b0383166107d857604051634b637e8f60e11b815260006004820152602401610796565b6001600160a01b0382166108025760405163ec442f0560e01b815260006004820152602401610796565b6105b7838383610b59565b6105ee81610819610715565b610b64565b600061082a8383610693565b6108ab5760008381526006602090815260408083206001600160a01b03861684529091529020805460ff19166001179055610863610715565b6001600160a01b0316826001600160a01b0316847f2f8788117e7eff1d82e926ec794901d17c78024a50270940304540a733656f0d60405160405180910390a4506001610461565b506000610461565b60006108bf8383610693565b156108ab5760008381526006602090815260408083206001600160a01b03861684529091529020805460ff191690556108f6610715565b6001600160a01b0316826001600160a01b0316847ff6391f5c32d9c69d2a47ea670b442974b53935d1edc7fd64eb21e047a839171b60405160405180910390a4506001610461565b610946610b9d565b6005805460ff191690557f5db9ee0a495bf2e6ff9c91a7834c1ba4fdd244a5e8aa4e537bd38aeae4b073aa610979610715565b6040516001600160a01b03909116815260200160405180910390a1565b6001600160a01b0382166109c05760405163ec442f0560e01b815260006004820152602401610796565b61065d60008383610b59565b6001600160a01b0382166109f657604051634b637e8f60e11b815260006004820152602401610796565b61065d82600083610b59565b610a0a610bc2565b6005805460ff191660011790557f62e78cea01bee320cd4e420270b5ea74000d11b0c9f74754ebdbfc544b05a258610979610715565b60007f00000000000000000000000000000000000000000000000000000000000000006001600160a01b03163303610a7f575060131936013560601c90565b503390565b6001600160a01b038416610aae5760405163e602df0560e01b815260006004820152602401610796565b6001600160a01b038316610ad857604051634a1406b160e11b815260006004820152602401610796565b6001600160a01b038085166000908152600160209081526040808320938716835292905220829055801561056e57826001600160a01b0316846001600160a01b03167f8c5be1e5ebec7d5bd14f71427d1e84f3dd0314c0f7b2291e5b200ac8c7c3b92584604051610b4b91815260200190565b60405180910390a350505050565b6105b7838383610be6565b610b6e8282610693565b61065d5760405163e2517d3f60e01b81526001600160a01b038216600482015260248101839052604401610796565b60055460ff16610bc057604051638dfc202b60e01b815260040160405180910390fd5b565b60055460ff1615610bc05760405163d93c066560e01b815260040160405180910390fd5b610bee610bc2565b6105b78383836001600160a01b038316610c1f578060026000828254610c149190610ee3565b90915550610c919050565b6001600160a01b03831660009081526020819052604090205481811015610c725760405163391434e360e21b81526001600160a01b03851660048201526024810182905260448101839052606401610796565b6001600160a01b03841660009081526020819052604090209082900390555b6001600160a01b038216610cad57600280548290039055610ccc565b6001600160a01b03821660009081526020819052604090208054820190555b816001600160a01b0316836001600160a01b03167fddf252ad1be2c89b69c2b068fc378daa952ba7f163c4a11628f55a4df523b3ef83604051610d1191815260200190565b60405180910390a3505050565b600060208284031215610d3057600080fd5b81356001600160e01b031981168114610d4857600080fd5b9392505050565b600060208083528351808285015260005b81811015610d7c57858101830151858201604001528201610d60565b506000604082860101526040601f19601f8301168501019250505092915050565b80356001600160a01b0381168114610db457600080fd5b919050565b60008060408385031215610dcc57600080fd5b610dd583610d9d565b946020939093013593505050565b600080600060608486031215610df857600080fd5b610e0184610d9d565b9250610e0f60208501610d9d565b9150604084013590509250925092565b600060208284031215610e3157600080fd5b5035919050565b60008060408385031215610e4b57600080fd5b82359150610e5b60208401610d9d565b90509250929050565b600060208284031215610e7657600080fd5b610d4882610d9d565b60008060408385031215610e9257600080fd5b610e9b83610d9d565b9150610e5b60208401610d9d565b600181811c90821680610ebd57607f821691505b602082108103610edd57634e487b7160e01b600052602260045260246000fd5b50919050565b8082018082111561046157634e487b7160e01b600052601160045260246000fdfea2646970667358221220da46ad39e38babdff2a6b14530fdd703ef8ae638d4a8474b0973c2c0d2e4820e64736f6c63430008140033",
  "linkReferences": {},
  "deployedLinkReferences": {}
}