{
	"data": {
		"bytecode": {
			"linkReferences": {},
			"object": "60a060405273c22a79eba640940abb6df0f7982cc119578e11de60055f6101000a81548173ffffffffffffffffffffffffffffffffffffffff021916908373ffffffffffffffffffffffffffffffffffffffff160217905550604051806109a001604052806109738152602001620038ac610973913960099081620000859190620006cf565b50620493e0600a5f6101000a81548163ffffffff021916908363ffffffff1602179055507f66756e2d706f6c79676f6e2d616d6f792d3100000000000000000000000000005f1b600b5560b4600c5f6101000a81548167ffffffffffffffff021916908367ffffffffffffffff16021790555034801562000104575f80fd5b5033805f60055f9054906101000a900473ffffffffffffffffffffffffffffffffffffffff168073ffffffffffffffffffffffffffffffffffffffff1660808173ffffffffffffffffffffffffffffffffffffffff1681525050505f73ffffffffffffffffffffffffffffffffffffffff168273ffffffffffffffffffffffffffffffffffffffff1603620001d0576040517f08c379a0000000000000000000000000000000000000000000000000000000008152600401620001c79062000811565b60405180910390fd5b815f806101000a81548173ffffffffffffffffffffffffffffffffffffffff021916908373ffffffffffffffffffffffffffffffffffffffff1602179055505f73ffffffffffffffffffffffffffffffffffffffff168173ffffffffffffffffffffffffffffffffffffffff1614620002555762000254816200033e60201b60201c565b5b505050731b8739bb4cdf0089d07097a9ae5bd274b29c6f1660036040516200027d9062000889565b90815260200160405180910390205f6101000a81548173ffffffffffffffffffffffffffffffffffffffff021916908373ffffffffffffffffffffffffffffffffffffffff16021790555073a73b1c149cb4a0bf27e36de347cbcfbe88f65db26003604051620002ed90620008ed565b90815260200160405180910390205f6101000a81548173ffffffffffffffffffffffffffffffffffffffff021916908373ffffffffffffffffffffffffffffffffffffffff16021790555062000971565b3373ffffffffffffffffffffffffffffffffffffffff168173ffffffffffffffffffffffffffffffffffffffff1603620003af576040517f08c379a0000000000000000000000000000000000000000000000000000000008152600401620003a69062000951565b60405180910390fd5b8060015f6101000a81548173ffffffffffffffffffffffffffffffffffffffff021916908373ffffffffffffffffffffffffffffffffffffffff1602179055508073ffffffffffffffffffffffffffffffffffffffff165f8054906101000a900473ffffffffffffffffffffffffffffffffffffffff1673ffffffffffffffffffffffffffffffffffffffff167fed8889f560326eb138920d842192f0eb3dd22b4f139c87a2c57538e05bae127860405160405180910390a350565b5f81519050919050565b7f4e487b71000000000000000000000000000000000000000000000000000000005f52604160045260245ffd5b7f4e487b71000000000000000000000000000000000000000000000000000000005f52602260045260245ffd5b5f6002820490506001821680620004e757607f821691505b602082108103620004fd57620004fc620004a2565b5b50919050565b5f819050815f5260205f209050919050565b5f6020601f8301049050919050565b5f82821b905092915050565b5f60088302620005617fffffffffffffffffffffffffffffffffffffffffffffffffffffffffffffffff8262000524565b6200056d868362000524565b95508019841693508086168417925050509392505050565b5f819050919050565b5f819050919050565b5f620005b7620005b1620005ab8462000585565b6200058e565b62000585565b9050919050565b5f819050919050565b620005d28362000597565b620005ea620005e182620005be565b84845462000530565b825550505050565b5f90565b62000600620005f2565b6200060d818484620005c7565b505050565b5b818110156200063457620006285f82620005f6565b60018101905062000613565b5050565b601f82111562000683576200064d8162000503565b620006588462000515565b8101602085101562000668578190505b62000680620006778562000515565b83018262000612565b50505b505050565b5f82821c905092915050565b5f620006a55f198460080262000688565b1980831691505092915050565b5f620006bf838362000694565b9150826002028217905092915050565b620006da826200046b565b67ffffffffffffffff811115620006f657620006f562000475565b5b620007028254620004cf565b6200070f82828562000638565b5f60209050601f83116001811462000745575f841562000730578287015190505b6200073c8582620006b2565b865550620007ab565b601f198416620007558662000503565b5f5b828110156200077e5784890151825560018201915060208501945060208101905062000757565b868310156200079e57848901516200079a601f89168262000694565b8355505b6001600288020188555050505b505050505050565b5f82825260208201905092915050565b7f43616e6e6f7420736574206f776e657220746f207a65726f00000000000000005f82015250565b5f620007f9601883620007b3565b91506200080682620007c3565b602082019050919050565b5f6020820190508181035f8301526200082a81620007eb565b9050919050565b5f81905092915050565b7f55534443000000000000000000000000000000000000000000000000000000005f82015250565b5f6200087160048362000831565b91506200087e826200083b565b600482019050919050565b5f620008958262000863565b9150819050919050565b7f45555200000000000000000000000000000000000000000000000000000000005f82015250565b5f620008d560038362000831565b9150620008e2826200089f565b600382019050919050565b5f620008f982620008c7565b9150819050919050565b7f43616e6e6f74207472616e7366657220746f2073656c660000000000000000005f82015250565b5f62000939601783620007b3565b9150620009468262000903565b602082019050919050565b5f6020820190508181035f8301526200096a816200092b565b9050919050565b608051612f1b620009915f395f818161029901526112470152612f1b5ff3fe608060405234801561000f575f80fd5b50600436106100cd575f3560e01c806379ba50971161008a578063b145b89f11610064578063b145b89f146101fd578063b1e217491461022d578063f2fde38b1461024b578063fe75c2b114610267576100cd565b806379ba5097146101b95780638da5cb5b146101c35780639b2ea4bd146101e1576100cd565b80630ca76175146100d15780633944ea3a146100ed5780634b0795a81461010b578063524f38891461012957806357a7a2481461015957806372a5be5f14610189575b5f80fd5b6100eb60048036038101906100e69190611c82565b610297565b005b6100f5610359565b6040516101029190611d84565b60405180910390f35b6101136103e5565b6040516101209190611d84565b60405180910390f35b610143600480360381019061013e9190611e42565b610471565b6040516101509190611ea1565b60405180910390f35b610173600480360381019061016e9190611e42565b610554565b6040516101809190611ef9565b60405180910390f35b6101a3600480360381019061019e9190612145565b61059c565b6040516101b0919061221f565b60405180910390f35b6101c161071d565b005b6101cb6108ac565b6040516101d89190611ef9565b60405180910390f35b6101fb60048036038101906101f69190612262565b6108d3565b005b61021760048036038101906102129190611e42565b610933565b6040516102249190611ea1565b60405180910390f35b610235610960565b604051610242919061221f565b60405180910390f35b610265600480360381019061026091906122bc565b610966565b005b610281600480360381019061027c91906122e7565b61097a565b60405161028e919061221f565b60405180910390f35b7f000000000000000000000000000000000000000000000000000000000000000073ffffffffffffffffffffffffffffffffffffffff163373ffffffffffffffffffffffffffffffffffffffff161461031c576040517fc6829f8300000000000000000000000000000000000000000000000000000000815260040160405180910390fd5b6103278383836109c7565b827f85e1543bf2f84fe80c6badbce3648c8539ad1df4d2b3d822938ca0538be727e660405160405180910390a2505050565b600780546103669061235b565b80601f01602080910402602001604051908101604052809291908181526020018280546103929061235b565b80156103dd5780601f106103b4576101008083540402835291602001916103dd565b820191905f5260205f20905b8154815290600101906020018083116103c057829003601f168201915b505050505081565b600880546103f29061235b565b80601f016020809104026020016040519081016040528092919081815260200182805461041e9061235b565b80156104695780601f1061044057610100808354040283529160200191610469565b820191905f5260205f20905b81548152906001019060200180831161044c57829003601f168201915b505050505081565b5f805f90505f60038460405161048791906123cf565b90815260200160405180910390205f9054906101000a900473ffffffffffffffffffffffffffffffffffffffff1690505f73ffffffffffffffffffffffffffffffffffffffff168173ffffffffffffffffffffffffffffffffffffffff161461054a578060025f6101000a81548173ffffffffffffffffffffffffffffffffffffffff021916908373ffffffffffffffffffffffffffffffffffffffff16021790555061053384610aad565b915081655af3107a4000610547919061243f565b91505b8192505050919050565b6003818051602081018201805184825260208301602085012081835280955050505050505f915054906101000a900473ffffffffffffffffffffffffffffffffffffffff1681565b5f6105a5610b80565b6105ad611a5b565b610648600980546105bd9061235b565b80601f01602080910402602001604051908101604052809291908181526020018280546105e99061235b565b80156106345780601f1061060b57610100808354040283529160200191610634565b820191905f5260205f20905b81548152906001019060200180831161061757829003601f168201915b505050505082610c0f90919063ffffffff16565b5f87511115610669576106648782610c1f90919063ffffffff16565b610692565b5f8567ffffffffffffffff16111561069157610690868683610c979092919063ffffffff16565b5b5b5f845111156106af576106ae8482610da490919063ffffffff16565b5b5f835111156106cc576106cb8382610deb90919063ffffffff16565b5b6107086106d882610e32565b600c5f9054906101000a900467ffffffffffffffff16600a5f9054906101000a900463ffffffff16600b54611243565b60068190555060065491505095945050505050565b60015f9054906101000a900473ffffffffffffffffffffffffffffffffffffffff1673ffffffffffffffffffffffffffffffffffffffff163373ffffffffffffffffffffffffffffffffffffffff16146107ac576040517f08c379a00000000000000000000000000000000000000000000000000000000081526004016107a390612501565b60405180910390fd5b5f805f9054906101000a900473ffffffffffffffffffffffffffffffffffffffff169050335f806101000a81548173ffffffffffffffffffffffffffffffffffffffff021916908373ffffffffffffffffffffffffffffffffffffffff1602179055505f60015f6101000a81548173ffffffffffffffffffffffffffffffffffffffff021916908373ffffffffffffffffffffffffffffffffffffffff1602179055503373ffffffffffffffffffffffffffffffffffffffff168173ffffffffffffffffffffffffffffffffffffffff167f8be0079c531659141344cd1fd0a4f28419497f9722a3daafe3b4186f6b6457e060405160405180910390a350565b5f805f9054906101000a900473ffffffffffffffffffffffffffffffffffffffff16905090565b806003836040516108e491906123cf565b90815260200160405180910390205f6101000a81548173ffffffffffffffffffffffffffffffffffffffff021916908373ffffffffffffffffffffffffffffffffffffffff1602179055505050565b6004818051602081018201805184825260208301602085012081835280955050505050505f915090505481565b60065481565b61096e610b80565b61097781611322565b50565b5f610983610b80565b6109b782600c5f9054906101000a900467ffffffffffffffff16600a5f9054906101000a900463ffffffff16600b54611243565b6006819055506006549050919050565b8260065414610a0d57826040517fd068bf5b000000000000000000000000000000000000000000000000000000008152600401610a04919061221f565b60405180910390fd5b8160079081610a1c91906126c5565b508060089081610a2c91906126c5565b505f8083806020019051810190610a43919061282c565b9150915080600483604051610a5891906123cf565b908152602001604051809103902081905550847f7873807bf6ddc50401cd3d29bbe0decee23fd4d68d273f4b5eb83cded4d2f17260076008604051610a9e929190612907565b60405180910390a25050505050565b5f8060025f9054906101000a900473ffffffffffffffffffffffffffffffffffffffff1673ffffffffffffffffffffffffffffffffffffffff1663feaf968c6040518163ffffffff1660e01b815260040160a060405180830381865afa158015610b19573d5f803e3d5ffd5b505050506040513d601f19601f82011682018060405250810190610b3d91906129a5565b50505091505080655af3107a4000610b55919061243f565b600484604051610b6591906123cf565b90815260200160405180910390208190555080915050919050565b5f8054906101000a900473ffffffffffffffffffffffffffffffffffffffff1673ffffffffffffffffffffffffffffffffffffffff163373ffffffffffffffffffffffffffffffffffffffff1614610c0d576040517f08c379a0000000000000000000000000000000000000000000000000000000008152600401610c0490612a66565b60405180910390fd5b565b610c1b825f808461144c565b5050565b5f815103610c59576040517fe889636f00000000000000000000000000000000000000000000000000000000815260040160405180910390fd5b600182602001906002811115610c7257610c71612a84565b5b90816002811115610c8657610c85612a84565b5b815250508082608001819052505050565b5f610ca36101006114f2565b9050610ced6040518060400160405280600681526020017f736c6f74494400000000000000000000000000000000000000000000000000008152508261151790919063ffffffff16565b610d038360ff168261153f90919063ffffffff16565b610d4b6040518060400160405280600781526020017f76657273696f6e000000000000000000000000000000000000000000000000008152508261151790919063ffffffff16565b610d5e828261153f90919063ffffffff16565b600284602001906002811115610d7757610d76612a84565b5b90816002811115610d8b57610d8a612a84565b5b81525050805f01515f0151846080018190525050505050565b5f815103610dde576040517ffe936cb700000000000000000000000000000000000000000000000000000000815260040160405180910390fd5b808260a001819052505050565b5f815103610e25576040517ffe936cb700000000000000000000000000000000000000000000000000000000815260040160405180910390fd5b808260c001819052505050565b60605f610e406101006114f2565b9050610e8a6040518060400160405280600c81526020017f636f64654c6f636174696f6e00000000000000000000000000000000000000008152508261151790919063ffffffff16565b610eb2835f01516002811115610ea357610ea2612a84565b5b8261154e90919063ffffffff16565b610efa6040518060400160405280600881526020017f6c616e67756167650000000000000000000000000000000000000000000000008152508261151790919063ffffffff16565b610f2283604001515f811115610f1357610f12612a84565b5b8261154e90919063ffffffff16565b610f6a6040518060400160405280600681526020017f736f7572636500000000000000000000000000000000000000000000000000008152508261151790919063ffffffff16565b610f8183606001518261151790919063ffffffff16565b5f8360a0015151111561103b57610fd66040518060400160405280600481526020017f61726773000000000000000000000000000000000000000000000000000000008152508261151790919063ffffffff16565b610fdf8161159d565b5f5b8360a00151518110156110305761101f8460a00151828151811061100857611007612ab1565b5b60200260200101518361151790919063ffffffff16565b8061102990612ade565b9050610fe1565b5061103a816115c5565b5b5f836080015151111561117a575f600281111561105b5761105a612a84565b5b8360200151600281111561107257611071612a84565b5b036110a9576040517fa80d31f700000000000000000000000000000000000000000000000000000000815260040160405180910390fd5b6110f16040518060400160405280600f81526020017f736563726574734c6f636174696f6e00000000000000000000000000000000008152508261151790919063ffffffff16565b61111a8360200151600281111561110b5761110a612a84565b5b8261154e90919063ffffffff16565b6111626040518060400160405280600781526020017f73656372657473000000000000000000000000000000000000000000000000008152508261151790919063ffffffff16565b6111798360800151826115ed90919063ffffffff16565b5b5f8360c00151511115611234576111cf6040518060400160405280600981526020017f62797465734172677300000000000000000000000000000000000000000000008152508261151790919063ffffffff16565b6111d88161159d565b5f5b8360c0015151811015611229576112188460c00151828151811061120157611200612ab1565b5b6020026020010151836115ed90919063ffffffff16565b8061122290612ade565b90506111da565b50611233816115c5565b5b805f01515f0151915050919050565b5f807f000000000000000000000000000000000000000000000000000000000000000073ffffffffffffffffffffffffffffffffffffffff1663461d27628688600188886040518663ffffffff1660e01b81526004016112a7959493929190612b6e565b6020604051808303815f875af11580156112c3573d5f803e3d5ffd5b505050506040513d601f19601f820116820180604052508101906112e79190612bda565b9050807f1131472297a800fee664d1d89cfa8f7676ff07189ecc53f80bbb5f4969099db860405160405180910390a280915050949350505050565b3373ffffffffffffffffffffffffffffffffffffffff168173ffffffffffffffffffffffffffffffffffffffff1603611390576040517f08c379a000000000000000000000000000000000000000000000000000000000815260040161138790612c4f565b60405180910390fd5b8060015f6101000a81548173ffffffffffffffffffffffffffffffffffffffff021916908373ffffffffffffffffffffffffffffffffffffffff1602179055508073ffffffffffffffffffffffffffffffffffffffff165f8054906101000a900473ffffffffffffffffffffffffffffffffffffffff1673ffffffffffffffffffffffffffffffffffffffff167fed8889f560326eb138920d842192f0eb3dd22b4f139c87a2c57538e05bae127860405160405180910390a350565b5f815103611486576040517f22ce3edd00000000000000000000000000000000000000000000000000000000815260040160405180910390fd5b82845f0190600281111561149d5761149c612a84565b5b908160028111156114b1576114b0612a84565b5b815250508184604001905f8111156114cc576114cb612a84565b5b90815f8111156114df576114de612a84565b5b8152505080846060018190525050505050565b6114fa611aca565b611507815f015183611615565b505f816020018181525050919050565b611524826003835161168b565b61153a81835f015161182b90919063ffffffff16565b505050565b61154a825f8361168b565b5050565b61156f60026005600660ff16901b17835f015161184790919063ffffffff16565b5061159982826040516020016115859190612c7c565b6040516020818303038152906040526115ed565b5050565b6115a88160046118ae565b6001816020018181516115bb9190612c95565b9150818152505050565b6115d08160076118ae565b6001816020018181516115e39190612cc8565b9150818152505050565b6115fa826002835161168b565b61161081835f015161182b90919063ffffffff16565b505050565b61161d611ae9565b5f60208361162b9190612cfb565b146116575760208261163d9190612cfb565b60206116499190612cc8565b826116549190612c95565b91505b818360200181815250506040518084525f81528281016020018181101561167c575f80fd5b80604052505082905092915050565b60178167ffffffffffffffff16116116c5576116bf8160058460ff16901b60ff1617845f015161184790919063ffffffff16565b50611826565b60ff8167ffffffffffffffff1611611721576116f7601860058460ff16901b17845f015161184790919063ffffffff16565b5061171b8167ffffffffffffffff166001855f01516118d39092919063ffffffff16565b50611825565b61ffff8167ffffffffffffffff161161177e57611754601960058460ff16901b17845f015161184790919063ffffffff16565b506117788167ffffffffffffffff166002855f01516118d39092919063ffffffff16565b50611824565b63ffffffff8167ffffffffffffffff16116117dd576117b3601a60058460ff16901b17845f015161184790919063ffffffff16565b506117d78167ffffffffffffffff166004855f01516118d39092919063ffffffff16565b50611823565b6117fd601b60058460ff16901b17845f015161184790919063ffffffff16565b506118218167ffffffffffffffff166008855f01516118d39092919063ffffffff16565b505b5b5b5b505050565b611833611ae9565b61183f8383845161195c565b905092915050565b61184f611ae9565b5f835f01515190505f6001826118659190612c95565b90508460200151821061188957611888856002836118839190612d2b565b611a39565b5b845160208382010185815381518311156118a1578282525b5050849250505092915050565b6118ce601f60058360ff16901b17835f015161184790919063ffffffff16565b505050565b6118db611ae9565b5f845f01515190505f81846118f09190612c95565b90508560200151811115611915576119148660028361190f9190612d2b565b611a39565b5b5f6001856101006119269190612e9b565b6119309190612cc8565b90508651828101878319825116178152815184111561194d578382525b50508693505050509392505050565b611964611ae9565b8251821115611971575f80fd5b5f845f01515190505f83826119869190612c95565b905085602001518111156119ab576119aa866002836119a59190612d2b565b611a39565b5b5f80875180518560208301019350808511156119c5578482525b60208901925050505b60208610611a0c57805182526020826119e79190612c95565b91506020816119f69190612c95565b9050602086611a059190612cc8565b95506119ce565b5f6001876020036101000a0390508019825116818451168181178552505050879450505050509392505050565b5f825f01519050611a4a8383611615565b50611a55838261182b565b50505050565b6040518060e001604052805f6002811115611a7957611a78612a84565b5b81526020015f6002811115611a9157611a90612a84565b5b81526020015f80811115611aa857611aa7612a84565b5b8152602001606081526020016060815260200160608152602001606081525090565b6040518060400160405280611add611ae9565b81526020015f81525090565b6040518060400160405280606081526020015f81525090565b5f604051905090565b5f80fd5b5f80fd5b5f819050919050565b611b2581611b13565b8114611b2f575f80fd5b50565b5f81359050611b4081611b1c565b92915050565b5f80fd5b5f80fd5b5f601f19601f8301169050919050565b7f4e487b71000000000000000000000000000000000000000000000000000000005f52604160045260245ffd5b611b9482611b4e565b810181811067ffffffffffffffff82111715611bb357611bb2611b5e565b5b80604052505050565b5f611bc5611b02565b9050611bd18282611b8b565b919050565b5f67ffffffffffffffff821115611bf057611bef611b5e565b5b611bf982611b4e565b9050602081019050919050565b828183375f83830152505050565b5f611c26611c2184611bd6565b611bbc565b905082815260208101848484011115611c4257611c41611b4a565b5b611c4d848285611c06565b509392505050565b5f82601f830112611c6957611c68611b46565b5b8135611c79848260208601611c14565b91505092915050565b5f805f60608486031215611c9957611c98611b0b565b5b5f611ca686828701611b32565b935050602084013567ffffffffffffffff811115611cc757611cc6611b0f565b5b611cd386828701611c55565b925050604084013567ffffffffffffffff811115611cf457611cf3611b0f565b5b611d0086828701611c55565b9150509250925092565b5f81519050919050565b5f82825260208201905092915050565b5f5b83811015611d41578082015181840152602081019050611d26565b5f8484015250505050565b5f611d5682611d0a565b611d608185611d14565b9350611d70818560208601611d24565b611d7981611b4e565b840191505092915050565b5f6020820190508181035f830152611d9c8184611d4c565b905092915050565b5f67ffffffffffffffff821115611dbe57611dbd611b5e565b5b611dc782611b4e565b9050602081019050919050565b5f611de6611de184611da4565b611bbc565b905082815260208101848484011115611e0257611e01611b4a565b5b611e0d848285611c06565b509392505050565b5f82601f830112611e2957611e28611b46565b5b8135611e39848260208601611dd4565b91505092915050565b5f60208284031215611e5757611e56611b0b565b5b5f82013567ffffffffffffffff811115611e7457611e73611b0f565b5b611e8084828501611e15565b91505092915050565b5f819050919050565b611e9b81611e89565b82525050565b5f602082019050611eb45f830184611e92565b92915050565b5f73ffffffffffffffffffffffffffffffffffffffff82169050919050565b5f611ee382611eba565b9050919050565b611ef381611ed9565b82525050565b5f602082019050611f0c5f830184611eea565b92915050565b5f60ff82169050919050565b611f2781611f12565b8114611f31575f80fd5b50565b5f81359050611f4281611f1e565b92915050565b5f67ffffffffffffffff82169050919050565b611f6481611f48565b8114611f6e575f80fd5b50565b5f81359050611f7f81611f5b565b92915050565b5f67ffffffffffffffff821115611f9f57611f9e611b5e565b5b602082029050602081019050919050565b5f80fd5b5f611fc6611fc184611f85565b611bbc565b90508083825260208201905060208402830185811115611fe957611fe8611fb0565b5b835b8181101561203057803567ffffffffffffffff81111561200e5761200d611b46565b5b80860161201b8982611e15565b85526020850194505050602081019050611feb565b5050509392505050565b5f82601f83011261204e5761204d611b46565b5b813561205e848260208601611fb4565b91505092915050565b5f67ffffffffffffffff82111561208157612080611b5e565b5b602082029050602081019050919050565b5f6120a461209f84612067565b611bbc565b905080838252602082019050602084028301858111156120c7576120c6611fb0565b5b835b8181101561210e57803567ffffffffffffffff8111156120ec576120eb611b46565b5b8086016120f98982611c55565b855260208501945050506020810190506120c9565b5050509392505050565b5f82601f83011261212c5761212b611b46565b5b813561213c848260208601612092565b91505092915050565b5f805f805f60a0868803121561215e5761215d611b0b565b5b5f86013567ffffffffffffffff81111561217b5761217a611b0f565b5b61218788828901611c55565b955050602061219888828901611f34565b94505060406121a988828901611f71565b935050606086013567ffffffffffffffff8111156121ca576121c9611b0f565b5b6121d68882890161203a565b925050608086013567ffffffffffffffff8111156121f7576121f6611b0f565b5b61220388828901612118565b9150509295509295909350565b61221981611b13565b82525050565b5f6020820190506122325f830184612210565b92915050565b61224181611ed9565b811461224b575f80fd5b50565b5f8135905061225c81612238565b92915050565b5f806040838503121561227857612277611b0b565b5b5f83013567ffffffffffffffff81111561229557612294611b0f565b5b6122a185828601611e15565b92505060206122b28582860161224e565b9150509250929050565b5f602082840312156122d1576122d0611b0b565b5b5f6122de8482850161224e565b91505092915050565b5f602082840312156122fc576122fb611b0b565b5b5f82013567ffffffffffffffff81111561231957612318611b0f565b5b61232584828501611c55565b91505092915050565b7f4e487b71000000000000000000000000000000000000000000000000000000005f52602260045260245ffd5b5f600282049050600182168061237257607f821691505b6020821081036123855761238461232e565b5b50919050565b5f81519050919050565b5f81905092915050565b5f6123a98261238b565b6123b38185612395565b93506123c3818560208601611d24565b80840191505092915050565b5f6123da828461239f565b915081905092915050565b7f4e487b71000000000000000000000000000000000000000000000000000000005f52601260045260245ffd5b7f4e487b71000000000000000000000000000000000000000000000000000000005f52601160045260245ffd5b5f61244982611e89565b915061245483611e89565b925082612464576124636123e5565b5b60015f0383147f80000000000000000000000000000000000000000000000000000000000000008314161561249c5761249b612412565b5b828205905092915050565b5f82825260208201905092915050565b7f4d7573742062652070726f706f736564206f776e6572000000000000000000005f82015250565b5f6124eb6016836124a7565b91506124f6826124b7565b602082019050919050565b5f6020820190508181035f830152612518816124df565b9050919050565b5f819050815f5260205f209050919050565b5f6020601f8301049050919050565b5f82821b905092915050565b5f6008830261257b7fffffffffffffffffffffffffffffffffffffffffffffffffffffffffffffffff82612540565b6125858683612540565b95508019841693508086168417925050509392505050565b5f819050919050565b5f819050919050565b5f6125c96125c46125bf8461259d565b6125a6565b61259d565b9050919050565b5f819050919050565b6125e2836125af565b6125f66125ee826125d0565b84845461254c565b825550505050565b5f90565b61260a6125fe565b6126158184846125d9565b505050565b5b818110156126385761262d5f82612602565b60018101905061261b565b5050565b601f82111561267d5761264e8161251f565b61265784612531565b81016020851015612666578190505b61267a61267285612531565b83018261261a565b50505b505050565b5f82821c905092915050565b5f61269d5f1984600802612682565b1980831691505092915050565b5f6126b5838361268e565b9150826002028217905092915050565b6126ce82611d0a565b67ffffffffffffffff8111156126e7576126e6611b5e565b5b6126f1825461235b565b6126fc82828561263c565b5f60209050601f83116001811461272d575f841561271b578287015190505b61272585826126aa565b86555061278c565b601f19841661273b8661251f565b5f5b828110156127625784890151825560018201915060208501945060208101905061273d565b8683101561277f578489015161277b601f89168261268e565b8355505b6001600288020188555050505b505050505050565b5f6127a66127a184611da4565b611bbc565b9050828152602081018484840111156127c2576127c1611b4a565b5b6127cd848285611d24565b509392505050565b5f82601f8301126127e9576127e8611b46565b5b81516127f9848260208601612794565b91505092915050565b61280b81611e89565b8114612815575f80fd5b50565b5f8151905061282681612802565b92915050565b5f806040838503121561284257612841611b0b565b5b5f83015167ffffffffffffffff81111561285f5761285e611b0f565b5b61286b858286016127d5565b925050602061287c85828601612818565b9150509250929050565b5f81546128928161235b565b61289c8186611d14565b9450600182165f81146128b657600181146128cc576128fe565b60ff1983168652811515602002860193506128fe565b6128d58561251f565b5f5b838110156128f6578154818901526001820191506020810190506128d7565b808801955050505b50505092915050565b5f6040820190508181035f83015261291f8185612886565b905081810360208301526129338184612886565b90509392505050565b5f69ffffffffffffffffffff82169050919050565b61295a8161293c565b8114612964575f80fd5b50565b5f8151905061297581612951565b92915050565b6129848161259d565b811461298e575f80fd5b50565b5f8151905061299f8161297b565b92915050565b5f805f805f60a086880312156129be576129bd611b0b565b5b5f6129cb88828901612967565b95505060206129dc88828901612818565b94505060406129ed88828901612991565b93505060606129fe88828901612991565b9250506080612a0f88828901612967565b9150509295509295909350565b7f4f6e6c792063616c6c61626c65206279206f776e6572000000000000000000005f82015250565b5f612a506016836124a7565b9150612a5b82612a1c565b602082019050919050565b5f6020820190508181035f830152612a7d81612a44565b9050919050565b7f4e487b71000000000000000000000000000000000000000000000000000000005f52602160045260245ffd5b7f4e487b71000000000000000000000000000000000000000000000000000000005f52603260045260245ffd5b5f612ae88261259d565b91507fffffffffffffffffffffffffffffffffffffffffffffffffffffffffffffffff8203612b1a57612b19612412565b5b600182019050919050565b612b2e81611f48565b82525050565b5f61ffff82169050919050565b612b4a81612b34565b82525050565b5f63ffffffff82169050919050565b612b6881612b50565b82525050565b5f60a082019050612b815f830188612b25565b8181036020830152612b938187611d4c565b9050612ba26040830186612b41565b612baf6060830185612b5f565b612bbc6080830184612210565b9695505050505050565b5f81519050612bd481611b1c565b92915050565b5f60208284031215612bef57612bee611b0b565b5b5f612bfc84828501612bc6565b91505092915050565b7f43616e6e6f74207472616e7366657220746f2073656c660000000000000000005f82015250565b5f612c396017836124a7565b9150612c4482612c05565b602082019050919050565b5f6020820190508181035f830152612c6681612c2d565b9050919050565b612c768161259d565b82525050565b5f602082019050612c8f5f830184612c6d565b92915050565b5f612c9f8261259d565b9150612caa8361259d565b9250828201905080821115612cc257612cc1612412565b5b92915050565b5f612cd28261259d565b9150612cdd8361259d565b9250828203905081811115612cf557612cf4612412565b5b92915050565b5f612d058261259d565b9150612d108361259d565b925082612d2057612d1f6123e5565b5b828206905092915050565b5f612d358261259d565b9150612d408361259d565b9250828202612d4e8161259d565b91508282048414831517612d6557612d64612412565b5b5092915050565b5f8160011c9050919050565b5f808291508390505b6001851115612dc157808604811115612d9d57612d9c612412565b5b6001851615612dac5780820291505b8081029050612dba85612d6c565b9450612d81565b94509492505050565b5f82612dd95760019050612e94565b81612de6575f9050612e94565b8160018114612dfc5760028114612e0657612e35565b6001915050612e94565b60ff841115612e1857612e17612412565b5b8360020a915084821115612e2f57612e2e612412565b5b50612e94565b5060208310610133831016604e8410600b8410161715612e6a5782820a905083811115612e6557612e64612412565b5b612e94565b612e778484846001612d78565b92509050818404811115612e8e57612e8d612412565b5b81810290505b9392505050565b5f612ea58261259d565b9150612eb08361259d565b9250612edd7fffffffffffffffffffffffffffffffffffffffffffffffffffffffffffffffff8484612dca565b90509291505056fea26469706673582212208fcb6e2fd2959219813638dcd2653aacea0d032513b52840de75540d7993e48d64736f6c63430008140033636f6e737420657468657273203d20617761697420696d706f727428276e706d3a65746865727340362e31302e3027293b636f6e73742066726f6d53796d626f6c203d20617267735b305d3b636f6e737420746f53796d626f6c73203d20617267735b315d3b636f6e73742075726c32203d206068747470733a2f2f6170692e67657467656f6170692e636f6d2f76322f63757272656e63792f636f6e76657274603b636f6e73742075726c33203d206068747470733a2f2f7777772e616c70686176616e746167652e636f2f7175657279603b636f6e73742067657467656f61706952657175657374203d2046756e6374696f6e732e6d616b654874747052657175657374287b202075726c3a2075726c322c2020686561646572733a207b2020202027436f6e74656e742d54797065273a20276170706c69636174696f6e2f6a736f6e272c20207d2c2020706172616d733a207b2020202066726f6d3a2066726f6d53796d626f6c2c20202020746f3a20746f53796d626f6c732c20202020616d6f756e743a20312c20202020666f726d61743a20276a736f6e272c202020206170695f6b65793a202731646366356234343734333531323464386437303839356137353335366138323038383765326164272c20207d2c7d293b636f6e7374206170696c6179657252657175657374203d2046756e6374696f6e732e6d616b654874747052657175657374287b202075726c3a2075726c332c2020686561646572733a207b2020202027436f6e74656e742d54797065273a20276170706c69636174696f6e2f6a736f6e272c20207d2c2020706172616d733a207b2020202066726f6d5f63757272656e63793a2066726f6d53796d626f6c2c20202020746f5f63757272656e63793a20746f53796d626f6c732c2020202066756e6374696f6e3a202743555252454e43595f45584348414e47455f52415445272c202020206170696b65793a202743304c514d4e36395133525332334941272c20207d2c7d293b636f6e73742067657467656f617069526573706f6e7365203d2061776169742067657467656f617069526571756573743b636f6e7374206170696c61796572526573706f6e7365203d206177616974206170696c61796572526571756573743b6966202867657467656f617069526573706f6e73652e6572726f7229207b2020636f6e736f6c652e6572726f722867657467656f617069526573706f6e73652e6572726f72293b20207468726f77204572726f72282767657467656f617069526573706f6e7365206661696c656427293b7d696620286170696c61796572526573706f6e73652e6572726f7229207b2020636f6e736f6c652e6572726f72286170696c61796572526573706f6e73652e6572726f72293b20207468726f77204572726f7228276170696c61796572526573706f6e7365206661696c656427293b7d636f6e73742067657467656f61706944617461203d2067657467656f617069526573706f6e73655b2764617461275d3b636f6e7374206170696c6179657244617461203d206170696c61796572526573706f6e73655b2764617461275d3b6966202867657467656f617069446174612e526573706f6e7365203d3d3d20274572726f722729207b2020636f6e736f6c652e6572726f722867657467656f617069446174612e4d657373616765293b20207468726f77204572726f7228202020206046756e6374696f6e616c206572726f722e2067657467656f617069446174612052656164206d6573736167653a20247b67657467656f617069446174612e4d6573736167657d602020293b7d696620286170696c61796572446174612e526573706f6e7365203d3d3d20274572726f722729207b2020636f6e736f6c652e6572726f72286170696c61796572446174612e4d657373616765293b20207468726f77204572726f7228202020206046756e6374696f6e616c206572726f722e206170696c61796572446174612052656164206d6573736167653a20247b6170696c61796572446174612e4d6573736167657d602020293b7d6c65742067657467656f617069526573756c7473203d2067657467656f617069446174615b277261746573275d3b6c6574206170696c61796572526573756c7473203d207b7d3b6170696c61796572526573756c74735b746f53796d626f6c735d203d20206170696c61796572446174615b275265616c74696d652043757272656e63792045786368616e67652052617465275d5b27352e2045786368616e67652052617465275d3b666f722028636f6e7374205b6b65792c2076616c75655d206f66204f626a6563742e656e74726965732867657467656f617069526573756c74732929207b202067657467656f617069526573756c74735b6b65795d203d207061727365496e7428202020207061727365466c6f61742867657467656f617069526573756c74735b6b65795d5b2772617465275d29202a20313030303030302020293b7d666f722028636f6e7374205b6b65792c2076616c75655d206f66204f626a6563742e656e7472696573286170696c61796572526573756c74732929207b20206170696c61796572526573756c74735b6b65795d203d207061727365496e74287061727365466c6f6174286170696c61796572526573756c74735b6b65795d29202a2031303030303030293b7d636f6e73742061727261794c697374203d205b67657467656f617069526573756c74732c206170696c61796572526573756c74735d3b6c65742066696e616c526573756c7473203d207b7d3b636f6e7374206b657973203d205b5d3b636f6e73742076616c756573203d205b5d3b666f722028636f6e7374205b6b65792c2076616c75655d206f66204f626a6563742e656e74726965732867657467656f617069526573756c74732929207b2020636f6e73742072657056616c203d207061727365496e74282867657467656f617069526573756c74735b6b65795d202b206170696c61796572526573756c74735b6b65795d29202f2032293b20206966202872657056616c203e203029207b202020206b6579732e70757368286b6579293b2020202076616c7565732e707573682872657056616c293b20207d7d636f6e737420656e636f646564203d206574686572732e416269436f6465722e64656661756c74416269436f64657228292e656e636f64652820205b27737472696e67272c2027696e74323536275d2c20205b6b6579735b305d2c2076616c7565735b305d5d293b72657475726e206574686572732e676574427974657328656e636f646564293b",
			"opcodes": "PUSH1 0xA0 PUSH1 0x40 MSTORE PUSH20 0xC22A79EBA640940ABB6DF0F7982CC119578E11DE PUSH1 0x5 PUSH0 PUSH2 0x100 EXP DUP2 SLOAD DUP2 PUSH20 0xFFFFFFFFFFFFFFFFFFFFFFFFFFFFFFFFFFFFFFFF MUL NOT AND SWAP1 DUP4 PUSH20 0xFFFFFFFFFFFFFFFFFFFFFFFFFFFFFFFFFFFFFFFF AND MUL OR SWAP1 SSTORE POP PUSH1 0x40 MLOAD DUP1 PUSH2 0x9A0 ADD PUSH1 0x40 MSTORE DUP1 PUSH2 0x973 DUP2 MSTORE PUSH1 0x20 ADD PUSH3 0x38AC PUSH2 0x973 SWAP2 CODECOPY PUSH1 0x9 SWAP1 DUP2 PUSH3 0x85 SWAP2 SWAP1 PUSH3 0x6CF JUMP JUMPDEST POP PUSH3 0x493E0 PUSH1 0xA PUSH0 PUSH2 0x100 EXP DUP2 SLOAD DUP2 PUSH4 0xFFFFFFFF MUL NOT AND SWAP1 DUP4 PUSH4 0xFFFFFFFF AND MUL OR SWAP1 SSTORE POP PUSH32 0x66756E2D706F6C79676F6E2D616D6F792D310000000000000000000000000000 PUSH0 SHL PUSH1 0xB SSTORE PUSH1 0xB4 PUSH1 0xC PUSH0 PUSH2 0x100 EXP DUP2 SLOAD DUP2 PUSH8 0xFFFFFFFFFFFFFFFF MUL NOT AND SWAP1 DUP4 PUSH8 0xFFFFFFFFFFFFFFFF AND MUL OR SWAP1 SSTORE POP CALLVALUE DUP1 ISZERO PUSH3 0x104 JUMPI PUSH0 DUP1 REVERT JUMPDEST POP CALLER DUP1 PUSH0 PUSH1 0x5 PUSH0 SWAP1 SLOAD SWAP1 PUSH2 0x100 EXP SWAP1 DIV PUSH20 0xFFFFFFFFFFFFFFFFFFFFFFFFFFFFFFFFFFFFFFFF AND DUP1 PUSH20 0xFFFFFFFFFFFFFFFFFFFFFFFFFFFFFFFFFFFFFFFF AND PUSH1 0x80 DUP2 PUSH20 0xFFFFFFFFFFFFFFFFFFFFFFFFFFFFFFFFFFFFFFFF AND DUP2 MSTORE POP POP POP PUSH0 PUSH20 0xFFFFFFFFFFFFFFFFFFFFFFFFFFFFFFFFFFFFFFFF AND DUP3 PUSH20 0xFFFFFFFFFFFFFFFFFFFFFFFFFFFFFFFFFFFFFFFF AND SUB PUSH3 0x1D0 JUMPI PUSH1 0x40 MLOAD PUSH32 0x8C379A000000000000000000000000000000000000000000000000000000000 DUP2 MSTORE PUSH1 0x4 ADD PUSH3 0x1C7 SWAP1 PUSH3 0x811 JUMP JUMPDEST PUSH1 0x40 MLOAD DUP1 SWAP2 SUB SWAP1 REVERT JUMPDEST DUP2 PUSH0 DUP1 PUSH2 0x100 EXP DUP2 SLOAD DUP2 PUSH20 0xFFFFFFFFFFFFFFFFFFFFFFFFFFFFFFFFFFFFFFFF MUL NOT AND SWAP1 DUP4 PUSH20 0xFFFFFFFFFFFFFFFFFFFFFFFFFFFFFFFFFFFFFFFF AND MUL OR SWAP1 SSTORE POP PUSH0 PUSH20 0xFFFFFFFFFFFFFFFFFFFFFFFFFFFFFFFFFFFFFFFF AND DUP2 PUSH20 0xFFFFFFFFFFFFFFFFFFFFFFFFFFFFFFFFFFFFFFFF AND EQ PUSH3 0x255 JUMPI PUSH3 0x254 DUP2 PUSH3 0x33E PUSH1 0x20 SHL PUSH1 0x20 SHR JUMP JUMPDEST JUMPDEST POP POP POP PUSH20 0x1B8739BB4CDF0089D07097A9AE5BD274B29C6F16 PUSH1 0x3 PUSH1 0x40 MLOAD PUSH3 0x27D SWAP1 PUSH3 0x889 JUMP JUMPDEST SWAP1 DUP2 MSTORE PUSH1 0x20 ADD PUSH1 0x40 MLOAD DUP1 SWAP2 SUB SWAP1 KECCAK256 PUSH0 PUSH2 0x100 EXP DUP2 SLOAD DUP2 PUSH20 0xFFFFFFFFFFFFFFFFFFFFFFFFFFFFFFFFFFFFFFFF MUL NOT AND SWAP1 DUP4 PUSH20 0xFFFFFFFFFFFFFFFFFFFFFFFFFFFFFFFFFFFFFFFF AND MUL OR SWAP1 SSTORE POP PUSH20 0xA73B1C149CB4A0BF27E36DE347CBCFBE88F65DB2 PUSH1 0x3 PUSH1 0x40 MLOAD PUSH3 0x2ED SWAP1 PUSH3 0x8ED JUMP JUMPDEST SWAP1 DUP2 MSTORE PUSH1 0x20 ADD PUSH1 0x40 MLOAD DUP1 SWAP2 SUB SWAP1 KECCAK256 PUSH0 PUSH2 0x100 EXP DUP2 SLOAD DUP2 PUSH20 0xFFFFFFFFFFFFFFFFFFFFFFFFFFFFFFFFFFFFFFFF MUL NOT AND SWAP1 DUP4 PUSH20 0xFFFFFFFFFFFFFFFFFFFFFFFFFFFFFFFFFFFFFFFF AND MUL OR SWAP1 SSTORE POP PUSH3 0x971 JUMP JUMPDEST CALLER PUSH20 0xFFFFFFFFFFFFFFFFFFFFFFFFFFFFFFFFFFFFFFFF AND DUP2 PUSH20 0xFFFFFFFFFFFFFFFFFFFFFFFFFFFFFFFFFFFFFFFF AND SUB PUSH3 0x3AF JUMPI PUSH1 0x40 MLOAD PUSH32 0x8C379A000000000000000000000000000000000000000000000000000000000 DUP2 MSTORE PUSH1 0x4 ADD PUSH3 0x3A6 SWAP1 PUSH3 0x951 JUMP JUMPDEST PUSH1 0x40 MLOAD DUP1 SWAP2 SUB SWAP1 REVERT JUMPDEST DUP1 PUSH1 0x1 PUSH0 PUSH2 0x100 EXP DUP2 SLOAD DUP2 PUSH20 0xFFFFFFFFFFFFFFFFFFFFFFFFFFFFFFFFFFFFFFFF MUL NOT AND SWAP1 DUP4 PUSH20 0xFFFFFFFFFFFFFFFFFFFFFFFFFFFFFFFFFFFFFFFF AND MUL OR SWAP1 SSTORE POP DUP1 PUSH20 0xFFFFFFFFFFFFFFFFFFFFFFFFFFFFFFFFFFFFFFFF AND PUSH0 DUP1 SLOAD SWAP1 PUSH2 0x100 EXP SWAP1 DIV PUSH20 0xFFFFFFFFFFFFFFFFFFFFFFFFFFFFFFFFFFFFFFFF AND PUSH20 0xFFFFFFFFFFFFFFFFFFFFFFFFFFFFFFFFFFFFFFFF AND PUSH32 0xED8889F560326EB138920D842192F0EB3DD22B4F139C87A2C57538E05BAE1278 PUSH1 0x40 MLOAD PUSH1 0x40 MLOAD DUP1 SWAP2 SUB SWAP1 LOG3 POP JUMP JUMPDEST PUSH0 DUP2 MLOAD SWAP1 POP SWAP2 SWAP1 POP JUMP JUMPDEST PUSH32 0x4E487B7100000000000000000000000000000000000000000000000000000000 PUSH0 MSTORE PUSH1 0x41 PUSH1 0x4 MSTORE PUSH1 0x24 PUSH0 REVERT JUMPDEST PUSH32 0x4E487B7100000000000000000000000000000000000000000000000000000000 PUSH0 MSTORE PUSH1 0x22 PUSH1 0x4 MSTORE PUSH1 0x24 PUSH0 REVERT JUMPDEST PUSH0 PUSH1 0x2 DUP3 DIV SWAP1 POP PUSH1 0x1 DUP3 AND DUP1 PUSH3 0x4E7 JUMPI PUSH1 0x7F DUP3 AND SWAP2 POP JUMPDEST PUSH1 0x20 DUP3 LT DUP2 SUB PUSH3 0x4FD JUMPI PUSH3 0x4FC PUSH3 0x4A2 JUMP JUMPDEST JUMPDEST POP SWAP2 SWAP1 POP JUMP JUMPDEST PUSH0 DUP2 SWAP1 POP DUP2 PUSH0 MSTORE PUSH1 0x20 PUSH0 KECCAK256 SWAP1 POP SWAP2 SWAP1 POP JUMP JUMPDEST PUSH0 PUSH1 0x20 PUSH1 0x1F DUP4 ADD DIV SWAP1 POP SWAP2 SWAP1 POP JUMP JUMPDEST PUSH0 DUP3 DUP3 SHL SWAP1 POP SWAP3 SWAP2 POP POP JUMP JUMPDEST PUSH0 PUSH1 0x8 DUP4 MUL PUSH3 0x561 PUSH32 0xFFFFFFFFFFFFFFFFFFFFFFFFFFFFFFFFFFFFFFFFFFFFFFFFFFFFFFFFFFFFFFFF DUP3 PUSH3 0x524 JUMP JUMPDEST PUSH3 0x56D DUP7 DUP4 PUSH3 0x524 JUMP JUMPDEST SWAP6 POP DUP1 NOT DUP5 AND SWAP4 POP DUP1 DUP7 AND DUP5 OR SWAP3 POP POP POP SWAP4 SWAP3 POP POP POP JUMP JUMPDEST PUSH0 DUP2 SWAP1 POP SWAP2 SWAP1 POP JUMP JUMPDEST PUSH0 DUP2 SWAP1 POP SWAP2 SWAP1 POP JUMP JUMPDEST PUSH0 PUSH3 0x5B7 PUSH3 0x5B1 PUSH3 0x5AB DUP5 PUSH3 0x585 JUMP JUMPDEST PUSH3 0x58E JUMP JUMPDEST PUSH3 0x585 JUMP JUMPDEST SWAP1 POP SWAP2 SWAP1 POP JUMP JUMPDEST PUSH0 DUP2 SWAP1 POP SWAP2 SWAP1 POP JUMP JUMPDEST PUSH3 0x5D2 DUP4 PUSH3 0x597 JUMP JUMPDEST PUSH3 0x5EA PUSH3 0x5E1 DUP3 PUSH3 0x5BE JUMP JUMPDEST DUP5 DUP5 SLOAD PUSH3 0x530 JUMP JUMPDEST DUP3 SSTORE POP POP POP POP JUMP JUMPDEST PUSH0 SWAP1 JUMP JUMPDEST PUSH3 0x600 PUSH3 0x5F2 JUMP JUMPDEST PUSH3 0x60D DUP2 DUP5 DUP5 PUSH3 0x5C7 JUMP JUMPDEST POP POP POP JUMP JUMPDEST JUMPDEST DUP2 DUP2 LT ISZERO PUSH3 0x634 JUMPI PUSH3 0x628 PUSH0 DUP3 PUSH3 0x5F6 JUMP JUMPDEST PUSH1 0x1 DUP2 ADD SWAP1 POP PUSH3 0x613 JUMP JUMPDEST POP POP JUMP JUMPDEST PUSH1 0x1F DUP3 GT ISZERO PUSH3 0x683 JUMPI PUSH3 0x64D DUP2 PUSH3 0x503 JUMP JUMPDEST PUSH3 0x658 DUP5 PUSH3 0x515 JUMP JUMPDEST DUP2 ADD PUSH1 0x20 DUP6 LT ISZERO PUSH3 0x668 JUMPI DUP2 SWAP1 POP JUMPDEST PUSH3 0x680 PUSH3 0x677 DUP6 PUSH3 0x515 JUMP JUMPDEST DUP4 ADD DUP3 PUSH3 0x612 JUMP JUMPDEST POP POP JUMPDEST POP POP POP JUMP JUMPDEST PUSH0 DUP3 DUP3 SHR SWAP1 POP SWAP3 SWAP2 POP POP JUMP JUMPDEST PUSH0 PUSH3 0x6A5 PUSH0 NOT DUP5 PUSH1 0x8 MUL PUSH3 0x688 JUMP JUMPDEST NOT DUP1 DUP4 AND SWAP2 POP POP SWAP3 SWAP2 POP POP JUMP JUMPDEST PUSH0 PUSH3 0x6BF DUP4 DUP4 PUSH3 0x694 JUMP JUMPDEST SWAP2 POP DUP3 PUSH1 0x2 MUL DUP3 OR SWAP1 POP SWAP3 SWAP2 POP POP JUMP JUMPDEST PUSH3 0x6DA DUP3 PUSH3 0x46B JUMP JUMPDEST PUSH8 0xFFFFFFFFFFFFFFFF DUP2 GT ISZERO PUSH3 0x6F6 JUMPI PUSH3 0x6F5 PUSH3 0x475 JUMP JUMPDEST JUMPDEST PUSH3 0x702 DUP3 SLOAD PUSH3 0x4CF JUMP JUMPDEST PUSH3 0x70F DUP3 DUP3 DUP6 PUSH3 0x638 JUMP JUMPDEST PUSH0 PUSH1 0x20 SWAP1 POP PUSH1 0x1F DUP4 GT PUSH1 0x1 DUP2 EQ PUSH3 0x745 JUMPI PUSH0 DUP5 ISZERO PUSH3 0x730 JUMPI DUP3 DUP8 ADD MLOAD SWAP1 POP JUMPDEST PUSH3 0x73C DUP6 DUP3 PUSH3 0x6B2 JUMP JUMPDEST DUP7 SSTORE POP PUSH3 0x7AB JUMP JUMPDEST PUSH1 0x1F NOT DUP5 AND PUSH3 0x755 DUP7 PUSH3 0x503 JUMP JUMPDEST PUSH0 JUMPDEST DUP3 DUP2 LT ISZERO PUSH3 0x77E JUMPI DUP5 DUP10 ADD MLOAD DUP3 SSTORE PUSH1 0x1 DUP3 ADD SWAP2 POP PUSH1 0x20 DUP6 ADD SWAP5 POP PUSH1 0x20 DUP2 ADD SWAP1 POP PUSH3 0x757 JUMP JUMPDEST DUP7 DUP4 LT ISZERO PUSH3 0x79E JUMPI DUP5 DUP10 ADD MLOAD PUSH3 0x79A PUSH1 0x1F DUP10 AND DUP3 PUSH3 0x694 JUMP JUMPDEST DUP4 SSTORE POP JUMPDEST PUSH1 0x1 PUSH1 0x2 DUP9 MUL ADD DUP9 SSTORE POP POP POP JUMPDEST POP POP POP POP POP POP JUMP JUMPDEST PUSH0 DUP3 DUP3 MSTORE PUSH1 0x20 DUP3 ADD SWAP1 POP SWAP3 SWAP2 POP POP JUMP JUMPDEST PUSH32 0x43616E6E6F7420736574206F776E657220746F207A65726F0000000000000000 PUSH0 DUP3 ADD MSTORE POP JUMP JUMPDEST PUSH0 PUSH3 0x7F9 PUSH1 0x18 DUP4 PUSH3 0x7B3 JUMP JUMPDEST SWAP2 POP PUSH3 0x806 DUP3 PUSH3 0x7C3 JUMP JUMPDEST PUSH1 0x20 DUP3 ADD SWAP1 POP SWAP2 SWAP1 POP JUMP JUMPDEST PUSH0 PUSH1 0x20 DUP3 ADD SWAP1 POP DUP2 DUP2 SUB PUSH0 DUP4 ADD MSTORE PUSH3 0x82A DUP2 PUSH3 0x7EB JUMP JUMPDEST SWAP1 POP SWAP2 SWAP1 POP JUMP JUMPDEST PUSH0 DUP2 SWAP1 POP SWAP3 SWAP2 POP POP JUMP JUMPDEST PUSH32 0x5553444300000000000000000000000000000000000000000000000000000000 PUSH0 DUP3 ADD MSTORE POP JUMP JUMPDEST PUSH0 PUSH3 0x871 PUSH1 0x4 DUP4 PUSH3 0x831 JUMP JUMPDEST SWAP2 POP PUSH3 0x87E DUP3 PUSH3 0x83B JUMP JUMPDEST PUSH1 0x4 DUP3 ADD SWAP1 POP SWAP2 SWAP1 POP JUMP JUMPDEST PUSH0 PUSH3 0x895 DUP3 PUSH3 0x863 JUMP JUMPDEST SWAP2 POP DUP2 SWAP1 POP SWAP2 SWAP1 POP JUMP JUMPDEST PUSH32 0x4555520000000000000000000000000000000000000000000000000000000000 PUSH0 DUP3 ADD MSTORE POP JUMP JUMPDEST PUSH0 PUSH3 0x8D5 PUSH1 0x3 DUP4 PUSH3 0x831 JUMP JUMPDEST SWAP2 POP PUSH3 0x8E2 DUP3 PUSH3 0x89F JUMP JUMPDEST PUSH1 0x3 DUP3 ADD SWAP1 POP SWAP2 SWAP1 POP JUMP JUMPDEST PUSH0 PUSH3 0x8F9 DUP3 PUSH3 0x8C7 JUMP JUMPDEST SWAP2 POP DUP2 SWAP1 POP SWAP2 SWAP1 POP JUMP JUMPDEST PUSH32 0x43616E6E6F74207472616E7366657220746F2073656C66000000000000000000 PUSH0 DUP3 ADD MSTORE POP JUMP JUMPDEST PUSH0 PUSH3 0x939 PUSH1 0x17 DUP4 PUSH3 0x7B3 JUMP JUMPDEST SWAP2 POP PUSH3 0x946 DUP3 PUSH3 0x903 JUMP JUMPDEST PUSH1 0x20 DUP3 ADD SWAP1 POP SWAP2 SWAP1 POP JUMP JUMPDEST PUSH0 PUSH1 0x20 DUP3 ADD SWAP1 POP DUP2 DUP2 SUB PUSH0 DUP4 ADD MSTORE PUSH3 0x96A DUP2 PUSH3 0x92B JUMP JUMPDEST SWAP1 POP SWAP2 SWAP1 POP JUMP JUMPDEST PUSH1 0x80 MLOAD PUSH2 0x2F1B PUSH3 0x991 PUSH0 CODECOPY PUSH0 DUP2 DUP2 PUSH2 0x299 ADD MSTORE PUSH2 0x1247 ADD MSTORE PUSH2 0x2F1B PUSH0 RETURN INVALID PUSH1 0x80 PUSH1 0x40 MSTORE CALLVALUE DUP1 ISZERO PUSH2 0xF JUMPI PUSH0 DUP1 REVERT JUMPDEST POP PUSH1 0x4 CALLDATASIZE LT PUSH2 0xCD JUMPI PUSH0 CALLDATALOAD PUSH1 0xE0 SHR DUP1 PUSH4 0x79BA5097 GT PUSH2 0x8A JUMPI DUP1 PUSH4 0xB145B89F GT PUSH2 0x64 JUMPI DUP1 PUSH4 0xB145B89F EQ PUSH2 0x1FD JUMPI DUP1 PUSH4 0xB1E21749 EQ PUSH2 0x22D JUMPI DUP1 PUSH4 0xF2FDE38B EQ PUSH2 0x24B JUMPI DUP1 PUSH4 0xFE75C2B1 EQ PUSH2 0x267 JUMPI PUSH2 0xCD JUMP JUMPDEST DUP1 PUSH4 0x79BA5097 EQ PUSH2 0x1B9 JUMPI DUP1 PUSH4 0x8DA5CB5B EQ PUSH2 0x1C3 JUMPI DUP1 PUSH4 0x9B2EA4BD EQ PUSH2 0x1E1 JUMPI PUSH2 0xCD JUMP JUMPDEST DUP1 PUSH4 0xCA76175 EQ PUSH2 0xD1 JUMPI DUP1 PUSH4 0x3944EA3A EQ PUSH2 0xED JUMPI DUP1 PUSH4 0x4B0795A8 EQ PUSH2 0x10B JUMPI DUP1 PUSH4 0x524F3889 EQ PUSH2 0x129 JUMPI DUP1 PUSH4 0x57A7A248 EQ PUSH2 0x159 JUMPI DUP1 PUSH4 0x72A5BE5F EQ PUSH2 0x189 JUMPI JUMPDEST PUSH0 DUP1 REVERT JUMPDEST PUSH2 0xEB PUSH1 0x4 DUP1 CALLDATASIZE SUB DUP2 ADD SWAP1 PUSH2 0xE6 SWAP2 SWAP1 PUSH2 0x1C82 JUMP JUMPDEST PUSH2 0x297 JUMP JUMPDEST STOP JUMPDEST PUSH2 0xF5 PUSH2 0x359 JUMP JUMPDEST PUSH1 0x40 MLOAD PUSH2 0x102 SWAP2 SWAP1 PUSH2 0x1D84 JUMP JUMPDEST PUSH1 0x40 MLOAD DUP1 SWAP2 SUB SWAP1 RETURN JUMPDEST PUSH2 0x113 PUSH2 0x3E5 JUMP JUMPDEST PUSH1 0x40 MLOAD PUSH2 0x120 SWAP2 SWAP1 PUSH2 0x1D84 JUMP JUMPDEST PUSH1 0x40 MLOAD DUP1 SWAP2 SUB SWAP1 RETURN JUMPDEST PUSH2 0x143 PUSH1 0x4 DUP1 CALLDATASIZE SUB DUP2 ADD SWAP1 PUSH2 0x13E SWAP2 SWAP1 PUSH2 0x1E42 JUMP JUMPDEST PUSH2 0x471 JUMP JUMPDEST PUSH1 0x40 MLOAD PUSH2 0x150 SWAP2 SWAP1 PUSH2 0x1EA1 JUMP JUMPDEST PUSH1 0x40 MLOAD DUP1 SWAP2 SUB SWAP1 RETURN JUMPDEST PUSH2 0x173 PUSH1 0x4 DUP1 CALLDATASIZE SUB DUP2 ADD SWAP1 PUSH2 0x16E SWAP2 SWAP1 PUSH2 0x1E42 JUMP JUMPDEST PUSH2 0x554 JUMP JUMPDEST PUSH1 0x40 MLOAD PUSH2 0x180 SWAP2 SWAP1 PUSH2 0x1EF9 JUMP JUMPDEST PUSH1 0x40 MLOAD DUP1 SWAP2 SUB SWAP1 RETURN JUMPDEST PUSH2 0x1A3 PUSH1 0x4 DUP1 CALLDATASIZE SUB DUP2 ADD SWAP1 PUSH2 0x19E SWAP2 SWAP1 PUSH2 0x2145 JUMP JUMPDEST PUSH2 0x59C JUMP JUMPDEST PUSH1 0x40 MLOAD PUSH2 0x1B0 SWAP2 SWAP1 PUSH2 0x221F JUMP JUMPDEST PUSH1 0x40 MLOAD DUP1 SWAP2 SUB SWAP1 RETURN JUMPDEST PUSH2 0x1C1 PUSH2 0x71D JUMP JUMPDEST STOP JUMPDEST PUSH2 0x1CB PUSH2 0x8AC JUMP JUMPDEST PUSH1 0x40 MLOAD PUSH2 0x1D8 SWAP2 SWAP1 PUSH2 0x1EF9 JUMP JUMPDEST PUSH1 0x40 MLOAD DUP1 SWAP2 SUB SWAP1 RETURN JUMPDEST PUSH2 0x1FB PUSH1 0x4 DUP1 CALLDATASIZE SUB DUP2 ADD SWAP1 PUSH2 0x1F6 SWAP2 SWAP1 PUSH2 0x2262 JUMP JUMPDEST PUSH2 0x8D3 JUMP JUMPDEST STOP JUMPDEST PUSH2 0x217 PUSH1 0x4 DUP1 CALLDATASIZE SUB DUP2 ADD SWAP1 PUSH2 0x212 SWAP2 SWAP1 PUSH2 0x1E42 JUMP JUMPDEST PUSH2 0x933 JUMP JUMPDEST PUSH1 0x40 MLOAD PUSH2 0x224 SWAP2 SWAP1 PUSH2 0x1EA1 JUMP JUMPDEST PUSH1 0x40 MLOAD DUP1 SWAP2 SUB SWAP1 RETURN JUMPDEST PUSH2 0x235 PUSH2 0x960 JUMP JUMPDEST PUSH1 0x40 MLOAD PUSH2 0x242 SWAP2 SWAP1 PUSH2 0x221F JUMP JUMPDEST PUSH1 0x40 MLOAD DUP1 SWAP2 SUB SWAP1 RETURN JUMPDEST PUSH2 0x265 PUSH1 0x4 DUP1 CALLDATASIZE SUB DUP2 ADD SWAP1 PUSH2 0x260 SWAP2 SWAP1 PUSH2 0x22BC JUMP JUMPDEST PUSH2 0x966 JUMP JUMPDEST STOP JUMPDEST PUSH2 0x281 PUSH1 0x4 DUP1 CALLDATASIZE SUB DUP2 ADD SWAP1 PUSH2 0x27C SWAP2 SWAP1 PUSH2 0x22E7 JUMP JUMPDEST PUSH2 0x97A JUMP JUMPDEST PUSH1 0x40 MLOAD PUSH2 0x28E SWAP2 SWAP1 PUSH2 0x221F JUMP JUMPDEST PUSH1 0x40 MLOAD DUP1 SWAP2 SUB SWAP1 RETURN JUMPDEST PUSH32 0x0 PUSH20 0xFFFFFFFFFFFFFFFFFFFFFFFFFFFFFFFFFFFFFFFF AND CALLER PUSH20 0xFFFFFFFFFFFFFFFFFFFFFFFFFFFFFFFFFFFFFFFF AND EQ PUSH2 0x31C JUMPI PUSH1 0x40 MLOAD PUSH32 0xC6829F8300000000000000000000000000000000000000000000000000000000 DUP2 MSTORE PUSH1 0x4 ADD PUSH1 0x40 MLOAD DUP1 SWAP2 SUB SWAP1 REVERT JUMPDEST PUSH2 0x327 DUP4 DUP4 DUP4 PUSH2 0x9C7 JUMP JUMPDEST DUP3 PUSH32 0x85E1543BF2F84FE80C6BADBCE3648C8539AD1DF4D2B3D822938CA0538BE727E6 PUSH1 0x40 MLOAD PUSH1 0x40 MLOAD DUP1 SWAP2 SUB SWAP1 LOG2 POP POP POP JUMP JUMPDEST PUSH1 0x7 DUP1 SLOAD PUSH2 0x366 SWAP1 PUSH2 0x235B JUMP JUMPDEST DUP1 PUSH1 0x1F ADD PUSH1 0x20 DUP1 SWAP2 DIV MUL PUSH1 0x20 ADD PUSH1 0x40 MLOAD SWAP1 DUP2 ADD PUSH1 0x40 MSTORE DUP1 SWAP3 SWAP2 SWAP1 DUP2 DUP2 MSTORE PUSH1 0x20 ADD DUP3 DUP1 SLOAD PUSH2 0x392 SWAP1 PUSH2 0x235B JUMP JUMPDEST DUP1 ISZERO PUSH2 0x3DD JUMPI DUP1 PUSH1 0x1F LT PUSH2 0x3B4 JUMPI PUSH2 0x100 DUP1 DUP4 SLOAD DIV MUL DUP4 MSTORE SWAP2 PUSH1 0x20 ADD SWAP2 PUSH2 0x3DD JUMP JUMPDEST DUP3 ADD SWAP2 SWAP1 PUSH0 MSTORE PUSH1 0x20 PUSH0 KECCAK256 SWAP1 JUMPDEST DUP2 SLOAD DUP2 MSTORE SWAP1 PUSH1 0x1 ADD SWAP1 PUSH1 0x20 ADD DUP1 DUP4 GT PUSH2 0x3C0 JUMPI DUP3 SWAP1 SUB PUSH1 0x1F AND DUP3 ADD SWAP2 JUMPDEST POP POP POP POP POP DUP2 JUMP JUMPDEST PUSH1 0x8 DUP1 SLOAD PUSH2 0x3F2 SWAP1 PUSH2 0x235B JUMP JUMPDEST DUP1 PUSH1 0x1F ADD PUSH1 0x20 DUP1 SWAP2 DIV MUL PUSH1 0x20 ADD PUSH1 0x40 MLOAD SWAP1 DUP2 ADD PUSH1 0x40 MSTORE DUP1 SWAP3 SWAP2 SWAP1 DUP2 DUP2 MSTORE PUSH1 0x20 ADD DUP3 DUP1 SLOAD PUSH2 0x41E SWAP1 PUSH2 0x235B JUMP JUMPDEST DUP1 ISZERO PUSH2 0x469 JUMPI DUP1 PUSH1 0x1F LT PUSH2 0x440 JUMPI PUSH2 0x100 DUP1 DUP4 SLOAD DIV MUL DUP4 MSTORE SWAP2 PUSH1 0x20 ADD SWAP2 PUSH2 0x469 JUMP JUMPDEST DUP3 ADD SWAP2 SWAP1 PUSH0 MSTORE PUSH1 0x20 PUSH0 KECCAK256 SWAP1 JUMPDEST DUP2 SLOAD DUP2 MSTORE SWAP1 PUSH1 0x1 ADD SWAP1 PUSH1 0x20 ADD DUP1 DUP4 GT PUSH2 0x44C JUMPI DUP3 SWAP1 SUB PUSH1 0x1F AND DUP3 ADD SWAP2 JUMPDEST POP POP POP POP POP DUP2 JUMP JUMPDEST PUSH0 DUP1 PUSH0 SWAP1 POP PUSH0 PUSH1 0x3 DUP5 PUSH1 0x40 MLOAD PUSH2 0x487 SWAP2 SWAP1 PUSH2 0x23CF JUMP JUMPDEST SWAP1 DUP2 MSTORE PUSH1 0x20 ADD PUSH1 0x40 MLOAD DUP1 SWAP2 SUB SWAP1 KECCAK256 PUSH0 SWAP1 SLOAD SWAP1 PUSH2 0x100 EXP SWAP1 DIV PUSH20 0xFFFFFFFFFFFFFFFFFFFFFFFFFFFFFFFFFFFFFFFF AND SWAP1 POP PUSH0 PUSH20 0xFFFFFFFFFFFFFFFFFFFFFFFFFFFFFFFFFFFFFFFF AND DUP2 PUSH20 0xFFFFFFFFFFFFFFFFFFFFFFFFFFFFFFFFFFFFFFFF AND EQ PUSH2 0x54A JUMPI DUP1 PUSH1 0x2 PUSH0 PUSH2 0x100 EXP DUP2 SLOAD DUP2 PUSH20 0xFFFFFFFFFFFFFFFFFFFFFFFFFFFFFFFFFFFFFFFF MUL NOT AND SWAP1 DUP4 PUSH20 0xFFFFFFFFFFFFFFFFFFFFFFFFFFFFFFFFFFFFFFFF AND MUL OR SWAP1 SSTORE POP PUSH2 0x533 DUP5 PUSH2 0xAAD JUMP JUMPDEST SWAP2 POP DUP2 PUSH6 0x5AF3107A4000 PUSH2 0x547 SWAP2 SWAP1 PUSH2 0x243F JUMP JUMPDEST SWAP2 POP JUMPDEST DUP2 SWAP3 POP POP POP SWAP2 SWAP1 POP JUMP JUMPDEST PUSH1 0x3 DUP2 DUP1 MLOAD PUSH1 0x20 DUP2 ADD DUP3 ADD DUP1 MLOAD DUP5 DUP3 MSTORE PUSH1 0x20 DUP4 ADD PUSH1 0x20 DUP6 ADD KECCAK256 DUP2 DUP4 MSTORE DUP1 SWAP6 POP POP POP POP POP POP PUSH0 SWAP2 POP SLOAD SWAP1 PUSH2 0x100 EXP SWAP1 DIV PUSH20 0xFFFFFFFFFFFFFFFFFFFFFFFFFFFFFFFFFFFFFFFF AND DUP2 JUMP JUMPDEST PUSH0 PUSH2 0x5A5 PUSH2 0xB80 JUMP JUMPDEST PUSH2 0x5AD PUSH2 0x1A5B JUMP JUMPDEST PUSH2 0x648 PUSH1 0x9 DUP1 SLOAD PUSH2 0x5BD SWAP1 PUSH2 0x235B JUMP JUMPDEST DUP1 PUSH1 0x1F ADD PUSH1 0x20 DUP1 SWAP2 DIV MUL PUSH1 0x20 ADD PUSH1 0x40 MLOAD SWAP1 DUP2 ADD PUSH1 0x40 MSTORE DUP1 SWAP3 SWAP2 SWAP1 DUP2 DUP2 MSTORE PUSH1 0x20 ADD DUP3 DUP1 SLOAD PUSH2 0x5E9 SWAP1 PUSH2 0x235B JUMP JUMPDEST DUP1 ISZERO PUSH2 0x634 JUMPI DUP1 PUSH1 0x1F LT PUSH2 0x60B JUMPI PUSH2 0x100 DUP1 DUP4 SLOAD DIV MUL DUP4 MSTORE SWAP2 PUSH1 0x20 ADD SWAP2 PUSH2 0x634 JUMP JUMPDEST DUP3 ADD SWAP2 SWAP1 PUSH0 MSTORE PUSH1 0x20 PUSH0 KECCAK256 SWAP1 JUMPDEST DUP2 SLOAD DUP2 MSTORE SWAP1 PUSH1 0x1 ADD SWAP1 PUSH1 0x20 ADD DUP1 DUP4 GT PUSH2 0x617 JUMPI DUP3 SWAP1 SUB PUSH1 0x1F AND DUP3 ADD SWAP2 JUMPDEST POP POP POP POP POP DUP3 PUSH2 0xC0F SWAP1 SWAP2 SWAP1 PUSH4 0xFFFFFFFF AND JUMP JUMPDEST PUSH0 DUP8 MLOAD GT ISZERO PUSH2 0x669 JUMPI PUSH2 0x664 DUP8 DUP3 PUSH2 0xC1F SWAP1 SWAP2 SWAP1 PUSH4 0xFFFFFFFF AND JUMP JUMPDEST PUSH2 0x692 JUMP JUMPDEST PUSH0 DUP6 PUSH8 0xFFFFFFFFFFFFFFFF AND GT ISZERO PUSH2 0x691 JUMPI PUSH2 0x690 DUP7 DUP7 DUP4 PUSH2 0xC97 SWAP1 SWAP3 SWAP2 SWAP1 PUSH4 0xFFFFFFFF AND JUMP JUMPDEST JUMPDEST JUMPDEST PUSH0 DUP5 MLOAD GT ISZERO PUSH2 0x6AF JUMPI PUSH2 0x6AE DUP5 DUP3 PUSH2 0xDA4 SWAP1 SWAP2 SWAP1 PUSH4 0xFFFFFFFF AND JUMP JUMPDEST JUMPDEST PUSH0 DUP4 MLOAD GT ISZERO PUSH2 0x6CC JUMPI PUSH2 0x6CB DUP4 DUP3 PUSH2 0xDEB SWAP1 SWAP2 SWAP1 PUSH4 0xFFFFFFFF AND JUMP JUMPDEST JUMPDEST PUSH2 0x708 PUSH2 0x6D8 DUP3 PUSH2 0xE32 JUMP JUMPDEST PUSH1 0xC PUSH0 SWAP1 SLOAD SWAP1 PUSH2 0x100 EXP SWAP1 DIV PUSH8 0xFFFFFFFFFFFFFFFF AND PUSH1 0xA PUSH0 SWAP1 SLOAD SWAP1 PUSH2 0x100 EXP SWAP1 DIV PUSH4 0xFFFFFFFF AND PUSH1 0xB SLOAD PUSH2 0x1243 JUMP JUMPDEST PUSH1 0x6 DUP2 SWAP1 SSTORE POP PUSH1 0x6 SLOAD SWAP2 POP POP SWAP6 SWAP5 POP POP POP POP POP JUMP JUMPDEST PUSH1 0x1 PUSH0 SWAP1 SLOAD SWAP1 PUSH2 0x100 EXP SWAP1 DIV PUSH20 0xFFFFFFFFFFFFFFFFFFFFFFFFFFFFFFFFFFFFFFFF AND PUSH20 0xFFFFFFFFFFFFFFFFFFFFFFFFFFFFFFFFFFFFFFFF AND CALLER PUSH20 0xFFFFFFFFFFFFFFFFFFFFFFFFFFFFFFFFFFFFFFFF AND EQ PUSH2 0x7AC JUMPI PUSH1 0x40 MLOAD PUSH32 0x8C379A000000000000000000000000000000000000000000000000000000000 DUP2 MSTORE PUSH1 0x4 ADD PUSH2 0x7A3 SWAP1 PUSH2 0x2501 JUMP JUMPDEST PUSH1 0x40 MLOAD DUP1 SWAP2 SUB SWAP1 REVERT JUMPDEST PUSH0 DUP1 PUSH0 SWAP1 SLOAD SWAP1 PUSH2 0x100 EXP SWAP1 DIV PUSH20 0xFFFFFFFFFFFFFFFFFFFFFFFFFFFFFFFFFFFFFFFF AND SWAP1 POP CALLER PUSH0 DUP1 PUSH2 0x100 EXP DUP2 SLOAD DUP2 PUSH20 0xFFFFFFFFFFFFFFFFFFFFFFFFFFFFFFFFFFFFFFFF MUL NOT AND SWAP1 DUP4 PUSH20 0xFFFFFFFFFFFFFFFFFFFFFFFFFFFFFFFFFFFFFFFF AND MUL OR SWAP1 SSTORE POP PUSH0 PUSH1 0x1 PUSH0 PUSH2 0x100 EXP DUP2 SLOAD DUP2 PUSH20 0xFFFFFFFFFFFFFFFFFFFFFFFFFFFFFFFFFFFFFFFF MUL NOT AND SWAP1 DUP4 PUSH20 0xFFFFFFFFFFFFFFFFFFFFFFFFFFFFFFFFFFFFFFFF AND MUL OR SWAP1 SSTORE POP CALLER PUSH20 0xFFFFFFFFFFFFFFFFFFFFFFFFFFFFFFFFFFFFFFFF AND DUP2 PUSH20 0xFFFFFFFFFFFFFFFFFFFFFFFFFFFFFFFFFFFFFFFF AND PUSH32 0x8BE0079C531659141344CD1FD0A4F28419497F9722A3DAAFE3B4186F6B6457E0 PUSH1 0x40 MLOAD PUSH1 0x40 MLOAD DUP1 SWAP2 SUB SWAP1 LOG3 POP JUMP JUMPDEST PUSH0 DUP1 PUSH0 SWAP1 SLOAD SWAP1 PUSH2 0x100 EXP SWAP1 DIV PUSH20 0xFFFFFFFFFFFFFFFFFFFFFFFFFFFFFFFFFFFFFFFF AND SWAP1 POP SWAP1 JUMP JUMPDEST DUP1 PUSH1 0x3 DUP4 PUSH1 0x40 MLOAD PUSH2 0x8E4 SWAP2 SWAP1 PUSH2 0x23CF JUMP JUMPDEST SWAP1 DUP2 MSTORE PUSH1 0x20 ADD PUSH1 0x40 MLOAD DUP1 SWAP2 SUB SWAP1 KECCAK256 PUSH0 PUSH2 0x100 EXP DUP2 SLOAD DUP2 PUSH20 0xFFFFFFFFFFFFFFFFFFFFFFFFFFFFFFFFFFFFFFFF MUL NOT AND SWAP1 DUP4 PUSH20 0xFFFFFFFFFFFFFFFFFFFFFFFFFFFFFFFFFFFFFFFF AND MUL OR SWAP1 SSTORE POP POP POP JUMP JUMPDEST PUSH1 0x4 DUP2 DUP1 MLOAD PUSH1 0x20 DUP2 ADD DUP3 ADD DUP1 MLOAD DUP5 DUP3 MSTORE PUSH1 0x20 DUP4 ADD PUSH1 0x20 DUP6 ADD KECCAK256 DUP2 DUP4 MSTORE DUP1 SWAP6 POP POP POP POP POP POP PUSH0 SWAP2 POP SWAP1 POP SLOAD DUP2 JUMP JUMPDEST PUSH1 0x6 SLOAD DUP2 JUMP JUMPDEST PUSH2 0x96E PUSH2 0xB80 JUMP JUMPDEST PUSH2 0x977 DUP2 PUSH2 0x1322 JUMP JUMPDEST POP JUMP JUMPDEST PUSH0 PUSH2 0x983 PUSH2 0xB80 JUMP JUMPDEST PUSH2 0x9B7 DUP3 PUSH1 0xC PUSH0 SWAP1 SLOAD SWAP1 PUSH2 0x100 EXP SWAP1 DIV PUSH8 0xFFFFFFFFFFFFFFFF AND PUSH1 0xA PUSH0 SWAP1 SLOAD SWAP1 PUSH2 0x100 EXP SWAP1 DIV PUSH4 0xFFFFFFFF AND PUSH1 0xB SLOAD PUSH2 0x1243 JUMP JUMPDEST PUSH1 0x6 DUP2 SWAP1 SSTORE POP PUSH1 0x6 SLOAD SWAP1 POP SWAP2 SWAP1 POP JUMP JUMPDEST DUP3 PUSH1 0x6 SLOAD EQ PUSH2 0xA0D JUMPI DUP3 PUSH1 0x40 MLOAD PUSH32 0xD068BF5B00000000000000000000000000000000000000000000000000000000 DUP2 MSTORE PUSH1 0x4 ADD PUSH2 0xA04 SWAP2 SWAP1 PUSH2 0x221F JUMP JUMPDEST PUSH1 0x40 MLOAD DUP1 SWAP2 SUB SWAP1 REVERT JUMPDEST DUP2 PUSH1 0x7 SWAP1 DUP2 PUSH2 0xA1C SWAP2 SWAP1 PUSH2 0x26C5 JUMP JUMPDEST POP DUP1 PUSH1 0x8 SWAP1 DUP2 PUSH2 0xA2C SWAP2 SWAP1 PUSH2 0x26C5 JUMP JUMPDEST POP PUSH0 DUP1 DUP4 DUP1 PUSH1 0x20 ADD SWAP1 MLOAD DUP2 ADD SWAP1 PUSH2 0xA43 SWAP2 SWAP1 PUSH2 0x282C JUMP JUMPDEST SWAP2 POP SWAP2 POP DUP1 PUSH1 0x4 DUP4 PUSH1 0x40 MLOAD PUSH2 0xA58 SWAP2 SWAP1 PUSH2 0x23CF JUMP JUMPDEST SWAP1 DUP2 MSTORE PUSH1 0x20 ADD PUSH1 0x40 MLOAD DUP1 SWAP2 SUB SWAP1 KECCAK256 DUP2 SWAP1 SSTORE POP DUP5 PUSH32 0x7873807BF6DDC50401CD3D29BBE0DECEE23FD4D68D273F4B5EB83CDED4D2F172 PUSH1 0x7 PUSH1 0x8 PUSH1 0x40 MLOAD PUSH2 0xA9E SWAP3 SWAP2 SWAP1 PUSH2 0x2907 JUMP JUMPDEST PUSH1 0x40 MLOAD DUP1 SWAP2 SUB SWAP1 LOG2 POP POP POP POP POP JUMP JUMPDEST PUSH0 DUP1 PUSH1 0x2 PUSH0 SWAP1 SLOAD SWAP1 PUSH2 0x100 EXP SWAP1 DIV PUSH20 0xFFFFFFFFFFFFFFFFFFFFFFFFFFFFFFFFFFFFFFFF AND PUSH20 0xFFFFFFFFFFFFFFFFFFFFFFFFFFFFFFFFFFFFFFFF AND PUSH4 0xFEAF968C PUSH1 0x40 MLOAD DUP2 PUSH4 0xFFFFFFFF AND PUSH1 0xE0 SHL DUP2 MSTORE PUSH1 0x4 ADD PUSH1 0xA0 PUSH1 0x40 MLOAD DUP1 DUP4 SUB DUP2 DUP7 GAS STATICCALL ISZERO DUP1 ISZERO PUSH2 0xB19 JUMPI RETURNDATASIZE PUSH0 DUP1 RETURNDATACOPY RETURNDATASIZE PUSH0 REVERT JUMPDEST POP POP POP POP PUSH1 0x40 MLOAD RETURNDATASIZE PUSH1 0x1F NOT PUSH1 0x1F DUP3 ADD AND DUP3 ADD DUP1 PUSH1 0x40 MSTORE POP DUP2 ADD SWAP1 PUSH2 0xB3D SWAP2 SWAP1 PUSH2 0x29A5 JUMP JUMPDEST POP POP POP SWAP2 POP POP DUP1 PUSH6 0x5AF3107A4000 PUSH2 0xB55 SWAP2 SWAP1 PUSH2 0x243F JUMP JUMPDEST PUSH1 0x4 DUP5 PUSH1 0x40 MLOAD PUSH2 0xB65 SWAP2 SWAP1 PUSH2 0x23CF JUMP JUMPDEST SWAP1 DUP2 MSTORE PUSH1 0x20 ADD PUSH1 0x40 MLOAD DUP1 SWAP2 SUB SWAP1 KECCAK256 DUP2 SWAP1 SSTORE POP DUP1 SWAP2 POP POP SWAP2 SWAP1 POP JUMP JUMPDEST PUSH0 DUP1 SLOAD SWAP1 PUSH2 0x100 EXP SWAP1 DIV PUSH20 0xFFFFFFFFFFFFFFFFFFFFFFFFFFFFFFFFFFFFFFFF AND PUSH20 0xFFFFFFFFFFFFFFFFFFFFFFFFFFFFFFFFFFFFFFFF AND CALLER PUSH20 0xFFFFFFFFFFFFFFFFFFFFFFFFFFFFFFFFFFFFFFFF AND EQ PUSH2 0xC0D JUMPI PUSH1 0x40 MLOAD PUSH32 0x8C379A000000000000000000000000000000000000000000000000000000000 DUP2 MSTORE PUSH1 0x4 ADD PUSH2 0xC04 SWAP1 PUSH2 0x2A66 JUMP JUMPDEST PUSH1 0x40 MLOAD DUP1 SWAP2 SUB SWAP1 REVERT JUMPDEST JUMP JUMPDEST PUSH2 0xC1B DUP3 PUSH0 DUP1 DUP5 PUSH2 0x144C JUMP JUMPDEST POP POP JUMP JUMPDEST PUSH0 DUP2 MLOAD SUB PUSH2 0xC59 JUMPI PUSH1 0x40 MLOAD PUSH32 0xE889636F00000000000000000000000000000000000000000000000000000000 DUP2 MSTORE PUSH1 0x4 ADD PUSH1 0x40 MLOAD DUP1 SWAP2 SUB SWAP1 REVERT JUMPDEST PUSH1 0x1 DUP3 PUSH1 0x20 ADD SWAP1 PUSH1 0x2 DUP2 GT ISZERO PUSH2 0xC72 JUMPI PUSH2 0xC71 PUSH2 0x2A84 JUMP JUMPDEST JUMPDEST SWAP1 DUP2 PUSH1 0x2 DUP2 GT ISZERO PUSH2 0xC86 JUMPI PUSH2 0xC85 PUSH2 0x2A84 JUMP JUMPDEST JUMPDEST DUP2 MSTORE POP POP DUP1 DUP3 PUSH1 0x80 ADD DUP2 SWAP1 MSTORE POP POP POP JUMP JUMPDEST PUSH0 PUSH2 0xCA3 PUSH2 0x100 PUSH2 0x14F2 JUMP JUMPDEST SWAP1 POP PUSH2 0xCED PUSH1 0x40 MLOAD DUP1 PUSH1 0x40 ADD PUSH1 0x40 MSTORE DUP1 PUSH1 0x6 DUP2 MSTORE PUSH1 0x20 ADD PUSH32 0x736C6F7449440000000000000000000000000000000000000000000000000000 DUP2 MSTORE POP DUP3 PUSH2 0x1517 SWAP1 SWAP2 SWAP1 PUSH4 0xFFFFFFFF AND JUMP JUMPDEST PUSH2 0xD03 DUP4 PUSH1 0xFF AND DUP3 PUSH2 0x153F SWAP1 SWAP2 SWAP1 PUSH4 0xFFFFFFFF AND JUMP JUMPDEST PUSH2 0xD4B PUSH1 0x40 MLOAD DUP1 PUSH1 0x40 ADD PUSH1 0x40 MSTORE DUP1 PUSH1 0x7 DUP2 MSTORE PUSH1 0x20 ADD PUSH32 0x76657273696F6E00000000000000000000000000000000000000000000000000 DUP2 MSTORE POP DUP3 PUSH2 0x1517 SWAP1 SWAP2 SWAP1 PUSH4 0xFFFFFFFF AND JUMP JUMPDEST PUSH2 0xD5E DUP3 DUP3 PUSH2 0x153F SWAP1 SWAP2 SWAP1 PUSH4 0xFFFFFFFF AND JUMP JUMPDEST PUSH1 0x2 DUP5 PUSH1 0x20 ADD SWAP1 PUSH1 0x2 DUP2 GT ISZERO PUSH2 0xD77 JUMPI PUSH2 0xD76 PUSH2 0x2A84 JUMP JUMPDEST JUMPDEST SWAP1 DUP2 PUSH1 0x2 DUP2 GT ISZERO PUSH2 0xD8B JUMPI PUSH2 0xD8A PUSH2 0x2A84 JUMP JUMPDEST JUMPDEST DUP2 MSTORE POP POP DUP1 PUSH0 ADD MLOAD PUSH0 ADD MLOAD DUP5 PUSH1 0x80 ADD DUP2 SWAP1 MSTORE POP POP POP POP POP JUMP JUMPDEST PUSH0 DUP2 MLOAD SUB PUSH2 0xDDE JUMPI PUSH1 0x40 MLOAD PUSH32 0xFE936CB700000000000000000000000000000000000000000000000000000000 DUP2 MSTORE PUSH1 0x4 ADD PUSH1 0x40 MLOAD DUP1 SWAP2 SUB SWAP1 REVERT JUMPDEST DUP1 DUP3 PUSH1 0xA0 ADD DUP2 SWAP1 MSTORE POP POP POP JUMP JUMPDEST PUSH0 DUP2 MLOAD SUB PUSH2 0xE25 JUMPI PUSH1 0x40 MLOAD PUSH32 0xFE936CB700000000000000000000000000000000000000000000000000000000 DUP2 MSTORE PUSH1 0x4 ADD PUSH1 0x40 MLOAD DUP1 SWAP2 SUB SWAP1 REVERT JUMPDEST DUP1 DUP3 PUSH1 0xC0 ADD DUP2 SWAP1 MSTORE POP POP POP JUMP JUMPDEST PUSH1 0x60 PUSH0 PUSH2 0xE40 PUSH2 0x100 PUSH2 0x14F2 JUMP JUMPDEST SWAP1 POP PUSH2 0xE8A PUSH1 0x40 MLOAD DUP1 PUSH1 0x40 ADD PUSH1 0x40 MSTORE DUP1 PUSH1 0xC DUP2 MSTORE PUSH1 0x20 ADD PUSH32 0x636F64654C6F636174696F6E0000000000000000000000000000000000000000 DUP2 MSTORE POP DUP3 PUSH2 0x1517 SWAP1 SWAP2 SWAP1 PUSH4 0xFFFFFFFF AND JUMP JUMPDEST PUSH2 0xEB2 DUP4 PUSH0 ADD MLOAD PUSH1 0x2 DUP2 GT ISZERO PUSH2 0xEA3 JUMPI PUSH2 0xEA2 PUSH2 0x2A84 JUMP JUMPDEST JUMPDEST DUP3 PUSH2 0x154E SWAP1 SWAP2 SWAP1 PUSH4 0xFFFFFFFF AND JUMP JUMPDEST PUSH2 0xEFA PUSH1 0x40 MLOAD DUP1 PUSH1 0x40 ADD PUSH1 0x40 MSTORE DUP1 PUSH1 0x8 DUP2 MSTORE PUSH1 0x20 ADD PUSH32 0x6C616E6775616765000000000000000000000000000000000000000000000000 DUP2 MSTORE POP DUP3 PUSH2 0x1517 SWAP1 SWAP2 SWAP1 PUSH4 0xFFFFFFFF AND JUMP JUMPDEST PUSH2 0xF22 DUP4 PUSH1 0x40 ADD MLOAD PUSH0 DUP2 GT ISZERO PUSH2 0xF13 JUMPI PUSH2 0xF12 PUSH2 0x2A84 JUMP JUMPDEST JUMPDEST DUP3 PUSH2 0x154E SWAP1 SWAP2 SWAP1 PUSH4 0xFFFFFFFF AND JUMP JUMPDEST PUSH2 0xF6A PUSH1 0x40 MLOAD DUP1 PUSH1 0x40 ADD PUSH1 0x40 MSTORE DUP1 PUSH1 0x6 DUP2 MSTORE PUSH1 0x20 ADD PUSH32 0x736F757263650000000000000000000000000000000000000000000000000000 DUP2 MSTORE POP DUP3 PUSH2 0x1517 SWAP1 SWAP2 SWAP1 PUSH4 0xFFFFFFFF AND JUMP JUMPDEST PUSH2 0xF81 DUP4 PUSH1 0x60 ADD MLOAD DUP3 PUSH2 0x1517 SWAP1 SWAP2 SWAP1 PUSH4 0xFFFFFFFF AND JUMP JUMPDEST PUSH0 DUP4 PUSH1 0xA0 ADD MLOAD MLOAD GT ISZERO PUSH2 0x103B JUMPI PUSH2 0xFD6 PUSH1 0x40 MLOAD DUP1 PUSH1 0x40 ADD PUSH1 0x40 MSTORE DUP1 PUSH1 0x4 DUP2 MSTORE PUSH1 0x20 ADD PUSH32 0x6172677300000000000000000000000000000000000000000000000000000000 DUP2 MSTORE POP DUP3 PUSH2 0x1517 SWAP1 SWAP2 SWAP1 PUSH4 0xFFFFFFFF AND JUMP JUMPDEST PUSH2 0xFDF DUP2 PUSH2 0x159D JUMP JUMPDEST PUSH0 JUMPDEST DUP4 PUSH1 0xA0 ADD MLOAD MLOAD DUP2 LT ISZERO PUSH2 0x1030 JUMPI PUSH2 0x101F DUP5 PUSH1 0xA0 ADD MLOAD DUP3 DUP2 MLOAD DUP2 LT PUSH2 0x1008 JUMPI PUSH2 0x1007 PUSH2 0x2AB1 JUMP JUMPDEST JUMPDEST PUSH1 0x20 MUL PUSH1 0x20 ADD ADD MLOAD DUP4 PUSH2 0x1517 SWAP1 SWAP2 SWAP1 PUSH4 0xFFFFFFFF AND JUMP JUMPDEST DUP1 PUSH2 0x1029 SWAP1 PUSH2 0x2ADE JUMP JUMPDEST SWAP1 POP PUSH2 0xFE1 JUMP JUMPDEST POP PUSH2 0x103A DUP2 PUSH2 0x15C5 JUMP JUMPDEST JUMPDEST PUSH0 DUP4 PUSH1 0x80 ADD MLOAD MLOAD GT ISZERO PUSH2 0x117A JUMPI PUSH0 PUSH1 0x2 DUP2 GT ISZERO PUSH2 0x105B JUMPI PUSH2 0x105A PUSH2 0x2A84 JUMP JUMPDEST JUMPDEST DUP4 PUSH1 0x20 ADD MLOAD PUSH1 0x2 DUP2 GT ISZERO PUSH2 0x1072 JUMPI PUSH2 0x1071 PUSH2 0x2A84 JUMP JUMPDEST JUMPDEST SUB PUSH2 0x10A9 JUMPI PUSH1 0x40 MLOAD PUSH32 0xA80D31F700000000000000000000000000000000000000000000000000000000 DUP2 MSTORE PUSH1 0x4 ADD PUSH1 0x40 MLOAD DUP1 SWAP2 SUB SWAP1 REVERT JUMPDEST PUSH2 0x10F1 PUSH1 0x40 MLOAD DUP1 PUSH1 0x40 ADD PUSH1 0x40 MSTORE DUP1 PUSH1 0xF DUP2 MSTORE PUSH1 0x20 ADD PUSH32 0x736563726574734C6F636174696F6E0000000000000000000000000000000000 DUP2 MSTORE POP DUP3 PUSH2 0x1517 SWAP1 SWAP2 SWAP1 PUSH4 0xFFFFFFFF AND JUMP JUMPDEST PUSH2 0x111A DUP4 PUSH1 0x20 ADD MLOAD PUSH1 0x2 DUP2 GT ISZERO PUSH2 0x110B JUMPI PUSH2 0x110A PUSH2 0x2A84 JUMP JUMPDEST JUMPDEST DUP3 PUSH2 0x154E SWAP1 SWAP2 SWAP1 PUSH4 0xFFFFFFFF AND JUMP JUMPDEST PUSH2 0x1162 PUSH1 0x40 MLOAD DUP1 PUSH1 0x40 ADD PUSH1 0x40 MSTORE DUP1 PUSH1 0x7 DUP2 MSTORE PUSH1 0x20 ADD PUSH32 0x7365637265747300000000000000000000000000000000000000000000000000 DUP2 MSTORE POP DUP3 PUSH2 0x1517 SWAP1 SWAP2 SWAP1 PUSH4 0xFFFFFFFF AND JUMP JUMPDEST PUSH2 0x1179 DUP4 PUSH1 0x80 ADD MLOAD DUP3 PUSH2 0x15ED SWAP1 SWAP2 SWAP1 PUSH4 0xFFFFFFFF AND JUMP JUMPDEST JUMPDEST PUSH0 DUP4 PUSH1 0xC0 ADD MLOAD MLOAD GT ISZERO PUSH2 0x1234 JUMPI PUSH2 0x11CF PUSH1 0x40 MLOAD DUP1 PUSH1 0x40 ADD PUSH1 0x40 MSTORE DUP1 PUSH1 0x9 DUP2 MSTORE PUSH1 0x20 ADD PUSH32 0x6279746573417267730000000000000000000000000000000000000000000000 DUP2 MSTORE POP DUP3 PUSH2 0x1517 SWAP1 SWAP2 SWAP1 PUSH4 0xFFFFFFFF AND JUMP JUMPDEST PUSH2 0x11D8 DUP2 PUSH2 0x159D JUMP JUMPDEST PUSH0 JUMPDEST DUP4 PUSH1 0xC0 ADD MLOAD MLOAD DUP2 LT ISZERO PUSH2 0x1229 JUMPI PUSH2 0x1218 DUP5 PUSH1 0xC0 ADD MLOAD DUP3 DUP2 MLOAD DUP2 LT PUSH2 0x1201 JUMPI PUSH2 0x1200 PUSH2 0x2AB1 JUMP JUMPDEST JUMPDEST PUSH1 0x20 MUL PUSH1 0x20 ADD ADD MLOAD DUP4 PUSH2 0x15ED SWAP1 SWAP2 SWAP1 PUSH4 0xFFFFFFFF AND JUMP JUMPDEST DUP1 PUSH2 0x1222 SWAP1 PUSH2 0x2ADE JUMP JUMPDEST SWAP1 POP PUSH2 0x11DA JUMP JUMPDEST POP PUSH2 0x1233 DUP2 PUSH2 0x15C5 JUMP JUMPDEST JUMPDEST DUP1 PUSH0 ADD MLOAD PUSH0 ADD MLOAD SWAP2 POP POP SWAP2 SWAP1 POP JUMP JUMPDEST PUSH0 DUP1 PUSH32 0x0 PUSH20 0xFFFFFFFFFFFFFFFFFFFFFFFFFFFFFFFFFFFFFFFF AND PUSH4 0x461D2762 DUP7 DUP9 PUSH1 0x1 DUP9 DUP9 PUSH1 0x40 MLOAD DUP7 PUSH4 0xFFFFFFFF AND PUSH1 0xE0 SHL DUP2 MSTORE PUSH1 0x4 ADD PUSH2 0x12A7 SWAP6 SWAP5 SWAP4 SWAP3 SWAP2 SWAP1 PUSH2 0x2B6E JUMP JUMPDEST PUSH1 0x20 PUSH1 0x40 MLOAD DUP1 DUP4 SUB DUP2 PUSH0 DUP8 GAS CALL ISZERO DUP1 ISZERO PUSH2 0x12C3 JUMPI RETURNDATASIZE PUSH0 DUP1 RETURNDATACOPY RETURNDATASIZE PUSH0 REVERT JUMPDEST POP POP POP POP PUSH1 0x40 MLOAD RETURNDATASIZE PUSH1 0x1F NOT PUSH1 0x1F DUP3 ADD AND DUP3 ADD DUP1 PUSH1 0x40 MSTORE POP DUP2 ADD SWAP1 PUSH2 0x12E7 SWAP2 SWAP1 PUSH2 0x2BDA JUMP JUMPDEST SWAP1 POP DUP1 PUSH32 0x1131472297A800FEE664D1D89CFA8F7676FF07189ECC53F80BBB5F4969099DB8 PUSH1 0x40 MLOAD PUSH1 0x40 MLOAD DUP1 SWAP2 SUB SWAP1 LOG2 DUP1 SWAP2 POP POP SWAP5 SWAP4 POP POP POP POP JUMP JUMPDEST CALLER PUSH20 0xFFFFFFFFFFFFFFFFFFFFFFFFFFFFFFFFFFFFFFFF AND DUP2 PUSH20 0xFFFFFFFFFFFFFFFFFFFFFFFFFFFFFFFFFFFFFFFF AND SUB PUSH2 0x1390 JUMPI PUSH1 0x40 MLOAD PUSH32 0x8C379A000000000000000000000000000000000000000000000000000000000 DUP2 MSTORE PUSH1 0x4 ADD PUSH2 0x1387 SWAP1 PUSH2 0x2C4F JUMP JUMPDEST PUSH1 0x40 MLOAD DUP1 SWAP2 SUB SWAP1 REVERT JUMPDEST DUP1 PUSH1 0x1 PUSH0 PUSH2 0x100 EXP DUP2 SLOAD DUP2 PUSH20 0xFFFFFFFFFFFFFFFFFFFFFFFFFFFFFFFFFFFFFFFF MUL NOT AND SWAP1 DUP4 PUSH20 0xFFFFFFFFFFFFFFFFFFFFFFFFFFFFFFFFFFFFFFFF AND MUL OR SWAP1 SSTORE POP DUP1 PUSH20 0xFFFFFFFFFFFFFFFFFFFFFFFFFFFFFFFFFFFFFFFF AND PUSH0 DUP1 SLOAD SWAP1 PUSH2 0x100 EXP SWAP1 DIV PUSH20 0xFFFFFFFFFFFFFFFFFFFFFFFFFFFFFFFFFFFFFFFF AND PUSH20 0xFFFFFFFFFFFFFFFFFFFFFFFFFFFFFFFFFFFFFFFF AND PUSH32 0xED8889F560326EB138920D842192F0EB3DD22B4F139C87A2C57538E05BAE1278 PUSH1 0x40 MLOAD PUSH1 0x40 MLOAD DUP1 SWAP2 SUB SWAP1 LOG3 POP JUMP JUMPDEST PUSH0 DUP2 MLOAD SUB PUSH2 0x1486 JUMPI PUSH1 0x40 MLOAD PUSH32 0x22CE3EDD00000000000000000000000000000000000000000000000000000000 DUP2 MSTORE PUSH1 0x4 ADD PUSH1 0x40 MLOAD DUP1 SWAP2 SUB SWAP1 REVERT JUMPDEST DUP3 DUP5 PUSH0 ADD SWAP1 PUSH1 0x2 DUP2 GT ISZERO PUSH2 0x149D JUMPI PUSH2 0x149C PUSH2 0x2A84 JUMP JUMPDEST JUMPDEST SWAP1 DUP2 PUSH1 0x2 DUP2 GT ISZERO PUSH2 0x14B1 JUMPI PUSH2 0x14B0 PUSH2 0x2A84 JUMP JUMPDEST JUMPDEST DUP2 MSTORE POP POP DUP2 DUP5 PUSH1 0x40 ADD SWAP1 PUSH0 DUP2 GT ISZERO PUSH2 0x14CC JUMPI PUSH2 0x14CB PUSH2 0x2A84 JUMP JUMPDEST JUMPDEST SWAP1 DUP2 PUSH0 DUP2 GT ISZERO PUSH2 0x14DF JUMPI PUSH2 0x14DE PUSH2 0x2A84 JUMP JUMPDEST JUMPDEST DUP2 MSTORE POP POP DUP1 DUP5 PUSH1 0x60 ADD DUP2 SWAP1 MSTORE POP POP POP POP POP JUMP JUMPDEST PUSH2 0x14FA PUSH2 0x1ACA JUMP JUMPDEST PUSH2 0x1507 DUP2 PUSH0 ADD MLOAD DUP4 PUSH2 0x1615 JUMP JUMPDEST POP PUSH0 DUP2 PUSH1 0x20 ADD DUP2 DUP2 MSTORE POP POP SWAP2 SWAP1 POP JUMP JUMPDEST PUSH2 0x1524 DUP3 PUSH1 0x3 DUP4 MLOAD PUSH2 0x168B JUMP JUMPDEST PUSH2 0x153A DUP2 DUP4 PUSH0 ADD MLOAD PUSH2 0x182B SWAP1 SWAP2 SWAP1 PUSH4 0xFFFFFFFF AND JUMP JUMPDEST POP POP POP JUMP JUMPDEST PUSH2 0x154A DUP3 PUSH0 DUP4 PUSH2 0x168B JUMP JUMPDEST POP POP JUMP JUMPDEST PUSH2 0x156F PUSH1 0x2 PUSH1 0x5 PUSH1 0x6 PUSH1 0xFF AND SWAP1 SHL OR DUP4 PUSH0 ADD MLOAD PUSH2 0x1847 SWAP1 SWAP2 SWAP1 PUSH4 0xFFFFFFFF AND JUMP JUMPDEST POP PUSH2 0x1599 DUP3 DUP3 PUSH1 0x40 MLOAD PUSH1 0x20 ADD PUSH2 0x1585 SWAP2 SWAP1 PUSH2 0x2C7C JUMP JUMPDEST PUSH1 0x40 MLOAD PUSH1 0x20 DUP2 DUP4 SUB SUB DUP2 MSTORE SWAP1 PUSH1 0x40 MSTORE PUSH2 0x15ED JUMP JUMPDEST POP POP JUMP JUMPDEST PUSH2 0x15A8 DUP2 PUSH1 0x4 PUSH2 0x18AE JUMP JUMPDEST PUSH1 0x1 DUP2 PUSH1 0x20 ADD DUP2 DUP2 MLOAD PUSH2 0x15BB SWAP2 SWAP1 PUSH2 0x2C95 JUMP JUMPDEST SWAP2 POP DUP2 DUP2 MSTORE POP POP POP JUMP JUMPDEST PUSH2 0x15D0 DUP2 PUSH1 0x7 PUSH2 0x18AE JUMP JUMPDEST PUSH1 0x1 DUP2 PUSH1 0x20 ADD DUP2 DUP2 MLOAD PUSH2 0x15E3 SWAP2 SWAP1 PUSH2 0x2CC8 JUMP JUMPDEST SWAP2 POP DUP2 DUP2 MSTORE POP POP POP JUMP JUMPDEST PUSH2 0x15FA DUP3 PUSH1 0x2 DUP4 MLOAD PUSH2 0x168B JUMP JUMPDEST PUSH2 0x1610 DUP2 DUP4 PUSH0 ADD MLOAD PUSH2 0x182B SWAP1 SWAP2 SWAP1 PUSH4 0xFFFFFFFF AND JUMP JUMPDEST POP POP POP JUMP JUMPDEST PUSH2 0x161D PUSH2 0x1AE9 JUMP JUMPDEST PUSH0 PUSH1 0x20 DUP4 PUSH2 0x162B SWAP2 SWAP1 PUSH2 0x2CFB JUMP JUMPDEST EQ PUSH2 0x1657 JUMPI PUSH1 0x20 DUP3 PUSH2 0x163D SWAP2 SWAP1 PUSH2 0x2CFB JUMP JUMPDEST PUSH1 0x20 PUSH2 0x1649 SWAP2 SWAP1 PUSH2 0x2CC8 JUMP JUMPDEST DUP3 PUSH2 0x1654 SWAP2 SWAP1 PUSH2 0x2C95 JUMP JUMPDEST SWAP2 POP JUMPDEST DUP2 DUP4 PUSH1 0x20 ADD DUP2 DUP2 MSTORE POP POP PUSH1 0x40 MLOAD DUP1 DUP5 MSTORE PUSH0 DUP2 MSTORE DUP3 DUP2 ADD PUSH1 0x20 ADD DUP2 DUP2 LT ISZERO PUSH2 0x167C JUMPI PUSH0 DUP1 REVERT JUMPDEST DUP1 PUSH1 0x40 MSTORE POP POP DUP3 SWAP1 POP SWAP3 SWAP2 POP POP JUMP JUMPDEST PUSH1 0x17 DUP2 PUSH8 0xFFFFFFFFFFFFFFFF AND GT PUSH2 0x16C5 JUMPI PUSH2 0x16BF DUP2 PUSH1 0x5 DUP5 PUSH1 0xFF AND SWAP1 SHL PUSH1 0xFF AND OR DUP5 PUSH0 ADD MLOAD PUSH2 0x1847 SWAP1 SWAP2 SWAP1 PUSH4 0xFFFFFFFF AND JUMP JUMPDEST POP PUSH2 0x1826 JUMP JUMPDEST PUSH1 0xFF DUP2 PUSH8 0xFFFFFFFFFFFFFFFF AND GT PUSH2 0x1721 JUMPI PUSH2 0x16F7 PUSH1 0x18 PUSH1 0x5 DUP5 PUSH1 0xFF AND SWAP1 SHL OR DUP5 PUSH0 ADD MLOAD PUSH2 0x1847 SWAP1 SWAP2 SWAP1 PUSH4 0xFFFFFFFF AND JUMP JUMPDEST POP PUSH2 0x171B DUP2 PUSH8 0xFFFFFFFFFFFFFFFF AND PUSH1 0x1 DUP6 PUSH0 ADD MLOAD PUSH2 0x18D3 SWAP1 SWAP3 SWAP2 SWAP1 PUSH4 0xFFFFFFFF AND JUMP JUMPDEST POP PUSH2 0x1825 JUMP JUMPDEST PUSH2 0xFFFF DUP2 PUSH8 0xFFFFFFFFFFFFFFFF AND GT PUSH2 0x177E JUMPI PUSH2 0x1754 PUSH1 0x19 PUSH1 0x5 DUP5 PUSH1 0xFF AND SWAP1 SHL OR DUP5 PUSH0 ADD MLOAD PUSH2 0x1847 SWAP1 SWAP2 SWAP1 PUSH4 0xFFFFFFFF AND JUMP JUMPDEST POP PUSH2 0x1778 DUP2 PUSH8 0xFFFFFFFFFFFFFFFF AND PUSH1 0x2 DUP6 PUSH0 ADD MLOAD PUSH2 0x18D3 SWAP1 SWAP3 SWAP2 SWAP1 PUSH4 0xFFFFFFFF AND JUMP JUMPDEST POP PUSH2 0x1824 JUMP JUMPDEST PUSH4 0xFFFFFFFF DUP2 PUSH8 0xFFFFFFFFFFFFFFFF AND GT PUSH2 0x17DD JUMPI PUSH2 0x17B3 PUSH1 0x1A PUSH1 0x5 DUP5 PUSH1 0xFF AND SWAP1 SHL OR DUP5 PUSH0 ADD MLOAD PUSH2 0x1847 SWAP1 SWAP2 SWAP1 PUSH4 0xFFFFFFFF AND JUMP JUMPDEST POP PUSH2 0x17D7 DUP2 PUSH8 0xFFFFFFFFFFFFFFFF AND PUSH1 0x4 DUP6 PUSH0 ADD MLOAD PUSH2 0x18D3 SWAP1 SWAP3 SWAP2 SWAP1 PUSH4 0xFFFFFFFF AND JUMP JUMPDEST POP PUSH2 0x1823 JUMP JUMPDEST PUSH2 0x17FD PUSH1 0x1B PUSH1 0x5 DUP5 PUSH1 0xFF AND SWAP1 SHL OR DUP5 PUSH0 ADD MLOAD PUSH2 0x1847 SWAP1 SWAP2 SWAP1 PUSH4 0xFFFFFFFF AND JUMP JUMPDEST POP PUSH2 0x1821 DUP2 PUSH8 0xFFFFFFFFFFFFFFFF AND PUSH1 0x8 DUP6 PUSH0 ADD MLOAD PUSH2 0x18D3 SWAP1 SWAP3 SWAP2 SWAP1 PUSH4 0xFFFFFFFF AND JUMP JUMPDEST POP JUMPDEST JUMPDEST JUMPDEST JUMPDEST POP POP POP JUMP JUMPDEST PUSH2 0x1833 PUSH2 0x1AE9 JUMP JUMPDEST PUSH2 0x183F DUP4 DUP4 DUP5 MLOAD PUSH2 0x195C JUMP JUMPDEST SWAP1 POP SWAP3 SWAP2 POP POP JUMP JUMPDEST PUSH2 0x184F PUSH2 0x1AE9 JUMP JUMPDEST PUSH0 DUP4 PUSH0 ADD MLOAD MLOAD SWAP1 POP PUSH0 PUSH1 0x1 DUP3 PUSH2 0x1865 SWAP2 SWAP1 PUSH2 0x2C95 JUMP JUMPDEST SWAP1 POP DUP5 PUSH1 0x20 ADD MLOAD DUP3 LT PUSH2 0x1889 JUMPI PUSH2 0x1888 DUP6 PUSH1 0x2 DUP4 PUSH2 0x1883 SWAP2 SWAP1 PUSH2 0x2D2B JUMP JUMPDEST PUSH2 0x1A39 JUMP JUMPDEST JUMPDEST DUP5 MLOAD PUSH1 0x20 DUP4 DUP3 ADD ADD DUP6 DUP2 MSTORE8 DUP2 MLOAD DUP4 GT ISZERO PUSH2 0x18A1 JUMPI DUP3 DUP3 MSTORE JUMPDEST POP POP DUP5 SWAP3 POP POP POP SWAP3 SWAP2 POP POP JUMP JUMPDEST PUSH2 0x18CE PUSH1 0x1F PUSH1 0x5 DUP4 PUSH1 0xFF AND SWAP1 SHL OR DUP4 PUSH0 ADD MLOAD PUSH2 0x1847 SWAP1 SWAP2 SWAP1 PUSH4 0xFFFFFFFF AND JUMP JUMPDEST POP POP POP JUMP JUMPDEST PUSH2 0x18DB PUSH2 0x1AE9 JUMP JUMPDEST PUSH0 DUP5 PUSH0 ADD MLOAD MLOAD SWAP1 POP PUSH0 DUP2 DUP5 PUSH2 0x18F0 SWAP2 SWAP1 PUSH2 0x2C95 JUMP JUMPDEST SWAP1 POP DUP6 PUSH1 0x20 ADD MLOAD DUP2 GT ISZERO PUSH2 0x1915 JUMPI PUSH2 0x1914 DUP7 PUSH1 0x2 DUP4 PUSH2 0x190F SWAP2 SWAP1 PUSH2 0x2D2B JUMP JUMPDEST PUSH2 0x1A39 JUMP JUMPDEST JUMPDEST PUSH0 PUSH1 0x1 DUP6 PUSH2 0x100 PUSH2 0x1926 SWAP2 SWAP1 PUSH2 0x2E9B JUMP JUMPDEST PUSH2 0x1930 SWAP2 SWAP1 PUSH2 0x2CC8 JUMP JUMPDEST SWAP1 POP DUP7 MLOAD DUP3 DUP2 ADD DUP8 DUP4 NOT DUP3 MLOAD AND OR DUP2 MSTORE DUP2 MLOAD DUP5 GT ISZERO PUSH2 0x194D JUMPI DUP4 DUP3 MSTORE JUMPDEST POP POP DUP7 SWAP4 POP POP POP POP SWAP4 SWAP3 POP POP POP JUMP JUMPDEST PUSH2 0x1964 PUSH2 0x1AE9 JUMP JUMPDEST DUP3 MLOAD DUP3 GT ISZERO PUSH2 0x1971 JUMPI PUSH0 DUP1 REVERT JUMPDEST PUSH0 DUP5 PUSH0 ADD MLOAD MLOAD SWAP1 POP PUSH0 DUP4 DUP3 PUSH2 0x1986 SWAP2 SWAP1 PUSH2 0x2C95 JUMP JUMPDEST SWAP1 POP DUP6 PUSH1 0x20 ADD MLOAD DUP2 GT ISZERO PUSH2 0x19AB JUMPI PUSH2 0x19AA DUP7 PUSH1 0x2 DUP4 PUSH2 0x19A5 SWAP2 SWAP1 PUSH2 0x2D2B JUMP JUMPDEST PUSH2 0x1A39 JUMP JUMPDEST JUMPDEST PUSH0 DUP1 DUP8 MLOAD DUP1 MLOAD DUP6 PUSH1 0x20 DUP4 ADD ADD SWAP4 POP DUP1 DUP6 GT ISZERO PUSH2 0x19C5 JUMPI DUP5 DUP3 MSTORE JUMPDEST PUSH1 0x20 DUP10 ADD SWAP3 POP POP POP JUMPDEST PUSH1 0x20 DUP7 LT PUSH2 0x1A0C JUMPI DUP1 MLOAD DUP3 MSTORE PUSH1 0x20 DUP3 PUSH2 0x19E7 SWAP2 SWAP1 PUSH2 0x2C95 JUMP JUMPDEST SWAP2 POP PUSH1 0x20 DUP2 PUSH2 0x19F6 SWAP2 SWAP1 PUSH2 0x2C95 JUMP JUMPDEST SWAP1 POP PUSH1 0x20 DUP7 PUSH2 0x1A05 SWAP2 SWAP1 PUSH2 0x2CC8 JUMP JUMPDEST SWAP6 POP PUSH2 0x19CE JUMP JUMPDEST PUSH0 PUSH1 0x1 DUP8 PUSH1 0x20 SUB PUSH2 0x100 EXP SUB SWAP1 POP DUP1 NOT DUP3 MLOAD AND DUP2 DUP5 MLOAD AND DUP2 DUP2 OR DUP6 MSTORE POP POP POP DUP8 SWAP5 POP POP POP POP POP SWAP4 SWAP3 POP POP POP JUMP JUMPDEST PUSH0 DUP3 PUSH0 ADD MLOAD SWAP1 POP PUSH2 0x1A4A DUP4 DUP4 PUSH2 0x1615 JUMP JUMPDEST POP PUSH2 0x1A55 DUP4 DUP3 PUSH2 0x182B JUMP JUMPDEST POP POP POP POP JUMP JUMPDEST PUSH1 0x40 MLOAD DUP1 PUSH1 0xE0 ADD PUSH1 0x40 MSTORE DUP1 PUSH0 PUSH1 0x2 DUP2 GT ISZERO PUSH2 0x1A79 JUMPI PUSH2 0x1A78 PUSH2 0x2A84 JUMP JUMPDEST JUMPDEST DUP2 MSTORE PUSH1 0x20 ADD PUSH0 PUSH1 0x2 DUP2 GT ISZERO PUSH2 0x1A91 JUMPI PUSH2 0x1A90 PUSH2 0x2A84 JUMP JUMPDEST JUMPDEST DUP2 MSTORE PUSH1 0x20 ADD PUSH0 DUP1 DUP2 GT ISZERO PUSH2 0x1AA8 JUMPI PUSH2 0x1AA7 PUSH2 0x2A84 JUMP JUMPDEST JUMPDEST DUP2 MSTORE PUSH1 0x20 ADD PUSH1 0x60 DUP2 MSTORE PUSH1 0x20 ADD PUSH1 0x60 DUP2 MSTORE PUSH1 0x20 ADD PUSH1 0x60 DUP2 MSTORE PUSH1 0x20 ADD PUSH1 0x60 DUP2 MSTORE POP SWAP1 JUMP JUMPDEST PUSH1 0x40 MLOAD DUP1 PUSH1 0x40 ADD PUSH1 0x40 MSTORE DUP1 PUSH2 0x1ADD PUSH2 0x1AE9 JUMP JUMPDEST DUP2 MSTORE PUSH1 0x20 ADD PUSH0 DUP2 MSTORE POP SWAP1 JUMP JUMPDEST PUSH1 0x40 MLOAD DUP1 PUSH1 0x40 ADD PUSH1 0x40 MSTORE DUP1 PUSH1 0x60 DUP2 MSTORE PUSH1 0x20 ADD PUSH0 DUP2 MSTORE POP SWAP1 JUMP JUMPDEST PUSH0 PUSH1 0x40 MLOAD SWAP1 POP SWAP1 JUMP JUMPDEST PUSH0 DUP1 REVERT JUMPDEST PUSH0 DUP1 REVERT JUMPDEST PUSH0 DUP2 SWAP1 POP SWAP2 SWAP1 POP JUMP JUMPDEST PUSH2 0x1B25 DUP2 PUSH2 0x1B13 JUMP JUMPDEST DUP2 EQ PUSH2 0x1B2F JUMPI PUSH0 DUP1 REVERT JUMPDEST POP JUMP JUMPDEST PUSH0 DUP2 CALLDATALOAD SWAP1 POP PUSH2 0x1B40 DUP2 PUSH2 0x1B1C JUMP JUMPDEST SWAP3 SWAP2 POP POP JUMP JUMPDEST PUSH0 DUP1 REVERT JUMPDEST PUSH0 DUP1 REVERT JUMPDEST PUSH0 PUSH1 0x1F NOT PUSH1 0x1F DUP4 ADD AND SWAP1 POP SWAP2 SWAP1 POP JUMP JUMPDEST PUSH32 0x4E487B7100000000000000000000000000000000000000000000000000000000 PUSH0 MSTORE PUSH1 0x41 PUSH1 0x4 MSTORE PUSH1 0x24 PUSH0 REVERT JUMPDEST PUSH2 0x1B94 DUP3 PUSH2 0x1B4E JUMP JUMPDEST DUP2 ADD DUP2 DUP2 LT PUSH8 0xFFFFFFFFFFFFFFFF DUP3 GT OR ISZERO PUSH2 0x1BB3 JUMPI PUSH2 0x1BB2 PUSH2 0x1B5E JUMP JUMPDEST JUMPDEST DUP1 PUSH1 0x40 MSTORE POP POP POP JUMP JUMPDEST PUSH0 PUSH2 0x1BC5 PUSH2 0x1B02 JUMP JUMPDEST SWAP1 POP PUSH2 0x1BD1 DUP3 DUP3 PUSH2 0x1B8B JUMP JUMPDEST SWAP2 SWAP1 POP JUMP JUMPDEST PUSH0 PUSH8 0xFFFFFFFFFFFFFFFF DUP3 GT ISZERO PUSH2 0x1BF0 JUMPI PUSH2 0x1BEF PUSH2 0x1B5E JUMP JUMPDEST JUMPDEST PUSH2 0x1BF9 DUP3 PUSH2 0x1B4E JUMP JUMPDEST SWAP1 POP PUSH1 0x20 DUP2 ADD SWAP1 POP SWAP2 SWAP1 POP JUMP JUMPDEST DUP3 DUP2 DUP4 CALLDATACOPY PUSH0 DUP4 DUP4 ADD MSTORE POP POP POP JUMP JUMPDEST PUSH0 PUSH2 0x1C26 PUSH2 0x1C21 DUP5 PUSH2 0x1BD6 JUMP JUMPDEST PUSH2 0x1BBC JUMP JUMPDEST SWAP1 POP DUP3 DUP2 MSTORE PUSH1 0x20 DUP2 ADD DUP5 DUP5 DUP5 ADD GT ISZERO PUSH2 0x1C42 JUMPI PUSH2 0x1C41 PUSH2 0x1B4A JUMP JUMPDEST JUMPDEST PUSH2 0x1C4D DUP5 DUP3 DUP6 PUSH2 0x1C06 JUMP JUMPDEST POP SWAP4 SWAP3 POP POP POP JUMP JUMPDEST PUSH0 DUP3 PUSH1 0x1F DUP4 ADD SLT PUSH2 0x1C69 JUMPI PUSH2 0x1C68 PUSH2 0x1B46 JUMP JUMPDEST JUMPDEST DUP2 CALLDATALOAD PUSH2 0x1C79 DUP5 DUP3 PUSH1 0x20 DUP7 ADD PUSH2 0x1C14 JUMP JUMPDEST SWAP2 POP POP SWAP3 SWAP2 POP POP JUMP JUMPDEST PUSH0 DUP1 PUSH0 PUSH1 0x60 DUP5 DUP7 SUB SLT ISZERO PUSH2 0x1C99 JUMPI PUSH2 0x1C98 PUSH2 0x1B0B JUMP JUMPDEST JUMPDEST PUSH0 PUSH2 0x1CA6 DUP7 DUP3 DUP8 ADD PUSH2 0x1B32 JUMP JUMPDEST SWAP4 POP POP PUSH1 0x20 DUP5 ADD CALLDATALOAD PUSH8 0xFFFFFFFFFFFFFFFF DUP2 GT ISZERO PUSH2 0x1CC7 JUMPI PUSH2 0x1CC6 PUSH2 0x1B0F JUMP JUMPDEST JUMPDEST PUSH2 0x1CD3 DUP7 DUP3 DUP8 ADD PUSH2 0x1C55 JUMP JUMPDEST SWAP3 POP POP PUSH1 0x40 DUP5 ADD CALLDATALOAD PUSH8 0xFFFFFFFFFFFFFFFF DUP2 GT ISZERO PUSH2 0x1CF4 JUMPI PUSH2 0x1CF3 PUSH2 0x1B0F JUMP JUMPDEST JUMPDEST PUSH2 0x1D00 DUP7 DUP3 DUP8 ADD PUSH2 0x1C55 JUMP JUMPDEST SWAP2 POP POP SWAP3 POP SWAP3 POP SWAP3 JUMP JUMPDEST PUSH0 DUP2 MLOAD SWAP1 POP SWAP2 SWAP1 POP JUMP JUMPDEST PUSH0 DUP3 DUP3 MSTORE PUSH1 0x20 DUP3 ADD SWAP1 POP SWAP3 SWAP2 POP POP JUMP JUMPDEST PUSH0 JUMPDEST DUP4 DUP2 LT ISZERO PUSH2 0x1D41 JUMPI DUP1 DUP3 ADD MLOAD DUP2 DUP5 ADD MSTORE PUSH1 0x20 DUP2 ADD SWAP1 POP PUSH2 0x1D26 JUMP JUMPDEST PUSH0 DUP5 DUP5 ADD MSTORE POP POP POP POP JUMP JUMPDEST PUSH0 PUSH2 0x1D56 DUP3 PUSH2 0x1D0A JUMP JUMPDEST PUSH2 0x1D60 DUP2 DUP6 PUSH2 0x1D14 JUMP JUMPDEST SWAP4 POP PUSH2 0x1D70 DUP2 DUP6 PUSH1 0x20 DUP7 ADD PUSH2 0x1D24 JUMP JUMPDEST PUSH2 0x1D79 DUP2 PUSH2 0x1B4E JUMP JUMPDEST DUP5 ADD SWAP2 POP POP SWAP3 SWAP2 POP POP JUMP JUMPDEST PUSH0 PUSH1 0x20 DUP3 ADD SWAP1 POP DUP2 DUP2 SUB PUSH0 DUP4 ADD MSTORE PUSH2 0x1D9C DUP2 DUP5 PUSH2 0x1D4C JUMP JUMPDEST SWAP1 POP SWAP3 SWAP2 POP POP JUMP JUMPDEST PUSH0 PUSH8 0xFFFFFFFFFFFFFFFF DUP3 GT ISZERO PUSH2 0x1DBE JUMPI PUSH2 0x1DBD PUSH2 0x1B5E JUMP JUMPDEST JUMPDEST PUSH2 0x1DC7 DUP3 PUSH2 0x1B4E JUMP JUMPDEST SWAP1 POP PUSH1 0x20 DUP2 ADD SWAP1 POP SWAP2 SWAP1 POP JUMP JUMPDEST PUSH0 PUSH2 0x1DE6 PUSH2 0x1DE1 DUP5 PUSH2 0x1DA4 JUMP JUMPDEST PUSH2 0x1BBC JUMP JUMPDEST SWAP1 POP DUP3 DUP2 MSTORE PUSH1 0x20 DUP2 ADD DUP5 DUP5 DUP5 ADD GT ISZERO PUSH2 0x1E02 JUMPI PUSH2 0x1E01 PUSH2 0x1B4A JUMP JUMPDEST JUMPDEST PUSH2 0x1E0D DUP5 DUP3 DUP6 PUSH2 0x1C06 JUMP JUMPDEST POP SWAP4 SWAP3 POP POP POP JUMP JUMPDEST PUSH0 DUP3 PUSH1 0x1F DUP4 ADD SLT PUSH2 0x1E29 JUMPI PUSH2 0x1E28 PUSH2 0x1B46 JUMP JUMPDEST JUMPDEST DUP2 CALLDATALOAD PUSH2 0x1E39 DUP5 DUP3 PUSH1 0x20 DUP7 ADD PUSH2 0x1DD4 JUMP JUMPDEST SWAP2 POP POP SWAP3 SWAP2 POP POP JUMP JUMPDEST PUSH0 PUSH1 0x20 DUP3 DUP5 SUB SLT ISZERO PUSH2 0x1E57 JUMPI PUSH2 0x1E56 PUSH2 0x1B0B JUMP JUMPDEST JUMPDEST PUSH0 DUP3 ADD CALLDATALOAD PUSH8 0xFFFFFFFFFFFFFFFF DUP2 GT ISZERO PUSH2 0x1E74 JUMPI PUSH2 0x1E73 PUSH2 0x1B0F JUMP JUMPDEST JUMPDEST PUSH2 0x1E80 DUP5 DUP3 DUP6 ADD PUSH2 0x1E15 JUMP JUMPDEST SWAP2 POP POP SWAP3 SWAP2 POP POP JUMP JUMPDEST PUSH0 DUP2 SWAP1 POP SWAP2 SWAP1 POP JUMP JUMPDEST PUSH2 0x1E9B DUP2 PUSH2 0x1E89 JUMP JUMPDEST DUP3 MSTORE POP POP JUMP JUMPDEST PUSH0 PUSH1 0x20 DUP3 ADD SWAP1 POP PUSH2 0x1EB4 PUSH0 DUP4 ADD DUP5 PUSH2 0x1E92 JUMP JUMPDEST SWAP3 SWAP2 POP POP JUMP JUMPDEST PUSH0 PUSH20 0xFFFFFFFFFFFFFFFFFFFFFFFFFFFFFFFFFFFFFFFF DUP3 AND SWAP1 POP SWAP2 SWAP1 POP JUMP JUMPDEST PUSH0 PUSH2 0x1EE3 DUP3 PUSH2 0x1EBA JUMP JUMPDEST SWAP1 POP SWAP2 SWAP1 POP JUMP JUMPDEST PUSH2 0x1EF3 DUP2 PUSH2 0x1ED9 JUMP JUMPDEST DUP3 MSTORE POP POP JUMP JUMPDEST PUSH0 PUSH1 0x20 DUP3 ADD SWAP1 POP PUSH2 0x1F0C PUSH0 DUP4 ADD DUP5 PUSH2 0x1EEA JUMP JUMPDEST SWAP3 SWAP2 POP POP JUMP JUMPDEST PUSH0 PUSH1 0xFF DUP3 AND SWAP1 POP SWAP2 SWAP1 POP JUMP JUMPDEST PUSH2 0x1F27 DUP2 PUSH2 0x1F12 JUMP JUMPDEST DUP2 EQ PUSH2 0x1F31 JUMPI PUSH0 DUP1 REVERT JUMPDEST POP JUMP JUMPDEST PUSH0 DUP2 CALLDATALOAD SWAP1 POP PUSH2 0x1F42 DUP2 PUSH2 0x1F1E JUMP JUMPDEST SWAP3 SWAP2 POP POP JUMP JUMPDEST PUSH0 PUSH8 0xFFFFFFFFFFFFFFFF DUP3 AND SWAP1 POP SWAP2 SWAP1 POP JUMP JUMPDEST PUSH2 0x1F64 DUP2 PUSH2 0x1F48 JUMP JUMPDEST DUP2 EQ PUSH2 0x1F6E JUMPI PUSH0 DUP1 REVERT JUMPDEST POP JUMP JUMPDEST PUSH0 DUP2 CALLDATALOAD SWAP1 POP PUSH2 0x1F7F DUP2 PUSH2 0x1F5B JUMP JUMPDEST SWAP3 SWAP2 POP POP JUMP JUMPDEST PUSH0 PUSH8 0xFFFFFFFFFFFFFFFF DUP3 GT ISZERO PUSH2 0x1F9F JUMPI PUSH2 0x1F9E PUSH2 0x1B5E JUMP JUMPDEST JUMPDEST PUSH1 0x20 DUP3 MUL SWAP1 POP PUSH1 0x20 DUP2 ADD SWAP1 POP SWAP2 SWAP1 POP JUMP JUMPDEST PUSH0 DUP1 REVERT JUMPDEST PUSH0 PUSH2 0x1FC6 PUSH2 0x1FC1 DUP5 PUSH2 0x1F85 JUMP JUMPDEST PUSH2 0x1BBC JUMP JUMPDEST SWAP1 POP DUP1 DUP4 DUP3 MSTORE PUSH1 0x20 DUP3 ADD SWAP1 POP PUSH1 0x20 DUP5 MUL DUP4 ADD DUP6 DUP2 GT ISZERO PUSH2 0x1FE9 JUMPI PUSH2 0x1FE8 PUSH2 0x1FB0 JUMP JUMPDEST JUMPDEST DUP4 JUMPDEST DUP2 DUP2 LT ISZERO PUSH2 0x2030 JUMPI DUP1 CALLDATALOAD PUSH8 0xFFFFFFFFFFFFFFFF DUP2 GT ISZERO PUSH2 0x200E JUMPI PUSH2 0x200D PUSH2 0x1B46 JUMP JUMPDEST JUMPDEST DUP1 DUP7 ADD PUSH2 0x201B DUP10 DUP3 PUSH2 0x1E15 JUMP JUMPDEST DUP6 MSTORE PUSH1 0x20 DUP6 ADD SWAP5 POP POP POP PUSH1 0x20 DUP2 ADD SWAP1 POP PUSH2 0x1FEB JUMP JUMPDEST POP POP POP SWAP4 SWAP3 POP POP POP JUMP JUMPDEST PUSH0 DUP3 PUSH1 0x1F DUP4 ADD SLT PUSH2 0x204E JUMPI PUSH2 0x204D PUSH2 0x1B46 JUMP JUMPDEST JUMPDEST DUP2 CALLDATALOAD PUSH2 0x205E DUP5 DUP3 PUSH1 0x20 DUP7 ADD PUSH2 0x1FB4 JUMP JUMPDEST SWAP2 POP POP SWAP3 SWAP2 POP POP JUMP JUMPDEST PUSH0 PUSH8 0xFFFFFFFFFFFFFFFF DUP3 GT ISZERO PUSH2 0x2081 JUMPI PUSH2 0x2080 PUSH2 0x1B5E JUMP JUMPDEST JUMPDEST PUSH1 0x20 DUP3 MUL SWAP1 POP PUSH1 0x20 DUP2 ADD SWAP1 POP SWAP2 SWAP1 POP JUMP JUMPDEST PUSH0 PUSH2 0x20A4 PUSH2 0x209F DUP5 PUSH2 0x2067 JUMP JUMPDEST PUSH2 0x1BBC JUMP JUMPDEST SWAP1 POP DUP1 DUP4 DUP3 MSTORE PUSH1 0x20 DUP3 ADD SWAP1 POP PUSH1 0x20 DUP5 MUL DUP4 ADD DUP6 DUP2 GT ISZERO PUSH2 0x20C7 JUMPI PUSH2 0x20C6 PUSH2 0x1FB0 JUMP JUMPDEST JUMPDEST DUP4 JUMPDEST DUP2 DUP2 LT ISZERO PUSH2 0x210E JUMPI DUP1 CALLDATALOAD PUSH8 0xFFFFFFFFFFFFFFFF DUP2 GT ISZERO PUSH2 0x20EC JUMPI PUSH2 0x20EB PUSH2 0x1B46 JUMP JUMPDEST JUMPDEST DUP1 DUP7 ADD PUSH2 0x20F9 DUP10 DUP3 PUSH2 0x1C55 JUMP JUMPDEST DUP6 MSTORE PUSH1 0x20 DUP6 ADD SWAP5 POP POP POP PUSH1 0x20 DUP2 ADD SWAP1 POP PUSH2 0x20C9 JUMP JUMPDEST POP POP POP SWAP4 SWAP3 POP POP POP JUMP JUMPDEST PUSH0 DUP3 PUSH1 0x1F DUP4 ADD SLT PUSH2 0x212C JUMPI PUSH2 0x212B PUSH2 0x1B46 JUMP JUMPDEST JUMPDEST DUP2 CALLDATALOAD PUSH2 0x213C DUP5 DUP3 PUSH1 0x20 DUP7 ADD PUSH2 0x2092 JUMP JUMPDEST SWAP2 POP POP SWAP3 SWAP2 POP POP JUMP JUMPDEST PUSH0 DUP1 PUSH0 DUP1 PUSH0 PUSH1 0xA0 DUP7 DUP9 SUB SLT ISZERO PUSH2 0x215E JUMPI PUSH2 0x215D PUSH2 0x1B0B JUMP JUMPDEST JUMPDEST PUSH0 DUP7 ADD CALLDATALOAD PUSH8 0xFFFFFFFFFFFFFFFF DUP2 GT ISZERO PUSH2 0x217B JUMPI PUSH2 0x217A PUSH2 0x1B0F JUMP JUMPDEST JUMPDEST PUSH2 0x2187 DUP9 DUP3 DUP10 ADD PUSH2 0x1C55 JUMP JUMPDEST SWAP6 POP POP PUSH1 0x20 PUSH2 0x2198 DUP9 DUP3 DUP10 ADD PUSH2 0x1F34 JUMP JUMPDEST SWAP5 POP POP PUSH1 0x40 PUSH2 0x21A9 DUP9 DUP3 DUP10 ADD PUSH2 0x1F71 JUMP JUMPDEST SWAP4 POP POP PUSH1 0x60 DUP7 ADD CALLDATALOAD PUSH8 0xFFFFFFFFFFFFFFFF DUP2 GT ISZERO PUSH2 0x21CA JUMPI PUSH2 0x21C9 PUSH2 0x1B0F JUMP JUMPDEST JUMPDEST PUSH2 0x21D6 DUP9 DUP3 DUP10 ADD PUSH2 0x203A JUMP JUMPDEST SWAP3 POP POP PUSH1 0x80 DUP7 ADD CALLDATALOAD PUSH8 0xFFFFFFFFFFFFFFFF DUP2 GT ISZERO PUSH2 0x21F7 JUMPI PUSH2 0x21F6 PUSH2 0x1B0F JUMP JUMPDEST JUMPDEST PUSH2 0x2203 DUP9 DUP3 DUP10 ADD PUSH2 0x2118 JUMP JUMPDEST SWAP2 POP POP SWAP3 SWAP6 POP SWAP3 SWAP6 SWAP1 SWAP4 POP JUMP JUMPDEST PUSH2 0x2219 DUP2 PUSH2 0x1B13 JUMP JUMPDEST DUP3 MSTORE POP POP JUMP JUMPDEST PUSH0 PUSH1 0x20 DUP3 ADD SWAP1 POP PUSH2 0x2232 PUSH0 DUP4 ADD DUP5 PUSH2 0x2210 JUMP JUMPDEST SWAP3 SWAP2 POP POP JUMP JUMPDEST PUSH2 0x2241 DUP2 PUSH2 0x1ED9 JUMP JUMPDEST DUP2 EQ PUSH2 0x224B JUMPI PUSH0 DUP1 REVERT JUMPDEST POP JUMP JUMPDEST PUSH0 DUP2 CALLDATALOAD SWAP1 POP PUSH2 0x225C DUP2 PUSH2 0x2238 JUMP JUMPDEST SWAP3 SWAP2 POP POP JUMP JUMPDEST PUSH0 DUP1 PUSH1 0x40 DUP4 DUP6 SUB SLT ISZERO PUSH2 0x2278 JUMPI PUSH2 0x2277 PUSH2 0x1B0B JUMP JUMPDEST JUMPDEST PUSH0 DUP4 ADD CALLDATALOAD PUSH8 0xFFFFFFFFFFFFFFFF DUP2 GT ISZERO PUSH2 0x2295 JUMPI PUSH2 0x2294 PUSH2 0x1B0F JUMP JUMPDEST JUMPDEST PUSH2 0x22A1 DUP6 DUP3 DUP7 ADD PUSH2 0x1E15 JUMP JUMPDEST SWAP3 POP POP PUSH1 0x20 PUSH2 0x22B2 DUP6 DUP3 DUP7 ADD PUSH2 0x224E JUMP JUMPDEST SWAP2 POP POP SWAP3 POP SWAP3 SWAP1 POP JUMP JUMPDEST PUSH0 PUSH1 0x20 DUP3 DUP5 SUB SLT ISZERO PUSH2 0x22D1 JUMPI PUSH2 0x22D0 PUSH2 0x1B0B JUMP JUMPDEST JUMPDEST PUSH0 PUSH2 0x22DE DUP5 DUP3 DUP6 ADD PUSH2 0x224E JUMP JUMPDEST SWAP2 POP POP SWAP3 SWAP2 POP POP JUMP JUMPDEST PUSH0 PUSH1 0x20 DUP3 DUP5 SUB SLT ISZERO PUSH2 0x22FC JUMPI PUSH2 0x22FB PUSH2 0x1B0B JUMP JUMPDEST JUMPDEST PUSH0 DUP3 ADD CALLDATALOAD PUSH8 0xFFFFFFFFFFFFFFFF DUP2 GT ISZERO PUSH2 0x2319 JUMPI PUSH2 0x2318 PUSH2 0x1B0F JUMP JUMPDEST JUMPDEST PUSH2 0x2325 DUP5 DUP3 DUP6 ADD PUSH2 0x1C55 JUMP JUMPDEST SWAP2 POP POP SWAP3 SWAP2 POP POP JUMP JUMPDEST PUSH32 0x4E487B7100000000000000000000000000000000000000000000000000000000 PUSH0 MSTORE PUSH1 0x22 PUSH1 0x4 MSTORE PUSH1 0x24 PUSH0 REVERT JUMPDEST PUSH0 PUSH1 0x2 DUP3 DIV SWAP1 POP PUSH1 0x1 DUP3 AND DUP1 PUSH2 0x2372 JUMPI PUSH1 0x7F DUP3 AND SWAP2 POP JUMPDEST PUSH1 0x20 DUP3 LT DUP2 SUB PUSH2 0x2385 JUMPI PUSH2 0x2384 PUSH2 0x232E JUMP JUMPDEST JUMPDEST POP SWAP2 SWAP1 POP JUMP JUMPDEST PUSH0 DUP2 MLOAD SWAP1 POP SWAP2 SWAP1 POP JUMP JUMPDEST PUSH0 DUP2 SWAP1 POP SWAP3 SWAP2 POP POP JUMP JUMPDEST PUSH0 PUSH2 0x23A9 DUP3 PUSH2 0x238B JUMP JUMPDEST PUSH2 0x23B3 DUP2 DUP6 PUSH2 0x2395 JUMP JUMPDEST SWAP4 POP PUSH2 0x23C3 DUP2 DUP6 PUSH1 0x20 DUP7 ADD PUSH2 0x1D24 JUMP JUMPDEST DUP1 DUP5 ADD SWAP2 POP POP SWAP3 SWAP2 POP POP JUMP JUMPDEST PUSH0 PUSH2 0x23DA DUP3 DUP5 PUSH2 0x239F JUMP JUMPDEST SWAP2 POP DUP2 SWAP1 POP SWAP3 SWAP2 POP POP JUMP JUMPDEST PUSH32 0x4E487B7100000000000000000000000000000000000000000000000000000000 PUSH0 MSTORE PUSH1 0x12 PUSH1 0x4 MSTORE PUSH1 0x24 PUSH0 REVERT JUMPDEST PUSH32 0x4E487B7100000000000000000000000000000000000000000000000000000000 PUSH0 MSTORE PUSH1 0x11 PUSH1 0x4 MSTORE PUSH1 0x24 PUSH0 REVERT JUMPDEST PUSH0 PUSH2 0x2449 DUP3 PUSH2 0x1E89 JUMP JUMPDEST SWAP2 POP PUSH2 0x2454 DUP4 PUSH2 0x1E89 JUMP JUMPDEST SWAP3 POP DUP3 PUSH2 0x2464 JUMPI PUSH2 0x2463 PUSH2 0x23E5 JUMP JUMPDEST JUMPDEST PUSH1 0x1 PUSH0 SUB DUP4 EQ PUSH32 0x8000000000000000000000000000000000000000000000000000000000000000 DUP4 EQ AND ISZERO PUSH2 0x249C JUMPI PUSH2 0x249B PUSH2 0x2412 JUMP JUMPDEST JUMPDEST DUP3 DUP3 SDIV SWAP1 POP SWAP3 SWAP2 POP POP JUMP JUMPDEST PUSH0 DUP3 DUP3 MSTORE PUSH1 0x20 DUP3 ADD SWAP1 POP SWAP3 SWAP2 POP POP JUMP JUMPDEST PUSH32 0x4D7573742062652070726F706F736564206F776E657200000000000000000000 PUSH0 DUP3 ADD MSTORE POP JUMP JUMPDEST PUSH0 PUSH2 0x24EB PUSH1 0x16 DUP4 PUSH2 0x24A7 JUMP JUMPDEST SWAP2 POP PUSH2 0x24F6 DUP3 PUSH2 0x24B7 JUMP JUMPDEST PUSH1 0x20 DUP3 ADD SWAP1 POP SWAP2 SWAP1 POP JUMP JUMPDEST PUSH0 PUSH1 0x20 DUP3 ADD SWAP1 POP DUP2 DUP2 SUB PUSH0 DUP4 ADD MSTORE PUSH2 0x2518 DUP2 PUSH2 0x24DF JUMP JUMPDEST SWAP1 POP SWAP2 SWAP1 POP JUMP JUMPDEST PUSH0 DUP2 SWAP1 POP DUP2 PUSH0 MSTORE PUSH1 0x20 PUSH0 KECCAK256 SWAP1 POP SWAP2 SWAP1 POP JUMP JUMPDEST PUSH0 PUSH1 0x20 PUSH1 0x1F DUP4 ADD DIV SWAP1 POP SWAP2 SWAP1 POP JUMP JUMPDEST PUSH0 DUP3 DUP3 SHL SWAP1 POP SWAP3 SWAP2 POP POP JUMP JUMPDEST PUSH0 PUSH1 0x8 DUP4 MUL PUSH2 0x257B PUSH32 0xFFFFFFFFFFFFFFFFFFFFFFFFFFFFFFFFFFFFFFFFFFFFFFFFFFFFFFFFFFFFFFFF DUP3 PUSH2 0x2540 JUMP JUMPDEST PUSH2 0x2585 DUP7 DUP4 PUSH2 0x2540 JUMP JUMPDEST SWAP6 POP DUP1 NOT DUP5 AND SWAP4 POP DUP1 DUP7 AND DUP5 OR SWAP3 POP POP POP SWAP4 SWAP3 POP POP POP JUMP JUMPDEST PUSH0 DUP2 SWAP1 POP SWAP2 SWAP1 POP JUMP JUMPDEST PUSH0 DUP2 SWAP1 POP SWAP2 SWAP1 POP JUMP JUMPDEST PUSH0 PUSH2 0x25C9 PUSH2 0x25C4 PUSH2 0x25BF DUP5 PUSH2 0x259D JUMP JUMPDEST PUSH2 0x25A6 JUMP JUMPDEST PUSH2 0x259D JUMP JUMPDEST SWAP1 POP SWAP2 SWAP1 POP JUMP JUMPDEST PUSH0 DUP2 SWAP1 POP SWAP2 SWAP1 POP JUMP JUMPDEST PUSH2 0x25E2 DUP4 PUSH2 0x25AF JUMP JUMPDEST PUSH2 0x25F6 PUSH2 0x25EE DUP3 PUSH2 0x25D0 JUMP JUMPDEST DUP5 DUP5 SLOAD PUSH2 0x254C JUMP JUMPDEST DUP3 SSTORE POP POP POP POP JUMP JUMPDEST PUSH0 SWAP1 JUMP JUMPDEST PUSH2 0x260A PUSH2 0x25FE JUMP JUMPDEST PUSH2 0x2615 DUP2 DUP5 DUP5 PUSH2 0x25D9 JUMP JUMPDEST POP POP POP JUMP JUMPDEST JUMPDEST DUP2 DUP2 LT ISZERO PUSH2 0x2638 JUMPI PUSH2 0x262D PUSH0 DUP3 PUSH2 0x2602 JUMP JUMPDEST PUSH1 0x1 DUP2 ADD SWAP1 POP PUSH2 0x261B JUMP JUMPDEST POP POP JUMP JUMPDEST PUSH1 0x1F DUP3 GT ISZERO PUSH2 0x267D JUMPI PUSH2 0x264E DUP2 PUSH2 0x251F JUMP JUMPDEST PUSH2 0x2657 DUP5 PUSH2 0x2531 JUMP JUMPDEST DUP2 ADD PUSH1 0x20 DUP6 LT ISZERO PUSH2 0x2666 JUMPI DUP2 SWAP1 POP JUMPDEST PUSH2 0x267A PUSH2 0x2672 DUP6 PUSH2 0x2531 JUMP JUMPDEST DUP4 ADD DUP3 PUSH2 0x261A JUMP JUMPDEST POP POP JUMPDEST POP POP POP JUMP JUMPDEST PUSH0 DUP3 DUP3 SHR SWAP1 POP SWAP3 SWAP2 POP POP JUMP JUMPDEST PUSH0 PUSH2 0x269D PUSH0 NOT DUP5 PUSH1 0x8 MUL PUSH2 0x2682 JUMP JUMPDEST NOT DUP1 DUP4 AND SWAP2 POP POP SWAP3 SWAP2 POP POP JUMP JUMPDEST PUSH0 PUSH2 0x26B5 DUP4 DUP4 PUSH2 0x268E JUMP JUMPDEST SWAP2 POP DUP3 PUSH1 0x2 MUL DUP3 OR SWAP1 POP SWAP3 SWAP2 POP POP JUMP JUMPDEST PUSH2 0x26CE DUP3 PUSH2 0x1D0A JUMP JUMPDEST PUSH8 0xFFFFFFFFFFFFFFFF DUP2 GT ISZERO PUSH2 0x26E7 JUMPI PUSH2 0x26E6 PUSH2 0x1B5E JUMP JUMPDEST JUMPDEST PUSH2 0x26F1 DUP3 SLOAD PUSH2 0x235B JUMP JUMPDEST PUSH2 0x26FC DUP3 DUP3 DUP6 PUSH2 0x263C JUMP JUMPDEST PUSH0 PUSH1 0x20 SWAP1 POP PUSH1 0x1F DUP4 GT PUSH1 0x1 DUP2 EQ PUSH2 0x272D JUMPI PUSH0 DUP5 ISZERO PUSH2 0x271B JUMPI DUP3 DUP8 ADD MLOAD SWAP1 POP JUMPDEST PUSH2 0x2725 DUP6 DUP3 PUSH2 0x26AA JUMP JUMPDEST DUP7 SSTORE POP PUSH2 0x278C JUMP JUMPDEST PUSH1 0x1F NOT DUP5 AND PUSH2 0x273B DUP7 PUSH2 0x251F JUMP JUMPDEST PUSH0 JUMPDEST DUP3 DUP2 LT ISZERO PUSH2 0x2762 JUMPI DUP5 DUP10 ADD MLOAD DUP3 SSTORE PUSH1 0x1 DUP3 ADD SWAP2 POP PUSH1 0x20 DUP6 ADD SWAP5 POP PUSH1 0x20 DUP2 ADD SWAP1 POP PUSH2 0x273D JUMP JUMPDEST DUP7 DUP4 LT ISZERO PUSH2 0x277F JUMPI DUP5 DUP10 ADD MLOAD PUSH2 0x277B PUSH1 0x1F DUP10 AND DUP3 PUSH2 0x268E JUMP JUMPDEST DUP4 SSTORE POP JUMPDEST PUSH1 0x1 PUSH1 0x2 DUP9 MUL ADD DUP9 SSTORE POP POP POP JUMPDEST POP POP POP POP POP POP JUMP JUMPDEST PUSH0 PUSH2 0x27A6 PUSH2 0x27A1 DUP5 PUSH2 0x1DA4 JUMP JUMPDEST PUSH2 0x1BBC JUMP JUMPDEST SWAP1 POP DUP3 DUP2 MSTORE PUSH1 0x20 DUP2 ADD DUP5 DUP5 DUP5 ADD GT ISZERO PUSH2 0x27C2 JUMPI PUSH2 0x27C1 PUSH2 0x1B4A JUMP JUMPDEST JUMPDEST PUSH2 0x27CD DUP5 DUP3 DUP6 PUSH2 0x1D24 JUMP JUMPDEST POP SWAP4 SWAP3 POP POP POP JUMP JUMPDEST PUSH0 DUP3 PUSH1 0x1F DUP4 ADD SLT PUSH2 0x27E9 JUMPI PUSH2 0x27E8 PUSH2 0x1B46 JUMP JUMPDEST JUMPDEST DUP2 MLOAD PUSH2 0x27F9 DUP5 DUP3 PUSH1 0x20 DUP7 ADD PUSH2 0x2794 JUMP JUMPDEST SWAP2 POP POP SWAP3 SWAP2 POP POP JUMP JUMPDEST PUSH2 0x280B DUP2 PUSH2 0x1E89 JUMP JUMPDEST DUP2 EQ PUSH2 0x2815 JUMPI PUSH0 DUP1 REVERT JUMPDEST POP JUMP JUMPDEST PUSH0 DUP2 MLOAD SWAP1 POP PUSH2 0x2826 DUP2 PUSH2 0x2802 JUMP JUMPDEST SWAP3 SWAP2 POP POP JUMP JUMPDEST PUSH0 DUP1 PUSH1 0x40 DUP4 DUP6 SUB SLT ISZERO PUSH2 0x2842 JUMPI PUSH2 0x2841 PUSH2 0x1B0B JUMP JUMPDEST JUMPDEST PUSH0 DUP4 ADD MLOAD PUSH8 0xFFFFFFFFFFFFFFFF DUP2 GT ISZERO PUSH2 0x285F JUMPI PUSH2 0x285E PUSH2 0x1B0F JUMP JUMPDEST JUMPDEST PUSH2 0x286B DUP6 DUP3 DUP7 ADD PUSH2 0x27D5 JUMP JUMPDEST SWAP3 POP POP PUSH1 0x20 PUSH2 0x287C DUP6 DUP3 DUP7 ADD PUSH2 0x2818 JUMP JUMPDEST SWAP2 POP POP SWAP3 POP SWAP3 SWAP1 POP JUMP JUMPDEST PUSH0 DUP2 SLOAD PUSH2 0x2892 DUP2 PUSH2 0x235B JUMP JUMPDEST PUSH2 0x289C DUP2 DUP7 PUSH2 0x1D14 JUMP JUMPDEST SWAP5 POP PUSH1 0x1 DUP3 AND PUSH0 DUP2 EQ PUSH2 0x28B6 JUMPI PUSH1 0x1 DUP2 EQ PUSH2 0x28CC JUMPI PUSH2 0x28FE JUMP JUMPDEST PUSH1 0xFF NOT DUP4 AND DUP7 MSTORE DUP2 ISZERO ISZERO PUSH1 0x20 MUL DUP7 ADD SWAP4 POP PUSH2 0x28FE JUMP JUMPDEST PUSH2 0x28D5 DUP6 PUSH2 0x251F JUMP JUMPDEST PUSH0 JUMPDEST DUP4 DUP2 LT ISZERO PUSH2 0x28F6 JUMPI DUP2 SLOAD DUP2 DUP10 ADD MSTORE PUSH1 0x1 DUP3 ADD SWAP2 POP PUSH1 0x20 DUP2 ADD SWAP1 POP PUSH2 0x28D7 JUMP JUMPDEST DUP1 DUP9 ADD SWAP6 POP POP POP JUMPDEST POP POP POP SWAP3 SWAP2 POP POP JUMP JUMPDEST PUSH0 PUSH1 0x40 DUP3 ADD SWAP1 POP DUP2 DUP2 SUB PUSH0 DUP4 ADD MSTORE PUSH2 0x291F DUP2 DUP6 PUSH2 0x2886 JUMP JUMPDEST SWAP1 POP DUP2 DUP2 SUB PUSH1 0x20 DUP4 ADD MSTORE PUSH2 0x2933 DUP2 DUP5 PUSH2 0x2886 JUMP JUMPDEST SWAP1 POP SWAP4 SWAP3 POP POP POP JUMP JUMPDEST PUSH0 PUSH10 0xFFFFFFFFFFFFFFFFFFFF DUP3 AND SWAP1 POP SWAP2 SWAP1 POP JUMP JUMPDEST PUSH2 0x295A DUP2 PUSH2 0x293C JUMP JUMPDEST DUP2 EQ PUSH2 0x2964 JUMPI PUSH0 DUP1 REVERT JUMPDEST POP JUMP JUMPDEST PUSH0 DUP2 MLOAD SWAP1 POP PUSH2 0x2975 DUP2 PUSH2 0x2951 JUMP JUMPDEST SWAP3 SWAP2 POP POP JUMP JUMPDEST PUSH2 0x2984 DUP2 PUSH2 0x259D JUMP JUMPDEST DUP2 EQ PUSH2 0x298E JUMPI PUSH0 DUP1 REVERT JUMPDEST POP JUMP JUMPDEST PUSH0 DUP2 MLOAD SWAP1 POP PUSH2 0x299F DUP2 PUSH2 0x297B JUMP JUMPDEST SWAP3 SWAP2 POP POP JUMP JUMPDEST PUSH0 DUP1 PUSH0 DUP1 PUSH0 PUSH1 0xA0 DUP7 DUP9 SUB SLT ISZERO PUSH2 0x29BE JUMPI PUSH2 0x29BD PUSH2 0x1B0B JUMP JUMPDEST JUMPDEST PUSH0 PUSH2 0x29CB DUP9 DUP3 DUP10 ADD PUSH2 0x2967 JUMP JUMPDEST SWAP6 POP POP PUSH1 0x20 PUSH2 0x29DC DUP9 DUP3 DUP10 ADD PUSH2 0x2818 JUMP JUMPDEST SWAP5 POP POP PUSH1 0x40 PUSH2 0x29ED DUP9 DUP3 DUP10 ADD PUSH2 0x2991 JUMP JUMPDEST SWAP4 POP POP PUSH1 0x60 PUSH2 0x29FE DUP9 DUP3 DUP10 ADD PUSH2 0x2991 JUMP JUMPDEST SWAP3 POP POP PUSH1 0x80 PUSH2 0x2A0F DUP9 DUP3 DUP10 ADD PUSH2 0x2967 JUMP JUMPDEST SWAP2 POP POP SWAP3 SWAP6 POP SWAP3 SWAP6 SWAP1 SWAP4 POP JUMP JUMPDEST PUSH32 0x4F6E6C792063616C6C61626C65206279206F776E657200000000000000000000 PUSH0 DUP3 ADD MSTORE POP JUMP JUMPDEST PUSH0 PUSH2 0x2A50 PUSH1 0x16 DUP4 PUSH2 0x24A7 JUMP JUMPDEST SWAP2 POP PUSH2 0x2A5B DUP3 PUSH2 0x2A1C JUMP JUMPDEST PUSH1 0x20 DUP3 ADD SWAP1 POP SWAP2 SWAP1 POP JUMP JUMPDEST PUSH0 PUSH1 0x20 DUP3 ADD SWAP1 POP DUP2 DUP2 SUB PUSH0 DUP4 ADD MSTORE PUSH2 0x2A7D DUP2 PUSH2 0x2A44 JUMP JUMPDEST SWAP1 POP SWAP2 SWAP1 POP JUMP JUMPDEST PUSH32 0x4E487B7100000000000000000000000000000000000000000000000000000000 PUSH0 MSTORE PUSH1 0x21 PUSH1 0x4 MSTORE PUSH1 0x24 PUSH0 REVERT JUMPDEST PUSH32 0x4E487B7100000000000000000000000000000000000000000000000000000000 PUSH0 MSTORE PUSH1 0x32 PUSH1 0x4 MSTORE PUSH1 0x24 PUSH0 REVERT JUMPDEST PUSH0 PUSH2 0x2AE8 DUP3 PUSH2 0x259D JUMP JUMPDEST SWAP2 POP PUSH32 0xFFFFFFFFFFFFFFFFFFFFFFFFFFFFFFFFFFFFFFFFFFFFFFFFFFFFFFFFFFFFFFFF DUP3 SUB PUSH2 0x2B1A JUMPI PUSH2 0x2B19 PUSH2 0x2412 JUMP JUMPDEST JUMPDEST PUSH1 0x1 DUP3 ADD SWAP1 POP SWAP2 SWAP1 POP JUMP JUMPDEST PUSH2 0x2B2E DUP2 PUSH2 0x1F48 JUMP JUMPDEST DUP3 MSTORE POP POP JUMP JUMPDEST PUSH0 PUSH2 0xFFFF DUP3 AND SWAP1 POP SWAP2 SWAP1 POP JUMP JUMPDEST PUSH2 0x2B4A DUP2 PUSH2 0x2B34 JUMP JUMPDEST DUP3 MSTORE POP POP JUMP JUMPDEST PUSH0 PUSH4 0xFFFFFFFF DUP3 AND SWAP1 POP SWAP2 SWAP1 POP JUMP JUMPDEST PUSH2 0x2B68 DUP2 PUSH2 0x2B50 JUMP JUMPDEST DUP3 MSTORE POP POP JUMP JUMPDEST PUSH0 PUSH1 0xA0 DUP3 ADD SWAP1 POP PUSH2 0x2B81 PUSH0 DUP4 ADD DUP9 PUSH2 0x2B25 JUMP JUMPDEST DUP2 DUP2 SUB PUSH1 0x20 DUP4 ADD MSTORE PUSH2 0x2B93 DUP2 DUP8 PUSH2 0x1D4C JUMP JUMPDEST SWAP1 POP PUSH2 0x2BA2 PUSH1 0x40 DUP4 ADD DUP7 PUSH2 0x2B41 JUMP JUMPDEST PUSH2 0x2BAF PUSH1 0x60 DUP4 ADD DUP6 PUSH2 0x2B5F JUMP JUMPDEST PUSH2 0x2BBC PUSH1 0x80 DUP4 ADD DUP5 PUSH2 0x2210 JUMP JUMPDEST SWAP7 SWAP6 POP POP POP POP POP POP JUMP JUMPDEST PUSH0 DUP2 MLOAD SWAP1 POP PUSH2 0x2BD4 DUP2 PUSH2 0x1B1C JUMP JUMPDEST SWAP3 SWAP2 POP POP JUMP JUMPDEST PUSH0 PUSH1 0x20 DUP3 DUP5 SUB SLT ISZERO PUSH2 0x2BEF JUMPI PUSH2 0x2BEE PUSH2 0x1B0B JUMP JUMPDEST JUMPDEST PUSH0 PUSH2 0x2BFC DUP5 DUP3 DUP6 ADD PUSH2 0x2BC6 JUMP JUMPDEST SWAP2 POP POP SWAP3 SWAP2 POP POP JUMP JUMPDEST PUSH32 0x43616E6E6F74207472616E7366657220746F2073656C66000000000000000000 PUSH0 DUP3 ADD MSTORE POP JUMP JUMPDEST PUSH0 PUSH2 0x2C39 PUSH1 0x17 DUP4 PUSH2 0x24A7 JUMP JUMPDEST SWAP2 POP PUSH2 0x2C44 DUP3 PUSH2 0x2C05 JUMP JUMPDEST PUSH1 0x20 DUP3 ADD SWAP1 POP SWAP2 SWAP1 POP JUMP JUMPDEST PUSH0 PUSH1 0x20 DUP3 ADD SWAP1 POP DUP2 DUP2 SUB PUSH0 DUP4 ADD MSTORE PUSH2 0x2C66 DUP2 PUSH2 0x2C2D JUMP JUMPDEST SWAP1 POP SWAP2 SWAP1 POP JUMP JUMPDEST PUSH2 0x2C76 DUP2 PUSH2 0x259D JUMP JUMPDEST DUP3 MSTORE POP POP JUMP JUMPDEST PUSH0 PUSH1 0x20 DUP3 ADD SWAP1 POP PUSH2 0x2C8F PUSH0 DUP4 ADD DUP5 PUSH2 0x2C6D JUMP JUMPDEST SWAP3 SWAP2 POP POP JUMP JUMPDEST PUSH0 PUSH2 0x2C9F DUP3 PUSH2 0x259D JUMP JUMPDEST SWAP2 POP PUSH2 0x2CAA DUP4 PUSH2 0x259D JUMP JUMPDEST SWAP3 POP DUP3 DUP3 ADD SWAP1 POP DUP1 DUP3 GT ISZERO PUSH2 0x2CC2 JUMPI PUSH2 0x2CC1 PUSH2 0x2412 JUMP JUMPDEST JUMPDEST SWAP3 SWAP2 POP POP JUMP JUMPDEST PUSH0 PUSH2 0x2CD2 DUP3 PUSH2 0x259D JUMP JUMPDEST SWAP2 POP PUSH2 0x2CDD DUP4 PUSH2 0x259D JUMP JUMPDEST SWAP3 POP DUP3 DUP3 SUB SWAP1 POP DUP2 DUP2 GT ISZERO PUSH2 0x2CF5 JUMPI PUSH2 0x2CF4 PUSH2 0x2412 JUMP JUMPDEST JUMPDEST SWAP3 SWAP2 POP POP JUMP JUMPDEST PUSH0 PUSH2 0x2D05 DUP3 PUSH2 0x259D JUMP JUMPDEST SWAP2 POP PUSH2 0x2D10 DUP4 PUSH2 0x259D JUMP JUMPDEST SWAP3 POP DUP3 PUSH2 0x2D20 JUMPI PUSH2 0x2D1F PUSH2 0x23E5 JUMP JUMPDEST JUMPDEST DUP3 DUP3 MOD SWAP1 POP SWAP3 SWAP2 POP POP JUMP JUMPDEST PUSH0 PUSH2 0x2D35 DUP3 PUSH2 0x259D JUMP JUMPDEST SWAP2 POP PUSH2 0x2D40 DUP4 PUSH2 0x259D JUMP JUMPDEST SWAP3 POP DUP3 DUP3 MUL PUSH2 0x2D4E DUP2 PUSH2 0x259D JUMP JUMPDEST SWAP2 POP DUP3 DUP3 DIV DUP5 EQ DUP4 ISZERO OR PUSH2 0x2D65 JUMPI PUSH2 0x2D64 PUSH2 0x2412 JUMP JUMPDEST JUMPDEST POP SWAP3 SWAP2 POP POP JUMP JUMPDEST PUSH0 DUP2 PUSH1 0x1 SHR SWAP1 POP SWAP2 SWAP1 POP JUMP JUMPDEST PUSH0 DUP1 DUP3 SWAP2 POP DUP4 SWAP1 POP JUMPDEST PUSH1 0x1 DUP6 GT ISZERO PUSH2 0x2DC1 JUMPI DUP1 DUP7 DIV DUP2 GT ISZERO PUSH2 0x2D9D JUMPI PUSH2 0x2D9C PUSH2 0x2412 JUMP JUMPDEST JUMPDEST PUSH1 0x1 DUP6 AND ISZERO PUSH2 0x2DAC JUMPI DUP1 DUP3 MUL SWAP2 POP JUMPDEST DUP1 DUP2 MUL SWAP1 POP PUSH2 0x2DBA DUP6 PUSH2 0x2D6C JUMP JUMPDEST SWAP5 POP PUSH2 0x2D81 JUMP JUMPDEST SWAP5 POP SWAP5 SWAP3 POP POP POP JUMP JUMPDEST PUSH0 DUP3 PUSH2 0x2DD9 JUMPI PUSH1 0x1 SWAP1 POP PUSH2 0x2E94 JUMP JUMPDEST DUP2 PUSH2 0x2DE6 JUMPI PUSH0 SWAP1 POP PUSH2 0x2E94 JUMP JUMPDEST DUP2 PUSH1 0x1 DUP2 EQ PUSH2 0x2DFC JUMPI PUSH1 0x2 DUP2 EQ PUSH2 0x2E06 JUMPI PUSH2 0x2E35 JUMP JUMPDEST PUSH1 0x1 SWAP2 POP POP PUSH2 0x2E94 JUMP JUMPDEST PUSH1 0xFF DUP5 GT ISZERO PUSH2 0x2E18 JUMPI PUSH2 0x2E17 PUSH2 0x2412 JUMP JUMPDEST JUMPDEST DUP4 PUSH1 0x2 EXP SWAP2 POP DUP5 DUP3 GT ISZERO PUSH2 0x2E2F JUMPI PUSH2 0x2E2E PUSH2 0x2412 JUMP JUMPDEST JUMPDEST POP PUSH2 0x2E94 JUMP JUMPDEST POP PUSH1 0x20 DUP4 LT PUSH2 0x133 DUP4 LT AND PUSH1 0x4E DUP5 LT PUSH1 0xB DUP5 LT AND OR ISZERO PUSH2 0x2E6A JUMPI DUP3 DUP3 EXP SWAP1 POP DUP4 DUP2 GT ISZERO PUSH2 0x2E65 JUMPI PUSH2 0x2E64 PUSH2 0x2412 JUMP JUMPDEST JUMPDEST PUSH2 0x2E94 JUMP JUMPDEST PUSH2 0x2E77 DUP5 DUP5 DUP5 PUSH1 0x1 PUSH2 0x2D78 JUMP JUMPDEST SWAP3 POP SWAP1 POP DUP2 DUP5 DIV DUP2 GT ISZERO PUSH2 0x2E8E JUMPI PUSH2 0x2E8D PUSH2 0x2412 JUMP JUMPDEST JUMPDEST DUP2 DUP2 MUL SWAP1 POP JUMPDEST SWAP4 SWAP3 POP POP POP JUMP JUMPDEST PUSH0 PUSH2 0x2EA5 DUP3 PUSH2 0x259D JUMP JUMPDEST SWAP2 POP PUSH2 0x2EB0 DUP4 PUSH2 0x259D JUMP JUMPDEST SWAP3 POP PUSH2 0x2EDD PUSH32 0xFFFFFFFFFFFFFFFFFFFFFFFFFFFFFFFFFFFFFFFFFFFFFFFFFFFFFFFFFFFFFFFF DUP5 DUP5 PUSH2 0x2DCA JUMP JUMPDEST SWAP1 POP SWAP3 SWAP2 POP POP JUMP INVALID LOG2 PUSH5 0x6970667358 0x22 SLT KECCAK256 DUP16 0xCB PUSH15 0x2FD2959219813638DCD2653AACEA0D SUB 0x25 SGT 0xB5 0x28 BLOCKHASH 0xDE PUSH22 0x540D7993E48D64736F6C63430008140033636F6E7374 KECCAK256 PUSH6 0x746865727320 RETURNDATASIZE KECCAK256 PUSH2 0x7761 PUSH10 0x7420696D706F72742827 PUSH15 0x706D3A65746865727340362E31302E ADDRESS 0x27 0x29 EXTCODESIZE PUSH4 0x6F6E7374 KECCAK256 PUSH7 0x726F6D53796D62 PUSH16 0x6C203D20617267735B305D3B636F6E73 PUSH21 0x20746F53796D626F6C73203D20617267735B315D3B PUSH4 0x6F6E7374 KECCAK256 PUSH22 0x726C32203D206068747470733A2F2F6170692E676574 PUSH8 0x656F6170692E636F PUSH14 0x2F76322F63757272656E63792F63 PUSH16 0x6E76657274603B636F6E73742075726C CALLER KECCAK256 RETURNDATASIZE KECCAK256 PUSH1 0x68 PUSH21 0x7470733A2F2F7777772E616C70686176616E746167 PUSH6 0x2E636F2F7175 PUSH6 0x7279603B636F PUSH15 0x73742067657467656F617069526571 PUSH22 0x657374203D2046756E6374696F6E732E6D616B654874 PUSH21 0x7052657175657374287B202075726C3A2075726C32 0x2C KECCAK256 KECCAK256 PUSH9 0x6561646572733A207B KECCAK256 KECCAK256 KECCAK256 KECCAK256 0x27 NUMBER PUSH16 0x6E74656E742D54797065273A20276170 PUSH17 0x6C69636174696F6E2F6A736F6E272C2020 PUSH30 0x2C2020706172616D733A207B2020202066726F6D3A2066726F6D53796D62 PUSH16 0x6C2C20202020746F3A20746F53796D62 PUSH16 0x6C732C20202020616D6F756E743A2031 0x2C KECCAK256 KECCAK256 KECCAK256 KECCAK256 PUSH7 0x6F726D61743A20 0x27 PUSH11 0x736F6E272C202020206170 PUSH10 0x5F6B65793A2027316463 PUSH7 0x35623434373433 CALLDATALOAD BALANCE ORIGIN CALLVALUE PUSH5 0x3864373038 CODECOPY CALLDATALOAD PUSH2 0x3735 CALLER CALLDATALOAD CALLDATASIZE PUSH2 0x3832 ADDRESS CODESIZE CODESIZE CALLDATACOPY PUSH6 0x326164272C20 KECCAK256 PUSH30 0x2C7D293B636F6E7374206170696C6179657252657175657374203D204675 PUSH15 0x6374696F6E732E6D616B6548747470 MSTORE PUSH6 0x717565737428 PUSH28 0x202075726C3A2075726C332C2020686561646572733A207B20202020 0x27 NUMBER PUSH16 0x6E74656E742D54797065273A20276170 PUSH17 0x6C69636174696F6E2F6A736F6E272C2020 PUSH30 0x2C2020706172616D733A207B2020202066726F6D5F63757272656E63793A KECCAK256 PUSH7 0x726F6D53796D62 PUSH16 0x6C2C20202020746F5F63757272656E63 PUSH26 0x3A20746F53796D626F6C732C2020202066756E6374696F6E3A20 0x27 NUMBER SSTORE MSTORE MSTORE GASLIMIT 0x4E NUMBER MSIZE PUSH0 GASLIMIT PC NUMBER BASEFEE COINBASE 0x4E SELFBALANCE GASLIMIT PUSH0 MSTORE COINBASE SLOAD GASLIMIT 0x27 0x2C KECCAK256 KECCAK256 KECCAK256 KECCAK256 PUSH2 0x7069 PUSH12 0x65793A202743304C514D4E36 CODECOPY MLOAD CALLER MSTORE MSTORE8 ORIGIN CALLER 0x49 COINBASE 0x27 0x2C KECCAK256 KECCAK256 PUSH30 0x2C7D293B636F6E73742067657467656F617069526573706F6E7365203D20 PUSH2 0x7761 PUSH10 0x742067657467656F6170 PUSH10 0x526571756573743B636F PUSH15 0x7374206170696C6179657252657370 PUSH16 0x6E7365203D206177616974206170696C PUSH2 0x7965 PUSH19 0x526571756573743B6966202867657467656F61 PUSH17 0x69526573706F6E73652E6572726F722920 PUSH28 0x2020636F6E736F6C652E6572726F722867657467656F617069526573 PUSH17 0x6F6E73652E6572726F72293B2020746872 PUSH16 0x77204572726F72282767657467656F61 PUSH17 0x69526573706F6E7365206661696C656427 0x29 EXTCODESIZE PUSH30 0x696620286170696C61796572526573706F6E73652E6572726F7229207B20 KECCAK256 PUSH4 0x6F6E736F PUSH13 0x652E6572726F72286170696C61 PUSH26 0x6572526573706F6E73652E6572726F72293B20207468726F7720 GASLIMIT PUSH19 0x726F7228276170696C61796572526573706F6E PUSH20 0x65206661696C656427293B7D636F6E7374206765 PUSH21 0x67656F61706944617461203D2067657467656F6170 PUSH10 0x526573706F6E73655B27 PUSH5 0x617461275D EXTCODESIZE PUSH4 0x6F6E7374 KECCAK256 PUSH2 0x7069 PUSH13 0x6179657244617461203D206170 PUSH10 0x6C61796572526573706F PUSH15 0x73655B2764617461275D3B69662028 PUSH8 0x657467656F617069 PREVRANDAO PUSH2 0x7461 0x2E MSTORE PUSH6 0x73706F6E7365 KECCAK256 RETURNDATASIZE RETURNDATASIZE RETURNDATASIZE KECCAK256 0x27 GASLIMIT PUSH19 0x726F722729207B2020636F6E736F6C652E6572 PUSH19 0x6F722867657467656F617069446174612E4D65 PUSH20 0x73616765293B20207468726F77204572726F7228 KECCAK256 KECCAK256 KECCAK256 KECCAK256 PUSH1 0x46 PUSH22 0x6E6374696F6E616C206572726F722E2067657467656F PUSH2 0x7069 PREVRANDAO PUSH2 0x7461 KECCAK256 MSTORE PUSH6 0x6164206D6573 PUSH20 0x6167653A20247B67657467656F61706944617461 0x2E 0x4D PUSH6 0x73736167657D PUSH1 0x20 KECCAK256 0x29 EXTCODESIZE PUSH30 0x696620286170696C61796572446174612E526573706F6E7365203D3D3D20 0x27 GASLIMIT PUSH19 0x726F722729207B2020636F6E736F6C652E6572 PUSH19 0x6F72286170696C61796572446174612E4D6573 PUSH20 0x616765293B20207468726F77204572726F722820 KECCAK256 KECCAK256 KECCAK256 PUSH1 0x46 PUSH22 0x6E6374696F6E616C206572726F722E206170696C6179 PUSH6 0x724461746120 MSTORE PUSH6 0x6164206D6573 PUSH20 0x6167653A20247B6170696C61796572446174612E 0x4D PUSH6 0x73736167657D PUSH1 0x20 KECCAK256 0x29 EXTCODESIZE PUSH30 0x6C65742067657467656F617069526573756C7473203D2067657467656F61 PUSH17 0x69446174615B277261746573275D3B6C65 PUSH21 0x206170696C61796572526573756C7473203D207B7D EXTCODESIZE PUSH2 0x7069 PUSH13 0x61796572526573756C74735B74 PUSH16 0x53796D626F6C735D203D20206170696C PUSH2 0x7965 PUSH19 0x446174615B275265616C74696D652043757272 PUSH6 0x6E6379204578 PUSH4 0x68616E67 PUSH6 0x205261746527 0x5D JUMPDEST 0x27 CALLDATALOAD 0x2E KECCAK256 GASLIMIT PUSH25 0x6368616E67652052617465275D3B666F722028636F6E737420 JUMPDEST PUSH12 0x65792C2076616C75655D206F PUSH7 0x204F626A656374 0x2E PUSH6 0x6E7472696573 0x28 PUSH8 0x657467656F617069 MSTORE PUSH6 0x73756C747329 0x29 KECCAK256 PUSH28 0x202067657467656F617069526573756C74735B6B65795D203D207061 PUSH19 0x7365496E7428202020207061727365466C6F61 PUSH21 0x2867657467656F617069526573756C74735B6B6579 0x5D JUMPDEST 0x27 PUSH19 0x617465275D29202A2031303030303030202029 EXTCODESIZE PUSH30 0x666F722028636F6E7374205B6B65792C2076616C75655D206F66204F626A PUSH6 0x63742E656E74 PUSH19 0x696573286170696C61796572526573756C7473 0x29 0x29 KECCAK256 PUSH28 0x20206170696C61796572526573756C74735B6B65795D203D20706172 PUSH20 0x65496E74287061727365466C6F6174286170696C PUSH2 0x7965 PUSH19 0x526573756C74735B6B65795D29202A20313030 ADDRESS ADDRESS ADDRESS ADDRESS 0x29 EXTCODESIZE PUSH30 0x636F6E73742061727261794C697374203D205B67657467656F6170695265 PUSH20 0x756C74732C206170696C61796572526573756C74 PUSH20 0x5D3B6C65742066696E616C526573756C7473203D KECCAK256 PUSH28 0x7D3B636F6E7374206B657973203D205B5D3B636F6E73742076616C75 PUSH6 0x73203D205B5D EXTCODESIZE PUSH7 0x6F722028636F6E PUSH20 0x74205B6B65792C2076616C75655D206F66204F62 PUSH11 0x6563742E656E7472696573 0x28 PUSH8 0x657467656F617069 MSTORE PUSH6 0x73756C747329 0x29 KECCAK256 PUSH28 0x2020636F6E73742072657056616C203D207061727365496E74282867 PUSH6 0x7467656F6170 PUSH10 0x526573756C74735B6B65 PUSH26 0x5D202B206170696C61796572526573756C74735B6B65795D2920 0x2F KECCAK256 ORIGIN 0x29 EXTCODESIZE KECCAK256 KECCAK256 PUSH10 0x66202872657056616C20 RETURNDATACOPY KECCAK256 ADDRESS 0x29 KECCAK256 PUSH28 0x202020206B6579732E70757368286B6579293B2020202076616C7565 PUSH20 0x2E707573682872657056616C293B20207D7D636F PUSH15 0x737420656E636F646564203D206574 PUSH9 0x6572732E416269436F PUSH5 0x65722E6465 PUSH7 0x61756C74416269 NUMBER PUSH16 0x64657228292E656E636F64652820205B 0x27 PUSH20 0x7472696E67272C2027696E74323536275D2C2020 JUMPDEST PUSH12 0x6579735B305D2C2076616C75 PUSH6 0x735B305D5D29 EXTCODESIZE PUSH19 0x657475726E206574686572732E676574427974 PUSH6 0x7328656E636F PUSH5 0x6564293B00 "
		},
		"gasEstimates": {
			"creation": {
				"codeDepositCost": "2411800",
				"executionCost": "infinite",
				"totalCost": "infinite"
			},
			"external": {
				"acceptOwnership()": "54556",
				"getPrice(string)": "infinite",
				"handleOracleFulfillment(bytes32,bytes,bytes)": "infinite",
				"owner()": "2560",
				"priceAddresses(string)": "infinite",
				"s_lastError()": "infinite",
				"s_lastRequestId()": "2469",
				"s_lastResponse()": "infinite",
				"sendRequest(bytes,uint8,uint64,string[],bytes[])": "infinite",
				"sendRequestCBOR(bytes)": "infinite",
				"setAddress(string,address)": "infinite",
				"stablesPrice(string)": "infinite",
				"transferOwnership(address)": "30711"
			},
			"internal": {
				"fulfillRequest(bytes32,bytes memory,bytes memory)": "infinite",
				"getChainlinkDataFeedLatestAnswer(string memory)": "infinite"
			}
		},
		"methodIdentifiers": {
			"acceptOwnership()": "79ba5097",
			"getPrice(string)": "524f3889",
			"handleOracleFulfillment(bytes32,bytes,bytes)": "0ca76175",
			"owner()": "8da5cb5b",
			"priceAddresses(string)": "57a7a248",
			"s_lastError()": "4b0795a8",
			"s_lastRequestId()": "b1e21749",
			"s_lastResponse()": "3944ea3a",
			"sendRequest(bytes,uint8,uint64,string[],bytes[])": "72a5be5f",
			"sendRequestCBOR(bytes)": "fe75c2b1",
			"setAddress(string,address)": "9b2ea4bd",
			"stablesPrice(string)": "b145b89f",
			"transferOwnership(address)": "f2fde38b"
		}
	},
	"abi": [
		{
			"inputs": [],
			"stateMutability": "nonpayable",
			"type": "constructor"
		},
		{
			"inputs": [],
			"name": "EmptyArgs",
			"type": "error"
		},
		{
			"inputs": [],
			"name": "EmptySecrets",
			"type": "error"
		},
		{
			"inputs": [],
			"name": "EmptySource",
			"type": "error"
		},
		{
			"inputs": [],
			"name": "NoInlineSecrets",
			"type": "error"
		},
		{
			"inputs": [],
			"name": "OnlyRouterCanFulfill",
			"type": "error"
		},
		{
			"inputs": [
				{
					"internalType": "bytes32",
					"name": "requestId",
					"type": "bytes32"
				}
			],
			"name": "UnexpectedRequestID",
			"type": "error"
		},
		{
			"anonymous": false,
			"inputs": [
				{
					"indexed": true,
					"internalType": "address",
					"name": "from",
					"type": "address"
				},
				{
					"indexed": true,
					"internalType": "address",
					"name": "to",
					"type": "address"
				}
			],
			"name": "OwnershipTransferRequested",
			"type": "event"
		},
		{
			"anonymous": false,
			"inputs": [
				{
					"indexed": true,
					"internalType": "address",
					"name": "from",
					"type": "address"
				},
				{
					"indexed": true,
					"internalType": "address",
					"name": "to",
					"type": "address"
				}
			],
			"name": "OwnershipTransferred",
			"type": "event"
		},
		{
			"anonymous": false,
			"inputs": [
				{
					"indexed": true,
					"internalType": "bytes32",
					"name": "id",
					"type": "bytes32"
				}
			],
			"name": "RequestFulfilled",
			"type": "event"
		},
		{
			"anonymous": false,
			"inputs": [
				{
					"indexed": true,
					"internalType": "bytes32",
					"name": "id",
					"type": "bytes32"
				}
			],
			"name": "RequestSent",
			"type": "event"
		},
		{
			"anonymous": false,
			"inputs": [
				{
					"indexed": true,
					"internalType": "bytes32",
					"name": "requestId",
					"type": "bytes32"
				},
				{
					"indexed": false,
					"internalType": "bytes",
					"name": "response",
					"type": "bytes"
				},
				{
					"indexed": false,
					"internalType": "bytes",
					"name": "err",
					"type": "bytes"
				}
			],
			"name": "Response",
			"type": "event"
		},
		{
			"inputs": [],
			"name": "acceptOwnership",
			"outputs": [],
			"stateMutability": "nonpayable",
			"type": "function"
		},
		{
			"inputs": [
				{
					"internalType": "string",
					"name": "token",
					"type": "string"
				}
			],
			"name": "getPrice",
			"outputs": [
				{
					"internalType": "int256",
					"name": "",
					"type": "int256"
				}
			],
			"stateMutability": "nonpayable",
			"type": "function"
		},
		{
			"inputs": [
				{
					"internalType": "bytes32",
					"name": "requestId",
					"type": "bytes32"
				},
				{
					"internalType": "bytes",
					"name": "response",
					"type": "bytes"
				},
				{
					"internalType": "bytes",
					"name": "err",
					"type": "bytes"
				}
			],
			"name": "handleOracleFulfillment",
			"outputs": [],
			"stateMutability": "nonpayable",
			"type": "function"
		},
		{
			"inputs": [],
			"name": "owner",
			"outputs": [
				{
					"internalType": "address",
					"name": "",
					"type": "address"
				}
			],
			"stateMutability": "view",
			"type": "function"
		},
		{
			"inputs": [
				{
					"internalType": "string",
					"name": "",
					"type": "string"
				}
			],
			"name": "priceAddresses",
			"outputs": [
				{
					"internalType": "address",
					"name": "",
					"type": "address"
				}
			],
			"stateMutability": "view",
			"type": "function"
		},
		{
			"inputs": [],
			"name": "s_lastError",
			"outputs": [
				{
					"internalType": "bytes",
					"name": "",
					"type": "bytes"
				}
			],
			"stateMutability": "view",
			"type": "function"
		},
		{
			"inputs": [],
			"name": "s_lastRequestId",
			"outputs": [
				{
					"internalType": "bytes32",
					"name": "",
					"type": "bytes32"
				}
			],
			"stateMutability": "view",
			"type": "function"
		},
		{
			"inputs": [],
			"name": "s_lastResponse",
			"outputs": [
				{
					"internalType": "bytes",
					"name": "",
					"type": "bytes"
				}
			],
			"stateMutability": "view",
			"type": "function"
		},
		{
			"inputs": [
				{
					"internalType": "bytes",
					"name": "encryptedSecretsUrls",
					"type": "bytes"
				},
				{
					"internalType": "uint8",
					"name": "donHostedSecretsSlotID",
					"type": "uint8"
				},
				{
					"internalType": "uint64",
					"name": "donHostedSecretsVersion",
					"type": "uint64"
				},
				{
					"internalType": "string[]",
					"name": "args",
					"type": "string[]"
				},
				{
					"internalType": "bytes[]",
					"name": "bytesArgs",
					"type": "bytes[]"
				}
			],
			"name": "sendRequest",
			"outputs": [
				{
					"internalType": "bytes32",
					"name": "requestId",
					"type": "bytes32"
				}
			],
			"stateMutability": "nonpayable",
			"type": "function"
		},
		{
			"inputs": [
				{
					"internalType": "bytes",
					"name": "request",
					"type": "bytes"
				}
			],
			"name": "sendRequestCBOR",
			"outputs": [
				{
					"internalType": "bytes32",
					"name": "requestId",
					"type": "bytes32"
				}
			],
			"stateMutability": "nonpayable",
			"type": "function"
		},
		{
			"inputs": [
				{
					"internalType": "string",
					"name": "token",
					"type": "string"
				},
				{
					"internalType": "address",
					"name": "p_address",
					"type": "address"
				}
			],
			"name": "setAddress",
			"outputs": [],
			"stateMutability": "nonpayable",
			"type": "function"
		},
		{
			"inputs": [
				{
					"internalType": "string",
					"name": "",
					"type": "string"
				}
			],
			"name": "stablesPrice",
			"outputs": [
				{
					"internalType": "int256",
					"name": "",
					"type": "int256"
				}
			],
			"stateMutability": "view",
			"type": "function"
		},
		{
			"inputs": [
				{
					"internalType": "address",
					"name": "to",
					"type": "address"
				}
			],
			"name": "transferOwnership",
			"outputs": [],
			"stateMutability": "nonpayable",
			"type": "function"
		}
	]
}